{
  "_format": "hh-sol-artifact-1",
  "contractName": "CyberlionStaking",
  "sourceName": "contracts/CLstaking.sol",
  "abi": [
    {
      "inputs": [
        {
          "internalType": "address",
          "name": "_rewardsToken",
          "type": "address"
        }
      ],
      "stateMutability": "nonpayable",
      "type": "constructor"
    },
    {
      "anonymous": false,
      "inputs": [
        {
          "indexed": true,
          "internalType": "address",
          "name": "previousOwner",
          "type": "address"
        },
        {
          "indexed": true,
          "internalType": "address",
          "name": "newOwner",
          "type": "address"
        }
      ],
      "name": "OwnershipTransferred",
      "type": "event"
    },
    {
      "anonymous": false,
      "inputs": [
        {
          "indexed": true,
          "internalType": "bytes32",
          "name": "role",
          "type": "bytes32"
        },
        {
          "indexed": true,
          "internalType": "bytes32",
          "name": "previousAdminRole",
          "type": "bytes32"
        },
        {
          "indexed": true,
          "internalType": "bytes32",
          "name": "newAdminRole",
          "type": "bytes32"
        }
      ],
      "name": "RoleAdminChanged",
      "type": "event"
    },
    {
      "anonymous": false,
      "inputs": [
        {
          "indexed": true,
          "internalType": "bytes32",
          "name": "role",
          "type": "bytes32"
        },
        {
          "indexed": true,
          "internalType": "address",
          "name": "account",
          "type": "address"
        },
        {
          "indexed": true,
          "internalType": "address",
          "name": "sender",
          "type": "address"
        }
      ],
      "name": "RoleGranted",
      "type": "event"
    },
    {
      "anonymous": false,
      "inputs": [
        {
          "indexed": true,
          "internalType": "bytes32",
          "name": "role",
          "type": "bytes32"
        },
        {
          "indexed": true,
          "internalType": "address",
          "name": "account",
          "type": "address"
        },
        {
          "indexed": true,
          "internalType": "address",
          "name": "sender",
          "type": "address"
        }
      ],
      "name": "RoleRevoked",
      "type": "event"
    },
    {
      "inputs": [],
      "name": "ADMIN_ROLE",
      "outputs": [
        {
          "internalType": "bytes32",
          "name": "",
          "type": "bytes32"
        }
      ],
      "stateMutability": "view",
      "type": "function"
    },
    {
      "inputs": [],
      "name": "DEFAULT_ADMIN_ROLE",
      "outputs": [
        {
          "internalType": "bytes32",
          "name": "",
          "type": "bytes32"
        }
      ],
      "stateMutability": "view",
      "type": "function"
    },
    {
      "inputs": [
        {
          "internalType": "uint256",
          "name": "_collectionID",
          "type": "uint256"
        },
        {
          "internalType": "uint256[]",
          "name": "_tokenIDs",
          "type": "uint256[]"
        }
      ],
      "name": "batchStake",
      "outputs": [],
      "stateMutability": "nonpayable",
      "type": "function"
    },
    {
      "inputs": [
        {
          "internalType": "uint256",
          "name": "_collectionID",
          "type": "uint256"
        },
        {
          "internalType": "uint256[]",
          "name": "_tokenIDs",
          "type": "uint256[]"
        }
      ],
      "name": "batchUnstake",
      "outputs": [],
      "stateMutability": "nonpayable",
      "type": "function"
    },
    {
      "inputs": [
        {
          "internalType": "address",
          "name": "_userAddress",
          "type": "address"
        },
        {
          "internalType": "uint256",
          "name": "_collectionID",
          "type": "uint256"
        },
        {
          "internalType": "uint256",
          "name": "_tokenID",
          "type": "uint256"
        }
      ],
      "name": "claimableReward",
      "outputs": [
        {
          "internalType": "uint256",
          "name": "",
          "type": "uint256"
        }
      ],
      "stateMutability": "view",
      "type": "function"
    },
    {
      "inputs": [
        {
          "internalType": "uint256",
          "name": "",
          "type": "uint256"
        }
      ],
      "name": "collectionInfo",
      "outputs": [
        {
          "internalType": "address",
          "name": "collectionAddress",
          "type": "address"
        },
        {
          "internalType": "uint256",
          "name": "rewardPerDay",
          "type": "uint256"
        },
        {
          "internalType": "uint256",
          "name": "totalAmountStaked",
          "type": "uint256"
        }
      ],
      "stateMutability": "view",
      "type": "function"
    },
    {
      "inputs": [
        {
          "internalType": "bytes32",
          "name": "role",
          "type": "bytes32"
        }
      ],
      "name": "getRoleAdmin",
      "outputs": [
        {
          "internalType": "bytes32",
          "name": "",
          "type": "bytes32"
        }
      ],
      "stateMutability": "view",
      "type": "function"
    },
    {
      "inputs": [
        {
          "internalType": "uint256",
          "name": "_collectionID",
          "type": "uint256"
        }
      ],
      "name": "getTotalStakedItemsCount",
      "outputs": [
        {
          "internalType": "uint256",
          "name": "",
          "type": "uint256"
        }
      ],
      "stateMutability": "view",
      "type": "function"
    },
    {
      "inputs": [
        {
          "internalType": "bytes32",
          "name": "role",
          "type": "bytes32"
        },
        {
          "internalType": "address",
          "name": "account",
          "type": "address"
        }
      ],
      "name": "grantRole",
      "outputs": [],
      "stateMutability": "nonpayable",
      "type": "function"
    },
    {
      "inputs": [
        {
          "internalType": "bytes32",
          "name": "role",
          "type": "bytes32"
        },
        {
          "internalType": "address",
          "name": "account",
          "type": "address"
        }
      ],
      "name": "hasRole",
      "outputs": [
        {
          "internalType": "bool",
          "name": "",
          "type": "bool"
        }
      ],
      "stateMutability": "view",
      "type": "function"
    },
    {
      "inputs": [],
      "name": "mintTest",
      "outputs": [],
      "stateMutability": "nonpayable",
      "type": "function"
    },
    {
      "inputs": [
        {
          "internalType": "address",
          "name": "",
          "type": "address"
        },
        {
          "internalType": "address",
          "name": "",
          "type": "address"
        },
        {
          "internalType": "uint256",
          "name": "",
          "type": "uint256"
        }
      ],
      "name": "onERC721Received",
      "outputs": [
        {
          "internalType": "bytes4",
          "name": "",
          "type": "bytes4"
        }
      ],
      "stateMutability": "pure",
      "type": "function"
    },
    {
      "inputs": [],
      "name": "owner",
      "outputs": [
        {
          "internalType": "address",
          "name": "",
          "type": "address"
        }
      ],
      "stateMutability": "view",
      "type": "function"
    },
    {
      "inputs": [],
      "name": "renounceOwnership",
      "outputs": [],
      "stateMutability": "nonpayable",
      "type": "function"
    },
    {
      "inputs": [
        {
          "internalType": "bytes32",
          "name": "role",
          "type": "bytes32"
        },
        {
          "internalType": "address",
          "name": "account",
          "type": "address"
        }
      ],
      "name": "renounceRole",
      "outputs": [],
      "stateMutability": "nonpayable",
      "type": "function"
    },
    {
      "inputs": [
        {
          "internalType": "bytes32",
          "name": "role",
          "type": "bytes32"
        },
        {
          "internalType": "address",
          "name": "account",
          "type": "address"
        }
      ],
      "name": "revokeRole",
      "outputs": [],
      "stateMutability": "nonpayable",
      "type": "function"
    },
    {
      "inputs": [
        {
          "internalType": "address",
          "name": "admin",
          "type": "address"
        }
      ],
      "name": "setAdminRole",
      "outputs": [],
      "stateMutability": "nonpayable",
      "type": "function"
    },
    {
      "inputs": [
        {
          "internalType": "address",
          "name": "_collectionAddress",
          "type": "address"
        },
        {
          "internalType": "uint256",
          "name": "_rewardPerDay",
          "type": "uint256"
        }
      ],
      "name": "setCollection",
      "outputs": [],
      "stateMutability": "nonpayable",
      "type": "function"
    },
    {
      "inputs": [
        {
          "internalType": "uint256",
          "name": "_collectionID",
          "type": "uint256"
        },
        {
          "internalType": "uint256",
          "name": "_tokenID",
          "type": "uint256"
        }
      ],
      "name": "stake",
      "outputs": [],
      "stateMutability": "nonpayable",
      "type": "function"
    },
    {
      "inputs": [
        {
          "internalType": "bytes4",
          "name": "interfaceId",
          "type": "bytes4"
        }
      ],
      "name": "supportsInterface",
      "outputs": [
        {
          "internalType": "bool",
          "name": "",
          "type": "bool"
        }
      ],
      "stateMutability": "view",
      "type": "function"
    },
    {
      "inputs": [
        {
          "internalType": "address",
          "name": "_userAddress",
          "type": "address"
        },
        {
          "internalType": "uint256",
          "name": "_collectionID",
          "type": "uint256"
        }
      ],
      "name": "totalClaimableReward",
      "outputs": [
        {
          "internalType": "uint256",
          "name": "",
          "type": "uint256"
        }
      ],
      "stateMutability": "view",
      "type": "function"
    },
    {
      "inputs": [
        {
          "internalType": "address",
          "name": "newOwner",
          "type": "address"
        }
      ],
      "name": "transferOwnership",
      "outputs": [],
      "stateMutability": "nonpayable",
      "type": "function"
    },
    {
      "inputs": [
        {
          "internalType": "uint256",
          "name": "_collectionID",
          "type": "uint256"
        },
        {
          "internalType": "uint256",
          "name": "_tokenID",
          "type": "uint256"
        }
      ],
      "name": "unstake",
      "outputs": [],
      "stateMutability": "nonpayable",
      "type": "function"
    },
    {
      "inputs": [
        {
          "internalType": "uint256",
          "name": "_collectionID",
          "type": "uint256"
        },
        {
          "internalType": "address",
          "name": "_collectionAddress",
          "type": "address"
        },
        {
          "internalType": "uint256",
          "name": "_rewardPerDay",
          "type": "uint256"
        }
      ],
      "name": "updateCollection",
      "outputs": [],
      "stateMutability": "nonpayable",
      "type": "function"
    }
  ],
  "bytecode": "0x60806040527fdf8b4c520ffe197c5343c6f5aec59570151ef9a492f2c624fd45ddde6135ec426002553480156200003557600080fd5b5060405162002e8138038062002e8183398181016040528101906200005b919062000394565b6200007b6200006f620000ec60201b60201c565b620000f460201b60201c565b80600360006101000a81548173ffffffffffffffffffffffffffffffffffffffff021916908373ffffffffffffffffffffffffffffffffffffffff160217905550620000d16000801b33620001b860201b60201c565b620000e560025433620001b860201b60201c565b50620003c6565b600033905090565b60008060009054906101000a900473ffffffffffffffffffffffffffffffffffffffff169050816000806101000a81548173ffffffffffffffffffffffffffffffffffffffff021916908373ffffffffffffffffffffffffffffffffffffffff1602179055508173ffffffffffffffffffffffffffffffffffffffff168173ffffffffffffffffffffffffffffffffffffffff167f8be0079c531659141344cd1fd0a4f28419497f9722a3daafe3b4186f6b6457e060405160405180910390a35050565b620001ca8282620001ce60201b60201c565b5050565b620001e08282620002bf60201b60201c565b620002bb57600180600084815260200190815260200160002060000160008373ffffffffffffffffffffffffffffffffffffffff1673ffffffffffffffffffffffffffffffffffffffff16815260200190815260200160002060006101000a81548160ff02191690831515021790555062000260620000ec60201b60201c565b73ffffffffffffffffffffffffffffffffffffffff168173ffffffffffffffffffffffffffffffffffffffff16837f2f8788117e7eff1d82e926ec794901d17c78024a50270940304540a733656f0d60405160405180910390a45b5050565b60006001600084815260200190815260200160002060000160008373ffffffffffffffffffffffffffffffffffffffff1673ffffffffffffffffffffffffffffffffffffffff16815260200190815260200160002060009054906101000a900460ff16905092915050565b600080fd5b600073ffffffffffffffffffffffffffffffffffffffff82169050919050565b60006200035c826200032f565b9050919050565b6200036e816200034f565b81146200037a57600080fd5b50565b6000815190506200038e8162000363565b92915050565b600060208284031215620003ad57620003ac6200032a565b5b6000620003bd848285016200037d565b91505092915050565b612aab80620003d66000396000f3fe608060405234801561001057600080fd5b50600436106101575760003560e01c8063715018a6116100c357806391d148541161007c57806391d14854146103ae5780639e2c8a5b146103de578063a217fddf146103fa578063d547741f14610418578063eeafbddc14610434578063f2fde38b1461046457610157565b8063715018a61461030057806375b238fc1461030a5780637b0472f0146103285780637b71e5db14610344578063842dd90a146103605780638da5cb5b1461039057610157565b80632f2ff15d116101155780632f2ff15d14610242578063302f7fea1461025e57806336568abe1461028e5780633b552dbd146102aa5780634adc7cfd146102da57806366675aa9146102f657610157565b80628afd4e1461015c57806301ffc9a7146101785780630fb4d2e5146101a85780631bbda52b146101da578063248a9ca3146101f65780632edb531c14610226575b600080fd5b61017660048036038101906101719190611e55565b610480565b005b610192600480360381019061018d9190611f09565b6104c6565b60405161019f9190611f51565b60405180910390f35b6101c260048036038101906101bd9190611f6c565b610540565b6040516101d193929190611fe9565b60405180910390f35b6101f460048036038101906101ef9190611e55565b61059a565b005b610210600480360381019061020b9190612056565b6105e0565b60405161021d9190612092565b60405180910390f35b610240600480360381019061023b91906120d9565b610600565b005b61025c60048036038101906102579190612119565b6106cb565b005b61027860048036038101906102739190612159565b6106ec565b60405161028591906121ac565b60405180910390f35b6102a860048036038101906102a39190612119565b6108a5565b005b6102c460048036038101906102bf91906120d9565b610928565b6040516102d191906121ac565b60405180910390f35b6102f460048036038101906102ef91906121c7565b610ad8565b005b6102fe610af5565b005b610308610b94565b005b610312610c1c565b60405161031f9190612092565b60405180910390f35b610342600480360381019061033d91906121f4565b610c22565b005b61035e60048036038101906103599190612234565b610c30565b005b61037a60048036038101906103759190611f6c565b610cb5565b60405161038791906121ac565b60405180910390f35b610398610ce9565b6040516103a59190612287565b60405180910390f35b6103c860048036038101906103c39190612119565b610d12565b6040516103d59190611f51565b60405180910390f35b6103f860048036038101906103f391906121f4565b610d7d565b005b610402610d8b565b60405161040f9190612092565b60405180910390f35b610432600480360381019061042d9190612119565b610d92565b005b61044e600480360381019061044991906122a2565b610db3565b60405161045b9190612304565b60405180910390f35b61047e600480360381019061047991906121c7565b610dc6565b005b60005b81518110156104c1576104b0838383815181106104a3576104a261231f565b5b6020026020010151610ebd565b806104ba9061237d565b9050610483565b505050565b60007f7965db0b000000000000000000000000000000000000000000000000000000007bffffffffffffffffffffffffffffffffffffffffffffffffffffffff1916827bffffffffffffffffffffffffffffffffffffffffffffffffffffffff1916148061053957506105388261125c565b5b9050919050565b6007818154811061055057600080fd5b90600052602060002090600302016000915090508060000160009054906101000a900473ffffffffffffffffffffffffffffffffffffffff16908060010154908060020154905083565b60005b81518110156105db576105ca838383815181106105bd576105bc61231f565b5b60200260200101516112c6565b806105d49061237d565b905061059d565b505050565b600060016000838152602001908152602001600020600101549050919050565b60025461060c81611593565b600760405180606001604052808573ffffffffffffffffffffffffffffffffffffffff1681526020018481526020016000815250908060018154018082558091505060019003906000526020600020906003020160009091909190915060008201518160000160006101000a81548173ffffffffffffffffffffffffffffffffffffffff021916908373ffffffffffffffffffffffffffffffffffffffff16021790555060208201518160010155604082015181600201555050505050565b6106d4826105e0565b6106dd81611593565b6106e783836115a7565b505050565b600080600784815481106107035761070261231f565b5b906000526020600020906003020190508473ffffffffffffffffffffffffffffffffffffffff16600560008360000160009054906101000a900473ffffffffffffffffffffffffffffffffffffffff1673ffffffffffffffffffffffffffffffffffffffff1673ffffffffffffffffffffffffffffffffffffffff168152602001908152602001600020600085815260200190815260200160002060009054906101000a900473ffffffffffffffffffffffffffffffffffffffff1673ffffffffffffffffffffffffffffffffffffffff16146107e457600091505061089e565b6000600660008360000160009054906101000a900473ffffffffffffffffffffffffffffffffffffffff1673ffffffffffffffffffffffffffffffffffffffff1673ffffffffffffffffffffffffffffffffffffffff168152602001908152602001600020600085815260200190815260200160002054905060006108958360010154610887610258854261087991906123c5565b61168790919063ffffffff16565b61169d90919063ffffffff16565b90508093505050505b9392505050565b6108ad6116b3565b73ffffffffffffffffffffffffffffffffffffffff168173ffffffffffffffffffffffffffffffffffffffff161461091a576040517f08c379a00000000000000000000000000000000000000000000000000000000081526004016109119061247c565b60405180910390fd5b61092482826116bb565b5050565b600080600090506000600784815481106109455761094461231f565b5b906000526020600020906003020160000160009054906101000a900473ffffffffffffffffffffffffffffffffffffffff16905060005b600460008373ffffffffffffffffffffffffffffffffffffffff1673ffffffffffffffffffffffffffffffffffffffff16815260200190815260200160002060008773ffffffffffffffffffffffffffffffffffffffff1673ffffffffffffffffffffffffffffffffffffffff16815260200190815260200160002080549050811015610acc576000600460008473ffffffffffffffffffffffffffffffffffffffff1673ffffffffffffffffffffffffffffffffffffffff16815260200190815260200160002060008873ffffffffffffffffffffffffffffffffffffffff1673ffffffffffffffffffffffffffffffffffffffff1681526020019081526020016000208281548110610a9357610a9261231f565b5b90600052602060002001549050610aab8787836106ec565b84610ab6919061249c565b9350508080610ac49061237d565b91505061097c565b50819250505092915050565b6000801b610ae581611593565b610af16002548361179d565b5050565b600254610b0181611593565b600360009054906101000a900473ffffffffffffffffffffffffffffffffffffffff1673ffffffffffffffffffffffffffffffffffffffff166340c10f193360016040518363ffffffff1660e01b8152600401610b5f929190612537565b600060405180830381600087803b158015610b7957600080fd5b505af1158015610b8d573d6000803e3d6000fd5b5050505050565b610b9c6116b3565b73ffffffffffffffffffffffffffffffffffffffff16610bba610ce9565b73ffffffffffffffffffffffffffffffffffffffff1614610c10576040517f08c379a0000000000000000000000000000000000000000000000000000000008152600401610c07906125ac565b60405180910390fd5b610c1a60006117ab565b565b60025481565b610c2c82826112c6565b5050565b600254610c3c81611593565b600060078581548110610c5257610c5161231f565b5b90600052602060002090600302019050838160000160006101000a81548173ffffffffffffffffffffffffffffffffffffffff021916908373ffffffffffffffffffffffffffffffffffffffff1602179055508281600101819055505050505050565b60008060078381548110610ccc57610ccb61231f565b5b906000526020600020906003020190508060020154915050919050565b60008060009054906101000a900473ffffffffffffffffffffffffffffffffffffffff16905090565b60006001600084815260200190815260200160002060000160008373ffffffffffffffffffffffffffffffffffffffff1673ffffffffffffffffffffffffffffffffffffffff16815260200190815260200160002060009054906101000a900460ff16905092915050565b610d878282610ebd565b5050565b6000801b81565b610d9b826105e0565b610da481611593565b610dae83836116bb565b505050565b600063150b7a0260e01b90509392505050565b610dce6116b3565b73ffffffffffffffffffffffffffffffffffffffff16610dec610ce9565b73ffffffffffffffffffffffffffffffffffffffff1614610e42576040517f08c379a0000000000000000000000000000000000000000000000000000000008152600401610e39906125ac565b60405180910390fd5b600073ffffffffffffffffffffffffffffffffffffffff168173ffffffffffffffffffffffffffffffffffffffff1603610eb1576040517f08c379a0000000000000000000000000000000000000000000000000000000008152600401610ea89061263e565b60405180910390fd5b610eba816117ab565b50565b600060078381548110610ed357610ed261231f565b5b906000526020600020906003020190503373ffffffffffffffffffffffffffffffffffffffff16600560008360000160009054906101000a900473ffffffffffffffffffffffffffffffffffffffff1673ffffffffffffffffffffffffffffffffffffffff1673ffffffffffffffffffffffffffffffffffffffff168152602001908152602001600020600084815260200190815260200160002060009054906101000a900473ffffffffffffffffffffffffffffffffffffffff1673ffffffffffffffffffffffffffffffffffffffff1614610fe5576040517f08c379a0000000000000000000000000000000000000000000000000000000008152600401610fdc906126d0565b60405180910390fd5b610ff033848461186f565b611099600460008360000160009054906101000a900473ffffffffffffffffffffffffffffffffffffffff1673ffffffffffffffffffffffffffffffffffffffff1673ffffffffffffffffffffffffffffffffffffffff16815260200190815260200160002060003373ffffffffffffffffffffffffffffffffffffffff1673ffffffffffffffffffffffffffffffffffffffff16815260200190815260200160002083611913565b600560008260000160009054906101000a900473ffffffffffffffffffffffffffffffffffffffff1673ffffffffffffffffffffffffffffffffffffffff1673ffffffffffffffffffffffffffffffffffffffff168152602001908152602001600020600083815260200190815260200160002060006101000a81549073ffffffffffffffffffffffffffffffffffffffff0219169055600660008260000160009054906101000a900473ffffffffffffffffffffffffffffffffffffffff1673ffffffffffffffffffffffffffffffffffffffff1673ffffffffffffffffffffffffffffffffffffffff16815260200190815260200160002060008381526020019081526020016000206000905560018160020160008282546111bd91906123c5565b925050819055508060000160009054906101000a900473ffffffffffffffffffffffffffffffffffffffff1673ffffffffffffffffffffffffffffffffffffffff166323b872dd3033856040518463ffffffff1660e01b8152600401611225939291906126f0565b600060405180830381600087803b15801561123f57600080fd5b505af1158015611253573d6000803e3d6000fd5b50505050505050565b60007f01ffc9a7000000000000000000000000000000000000000000000000000000007bffffffffffffffffffffffffffffffffffffffffffffffffffffffff1916827bffffffffffffffffffffffffffffffffffffffffffffffffffffffff1916149050919050565b6000600783815481106112dc576112db61231f565b5b9060005260206000209060030201905033600560008360000160009054906101000a900473ffffffffffffffffffffffffffffffffffffffff1673ffffffffffffffffffffffffffffffffffffffff1673ffffffffffffffffffffffffffffffffffffffff168152602001908152602001600020600084815260200190815260200160002060006101000a81548173ffffffffffffffffffffffffffffffffffffffff021916908373ffffffffffffffffffffffffffffffffffffffff16021790555042600660008360000160009054906101000a900473ffffffffffffffffffffffffffffffffffffffff1673ffffffffffffffffffffffffffffffffffffffff1673ffffffffffffffffffffffffffffffffffffffff168152602001908152602001600020600084815260200190815260200160002081905550600460008260000160009054906101000a900473ffffffffffffffffffffffffffffffffffffffff1673ffffffffffffffffffffffffffffffffffffffff1673ffffffffffffffffffffffffffffffffffffffff16815260200190815260200160002060003373ffffffffffffffffffffffffffffffffffffffff1673ffffffffffffffffffffffffffffffffffffffff16815260200190815260200160002082908060018154018082558091505060019003906000526020600020016000909190919091505560018160020160008282546114f4919061249c565b925050819055508060000160009054906101000a900473ffffffffffffffffffffffffffffffffffffffff1673ffffffffffffffffffffffffffffffffffffffff166323b872dd3330856040518463ffffffff1660e01b815260040161155c939291906126f0565b600060405180830381600087803b15801561157657600080fd5b505af115801561158a573d6000803e3d6000fd5b50505050505050565b6115a48161159f6116b3565b6119d9565b50565b6115b18282610d12565b61168357600180600084815260200190815260200160002060000160008373ffffffffffffffffffffffffffffffffffffffff1673ffffffffffffffffffffffffffffffffffffffff16815260200190815260200160002060006101000a81548160ff0219169083151502179055506116286116b3565b73ffffffffffffffffffffffffffffffffffffffff168173ffffffffffffffffffffffffffffffffffffffff16837f2f8788117e7eff1d82e926ec794901d17c78024a50270940304540a733656f0d60405160405180910390a45b5050565b600081836116959190612756565b905092915050565b600081836116ab9190612787565b905092915050565b600033905090565b6116c58282610d12565b156117995760006001600084815260200190815260200160002060000160008373ffffffffffffffffffffffffffffffffffffffff1673ffffffffffffffffffffffffffffffffffffffff16815260200190815260200160002060006101000a81548160ff02191690831515021790555061173e6116b3565b73ffffffffffffffffffffffffffffffffffffffff168173ffffffffffffffffffffffffffffffffffffffff16837ff6391f5c32d9c69d2a47ea670b442974b53935d1edc7fd64eb21e047a839171b60405160405180910390a45b5050565b6117a782826115a7565b5050565b60008060009054906101000a900473ffffffffffffffffffffffffffffffffffffffff169050816000806101000a81548173ffffffffffffffffffffffffffffffffffffffff021916908373ffffffffffffffffffffffffffffffffffffffff1602179055508173ffffffffffffffffffffffffffffffffffffffff168173ffffffffffffffffffffffffffffffffffffffff167f8be0079c531659141344cd1fd0a4f28419497f9722a3daafe3b4186f6b6457e060405160405180910390a35050565b600061187c8484846106ec565b9050600360009054906101000a900473ffffffffffffffffffffffffffffffffffffffff1673ffffffffffffffffffffffffffffffffffffffff166340c10f1933836040518363ffffffff1660e01b81526004016118db9291906127e1565b600060405180830381600087803b1580156118f557600080fd5b505af1158015611909573d6000803e3d6000fd5b5050505050505050565b60005b82805490508110156119d457818382815481106119365761193561231f565b5b9060005260206000200154036119c157826001848054905061195891906123c5565b815481106119695761196861231f565b5b90600052602060002001548382815481106119875761198661231f565b5b9060005260206000200181905550828054806119a6576119a561280a565b5b600190038181906000526020600020016000905590556119d4565b80806119cc9061237d565b915050611916565b505050565b6119e38282610d12565b611a7257611a088173ffffffffffffffffffffffffffffffffffffffff166014611a76565b611a168360001c6020611a76565b604051602001611a2792919061294b565b6040516020818303038152906040526040517f08c379a0000000000000000000000000000000000000000000000000000000008152600401611a6991906129be565b60405180910390fd5b5050565b606060006002836002611a899190612787565b611a93919061249c565b67ffffffffffffffff811115611aac57611aab611d12565b5b6040519080825280601f01601f191660200182016040528015611ade5781602001600182028036833780820191505090505b5090507f300000000000000000000000000000000000000000000000000000000000000081600081518110611b1657611b1561231f565b5b60200101907effffffffffffffffffffffffffffffffffffffffffffffffffffffffffffff1916908160001a9053507f780000000000000000000000000000000000000000000000000000000000000081600181518110611b7a57611b7961231f565b5b60200101907effffffffffffffffffffffffffffffffffffffffffffffffffffffffffffff1916908160001a90535060006001846002611bba9190612787565b611bc4919061249c565b90505b6001811115611c64577f3031323334353637383961626364656600000000000000000000000000000000600f861660108110611c0657611c0561231f565b5b1a60f81b828281518110611c1d57611c1c61231f565b5b60200101907effffffffffffffffffffffffffffffffffffffffffffffffffffffffffffff1916908160001a905350600485901c945080611c5d906129e0565b9050611bc7565b5060008414611ca8576040517f08c379a0000000000000000000000000000000000000000000000000000000008152600401611c9f90612a55565b60405180910390fd5b8091505092915050565b6000604051905090565b600080fd5b600080fd5b6000819050919050565b611cd981611cc6565b8114611ce457600080fd5b50565b600081359050611cf681611cd0565b92915050565b600080fd5b6000601f19601f8301169050919050565b7f4e487b7100000000000000000000000000000000000000000000000000000000600052604160045260246000fd5b611d4a82611d01565b810181811067ffffffffffffffff82111715611d6957611d68611d12565b5b80604052505050565b6000611d7c611cb2565b9050611d888282611d41565b919050565b600067ffffffffffffffff821115611da857611da7611d12565b5b602082029050602081019050919050565b600080fd5b6000611dd1611dcc84611d8d565b611d72565b90508083825260208201905060208402830185811115611df457611df3611db9565b5b835b81811015611e1d5780611e098882611ce7565b845260208401935050602081019050611df6565b5050509392505050565b600082601f830112611e3c57611e3b611cfc565b5b8135611e4c848260208601611dbe565b91505092915050565b60008060408385031215611e6c57611e6b611cbc565b5b6000611e7a85828601611ce7565b925050602083013567ffffffffffffffff811115611e9b57611e9a611cc1565b5b611ea785828601611e27565b9150509250929050565b60007fffffffff0000000000000000000000000000000000000000000000000000000082169050919050565b611ee681611eb1565b8114611ef157600080fd5b50565b600081359050611f0381611edd565b92915050565b600060208284031215611f1f57611f1e611cbc565b5b6000611f2d84828501611ef4565b91505092915050565b60008115159050919050565b611f4b81611f36565b82525050565b6000602082019050611f666000830184611f42565b92915050565b600060208284031215611f8257611f81611cbc565b5b6000611f9084828501611ce7565b91505092915050565b600073ffffffffffffffffffffffffffffffffffffffff82169050919050565b6000611fc482611f99565b9050919050565b611fd481611fb9565b82525050565b611fe381611cc6565b82525050565b6000606082019050611ffe6000830186611fcb565b61200b6020830185611fda565b6120186040830184611fda565b949350505050565b6000819050919050565b61203381612020565b811461203e57600080fd5b50565b6000813590506120508161202a565b92915050565b60006020828403121561206c5761206b611cbc565b5b600061207a84828501612041565b91505092915050565b61208c81612020565b82525050565b60006020820190506120a76000830184612083565b92915050565b6120b681611fb9565b81146120c157600080fd5b50565b6000813590506120d3816120ad565b92915050565b600080604083850312156120f0576120ef611cbc565b5b60006120fe858286016120c4565b925050602061210f85828601611ce7565b9150509250929050565b600080604083850312156121305761212f611cbc565b5b600061213e85828601612041565b925050602061214f858286016120c4565b9150509250929050565b60008060006060848603121561217257612171611cbc565b5b6000612180868287016120c4565b935050602061219186828701611ce7565b92505060406121a286828701611ce7565b9150509250925092565b60006020820190506121c16000830184611fda565b92915050565b6000602082840312156121dd576121dc611cbc565b5b60006121eb848285016120c4565b91505092915050565b6000806040838503121561220b5761220a611cbc565b5b600061221985828601611ce7565b925050602061222a85828601611ce7565b9150509250929050565b60008060006060848603121561224d5761224c611cbc565b5b600061225b86828701611ce7565b935050602061226c868287016120c4565b925050604061227d86828701611ce7565b9150509250925092565b600060208201905061229c6000830184611fcb565b92915050565b6000806000606084860312156122bb576122ba611cbc565b5b60006122c9868287016120c4565b93505060206122da868287016120c4565b92505060406122eb86828701611ce7565b9150509250925092565b6122fe81611eb1565b82525050565b600060208201905061231960008301846122f5565b92915050565b7f4e487b7100000000000000000000000000000000000000000000000000000000600052603260045260246000fd5b7f4e487b7100000000000000000000000000000000000000000000000000000000600052601160045260246000fd5b600061238882611cc6565b91507fffffffffffffffffffffffffffffffffffffffffffffffffffffffffffffffff82036123ba576123b961234e565b5b600182019050919050565b60006123d082611cc6565b91506123db83611cc6565b9250828210156123ee576123ed61234e565b5b828203905092915050565b600082825260208201905092915050565b7f416363657373436f6e74726f6c3a2063616e206f6e6c792072656e6f756e636560008201527f20726f6c657320666f722073656c660000000000000000000000000000000000602082015250565b6000612466602f836123f9565b91506124718261240a565b604082019050919050565b6000602082019050818103600083015261249581612459565b9050919050565b60006124a782611cc6565b91506124b283611cc6565b9250827fffffffffffffffffffffffffffffffffffffffffffffffffffffffffffffffff038211156124e7576124e661234e565b5b828201905092915050565b6000819050919050565b6000819050919050565b600061252161251c612517846124f2565b6124fc565b611cc6565b9050919050565b61253181612506565b82525050565b600060408201905061254c6000830185611fcb565b6125596020830184612528565b9392505050565b7f4f776e61626c653a2063616c6c6572206973206e6f7420746865206f776e6572600082015250565b60006125966020836123f9565b91506125a182612560565b602082019050919050565b600060208201905081810360008301526125c581612589565b9050919050565b7f4f776e61626c653a206e6577206f776e657220697320746865207a65726f206160008201527f6464726573730000000000000000000000000000000000000000000000000000602082015250565b60006126286026836123f9565b9150612633826125cc565b604082019050919050565b600060208201905081810360008301526126578161261b565b9050919050565b7f746f6b656e206973206e6f74207374616b6564206f722073656e64657220646f60008201527f6573206e6f74206f776e20697400000000000000000000000000000000000000602082015250565b60006126ba602d836123f9565b91506126c58261265e565b604082019050919050565b600060208201905081810360008301526126e9816126ad565b9050919050565b60006060820190506127056000830186611fcb565b6127126020830185611fcb565b61271f6040830184611fda565b949350505050565b7f4e487b7100000000000000000000000000000000000000000000000000000000600052601260045260246000fd5b600061276182611cc6565b915061276c83611cc6565b92508261277c5761277b612727565b5b828204905092915050565b600061279282611cc6565b915061279d83611cc6565b9250817fffffffffffffffffffffffffffffffffffffffffffffffffffffffffffffffff04831182151516156127d6576127d561234e565b5b828202905092915050565b60006040820190506127f66000830185611fcb565b6128036020830184611fda565b9392505050565b7f4e487b7100000000000000000000000000000000000000000000000000000000600052603160045260246000fd5b600081905092915050565b7f416363657373436f6e74726f6c3a206163636f756e7420000000000000000000600082015250565b600061287a601783612839565b915061288582612844565b601782019050919050565b600081519050919050565b60005b838110156128b957808201518184015260208101905061289e565b838111156128c8576000848401525b50505050565b60006128d982612890565b6128e38185612839565b93506128f381856020860161289b565b80840191505092915050565b7f206973206d697373696e6720726f6c6520000000000000000000000000000000600082015250565b6000612935601183612839565b9150612940826128ff565b601182019050919050565b60006129568261286d565b915061296282856128ce565b915061296d82612928565b915061297982846128ce565b91508190509392505050565b600061299082612890565b61299a81856123f9565b93506129aa81856020860161289b565b6129b381611d01565b840191505092915050565b600060208201905081810360008301526129d88184612985565b905092915050565b60006129eb82611cc6565b9150600082036129fe576129fd61234e565b5b600182039050919050565b7f537472696e67733a20686578206c656e67746820696e73756666696369656e74600082015250565b6000612a3f6020836123f9565b9150612a4a82612a09565b602082019050919050565b60006020820190508181036000830152612a6e81612a32565b905091905056fea2646970667358221220a58eaf3ab16f40070995c2d8027ca068812cc0d90532a75ffa3b7c4353eb740564736f6c634300080d0033",
  "linkReferences": {},
  "deployedLinkReferences": {}
}