{
  "_format": "hh-sol-artifact-1",
  "contractName": "CyberlionStaking",
  "sourceName": "contracts/CLstaking.sol",
  "abi": [
    {
      "inputs": [
        {
          "internalType": "contract Mintable",
          "name": "_rewardsToken",
          "type": "address"
        }
      ],
      "stateMutability": "nonpayable",
      "type": "constructor"
    },
    {
      "anonymous": false,
      "inputs": [
        {
          "indexed": true,
          "internalType": "address",
          "name": "previousOwner",
          "type": "address"
        },
        {
          "indexed": true,
          "internalType": "address",
          "name": "newOwner",
          "type": "address"
        }
      ],
      "name": "OwnershipTransferred",
      "type": "event"
    },
    {
      "inputs": [
        {
          "internalType": "uint256",
          "name": "_cid",
          "type": "uint256"
        },
        {
          "internalType": "uint256[]",
          "name": "_ids",
          "type": "uint256[]"
        }
      ],
      "name": "batchStake",
      "outputs": [],
      "stateMutability": "nonpayable",
      "type": "function"
    },
    {
      "inputs": [
        {
          "internalType": "uint256",
          "name": "_cid",
          "type": "uint256"
        },
        {
          "internalType": "uint256[]",
          "name": "_ids",
          "type": "uint256[]"
        }
      ],
      "name": "batchUnstake",
      "outputs": [],
      "stateMutability": "nonpayable",
      "type": "function"
    },
    {
      "inputs": [
        {
          "internalType": "uint256",
          "name": "",
          "type": "uint256"
        }
      ],
      "name": "collectionInfo",
      "outputs": [
        {
          "internalType": "address",
          "name": "collectionAddress",
          "type": "address"
        },
        {
          "internalType": "uint256",
          "name": "rewardPerDay",
          "type": "uint256"
        },
        {
          "internalType": "uint256",
          "name": "totalAmountStaked",
          "type": "uint256"
        }
      ],
      "stateMutability": "view",
      "type": "function"
    },
    {
      "inputs": [
        {
          "internalType": "uint256",
          "name": "_collectionID",
          "type": "uint256"
        }
      ],
      "name": "getTotalStakedItemsCount",
      "outputs": [
        {
          "internalType": "uint256",
          "name": "",
          "type": "uint256"
        }
      ],
      "stateMutability": "view",
      "type": "function"
    },
    {
      "inputs": [
        {
          "internalType": "address",
          "name": "_userAddress",
          "type": "address"
        },
        {
          "internalType": "address",
          "name": "_collectionAddr",
          "type": "address"
        }
      ],
      "name": "getUserInformation",
      "outputs": [
        {
          "internalType": "uint256[]",
          "name": "",
          "type": "uint256[]"
        },
        {
          "internalType": "uint256",
          "name": "",
          "type": "uint256"
        },
        {
          "internalType": "uint256",
          "name": "",
          "type": "uint256"
        }
      ],
      "stateMutability": "view",
      "type": "function"
    },
    {
      "inputs": [
        {
          "internalType": "address",
          "name": "",
          "type": "address"
        },
        {
          "internalType": "address",
          "name": "",
          "type": "address"
        },
        {
          "internalType": "uint256",
          "name": "",
          "type": "uint256"
        },
        {
          "internalType": "bytes",
          "name": "data",
          "type": "bytes"
        }
      ],
      "name": "onERC721Received",
      "outputs": [
        {
          "internalType": "bytes4",
          "name": "",
          "type": "bytes4"
        }
      ],
      "stateMutability": "nonpayable",
      "type": "function"
    },
    {
      "inputs": [],
      "name": "owner",
      "outputs": [
        {
          "internalType": "address",
          "name": "",
          "type": "address"
        }
      ],
      "stateMutability": "view",
      "type": "function"
    },
    {
      "inputs": [],
      "name": "renounceOwnership",
      "outputs": [],
      "stateMutability": "nonpayable",
      "type": "function"
    },
    {
      "inputs": [
        {
          "internalType": "address",
          "name": "_collectionAddress",
          "type": "address"
        },
        {
          "internalType": "uint256",
          "name": "_rewardPerDay",
          "type": "uint256"
        }
      ],
      "name": "setCollection",
      "outputs": [],
      "stateMutability": "nonpayable",
      "type": "function"
    },
    {
      "inputs": [
        {
          "internalType": "uint256",
          "name": "_collectionID",
          "type": "uint256"
        },
        {
          "internalType": "uint256",
          "name": "_tokenID",
          "type": "uint256"
        }
      ],
      "name": "stake",
      "outputs": [],
      "stateMutability": "nonpayable",
      "type": "function"
    },
    {
      "inputs": [
        {
          "internalType": "address",
          "name": "",
          "type": "address"
        },
        {
          "internalType": "uint256",
          "name": "",
          "type": "uint256"
        }
      ],
      "name": "tokenOwners",
      "outputs": [
        {
          "internalType": "address",
          "name": "",
          "type": "address"
        }
      ],
      "stateMutability": "view",
      "type": "function"
    },
    {
      "inputs": [
        {
          "internalType": "address",
          "name": "newOwner",
          "type": "address"
        }
      ],
      "name": "transferOwnership",
      "outputs": [],
      "stateMutability": "nonpayable",
      "type": "function"
    },
    {
      "inputs": [
        {
          "internalType": "uint256",
          "name": "_collectionID",
          "type": "uint256"
        },
        {
          "internalType": "uint256",
          "name": "_tokenID",
          "type": "uint256"
        }
      ],
      "name": "unstake",
      "outputs": [],
      "stateMutability": "nonpayable",
      "type": "function"
    },
    {
      "inputs": [
        {
          "internalType": "uint256",
          "name": "_collectionID",
          "type": "uint256"
        },
        {
          "internalType": "address",
          "name": "_collectionAddress",
          "type": "address"
        },
        {
          "internalType": "uint256",
          "name": "_rewardPerDay",
          "type": "uint256"
        }
      ],
      "name": "updateCollection",
      "outputs": [],
      "stateMutability": "nonpayable",
      "type": "function"
    },
    {
      "inputs": [
        {
          "internalType": "address",
          "name": "",
          "type": "address"
        }
      ],
      "name": "userInfo",
      "outputs": [
        {
          "internalType": "uint256",
          "name": "amountStaked",
          "type": "uint256"
        }
      ],
      "stateMutability": "view",
      "type": "function"
    }
  ],
  "bytecode": "0x60806040523480156200001157600080fd5b50604051620020e0380380620020e08339818101604052810190620000379190620001e9565b620000576200004b6200009f60201b60201c565b620000a760201b60201c565b80600160006101000a81548173ffffffffffffffffffffffffffffffffffffffff021916908373ffffffffffffffffffffffffffffffffffffffff160217905550506200021b565b600033905090565b60008060009054906101000a900473ffffffffffffffffffffffffffffffffffffffff169050816000806101000a81548173ffffffffffffffffffffffffffffffffffffffff021916908373ffffffffffffffffffffffffffffffffffffffff1602179055508173ffffffffffffffffffffffffffffffffffffffff168173ffffffffffffffffffffffffffffffffffffffff167f8be0079c531659141344cd1fd0a4f28419497f9722a3daafe3b4186f6b6457e060405160405180910390a35050565b600080fd5b600073ffffffffffffffffffffffffffffffffffffffff82169050919050565b60006200019d8262000170565b9050919050565b6000620001b18262000190565b9050919050565b620001c381620001a4565b8114620001cf57600080fd5b50565b600081519050620001e381620001b8565b92915050565b6000602082840312156200020257620002016200016b565b5b60006200021284828501620001d2565b91505092915050565b611eb5806200022b6000396000f3fe608060405234801561001057600080fd5b50600436106100f45760003560e01c8063715018a6116100975780638b5e51d2116100665780638b5e51d2146102835780638da5cb5b146102b35780639e2c8a5b146102d1578063f2fde38b146102ed576100f4565b8063715018a6146102115780637b0472f01461021b5780637b71e5db14610237578063842dd90a14610253576100f4565b8063173fe449116100d3578063173fe449146101775780631959a002146101a95780631bbda52b146101d95780632edb531c146101f5576100f4565b80628afd4e146100f95780630fb4d2e514610115578063150b7a0214610147575b600080fd5b610113600480360381019061010e919061153f565b610309565b005b61012f600480360381019061012a919061159b565b610350565b60405161013e93929190611618565b60405180910390f35b610161600480360381019061015c91906116d6565b6103aa565b60405161016e9190611799565b60405180910390f35b610191600480360381019061018c91906117b4565b6103bf565b6040516101a0939291906118b2565b60405180910390f35b6101c360048036038101906101be91906118f0565b610565565b6040516101d0919061191d565b60405180910390f35b6101f360048036038101906101ee919061153f565b610583565b005b61020f600480360381019061020a9190611938565b6105ca565b005b610219610688565b005b61023560048036038101906102309190611978565b610710565b005b610251600480360381019061024c91906119b8565b61071f565b005b61026d6004803603810190610268919061159b565b610797565b60405161027a919061191d565b60405180910390f35b61029d60048036038101906102989190611938565b6107cb565b6040516102aa9190611a0b565b60405180910390f35b6102bb61080d565b6040516102c89190611a0b565b60405180910390f35b6102eb60048036038101906102e69190611978565b610836565b005b610307600480360381019061030291906118f0565b610845565b005b60005b815181101561034b5761033a338484848151811061032d5761032c611a26565b5b602002602001015161093c565b8061034490611a84565b905061030c565b505050565b6004818154811061036057600080fd5b90600052602060002090600302016000915090508060000160009054906101000a900473ffffffffffffffffffffffffffffffffffffffff16908060010154908060020154905083565b600063150b7a0260e01b905095945050505050565b6060600080600260008673ffffffffffffffffffffffffffffffffffffffff1673ffffffffffffffffffffffffffffffffffffffff16815260200190815260200160002060000160008573ffffffffffffffffffffffffffffffffffffffff1673ffffffffffffffffffffffffffffffffffffffff168152602001908152602001600020600260008773ffffffffffffffffffffffffffffffffffffffff1673ffffffffffffffffffffffffffffffffffffffff16815260200190815260200160002060010160008673ffffffffffffffffffffffffffffffffffffffff1673ffffffffffffffffffffffffffffffffffffffff16815260200190815260200160002054600260008873ffffffffffffffffffffffffffffffffffffffff1673ffffffffffffffffffffffffffffffffffffffff168152602001908152602001600020600201548280548060200260200160405190810160405280929190818152602001828054801561055157602002820191906000526020600020905b81548152602001906001019080831161053d575b505050505092509250925092509250925092565b60026020528060005260406000206000915090508060020154905081565b60005b81518110156105c5576105b433848484815181106105a7576105a6611a26565b5b6020026020010151610d4a565b806105be90611a84565b9050610586565b505050565b600460405180606001604052808473ffffffffffffffffffffffffffffffffffffffff1681526020018381526020016000815250908060018154018082558091505060019003906000526020600020906003020160009091909190915060008201518160000160006101000a81548173ffffffffffffffffffffffffffffffffffffffff021916908373ffffffffffffffffffffffffffffffffffffffff160217905550602082015181600101556040820151816002015550505050565b61069061102e565b73ffffffffffffffffffffffffffffffffffffffff166106ae61080d565b73ffffffffffffffffffffffffffffffffffffffff1614610704576040517f08c379a00000000000000000000000000000000000000000000000000000000081526004016106fb90611b29565b60405180910390fd5b61070e6000611036565b565b61071b338383610d4a565b5050565b60006004848154811061073557610734611a26565b5b90600052602060002090600302019050828160000160006101000a81548173ffffffffffffffffffffffffffffffffffffffff021916908373ffffffffffffffffffffffffffffffffffffffff16021790555081816001018190555050505050565b600080600483815481106107ae576107ad611a26565b5b906000526020600020906003020190508060020154915050919050565b60036020528160005260406000206020528060005260406000206000915091509054906101000a900473ffffffffffffffffffffffffffffffffffffffff1681565b60008060009054906101000a900473ffffffffffffffffffffffffffffffffffffffff16905090565b61084133838361093c565b5050565b61084d61102e565b73ffffffffffffffffffffffffffffffffffffffff1661086b61080d565b73ffffffffffffffffffffffffffffffffffffffff16146108c1576040517f08c379a00000000000000000000000000000000000000000000000000000000081526004016108b890611b29565b60405180910390fd5b600073ffffffffffffffffffffffffffffffffffffffff168173ffffffffffffffffffffffffffffffffffffffff1603610930576040517f08c379a000000000000000000000000000000000000000000000000000000000815260040161092790611bbb565b60405180910390fd5b61093981611036565b50565b6000600260008573ffffffffffffffffffffffffffffffffffffffff1673ffffffffffffffffffffffffffffffffffffffff168152602001908152602001600020905060006004848154811061099557610994611a26565b5b906000526020600020906003020190508473ffffffffffffffffffffffffffffffffffffffff16600360008360000160009054906101000a900473ffffffffffffffffffffffffffffffffffffffff1673ffffffffffffffffffffffffffffffffffffffff1673ffffffffffffffffffffffffffffffffffffffff168152602001908152602001600020600085815260200190815260200160002060009054906101000a900473ffffffffffffffffffffffffffffffffffffffff1673ffffffffffffffffffffffffffffffffffffffff1614610aa7576040517f08c379a0000000000000000000000000000000000000000000000000000000008152600401610a9e90611c27565b60405180910390fd5b610ab133856110fa565b610b1f8260000160008360000160009054906101000a900473ffffffffffffffffffffffffffffffffffffffff1673ffffffffffffffffffffffffffffffffffffffff1673ffffffffffffffffffffffffffffffffffffffff168152602001908152602001600020846112aa565b600360008260000160009054906101000a900473ffffffffffffffffffffffffffffffffffffffff1673ffffffffffffffffffffffffffffffffffffffff1673ffffffffffffffffffffffffffffffffffffffff168152602001908152602001600020600084815260200190815260200160002060006101000a81549073ffffffffffffffffffffffffffffffffffffffff0219169055428260010160008360000160009054906101000a900473ffffffffffffffffffffffffffffffffffffffff1673ffffffffffffffffffffffffffffffffffffffff1673ffffffffffffffffffffffffffffffffffffffff168152602001908152602001600020819055506001826002016000828254610c359190611c47565b925050819055506001816002016000828254610c519190611c47565b925050819055506000826002015403610cb057600260008673ffffffffffffffffffffffffffffffffffffffff1673ffffffffffffffffffffffffffffffffffffffff1681526020019081526020016000206000600282016000905550505b8060000160009054906101000a900473ffffffffffffffffffffffffffffffffffffffff1673ffffffffffffffffffffffffffffffffffffffff166323b872dd3087866040518463ffffffff1660e01b8152600401610d1193929190611c7b565b600060405180830381600087803b158015610d2b57600080fd5b505af1158015610d3f573d6000803e3d6000fd5b505050505050505050565b6000600260008573ffffffffffffffffffffffffffffffffffffffff1673ffffffffffffffffffffffffffffffffffffffff1681526020019081526020016000209050600060048481548110610da357610da2611a26565b5b906000526020600020906003020190508060000160009054906101000a900473ffffffffffffffffffffffffffffffffffffffff1673ffffffffffffffffffffffffffffffffffffffff166323b872dd8630866040518463ffffffff1660e01b8152600401610e1493929190611c7b565b600060405180830381600087803b158015610e2e57600080fd5b505af1158015610e42573d6000803e3d6000fd5b505050506001826002016000828254610e5b9190611cb2565b925050819055506001816002016000828254610e779190611cb2565b92505081905550428260010160008360000160009054906101000a900473ffffffffffffffffffffffffffffffffffffffff1673ffffffffffffffffffffffffffffffffffffffff1673ffffffffffffffffffffffffffffffffffffffff168152602001908152602001600020819055508160000160008260000160009054906101000a900473ffffffffffffffffffffffffffffffffffffffff1673ffffffffffffffffffffffffffffffffffffffff1673ffffffffffffffffffffffffffffffffffffffff16815260200190815260200160002083908060018154018082558091505060019003906000526020600020016000909190919091505584600360008360000160009054906101000a900473ffffffffffffffffffffffffffffffffffffffff1673ffffffffffffffffffffffffffffffffffffffff1673ffffffffffffffffffffffffffffffffffffffff168152602001908152602001600020600085815260200190815260200160002060006101000a81548173ffffffffffffffffffffffffffffffffffffffff021916908373ffffffffffffffffffffffffffffffffffffffff1602179055505050505050565b600033905090565b60008060009054906101000a900473ffffffffffffffffffffffffffffffffffffffff169050816000806101000a81548173ffffffffffffffffffffffffffffffffffffffff021916908373ffffffffffffffffffffffffffffffffffffffff1602179055508173ffffffffffffffffffffffffffffffffffffffff168173ffffffffffffffffffffffffffffffffffffffff167f8be0079c531659141344cd1fd0a4f28419497f9722a3daafe3b4186f6b6457e060405160405180910390a35050565b6000600260008473ffffffffffffffffffffffffffffffffffffffff1673ffffffffffffffffffffffffffffffffffffffff168152602001908152602001600020905060006004838154811061115357611152611a26565b5b90600052602060002090600302019050600061120082600101546111f26102588660010160008760000160009054906101000a900473ffffffffffffffffffffffffffffffffffffffff1673ffffffffffffffffffffffffffffffffffffffff1673ffffffffffffffffffffffffffffffffffffffff16815260200190815260200160002054426111e49190611c47565b61137090919063ffffffff16565b61138690919063ffffffff16565b9050600160009054906101000a900473ffffffffffffffffffffffffffffffffffffffff1673ffffffffffffffffffffffffffffffffffffffff166340c10f1986836040518363ffffffff1660e01b815260040161125f929190611d08565b6020604051808303816000875af115801561127e573d6000803e3d6000fd5b505050506040513d601f19601f820116820180604052508101906112a29190611d69565b505050505050565b60005b828054905081101561136b57818382815481106112cd576112cc611a26565b5b9060005260206000200154036113585782600184805490506112ef9190611c47565b81548110611300576112ff611a26565b5b906000526020600020015483828154811061131e5761131d611a26565b5b90600052602060002001819055508280548061133d5761133c611d96565b5b6001900381819060005260206000200160009055905561136b565b808061136390611a84565b9150506112ad565b505050565b6000818361137e9190611df4565b905092915050565b600081836113949190611e25565b905092915050565b6000604051905090565b600080fd5b600080fd5b6000819050919050565b6113c3816113b0565b81146113ce57600080fd5b50565b6000813590506113e0816113ba565b92915050565b600080fd5b6000601f19601f8301169050919050565b7f4e487b7100000000000000000000000000000000000000000000000000000000600052604160045260246000fd5b611434826113eb565b810181811067ffffffffffffffff82111715611453576114526113fc565b5b80604052505050565b600061146661139c565b9050611472828261142b565b919050565b600067ffffffffffffffff821115611492576114916113fc565b5b602082029050602081019050919050565b600080fd5b60006114bb6114b684611477565b61145c565b905080838252602082019050602084028301858111156114de576114dd6114a3565b5b835b8181101561150757806114f388826113d1565b8452602084019350506020810190506114e0565b5050509392505050565b600082601f830112611526576115256113e6565b5b81356115368482602086016114a8565b91505092915050565b60008060408385031215611556576115556113a6565b5b6000611564858286016113d1565b925050602083013567ffffffffffffffff811115611585576115846113ab565b5b61159185828601611511565b9150509250929050565b6000602082840312156115b1576115b06113a6565b5b60006115bf848285016113d1565b91505092915050565b600073ffffffffffffffffffffffffffffffffffffffff82169050919050565b60006115f3826115c8565b9050919050565b611603816115e8565b82525050565b611612816113b0565b82525050565b600060608201905061162d60008301866115fa565b61163a6020830185611609565b6116476040830184611609565b949350505050565b611658816115e8565b811461166357600080fd5b50565b6000813590506116758161164f565b92915050565b600080fd5b60008083601f840112611696576116956113e6565b5b8235905067ffffffffffffffff8111156116b3576116b261167b565b5b6020830191508360018202830111156116cf576116ce6114a3565b5b9250929050565b6000806000806000608086880312156116f2576116f16113a6565b5b600061170088828901611666565b955050602061171188828901611666565b9450506040611722888289016113d1565b935050606086013567ffffffffffffffff811115611743576117426113ab565b5b61174f88828901611680565b92509250509295509295909350565b60007fffffffff0000000000000000000000000000000000000000000000000000000082169050919050565b6117938161175e565b82525050565b60006020820190506117ae600083018461178a565b92915050565b600080604083850312156117cb576117ca6113a6565b5b60006117d985828601611666565b92505060206117ea85828601611666565b9150509250929050565b600081519050919050565b600082825260208201905092915050565b6000819050602082019050919050565b611829816113b0565b82525050565b600061183b8383611820565b60208301905092915050565b6000602082019050919050565b600061185f826117f4565b61186981856117ff565b935061187483611810565b8060005b838110156118a557815161188c888261182f565b975061189783611847565b925050600181019050611878565b5085935050505092915050565b600060608201905081810360008301526118cc8186611854565b90506118db6020830185611609565b6118e86040830184611609565b949350505050565b600060208284031215611906576119056113a6565b5b600061191484828501611666565b91505092915050565b60006020820190506119326000830184611609565b92915050565b6000806040838503121561194f5761194e6113a6565b5b600061195d85828601611666565b925050602061196e858286016113d1565b9150509250929050565b6000806040838503121561198f5761198e6113a6565b5b600061199d858286016113d1565b92505060206119ae858286016113d1565b9150509250929050565b6000806000606084860312156119d1576119d06113a6565b5b60006119df868287016113d1565b93505060206119f086828701611666565b9250506040611a01868287016113d1565b9150509250925092565b6000602082019050611a2060008301846115fa565b92915050565b7f4e487b7100000000000000000000000000000000000000000000000000000000600052603260045260246000fd5b7f4e487b7100000000000000000000000000000000000000000000000000000000600052601160045260246000fd5b6000611a8f826113b0565b91507fffffffffffffffffffffffffffffffffffffffffffffffffffffffffffffffff8203611ac157611ac0611a55565b5b600182019050919050565b600082825260208201905092915050565b7f4f776e61626c653a2063616c6c6572206973206e6f7420746865206f776e6572600082015250565b6000611b13602083611acc565b9150611b1e82611add565b602082019050919050565b60006020820190508181036000830152611b4281611b06565b9050919050565b7f4f776e61626c653a206e6577206f776e657220697320746865207a65726f206160008201527f6464726573730000000000000000000000000000000000000000000000000000602082015250565b6000611ba5602683611acc565b9150611bb082611b49565b604082019050919050565b60006020820190508181036000830152611bd481611b98565b9050919050565b7f73656e64657220646f65736e2774206f776e73207468697320746f6b656e0000600082015250565b6000611c11601e83611acc565b9150611c1c82611bdb565b602082019050919050565b60006020820190508181036000830152611c4081611c04565b9050919050565b6000611c52826113b0565b9150611c5d836113b0565b925082821015611c7057611c6f611a55565b5b828203905092915050565b6000606082019050611c9060008301866115fa565b611c9d60208301856115fa565b611caa6040830184611609565b949350505050565b6000611cbd826113b0565b9150611cc8836113b0565b9250827fffffffffffffffffffffffffffffffffffffffffffffffffffffffffffffffff03821115611cfd57611cfc611a55565b5b828201905092915050565b6000604082019050611d1d60008301856115fa565b611d2a6020830184611609565b9392505050565b60008115159050919050565b611d4681611d31565b8114611d5157600080fd5b50565b600081519050611d6381611d3d565b92915050565b600060208284031215611d7f57611d7e6113a6565b5b6000611d8d84828501611d54565b91505092915050565b7f4e487b7100000000000000000000000000000000000000000000000000000000600052603160045260246000fd5b7f4e487b7100000000000000000000000000000000000000000000000000000000600052601260045260246000fd5b6000611dff826113b0565b9150611e0a836113b0565b925082611e1a57611e19611dc5565b5b828204905092915050565b6000611e30826113b0565b9150611e3b836113b0565b9250817fffffffffffffffffffffffffffffffffffffffffffffffffffffffffffffffff0483118215151615611e7457611e73611a55565b5b82820290509291505056fea2646970667358221220242c59c8110dacd69db190734ba080d9da4f98d2ebc34d617bf514be347bec2664736f6c634300080d0033",
  "linkReferences": {},
  "deployedLinkReferences": {}
}