{
  "_format": "hh-sol-artifact-1",
  "contractName": "CyberlionStaking",
  "sourceName": "contracts/CLstaking.sol",
  "abi": [
    {
      "inputs": [
        {
          "internalType": "address",
          "name": "_rewardsToken",
          "type": "address"
        }
      ],
      "stateMutability": "nonpayable",
      "type": "constructor"
    },
    {
      "anonymous": false,
      "inputs": [
        {
          "indexed": true,
          "internalType": "address",
          "name": "previousOwner",
          "type": "address"
        },
        {
          "indexed": true,
          "internalType": "address",
          "name": "newOwner",
          "type": "address"
        }
      ],
      "name": "OwnershipTransferred",
      "type": "event"
    },
    {
      "anonymous": false,
      "inputs": [
        {
          "indexed": true,
          "internalType": "bytes32",
          "name": "role",
          "type": "bytes32"
        },
        {
          "indexed": true,
          "internalType": "bytes32",
          "name": "previousAdminRole",
          "type": "bytes32"
        },
        {
          "indexed": true,
          "internalType": "bytes32",
          "name": "newAdminRole",
          "type": "bytes32"
        }
      ],
      "name": "RoleAdminChanged",
      "type": "event"
    },
    {
      "anonymous": false,
      "inputs": [
        {
          "indexed": true,
          "internalType": "bytes32",
          "name": "role",
          "type": "bytes32"
        },
        {
          "indexed": true,
          "internalType": "address",
          "name": "account",
          "type": "address"
        },
        {
          "indexed": true,
          "internalType": "address",
          "name": "sender",
          "type": "address"
        }
      ],
      "name": "RoleGranted",
      "type": "event"
    },
    {
      "anonymous": false,
      "inputs": [
        {
          "indexed": true,
          "internalType": "bytes32",
          "name": "role",
          "type": "bytes32"
        },
        {
          "indexed": true,
          "internalType": "address",
          "name": "account",
          "type": "address"
        },
        {
          "indexed": true,
          "internalType": "address",
          "name": "sender",
          "type": "address"
        }
      ],
      "name": "RoleRevoked",
      "type": "event"
    },
    {
      "inputs": [],
      "name": "ADMIN_ROLE",
      "outputs": [
        {
          "internalType": "bytes32",
          "name": "",
          "type": "bytes32"
        }
      ],
      "stateMutability": "view",
      "type": "function"
    },
    {
      "inputs": [],
      "name": "DEFAULT_ADMIN_ROLE",
      "outputs": [
        {
          "internalType": "bytes32",
          "name": "",
          "type": "bytes32"
        }
      ],
      "stateMutability": "view",
      "type": "function"
    },
    {
      "inputs": [
        {
          "internalType": "uint256",
          "name": "_collectionID",
          "type": "uint256"
        },
        {
          "internalType": "uint256[]",
          "name": "_tokenIDs",
          "type": "uint256[]"
        }
      ],
      "name": "batchStake",
      "outputs": [],
      "stateMutability": "nonpayable",
      "type": "function"
    },
    {
      "inputs": [
        {
          "internalType": "uint256",
          "name": "_collectionID",
          "type": "uint256"
        },
        {
          "internalType": "uint256[]",
          "name": "_tokenIDs",
          "type": "uint256[]"
        }
      ],
      "name": "batchUnstake",
      "outputs": [],
      "stateMutability": "nonpayable",
      "type": "function"
    },
    {
      "inputs": [
        {
          "internalType": "address",
          "name": "_userAddress",
          "type": "address"
        },
        {
          "internalType": "uint256",
          "name": "_collectionID",
          "type": "uint256"
        },
        {
          "internalType": "uint256",
          "name": "_tokenID",
          "type": "uint256"
        }
      ],
      "name": "claimableReward",
      "outputs": [
        {
          "internalType": "uint256",
          "name": "",
          "type": "uint256"
        }
      ],
      "stateMutability": "view",
      "type": "function"
    },
    {
      "inputs": [
        {
          "internalType": "uint256",
          "name": "",
          "type": "uint256"
        }
      ],
      "name": "collectionInfo",
      "outputs": [
        {
          "internalType": "address",
          "name": "collectionAddress",
          "type": "address"
        },
        {
          "internalType": "uint256",
          "name": "rewardPerDay",
          "type": "uint256"
        },
        {
          "internalType": "uint256",
          "name": "totalAmountStaked",
          "type": "uint256"
        }
      ],
      "stateMutability": "view",
      "type": "function"
    },
    {
      "inputs": [
        {
          "internalType": "bytes32",
          "name": "role",
          "type": "bytes32"
        }
      ],
      "name": "getRoleAdmin",
      "outputs": [
        {
          "internalType": "bytes32",
          "name": "",
          "type": "bytes32"
        }
      ],
      "stateMutability": "view",
      "type": "function"
    },
    {
      "inputs": [
        {
          "internalType": "uint256",
          "name": "_collectionID",
          "type": "uint256"
        }
      ],
      "name": "getTotalStakedItemsCount",
      "outputs": [
        {
          "internalType": "uint256",
          "name": "",
          "type": "uint256"
        }
      ],
      "stateMutability": "view",
      "type": "function"
    },
    {
      "inputs": [
        {
          "internalType": "address",
          "name": "_userAddress",
          "type": "address"
        },
        {
          "internalType": "uint256",
          "name": "_collectionID",
          "type": "uint256"
        }
      ],
      "name": "getUserStakedTokens",
      "outputs": [
        {
          "internalType": "uint256[]",
          "name": "",
          "type": "uint256[]"
        }
      ],
      "stateMutability": "view",
      "type": "function"
    },
    {
      "inputs": [
        {
          "internalType": "bytes32",
          "name": "role",
          "type": "bytes32"
        },
        {
          "internalType": "address",
          "name": "account",
          "type": "address"
        }
      ],
      "name": "grantRole",
      "outputs": [],
      "stateMutability": "nonpayable",
      "type": "function"
    },
    {
      "inputs": [
        {
          "internalType": "bytes32",
          "name": "role",
          "type": "bytes32"
        },
        {
          "internalType": "address",
          "name": "account",
          "type": "address"
        }
      ],
      "name": "hasRole",
      "outputs": [
        {
          "internalType": "bool",
          "name": "",
          "type": "bool"
        }
      ],
      "stateMutability": "view",
      "type": "function"
    },
    {
      "inputs": [],
      "name": "mintTest",
      "outputs": [],
      "stateMutability": "nonpayable",
      "type": "function"
    },
    {
      "inputs": [
        {
          "internalType": "address",
          "name": "",
          "type": "address"
        },
        {
          "internalType": "address",
          "name": "",
          "type": "address"
        },
        {
          "internalType": "uint256",
          "name": "",
          "type": "uint256"
        }
      ],
      "name": "onERC721Received",
      "outputs": [
        {
          "internalType": "bytes4",
          "name": "",
          "type": "bytes4"
        }
      ],
      "stateMutability": "pure",
      "type": "function"
    },
    {
      "inputs": [],
      "name": "owner",
      "outputs": [
        {
          "internalType": "address",
          "name": "",
          "type": "address"
        }
      ],
      "stateMutability": "view",
      "type": "function"
    },
    {
      "inputs": [],
      "name": "renounceOwnership",
      "outputs": [],
      "stateMutability": "nonpayable",
      "type": "function"
    },
    {
      "inputs": [
        {
          "internalType": "bytes32",
          "name": "role",
          "type": "bytes32"
        },
        {
          "internalType": "address",
          "name": "account",
          "type": "address"
        }
      ],
      "name": "renounceRole",
      "outputs": [],
      "stateMutability": "nonpayable",
      "type": "function"
    },
    {
      "inputs": [
        {
          "internalType": "bytes32",
          "name": "role",
          "type": "bytes32"
        },
        {
          "internalType": "address",
          "name": "account",
          "type": "address"
        }
      ],
      "name": "revokeRole",
      "outputs": [],
      "stateMutability": "nonpayable",
      "type": "function"
    },
    {
      "inputs": [
        {
          "internalType": "address",
          "name": "admin",
          "type": "address"
        }
      ],
      "name": "setAdminRole",
      "outputs": [],
      "stateMutability": "nonpayable",
      "type": "function"
    },
    {
      "inputs": [
        {
          "internalType": "address",
          "name": "_collectionAddress",
          "type": "address"
        },
        {
          "internalType": "uint256",
          "name": "_rewardPerDay",
          "type": "uint256"
        }
      ],
      "name": "setCollection",
      "outputs": [],
      "stateMutability": "nonpayable",
      "type": "function"
    },
    {
      "inputs": [
        {
          "internalType": "uint256",
          "name": "_collectionID",
          "type": "uint256"
        },
        {
          "internalType": "uint256",
          "name": "_tokenID",
          "type": "uint256"
        }
      ],
      "name": "stake",
      "outputs": [],
      "stateMutability": "nonpayable",
      "type": "function"
    },
    {
      "inputs": [
        {
          "internalType": "bytes4",
          "name": "interfaceId",
          "type": "bytes4"
        }
      ],
      "name": "supportsInterface",
      "outputs": [
        {
          "internalType": "bool",
          "name": "",
          "type": "bool"
        }
      ],
      "stateMutability": "view",
      "type": "function"
    },
    {
      "inputs": [
        {
          "internalType": "address",
          "name": "_userAddress",
          "type": "address"
        },
        {
          "internalType": "uint256",
          "name": "_collectionID",
          "type": "uint256"
        }
      ],
      "name": "totalClaimableReward",
      "outputs": [
        {
          "internalType": "uint256",
          "name": "",
          "type": "uint256"
        }
      ],
      "stateMutability": "view",
      "type": "function"
    },
    {
      "inputs": [
        {
          "internalType": "address",
          "name": "newOwner",
          "type": "address"
        }
      ],
      "name": "transferOwnership",
      "outputs": [],
      "stateMutability": "nonpayable",
      "type": "function"
    },
    {
      "inputs": [
        {
          "internalType": "uint256",
          "name": "_collectionID",
          "type": "uint256"
        },
        {
          "internalType": "uint256",
          "name": "_tokenID",
          "type": "uint256"
        }
      ],
      "name": "unstake",
      "outputs": [],
      "stateMutability": "nonpayable",
      "type": "function"
    },
    {
      "inputs": [
        {
          "internalType": "uint256",
          "name": "_collectionID",
          "type": "uint256"
        },
        {
          "internalType": "address",
          "name": "_collectionAddress",
          "type": "address"
        },
        {
          "internalType": "uint256",
          "name": "_rewardPerDay",
          "type": "uint256"
        }
      ],
      "name": "updateCollection",
      "outputs": [],
      "stateMutability": "nonpayable",
      "type": "function"
    }
  ],
  "bytecode": "0x60806040527fdf8b4c520ffe197c5343c6f5aec59570151ef9a492f2c624fd45ddde6135ec426002553480156200003557600080fd5b50604051620030cc380380620030cc83398181016040528101906200005b919062000394565b6200007b6200006f620000ec60201b60201c565b620000f460201b60201c565b80600360006101000a81548173ffffffffffffffffffffffffffffffffffffffff021916908373ffffffffffffffffffffffffffffffffffffffff160217905550620000d16000801b33620001b860201b60201c565b620000e560025433620001b860201b60201c565b50620003c6565b600033905090565b60008060009054906101000a900473ffffffffffffffffffffffffffffffffffffffff169050816000806101000a81548173ffffffffffffffffffffffffffffffffffffffff021916908373ffffffffffffffffffffffffffffffffffffffff1602179055508173ffffffffffffffffffffffffffffffffffffffff168173ffffffffffffffffffffffffffffffffffffffff167f8be0079c531659141344cd1fd0a4f28419497f9722a3daafe3b4186f6b6457e060405160405180910390a35050565b620001ca8282620001ce60201b60201c565b5050565b620001e08282620002bf60201b60201c565b620002bb57600180600084815260200190815260200160002060000160008373ffffffffffffffffffffffffffffffffffffffff1673ffffffffffffffffffffffffffffffffffffffff16815260200190815260200160002060006101000a81548160ff02191690831515021790555062000260620000ec60201b60201c565b73ffffffffffffffffffffffffffffffffffffffff168173ffffffffffffffffffffffffffffffffffffffff16837f2f8788117e7eff1d82e926ec794901d17c78024a50270940304540a733656f0d60405160405180910390a45b5050565b60006001600084815260200190815260200160002060000160008373ffffffffffffffffffffffffffffffffffffffff1673ffffffffffffffffffffffffffffffffffffffff16815260200190815260200160002060009054906101000a900460ff16905092915050565b600080fd5b600073ffffffffffffffffffffffffffffffffffffffff82169050919050565b60006200035c826200032f565b9050919050565b6200036e816200034f565b81146200037a57600080fd5b50565b6000815190506200038e8162000363565b92915050565b600060208284031215620003ad57620003ac6200032a565b5b6000620003bd848285016200037d565b91505092915050565b612cf680620003d66000396000f3fe608060405234801561001057600080fd5b50600436106101725760003560e01c8063715018a6116100de57806391d1485411610097578063d547741f11610071578063d547741f14610433578063eeafbddc1461044f578063f2fde38b1461047f578063f93b03bc1461049b57610172565b806391d14854146103c95780639e2c8a5b146103f9578063a217fddf1461041557610172565b8063715018a61461031b57806375b238fc146103255780637b0472f0146103435780637b71e5db1461035f578063842dd90a1461037b5780638da5cb5b146103ab57610172565b80632f2ff15d116101305780632f2ff15d1461025d578063302f7fea1461027957806336568abe146102a95780633b552dbd146102c55780634adc7cfd146102f557806366675aa91461031157610172565b80628afd4e1461017757806301ffc9a7146101935780630fb4d2e5146101c35780631bbda52b146101f5578063248a9ca3146102115780632edb531c14610241575b600080fd5b610191600480360381019061018c9190611fc0565b6104cb565b005b6101ad60048036038101906101a89190612074565b610511565b6040516101ba91906120bc565b60405180910390f35b6101dd60048036038101906101d891906120d7565b61058b565b6040516101ec93929190612154565b60405180910390f35b61020f600480360381019061020a9190611fc0565b6105e5565b005b61022b600480360381019061022691906121c1565b61062b565b60405161023891906121fd565b60405180910390f35b61025b60048036038101906102569190612244565b61064b565b005b61027760048036038101906102729190612284565b610716565b005b610293600480360381019061028e91906122c4565b610737565b6040516102a09190612317565b60405180910390f35b6102c360048036038101906102be9190612284565b6108f0565b005b6102df60048036038101906102da9190612244565b610973565b6040516102ec9190612317565b60405180910390f35b61030f600480360381019061030a9190612332565b610b23565b005b610319610b40565b005b610323610bdf565b005b61032d610c67565b60405161033a91906121fd565b60405180910390f35b61035d6004803603810190610358919061235f565b610c6d565b005b6103796004803603810190610374919061239f565b610c7b565b005b610395600480360381019061039091906120d7565b610d00565b6040516103a29190612317565b60405180910390f35b6103b3610d34565b6040516103c091906123f2565b60405180910390f35b6103e360048036038101906103de9190612284565b610d5d565b6040516103f091906120bc565b60405180910390f35b610413600480360381019061040e919061235f565b610dc8565b005b61041d610dd6565b60405161042a91906121fd565b60405180910390f35b61044d60048036038101906104489190612284565b610ddd565b005b6104696004803603810190610464919061240d565b610dfe565b604051610476919061246f565b60405180910390f35b61049960048036038101906104949190612332565b610e11565b005b6104b560048036038101906104b09190612244565b610f08565b6040516104c29190612548565b60405180910390f35b60005b815181101561050c576104fb838383815181106104ee576104ed61256a565b5b6020026020010151611028565b80610505906125c8565b90506104ce565b505050565b60007f7965db0b000000000000000000000000000000000000000000000000000000007bffffffffffffffffffffffffffffffffffffffffffffffffffffffff1916827bffffffffffffffffffffffffffffffffffffffffffffffffffffffff191614806105845750610583826113c7565b5b9050919050565b6007818154811061059b57600080fd5b90600052602060002090600302016000915090508060000160009054906101000a900473ffffffffffffffffffffffffffffffffffffffff16908060010154908060020154905083565b60005b815181101561062657610615838383815181106106085761060761256a565b5b6020026020010151611431565b8061061f906125c8565b90506105e8565b505050565b600060016000838152602001908152602001600020600101549050919050565b600254610657816116fe565b600760405180606001604052808573ffffffffffffffffffffffffffffffffffffffff1681526020018481526020016000815250908060018154018082558091505060019003906000526020600020906003020160009091909190915060008201518160000160006101000a81548173ffffffffffffffffffffffffffffffffffffffff021916908373ffffffffffffffffffffffffffffffffffffffff16021790555060208201518160010155604082015181600201555050505050565b61071f8261062b565b610728816116fe565b6107328383611712565b505050565b6000806007848154811061074e5761074d61256a565b5b906000526020600020906003020190508473ffffffffffffffffffffffffffffffffffffffff16600560008360000160009054906101000a900473ffffffffffffffffffffffffffffffffffffffff1673ffffffffffffffffffffffffffffffffffffffff1673ffffffffffffffffffffffffffffffffffffffff168152602001908152602001600020600085815260200190815260200160002060009054906101000a900473ffffffffffffffffffffffffffffffffffffffff1673ffffffffffffffffffffffffffffffffffffffff161461082f5760009150506108e9565b6000600660008360000160009054906101000a900473ffffffffffffffffffffffffffffffffffffffff1673ffffffffffffffffffffffffffffffffffffffff1673ffffffffffffffffffffffffffffffffffffffff168152602001908152602001600020600085815260200190815260200160002054905060006108e083600101546108d261025885426108c49190612610565b6117f290919063ffffffff16565b61180890919063ffffffff16565b90508093505050505b9392505050565b6108f861181e565b73ffffffffffffffffffffffffffffffffffffffff168173ffffffffffffffffffffffffffffffffffffffff1614610965576040517f08c379a000000000000000000000000000000000000000000000000000000000815260040161095c906126c7565b60405180910390fd5b61096f8282611826565b5050565b600080600090506000600784815481106109905761098f61256a565b5b906000526020600020906003020160000160009054906101000a900473ffffffffffffffffffffffffffffffffffffffff16905060005b600460008373ffffffffffffffffffffffffffffffffffffffff1673ffffffffffffffffffffffffffffffffffffffff16815260200190815260200160002060008773ffffffffffffffffffffffffffffffffffffffff1673ffffffffffffffffffffffffffffffffffffffff16815260200190815260200160002080549050811015610b17576000600460008473ffffffffffffffffffffffffffffffffffffffff1673ffffffffffffffffffffffffffffffffffffffff16815260200190815260200160002060008873ffffffffffffffffffffffffffffffffffffffff1673ffffffffffffffffffffffffffffffffffffffff1681526020019081526020016000208281548110610ade57610add61256a565b5b90600052602060002001549050610af6878783610737565b84610b0191906126e7565b9350508080610b0f906125c8565b9150506109c7565b50819250505092915050565b6000801b610b30816116fe565b610b3c60025483611908565b5050565b600254610b4c816116fe565b600360009054906101000a900473ffffffffffffffffffffffffffffffffffffffff1673ffffffffffffffffffffffffffffffffffffffff166340c10f193360016040518363ffffffff1660e01b8152600401610baa929190612782565b600060405180830381600087803b158015610bc457600080fd5b505af1158015610bd8573d6000803e3d6000fd5b5050505050565b610be761181e565b73ffffffffffffffffffffffffffffffffffffffff16610c05610d34565b73ffffffffffffffffffffffffffffffffffffffff1614610c5b576040517f08c379a0000000000000000000000000000000000000000000000000000000008152600401610c52906127f7565b60405180910390fd5b610c656000611916565b565b60025481565b610c778282611431565b5050565b600254610c87816116fe565b600060078581548110610c9d57610c9c61256a565b5b90600052602060002090600302019050838160000160006101000a81548173ffffffffffffffffffffffffffffffffffffffff021916908373ffffffffffffffffffffffffffffffffffffffff1602179055508281600101819055505050505050565b60008060078381548110610d1757610d1661256a565b5b906000526020600020906003020190508060020154915050919050565b60008060009054906101000a900473ffffffffffffffffffffffffffffffffffffffff16905090565b60006001600084815260200190815260200160002060000160008373ffffffffffffffffffffffffffffffffffffffff1673ffffffffffffffffffffffffffffffffffffffff16815260200190815260200160002060009054906101000a900460ff16905092915050565b610dd28282611028565b5050565b6000801b81565b610de68261062b565b610def816116fe565b610df98383611826565b505050565b600063150b7a0260e01b90509392505050565b610e1961181e565b73ffffffffffffffffffffffffffffffffffffffff16610e37610d34565b73ffffffffffffffffffffffffffffffffffffffff1614610e8d576040517f08c379a0000000000000000000000000000000000000000000000000000000008152600401610e84906127f7565b60405180910390fd5b600073ffffffffffffffffffffffffffffffffffffffff168173ffffffffffffffffffffffffffffffffffffffff1603610efc576040517f08c379a0000000000000000000000000000000000000000000000000000000008152600401610ef390612889565b60405180910390fd5b610f0581611916565b50565b6060600060078381548110610f2057610f1f61256a565b5b90600052602060002090600302019050600460008260000160009054906101000a900473ffffffffffffffffffffffffffffffffffffffff1673ffffffffffffffffffffffffffffffffffffffff1673ffffffffffffffffffffffffffffffffffffffff16815260200190815260200160002060008573ffffffffffffffffffffffffffffffffffffffff1673ffffffffffffffffffffffffffffffffffffffff16815260200190815260200160002080548060200260200160405190810160405280929190818152602001828054801561101a57602002820191906000526020600020905b815481526020019060010190808311611006575b505050505091505092915050565b60006007838154811061103e5761103d61256a565b5b906000526020600020906003020190503373ffffffffffffffffffffffffffffffffffffffff16600560008360000160009054906101000a900473ffffffffffffffffffffffffffffffffffffffff1673ffffffffffffffffffffffffffffffffffffffff1673ffffffffffffffffffffffffffffffffffffffff168152602001908152602001600020600084815260200190815260200160002060009054906101000a900473ffffffffffffffffffffffffffffffffffffffff1673ffffffffffffffffffffffffffffffffffffffff1614611150576040517f08c379a00000000000000000000000000000000000000000000000000000000081526004016111479061291b565b60405180910390fd5b61115b3384846119da565b611204600460008360000160009054906101000a900473ffffffffffffffffffffffffffffffffffffffff1673ffffffffffffffffffffffffffffffffffffffff1673ffffffffffffffffffffffffffffffffffffffff16815260200190815260200160002060003373ffffffffffffffffffffffffffffffffffffffff1673ffffffffffffffffffffffffffffffffffffffff16815260200190815260200160002083611a7e565b600560008260000160009054906101000a900473ffffffffffffffffffffffffffffffffffffffff1673ffffffffffffffffffffffffffffffffffffffff1673ffffffffffffffffffffffffffffffffffffffff168152602001908152602001600020600083815260200190815260200160002060006101000a81549073ffffffffffffffffffffffffffffffffffffffff0219169055600660008260000160009054906101000a900473ffffffffffffffffffffffffffffffffffffffff1673ffffffffffffffffffffffffffffffffffffffff1673ffffffffffffffffffffffffffffffffffffffff16815260200190815260200160002060008381526020019081526020016000206000905560018160020160008282546113289190612610565b925050819055508060000160009054906101000a900473ffffffffffffffffffffffffffffffffffffffff1673ffffffffffffffffffffffffffffffffffffffff166323b872dd3033856040518463ffffffff1660e01b81526004016113909392919061293b565b600060405180830381600087803b1580156113aa57600080fd5b505af11580156113be573d6000803e3d6000fd5b50505050505050565b60007f01ffc9a7000000000000000000000000000000000000000000000000000000007bffffffffffffffffffffffffffffffffffffffffffffffffffffffff1916827bffffffffffffffffffffffffffffffffffffffffffffffffffffffff1916149050919050565b6000600783815481106114475761144661256a565b5b9060005260206000209060030201905033600560008360000160009054906101000a900473ffffffffffffffffffffffffffffffffffffffff1673ffffffffffffffffffffffffffffffffffffffff1673ffffffffffffffffffffffffffffffffffffffff168152602001908152602001600020600084815260200190815260200160002060006101000a81548173ffffffffffffffffffffffffffffffffffffffff021916908373ffffffffffffffffffffffffffffffffffffffff16021790555042600660008360000160009054906101000a900473ffffffffffffffffffffffffffffffffffffffff1673ffffffffffffffffffffffffffffffffffffffff1673ffffffffffffffffffffffffffffffffffffffff168152602001908152602001600020600084815260200190815260200160002081905550600460008260000160009054906101000a900473ffffffffffffffffffffffffffffffffffffffff1673ffffffffffffffffffffffffffffffffffffffff1673ffffffffffffffffffffffffffffffffffffffff16815260200190815260200160002060003373ffffffffffffffffffffffffffffffffffffffff1673ffffffffffffffffffffffffffffffffffffffff168152602001908152602001600020829080600181540180825580915050600190039060005260206000200160009091909190915055600181600201600082825461165f91906126e7565b925050819055508060000160009054906101000a900473ffffffffffffffffffffffffffffffffffffffff1673ffffffffffffffffffffffffffffffffffffffff166323b872dd3330856040518463ffffffff1660e01b81526004016116c79392919061293b565b600060405180830381600087803b1580156116e157600080fd5b505af11580156116f5573d6000803e3d6000fd5b50505050505050565b61170f8161170a61181e565b611b44565b50565b61171c8282610d5d565b6117ee57600180600084815260200190815260200160002060000160008373ffffffffffffffffffffffffffffffffffffffff1673ffffffffffffffffffffffffffffffffffffffff16815260200190815260200160002060006101000a81548160ff02191690831515021790555061179361181e565b73ffffffffffffffffffffffffffffffffffffffff168173ffffffffffffffffffffffffffffffffffffffff16837f2f8788117e7eff1d82e926ec794901d17c78024a50270940304540a733656f0d60405160405180910390a45b5050565b6000818361180091906129a1565b905092915050565b6000818361181691906129d2565b905092915050565b600033905090565b6118308282610d5d565b156119045760006001600084815260200190815260200160002060000160008373ffffffffffffffffffffffffffffffffffffffff1673ffffffffffffffffffffffffffffffffffffffff16815260200190815260200160002060006101000a81548160ff0219169083151502179055506118a961181e565b73ffffffffffffffffffffffffffffffffffffffff168173ffffffffffffffffffffffffffffffffffffffff16837ff6391f5c32d9c69d2a47ea670b442974b53935d1edc7fd64eb21e047a839171b60405160405180910390a45b5050565b6119128282611712565b5050565b60008060009054906101000a900473ffffffffffffffffffffffffffffffffffffffff169050816000806101000a81548173ffffffffffffffffffffffffffffffffffffffff021916908373ffffffffffffffffffffffffffffffffffffffff1602179055508173ffffffffffffffffffffffffffffffffffffffff168173ffffffffffffffffffffffffffffffffffffffff167f8be0079c531659141344cd1fd0a4f28419497f9722a3daafe3b4186f6b6457e060405160405180910390a35050565b60006119e7848484610737565b9050600360009054906101000a900473ffffffffffffffffffffffffffffffffffffffff1673ffffffffffffffffffffffffffffffffffffffff166340c10f1933836040518363ffffffff1660e01b8152600401611a46929190612a2c565b600060405180830381600087803b158015611a6057600080fd5b505af1158015611a74573d6000803e3d6000fd5b5050505050505050565b60005b8280549050811015611b3f5781838281548110611aa157611aa061256a565b5b906000526020600020015403611b2c578260018480549050611ac39190612610565b81548110611ad457611ad361256a565b5b9060005260206000200154838281548110611af257611af161256a565b5b906000526020600020018190555082805480611b1157611b10612a55565b5b60019003818190600052602060002001600090559055611b3f565b8080611b37906125c8565b915050611a81565b505050565b611b4e8282610d5d565b611bdd57611b738173ffffffffffffffffffffffffffffffffffffffff166014611be1565b611b818360001c6020611be1565b604051602001611b92929190612b96565b6040516020818303038152906040526040517f08c379a0000000000000000000000000000000000000000000000000000000008152600401611bd49190612c09565b60405180910390fd5b5050565b606060006002836002611bf491906129d2565b611bfe91906126e7565b67ffffffffffffffff811115611c1757611c16611e7d565b5b6040519080825280601f01601f191660200182016040528015611c495781602001600182028036833780820191505090505b5090507f300000000000000000000000000000000000000000000000000000000000000081600081518110611c8157611c8061256a565b5b60200101907effffffffffffffffffffffffffffffffffffffffffffffffffffffffffffff1916908160001a9053507f780000000000000000000000000000000000000000000000000000000000000081600181518110611ce557611ce461256a565b5b60200101907effffffffffffffffffffffffffffffffffffffffffffffffffffffffffffff1916908160001a90535060006001846002611d2591906129d2565b611d2f91906126e7565b90505b6001811115611dcf577f3031323334353637383961626364656600000000000000000000000000000000600f861660108110611d7157611d7061256a565b5b1a60f81b828281518110611d8857611d8761256a565b5b60200101907effffffffffffffffffffffffffffffffffffffffffffffffffffffffffffff1916908160001a905350600485901c945080611dc890612c2b565b9050611d32565b5060008414611e13576040517f08c379a0000000000000000000000000000000000000000000000000000000008152600401611e0a90612ca0565b60405180910390fd5b8091505092915050565b6000604051905090565b600080fd5b600080fd5b6000819050919050565b611e4481611e31565b8114611e4f57600080fd5b50565b600081359050611e6181611e3b565b92915050565b600080fd5b6000601f19601f8301169050919050565b7f4e487b7100000000000000000000000000000000000000000000000000000000600052604160045260246000fd5b611eb582611e6c565b810181811067ffffffffffffffff82111715611ed457611ed3611e7d565b5b80604052505050565b6000611ee7611e1d565b9050611ef38282611eac565b919050565b600067ffffffffffffffff821115611f1357611f12611e7d565b5b602082029050602081019050919050565b600080fd5b6000611f3c611f3784611ef8565b611edd565b90508083825260208201905060208402830185811115611f5f57611f5e611f24565b5b835b81811015611f885780611f748882611e52565b845260208401935050602081019050611f61565b5050509392505050565b600082601f830112611fa757611fa6611e67565b5b8135611fb7848260208601611f29565b91505092915050565b60008060408385031215611fd757611fd6611e27565b5b6000611fe585828601611e52565b925050602083013567ffffffffffffffff81111561200657612005611e2c565b5b61201285828601611f92565b9150509250929050565b60007fffffffff0000000000000000000000000000000000000000000000000000000082169050919050565b6120518161201c565b811461205c57600080fd5b50565b60008135905061206e81612048565b92915050565b60006020828403121561208a57612089611e27565b5b60006120988482850161205f565b91505092915050565b60008115159050919050565b6120b6816120a1565b82525050565b60006020820190506120d160008301846120ad565b92915050565b6000602082840312156120ed576120ec611e27565b5b60006120fb84828501611e52565b91505092915050565b600073ffffffffffffffffffffffffffffffffffffffff82169050919050565b600061212f82612104565b9050919050565b61213f81612124565b82525050565b61214e81611e31565b82525050565b60006060820190506121696000830186612136565b6121766020830185612145565b6121836040830184612145565b949350505050565b6000819050919050565b61219e8161218b565b81146121a957600080fd5b50565b6000813590506121bb81612195565b92915050565b6000602082840312156121d7576121d6611e27565b5b60006121e5848285016121ac565b91505092915050565b6121f78161218b565b82525050565b600060208201905061221260008301846121ee565b92915050565b61222181612124565b811461222c57600080fd5b50565b60008135905061223e81612218565b92915050565b6000806040838503121561225b5761225a611e27565b5b60006122698582860161222f565b925050602061227a85828601611e52565b9150509250929050565b6000806040838503121561229b5761229a611e27565b5b60006122a9858286016121ac565b92505060206122ba8582860161222f565b9150509250929050565b6000806000606084860312156122dd576122dc611e27565b5b60006122eb8682870161222f565b93505060206122fc86828701611e52565b925050604061230d86828701611e52565b9150509250925092565b600060208201905061232c6000830184612145565b92915050565b60006020828403121561234857612347611e27565b5b60006123568482850161222f565b91505092915050565b6000806040838503121561237657612375611e27565b5b600061238485828601611e52565b925050602061239585828601611e52565b9150509250929050565b6000806000606084860312156123b8576123b7611e27565b5b60006123c686828701611e52565b93505060206123d78682870161222f565b92505060406123e886828701611e52565b9150509250925092565b60006020820190506124076000830184612136565b92915050565b60008060006060848603121561242657612425611e27565b5b60006124348682870161222f565b93505060206124458682870161222f565b925050604061245686828701611e52565b9150509250925092565b6124698161201c565b82525050565b60006020820190506124846000830184612460565b92915050565b600081519050919050565b600082825260208201905092915050565b6000819050602082019050919050565b6124bf81611e31565b82525050565b60006124d183836124b6565b60208301905092915050565b6000602082019050919050565b60006124f58261248a565b6124ff8185612495565b935061250a836124a6565b8060005b8381101561253b57815161252288826124c5565b975061252d836124dd565b92505060018101905061250e565b5085935050505092915050565b6000602082019050818103600083015261256281846124ea565b905092915050565b7f4e487b7100000000000000000000000000000000000000000000000000000000600052603260045260246000fd5b7f4e487b7100000000000000000000000000000000000000000000000000000000600052601160045260246000fd5b60006125d382611e31565b91507fffffffffffffffffffffffffffffffffffffffffffffffffffffffffffffffff820361260557612604612599565b5b600182019050919050565b600061261b82611e31565b915061262683611e31565b92508282101561263957612638612599565b5b828203905092915050565b600082825260208201905092915050565b7f416363657373436f6e74726f6c3a2063616e206f6e6c792072656e6f756e636560008201527f20726f6c657320666f722073656c660000000000000000000000000000000000602082015250565b60006126b1602f83612644565b91506126bc82612655565b604082019050919050565b600060208201905081810360008301526126e0816126a4565b9050919050565b60006126f282611e31565b91506126fd83611e31565b9250827fffffffffffffffffffffffffffffffffffffffffffffffffffffffffffffffff0382111561273257612731612599565b5b828201905092915050565b6000819050919050565b6000819050919050565b600061276c6127676127628461273d565b612747565b611e31565b9050919050565b61277c81612751565b82525050565b60006040820190506127976000830185612136565b6127a46020830184612773565b9392505050565b7f4f776e61626c653a2063616c6c6572206973206e6f7420746865206f776e6572600082015250565b60006127e1602083612644565b91506127ec826127ab565b602082019050919050565b60006020820190508181036000830152612810816127d4565b9050919050565b7f4f776e61626c653a206e6577206f776e657220697320746865207a65726f206160008201527f6464726573730000000000000000000000000000000000000000000000000000602082015250565b6000612873602683612644565b915061287e82612817565b604082019050919050565b600060208201905081810360008301526128a281612866565b9050919050565b7f746f6b656e206973206e6f74207374616b6564206f722073656e64657220646f60008201527f6573206e6f74206f776e20697400000000000000000000000000000000000000602082015250565b6000612905602d83612644565b9150612910826128a9565b604082019050919050565b60006020820190508181036000830152612934816128f8565b9050919050565b60006060820190506129506000830186612136565b61295d6020830185612136565b61296a6040830184612145565b949350505050565b7f4e487b7100000000000000000000000000000000000000000000000000000000600052601260045260246000fd5b60006129ac82611e31565b91506129b783611e31565b9250826129c7576129c6612972565b5b828204905092915050565b60006129dd82611e31565b91506129e883611e31565b9250817fffffffffffffffffffffffffffffffffffffffffffffffffffffffffffffffff0483118215151615612a2157612a20612599565b5b828202905092915050565b6000604082019050612a416000830185612136565b612a4e6020830184612145565b9392505050565b7f4e487b7100000000000000000000000000000000000000000000000000000000600052603160045260246000fd5b600081905092915050565b7f416363657373436f6e74726f6c3a206163636f756e7420000000000000000000600082015250565b6000612ac5601783612a84565b9150612ad082612a8f565b601782019050919050565b600081519050919050565b60005b83811015612b04578082015181840152602081019050612ae9565b83811115612b13576000848401525b50505050565b6000612b2482612adb565b612b2e8185612a84565b9350612b3e818560208601612ae6565b80840191505092915050565b7f206973206d697373696e6720726f6c6520000000000000000000000000000000600082015250565b6000612b80601183612a84565b9150612b8b82612b4a565b601182019050919050565b6000612ba182612ab8565b9150612bad8285612b19565b9150612bb882612b73565b9150612bc48284612b19565b91508190509392505050565b6000612bdb82612adb565b612be58185612644565b9350612bf5818560208601612ae6565b612bfe81611e6c565b840191505092915050565b60006020820190508181036000830152612c238184612bd0565b905092915050565b6000612c3682611e31565b915060008203612c4957612c48612599565b5b600182039050919050565b7f537472696e67733a20686578206c656e67746820696e73756666696369656e74600082015250565b6000612c8a602083612644565b9150612c9582612c54565b602082019050919050565b60006020820190508181036000830152612cb981612c7d565b905091905056fea2646970667358221220ca8ce91a557b4d4016314c64e6afa55ee724feaece375303e92cc203a291f50264736f6c634300080d0033",
  "linkReferences": {},
  "deployedLinkReferences": {}
}