{
  "_format": "hh-sol-artifact-1",
  "contractName": "CyberlionStaking",
  "sourceName": "contracts/CLstaking.sol",
  "abi": [
    {
      "inputs": [
        {
          "internalType": "address",
          "name": "_rewardsToken",
          "type": "address"
        }
      ],
      "stateMutability": "nonpayable",
      "type": "constructor"
    },
    {
      "anonymous": false,
      "inputs": [
        {
          "indexed": true,
          "internalType": "address",
          "name": "previousOwner",
          "type": "address"
        },
        {
          "indexed": true,
          "internalType": "address",
          "name": "newOwner",
          "type": "address"
        }
      ],
      "name": "OwnershipTransferred",
      "type": "event"
    },
    {
      "anonymous": false,
      "inputs": [
        {
          "indexed": true,
          "internalType": "bytes32",
          "name": "role",
          "type": "bytes32"
        },
        {
          "indexed": true,
          "internalType": "bytes32",
          "name": "previousAdminRole",
          "type": "bytes32"
        },
        {
          "indexed": true,
          "internalType": "bytes32",
          "name": "newAdminRole",
          "type": "bytes32"
        }
      ],
      "name": "RoleAdminChanged",
      "type": "event"
    },
    {
      "anonymous": false,
      "inputs": [
        {
          "indexed": true,
          "internalType": "bytes32",
          "name": "role",
          "type": "bytes32"
        },
        {
          "indexed": true,
          "internalType": "address",
          "name": "account",
          "type": "address"
        },
        {
          "indexed": true,
          "internalType": "address",
          "name": "sender",
          "type": "address"
        }
      ],
      "name": "RoleGranted",
      "type": "event"
    },
    {
      "anonymous": false,
      "inputs": [
        {
          "indexed": true,
          "internalType": "bytes32",
          "name": "role",
          "type": "bytes32"
        },
        {
          "indexed": true,
          "internalType": "address",
          "name": "account",
          "type": "address"
        },
        {
          "indexed": true,
          "internalType": "address",
          "name": "sender",
          "type": "address"
        }
      ],
      "name": "RoleRevoked",
      "type": "event"
    },
    {
      "inputs": [],
      "name": "ADMIN_ROLE",
      "outputs": [
        {
          "internalType": "bytes32",
          "name": "",
          "type": "bytes32"
        }
      ],
      "stateMutability": "view",
      "type": "function"
    },
    {
      "inputs": [],
      "name": "DEFAULT_ADMIN_ROLE",
      "outputs": [
        {
          "internalType": "bytes32",
          "name": "",
          "type": "bytes32"
        }
      ],
      "stateMutability": "view",
      "type": "function"
    },
    {
      "inputs": [
        {
          "internalType": "uint256",
          "name": "_cid",
          "type": "uint256"
        },
        {
          "internalType": "uint256[]",
          "name": "_ids",
          "type": "uint256[]"
        }
      ],
      "name": "batchStake",
      "outputs": [],
      "stateMutability": "nonpayable",
      "type": "function"
    },
    {
      "inputs": [
        {
          "internalType": "uint256",
          "name": "_cid",
          "type": "uint256"
        },
        {
          "internalType": "uint256[]",
          "name": "_ids",
          "type": "uint256[]"
        }
      ],
      "name": "batchUnstake",
      "outputs": [],
      "stateMutability": "nonpayable",
      "type": "function"
    },
    {
      "inputs": [
        {
          "internalType": "address",
          "name": "_userAddress",
          "type": "address"
        },
        {
          "internalType": "uint256",
          "name": "_collectionID",
          "type": "uint256"
        }
      ],
      "name": "claimableReward",
      "outputs": [
        {
          "internalType": "uint256",
          "name": "",
          "type": "uint256"
        }
      ],
      "stateMutability": "view",
      "type": "function"
    },
    {
      "inputs": [
        {
          "internalType": "uint256",
          "name": "",
          "type": "uint256"
        }
      ],
      "name": "collectionInfo",
      "outputs": [
        {
          "internalType": "address",
          "name": "collectionAddress",
          "type": "address"
        },
        {
          "internalType": "uint256",
          "name": "rewardPerDay",
          "type": "uint256"
        },
        {
          "internalType": "uint256",
          "name": "totalAmountStaked",
          "type": "uint256"
        }
      ],
      "stateMutability": "view",
      "type": "function"
    },
    {
      "inputs": [
        {
          "internalType": "bytes32",
          "name": "role",
          "type": "bytes32"
        }
      ],
      "name": "getRoleAdmin",
      "outputs": [
        {
          "internalType": "bytes32",
          "name": "",
          "type": "bytes32"
        }
      ],
      "stateMutability": "view",
      "type": "function"
    },
    {
      "inputs": [
        {
          "internalType": "uint256",
          "name": "_collectionID",
          "type": "uint256"
        }
      ],
      "name": "getTotalStakedItemsCount",
      "outputs": [
        {
          "internalType": "uint256",
          "name": "",
          "type": "uint256"
        }
      ],
      "stateMutability": "view",
      "type": "function"
    },
    {
      "inputs": [
        {
          "internalType": "address",
          "name": "_userAddress",
          "type": "address"
        },
        {
          "internalType": "address",
          "name": "_collectionAddr",
          "type": "address"
        }
      ],
      "name": "getUserInformation",
      "outputs": [
        {
          "internalType": "uint256[]",
          "name": "",
          "type": "uint256[]"
        },
        {
          "internalType": "uint256",
          "name": "",
          "type": "uint256"
        },
        {
          "internalType": "uint256",
          "name": "",
          "type": "uint256"
        }
      ],
      "stateMutability": "view",
      "type": "function"
    },
    {
      "inputs": [
        {
          "internalType": "bytes32",
          "name": "role",
          "type": "bytes32"
        },
        {
          "internalType": "address",
          "name": "account",
          "type": "address"
        }
      ],
      "name": "grantRole",
      "outputs": [],
      "stateMutability": "nonpayable",
      "type": "function"
    },
    {
      "inputs": [
        {
          "internalType": "bytes32",
          "name": "role",
          "type": "bytes32"
        },
        {
          "internalType": "address",
          "name": "account",
          "type": "address"
        }
      ],
      "name": "hasRole",
      "outputs": [
        {
          "internalType": "bool",
          "name": "",
          "type": "bool"
        }
      ],
      "stateMutability": "view",
      "type": "function"
    },
    {
      "inputs": [
        {
          "internalType": "uint256",
          "name": "payableAmount",
          "type": "uint256"
        }
      ],
      "name": "mintertest",
      "outputs": [],
      "stateMutability": "nonpayable",
      "type": "function"
    },
    {
      "inputs": [
        {
          "internalType": "address",
          "name": "",
          "type": "address"
        },
        {
          "internalType": "address",
          "name": "",
          "type": "address"
        },
        {
          "internalType": "uint256",
          "name": "",
          "type": "uint256"
        }
      ],
      "name": "onERC721Received",
      "outputs": [
        {
          "internalType": "bytes4",
          "name": "",
          "type": "bytes4"
        }
      ],
      "stateMutability": "pure",
      "type": "function"
    },
    {
      "inputs": [],
      "name": "owner",
      "outputs": [
        {
          "internalType": "address",
          "name": "",
          "type": "address"
        }
      ],
      "stateMutability": "view",
      "type": "function"
    },
    {
      "inputs": [],
      "name": "renounceOwnership",
      "outputs": [],
      "stateMutability": "nonpayable",
      "type": "function"
    },
    {
      "inputs": [
        {
          "internalType": "bytes32",
          "name": "role",
          "type": "bytes32"
        },
        {
          "internalType": "address",
          "name": "account",
          "type": "address"
        }
      ],
      "name": "renounceRole",
      "outputs": [],
      "stateMutability": "nonpayable",
      "type": "function"
    },
    {
      "inputs": [
        {
          "internalType": "bytes32",
          "name": "role",
          "type": "bytes32"
        },
        {
          "internalType": "address",
          "name": "account",
          "type": "address"
        }
      ],
      "name": "revokeRole",
      "outputs": [],
      "stateMutability": "nonpayable",
      "type": "function"
    },
    {
      "inputs": [
        {
          "internalType": "address",
          "name": "admin",
          "type": "address"
        }
      ],
      "name": "setAdminRole",
      "outputs": [],
      "stateMutability": "nonpayable",
      "type": "function"
    },
    {
      "inputs": [
        {
          "internalType": "address",
          "name": "_collectionAddress",
          "type": "address"
        },
        {
          "internalType": "uint256",
          "name": "_rewardPerDay",
          "type": "uint256"
        }
      ],
      "name": "setCollection",
      "outputs": [],
      "stateMutability": "nonpayable",
      "type": "function"
    },
    {
      "inputs": [
        {
          "internalType": "uint256",
          "name": "_collectionID",
          "type": "uint256"
        },
        {
          "internalType": "uint256",
          "name": "_tokenID",
          "type": "uint256"
        }
      ],
      "name": "stake",
      "outputs": [],
      "stateMutability": "nonpayable",
      "type": "function"
    },
    {
      "inputs": [
        {
          "internalType": "bytes4",
          "name": "interfaceId",
          "type": "bytes4"
        }
      ],
      "name": "supportsInterface",
      "outputs": [
        {
          "internalType": "bool",
          "name": "",
          "type": "bool"
        }
      ],
      "stateMutability": "view",
      "type": "function"
    },
    {
      "inputs": [
        {
          "internalType": "address",
          "name": "",
          "type": "address"
        },
        {
          "internalType": "uint256",
          "name": "",
          "type": "uint256"
        }
      ],
      "name": "tokenOwners",
      "outputs": [
        {
          "internalType": "address",
          "name": "",
          "type": "address"
        }
      ],
      "stateMutability": "view",
      "type": "function"
    },
    {
      "inputs": [
        {
          "internalType": "address",
          "name": "newOwner",
          "type": "address"
        }
      ],
      "name": "transferOwnership",
      "outputs": [],
      "stateMutability": "nonpayable",
      "type": "function"
    },
    {
      "inputs": [
        {
          "internalType": "uint256",
          "name": "_collectionID",
          "type": "uint256"
        },
        {
          "internalType": "uint256",
          "name": "_tokenID",
          "type": "uint256"
        }
      ],
      "name": "unstake",
      "outputs": [],
      "stateMutability": "nonpayable",
      "type": "function"
    },
    {
      "inputs": [
        {
          "internalType": "uint256",
          "name": "_collectionID",
          "type": "uint256"
        },
        {
          "internalType": "address",
          "name": "_collectionAddress",
          "type": "address"
        },
        {
          "internalType": "uint256",
          "name": "_rewardPerDay",
          "type": "uint256"
        }
      ],
      "name": "updateCollection",
      "outputs": [],
      "stateMutability": "nonpayable",
      "type": "function"
    },
    {
      "inputs": [
        {
          "internalType": "address",
          "name": "",
          "type": "address"
        }
      ],
      "name": "userInfo",
      "outputs": [
        {
          "internalType": "uint256",
          "name": "amountStaked",
          "type": "uint256"
        }
      ],
      "stateMutability": "view",
      "type": "function"
    }
  ],
  "bytecode": "0x60806040527fdf8b4c520ffe197c5343c6f5aec59570151ef9a492f2c624fd45ddde6135ec426002553480156200003557600080fd5b5060405162002fad38038062002fad83398181016040528101906200005b919062000394565b6200007b6200006f620000ec60201b60201c565b620000f460201b60201c565b80600360006101000a81548173ffffffffffffffffffffffffffffffffffffffff021916908373ffffffffffffffffffffffffffffffffffffffff160217905550620000d16000801b33620001b860201b60201c565b620000e560025433620001b860201b60201c565b50620003c6565b600033905090565b60008060009054906101000a900473ffffffffffffffffffffffffffffffffffffffff169050816000806101000a81548173ffffffffffffffffffffffffffffffffffffffff021916908373ffffffffffffffffffffffffffffffffffffffff1602179055508173ffffffffffffffffffffffffffffffffffffffff168173ffffffffffffffffffffffffffffffffffffffff167f8be0079c531659141344cd1fd0a4f28419497f9722a3daafe3b4186f6b6457e060405160405180910390a35050565b620001ca8282620001ce60201b60201c565b5050565b620001e08282620002bf60201b60201c565b620002bb57600180600084815260200190815260200160002060000160008373ffffffffffffffffffffffffffffffffffffffff1673ffffffffffffffffffffffffffffffffffffffff16815260200190815260200160002060006101000a81548160ff02191690831515021790555062000260620000ec60201b60201c565b73ffffffffffffffffffffffffffffffffffffffff168173ffffffffffffffffffffffffffffffffffffffff16837f2f8788117e7eff1d82e926ec794901d17c78024a50270940304540a733656f0d60405160405180910390a45b5050565b60006001600084815260200190815260200160002060000160008373ffffffffffffffffffffffffffffffffffffffff1673ffffffffffffffffffffffffffffffffffffffff16815260200190815260200160002060009054906101000a900460ff16905092915050565b600080fd5b600073ffffffffffffffffffffffffffffffffffffffff82169050919050565b60006200035c826200032f565b9050919050565b6200036e816200034f565b81146200037a57600080fd5b50565b6000815190506200038e8162000363565b92915050565b600060208284031215620003ad57620003ac6200032a565b5b6000620003bd848285016200037d565b91505092915050565b612bd780620003d66000396000f3fe608060405234801561001057600080fd5b506004361061018d5760003560e01c8063715018a6116100de5780638da5cb5b11610097578063a217fddf11610071578063a217fddf146104a4578063d547741f146104c2578063eeafbddc146104de578063f2fde38b1461050e5761018d565b80638da5cb5b1461043a57806391d14854146104585780639e2c8a5b146104885761018d565b8063715018a61461037a57806375b238fc146103845780637b0472f0146103a25780637b71e5db146103be578063842dd90a146103da5780638b5e51d21461040a5761018d565b80631bbda52b1161014b5780632f2ff15d116101255780632f2ff15d146102f657806336568abe146103125780634adc7cfd1461032e5780636bd97f1d1461034a5761018d565b80631bbda52b1461028e578063248a9ca3146102aa5780632edb531c146102da5761018d565b80628afd4e1461019257806301ffc9a7146101ae5780630fb4d2e5146101de5780631444713514610210578063173fe4491461022c5780631959a0021461025e575b600080fd5b6101ac60048036038101906101a79190611f2c565b61052a565b005b6101c860048036038101906101c39190611fe0565b610571565b6040516101d59190612028565b60405180910390f35b6101f860048036038101906101f39190612043565b6105eb565b604051610207939291906120c0565b60405180910390f35b61022a60048036038101906102259190612043565b610645565b005b61024660048036038101906102419190612123565b6106d7565b60405161025593929190612221565b60405180910390f35b6102786004803603810190610273919061225f565b61087d565b604051610285919061228c565b60405180910390f35b6102a860048036038101906102a39190611f2c565b61089b565b005b6102c460048036038101906102bf91906122dd565b6108e2565b6040516102d19190612319565b60405180910390f35b6102f460048036038101906102ef9190612334565b610902565b005b610310600480360381019061030b9190612374565b6109cd565b005b61032c60048036038101906103279190612374565b6109ee565b005b6103486004803603810190610343919061225f565b610a71565b005b610364600480360381019061035f9190612334565b610a8e565b604051610371919061228c565b60405180910390f35b610382610ba3565b005b61038c610c2b565b6040516103999190612319565b60405180910390f35b6103bc60048036038101906103b791906123b4565b610c31565b005b6103d860048036038101906103d391906123f4565b610c40565b005b6103f460048036038101906103ef9190612043565b610cc5565b604051610401919061228c565b60405180910390f35b610424600480360381019061041f9190612334565b610cf9565b6040516104319190612447565b60405180910390f35b610442610d3b565b60405161044f9190612447565b60405180910390f35b610472600480360381019061046d9190612374565b610d64565b60405161047f9190612028565b60405180910390f35b6104a2600480360381019061049d91906123b4565b610dcf565b005b6104ac610dde565b6040516104b99190612319565b60405180910390f35b6104dc60048036038101906104d79190612374565b610de5565b005b6104f860048036038101906104f39190612462565b610e06565b60405161050591906124c4565b60405180910390f35b6105286004803603810190610523919061225f565b610e19565b005b60005b815181101561056c5761055b338484848151811061054e5761054d6124df565b5b6020026020010151610f10565b806105659061253d565b905061052d565b505050565b60007f7965db0b000000000000000000000000000000000000000000000000000000007bffffffffffffffffffffffffffffffffffffffffffffffffffffffff1916827bffffffffffffffffffffffffffffffffffffffffffffffffffffffff191614806105e457506105e38261131e565b5b9050919050565b600681815481106105fb57600080fd5b90600052602060002090600302016000915090508060000160009054906101000a900473ffffffffffffffffffffffffffffffffffffffff16908060010154908060020154905083565b600360009054906101000a900473ffffffffffffffffffffffffffffffffffffffff1673ffffffffffffffffffffffffffffffffffffffff166340c10f1933836040518363ffffffff1660e01b81526004016106a2929190612585565b600060405180830381600087803b1580156106bc57600080fd5b505af11580156106d0573d6000803e3d6000fd5b5050505050565b6060600080600460008673ffffffffffffffffffffffffffffffffffffffff1673ffffffffffffffffffffffffffffffffffffffff16815260200190815260200160002060000160008573ffffffffffffffffffffffffffffffffffffffff1673ffffffffffffffffffffffffffffffffffffffff168152602001908152602001600020600460008773ffffffffffffffffffffffffffffffffffffffff1673ffffffffffffffffffffffffffffffffffffffff16815260200190815260200160002060010160008673ffffffffffffffffffffffffffffffffffffffff1673ffffffffffffffffffffffffffffffffffffffff16815260200190815260200160002054600460008873ffffffffffffffffffffffffffffffffffffffff1673ffffffffffffffffffffffffffffffffffffffff168152602001908152602001600020600201548280548060200260200160405190810160405280929190818152602001828054801561086957602002820191906000526020600020905b815481526020019060010190808311610855575b505050505092509250925092509250925092565b60046020528060005260406000206000915090508060020154905081565b60005b81518110156108dd576108cc33848484815181106108bf576108be6124df565b5b6020026020010151611388565b806108d69061253d565b905061089e565b505050565b600060016000838152602001908152602001600020600101549050919050565b60025461090e8161166c565b600660405180606001604052808573ffffffffffffffffffffffffffffffffffffffff1681526020018481526020016000815250908060018154018082558091505060019003906000526020600020906003020160009091909190915060008201518160000160006101000a81548173ffffffffffffffffffffffffffffffffffffffff021916908373ffffffffffffffffffffffffffffffffffffffff16021790555060208201518160010155604082015181600201555050505050565b6109d6826108e2565b6109df8161166c565b6109e98383611680565b505050565b6109f6611760565b73ffffffffffffffffffffffffffffffffffffffff168173ffffffffffffffffffffffffffffffffffffffff1614610a63576040517f08c379a0000000000000000000000000000000000000000000000000000000008152600401610a5a90612631565b60405180910390fd5b610a6d8282611768565b5050565b6000801b610a7e8161166c565b610a8a6002548361184a565b5050565b600080600460008573ffffffffffffffffffffffffffffffffffffffff1673ffffffffffffffffffffffffffffffffffffffff1681526020019081526020016000209050600060068481548110610ae857610ae76124df565b5b906000526020600020906003020190506000610b958260010154610b876102588660010160008760000160009054906101000a900473ffffffffffffffffffffffffffffffffffffffff1673ffffffffffffffffffffffffffffffffffffffff1673ffffffffffffffffffffffffffffffffffffffff1681526020019081526020016000205442610b799190612651565b61185890919063ffffffff16565b61186e90919063ffffffff16565b905080935050505092915050565b610bab611760565b73ffffffffffffffffffffffffffffffffffffffff16610bc9610d3b565b73ffffffffffffffffffffffffffffffffffffffff1614610c1f576040517f08c379a0000000000000000000000000000000000000000000000000000000008152600401610c16906126d1565b60405180910390fd5b610c296000611884565b565b60025481565b610c3c338383611388565b5050565b600254610c4c8161166c565b600060068581548110610c6257610c616124df565b5b90600052602060002090600302019050838160000160006101000a81548173ffffffffffffffffffffffffffffffffffffffff021916908373ffffffffffffffffffffffffffffffffffffffff1602179055508281600101819055505050505050565b60008060068381548110610cdc57610cdb6124df565b5b906000526020600020906003020190508060020154915050919050565b60056020528160005260406000206020528060005260406000206000915091509054906101000a900473ffffffffffffffffffffffffffffffffffffffff1681565b60008060009054906101000a900473ffffffffffffffffffffffffffffffffffffffff16905090565b60006001600084815260200190815260200160002060000160008373ffffffffffffffffffffffffffffffffffffffff1673ffffffffffffffffffffffffffffffffffffffff16815260200190815260200160002060009054906101000a900460ff16905092915050565b610dda338383610f10565b5050565b6000801b81565b610dee826108e2565b610df78161166c565b610e018383611768565b505050565b600063150b7a0260e01b90509392505050565b610e21611760565b73ffffffffffffffffffffffffffffffffffffffff16610e3f610d3b565b73ffffffffffffffffffffffffffffffffffffffff1614610e95576040517f08c379a0000000000000000000000000000000000000000000000000000000008152600401610e8c906126d1565b60405180910390fd5b600073ffffffffffffffffffffffffffffffffffffffff168173ffffffffffffffffffffffffffffffffffffffff1603610f04576040517f08c379a0000000000000000000000000000000000000000000000000000000008152600401610efb90612763565b60405180910390fd5b610f0d81611884565b50565b6000600460008573ffffffffffffffffffffffffffffffffffffffff1673ffffffffffffffffffffffffffffffffffffffff1681526020019081526020016000209050600060068481548110610f6957610f686124df565b5b906000526020600020906003020190508473ffffffffffffffffffffffffffffffffffffffff16600560008360000160009054906101000a900473ffffffffffffffffffffffffffffffffffffffff1673ffffffffffffffffffffffffffffffffffffffff1673ffffffffffffffffffffffffffffffffffffffff168152602001908152602001600020600085815260200190815260200160002060009054906101000a900473ffffffffffffffffffffffffffffffffffffffff1673ffffffffffffffffffffffffffffffffffffffff161461107b576040517f08c379a0000000000000000000000000000000000000000000000000000000008152600401611072906127cf565b60405180910390fd5b6110853385611948565b6110f38260000160008360000160009054906101000a900473ffffffffffffffffffffffffffffffffffffffff1673ffffffffffffffffffffffffffffffffffffffff1673ffffffffffffffffffffffffffffffffffffffff168152602001908152602001600020846119ea565b600560008260000160009054906101000a900473ffffffffffffffffffffffffffffffffffffffff1673ffffffffffffffffffffffffffffffffffffffff1673ffffffffffffffffffffffffffffffffffffffff168152602001908152602001600020600084815260200190815260200160002060006101000a81549073ffffffffffffffffffffffffffffffffffffffff0219169055428260010160008360000160009054906101000a900473ffffffffffffffffffffffffffffffffffffffff1673ffffffffffffffffffffffffffffffffffffffff1673ffffffffffffffffffffffffffffffffffffffff1681526020019081526020016000208190555060018260020160008282546112099190612651565b9250508190555060018160020160008282546112259190612651565b92505081905550600082600201540361128457600460008673ffffffffffffffffffffffffffffffffffffffff1673ffffffffffffffffffffffffffffffffffffffff1681526020019081526020016000206000600282016000905550505b8060000160009054906101000a900473ffffffffffffffffffffffffffffffffffffffff1673ffffffffffffffffffffffffffffffffffffffff166323b872dd3087866040518463ffffffff1660e01b81526004016112e5939291906127ef565b600060405180830381600087803b1580156112ff57600080fd5b505af1158015611313573d6000803e3d6000fd5b505050505050505050565b60007f01ffc9a7000000000000000000000000000000000000000000000000000000007bffffffffffffffffffffffffffffffffffffffffffffffffffffffff1916827bffffffffffffffffffffffffffffffffffffffffffffffffffffffff1916149050919050565b6000600460008573ffffffffffffffffffffffffffffffffffffffff1673ffffffffffffffffffffffffffffffffffffffff16815260200190815260200160002090506000600684815481106113e1576113e06124df565b5b906000526020600020906003020190508060000160009054906101000a900473ffffffffffffffffffffffffffffffffffffffff1673ffffffffffffffffffffffffffffffffffffffff166323b872dd8630866040518463ffffffff1660e01b8152600401611452939291906127ef565b600060405180830381600087803b15801561146c57600080fd5b505af1158015611480573d6000803e3d6000fd5b5050505060018260020160008282546114999190612826565b9250508190555060018160020160008282546114b59190612826565b92505081905550428260010160008360000160009054906101000a900473ffffffffffffffffffffffffffffffffffffffff1673ffffffffffffffffffffffffffffffffffffffff1673ffffffffffffffffffffffffffffffffffffffff168152602001908152602001600020819055508160000160008260000160009054906101000a900473ffffffffffffffffffffffffffffffffffffffff1673ffffffffffffffffffffffffffffffffffffffff1673ffffffffffffffffffffffffffffffffffffffff16815260200190815260200160002083908060018154018082558091505060019003906000526020600020016000909190919091505584600560008360000160009054906101000a900473ffffffffffffffffffffffffffffffffffffffff1673ffffffffffffffffffffffffffffffffffffffff1673ffffffffffffffffffffffffffffffffffffffff168152602001908152602001600020600085815260200190815260200160002060006101000a81548173ffffffffffffffffffffffffffffffffffffffff021916908373ffffffffffffffffffffffffffffffffffffffff1602179055505050505050565b61167d81611678611760565b611ab0565b50565b61168a8282610d64565b61175c57600180600084815260200190815260200160002060000160008373ffffffffffffffffffffffffffffffffffffffff1673ffffffffffffffffffffffffffffffffffffffff16815260200190815260200160002060006101000a81548160ff021916908315150217905550611701611760565b73ffffffffffffffffffffffffffffffffffffffff168173ffffffffffffffffffffffffffffffffffffffff16837f2f8788117e7eff1d82e926ec794901d17c78024a50270940304540a733656f0d60405160405180910390a45b5050565b600033905090565b6117728282610d64565b156118465760006001600084815260200190815260200160002060000160008373ffffffffffffffffffffffffffffffffffffffff1673ffffffffffffffffffffffffffffffffffffffff16815260200190815260200160002060006101000a81548160ff0219169083151502179055506117eb611760565b73ffffffffffffffffffffffffffffffffffffffff168173ffffffffffffffffffffffffffffffffffffffff16837ff6391f5c32d9c69d2a47ea670b442974b53935d1edc7fd64eb21e047a839171b60405160405180910390a45b5050565b6118548282611680565b5050565b6000818361186691906128ab565b905092915050565b6000818361187c91906128dc565b905092915050565b60008060009054906101000a900473ffffffffffffffffffffffffffffffffffffffff169050816000806101000a81548173ffffffffffffffffffffffffffffffffffffffff021916908373ffffffffffffffffffffffffffffffffffffffff1602179055508173ffffffffffffffffffffffffffffffffffffffff168173ffffffffffffffffffffffffffffffffffffffff167f8be0079c531659141344cd1fd0a4f28419497f9722a3daafe3b4186f6b6457e060405160405180910390a35050565b60006119548383610a8e565b9050600360009054906101000a900473ffffffffffffffffffffffffffffffffffffffff1673ffffffffffffffffffffffffffffffffffffffff166340c10f1933836040518363ffffffff1660e01b81526004016119b3929190612585565b600060405180830381600087803b1580156119cd57600080fd5b505af11580156119e1573d6000803e3d6000fd5b50505050505050565b60005b8280549050811015611aab5781838281548110611a0d57611a0c6124df565b5b906000526020600020015403611a98578260018480549050611a2f9190612651565b81548110611a4057611a3f6124df565b5b9060005260206000200154838281548110611a5e57611a5d6124df565b5b906000526020600020018190555082805480611a7d57611a7c612936565b5b60019003818190600052602060002001600090559055611aab565b8080611aa39061253d565b9150506119ed565b505050565b611aba8282610d64565b611b4957611adf8173ffffffffffffffffffffffffffffffffffffffff166014611b4d565b611aed8360001c6020611b4d565b604051602001611afe929190612a77565b6040516020818303038152906040526040517f08c379a0000000000000000000000000000000000000000000000000000000008152600401611b409190612aea565b60405180910390fd5b5050565b606060006002836002611b6091906128dc565b611b6a9190612826565b67ffffffffffffffff811115611b8357611b82611de9565b5b6040519080825280601f01601f191660200182016040528015611bb55781602001600182028036833780820191505090505b5090507f300000000000000000000000000000000000000000000000000000000000000081600081518110611bed57611bec6124df565b5b60200101907effffffffffffffffffffffffffffffffffffffffffffffffffffffffffffff1916908160001a9053507f780000000000000000000000000000000000000000000000000000000000000081600181518110611c5157611c506124df565b5b60200101907effffffffffffffffffffffffffffffffffffffffffffffffffffffffffffff1916908160001a90535060006001846002611c9191906128dc565b611c9b9190612826565b90505b6001811115611d3b577f3031323334353637383961626364656600000000000000000000000000000000600f861660108110611cdd57611cdc6124df565b5b1a60f81b828281518110611cf457611cf36124df565b5b60200101907effffffffffffffffffffffffffffffffffffffffffffffffffffffffffffff1916908160001a905350600485901c945080611d3490612b0c565b9050611c9e565b5060008414611d7f576040517f08c379a0000000000000000000000000000000000000000000000000000000008152600401611d7690612b81565b60405180910390fd5b8091505092915050565b6000604051905090565b600080fd5b600080fd5b6000819050919050565b611db081611d9d565b8114611dbb57600080fd5b50565b600081359050611dcd81611da7565b92915050565b600080fd5b6000601f19601f8301169050919050565b7f4e487b7100000000000000000000000000000000000000000000000000000000600052604160045260246000fd5b611e2182611dd8565b810181811067ffffffffffffffff82111715611e4057611e3f611de9565b5b80604052505050565b6000611e53611d89565b9050611e5f8282611e18565b919050565b600067ffffffffffffffff821115611e7f57611e7e611de9565b5b602082029050602081019050919050565b600080fd5b6000611ea8611ea384611e64565b611e49565b90508083825260208201905060208402830185811115611ecb57611eca611e90565b5b835b81811015611ef45780611ee08882611dbe565b845260208401935050602081019050611ecd565b5050509392505050565b600082601f830112611f1357611f12611dd3565b5b8135611f23848260208601611e95565b91505092915050565b60008060408385031215611f4357611f42611d93565b5b6000611f5185828601611dbe565b925050602083013567ffffffffffffffff811115611f7257611f71611d98565b5b611f7e85828601611efe565b9150509250929050565b60007fffffffff0000000000000000000000000000000000000000000000000000000082169050919050565b611fbd81611f88565b8114611fc857600080fd5b50565b600081359050611fda81611fb4565b92915050565b600060208284031215611ff657611ff5611d93565b5b600061200484828501611fcb565b91505092915050565b60008115159050919050565b6120228161200d565b82525050565b600060208201905061203d6000830184612019565b92915050565b60006020828403121561205957612058611d93565b5b600061206784828501611dbe565b91505092915050565b600073ffffffffffffffffffffffffffffffffffffffff82169050919050565b600061209b82612070565b9050919050565b6120ab81612090565b82525050565b6120ba81611d9d565b82525050565b60006060820190506120d560008301866120a2565b6120e260208301856120b1565b6120ef60408301846120b1565b949350505050565b61210081612090565b811461210b57600080fd5b50565b60008135905061211d816120f7565b92915050565b6000806040838503121561213a57612139611d93565b5b60006121488582860161210e565b92505060206121598582860161210e565b9150509250929050565b600081519050919050565b600082825260208201905092915050565b6000819050602082019050919050565b61219881611d9d565b82525050565b60006121aa838361218f565b60208301905092915050565b6000602082019050919050565b60006121ce82612163565b6121d8818561216e565b93506121e38361217f565b8060005b838110156122145781516121fb888261219e565b9750612206836121b6565b9250506001810190506121e7565b5085935050505092915050565b6000606082019050818103600083015261223b81866121c3565b905061224a60208301856120b1565b61225760408301846120b1565b949350505050565b60006020828403121561227557612274611d93565b5b60006122838482850161210e565b91505092915050565b60006020820190506122a160008301846120b1565b92915050565b6000819050919050565b6122ba816122a7565b81146122c557600080fd5b50565b6000813590506122d7816122b1565b92915050565b6000602082840312156122f3576122f2611d93565b5b6000612301848285016122c8565b91505092915050565b612313816122a7565b82525050565b600060208201905061232e600083018461230a565b92915050565b6000806040838503121561234b5761234a611d93565b5b60006123598582860161210e565b925050602061236a85828601611dbe565b9150509250929050565b6000806040838503121561238b5761238a611d93565b5b6000612399858286016122c8565b92505060206123aa8582860161210e565b9150509250929050565b600080604083850312156123cb576123ca611d93565b5b60006123d985828601611dbe565b92505060206123ea85828601611dbe565b9150509250929050565b60008060006060848603121561240d5761240c611d93565b5b600061241b86828701611dbe565b935050602061242c8682870161210e565b925050604061243d86828701611dbe565b9150509250925092565b600060208201905061245c60008301846120a2565b92915050565b60008060006060848603121561247b5761247a611d93565b5b60006124898682870161210e565b935050602061249a8682870161210e565b92505060406124ab86828701611dbe565b9150509250925092565b6124be81611f88565b82525050565b60006020820190506124d960008301846124b5565b92915050565b7f4e487b7100000000000000000000000000000000000000000000000000000000600052603260045260246000fd5b7f4e487b7100000000000000000000000000000000000000000000000000000000600052601160045260246000fd5b600061254882611d9d565b91507fffffffffffffffffffffffffffffffffffffffffffffffffffffffffffffffff820361257a5761257961250e565b5b600182019050919050565b600060408201905061259a60008301856120a2565b6125a760208301846120b1565b9392505050565b600082825260208201905092915050565b7f416363657373436f6e74726f6c3a2063616e206f6e6c792072656e6f756e636560008201527f20726f6c657320666f722073656c660000000000000000000000000000000000602082015250565b600061261b602f836125ae565b9150612626826125bf565b604082019050919050565b6000602082019050818103600083015261264a8161260e565b9050919050565b600061265c82611d9d565b915061266783611d9d565b92508282101561267a5761267961250e565b5b828203905092915050565b7f4f776e61626c653a2063616c6c6572206973206e6f7420746865206f776e6572600082015250565b60006126bb6020836125ae565b91506126c682612685565b602082019050919050565b600060208201905081810360008301526126ea816126ae565b9050919050565b7f4f776e61626c653a206e6577206f776e657220697320746865207a65726f206160008201527f6464726573730000000000000000000000000000000000000000000000000000602082015250565b600061274d6026836125ae565b9150612758826126f1565b604082019050919050565b6000602082019050818103600083015261277c81612740565b9050919050565b7f73656e64657220646f65736e2774206f776e73207468697320746f6b656e0000600082015250565b60006127b9601e836125ae565b91506127c482612783565b602082019050919050565b600060208201905081810360008301526127e8816127ac565b9050919050565b600060608201905061280460008301866120a2565b61281160208301856120a2565b61281e60408301846120b1565b949350505050565b600061283182611d9d565b915061283c83611d9d565b9250827fffffffffffffffffffffffffffffffffffffffffffffffffffffffffffffffff038211156128715761287061250e565b5b828201905092915050565b7f4e487b7100000000000000000000000000000000000000000000000000000000600052601260045260246000fd5b60006128b682611d9d565b91506128c183611d9d565b9250826128d1576128d061287c565b5b828204905092915050565b60006128e782611d9d565b91506128f283611d9d565b9250817fffffffffffffffffffffffffffffffffffffffffffffffffffffffffffffffff048311821515161561292b5761292a61250e565b5b828202905092915050565b7f4e487b7100000000000000000000000000000000000000000000000000000000600052603160045260246000fd5b600081905092915050565b7f416363657373436f6e74726f6c3a206163636f756e7420000000000000000000600082015250565b60006129a6601783612965565b91506129b182612970565b601782019050919050565b600081519050919050565b60005b838110156129e55780820151818401526020810190506129ca565b838111156129f4576000848401525b50505050565b6000612a05826129bc565b612a0f8185612965565b9350612a1f8185602086016129c7565b80840191505092915050565b7f206973206d697373696e6720726f6c6520000000000000000000000000000000600082015250565b6000612a61601183612965565b9150612a6c82612a2b565b601182019050919050565b6000612a8282612999565b9150612a8e82856129fa565b9150612a9982612a54565b9150612aa582846129fa565b91508190509392505050565b6000612abc826129bc565b612ac681856125ae565b9350612ad68185602086016129c7565b612adf81611dd8565b840191505092915050565b60006020820190508181036000830152612b048184612ab1565b905092915050565b6000612b1782611d9d565b915060008203612b2a57612b2961250e565b5b600182039050919050565b7f537472696e67733a20686578206c656e67746820696e73756666696369656e74600082015250565b6000612b6b6020836125ae565b9150612b7682612b35565b602082019050919050565b60006020820190508181036000830152612b9a81612b5e565b905091905056fea26469706673582212209112e82e5f3789dc07a75ce7cb2386aa69460e8e39e7b828259c365de851909e64736f6c634300080d0033",
  "linkReferences": {},
  "deployedLinkReferences": {}
}