{
  "_format": "hh-sol-artifact-1",
  "contractName": "CyberlionStaking",
  "sourceName": "contracts/CLstaking.sol",
  "abi": [
    {
      "inputs": [
        {
          "internalType": "contract Mintable",
          "name": "_rewardsToken",
          "type": "address"
        }
      ],
      "stateMutability": "nonpayable",
      "type": "constructor"
    },
    {
      "anonymous": false,
      "inputs": [
        {
          "indexed": true,
          "internalType": "address",
          "name": "previousOwner",
          "type": "address"
        },
        {
          "indexed": true,
          "internalType": "address",
          "name": "newOwner",
          "type": "address"
        }
      ],
      "name": "OwnershipTransferred",
      "type": "event"
    },
    {
      "inputs": [
        {
          "internalType": "uint256",
          "name": "_cid",
          "type": "uint256"
        },
        {
          "internalType": "uint256[]",
          "name": "_ids",
          "type": "uint256[]"
        }
      ],
      "name": "batchStake",
      "outputs": [],
      "stateMutability": "nonpayable",
      "type": "function"
    },
    {
      "inputs": [
        {
          "internalType": "uint256",
          "name": "_cid",
          "type": "uint256"
        },
        {
          "internalType": "uint256[]",
          "name": "_ids",
          "type": "uint256[]"
        }
      ],
      "name": "batchUnstake",
      "outputs": [],
      "stateMutability": "nonpayable",
      "type": "function"
    },
    {
      "inputs": [
        {
          "internalType": "uint256",
          "name": "",
          "type": "uint256"
        }
      ],
      "name": "collectionInfo",
      "outputs": [
        {
          "internalType": "address",
          "name": "collectionAddress",
          "type": "address"
        },
        {
          "internalType": "uint256",
          "name": "rewardPerDay",
          "type": "uint256"
        },
        {
          "internalType": "uint256",
          "name": "totalAmountStaked",
          "type": "uint256"
        }
      ],
      "stateMutability": "view",
      "type": "function"
    },
    {
      "inputs": [
        {
          "internalType": "uint256",
          "name": "_collectionID",
          "type": "uint256"
        }
      ],
      "name": "getTotalStakedItemsCount",
      "outputs": [
        {
          "internalType": "uint256",
          "name": "",
          "type": "uint256"
        }
      ],
      "stateMutability": "view",
      "type": "function"
    },
    {
      "inputs": [
        {
          "internalType": "address",
          "name": "_userAddress",
          "type": "address"
        },
        {
          "internalType": "address",
          "name": "_collectionAddr",
          "type": "address"
        }
      ],
      "name": "getUserInformation",
      "outputs": [
        {
          "internalType": "uint256[]",
          "name": "",
          "type": "uint256[]"
        },
        {
          "internalType": "uint256",
          "name": "",
          "type": "uint256"
        },
        {
          "internalType": "uint256",
          "name": "",
          "type": "uint256"
        }
      ],
      "stateMutability": "view",
      "type": "function"
    },
    {
      "inputs": [
        {
          "internalType": "address",
          "name": "",
          "type": "address"
        },
        {
          "internalType": "address",
          "name": "",
          "type": "address"
        },
        {
          "internalType": "uint256",
          "name": "",
          "type": "uint256"
        },
        {
          "internalType": "bytes",
          "name": "data",
          "type": "bytes"
        }
      ],
      "name": "onERC721Received",
      "outputs": [
        {
          "internalType": "bytes4",
          "name": "",
          "type": "bytes4"
        }
      ],
      "stateMutability": "nonpayable",
      "type": "function"
    },
    {
      "inputs": [],
      "name": "owner",
      "outputs": [
        {
          "internalType": "address",
          "name": "",
          "type": "address"
        }
      ],
      "stateMutability": "view",
      "type": "function"
    },
    {
      "inputs": [],
      "name": "renounceOwnership",
      "outputs": [],
      "stateMutability": "nonpayable",
      "type": "function"
    },
    {
      "inputs": [
        {
          "internalType": "address",
          "name": "_collectionAddress",
          "type": "address"
        },
        {
          "internalType": "uint256",
          "name": "_rewardPerDay",
          "type": "uint256"
        }
      ],
      "name": "setCollection",
      "outputs": [],
      "stateMutability": "nonpayable",
      "type": "function"
    },
    {
      "inputs": [
        {
          "internalType": "uint256",
          "name": "_collectionID",
          "type": "uint256"
        },
        {
          "internalType": "uint256",
          "name": "_tokenID",
          "type": "uint256"
        }
      ],
      "name": "stake",
      "outputs": [],
      "stateMutability": "nonpayable",
      "type": "function"
    },
    {
      "inputs": [
        {
          "internalType": "address",
          "name": "",
          "type": "address"
        },
        {
          "internalType": "uint256",
          "name": "",
          "type": "uint256"
        }
      ],
      "name": "tokenOwners",
      "outputs": [
        {
          "internalType": "address",
          "name": "",
          "type": "address"
        }
      ],
      "stateMutability": "view",
      "type": "function"
    },
    {
      "inputs": [
        {
          "internalType": "address",
          "name": "newOwner",
          "type": "address"
        }
      ],
      "name": "transferOwnership",
      "outputs": [],
      "stateMutability": "nonpayable",
      "type": "function"
    },
    {
      "inputs": [
        {
          "internalType": "uint256",
          "name": "_collectionID",
          "type": "uint256"
        },
        {
          "internalType": "uint256",
          "name": "_tokenID",
          "type": "uint256"
        }
      ],
      "name": "unstake",
      "outputs": [],
      "stateMutability": "nonpayable",
      "type": "function"
    },
    {
      "inputs": [
        {
          "internalType": "uint256",
          "name": "_collectionID",
          "type": "uint256"
        },
        {
          "internalType": "address",
          "name": "_collectionAddress",
          "type": "address"
        },
        {
          "internalType": "uint256",
          "name": "_rewardPerDay",
          "type": "uint256"
        }
      ],
      "name": "updateCollection",
      "outputs": [],
      "stateMutability": "nonpayable",
      "type": "function"
    },
    {
      "inputs": [
        {
          "internalType": "address",
          "name": "",
          "type": "address"
        }
      ],
      "name": "userInfo",
      "outputs": [
        {
          "internalType": "uint256",
          "name": "amountStaked",
          "type": "uint256"
        }
      ],
      "stateMutability": "view",
      "type": "function"
    }
  ],
  "bytecode": "0x60806040523480156200001157600080fd5b5060405162001d5d38038062001d5d8339818101604052810190620000379190620001e9565b620000576200004b6200009f60201b60201c565b620000a760201b60201c565b80600160006101000a81548173ffffffffffffffffffffffffffffffffffffffff021916908373ffffffffffffffffffffffffffffffffffffffff160217905550506200021b565b600033905090565b60008060009054906101000a900473ffffffffffffffffffffffffffffffffffffffff169050816000806101000a81548173ffffffffffffffffffffffffffffffffffffffff021916908373ffffffffffffffffffffffffffffffffffffffff1602179055508173ffffffffffffffffffffffffffffffffffffffff168173ffffffffffffffffffffffffffffffffffffffff167f8be0079c531659141344cd1fd0a4f28419497f9722a3daafe3b4186f6b6457e060405160405180910390a35050565b600080fd5b600073ffffffffffffffffffffffffffffffffffffffff82169050919050565b60006200019d8262000170565b9050919050565b6000620001b18262000190565b9050919050565b620001c381620001a4565b8114620001cf57600080fd5b50565b600081519050620001e381620001b8565b92915050565b6000602082840312156200020257620002016200016b565b5b60006200021284828501620001d2565b91505092915050565b611b32806200022b6000396000f3fe608060405234801561001057600080fd5b50600436106100f45760003560e01c8063715018a6116100975780638b5e51d2116100665780638b5e51d2146102835780638da5cb5b146102b35780639e2c8a5b146102d1578063f2fde38b146102ed576100f4565b8063715018a6146102115780637b0472f01461021b5780637b71e5db14610237578063842dd90a14610253576100f4565b8063173fe449116100d3578063173fe449146101775780631959a002146101a95780631bbda52b146101d95780632edb531c146101f5576100f4565b80628afd4e146100f95780630fb4d2e514610115578063150b7a0214610147575b600080fd5b610113600480360381019061010e91906112f4565b610309565b005b61012f600480360381019061012a9190611350565b610350565b60405161013e939291906113cd565b60405180910390f35b610161600480360381019061015c919061148b565b6103aa565b60405161016e919061154e565b60405180910390f35b610191600480360381019061018c9190611569565b6103bf565b6040516101a093929190611667565b60405180910390f35b6101c360048036038101906101be91906116a5565b610565565b6040516101d091906116d2565b60405180910390f35b6101f360048036038101906101ee91906112f4565b610583565b005b61020f600480360381019061020a91906116ed565b6105ca565b005b610219610688565b005b6102356004803603810190610230919061172d565b610710565b005b610251600480360381019061024c919061176d565b61071f565b005b61026d60048036038101906102689190611350565b610797565b60405161027a91906116d2565b60405180910390f35b61029d600480360381019061029891906116ed565b6107cb565b6040516102aa91906117c0565b60405180910390f35b6102bb61080d565b6040516102c891906117c0565b60405180910390f35b6102eb60048036038101906102e6919061172d565b610836565b005b610307600480360381019061030291906116a5565b610845565b005b60005b815181101561034b5761033a338484848151811061032d5761032c6117db565b5b602002602001015161093c565b8061034490611839565b905061030c565b505050565b6004818154811061036057600080fd5b90600052602060002090600302016000915090508060000160009054906101000a900473ffffffffffffffffffffffffffffffffffffffff16908060010154908060020154905083565b600063150b7a0260e01b905095945050505050565b6060600080600260008673ffffffffffffffffffffffffffffffffffffffff1673ffffffffffffffffffffffffffffffffffffffff16815260200190815260200160002060000160008573ffffffffffffffffffffffffffffffffffffffff1673ffffffffffffffffffffffffffffffffffffffff168152602001908152602001600020600260008773ffffffffffffffffffffffffffffffffffffffff1673ffffffffffffffffffffffffffffffffffffffff16815260200190815260200160002060010160008673ffffffffffffffffffffffffffffffffffffffff1673ffffffffffffffffffffffffffffffffffffffff16815260200190815260200160002054600260008873ffffffffffffffffffffffffffffffffffffffff1673ffffffffffffffffffffffffffffffffffffffff168152602001908152602001600020600201548280548060200260200160405190810160405280929190818152602001828054801561055157602002820191906000526020600020905b81548152602001906001019080831161053d575b505050505092509250925092509250925092565b60026020528060005260406000206000915090508060020154905081565b60005b81518110156105c5576105b433848484815181106105a7576105a66117db565b5b6020026020010151610da1565b806105be90611839565b9050610586565b505050565b600460405180606001604052808473ffffffffffffffffffffffffffffffffffffffff1681526020018381526020016000815250908060018154018082558091505060019003906000526020600020906003020160009091909190915060008201518160000160006101000a81548173ffffffffffffffffffffffffffffffffffffffff021916908373ffffffffffffffffffffffffffffffffffffffff160217905550602082015181600101556040820151816002015550505050565b610690611085565b73ffffffffffffffffffffffffffffffffffffffff166106ae61080d565b73ffffffffffffffffffffffffffffffffffffffff1614610704576040517f08c379a00000000000000000000000000000000000000000000000000000000081526004016106fb906118de565b60405180910390fd5b61070e600061108d565b565b61071b338383610da1565b5050565b600060048481548110610735576107346117db565b5b90600052602060002090600302019050828160000160006101000a81548173ffffffffffffffffffffffffffffffffffffffff021916908373ffffffffffffffffffffffffffffffffffffffff16021790555081816001018190555050505050565b600080600483815481106107ae576107ad6117db565b5b906000526020600020906003020190508060020154915050919050565b60036020528160005260406000206020528060005260406000206000915091509054906101000a900473ffffffffffffffffffffffffffffffffffffffff1681565b60008060009054906101000a900473ffffffffffffffffffffffffffffffffffffffff16905090565b61084133838361093c565b5050565b61084d611085565b73ffffffffffffffffffffffffffffffffffffffff1661086b61080d565b73ffffffffffffffffffffffffffffffffffffffff16146108c1576040517f08c379a00000000000000000000000000000000000000000000000000000000081526004016108b8906118de565b60405180910390fd5b600073ffffffffffffffffffffffffffffffffffffffff168173ffffffffffffffffffffffffffffffffffffffff1603610930576040517f08c379a000000000000000000000000000000000000000000000000000000000815260040161092790611970565b60405180910390fd5b6109398161108d565b50565b6000600260008573ffffffffffffffffffffffffffffffffffffffff1673ffffffffffffffffffffffffffffffffffffffff1681526020019081526020016000209050600060048481548110610995576109946117db565b5b906000526020600020906003020190508473ffffffffffffffffffffffffffffffffffffffff16600360008360000160009054906101000a900473ffffffffffffffffffffffffffffffffffffffff1673ffffffffffffffffffffffffffffffffffffffff1673ffffffffffffffffffffffffffffffffffffffff168152602001908152602001600020600085815260200190815260200160002060009054906101000a900473ffffffffffffffffffffffffffffffffffffffff1673ffffffffffffffffffffffffffffffffffffffff1614610aa7576040517f08c379a0000000000000000000000000000000000000000000000000000000008152600401610a9e906119dc565b60405180910390fd5b8160000160008260000160009054906101000a900473ffffffffffffffffffffffffffffffffffffffff1673ffffffffffffffffffffffffffffffffffffffff1673ffffffffffffffffffffffffffffffffffffffff16815260200190815260200160002073__$7f37c9a29f30c6653170c3248a61374303$__6317dc59fa9091856040518363ffffffff1660e01b8152600401610b46929190611a12565b60006040518083038186803b158015610b5e57600080fd5b505af4158015610b72573d6000803e3d6000fd5b50505050600360008260000160009054906101000a900473ffffffffffffffffffffffffffffffffffffffff1673ffffffffffffffffffffffffffffffffffffffff1673ffffffffffffffffffffffffffffffffffffffff168152602001908152602001600020600084815260200190815260200160002060006101000a81549073ffffffffffffffffffffffffffffffffffffffff0219169055428260010160008360000160009054906101000a900473ffffffffffffffffffffffffffffffffffffffff1673ffffffffffffffffffffffffffffffffffffffff1673ffffffffffffffffffffffffffffffffffffffff168152602001908152602001600020819055506001826002016000828254610c8c9190611a3b565b925050819055506001816002016000828254610ca89190611a3b565b925050819055506000826002015403610d0757600260008673ffffffffffffffffffffffffffffffffffffffff1673ffffffffffffffffffffffffffffffffffffffff1681526020019081526020016000206000600282016000905550505b8060000160009054906101000a900473ffffffffffffffffffffffffffffffffffffffff1673ffffffffffffffffffffffffffffffffffffffff166323b872dd3087866040518463ffffffff1660e01b8152600401610d6893929190611a6f565b600060405180830381600087803b158015610d8257600080fd5b505af1158015610d96573d6000803e3d6000fd5b505050505050505050565b6000600260008573ffffffffffffffffffffffffffffffffffffffff1673ffffffffffffffffffffffffffffffffffffffff1681526020019081526020016000209050600060048481548110610dfa57610df96117db565b5b906000526020600020906003020190508060000160009054906101000a900473ffffffffffffffffffffffffffffffffffffffff1673ffffffffffffffffffffffffffffffffffffffff166323b872dd8630866040518463ffffffff1660e01b8152600401610e6b93929190611a6f565b600060405180830381600087803b158015610e8557600080fd5b505af1158015610e99573d6000803e3d6000fd5b505050506001826002016000828254610eb29190611aa6565b925050819055506001816002016000828254610ece9190611aa6565b92505081905550428260010160008360000160009054906101000a900473ffffffffffffffffffffffffffffffffffffffff1673ffffffffffffffffffffffffffffffffffffffff1673ffffffffffffffffffffffffffffffffffffffff168152602001908152602001600020819055508160000160008260000160009054906101000a900473ffffffffffffffffffffffffffffffffffffffff1673ffffffffffffffffffffffffffffffffffffffff1673ffffffffffffffffffffffffffffffffffffffff16815260200190815260200160002083908060018154018082558091505060019003906000526020600020016000909190919091505584600360008360000160009054906101000a900473ffffffffffffffffffffffffffffffffffffffff1673ffffffffffffffffffffffffffffffffffffffff1673ffffffffffffffffffffffffffffffffffffffff168152602001908152602001600020600085815260200190815260200160002060006101000a81548173ffffffffffffffffffffffffffffffffffffffff021916908373ffffffffffffffffffffffffffffffffffffffff1602179055505050505050565b600033905090565b60008060009054906101000a900473ffffffffffffffffffffffffffffffffffffffff169050816000806101000a81548173ffffffffffffffffffffffffffffffffffffffff021916908373ffffffffffffffffffffffffffffffffffffffff1602179055508173ffffffffffffffffffffffffffffffffffffffff168173ffffffffffffffffffffffffffffffffffffffff167f8be0079c531659141344cd1fd0a4f28419497f9722a3daafe3b4186f6b6457e060405160405180910390a35050565b6000604051905090565b600080fd5b600080fd5b6000819050919050565b61117881611165565b811461118357600080fd5b50565b6000813590506111958161116f565b92915050565b600080fd5b6000601f19601f8301169050919050565b7f4e487b7100000000000000000000000000000000000000000000000000000000600052604160045260246000fd5b6111e9826111a0565b810181811067ffffffffffffffff82111715611208576112076111b1565b5b80604052505050565b600061121b611151565b905061122782826111e0565b919050565b600067ffffffffffffffff821115611247576112466111b1565b5b602082029050602081019050919050565b600080fd5b600061127061126b8461122c565b611211565b9050808382526020820190506020840283018581111561129357611292611258565b5b835b818110156112bc57806112a88882611186565b845260208401935050602081019050611295565b5050509392505050565b600082601f8301126112db576112da61119b565b5b81356112eb84826020860161125d565b91505092915050565b6000806040838503121561130b5761130a61115b565b5b600061131985828601611186565b925050602083013567ffffffffffffffff81111561133a57611339611160565b5b611346858286016112c6565b9150509250929050565b6000602082840312156113665761136561115b565b5b600061137484828501611186565b91505092915050565b600073ffffffffffffffffffffffffffffffffffffffff82169050919050565b60006113a88261137d565b9050919050565b6113b88161139d565b82525050565b6113c781611165565b82525050565b60006060820190506113e260008301866113af565b6113ef60208301856113be565b6113fc60408301846113be565b949350505050565b61140d8161139d565b811461141857600080fd5b50565b60008135905061142a81611404565b92915050565b600080fd5b60008083601f84011261144b5761144a61119b565b5b8235905067ffffffffffffffff81111561146857611467611430565b5b60208301915083600182028301111561148457611483611258565b5b9250929050565b6000806000806000608086880312156114a7576114a661115b565b5b60006114b58882890161141b565b95505060206114c68882890161141b565b94505060406114d788828901611186565b935050606086013567ffffffffffffffff8111156114f8576114f7611160565b5b61150488828901611435565b92509250509295509295909350565b60007fffffffff0000000000000000000000000000000000000000000000000000000082169050919050565b61154881611513565b82525050565b6000602082019050611563600083018461153f565b92915050565b600080604083850312156115805761157f61115b565b5b600061158e8582860161141b565b925050602061159f8582860161141b565b9150509250929050565b600081519050919050565b600082825260208201905092915050565b6000819050602082019050919050565b6115de81611165565b82525050565b60006115f083836115d5565b60208301905092915050565b6000602082019050919050565b6000611614826115a9565b61161e81856115b4565b9350611629836115c5565b8060005b8381101561165a57815161164188826115e4565b975061164c836115fc565b92505060018101905061162d565b5085935050505092915050565b600060608201905081810360008301526116818186611609565b905061169060208301856113be565b61169d60408301846113be565b949350505050565b6000602082840312156116bb576116ba61115b565b5b60006116c98482850161141b565b91505092915050565b60006020820190506116e760008301846113be565b92915050565b600080604083850312156117045761170361115b565b5b60006117128582860161141b565b925050602061172385828601611186565b9150509250929050565b600080604083850312156117445761174361115b565b5b600061175285828601611186565b925050602061176385828601611186565b9150509250929050565b6000806000606084860312156117865761178561115b565b5b600061179486828701611186565b93505060206117a58682870161141b565b92505060406117b686828701611186565b9150509250925092565b60006020820190506117d560008301846113af565b92915050565b7f4e487b7100000000000000000000000000000000000000000000000000000000600052603260045260246000fd5b7f4e487b7100000000000000000000000000000000000000000000000000000000600052601160045260246000fd5b600061184482611165565b91507fffffffffffffffffffffffffffffffffffffffffffffffffffffffffffffffff82036118765761187561180a565b5b600182019050919050565b600082825260208201905092915050565b7f4f776e61626c653a2063616c6c6572206973206e6f7420746865206f776e6572600082015250565b60006118c8602083611881565b91506118d382611892565b602082019050919050565b600060208201905081810360008301526118f7816118bb565b9050919050565b7f4f776e61626c653a206e6577206f776e657220697320746865207a65726f206160008201527f6464726573730000000000000000000000000000000000000000000000000000602082015250565b600061195a602683611881565b9150611965826118fe565b604082019050919050565b600060208201905081810360008301526119898161194d565b9050919050565b7f73656e64657220646f65736e2774206f776e73207468697320746f6b656e0000600082015250565b60006119c6601e83611881565b91506119d182611990565b602082019050919050565b600060208201905081810360008301526119f5816119b9565b9050919050565b8082525050565b611a0c81611165565b82525050565b6000604082019050611a2760008301856119fc565b611a346020830184611a03565b9392505050565b6000611a4682611165565b9150611a5183611165565b925082821015611a6457611a6361180a565b5b828203905092915050565b6000606082019050611a8460008301866113af565b611a9160208301856113af565b611a9e60408301846113be565b949350505050565b6000611ab182611165565b9150611abc83611165565b9250827fffffffffffffffffffffffffffffffffffffffffffffffffffffffffffffffff03821115611af157611af061180a565b5b82820190509291505056fea2646970667358221220bd9a66b0c708e101cae87af887c4727ccc09035e5e2ca787a5870a03f4750bdb64736f6c634300080d0033",
  "linkReferences": {
    "contracts/libs/Array.sol": {
      "Array": [
        {
          "length": 20,
          "start": 3385
        }
      ]
    }
  },
  "deployedLinkReferences": {
    "contracts/libs/Array.sol": {
      "Array": [
        {
          "length": 20,
          "start": 2830
        }
      ]
    }
  }
}