{
  "_format": "hh-sol-artifact-1",
  "contractName": "CyberlionStaking",
  "sourceName": "contracts/CLstaking.sol",
  "abi": [
    {
      "inputs": [
        {
          "internalType": "contract IERC20",
          "name": "_rewardsToken",
          "type": "address"
        }
      ],
      "stateMutability": "nonpayable",
      "type": "constructor"
    },
    {
      "anonymous": false,
      "inputs": [
        {
          "indexed": true,
          "internalType": "address",
          "name": "previousOwner",
          "type": "address"
        },
        {
          "indexed": true,
          "internalType": "address",
          "name": "newOwner",
          "type": "address"
        }
      ],
      "name": "OwnershipTransferred",
      "type": "event"
    },
    {
      "inputs": [
        {
          "internalType": "uint256",
          "name": "_cid",
          "type": "uint256"
        },
        {
          "internalType": "uint256[]",
          "name": "_ids",
          "type": "uint256[]"
        }
      ],
      "name": "batchStake",
      "outputs": [],
      "stateMutability": "nonpayable",
      "type": "function"
    },
    {
      "inputs": [
        {
          "internalType": "uint256",
          "name": "_cid",
          "type": "uint256"
        },
        {
          "internalType": "uint256[]",
          "name": "_ids",
          "type": "uint256[]"
        }
      ],
      "name": "batchUnstake",
      "outputs": [],
      "stateMutability": "nonpayable",
      "type": "function"
    },
    {
      "inputs": [
        {
          "internalType": "uint256",
          "name": "",
          "type": "uint256"
        }
      ],
      "name": "collectionInfo",
      "outputs": [
        {
          "internalType": "address",
          "name": "collectionAddress",
          "type": "address"
        },
        {
          "internalType": "uint256",
          "name": "rewardPerDay",
          "type": "uint256"
        },
        {
          "internalType": "uint256",
          "name": "totalAmountStaked",
          "type": "uint256"
        }
      ],
      "stateMutability": "view",
      "type": "function"
    },
    {
      "inputs": [
        {
          "internalType": "uint256",
          "name": "_collectionID",
          "type": "uint256"
        }
      ],
      "name": "getTotalStakedItemsCount",
      "outputs": [
        {
          "internalType": "uint256",
          "name": "",
          "type": "uint256"
        }
      ],
      "stateMutability": "view",
      "type": "function"
    },
    {
      "inputs": [
        {
          "internalType": "address",
          "name": "_userAddress",
          "type": "address"
        },
        {
          "internalType": "address",
          "name": "_collectionAddr",
          "type": "address"
        }
      ],
      "name": "getUserInformation",
      "outputs": [
        {
          "internalType": "uint256[]",
          "name": "",
          "type": "uint256[]"
        },
        {
          "internalType": "uint256",
          "name": "",
          "type": "uint256"
        },
        {
          "internalType": "uint256",
          "name": "",
          "type": "uint256"
        }
      ],
      "stateMutability": "view",
      "type": "function"
    },
    {
      "inputs": [
        {
          "internalType": "address",
          "name": "",
          "type": "address"
        },
        {
          "internalType": "address",
          "name": "",
          "type": "address"
        },
        {
          "internalType": "uint256",
          "name": "",
          "type": "uint256"
        },
        {
          "internalType": "bytes",
          "name": "data",
          "type": "bytes"
        }
      ],
      "name": "onERC721Received",
      "outputs": [
        {
          "internalType": "bytes4",
          "name": "",
          "type": "bytes4"
        }
      ],
      "stateMutability": "nonpayable",
      "type": "function"
    },
    {
      "inputs": [],
      "name": "owner",
      "outputs": [
        {
          "internalType": "address",
          "name": "",
          "type": "address"
        }
      ],
      "stateMutability": "view",
      "type": "function"
    },
    {
      "inputs": [],
      "name": "renounceOwnership",
      "outputs": [],
      "stateMutability": "nonpayable",
      "type": "function"
    },
    {
      "inputs": [],
      "name": "rewardsToken",
      "outputs": [
        {
          "internalType": "contract IERC20",
          "name": "",
          "type": "address"
        }
      ],
      "stateMutability": "view",
      "type": "function"
    },
    {
      "inputs": [
        {
          "internalType": "address",
          "name": "_collectionAddress",
          "type": "address"
        },
        {
          "internalType": "uint256",
          "name": "_rewardPerDay",
          "type": "uint256"
        }
      ],
      "name": "setCollection",
      "outputs": [],
      "stateMutability": "nonpayable",
      "type": "function"
    },
    {
      "inputs": [
        {
          "internalType": "uint256",
          "name": "_collectionID",
          "type": "uint256"
        },
        {
          "internalType": "uint256",
          "name": "_tokenID",
          "type": "uint256"
        }
      ],
      "name": "stake",
      "outputs": [],
      "stateMutability": "nonpayable",
      "type": "function"
    },
    {
      "inputs": [
        {
          "internalType": "address",
          "name": "",
          "type": "address"
        },
        {
          "internalType": "uint256",
          "name": "",
          "type": "uint256"
        }
      ],
      "name": "tokenOwners",
      "outputs": [
        {
          "internalType": "address",
          "name": "",
          "type": "address"
        }
      ],
      "stateMutability": "view",
      "type": "function"
    },
    {
      "inputs": [
        {
          "internalType": "address",
          "name": "newOwner",
          "type": "address"
        }
      ],
      "name": "transferOwnership",
      "outputs": [],
      "stateMutability": "nonpayable",
      "type": "function"
    },
    {
      "inputs": [
        {
          "internalType": "uint256",
          "name": "_collectionID",
          "type": "uint256"
        },
        {
          "internalType": "uint256",
          "name": "_tokenID",
          "type": "uint256"
        }
      ],
      "name": "unstake",
      "outputs": [],
      "stateMutability": "nonpayable",
      "type": "function"
    },
    {
      "inputs": [
        {
          "internalType": "uint256",
          "name": "_collectionID",
          "type": "uint256"
        },
        {
          "internalType": "address",
          "name": "_collectionAddress",
          "type": "address"
        },
        {
          "internalType": "uint256",
          "name": "_rewardPerDay",
          "type": "uint256"
        }
      ],
      "name": "updateCollection",
      "outputs": [],
      "stateMutability": "nonpayable",
      "type": "function"
    },
    {
      "inputs": [
        {
          "internalType": "address",
          "name": "",
          "type": "address"
        }
      ],
      "name": "userInfo",
      "outputs": [
        {
          "internalType": "uint256",
          "name": "amountStaked",
          "type": "uint256"
        }
      ],
      "stateMutability": "view",
      "type": "function"
    }
  ],
  "bytecode": "0x60806040523480156200001157600080fd5b5060405162002250380380620022508339818101604052810190620000379190620001e9565b620000576200004b6200009f60201b60201c565b620000a760201b60201c565b80600160006101000a81548173ffffffffffffffffffffffffffffffffffffffff021916908373ffffffffffffffffffffffffffffffffffffffff160217905550506200021b565b600033905090565b60008060009054906101000a900473ffffffffffffffffffffffffffffffffffffffff169050816000806101000a81548173ffffffffffffffffffffffffffffffffffffffff021916908373ffffffffffffffffffffffffffffffffffffffff1602179055508173ffffffffffffffffffffffffffffffffffffffff168173ffffffffffffffffffffffffffffffffffffffff167f8be0079c531659141344cd1fd0a4f28419497f9722a3daafe3b4186f6b6457e060405160405180910390a35050565b600080fd5b600073ffffffffffffffffffffffffffffffffffffffff82169050919050565b60006200019d8262000170565b9050919050565b6000620001b18262000190565b9050919050565b620001c381620001a4565b8114620001cf57600080fd5b50565b600081519050620001e381620001b8565b92915050565b6000602082840312156200020257620002016200016b565b5b60006200021284828501620001d2565b91505092915050565b612025806200022b6000396000f3fe608060405234801561001057600080fd5b50600436106100ff5760003560e01c80637b0472f0116100975780638da5cb5b116100665780638da5cb5b146102be5780639e2c8a5b146102dc578063d1af0c7d146102f8578063f2fde38b14610316576100ff565b80637b0472f0146102265780637b71e5db14610242578063842dd90a1461025e5780638b5e51d21461028e576100ff565b80631959a002116100d35780631959a002146101b45780631bbda52b146101e45780632edb531c14610200578063715018a61461021c576100ff565b80628afd4e146101045780630fb4d2e514610120578063150b7a0214610152578063173fe44914610182575b600080fd5b61011e60048036038101906101199190611624565b610332565b005b61013a60048036038101906101359190611680565b610379565b604051610149939291906116fd565b60405180910390f35b61016c600480360381019061016791906117bb565b6103d3565b604051610179919061187e565b60405180910390f35b61019c60048036038101906101979190611899565b6103e8565b6040516101ab93929190611997565b60405180910390f35b6101ce60048036038101906101c991906119d5565b61058e565b6040516101db9190611a02565b60405180910390f35b6101fe60048036038101906101f99190611624565b6105ac565b005b61021a60048036038101906102159190611a1d565b6105f3565b005b61022461072d565b005b610240600480360381019061023b9190611a5d565b6107b5565b005b61025c60048036038101906102579190611a9d565b6107c4565b005b61027860048036038101906102739190611680565b6108b8565b6040516102859190611a02565b60405180910390f35b6102a860048036038101906102a39190611a1d565b6108ec565b6040516102b59190611af0565b60405180910390f35b6102c661092e565b6040516102d39190611af0565b60405180910390f35b6102f660048036038101906102f19190611a5d565b610957565b005b610300610966565b60405161030d9190611b6a565b60405180910390f35b610330600480360381019061032b91906119d5565b61098c565b005b60005b815181101561037457610363338484848151811061035657610355611b85565b5b6020026020010151610a84565b8061036d90611be3565b9050610335565b505050565b6004818154811061038957600080fd5b90600052602060002090600302016000915090508060000160009054906101000a900473ffffffffffffffffffffffffffffffffffffffff16908060010154908060020154905083565b600063150b7a0260e01b905095945050505050565b6060600080600260008673ffffffffffffffffffffffffffffffffffffffff1673ffffffffffffffffffffffffffffffffffffffff16815260200190815260200160002060000160008573ffffffffffffffffffffffffffffffffffffffff1673ffffffffffffffffffffffffffffffffffffffff168152602001908152602001600020600260008773ffffffffffffffffffffffffffffffffffffffff1673ffffffffffffffffffffffffffffffffffffffff16815260200190815260200160002060010160008673ffffffffffffffffffffffffffffffffffffffff1673ffffffffffffffffffffffffffffffffffffffff16815260200190815260200160002054600260008873ffffffffffffffffffffffffffffffffffffffff1673ffffffffffffffffffffffffffffffffffffffff168152602001908152602001600020600201548280548060200260200160405190810160405280929190818152602001828054801561057a57602002820191906000526020600020905b815481526020019060010190808311610566575b505050505092509250925092509250925092565b60026020528060005260406000206000915090508060020154905081565b60005b81518110156105ee576105dd33848484815181106105d0576105cf611b85565b5b6020026020010151610ef4565b806105e790611be3565b90506105af565b505050565b6105fb6111d8565b73ffffffffffffffffffffffffffffffffffffffff1661061961092e565b73ffffffffffffffffffffffffffffffffffffffff161461066f576040517f08c379a000000000000000000000000000000000000000000000000000000000815260040161066690611c89565b60405180910390fd5b600460405180606001604052808473ffffffffffffffffffffffffffffffffffffffff1681526020018381526020016000815250908060018154018082558091505060019003906000526020600020906003020160009091909190915060008201518160000160006101000a81548173ffffffffffffffffffffffffffffffffffffffff021916908373ffffffffffffffffffffffffffffffffffffffff160217905550602082015181600101556040820151816002015550505050565b6107356111d8565b73ffffffffffffffffffffffffffffffffffffffff1661075361092e565b73ffffffffffffffffffffffffffffffffffffffff16146107a9576040517f08c379a00000000000000000000000000000000000000000000000000000000081526004016107a090611c89565b60405180910390fd5b6107b360006111e0565b565b6107c0338383610ef4565b5050565b6107cc6111d8565b73ffffffffffffffffffffffffffffffffffffffff166107ea61092e565b73ffffffffffffffffffffffffffffffffffffffff1614610840576040517f08c379a000000000000000000000000000000000000000000000000000000000815260040161083790611c89565b60405180910390fd5b60006004848154811061085657610855611b85565b5b90600052602060002090600302019050828160000160006101000a81548173ffffffffffffffffffffffffffffffffffffffff021916908373ffffffffffffffffffffffffffffffffffffffff16021790555081816001018190555050505050565b600080600483815481106108cf576108ce611b85565b5b906000526020600020906003020190508060020154915050919050565b60036020528160005260406000206020528060005260406000206000915091509054906101000a900473ffffffffffffffffffffffffffffffffffffffff1681565b60008060009054906101000a900473ffffffffffffffffffffffffffffffffffffffff16905090565b610962338383610a84565b5050565b600160009054906101000a900473ffffffffffffffffffffffffffffffffffffffff1681565b6109946111d8565b73ffffffffffffffffffffffffffffffffffffffff166109b261092e565b73ffffffffffffffffffffffffffffffffffffffff1614610a08576040517f08c379a00000000000000000000000000000000000000000000000000000000081526004016109ff90611c89565b60405180910390fd5b600073ffffffffffffffffffffffffffffffffffffffff168173ffffffffffffffffffffffffffffffffffffffff161415610a78576040517f08c379a0000000000000000000000000000000000000000000000000000000008152600401610a6f90611d1b565b60405180910390fd5b610a81816111e0565b50565b6000600260008573ffffffffffffffffffffffffffffffffffffffff1673ffffffffffffffffffffffffffffffffffffffff1681526020019081526020016000209050600060048481548110610add57610adc611b85565b5b906000526020600020906003020190508473ffffffffffffffffffffffffffffffffffffffff16600360008360000160009054906101000a900473ffffffffffffffffffffffffffffffffffffffff1673ffffffffffffffffffffffffffffffffffffffff1673ffffffffffffffffffffffffffffffffffffffff168152602001908152602001600020600085815260200190815260200160002060009054906101000a900473ffffffffffffffffffffffffffffffffffffffff1673ffffffffffffffffffffffffffffffffffffffff1614610bef576040517f08c379a0000000000000000000000000000000000000000000000000000000008152600401610be690611d87565b60405180910390fd5b610bf933856112a4565b8160000160008260000160009054906101000a900473ffffffffffffffffffffffffffffffffffffffff1673ffffffffffffffffffffffffffffffffffffffff1673ffffffffffffffffffffffffffffffffffffffff16815260200190815260200160002073__$7f37c9a29f30c6653170c3248a61374303$__6317dc59fa9091856040518363ffffffff1660e01b8152600401610c98929190611dbd565b60006040518083038186803b158015610cb057600080fd5b505af4158015610cc4573d6000803e3d6000fd5b50505050600360008260000160009054906101000a900473ffffffffffffffffffffffffffffffffffffffff1673ffffffffffffffffffffffffffffffffffffffff1673ffffffffffffffffffffffffffffffffffffffff168152602001908152602001600020600084815260200190815260200160002060006101000a81549073ffffffffffffffffffffffffffffffffffffffff0219169055428260010160008360000160009054906101000a900473ffffffffffffffffffffffffffffffffffffffff1673ffffffffffffffffffffffffffffffffffffffff1673ffffffffffffffffffffffffffffffffffffffff168152602001908152602001600020819055506001826002016000828254610dde9190611de6565b925050819055506001816002016000828254610dfa9190611de6565b92505081905550600082600201541415610e5a57600260008673ffffffffffffffffffffffffffffffffffffffff1673ffffffffffffffffffffffffffffffffffffffff1681526020019081526020016000206000600282016000905550505b8060000160009054906101000a900473ffffffffffffffffffffffffffffffffffffffff1673ffffffffffffffffffffffffffffffffffffffff166323b872dd3087866040518463ffffffff1660e01b8152600401610ebb93929190611e1a565b600060405180830381600087803b158015610ed557600080fd5b505af1158015610ee9573d6000803e3d6000fd5b505050505050505050565b6000600260008573ffffffffffffffffffffffffffffffffffffffff1673ffffffffffffffffffffffffffffffffffffffff1681526020019081526020016000209050600060048481548110610f4d57610f4c611b85565b5b906000526020600020906003020190508060000160009054906101000a900473ffffffffffffffffffffffffffffffffffffffff1673ffffffffffffffffffffffffffffffffffffffff166323b872dd8630866040518463ffffffff1660e01b8152600401610fbe93929190611e1a565b600060405180830381600087803b158015610fd857600080fd5b505af1158015610fec573d6000803e3d6000fd5b5050505060018260020160008282546110059190611e51565b9250508190555060018160020160008282546110219190611e51565b92505081905550428260010160008360000160009054906101000a900473ffffffffffffffffffffffffffffffffffffffff1673ffffffffffffffffffffffffffffffffffffffff1673ffffffffffffffffffffffffffffffffffffffff168152602001908152602001600020819055508160000160008260000160009054906101000a900473ffffffffffffffffffffffffffffffffffffffff1673ffffffffffffffffffffffffffffffffffffffff1673ffffffffffffffffffffffffffffffffffffffff16815260200190815260200160002083908060018154018082558091505060019003906000526020600020016000909190919091505584600360008360000160009054906101000a900473ffffffffffffffffffffffffffffffffffffffff1673ffffffffffffffffffffffffffffffffffffffff1673ffffffffffffffffffffffffffffffffffffffff168152602001908152602001600020600085815260200190815260200160002060006101000a81548173ffffffffffffffffffffffffffffffffffffffff021916908373ffffffffffffffffffffffffffffffffffffffff1602179055505050505050565b600033905090565b60008060009054906101000a900473ffffffffffffffffffffffffffffffffffffffff169050816000806101000a81548173ffffffffffffffffffffffffffffffffffffffff021916908373ffffffffffffffffffffffffffffffffffffffff1602179055508173ffffffffffffffffffffffffffffffffffffffff168173ffffffffffffffffffffffffffffffffffffffff167f8be0079c531659141344cd1fd0a4f28419497f9722a3daafe3b4186f6b6457e060405160405180910390a35050565b6000600260008473ffffffffffffffffffffffffffffffffffffffff1673ffffffffffffffffffffffffffffffffffffffff16815260200190815260200160002090506000600483815481106112fd576112fc611b85565b5b9060005260206000209060030201905060006113ab826001015461139d620151808660010160008760000160009054906101000a900473ffffffffffffffffffffffffffffffffffffffff1673ffffffffffffffffffffffffffffffffffffffff1673ffffffffffffffffffffffffffffffffffffffff168152602001908152602001600020544261138f9190611de6565b61145590919063ffffffff16565b61146b90919063ffffffff16565b9050600160009054906101000a900473ffffffffffffffffffffffffffffffffffffffff1673ffffffffffffffffffffffffffffffffffffffff1663a9059cbb86836040518363ffffffff1660e01b815260040161140a929190611ea7565b6020604051808303816000875af1158015611429573d6000803e3d6000fd5b505050506040513d601f19601f8201168201806040525081019061144d9190611f08565b505050505050565b600081836114639190611f64565b905092915050565b600081836114799190611f95565b905092915050565b6000604051905090565b600080fd5b600080fd5b6000819050919050565b6114a881611495565b81146114b357600080fd5b50565b6000813590506114c58161149f565b92915050565b600080fd5b6000601f19601f8301169050919050565b7f4e487b7100000000000000000000000000000000000000000000000000000000600052604160045260246000fd5b611519826114d0565b810181811067ffffffffffffffff82111715611538576115376114e1565b5b80604052505050565b600061154b611481565b90506115578282611510565b919050565b600067ffffffffffffffff821115611577576115766114e1565b5b602082029050602081019050919050565b600080fd5b60006115a061159b8461155c565b611541565b905080838252602082019050602084028301858111156115c3576115c2611588565b5b835b818110156115ec57806115d888826114b6565b8452602084019350506020810190506115c5565b5050509392505050565b600082601f83011261160b5761160a6114cb565b5b813561161b84826020860161158d565b91505092915050565b6000806040838503121561163b5761163a61148b565b5b6000611649858286016114b6565b925050602083013567ffffffffffffffff81111561166a57611669611490565b5b611676858286016115f6565b9150509250929050565b6000602082840312156116965761169561148b565b5b60006116a4848285016114b6565b91505092915050565b600073ffffffffffffffffffffffffffffffffffffffff82169050919050565b60006116d8826116ad565b9050919050565b6116e8816116cd565b82525050565b6116f781611495565b82525050565b600060608201905061171260008301866116df565b61171f60208301856116ee565b61172c60408301846116ee565b949350505050565b61173d816116cd565b811461174857600080fd5b50565b60008135905061175a81611734565b92915050565b600080fd5b60008083601f84011261177b5761177a6114cb565b5b8235905067ffffffffffffffff81111561179857611797611760565b5b6020830191508360018202830111156117b4576117b3611588565b5b9250929050565b6000806000806000608086880312156117d7576117d661148b565b5b60006117e58882890161174b565b95505060206117f68882890161174b565b9450506040611807888289016114b6565b935050606086013567ffffffffffffffff81111561182857611827611490565b5b61183488828901611765565b92509250509295509295909350565b60007fffffffff0000000000000000000000000000000000000000000000000000000082169050919050565b61187881611843565b82525050565b6000602082019050611893600083018461186f565b92915050565b600080604083850312156118b0576118af61148b565b5b60006118be8582860161174b565b92505060206118cf8582860161174b565b9150509250929050565b600081519050919050565b600082825260208201905092915050565b6000819050602082019050919050565b61190e81611495565b82525050565b60006119208383611905565b60208301905092915050565b6000602082019050919050565b6000611944826118d9565b61194e81856118e4565b9350611959836118f5565b8060005b8381101561198a5781516119718882611914565b975061197c8361192c565b92505060018101905061195d565b5085935050505092915050565b600060608201905081810360008301526119b18186611939565b90506119c060208301856116ee565b6119cd60408301846116ee565b949350505050565b6000602082840312156119eb576119ea61148b565b5b60006119f98482850161174b565b91505092915050565b6000602082019050611a1760008301846116ee565b92915050565b60008060408385031215611a3457611a3361148b565b5b6000611a428582860161174b565b9250506020611a53858286016114b6565b9150509250929050565b60008060408385031215611a7457611a7361148b565b5b6000611a82858286016114b6565b9250506020611a93858286016114b6565b9150509250929050565b600080600060608486031215611ab657611ab561148b565b5b6000611ac4868287016114b6565b9350506020611ad58682870161174b565b9250506040611ae6868287016114b6565b9150509250925092565b6000602082019050611b0560008301846116df565b92915050565b6000819050919050565b6000611b30611b2b611b26846116ad565b611b0b565b6116ad565b9050919050565b6000611b4282611b15565b9050919050565b6000611b5482611b37565b9050919050565b611b6481611b49565b82525050565b6000602082019050611b7f6000830184611b5b565b92915050565b7f4e487b7100000000000000000000000000000000000000000000000000000000600052603260045260246000fd5b7f4e487b7100000000000000000000000000000000000000000000000000000000600052601160045260246000fd5b6000611bee82611495565b91507fffffffffffffffffffffffffffffffffffffffffffffffffffffffffffffffff821415611c2157611c20611bb4565b5b600182019050919050565b600082825260208201905092915050565b7f4f776e61626c653a2063616c6c6572206973206e6f7420746865206f776e6572600082015250565b6000611c73602083611c2c565b9150611c7e82611c3d565b602082019050919050565b60006020820190508181036000830152611ca281611c66565b9050919050565b7f4f776e61626c653a206e6577206f776e657220697320746865207a65726f206160008201527f6464726573730000000000000000000000000000000000000000000000000000602082015250565b6000611d05602683611c2c565b9150611d1082611ca9565b604082019050919050565b60006020820190508181036000830152611d3481611cf8565b9050919050565b7f73656e64657220646f65736e2774206f776e73207468697320746f6b656e0000600082015250565b6000611d71601e83611c2c565b9150611d7c82611d3b565b602082019050919050565b60006020820190508181036000830152611da081611d64565b9050919050565b8082525050565b611db781611495565b82525050565b6000604082019050611dd26000830185611da7565b611ddf6020830184611dae565b9392505050565b6000611df182611495565b9150611dfc83611495565b925082821015611e0f57611e0e611bb4565b5b828203905092915050565b6000606082019050611e2f60008301866116df565b611e3c60208301856116df565b611e4960408301846116ee565b949350505050565b6000611e5c82611495565b9150611e6783611495565b9250827fffffffffffffffffffffffffffffffffffffffffffffffffffffffffffffffff03821115611e9c57611e9b611bb4565b5b828201905092915050565b6000604082019050611ebc60008301856116df565b611ec960208301846116ee565b9392505050565b60008115159050919050565b611ee581611ed0565b8114611ef057600080fd5b50565b600081519050611f0281611edc565b92915050565b600060208284031215611f1e57611f1d61148b565b5b6000611f2c84828501611ef3565b91505092915050565b7f4e487b7100000000000000000000000000000000000000000000000000000000600052601260045260246000fd5b6000611f6f82611495565b9150611f7a83611495565b925082611f8a57611f89611f35565b5b828204905092915050565b6000611fa082611495565b9150611fab83611495565b9250817fffffffffffffffffffffffffffffffffffffffffffffffffffffffffffffffff0483118215151615611fe457611fe3611bb4565b5b82820290509291505056fea2646970667358221220fa94a05a87aaabf078c460db8085806d6aed414773d50768544a522e5c295dbd64736f6c634300080c0033",
  "linkReferences": {
    "contracts/libs/Array.sol": {
      "Array": [
        {
          "length": 20,
          "start": 3723
        }
      ]
    }
  },
  "deployedLinkReferences": {
    "contracts/libs/Array.sol": {
      "Array": [
        {
          "length": 20,
          "start": 3168
        }
      ]
    }
  }
}