{
  "_format": "hh-sol-artifact-1",
  "contractName": "CyberLionzStaking",
  "sourceName": "contracts/CLstaking.sol",
  "abi": [
    {
      "inputs": [
        {
          "internalType": "address",
          "name": "_rewardsToken",
          "type": "address"
        }
      ],
      "stateMutability": "nonpayable",
      "type": "constructor"
    },
    {
      "anonymous": false,
      "inputs": [
        {
          "indexed": true,
          "internalType": "bytes32",
          "name": "role",
          "type": "bytes32"
        },
        {
          "indexed": true,
          "internalType": "bytes32",
          "name": "previousAdminRole",
          "type": "bytes32"
        },
        {
          "indexed": true,
          "internalType": "bytes32",
          "name": "newAdminRole",
          "type": "bytes32"
        }
      ],
      "name": "RoleAdminChanged",
      "type": "event"
    },
    {
      "anonymous": false,
      "inputs": [
        {
          "indexed": true,
          "internalType": "bytes32",
          "name": "role",
          "type": "bytes32"
        },
        {
          "indexed": true,
          "internalType": "address",
          "name": "account",
          "type": "address"
        },
        {
          "indexed": true,
          "internalType": "address",
          "name": "sender",
          "type": "address"
        }
      ],
      "name": "RoleGranted",
      "type": "event"
    },
    {
      "anonymous": false,
      "inputs": [
        {
          "indexed": true,
          "internalType": "bytes32",
          "name": "role",
          "type": "bytes32"
        },
        {
          "indexed": true,
          "internalType": "address",
          "name": "account",
          "type": "address"
        },
        {
          "indexed": true,
          "internalType": "address",
          "name": "sender",
          "type": "address"
        }
      ],
      "name": "RoleRevoked",
      "type": "event"
    },
    {
      "inputs": [],
      "name": "ADMIN_ROLE",
      "outputs": [
        {
          "internalType": "bytes32",
          "name": "",
          "type": "bytes32"
        }
      ],
      "stateMutability": "view",
      "type": "function"
    },
    {
      "inputs": [],
      "name": "DEFAULT_ADMIN_ROLE",
      "outputs": [
        {
          "internalType": "bytes32",
          "name": "",
          "type": "bytes32"
        }
      ],
      "stateMutability": "view",
      "type": "function"
    },
    {
      "inputs": [
        {
          "internalType": "uint256",
          "name": "_collectionID",
          "type": "uint256"
        },
        {
          "internalType": "uint256[]",
          "name": "_tokenIDs",
          "type": "uint256[]"
        }
      ],
      "name": "batchStake",
      "outputs": [],
      "stateMutability": "nonpayable",
      "type": "function"
    },
    {
      "inputs": [
        {
          "internalType": "uint256",
          "name": "_collectionID",
          "type": "uint256"
        },
        {
          "internalType": "uint256[]",
          "name": "_tokenIDs",
          "type": "uint256[]"
        }
      ],
      "name": "batchUnstake",
      "outputs": [],
      "stateMutability": "nonpayable",
      "type": "function"
    },
    {
      "inputs": [
        {
          "internalType": "address",
          "name": "_userAddress",
          "type": "address"
        },
        {
          "internalType": "uint256",
          "name": "_collectionID",
          "type": "uint256"
        },
        {
          "internalType": "uint256",
          "name": "_tokenID",
          "type": "uint256"
        }
      ],
      "name": "claimableReward",
      "outputs": [
        {
          "internalType": "uint256",
          "name": "",
          "type": "uint256"
        }
      ],
      "stateMutability": "view",
      "type": "function"
    },
    {
      "inputs": [
        {
          "internalType": "uint256",
          "name": "",
          "type": "uint256"
        }
      ],
      "name": "collectionInfo",
      "outputs": [
        {
          "internalType": "address",
          "name": "collectionAddress",
          "type": "address"
        },
        {
          "internalType": "uint256",
          "name": "rewardPerDay",
          "type": "uint256"
        },
        {
          "internalType": "uint256",
          "name": "totalAmountStaked",
          "type": "uint256"
        }
      ],
      "stateMutability": "view",
      "type": "function"
    },
    {
      "inputs": [
        {
          "internalType": "bytes32",
          "name": "role",
          "type": "bytes32"
        }
      ],
      "name": "getRoleAdmin",
      "outputs": [
        {
          "internalType": "bytes32",
          "name": "",
          "type": "bytes32"
        }
      ],
      "stateMutability": "view",
      "type": "function"
    },
    {
      "inputs": [
        {
          "internalType": "uint256",
          "name": "_collectionID",
          "type": "uint256"
        }
      ],
      "name": "getTotalStakedItemsCount",
      "outputs": [
        {
          "internalType": "uint256",
          "name": "",
          "type": "uint256"
        }
      ],
      "stateMutability": "view",
      "type": "function"
    },
    {
      "inputs": [
        {
          "internalType": "address",
          "name": "_userAddress",
          "type": "address"
        },
        {
          "internalType": "uint256",
          "name": "_collectionID",
          "type": "uint256"
        }
      ],
      "name": "getUserStakedTokens",
      "outputs": [
        {
          "internalType": "uint256[]",
          "name": "",
          "type": "uint256[]"
        }
      ],
      "stateMutability": "view",
      "type": "function"
    },
    {
      "inputs": [
        {
          "internalType": "bytes32",
          "name": "role",
          "type": "bytes32"
        },
        {
          "internalType": "address",
          "name": "account",
          "type": "address"
        }
      ],
      "name": "grantRole",
      "outputs": [],
      "stateMutability": "nonpayable",
      "type": "function"
    },
    {
      "inputs": [
        {
          "internalType": "bytes32",
          "name": "role",
          "type": "bytes32"
        },
        {
          "internalType": "address",
          "name": "account",
          "type": "address"
        }
      ],
      "name": "hasRole",
      "outputs": [
        {
          "internalType": "bool",
          "name": "",
          "type": "bool"
        }
      ],
      "stateMutability": "view",
      "type": "function"
    },
    {
      "inputs": [
        {
          "internalType": "address",
          "name": "",
          "type": "address"
        },
        {
          "internalType": "address",
          "name": "",
          "type": "address"
        },
        {
          "internalType": "uint256",
          "name": "",
          "type": "uint256"
        }
      ],
      "name": "onERC721Received",
      "outputs": [
        {
          "internalType": "bytes4",
          "name": "",
          "type": "bytes4"
        }
      ],
      "stateMutability": "pure",
      "type": "function"
    },
    {
      "inputs": [
        {
          "internalType": "bytes32",
          "name": "role",
          "type": "bytes32"
        },
        {
          "internalType": "address",
          "name": "account",
          "type": "address"
        }
      ],
      "name": "renounceRole",
      "outputs": [],
      "stateMutability": "nonpayable",
      "type": "function"
    },
    {
      "inputs": [
        {
          "internalType": "bytes32",
          "name": "role",
          "type": "bytes32"
        },
        {
          "internalType": "address",
          "name": "account",
          "type": "address"
        }
      ],
      "name": "revokeRole",
      "outputs": [],
      "stateMutability": "nonpayable",
      "type": "function"
    },
    {
      "inputs": [
        {
          "internalType": "address",
          "name": "admin",
          "type": "address"
        }
      ],
      "name": "setAdminRole",
      "outputs": [],
      "stateMutability": "nonpayable",
      "type": "function"
    },
    {
      "inputs": [
        {
          "internalType": "address",
          "name": "_collectionAddress",
          "type": "address"
        },
        {
          "internalType": "uint256",
          "name": "_rewardPerDay",
          "type": "uint256"
        }
      ],
      "name": "setCollection",
      "outputs": [],
      "stateMutability": "nonpayable",
      "type": "function"
    },
    {
      "inputs": [
        {
          "internalType": "uint256",
          "name": "_collectionID",
          "type": "uint256"
        },
        {
          "internalType": "uint256",
          "name": "_tokenID",
          "type": "uint256"
        }
      ],
      "name": "stake",
      "outputs": [],
      "stateMutability": "nonpayable",
      "type": "function"
    },
    {
      "inputs": [
        {
          "internalType": "bytes4",
          "name": "interfaceId",
          "type": "bytes4"
        }
      ],
      "name": "supportsInterface",
      "outputs": [
        {
          "internalType": "bool",
          "name": "",
          "type": "bool"
        }
      ],
      "stateMutability": "view",
      "type": "function"
    },
    {
      "inputs": [
        {
          "internalType": "address",
          "name": "_userAddress",
          "type": "address"
        },
        {
          "internalType": "uint256",
          "name": "_collectionID",
          "type": "uint256"
        }
      ],
      "name": "totalClaimableReward",
      "outputs": [
        {
          "internalType": "uint256",
          "name": "",
          "type": "uint256"
        }
      ],
      "stateMutability": "view",
      "type": "function"
    },
    {
      "inputs": [
        {
          "internalType": "uint256",
          "name": "_collectionID",
          "type": "uint256"
        },
        {
          "internalType": "uint256",
          "name": "_tokenID",
          "type": "uint256"
        }
      ],
      "name": "unstake",
      "outputs": [],
      "stateMutability": "nonpayable",
      "type": "function"
    },
    {
      "inputs": [
        {
          "internalType": "uint256",
          "name": "_collectionID",
          "type": "uint256"
        },
        {
          "internalType": "address",
          "name": "_collectionAddress",
          "type": "address"
        },
        {
          "internalType": "uint256",
          "name": "_rewardPerDay",
          "type": "uint256"
        }
      ],
      "name": "updateCollection",
      "outputs": [],
      "stateMutability": "nonpayable",
      "type": "function"
    }
  ],
  "bytecode": "0x60806040527fdf8b4c520ffe197c5343c6f5aec59570151ef9a492f2c624fd45ddde6135ec426001553480156200003557600080fd5b5060405162002ac938038062002ac983398181016040528101906200005b9190620002af565b80600260006101000a81548173ffffffffffffffffffffffffffffffffffffffff021916908373ffffffffffffffffffffffffffffffffffffffff160217905550620000b16000801b33620000cc60201b60201c565b620000c560015433620000cc60201b60201c565b50620002e1565b620000de8282620000e260201b60201c565b5050565b620000f48282620001d360201b60201c565b620001cf57600160008084815260200190815260200160002060000160008373ffffffffffffffffffffffffffffffffffffffff1673ffffffffffffffffffffffffffffffffffffffff16815260200190815260200160002060006101000a81548160ff021916908315150217905550620001746200023d60201b60201c565b73ffffffffffffffffffffffffffffffffffffffff168173ffffffffffffffffffffffffffffffffffffffff16837f2f8788117e7eff1d82e926ec794901d17c78024a50270940304540a733656f0d60405160405180910390a45b5050565b600080600084815260200190815260200160002060000160008373ffffffffffffffffffffffffffffffffffffffff1673ffffffffffffffffffffffffffffffffffffffff16815260200190815260200160002060009054906101000a900460ff16905092915050565b600033905090565b600080fd5b600073ffffffffffffffffffffffffffffffffffffffff82169050919050565b600062000277826200024a565b9050919050565b62000289816200026a565b81146200029557600080fd5b50565b600081519050620002a9816200027e565b92915050565b600060208284031215620002c857620002c762000245565b5b6000620002d88482850162000298565b91505092915050565b6127d880620002f16000396000f3fe608060405234801561001057600080fd5b50600436106101365760003560e01c80634adc7cfd116100b857806391d148541161007c57806391d148541461035b5780639e2c8a5b1461038b578063a217fddf146103a7578063d547741f146103c5578063eeafbddc146103e1578063f93b03bc1461041157610136565b80634adc7cfd146102b957806375b238fc146102d55780637b0472f0146102f35780637b71e5db1461030f578063842dd90a1461032b57610136565b80632edb531c116100ff5780632edb531c146102055780632f2ff15d14610221578063302f7fea1461023d57806336568abe1461026d5780633b552dbd1461028957610136565b80628afd4e1461013b57806301ffc9a7146101575780630fb4d2e5146101875780631bbda52b146101b9578063248a9ca3146101d5575b600080fd5b61015560048036038101906101509190611c29565b610441565b005b610171600480360381019061016c9190611cdd565b610487565b60405161017e9190611d25565b60405180910390f35b6101a1600480360381019061019c9190611d40565b610501565b6040516101b093929190611dbd565b60405180910390f35b6101d360048036038101906101ce9190611c29565b61055b565b005b6101ef60048036038101906101ea9190611e2a565b6105a1565b6040516101fc9190611e66565b60405180910390f35b61021f600480360381019061021a9190611ead565b6105c0565b005b61023b60048036038101906102369190611eed565b61068b565b005b61025760048036038101906102529190611f2d565b6106ac565b6040516102649190611f80565b60405180910390f35b61028760048036038101906102829190611eed565b610866565b005b6102a3600480360381019061029e9190611ead565b6108e9565b6040516102b09190611f80565b60405180910390f35b6102d360048036038101906102ce9190611f9b565b610a99565b005b6102dd610ab6565b6040516102ea9190611e66565b60405180910390f35b61030d60048036038101906103089190611fc8565b610abc565b005b61032960048036038101906103249190612008565b610aca565b005b61034560048036038101906103409190611d40565b610b4f565b6040516103529190611f80565b60405180910390f35b61037560048036038101906103709190611eed565b610b83565b6040516103829190611d25565b60405180910390f35b6103a560048036038101906103a09190611fc8565b610bed565b005b6103af610bfb565b6040516103bc9190611e66565b60405180910390f35b6103df60048036038101906103da9190611eed565b610c02565b005b6103fb60048036038101906103f6919061205b565b610c23565b60405161040891906120bd565b60405180910390f35b61042b60048036038101906104269190611ead565b610c36565b6040516104389190612196565b60405180910390f35b60005b81518110156104825761047183838381518110610464576104636121b8565b5b6020026020010151610d56565b8061047b90612216565b9050610444565b505050565b60007f7965db0b000000000000000000000000000000000000000000000000000000007bffffffffffffffffffffffffffffffffffffffffffffffffffffffff1916827bffffffffffffffffffffffffffffffffffffffffffffffffffffffff191614806104fa57506104f9826110f5565b5b9050919050565b6006818154811061051157600080fd5b90600052602060002090600302016000915090508060000160009054906101000a900473ffffffffffffffffffffffffffffffffffffffff16908060010154908060020154905083565b60005b815181101561059c5761058b8383838151811061057e5761057d6121b8565b5b602002602001015161115f565b8061059590612216565b905061055e565b505050565b6000806000838152602001908152602001600020600101549050919050565b6001546105cc8161142c565b600660405180606001604052808573ffffffffffffffffffffffffffffffffffffffff1681526020018481526020016000815250908060018154018082558091505060019003906000526020600020906003020160009091909190915060008201518160000160006101000a81548173ffffffffffffffffffffffffffffffffffffffff021916908373ffffffffffffffffffffffffffffffffffffffff16021790555060208201518160010155604082015181600201555050505050565b610694826105a1565b61069d8161142c565b6106a78383611440565b505050565b600080600684815481106106c3576106c26121b8565b5b906000526020600020906003020190508473ffffffffffffffffffffffffffffffffffffffff16600460008360000160009054906101000a900473ffffffffffffffffffffffffffffffffffffffff1673ffffffffffffffffffffffffffffffffffffffff1673ffffffffffffffffffffffffffffffffffffffff168152602001908152602001600020600085815260200190815260200160002060009054906101000a900473ffffffffffffffffffffffffffffffffffffffff1673ffffffffffffffffffffffffffffffffffffffff16146107a457600091505061085f565b6000600560008360000160009054906101000a900473ffffffffffffffffffffffffffffffffffffffff1673ffffffffffffffffffffffffffffffffffffffff1673ffffffffffffffffffffffffffffffffffffffff16815260200190815260200160002060008581526020019081526020016000205490506000610856836001015461084862015180854261083a919061225e565b61152090919063ffffffff16565b61153690919063ffffffff16565b90508093505050505b9392505050565b61086e61154c565b73ffffffffffffffffffffffffffffffffffffffff168173ffffffffffffffffffffffffffffffffffffffff16146108db576040517f08c379a00000000000000000000000000000000000000000000000000000000081526004016108d290612315565b60405180910390fd5b6108e58282611554565b5050565b60008060009050600060068481548110610906576109056121b8565b5b906000526020600020906003020160000160009054906101000a900473ffffffffffffffffffffffffffffffffffffffff16905060005b600360008373ffffffffffffffffffffffffffffffffffffffff1673ffffffffffffffffffffffffffffffffffffffff16815260200190815260200160002060008773ffffffffffffffffffffffffffffffffffffffff1673ffffffffffffffffffffffffffffffffffffffff16815260200190815260200160002080549050811015610a8d576000600360008473ffffffffffffffffffffffffffffffffffffffff1673ffffffffffffffffffffffffffffffffffffffff16815260200190815260200160002060008873ffffffffffffffffffffffffffffffffffffffff1673ffffffffffffffffffffffffffffffffffffffff1681526020019081526020016000208281548110610a5457610a536121b8565b5b90600052602060002001549050610a6c8787836106ac565b84610a779190612335565b9350508080610a8590612216565b91505061093d565b50819250505092915050565b6000801b610aa68161142c565b610ab260015483611635565b5050565b60015481565b610ac6828261115f565b5050565b600154610ad68161142c565b600060068581548110610aec57610aeb6121b8565b5b90600052602060002090600302019050838160000160006101000a81548173ffffffffffffffffffffffffffffffffffffffff021916908373ffffffffffffffffffffffffffffffffffffffff1602179055508281600101819055505050505050565b60008060068381548110610b6657610b656121b8565b5b906000526020600020906003020190508060020154915050919050565b600080600084815260200190815260200160002060000160008373ffffffffffffffffffffffffffffffffffffffff1673ffffffffffffffffffffffffffffffffffffffff16815260200190815260200160002060009054906101000a900460ff16905092915050565b610bf78282610d56565b5050565b6000801b81565b610c0b826105a1565b610c148161142c565b610c1e8383611554565b505050565b600063150b7a0260e01b90509392505050565b6060600060068381548110610c4e57610c4d6121b8565b5b90600052602060002090600302019050600360008260000160009054906101000a900473ffffffffffffffffffffffffffffffffffffffff1673ffffffffffffffffffffffffffffffffffffffff1673ffffffffffffffffffffffffffffffffffffffff16815260200190815260200160002060008573ffffffffffffffffffffffffffffffffffffffff1673ffffffffffffffffffffffffffffffffffffffff168152602001908152602001600020805480602002602001604051908101604052809291908181526020018280548015610d4857602002820191906000526020600020905b815481526020019060010190808311610d34575b505050505091505092915050565b600060068381548110610d6c57610d6b6121b8565b5b906000526020600020906003020190503373ffffffffffffffffffffffffffffffffffffffff16600460008360000160009054906101000a900473ffffffffffffffffffffffffffffffffffffffff1673ffffffffffffffffffffffffffffffffffffffff1673ffffffffffffffffffffffffffffffffffffffff168152602001908152602001600020600084815260200190815260200160002060009054906101000a900473ffffffffffffffffffffffffffffffffffffffff1673ffffffffffffffffffffffffffffffffffffffff1614610e7e576040517f08c379a0000000000000000000000000000000000000000000000000000000008152600401610e75906123fd565b60405180910390fd5b610e89338484611643565b610f32600360008360000160009054906101000a900473ffffffffffffffffffffffffffffffffffffffff1673ffffffffffffffffffffffffffffffffffffffff1673ffffffffffffffffffffffffffffffffffffffff16815260200190815260200160002060003373ffffffffffffffffffffffffffffffffffffffff1673ffffffffffffffffffffffffffffffffffffffff168152602001908152602001600020836116e7565b600460008260000160009054906101000a900473ffffffffffffffffffffffffffffffffffffffff1673ffffffffffffffffffffffffffffffffffffffff1673ffffffffffffffffffffffffffffffffffffffff168152602001908152602001600020600083815260200190815260200160002060006101000a81549073ffffffffffffffffffffffffffffffffffffffff0219169055600560008260000160009054906101000a900473ffffffffffffffffffffffffffffffffffffffff1673ffffffffffffffffffffffffffffffffffffffff1673ffffffffffffffffffffffffffffffffffffffff1681526020019081526020016000206000838152602001908152602001600020600090556001816002016000828254611056919061225e565b925050819055508060000160009054906101000a900473ffffffffffffffffffffffffffffffffffffffff1673ffffffffffffffffffffffffffffffffffffffff166323b872dd3033856040518463ffffffff1660e01b81526004016110be9392919061241d565b600060405180830381600087803b1580156110d857600080fd5b505af11580156110ec573d6000803e3d6000fd5b50505050505050565b60007f01ffc9a7000000000000000000000000000000000000000000000000000000007bffffffffffffffffffffffffffffffffffffffffffffffffffffffff1916827bffffffffffffffffffffffffffffffffffffffffffffffffffffffff1916149050919050565b600060068381548110611175576111746121b8565b5b9060005260206000209060030201905033600460008360000160009054906101000a900473ffffffffffffffffffffffffffffffffffffffff1673ffffffffffffffffffffffffffffffffffffffff1673ffffffffffffffffffffffffffffffffffffffff168152602001908152602001600020600084815260200190815260200160002060006101000a81548173ffffffffffffffffffffffffffffffffffffffff021916908373ffffffffffffffffffffffffffffffffffffffff16021790555042600560008360000160009054906101000a900473ffffffffffffffffffffffffffffffffffffffff1673ffffffffffffffffffffffffffffffffffffffff1673ffffffffffffffffffffffffffffffffffffffff168152602001908152602001600020600084815260200190815260200160002081905550600360008260000160009054906101000a900473ffffffffffffffffffffffffffffffffffffffff1673ffffffffffffffffffffffffffffffffffffffff1673ffffffffffffffffffffffffffffffffffffffff16815260200190815260200160002060003373ffffffffffffffffffffffffffffffffffffffff1673ffffffffffffffffffffffffffffffffffffffff168152602001908152602001600020829080600181540180825580915050600190039060005260206000200160009091909190915055600181600201600082825461138d9190612335565b925050819055508060000160009054906101000a900473ffffffffffffffffffffffffffffffffffffffff1673ffffffffffffffffffffffffffffffffffffffff166323b872dd3330856040518463ffffffff1660e01b81526004016113f59392919061241d565b600060405180830381600087803b15801561140f57600080fd5b505af1158015611423573d6000803e3d6000fd5b50505050505050565b61143d8161143861154c565b6117ad565b50565b61144a8282610b83565b61151c57600160008084815260200190815260200160002060000160008373ffffffffffffffffffffffffffffffffffffffff1673ffffffffffffffffffffffffffffffffffffffff16815260200190815260200160002060006101000a81548160ff0219169083151502179055506114c161154c565b73ffffffffffffffffffffffffffffffffffffffff168173ffffffffffffffffffffffffffffffffffffffff16837f2f8788117e7eff1d82e926ec794901d17c78024a50270940304540a733656f0d60405160405180910390a45b5050565b6000818361152e9190612483565b905092915050565b6000818361154491906124b4565b905092915050565b600033905090565b61155e8282610b83565b1561163157600080600084815260200190815260200160002060000160008373ffffffffffffffffffffffffffffffffffffffff1673ffffffffffffffffffffffffffffffffffffffff16815260200190815260200160002060006101000a81548160ff0219169083151502179055506115d661154c565b73ffffffffffffffffffffffffffffffffffffffff168173ffffffffffffffffffffffffffffffffffffffff16837ff6391f5c32d9c69d2a47ea670b442974b53935d1edc7fd64eb21e047a839171b60405160405180910390a45b5050565b61163f8282611440565b5050565b60006116508484846106ac565b9050600260009054906101000a900473ffffffffffffffffffffffffffffffffffffffff1673ffffffffffffffffffffffffffffffffffffffff166340c10f1933836040518363ffffffff1660e01b81526004016116af92919061250e565b600060405180830381600087803b1580156116c957600080fd5b505af11580156116dd573d6000803e3d6000fd5b5050505050505050565b60005b82805490508110156117a8578183828154811061170a576117096121b8565b5b90600052602060002001540361179557826001848054905061172c919061225e565b8154811061173d5761173c6121b8565b5b906000526020600020015483828154811061175b5761175a6121b8565b5b90600052602060002001819055508280548061177a57611779612537565b5b600190038181906000526020600020016000905590556117a8565b80806117a090612216565b9150506116ea565b505050565b6117b78282610b83565b611846576117dc8173ffffffffffffffffffffffffffffffffffffffff16601461184a565b6117ea8360001c602061184a565b6040516020016117fb929190612678565b6040516020818303038152906040526040517f08c379a000000000000000000000000000000000000000000000000000000000815260040161183d91906126eb565b60405180910390fd5b5050565b60606000600283600261185d91906124b4565b6118679190612335565b67ffffffffffffffff8111156118805761187f611ae6565b5b6040519080825280601f01601f1916602001820160405280156118b25781602001600182028036833780820191505090505b5090507f3000000000000000000000000000000000000000000000000000000000000000816000815181106118ea576118e96121b8565b5b60200101907effffffffffffffffffffffffffffffffffffffffffffffffffffffffffffff1916908160001a9053507f78000000000000000000000000000000000000000000000000000000000000008160018151811061194e5761194d6121b8565b5b60200101907effffffffffffffffffffffffffffffffffffffffffffffffffffffffffffff1916908160001a9053506000600184600261198e91906124b4565b6119989190612335565b90505b6001811115611a38577f3031323334353637383961626364656600000000000000000000000000000000600f8616601081106119da576119d96121b8565b5b1a60f81b8282815181106119f1576119f06121b8565b5b60200101907effffffffffffffffffffffffffffffffffffffffffffffffffffffffffffff1916908160001a905350600485901c945080611a319061270d565b905061199b565b5060008414611a7c576040517f08c379a0000000000000000000000000000000000000000000000000000000008152600401611a7390612782565b60405180910390fd5b8091505092915050565b6000604051905090565b600080fd5b600080fd5b6000819050919050565b611aad81611a9a565b8114611ab857600080fd5b50565b600081359050611aca81611aa4565b92915050565b600080fd5b6000601f19601f8301169050919050565b7f4e487b7100000000000000000000000000000000000000000000000000000000600052604160045260246000fd5b611b1e82611ad5565b810181811067ffffffffffffffff82111715611b3d57611b3c611ae6565b5b80604052505050565b6000611b50611a86565b9050611b5c8282611b15565b919050565b600067ffffffffffffffff821115611b7c57611b7b611ae6565b5b602082029050602081019050919050565b600080fd5b6000611ba5611ba084611b61565b611b46565b90508083825260208201905060208402830185811115611bc857611bc7611b8d565b5b835b81811015611bf15780611bdd8882611abb565b845260208401935050602081019050611bca565b5050509392505050565b600082601f830112611c1057611c0f611ad0565b5b8135611c20848260208601611b92565b91505092915050565b60008060408385031215611c4057611c3f611a90565b5b6000611c4e85828601611abb565b925050602083013567ffffffffffffffff811115611c6f57611c6e611a95565b5b611c7b85828601611bfb565b9150509250929050565b60007fffffffff0000000000000000000000000000000000000000000000000000000082169050919050565b611cba81611c85565b8114611cc557600080fd5b50565b600081359050611cd781611cb1565b92915050565b600060208284031215611cf357611cf2611a90565b5b6000611d0184828501611cc8565b91505092915050565b60008115159050919050565b611d1f81611d0a565b82525050565b6000602082019050611d3a6000830184611d16565b92915050565b600060208284031215611d5657611d55611a90565b5b6000611d6484828501611abb565b91505092915050565b600073ffffffffffffffffffffffffffffffffffffffff82169050919050565b6000611d9882611d6d565b9050919050565b611da881611d8d565b82525050565b611db781611a9a565b82525050565b6000606082019050611dd26000830186611d9f565b611ddf6020830185611dae565b611dec6040830184611dae565b949350505050565b6000819050919050565b611e0781611df4565b8114611e1257600080fd5b50565b600081359050611e2481611dfe565b92915050565b600060208284031215611e4057611e3f611a90565b5b6000611e4e84828501611e15565b91505092915050565b611e6081611df4565b82525050565b6000602082019050611e7b6000830184611e57565b92915050565b611e8a81611d8d565b8114611e9557600080fd5b50565b600081359050611ea781611e81565b92915050565b60008060408385031215611ec457611ec3611a90565b5b6000611ed285828601611e98565b9250506020611ee385828601611abb565b9150509250929050565b60008060408385031215611f0457611f03611a90565b5b6000611f1285828601611e15565b9250506020611f2385828601611e98565b9150509250929050565b600080600060608486031215611f4657611f45611a90565b5b6000611f5486828701611e98565b9350506020611f6586828701611abb565b9250506040611f7686828701611abb565b9150509250925092565b6000602082019050611f956000830184611dae565b92915050565b600060208284031215611fb157611fb0611a90565b5b6000611fbf84828501611e98565b91505092915050565b60008060408385031215611fdf57611fde611a90565b5b6000611fed85828601611abb565b9250506020611ffe85828601611abb565b9150509250929050565b60008060006060848603121561202157612020611a90565b5b600061202f86828701611abb565b935050602061204086828701611e98565b925050604061205186828701611abb565b9150509250925092565b60008060006060848603121561207457612073611a90565b5b600061208286828701611e98565b935050602061209386828701611e98565b92505060406120a486828701611abb565b9150509250925092565b6120b781611c85565b82525050565b60006020820190506120d260008301846120ae565b92915050565b600081519050919050565b600082825260208201905092915050565b6000819050602082019050919050565b61210d81611a9a565b82525050565b600061211f8383612104565b60208301905092915050565b6000602082019050919050565b6000612143826120d8565b61214d81856120e3565b9350612158836120f4565b8060005b838110156121895781516121708882612113565b975061217b8361212b565b92505060018101905061215c565b5085935050505092915050565b600060208201905081810360008301526121b08184612138565b905092915050565b7f4e487b7100000000000000000000000000000000000000000000000000000000600052603260045260246000fd5b7f4e487b7100000000000000000000000000000000000000000000000000000000600052601160045260246000fd5b600061222182611a9a565b91507fffffffffffffffffffffffffffffffffffffffffffffffffffffffffffffffff8203612253576122526121e7565b5b600182019050919050565b600061226982611a9a565b915061227483611a9a565b925082821015612287576122866121e7565b5b828203905092915050565b600082825260208201905092915050565b7f416363657373436f6e74726f6c3a2063616e206f6e6c792072656e6f756e636560008201527f20726f6c657320666f722073656c660000000000000000000000000000000000602082015250565b60006122ff602f83612292565b915061230a826122a3565b604082019050919050565b6000602082019050818103600083015261232e816122f2565b9050919050565b600061234082611a9a565b915061234b83611a9a565b9250827fffffffffffffffffffffffffffffffffffffffffffffffffffffffffffffffff038211156123805761237f6121e7565b5b828201905092915050565b7f746f6b656e206973206e6f74207374616b6564206f722073656e64657220646f60008201527f6573206e6f74206f776e20697400000000000000000000000000000000000000602082015250565b60006123e7602d83612292565b91506123f28261238b565b604082019050919050565b60006020820190508181036000830152612416816123da565b9050919050565b60006060820190506124326000830186611d9f565b61243f6020830185611d9f565b61244c6040830184611dae565b949350505050565b7f4e487b7100000000000000000000000000000000000000000000000000000000600052601260045260246000fd5b600061248e82611a9a565b915061249983611a9a565b9250826124a9576124a8612454565b5b828204905092915050565b60006124bf82611a9a565b91506124ca83611a9a565b9250817fffffffffffffffffffffffffffffffffffffffffffffffffffffffffffffffff0483118215151615612503576125026121e7565b5b828202905092915050565b60006040820190506125236000830185611d9f565b6125306020830184611dae565b9392505050565b7f4e487b7100000000000000000000000000000000000000000000000000000000600052603160045260246000fd5b600081905092915050565b7f416363657373436f6e74726f6c3a206163636f756e7420000000000000000000600082015250565b60006125a7601783612566565b91506125b282612571565b601782019050919050565b600081519050919050565b60005b838110156125e65780820151818401526020810190506125cb565b838111156125f5576000848401525b50505050565b6000612606826125bd565b6126108185612566565b93506126208185602086016125c8565b80840191505092915050565b7f206973206d697373696e6720726f6c6520000000000000000000000000000000600082015250565b6000612662601183612566565b915061266d8261262c565b601182019050919050565b60006126838261259a565b915061268f82856125fb565b915061269a82612655565b91506126a682846125fb565b91508190509392505050565b60006126bd826125bd565b6126c78185612292565b93506126d78185602086016125c8565b6126e081611ad5565b840191505092915050565b6000602082019050818103600083015261270581846126b2565b905092915050565b600061271882611a9a565b91506000820361272b5761272a6121e7565b5b600182039050919050565b7f537472696e67733a20686578206c656e67746820696e73756666696369656e74600082015250565b600061276c602083612292565b915061277782612736565b602082019050919050565b6000602082019050818103600083015261279b8161275f565b905091905056fea2646970667358221220cf761f4dadc832e797d8d81120f3fa85ea903255d93b429d61f8dbbbfc76d6de64736f6c634300080d0033",
  "linkReferences": {},
  "deployedLinkReferences": {}
}