{
  "_format": "hh-sol-artifact-1",
  "contractName": "CyberlionStaking",
  "sourceName": "contracts/CLstaking.sol",
  "abi": [
    {
      "inputs": [
        {
          "internalType": "address",
          "name": "_rewardsToken",
          "type": "address"
        }
      ],
      "stateMutability": "nonpayable",
      "type": "constructor"
    },
    {
      "anonymous": false,
      "inputs": [
        {
          "indexed": true,
          "internalType": "address",
          "name": "previousOwner",
          "type": "address"
        },
        {
          "indexed": true,
          "internalType": "address",
          "name": "newOwner",
          "type": "address"
        }
      ],
      "name": "OwnershipTransferred",
      "type": "event"
    },
    {
      "anonymous": false,
      "inputs": [
        {
          "indexed": true,
          "internalType": "bytes32",
          "name": "role",
          "type": "bytes32"
        },
        {
          "indexed": true,
          "internalType": "bytes32",
          "name": "previousAdminRole",
          "type": "bytes32"
        },
        {
          "indexed": true,
          "internalType": "bytes32",
          "name": "newAdminRole",
          "type": "bytes32"
        }
      ],
      "name": "RoleAdminChanged",
      "type": "event"
    },
    {
      "anonymous": false,
      "inputs": [
        {
          "indexed": true,
          "internalType": "bytes32",
          "name": "role",
          "type": "bytes32"
        },
        {
          "indexed": true,
          "internalType": "address",
          "name": "account",
          "type": "address"
        },
        {
          "indexed": true,
          "internalType": "address",
          "name": "sender",
          "type": "address"
        }
      ],
      "name": "RoleGranted",
      "type": "event"
    },
    {
      "anonymous": false,
      "inputs": [
        {
          "indexed": true,
          "internalType": "bytes32",
          "name": "role",
          "type": "bytes32"
        },
        {
          "indexed": true,
          "internalType": "address",
          "name": "account",
          "type": "address"
        },
        {
          "indexed": true,
          "internalType": "address",
          "name": "sender",
          "type": "address"
        }
      ],
      "name": "RoleRevoked",
      "type": "event"
    },
    {
      "inputs": [],
      "name": "ADMIN_ROLE",
      "outputs": [
        {
          "internalType": "bytes32",
          "name": "",
          "type": "bytes32"
        }
      ],
      "stateMutability": "view",
      "type": "function"
    },
    {
      "inputs": [],
      "name": "DEFAULT_ADMIN_ROLE",
      "outputs": [
        {
          "internalType": "bytes32",
          "name": "",
          "type": "bytes32"
        }
      ],
      "stateMutability": "view",
      "type": "function"
    },
    {
      "inputs": [
        {
          "internalType": "uint256",
          "name": "_collectionID",
          "type": "uint256"
        },
        {
          "internalType": "uint256[]",
          "name": "_tokenIDs",
          "type": "uint256[]"
        }
      ],
      "name": "batchStake",
      "outputs": [],
      "stateMutability": "nonpayable",
      "type": "function"
    },
    {
      "inputs": [
        {
          "internalType": "uint256",
          "name": "_collectionID",
          "type": "uint256"
        },
        {
          "internalType": "uint256[]",
          "name": "_tokenIDs",
          "type": "uint256[]"
        }
      ],
      "name": "batchUnstake",
      "outputs": [],
      "stateMutability": "nonpayable",
      "type": "function"
    },
    {
      "inputs": [
        {
          "internalType": "address",
          "name": "_userAddress",
          "type": "address"
        },
        {
          "internalType": "uint256",
          "name": "_collectionID",
          "type": "uint256"
        },
        {
          "internalType": "uint256",
          "name": "_tokenID",
          "type": "uint256"
        }
      ],
      "name": "claimableReward",
      "outputs": [
        {
          "internalType": "uint256",
          "name": "",
          "type": "uint256"
        }
      ],
      "stateMutability": "view",
      "type": "function"
    },
    {
      "inputs": [
        {
          "internalType": "uint256",
          "name": "",
          "type": "uint256"
        }
      ],
      "name": "collectionInfo",
      "outputs": [
        {
          "internalType": "address",
          "name": "collectionAddress",
          "type": "address"
        },
        {
          "internalType": "uint256",
          "name": "rewardPerDay",
          "type": "uint256"
        },
        {
          "internalType": "uint256",
          "name": "totalAmountStaked",
          "type": "uint256"
        }
      ],
      "stateMutability": "view",
      "type": "function"
    },
    {
      "inputs": [
        {
          "internalType": "bytes32",
          "name": "role",
          "type": "bytes32"
        }
      ],
      "name": "getRoleAdmin",
      "outputs": [
        {
          "internalType": "bytes32",
          "name": "",
          "type": "bytes32"
        }
      ],
      "stateMutability": "view",
      "type": "function"
    },
    {
      "inputs": [
        {
          "internalType": "uint256",
          "name": "_collectionID",
          "type": "uint256"
        }
      ],
      "name": "getTotalStakedItemsCount",
      "outputs": [
        {
          "internalType": "uint256",
          "name": "",
          "type": "uint256"
        }
      ],
      "stateMutability": "view",
      "type": "function"
    },
    {
      "inputs": [
        {
          "internalType": "bytes32",
          "name": "role",
          "type": "bytes32"
        },
        {
          "internalType": "address",
          "name": "account",
          "type": "address"
        }
      ],
      "name": "grantRole",
      "outputs": [],
      "stateMutability": "nonpayable",
      "type": "function"
    },
    {
      "inputs": [
        {
          "internalType": "bytes32",
          "name": "role",
          "type": "bytes32"
        },
        {
          "internalType": "address",
          "name": "account",
          "type": "address"
        }
      ],
      "name": "hasRole",
      "outputs": [
        {
          "internalType": "bool",
          "name": "",
          "type": "bool"
        }
      ],
      "stateMutability": "view",
      "type": "function"
    },
    {
      "inputs": [],
      "name": "mintTest",
      "outputs": [],
      "stateMutability": "nonpayable",
      "type": "function"
    },
    {
      "inputs": [
        {
          "internalType": "address",
          "name": "",
          "type": "address"
        },
        {
          "internalType": "address",
          "name": "",
          "type": "address"
        },
        {
          "internalType": "uint256",
          "name": "",
          "type": "uint256"
        }
      ],
      "name": "onERC721Received",
      "outputs": [
        {
          "internalType": "bytes4",
          "name": "",
          "type": "bytes4"
        }
      ],
      "stateMutability": "pure",
      "type": "function"
    },
    {
      "inputs": [],
      "name": "owner",
      "outputs": [
        {
          "internalType": "address",
          "name": "",
          "type": "address"
        }
      ],
      "stateMutability": "view",
      "type": "function"
    },
    {
      "inputs": [],
      "name": "renounceOwnership",
      "outputs": [],
      "stateMutability": "nonpayable",
      "type": "function"
    },
    {
      "inputs": [
        {
          "internalType": "bytes32",
          "name": "role",
          "type": "bytes32"
        },
        {
          "internalType": "address",
          "name": "account",
          "type": "address"
        }
      ],
      "name": "renounceRole",
      "outputs": [],
      "stateMutability": "nonpayable",
      "type": "function"
    },
    {
      "inputs": [
        {
          "internalType": "bytes32",
          "name": "role",
          "type": "bytes32"
        },
        {
          "internalType": "address",
          "name": "account",
          "type": "address"
        }
      ],
      "name": "revokeRole",
      "outputs": [],
      "stateMutability": "nonpayable",
      "type": "function"
    },
    {
      "inputs": [
        {
          "internalType": "address",
          "name": "admin",
          "type": "address"
        }
      ],
      "name": "setAdminRole",
      "outputs": [],
      "stateMutability": "nonpayable",
      "type": "function"
    },
    {
      "inputs": [
        {
          "internalType": "address",
          "name": "_collectionAddress",
          "type": "address"
        },
        {
          "internalType": "uint256",
          "name": "_rewardPerDay",
          "type": "uint256"
        }
      ],
      "name": "setCollection",
      "outputs": [],
      "stateMutability": "nonpayable",
      "type": "function"
    },
    {
      "inputs": [
        {
          "internalType": "uint256",
          "name": "_collectionID",
          "type": "uint256"
        },
        {
          "internalType": "uint256",
          "name": "_tokenID",
          "type": "uint256"
        }
      ],
      "name": "stake",
      "outputs": [],
      "stateMutability": "nonpayable",
      "type": "function"
    },
    {
      "inputs": [
        {
          "internalType": "bytes4",
          "name": "interfaceId",
          "type": "bytes4"
        }
      ],
      "name": "supportsInterface",
      "outputs": [
        {
          "internalType": "bool",
          "name": "",
          "type": "bool"
        }
      ],
      "stateMutability": "view",
      "type": "function"
    },
    {
      "inputs": [
        {
          "internalType": "address",
          "name": "_userAddress",
          "type": "address"
        },
        {
          "internalType": "uint256",
          "name": "_collectionID",
          "type": "uint256"
        }
      ],
      "name": "totalClaimableReward",
      "outputs": [
        {
          "internalType": "uint256",
          "name": "",
          "type": "uint256"
        }
      ],
      "stateMutability": "view",
      "type": "function"
    },
    {
      "inputs": [
        {
          "internalType": "address",
          "name": "newOwner",
          "type": "address"
        }
      ],
      "name": "transferOwnership",
      "outputs": [],
      "stateMutability": "nonpayable",
      "type": "function"
    },
    {
      "inputs": [
        {
          "internalType": "uint256",
          "name": "_collectionID",
          "type": "uint256"
        },
        {
          "internalType": "uint256",
          "name": "_tokenID",
          "type": "uint256"
        }
      ],
      "name": "unstake",
      "outputs": [],
      "stateMutability": "nonpayable",
      "type": "function"
    },
    {
      "inputs": [
        {
          "internalType": "uint256",
          "name": "_collectionID",
          "type": "uint256"
        },
        {
          "internalType": "address",
          "name": "_collectionAddress",
          "type": "address"
        },
        {
          "internalType": "uint256",
          "name": "_rewardPerDay",
          "type": "uint256"
        }
      ],
      "name": "updateCollection",
      "outputs": [],
      "stateMutability": "nonpayable",
      "type": "function"
    }
  ],
  "bytecode": "0x60806040527fdf8b4c520ffe197c5343c6f5aec59570151ef9a492f2c624fd45ddde6135ec426002553480156200003557600080fd5b5060405162002cf338038062002cf383398181016040528101906200005b919062000394565b6200007b6200006f620000ec60201b60201c565b620000f460201b60201c565b80600360006101000a81548173ffffffffffffffffffffffffffffffffffffffff021916908373ffffffffffffffffffffffffffffffffffffffff160217905550620000d16000801b33620001b860201b60201c565b620000e560025433620001b860201b60201c565b50620003c6565b600033905090565b60008060009054906101000a900473ffffffffffffffffffffffffffffffffffffffff169050816000806101000a81548173ffffffffffffffffffffffffffffffffffffffff021916908373ffffffffffffffffffffffffffffffffffffffff1602179055508173ffffffffffffffffffffffffffffffffffffffff168173ffffffffffffffffffffffffffffffffffffffff167f8be0079c531659141344cd1fd0a4f28419497f9722a3daafe3b4186f6b6457e060405160405180910390a35050565b620001ca8282620001ce60201b60201c565b5050565b620001e08282620002bf60201b60201c565b620002bb57600180600084815260200190815260200160002060000160008373ffffffffffffffffffffffffffffffffffffffff1673ffffffffffffffffffffffffffffffffffffffff16815260200190815260200160002060006101000a81548160ff02191690831515021790555062000260620000ec60201b60201c565b73ffffffffffffffffffffffffffffffffffffffff168173ffffffffffffffffffffffffffffffffffffffff16837f2f8788117e7eff1d82e926ec794901d17c78024a50270940304540a733656f0d60405160405180910390a45b5050565b60006001600084815260200190815260200160002060000160008373ffffffffffffffffffffffffffffffffffffffff1673ffffffffffffffffffffffffffffffffffffffff16815260200190815260200160002060009054906101000a900460ff16905092915050565b600080fd5b600073ffffffffffffffffffffffffffffffffffffffff82169050919050565b60006200035c826200032f565b9050919050565b6200036e816200034f565b81146200037a57600080fd5b50565b6000815190506200038e8162000363565b92915050565b600060208284031215620003ad57620003ac6200032a565b5b6000620003bd848285016200037d565b91505092915050565b61291d80620003d66000396000f3fe608060405234801561001057600080fd5b50600436106101575760003560e01c8063715018a6116100c357806391d148541161007c57806391d14854146103ae5780639e2c8a5b146103de578063a217fddf146103fa578063d547741f14610418578063eeafbddc14610434578063f2fde38b1461046457610157565b8063715018a61461030057806375b238fc1461030a5780637b0472f0146103285780637b71e5db14610344578063842dd90a146103605780638da5cb5b1461039057610157565b80632f2ff15d116101155780632f2ff15d14610242578063302f7fea1461025e57806336568abe1461028e5780633b552dbd146102aa5780634adc7cfd146102da57806366675aa9146102f657610157565b80628afd4e1461015c57806301ffc9a7146101785780630fb4d2e5146101a85780631bbda52b146101da578063248a9ca3146101f65780632edb531c14610226575b600080fd5b61017660048036038101906101719190611d59565b610480565b005b610192600480360381019061018d9190611e0d565b6104c7565b60405161019f9190611e55565b60405180910390f35b6101c260048036038101906101bd9190611e70565b610541565b6040516101d193929190611eed565b60405180910390f35b6101f460048036038101906101ef9190611d59565b61059b565b005b610210600480360381019061020b9190611f5a565b6105e2565b60405161021d9190611f96565b60405180910390f35b610240600480360381019061023b9190611fdd565b610602565b005b61025c6004803603810190610257919061201d565b6106cd565b005b6102786004803603810190610273919061205d565b6106ee565b60405161028591906120b0565b60405180910390f35b6102a860048036038101906102a3919061201d565b6108a7565b005b6102c460048036038101906102bf9190611fdd565b61092a565b6040516102d191906120b0565b60405180910390f35b6102f460048036038101906102ef91906120cb565b610ada565b005b6102fe610af7565b005b610308610b96565b005b610312610c1e565b60405161031f9190611f96565b60405180910390f35b610342600480360381019061033d91906120f8565b610c24565b005b61035e60048036038101906103599190612138565b610c33565b005b61037a60048036038101906103759190611e70565b610cb8565b60405161038791906120b0565b60405180910390f35b610398610cec565b6040516103a5919061218b565b60405180910390f35b6103c860048036038101906103c3919061201d565b610d15565b6040516103d59190611e55565b60405180910390f35b6103f860048036038101906103f391906120f8565b610d80565b005b610402610d8f565b60405161040f9190611f96565b60405180910390f35b610432600480360381019061042d919061201d565b610d96565b005b61044e600480360381019061044991906121a6565b610db7565b60405161045b9190612208565b60405180910390f35b61047e600480360381019061047991906120cb565b610dca565b005b60005b81518110156104c2576104b133848484815181106104a4576104a3612223565b5b6020026020010151610ec1565b806104bb90612281565b9050610483565b505050565b60007f7965db0b000000000000000000000000000000000000000000000000000000007bffffffffffffffffffffffffffffffffffffffffffffffffffffffff1916827bffffffffffffffffffffffffffffffffffffffffffffffffffffffff1916148061053a57506105398261115f565b5b9050919050565b6007818154811061055157600080fd5b90600052602060002090600302016000915090508060000160009054906101000a900473ffffffffffffffffffffffffffffffffffffffff16908060010154908060020154905083565b60005b81518110156105dd576105cc33848484815181106105bf576105be612223565b5b60200260200101516111c9565b806105d690612281565b905061059e565b505050565b600060016000838152602001908152602001600020600101549050919050565b60025461060e81611497565b600760405180606001604052808573ffffffffffffffffffffffffffffffffffffffff1681526020018481526020016000815250908060018154018082558091505060019003906000526020600020906003020160009091909190915060008201518160000160006101000a81548173ffffffffffffffffffffffffffffffffffffffff021916908373ffffffffffffffffffffffffffffffffffffffff16021790555060208201518160010155604082015181600201555050505050565b6106d6826105e2565b6106df81611497565b6106e983836114ab565b505050565b6000806007848154811061070557610704612223565b5b906000526020600020906003020190508473ffffffffffffffffffffffffffffffffffffffff16600560008360000160009054906101000a900473ffffffffffffffffffffffffffffffffffffffff1673ffffffffffffffffffffffffffffffffffffffff1673ffffffffffffffffffffffffffffffffffffffff168152602001908152602001600020600085815260200190815260200160002060009054906101000a900473ffffffffffffffffffffffffffffffffffffffff1673ffffffffffffffffffffffffffffffffffffffff16146107e65760009150506108a0565b6000600660008360000160009054906101000a900473ffffffffffffffffffffffffffffffffffffffff1673ffffffffffffffffffffffffffffffffffffffff1673ffffffffffffffffffffffffffffffffffffffff168152602001908152602001600020600085815260200190815260200160002054905060006108978360010154610889610258854261087b91906122c9565b61158b90919063ffffffff16565b6115a190919063ffffffff16565b90508093505050505b9392505050565b6108af6115b7565b73ffffffffffffffffffffffffffffffffffffffff168173ffffffffffffffffffffffffffffffffffffffff161461091c576040517f08c379a000000000000000000000000000000000000000000000000000000000815260040161091390612380565b60405180910390fd5b61092682826115bf565b5050565b6000806000905060006007848154811061094757610946612223565b5b906000526020600020906003020160000160009054906101000a900473ffffffffffffffffffffffffffffffffffffffff16905060005b600460008373ffffffffffffffffffffffffffffffffffffffff1673ffffffffffffffffffffffffffffffffffffffff16815260200190815260200160002060008773ffffffffffffffffffffffffffffffffffffffff1673ffffffffffffffffffffffffffffffffffffffff16815260200190815260200160002080549050811015610ace576000600460008473ffffffffffffffffffffffffffffffffffffffff1673ffffffffffffffffffffffffffffffffffffffff16815260200190815260200160002060008873ffffffffffffffffffffffffffffffffffffffff1673ffffffffffffffffffffffffffffffffffffffff1681526020019081526020016000208281548110610a9557610a94612223565b5b90600052602060002001549050610aad8787836106ee565b84610ab891906123a0565b9350508080610ac690612281565b91505061097e565b50819250505092915050565b6000801b610ae781611497565b610af3600254836116a1565b5050565b600254610b0381611497565b600360009054906101000a900473ffffffffffffffffffffffffffffffffffffffff1673ffffffffffffffffffffffffffffffffffffffff166340c10f193360016040518363ffffffff1660e01b8152600401610b6192919061243b565b600060405180830381600087803b158015610b7b57600080fd5b505af1158015610b8f573d6000803e3d6000fd5b5050505050565b610b9e6115b7565b73ffffffffffffffffffffffffffffffffffffffff16610bbc610cec565b73ffffffffffffffffffffffffffffffffffffffff1614610c12576040517f08c379a0000000000000000000000000000000000000000000000000000000008152600401610c09906124b0565b60405180910390fd5b610c1c60006116af565b565b60025481565b610c2f3383836111c9565b5050565b600254610c3f81611497565b600060078581548110610c5557610c54612223565b5b90600052602060002090600302019050838160000160006101000a81548173ffffffffffffffffffffffffffffffffffffffff021916908373ffffffffffffffffffffffffffffffffffffffff1602179055508281600101819055505050505050565b60008060078381548110610ccf57610cce612223565b5b906000526020600020906003020190508060020154915050919050565b60008060009054906101000a900473ffffffffffffffffffffffffffffffffffffffff16905090565b60006001600084815260200190815260200160002060000160008373ffffffffffffffffffffffffffffffffffffffff1673ffffffffffffffffffffffffffffffffffffffff16815260200190815260200160002060009054906101000a900460ff16905092915050565b610d8b338383610ec1565b5050565b6000801b81565b610d9f826105e2565b610da881611497565b610db283836115bf565b505050565b600063150b7a0260e01b90509392505050565b610dd26115b7565b73ffffffffffffffffffffffffffffffffffffffff16610df0610cec565b73ffffffffffffffffffffffffffffffffffffffff1614610e46576040517f08c379a0000000000000000000000000000000000000000000000000000000008152600401610e3d906124b0565b60405180910390fd5b600073ffffffffffffffffffffffffffffffffffffffff168173ffffffffffffffffffffffffffffffffffffffff1603610eb5576040517f08c379a0000000000000000000000000000000000000000000000000000000008152600401610eac90612542565b60405180910390fd5b610ebe816116af565b50565b600060078381548110610ed757610ed6612223565b5b90600052602060002090600302019050610ef2338484611773565b610f9b600460008360000160009054906101000a900473ffffffffffffffffffffffffffffffffffffffff1673ffffffffffffffffffffffffffffffffffffffff1673ffffffffffffffffffffffffffffffffffffffff16815260200190815260200160002060008673ffffffffffffffffffffffffffffffffffffffff1673ffffffffffffffffffffffffffffffffffffffff16815260200190815260200160002083611817565b600560008260000160009054906101000a900473ffffffffffffffffffffffffffffffffffffffff1673ffffffffffffffffffffffffffffffffffffffff1673ffffffffffffffffffffffffffffffffffffffff168152602001908152602001600020600083815260200190815260200160002060006101000a81549073ffffffffffffffffffffffffffffffffffffffff0219169055600660008260000160009054906101000a900473ffffffffffffffffffffffffffffffffffffffff1673ffffffffffffffffffffffffffffffffffffffff1673ffffffffffffffffffffffffffffffffffffffff16815260200190815260200160002060008381526020019081526020016000206000905560018160020160008282546110bf91906122c9565b925050819055508060000160009054906101000a900473ffffffffffffffffffffffffffffffffffffffff1673ffffffffffffffffffffffffffffffffffffffff166323b872dd3086856040518463ffffffff1660e01b815260040161112793929190612562565b600060405180830381600087803b15801561114157600080fd5b505af1158015611155573d6000803e3d6000fd5b5050505050505050565b60007f01ffc9a7000000000000000000000000000000000000000000000000000000007bffffffffffffffffffffffffffffffffffffffffffffffffffffffff1916827bffffffffffffffffffffffffffffffffffffffffffffffffffffffff1916149050919050565b6000600783815481106111df576111de612223565b5b9060005260206000209060030201905083600560008360000160009054906101000a900473ffffffffffffffffffffffffffffffffffffffff1673ffffffffffffffffffffffffffffffffffffffff1673ffffffffffffffffffffffffffffffffffffffff168152602001908152602001600020600084815260200190815260200160002060006101000a81548173ffffffffffffffffffffffffffffffffffffffff021916908373ffffffffffffffffffffffffffffffffffffffff16021790555042600660008360000160009054906101000a900473ffffffffffffffffffffffffffffffffffffffff1673ffffffffffffffffffffffffffffffffffffffff1673ffffffffffffffffffffffffffffffffffffffff168152602001908152602001600020600084815260200190815260200160002081905550600460008260000160009054906101000a900473ffffffffffffffffffffffffffffffffffffffff1673ffffffffffffffffffffffffffffffffffffffff1673ffffffffffffffffffffffffffffffffffffffff16815260200190815260200160002060008573ffffffffffffffffffffffffffffffffffffffff1673ffffffffffffffffffffffffffffffffffffffff16815260200190815260200160002082908060018154018082558091505060019003906000526020600020016000909190919091505560018160020160008282546113f791906123a0565b925050819055508060000160009054906101000a900473ffffffffffffffffffffffffffffffffffffffff1673ffffffffffffffffffffffffffffffffffffffff166323b872dd8530856040518463ffffffff1660e01b815260040161145f93929190612562565b600060405180830381600087803b15801561147957600080fd5b505af115801561148d573d6000803e3d6000fd5b5050505050505050565b6114a8816114a36115b7565b6118dd565b50565b6114b58282610d15565b61158757600180600084815260200190815260200160002060000160008373ffffffffffffffffffffffffffffffffffffffff1673ffffffffffffffffffffffffffffffffffffffff16815260200190815260200160002060006101000a81548160ff02191690831515021790555061152c6115b7565b73ffffffffffffffffffffffffffffffffffffffff168173ffffffffffffffffffffffffffffffffffffffff16837f2f8788117e7eff1d82e926ec794901d17c78024a50270940304540a733656f0d60405160405180910390a45b5050565b6000818361159991906125c8565b905092915050565b600081836115af91906125f9565b905092915050565b600033905090565b6115c98282610d15565b1561169d5760006001600084815260200190815260200160002060000160008373ffffffffffffffffffffffffffffffffffffffff1673ffffffffffffffffffffffffffffffffffffffff16815260200190815260200160002060006101000a81548160ff0219169083151502179055506116426115b7565b73ffffffffffffffffffffffffffffffffffffffff168173ffffffffffffffffffffffffffffffffffffffff16837ff6391f5c32d9c69d2a47ea670b442974b53935d1edc7fd64eb21e047a839171b60405160405180910390a45b5050565b6116ab82826114ab565b5050565b60008060009054906101000a900473ffffffffffffffffffffffffffffffffffffffff169050816000806101000a81548173ffffffffffffffffffffffffffffffffffffffff021916908373ffffffffffffffffffffffffffffffffffffffff1602179055508173ffffffffffffffffffffffffffffffffffffffff168173ffffffffffffffffffffffffffffffffffffffff167f8be0079c531659141344cd1fd0a4f28419497f9722a3daafe3b4186f6b6457e060405160405180910390a35050565b60006117808484846106ee565b9050600360009054906101000a900473ffffffffffffffffffffffffffffffffffffffff1673ffffffffffffffffffffffffffffffffffffffff166340c10f1933836040518363ffffffff1660e01b81526004016117df929190612653565b600060405180830381600087803b1580156117f957600080fd5b505af115801561180d573d6000803e3d6000fd5b5050505050505050565b60005b82805490508110156118d8578183828154811061183a57611839612223565b5b9060005260206000200154036118c557826001848054905061185c91906122c9565b8154811061186d5761186c612223565b5b906000526020600020015483828154811061188b5761188a612223565b5b9060005260206000200181905550828054806118aa576118a961267c565b5b600190038181906000526020600020016000905590556118d8565b80806118d090612281565b91505061181a565b505050565b6118e78282610d15565b6119765761190c8173ffffffffffffffffffffffffffffffffffffffff16601461197a565b61191a8360001c602061197a565b60405160200161192b9291906127bd565b6040516020818303038152906040526040517f08c379a000000000000000000000000000000000000000000000000000000000815260040161196d9190612830565b60405180910390fd5b5050565b60606000600283600261198d91906125f9565b61199791906123a0565b67ffffffffffffffff8111156119b0576119af611c16565b5b6040519080825280601f01601f1916602001820160405280156119e25781602001600182028036833780820191505090505b5090507f300000000000000000000000000000000000000000000000000000000000000081600081518110611a1a57611a19612223565b5b60200101907effffffffffffffffffffffffffffffffffffffffffffffffffffffffffffff1916908160001a9053507f780000000000000000000000000000000000000000000000000000000000000081600181518110611a7e57611a7d612223565b5b60200101907effffffffffffffffffffffffffffffffffffffffffffffffffffffffffffff1916908160001a90535060006001846002611abe91906125f9565b611ac891906123a0565b90505b6001811115611b68577f3031323334353637383961626364656600000000000000000000000000000000600f861660108110611b0a57611b09612223565b5b1a60f81b828281518110611b2157611b20612223565b5b60200101907effffffffffffffffffffffffffffffffffffffffffffffffffffffffffffff1916908160001a905350600485901c945080611b6190612852565b9050611acb565b5060008414611bac576040517f08c379a0000000000000000000000000000000000000000000000000000000008152600401611ba3906128c7565b60405180910390fd5b8091505092915050565b6000604051905090565b600080fd5b600080fd5b6000819050919050565b611bdd81611bca565b8114611be857600080fd5b50565b600081359050611bfa81611bd4565b92915050565b600080fd5b6000601f19601f8301169050919050565b7f4e487b7100000000000000000000000000000000000000000000000000000000600052604160045260246000fd5b611c4e82611c05565b810181811067ffffffffffffffff82111715611c6d57611c6c611c16565b5b80604052505050565b6000611c80611bb6565b9050611c8c8282611c45565b919050565b600067ffffffffffffffff821115611cac57611cab611c16565b5b602082029050602081019050919050565b600080fd5b6000611cd5611cd084611c91565b611c76565b90508083825260208201905060208402830185811115611cf857611cf7611cbd565b5b835b81811015611d215780611d0d8882611beb565b845260208401935050602081019050611cfa565b5050509392505050565b600082601f830112611d4057611d3f611c00565b5b8135611d50848260208601611cc2565b91505092915050565b60008060408385031215611d7057611d6f611bc0565b5b6000611d7e85828601611beb565b925050602083013567ffffffffffffffff811115611d9f57611d9e611bc5565b5b611dab85828601611d2b565b9150509250929050565b60007fffffffff0000000000000000000000000000000000000000000000000000000082169050919050565b611dea81611db5565b8114611df557600080fd5b50565b600081359050611e0781611de1565b92915050565b600060208284031215611e2357611e22611bc0565b5b6000611e3184828501611df8565b91505092915050565b60008115159050919050565b611e4f81611e3a565b82525050565b6000602082019050611e6a6000830184611e46565b92915050565b600060208284031215611e8657611e85611bc0565b5b6000611e9484828501611beb565b91505092915050565b600073ffffffffffffffffffffffffffffffffffffffff82169050919050565b6000611ec882611e9d565b9050919050565b611ed881611ebd565b82525050565b611ee781611bca565b82525050565b6000606082019050611f026000830186611ecf565b611f0f6020830185611ede565b611f1c6040830184611ede565b949350505050565b6000819050919050565b611f3781611f24565b8114611f4257600080fd5b50565b600081359050611f5481611f2e565b92915050565b600060208284031215611f7057611f6f611bc0565b5b6000611f7e84828501611f45565b91505092915050565b611f9081611f24565b82525050565b6000602082019050611fab6000830184611f87565b92915050565b611fba81611ebd565b8114611fc557600080fd5b50565b600081359050611fd781611fb1565b92915050565b60008060408385031215611ff457611ff3611bc0565b5b600061200285828601611fc8565b925050602061201385828601611beb565b9150509250929050565b6000806040838503121561203457612033611bc0565b5b600061204285828601611f45565b925050602061205385828601611fc8565b9150509250929050565b60008060006060848603121561207657612075611bc0565b5b600061208486828701611fc8565b935050602061209586828701611beb565b92505060406120a686828701611beb565b9150509250925092565b60006020820190506120c56000830184611ede565b92915050565b6000602082840312156120e1576120e0611bc0565b5b60006120ef84828501611fc8565b91505092915050565b6000806040838503121561210f5761210e611bc0565b5b600061211d85828601611beb565b925050602061212e85828601611beb565b9150509250929050565b60008060006060848603121561215157612150611bc0565b5b600061215f86828701611beb565b935050602061217086828701611fc8565b925050604061218186828701611beb565b9150509250925092565b60006020820190506121a06000830184611ecf565b92915050565b6000806000606084860312156121bf576121be611bc0565b5b60006121cd86828701611fc8565b93505060206121de86828701611fc8565b92505060406121ef86828701611beb565b9150509250925092565b61220281611db5565b82525050565b600060208201905061221d60008301846121f9565b92915050565b7f4e487b7100000000000000000000000000000000000000000000000000000000600052603260045260246000fd5b7f4e487b7100000000000000000000000000000000000000000000000000000000600052601160045260246000fd5b600061228c82611bca565b91507fffffffffffffffffffffffffffffffffffffffffffffffffffffffffffffffff82036122be576122bd612252565b5b600182019050919050565b60006122d482611bca565b91506122df83611bca565b9250828210156122f2576122f1612252565b5b828203905092915050565b600082825260208201905092915050565b7f416363657373436f6e74726f6c3a2063616e206f6e6c792072656e6f756e636560008201527f20726f6c657320666f722073656c660000000000000000000000000000000000602082015250565b600061236a602f836122fd565b91506123758261230e565b604082019050919050565b600060208201905081810360008301526123998161235d565b9050919050565b60006123ab82611bca565b91506123b683611bca565b9250827fffffffffffffffffffffffffffffffffffffffffffffffffffffffffffffffff038211156123eb576123ea612252565b5b828201905092915050565b6000819050919050565b6000819050919050565b600061242561242061241b846123f6565b612400565b611bca565b9050919050565b6124358161240a565b82525050565b60006040820190506124506000830185611ecf565b61245d602083018461242c565b9392505050565b7f4f776e61626c653a2063616c6c6572206973206e6f7420746865206f776e6572600082015250565b600061249a6020836122fd565b91506124a582612464565b602082019050919050565b600060208201905081810360008301526124c98161248d565b9050919050565b7f4f776e61626c653a206e6577206f776e657220697320746865207a65726f206160008201527f6464726573730000000000000000000000000000000000000000000000000000602082015250565b600061252c6026836122fd565b9150612537826124d0565b604082019050919050565b6000602082019050818103600083015261255b8161251f565b9050919050565b60006060820190506125776000830186611ecf565b6125846020830185611ecf565b6125916040830184611ede565b949350505050565b7f4e487b7100000000000000000000000000000000000000000000000000000000600052601260045260246000fd5b60006125d382611bca565b91506125de83611bca565b9250826125ee576125ed612599565b5b828204905092915050565b600061260482611bca565b915061260f83611bca565b9250817fffffffffffffffffffffffffffffffffffffffffffffffffffffffffffffffff048311821515161561264857612647612252565b5b828202905092915050565b60006040820190506126686000830185611ecf565b6126756020830184611ede565b9392505050565b7f4e487b7100000000000000000000000000000000000000000000000000000000600052603160045260246000fd5b600081905092915050565b7f416363657373436f6e74726f6c3a206163636f756e7420000000000000000000600082015250565b60006126ec6017836126ab565b91506126f7826126b6565b601782019050919050565b600081519050919050565b60005b8381101561272b578082015181840152602081019050612710565b8381111561273a576000848401525b50505050565b600061274b82612702565b61275581856126ab565b935061276581856020860161270d565b80840191505092915050565b7f206973206d697373696e6720726f6c6520000000000000000000000000000000600082015250565b60006127a76011836126ab565b91506127b282612771565b601182019050919050565b60006127c8826126df565b91506127d48285612740565b91506127df8261279a565b91506127eb8284612740565b91508190509392505050565b600061280282612702565b61280c81856122fd565b935061281c81856020860161270d565b61282581611c05565b840191505092915050565b6000602082019050818103600083015261284a81846127f7565b905092915050565b600061285d82611bca565b9150600082036128705761286f612252565b5b600182039050919050565b7f537472696e67733a20686578206c656e67746820696e73756666696369656e74600082015250565b60006128b16020836122fd565b91506128bc8261287b565b602082019050919050565b600060208201905081810360008301526128e0816128a4565b905091905056fea2646970667358221220611a098bfa36356aafbff617d7c40a638e3db4978bd1b97ec368e4b914f0759664736f6c634300080d0033",
  "linkReferences": {},
  "deployedLinkReferences": {}
}