{
  "_format": "hh-sol-artifact-1",
  "contractName": "HeatTokenMock",
  "sourceName": "contracts/mocks/HeatTokenMock.sol",
  "abi": [
    {
      "inputs": [],
      "stateMutability": "nonpayable",
      "type": "constructor"
    },
    {
      "anonymous": false,
      "inputs": [
        {
          "indexed": true,
          "internalType": "address",
          "name": "owner",
          "type": "address"
        },
        {
          "indexed": true,
          "internalType": "address",
          "name": "spender",
          "type": "address"
        },
        {
          "indexed": false,
          "internalType": "uint256",
          "name": "value",
          "type": "uint256"
        }
      ],
      "name": "Approval",
      "type": "event"
    },
    {
      "anonymous": false,
      "inputs": [
        {
          "indexed": true,
          "internalType": "bytes32",
          "name": "role",
          "type": "bytes32"
        },
        {
          "indexed": true,
          "internalType": "bytes32",
          "name": "previousAdminRole",
          "type": "bytes32"
        },
        {
          "indexed": true,
          "internalType": "bytes32",
          "name": "newAdminRole",
          "type": "bytes32"
        }
      ],
      "name": "RoleAdminChanged",
      "type": "event"
    },
    {
      "anonymous": false,
      "inputs": [
        {
          "indexed": true,
          "internalType": "bytes32",
          "name": "role",
          "type": "bytes32"
        },
        {
          "indexed": true,
          "internalType": "address",
          "name": "account",
          "type": "address"
        },
        {
          "indexed": true,
          "internalType": "address",
          "name": "sender",
          "type": "address"
        }
      ],
      "name": "RoleGranted",
      "type": "event"
    },
    {
      "anonymous": false,
      "inputs": [
        {
          "indexed": true,
          "internalType": "bytes32",
          "name": "role",
          "type": "bytes32"
        },
        {
          "indexed": true,
          "internalType": "address",
          "name": "account",
          "type": "address"
        },
        {
          "indexed": true,
          "internalType": "address",
          "name": "sender",
          "type": "address"
        }
      ],
      "name": "RoleRevoked",
      "type": "event"
    },
    {
      "anonymous": false,
      "inputs": [
        {
          "indexed": true,
          "internalType": "address",
          "name": "from",
          "type": "address"
        },
        {
          "indexed": true,
          "internalType": "address",
          "name": "to",
          "type": "address"
        },
        {
          "indexed": false,
          "internalType": "uint256",
          "name": "value",
          "type": "uint256"
        }
      ],
      "name": "Transfer",
      "type": "event"
    },
    {
      "inputs": [],
      "name": "DEFAULT_ADMIN_ROLE",
      "outputs": [
        {
          "internalType": "bytes32",
          "name": "",
          "type": "bytes32"
        }
      ],
      "stateMutability": "view",
      "type": "function"
    },
    {
      "inputs": [
        {
          "internalType": "address",
          "name": "owner",
          "type": "address"
        },
        {
          "internalType": "address",
          "name": "spender",
          "type": "address"
        }
      ],
      "name": "allowance",
      "outputs": [
        {
          "internalType": "uint256",
          "name": "",
          "type": "uint256"
        }
      ],
      "stateMutability": "view",
      "type": "function"
    },
    {
      "inputs": [
        {
          "internalType": "address",
          "name": "spender",
          "type": "address"
        },
        {
          "internalType": "uint256",
          "name": "amount",
          "type": "uint256"
        }
      ],
      "name": "approve",
      "outputs": [
        {
          "internalType": "bool",
          "name": "",
          "type": "bool"
        }
      ],
      "stateMutability": "nonpayable",
      "type": "function"
    },
    {
      "inputs": [
        {
          "internalType": "address",
          "name": "account",
          "type": "address"
        }
      ],
      "name": "balanceOf",
      "outputs": [
        {
          "internalType": "uint256",
          "name": "",
          "type": "uint256"
        }
      ],
      "stateMutability": "view",
      "type": "function"
    },
    {
      "inputs": [
        {
          "internalType": "uint256",
          "name": "_amount",
          "type": "uint256"
        }
      ],
      "name": "burn",
      "outputs": [],
      "stateMutability": "nonpayable",
      "type": "function"
    },
    {
      "inputs": [],
      "name": "decimals",
      "outputs": [
        {
          "internalType": "uint8",
          "name": "",
          "type": "uint8"
        }
      ],
      "stateMutability": "view",
      "type": "function"
    },
    {
      "inputs": [
        {
          "internalType": "address",
          "name": "spender",
          "type": "address"
        },
        {
          "internalType": "uint256",
          "name": "subtractedValue",
          "type": "uint256"
        }
      ],
      "name": "decreaseAllowance",
      "outputs": [
        {
          "internalType": "bool",
          "name": "",
          "type": "bool"
        }
      ],
      "stateMutability": "nonpayable",
      "type": "function"
    },
    {
      "inputs": [
        {
          "internalType": "bytes32",
          "name": "role",
          "type": "bytes32"
        }
      ],
      "name": "getRoleAdmin",
      "outputs": [
        {
          "internalType": "bytes32",
          "name": "",
          "type": "bytes32"
        }
      ],
      "stateMutability": "view",
      "type": "function"
    },
    {
      "inputs": [
        {
          "internalType": "bytes32",
          "name": "role",
          "type": "bytes32"
        },
        {
          "internalType": "address",
          "name": "account",
          "type": "address"
        }
      ],
      "name": "grantRole",
      "outputs": [],
      "stateMutability": "nonpayable",
      "type": "function"
    },
    {
      "inputs": [
        {
          "internalType": "bytes32",
          "name": "role",
          "type": "bytes32"
        },
        {
          "internalType": "address",
          "name": "account",
          "type": "address"
        }
      ],
      "name": "hasRole",
      "outputs": [
        {
          "internalType": "bool",
          "name": "",
          "type": "bool"
        }
      ],
      "stateMutability": "view",
      "type": "function"
    },
    {
      "inputs": [
        {
          "internalType": "address",
          "name": "spender",
          "type": "address"
        },
        {
          "internalType": "uint256",
          "name": "addedValue",
          "type": "uint256"
        }
      ],
      "name": "increaseAllowance",
      "outputs": [
        {
          "internalType": "bool",
          "name": "",
          "type": "bool"
        }
      ],
      "stateMutability": "nonpayable",
      "type": "function"
    },
    {
      "inputs": [
        {
          "internalType": "address",
          "name": "account",
          "type": "address"
        }
      ],
      "name": "isAdmin",
      "outputs": [
        {
          "internalType": "bool",
          "name": "",
          "type": "bool"
        }
      ],
      "stateMutability": "view",
      "type": "function"
    },
    {
      "inputs": [
        {
          "internalType": "address",
          "name": "account",
          "type": "address"
        }
      ],
      "name": "isMinter",
      "outputs": [
        {
          "internalType": "bool",
          "name": "",
          "type": "bool"
        }
      ],
      "stateMutability": "view",
      "type": "function"
    },
    {
      "inputs": [
        {
          "internalType": "address",
          "name": "to",
          "type": "address"
        },
        {
          "internalType": "uint256",
          "name": "amount",
          "type": "uint256"
        }
      ],
      "name": "mint",
      "outputs": [],
      "stateMutability": "nonpayable",
      "type": "function"
    },
    {
      "inputs": [],
      "name": "name",
      "outputs": [
        {
          "internalType": "string",
          "name": "",
          "type": "string"
        }
      ],
      "stateMutability": "view",
      "type": "function"
    },
    {
      "inputs": [
        {
          "internalType": "bytes32",
          "name": "role",
          "type": "bytes32"
        },
        {
          "internalType": "address",
          "name": "account",
          "type": "address"
        }
      ],
      "name": "renounceRole",
      "outputs": [],
      "stateMutability": "nonpayable",
      "type": "function"
    },
    {
      "inputs": [
        {
          "internalType": "bytes32",
          "name": "role",
          "type": "bytes32"
        },
        {
          "internalType": "address",
          "name": "account",
          "type": "address"
        }
      ],
      "name": "revokeRole",
      "outputs": [],
      "stateMutability": "nonpayable",
      "type": "function"
    },
    {
      "inputs": [
        {
          "internalType": "address",
          "name": "minter",
          "type": "address"
        }
      ],
      "name": "setMinterRole",
      "outputs": [],
      "stateMutability": "nonpayable",
      "type": "function"
    },
    {
      "inputs": [
        {
          "internalType": "bytes4",
          "name": "interfaceId",
          "type": "bytes4"
        }
      ],
      "name": "supportsInterface",
      "outputs": [
        {
          "internalType": "bool",
          "name": "",
          "type": "bool"
        }
      ],
      "stateMutability": "view",
      "type": "function"
    },
    {
      "inputs": [],
      "name": "symbol",
      "outputs": [
        {
          "internalType": "string",
          "name": "",
          "type": "string"
        }
      ],
      "stateMutability": "view",
      "type": "function"
    },
    {
      "inputs": [],
      "name": "totalSupply",
      "outputs": [
        {
          "internalType": "uint256",
          "name": "",
          "type": "uint256"
        }
      ],
      "stateMutability": "view",
      "type": "function"
    },
    {
      "inputs": [
        {
          "internalType": "address",
          "name": "to",
          "type": "address"
        },
        {
          "internalType": "uint256",
          "name": "amount",
          "type": "uint256"
        }
      ],
      "name": "transfer",
      "outputs": [
        {
          "internalType": "bool",
          "name": "",
          "type": "bool"
        }
      ],
      "stateMutability": "nonpayable",
      "type": "function"
    },
    {
      "inputs": [
        {
          "internalType": "address",
          "name": "from",
          "type": "address"
        },
        {
          "internalType": "address",
          "name": "to",
          "type": "address"
        },
        {
          "internalType": "uint256",
          "name": "amount",
          "type": "uint256"
        }
      ],
      "name": "transferFrom",
      "outputs": [
        {
          "internalType": "bool",
          "name": "",
          "type": "bool"
        }
      ],
      "stateMutability": "nonpayable",
      "type": "function"
    }
  ],
  "bytecode": "0x60806040527f9f2df0fed2c77648de5860a4cc508cd0818c85b8b8a1ab4ceeef8d981c8956a66006553480156200003557600080fd5b506040518060400160405280600981526020017f48656174546f6b656e00000000000000000000000000000000000000000000008152506040518060400160405280600481526020017f48454154000000000000000000000000000000000000000000000000000000008152508160039080519060200190620000ba9291906200026c565b508060049080519060200190620000d39291906200026c565b505050620000eb6000801b33620000f160201b60201c565b62000380565b6200010382826200010760201b60201c565b5050565b620001198282620001f960201b60201c565b620001f55760016005600084815260200190815260200160002060000160008373ffffffffffffffffffffffffffffffffffffffff1673ffffffffffffffffffffffffffffffffffffffff16815260200190815260200160002060006101000a81548160ff0219169083151502179055506200019a6200026460201b60201c565b73ffffffffffffffffffffffffffffffffffffffff168173ffffffffffffffffffffffffffffffffffffffff16837f2f8788117e7eff1d82e926ec794901d17c78024a50270940304540a733656f0d60405160405180910390a45b5050565b60006005600084815260200190815260200160002060000160008373ffffffffffffffffffffffffffffffffffffffff1673ffffffffffffffffffffffffffffffffffffffff16815260200190815260200160002060009054906101000a900460ff16905092915050565b600033905090565b8280546200027a906200034b565b90600052602060002090601f0160209004810192826200029e5760008555620002ea565b82601f10620002b957805160ff1916838001178555620002ea565b82800160010185558215620002ea579182015b82811115620002e9578251825591602001919060010190620002cc565b5b509050620002f99190620002fd565b5090565b5b8082111562000318576000816000905550600101620002fe565b5090565b7f4e487b7100000000000000000000000000000000000000000000000000000000600052602260045260246000fd5b600060028204905060018216806200036457607f821691505b6020821081036200037a57620003796200031c565b5b50919050565b61262480620003906000396000f3fe608060405234801561001057600080fd5b506004361061014d5760003560e01c806340c10f19116100c3578063a217fddf1161007c578063a217fddf146103d6578063a457c2d7146103f4578063a9059cbb14610424578063aa271e1a14610454578063d547741f14610484578063dd62ed3e146104a05761014d565b806340c10f191461030457806342966c681461032057806370a082311461033c57806391d148541461036c578063945d12291461039c57806395d89b41146103b85761014d565b8063248a9ca311610115578063248a9ca31461021e57806324d7806c1461024e5780632f2ff15d1461027e578063313ce5671461029a57806336568abe146102b857806339509351146102d45761014d565b806301ffc9a71461015257806306fdde0314610182578063095ea7b3146101a057806318160ddd146101d057806323b872dd146101ee575b600080fd5b61016c60048036038101906101679190611807565b6104d0565b604051610179919061184f565b60405180910390f35b61018a61054a565b6040516101979190611903565b60405180910390f35b6101ba60048036038101906101b591906119b9565b6105dc565b6040516101c7919061184f565b60405180910390f35b6101d86105ff565b6040516101e59190611a08565b60405180910390f35b61020860048036038101906102039190611a23565b610609565b604051610215919061184f565b60405180910390f35b61023860048036038101906102339190611aac565b610638565b6040516102459190611ae8565b60405180910390f35b61026860048036038101906102639190611b03565b610658565b604051610275919061184f565b60405180910390f35b61029860048036038101906102939190611b30565b61066e565b005b6102a261068f565b6040516102af9190611b8c565b60405180910390f35b6102d260048036038101906102cd9190611b30565b610698565b005b6102ee60048036038101906102e991906119b9565b61071b565b6040516102fb919061184f565b60405180910390f35b61031e600480360381019061031991906119b9565b610752565b005b61033a60048036038101906103359190611ba7565b610760565b005b61035660048036038101906103519190611b03565b61076d565b6040516103639190611a08565b60405180910390f35b61038660048036038101906103819190611b30565b6107b5565b604051610393919061184f565b60405180910390f35b6103b660048036038101906103b19190611b03565b610820565b005b6103c0610877565b6040516103cd9190611903565b60405180910390f35b6103de610909565b6040516103eb9190611ae8565b60405180910390f35b61040e600480360381019061040991906119b9565b610910565b60405161041b919061184f565b60405180910390f35b61043e600480360381019061043991906119b9565b610987565b60405161044b919061184f565b60405180910390f35b61046e60048036038101906104699190611b03565b6109aa565b60405161047b919061184f565b60405180910390f35b61049e60048036038101906104999190611b30565b6109bf565b005b6104ba60048036038101906104b59190611bd4565b6109e0565b6040516104c79190611a08565b60405180910390f35b60007f7965db0b000000000000000000000000000000000000000000000000000000007bffffffffffffffffffffffffffffffffffffffffffffffffffffffff1916827bffffffffffffffffffffffffffffffffffffffffffffffffffffffff19161480610543575061054282610a67565b5b9050919050565b60606003805461055990611c43565b80601f016020809104026020016040519081016040528092919081815260200182805461058590611c43565b80156105d25780601f106105a7576101008083540402835291602001916105d2565b820191906000526020600020905b8154815290600101906020018083116105b557829003601f168201915b5050505050905090565b6000806105e7610ad1565b90506105f4818585610ad9565b600191505092915050565b6000600254905090565b600080610614610ad1565b9050610621858285610ca2565b61062c858585610d2e565b60019150509392505050565b600060056000838152602001908152602001600020600101549050919050565b60006106676000801b836107b5565b9050919050565b61067782610638565b61068081610fad565b61068a8383610fc1565b505050565b60006012905090565b6106a0610ad1565b73ffffffffffffffffffffffffffffffffffffffff168173ffffffffffffffffffffffffffffffffffffffff161461070d576040517f08c379a000000000000000000000000000000000000000000000000000000000815260040161070490611ce6565b60405180910390fd5b61071782826110a2565b5050565b600080610726610ad1565b905061074781858561073885896109e0565b6107429190611d35565b610ad9565b600191505092915050565b61075c8282611184565b5050565b61076a33826112e3565b50565b60008060008373ffffffffffffffffffffffffffffffffffffffff1673ffffffffffffffffffffffffffffffffffffffff168152602001908152602001600020549050919050565b60006005600084815260200190815260200160002060000160008373ffffffffffffffffffffffffffffffffffffffff1673ffffffffffffffffffffffffffffffffffffffff16815260200190815260200160002060009054906101000a900460ff16905092915050565b61082933610658565b610868576040517f08c379a000000000000000000000000000000000000000000000000000000000815260040161085f90611dd7565b60405180910390fd5b610874600654826114b9565b50565b60606004805461088690611c43565b80601f01602080910402602001604051908101604052809291908181526020018280546108b290611c43565b80156108ff5780601f106108d4576101008083540402835291602001916108ff565b820191906000526020600020905b8154815290600101906020018083116108e257829003601f168201915b5050505050905090565b6000801b81565b60008061091b610ad1565b9050600061092982866109e0565b90508381101561096e576040517f08c379a000000000000000000000000000000000000000000000000000000000815260040161096590611e69565b60405180910390fd5b61097b8286868403610ad9565b60019250505092915050565b600080610992610ad1565b905061099f818585610d2e565b600191505092915050565b60006109b8600654836107b5565b9050919050565b6109c882610638565b6109d181610fad565b6109db83836110a2565b505050565b6000600160008473ffffffffffffffffffffffffffffffffffffffff1673ffffffffffffffffffffffffffffffffffffffff16815260200190815260200160002060008373ffffffffffffffffffffffffffffffffffffffff1673ffffffffffffffffffffffffffffffffffffffff16815260200190815260200160002054905092915050565b60007f01ffc9a7000000000000000000000000000000000000000000000000000000007bffffffffffffffffffffffffffffffffffffffffffffffffffffffff1916827bffffffffffffffffffffffffffffffffffffffffffffffffffffffff1916149050919050565b600033905090565b600073ffffffffffffffffffffffffffffffffffffffff168373ffffffffffffffffffffffffffffffffffffffff1603610b48576040517f08c379a0000000000000000000000000000000000000000000000000000000008152600401610b3f90611efb565b60405180910390fd5b600073ffffffffffffffffffffffffffffffffffffffff168273ffffffffffffffffffffffffffffffffffffffff1603610bb7576040517f08c379a0000000000000000000000000000000000000000000000000000000008152600401610bae90611f8d565b60405180910390fd5b80600160008573ffffffffffffffffffffffffffffffffffffffff1673ffffffffffffffffffffffffffffffffffffffff16815260200190815260200160002060008473ffffffffffffffffffffffffffffffffffffffff1673ffffffffffffffffffffffffffffffffffffffff168152602001908152602001600020819055508173ffffffffffffffffffffffffffffffffffffffff168373ffffffffffffffffffffffffffffffffffffffff167f8c5be1e5ebec7d5bd14f71427d1e84f3dd0314c0f7b2291e5b200ac8c7c3b92583604051610c959190611a08565b60405180910390a3505050565b6000610cae84846109e0565b90507fffffffffffffffffffffffffffffffffffffffffffffffffffffffffffffffff8114610d285781811015610d1a576040517f08c379a0000000000000000000000000000000000000000000000000000000008152600401610d1190611ff9565b60405180910390fd5b610d278484848403610ad9565b5b50505050565b600073ffffffffffffffffffffffffffffffffffffffff168373ffffffffffffffffffffffffffffffffffffffff1603610d9d576040517f08c379a0000000000000000000000000000000000000000000000000000000008152600401610d949061208b565b60405180910390fd5b600073ffffffffffffffffffffffffffffffffffffffff168273ffffffffffffffffffffffffffffffffffffffff1603610e0c576040517f08c379a0000000000000000000000000000000000000000000000000000000008152600401610e039061211d565b60405180910390fd5b610e178383836114c7565b60008060008573ffffffffffffffffffffffffffffffffffffffff1673ffffffffffffffffffffffffffffffffffffffff16815260200190815260200160002054905081811015610e9d576040517f08c379a0000000000000000000000000000000000000000000000000000000008152600401610e94906121af565b60405180910390fd5b8181036000808673ffffffffffffffffffffffffffffffffffffffff1673ffffffffffffffffffffffffffffffffffffffff16815260200190815260200160002081905550816000808573ffffffffffffffffffffffffffffffffffffffff1673ffffffffffffffffffffffffffffffffffffffff1681526020019081526020016000206000828254610f309190611d35565b925050819055508273ffffffffffffffffffffffffffffffffffffffff168473ffffffffffffffffffffffffffffffffffffffff167fddf252ad1be2c89b69c2b068fc378daa952ba7f163c4a11628f55a4df523b3ef84604051610f949190611a08565b60405180910390a3610fa78484846114cc565b50505050565b610fbe81610fb9610ad1565b6114d1565b50565b610fcb82826107b5565b61109e5760016005600084815260200190815260200160002060000160008373ffffffffffffffffffffffffffffffffffffffff1673ffffffffffffffffffffffffffffffffffffffff16815260200190815260200160002060006101000a81548160ff021916908315150217905550611043610ad1565b73ffffffffffffffffffffffffffffffffffffffff168173ffffffffffffffffffffffffffffffffffffffff16837f2f8788117e7eff1d82e926ec794901d17c78024a50270940304540a733656f0d60405160405180910390a45b5050565b6110ac82826107b5565b156111805760006005600084815260200190815260200160002060000160008373ffffffffffffffffffffffffffffffffffffffff1673ffffffffffffffffffffffffffffffffffffffff16815260200190815260200160002060006101000a81548160ff021916908315150217905550611125610ad1565b73ffffffffffffffffffffffffffffffffffffffff168173ffffffffffffffffffffffffffffffffffffffff16837ff6391f5c32d9c69d2a47ea670b442974b53935d1edc7fd64eb21e047a839171b60405160405180910390a45b5050565b600073ffffffffffffffffffffffffffffffffffffffff168273ffffffffffffffffffffffffffffffffffffffff16036111f3576040517f08c379a00000000000000000000000000000000000000000000000000000000081526004016111ea9061221b565b60405180910390fd5b6111ff600083836114c7565b80600260008282546112119190611d35565b92505081905550806000808473ffffffffffffffffffffffffffffffffffffffff1673ffffffffffffffffffffffffffffffffffffffff16815260200190815260200160002060008282546112669190611d35565b925050819055508173ffffffffffffffffffffffffffffffffffffffff16600073ffffffffffffffffffffffffffffffffffffffff167fddf252ad1be2c89b69c2b068fc378daa952ba7f163c4a11628f55a4df523b3ef836040516112cb9190611a08565b60405180910390a36112df600083836114cc565b5050565b600073ffffffffffffffffffffffffffffffffffffffff168273ffffffffffffffffffffffffffffffffffffffff1603611352576040517f08c379a0000000000000000000000000000000000000000000000000000000008152600401611349906122ad565b60405180910390fd5b61135e826000836114c7565b60008060008473ffffffffffffffffffffffffffffffffffffffff1673ffffffffffffffffffffffffffffffffffffffff168152602001908152602001600020549050818110156113e4576040517f08c379a00000000000000000000000000000000000000000000000000000000081526004016113db9061233f565b60405180910390fd5b8181036000808573ffffffffffffffffffffffffffffffffffffffff1673ffffffffffffffffffffffffffffffffffffffff16815260200190815260200160002081905550816002600082825461143b919061235f565b92505081905550600073ffffffffffffffffffffffffffffffffffffffff168373ffffffffffffffffffffffffffffffffffffffff167fddf252ad1be2c89b69c2b068fc378daa952ba7f163c4a11628f55a4df523b3ef846040516114a09190611a08565b60405180910390a36114b4836000846114cc565b505050565b6114c38282610fc1565b5050565b505050565b505050565b6114db82826107b5565b61156a576115008173ffffffffffffffffffffffffffffffffffffffff16601461156e565b61150e8360001c602061156e565b60405160200161151f929190612467565b6040516020818303038152906040526040517f08c379a00000000000000000000000000000000000000000000000000000000081526004016115619190611903565b60405180910390fd5b5050565b60606000600283600261158191906124a1565b61158b9190611d35565b67ffffffffffffffff8111156115a4576115a36124fb565b5b6040519080825280601f01601f1916602001820160405280156115d65781602001600182028036833780820191505090505b5090507f30000000000000000000000000000000000000000000000000000000000000008160008151811061160e5761160d61252a565b5b60200101907effffffffffffffffffffffffffffffffffffffffffffffffffffffffffffff1916908160001a9053507f7800000000000000000000000000000000000000000000000000000000000000816001815181106116725761167161252a565b5b60200101907effffffffffffffffffffffffffffffffffffffffffffffffffffffffffffff1916908160001a905350600060018460026116b291906124a1565b6116bc9190611d35565b90505b600181111561175c577f3031323334353637383961626364656600000000000000000000000000000000600f8616601081106116fe576116fd61252a565b5b1a60f81b8282815181106117155761171461252a565b5b60200101907effffffffffffffffffffffffffffffffffffffffffffffffffffffffffffff1916908160001a905350600485901c94508061175590612559565b90506116bf565b50600084146117a0576040517f08c379a0000000000000000000000000000000000000000000000000000000008152600401611797906125ce565b60405180910390fd5b8091505092915050565b600080fd5b60007fffffffff0000000000000000000000000000000000000000000000000000000082169050919050565b6117e4816117af565b81146117ef57600080fd5b50565b600081359050611801816117db565b92915050565b60006020828403121561181d5761181c6117aa565b5b600061182b848285016117f2565b91505092915050565b60008115159050919050565b61184981611834565b82525050565b60006020820190506118646000830184611840565b92915050565b600081519050919050565b600082825260208201905092915050565b60005b838110156118a4578082015181840152602081019050611889565b838111156118b3576000848401525b50505050565b6000601f19601f8301169050919050565b60006118d58261186a565b6118df8185611875565b93506118ef818560208601611886565b6118f8816118b9565b840191505092915050565b6000602082019050818103600083015261191d81846118ca565b905092915050565b600073ffffffffffffffffffffffffffffffffffffffff82169050919050565b600061195082611925565b9050919050565b61196081611945565b811461196b57600080fd5b50565b60008135905061197d81611957565b92915050565b6000819050919050565b61199681611983565b81146119a157600080fd5b50565b6000813590506119b38161198d565b92915050565b600080604083850312156119d0576119cf6117aa565b5b60006119de8582860161196e565b92505060206119ef858286016119a4565b9150509250929050565b611a0281611983565b82525050565b6000602082019050611a1d60008301846119f9565b92915050565b600080600060608486031215611a3c57611a3b6117aa565b5b6000611a4a8682870161196e565b9350506020611a5b8682870161196e565b9250506040611a6c868287016119a4565b9150509250925092565b6000819050919050565b611a8981611a76565b8114611a9457600080fd5b50565b600081359050611aa681611a80565b92915050565b600060208284031215611ac257611ac16117aa565b5b6000611ad084828501611a97565b91505092915050565b611ae281611a76565b82525050565b6000602082019050611afd6000830184611ad9565b92915050565b600060208284031215611b1957611b186117aa565b5b6000611b278482850161196e565b91505092915050565b60008060408385031215611b4757611b466117aa565b5b6000611b5585828601611a97565b9250506020611b668582860161196e565b9150509250929050565b600060ff82169050919050565b611b8681611b70565b82525050565b6000602082019050611ba16000830184611b7d565b92915050565b600060208284031215611bbd57611bbc6117aa565b5b6000611bcb848285016119a4565b91505092915050565b60008060408385031215611beb57611bea6117aa565b5b6000611bf98582860161196e565b9250506020611c0a8582860161196e565b9150509250929050565b7f4e487b7100000000000000000000000000000000000000000000000000000000600052602260045260246000fd5b60006002820490506001821680611c5b57607f821691505b602082108103611c6e57611c6d611c14565b5b50919050565b7f416363657373436f6e74726f6c3a2063616e206f6e6c792072656e6f756e636560008201527f20726f6c657320666f722073656c660000000000000000000000000000000000602082015250565b6000611cd0602f83611875565b9150611cdb82611c74565b604082019050919050565b60006020820190508181036000830152611cff81611cc3565b9050919050565b7f4e487b7100000000000000000000000000000000000000000000000000000000600052601160045260246000fd5b6000611d4082611983565b9150611d4b83611983565b9250827fffffffffffffffffffffffffffffffffffffffffffffffffffffffffffffffff03821115611d8057611d7f611d06565b5b828201905092915050565b7f5265737472696374656420746f2061646d696e732e0000000000000000000000600082015250565b6000611dc1601583611875565b9150611dcc82611d8b565b602082019050919050565b60006020820190508181036000830152611df081611db4565b9050919050565b7f45524332303a2064656372656173656420616c6c6f77616e63652062656c6f7760008201527f207a65726f000000000000000000000000000000000000000000000000000000602082015250565b6000611e53602583611875565b9150611e5e82611df7565b604082019050919050565b60006020820190508181036000830152611e8281611e46565b9050919050565b7f45524332303a20617070726f76652066726f6d20746865207a65726f2061646460008201527f7265737300000000000000000000000000000000000000000000000000000000602082015250565b6000611ee5602483611875565b9150611ef082611e89565b604082019050919050565b60006020820190508181036000830152611f1481611ed8565b9050919050565b7f45524332303a20617070726f766520746f20746865207a65726f20616464726560008201527f7373000000000000000000000000000000000000000000000000000000000000602082015250565b6000611f77602283611875565b9150611f8282611f1b565b604082019050919050565b60006020820190508181036000830152611fa681611f6a565b9050919050565b7f45524332303a20696e73756666696369656e7420616c6c6f77616e6365000000600082015250565b6000611fe3601d83611875565b9150611fee82611fad565b602082019050919050565b6000602082019050818103600083015261201281611fd6565b9050919050565b7f45524332303a207472616e736665722066726f6d20746865207a65726f20616460008201527f6472657373000000000000000000000000000000000000000000000000000000602082015250565b6000612075602583611875565b915061208082612019565b604082019050919050565b600060208201905081810360008301526120a481612068565b9050919050565b7f45524332303a207472616e7366657220746f20746865207a65726f206164647260008201527f6573730000000000000000000000000000000000000000000000000000000000602082015250565b6000612107602383611875565b9150612112826120ab565b604082019050919050565b60006020820190508181036000830152612136816120fa565b9050919050565b7f45524332303a207472616e7366657220616d6f756e742065786365656473206260008201527f616c616e63650000000000000000000000000000000000000000000000000000602082015250565b6000612199602683611875565b91506121a48261213d565b604082019050919050565b600060208201905081810360008301526121c88161218c565b9050919050565b7f45524332303a206d696e7420746f20746865207a65726f206164647265737300600082015250565b6000612205601f83611875565b9150612210826121cf565b602082019050919050565b60006020820190508181036000830152612234816121f8565b9050919050565b7f45524332303a206275726e2066726f6d20746865207a65726f2061646472657360008201527f7300000000000000000000000000000000000000000000000000000000000000602082015250565b6000612297602183611875565b91506122a28261223b565b604082019050919050565b600060208201905081810360008301526122c68161228a565b9050919050565b7f45524332303a206275726e20616d6f756e7420657863656564732062616c616e60008201527f6365000000000000000000000000000000000000000000000000000000000000602082015250565b6000612329602283611875565b9150612334826122cd565b604082019050919050565b600060208201905081810360008301526123588161231c565b9050919050565b600061236a82611983565b915061237583611983565b92508282101561238857612387611d06565b5b828203905092915050565b600081905092915050565b7f416363657373436f6e74726f6c3a206163636f756e7420000000000000000000600082015250565b60006123d4601783612393565b91506123df8261239e565b601782019050919050565b60006123f58261186a565b6123ff8185612393565b935061240f818560208601611886565b80840191505092915050565b7f206973206d697373696e6720726f6c6520000000000000000000000000000000600082015250565b6000612451601183612393565b915061245c8261241b565b601182019050919050565b6000612472826123c7565b915061247e82856123ea565b915061248982612444565b915061249582846123ea565b91508190509392505050565b60006124ac82611983565b91506124b783611983565b9250817fffffffffffffffffffffffffffffffffffffffffffffffffffffffffffffffff04831182151516156124f0576124ef611d06565b5b828202905092915050565b7f4e487b7100000000000000000000000000000000000000000000000000000000600052604160045260246000fd5b7f4e487b7100000000000000000000000000000000000000000000000000000000600052603260045260246000fd5b600061256482611983565b91506000820361257757612576611d06565b5b600182039050919050565b7f537472696e67733a20686578206c656e67746820696e73756666696369656e74600082015250565b60006125b8602083611875565b91506125c382612582565b602082019050919050565b600060208201905081810360008301526125e7816125ab565b905091905056fea2646970667358221220192235ff2c65fe74f792b7bb211c79e56353a586e5dc79c35eec29afc4d2a1b764736f6c634300080d0033",
  "linkReferences": {},
  "deployedLinkReferences": {}
}