{
  "_format": "hh-sol-artifact-1",
  "contractName": "CyberLionzCubzMock",
  "sourceName": "contracts/mocks/CyberLionzMock.sol",
  "abi": [
    {
      "inputs": [
        {
          "internalType": "string",
          "name": "baseUri",
          "type": "string"
        },
        {
          "internalType": "bytes32",
          "name": "merkleRoot",
          "type": "bytes32"
        }
      ],
      "stateMutability": "nonpayable",
      "type": "constructor"
    },
    {
      "anonymous": false,
      "inputs": [
        {
          "indexed": true,
          "internalType": "address",
          "name": "owner",
          "type": "address"
        },
        {
          "indexed": true,
          "internalType": "address",
          "name": "approved",
          "type": "address"
        },
        {
          "indexed": true,
          "internalType": "uint256",
          "name": "tokenId",
          "type": "uint256"
        }
      ],
      "name": "Approval",
      "type": "event"
    },
    {
      "anonymous": false,
      "inputs": [
        {
          "indexed": true,
          "internalType": "address",
          "name": "owner",
          "type": "address"
        },
        {
          "indexed": true,
          "internalType": "address",
          "name": "operator",
          "type": "address"
        },
        {
          "indexed": false,
          "internalType": "bool",
          "name": "approved",
          "type": "bool"
        }
      ],
      "name": "ApprovalForAll",
      "type": "event"
    },
    {
      "anonymous": false,
      "inputs": [
        {
          "indexed": true,
          "internalType": "address",
          "name": "previousOwner",
          "type": "address"
        },
        {
          "indexed": true,
          "internalType": "address",
          "name": "newOwner",
          "type": "address"
        }
      ],
      "name": "OwnershipTransferred",
      "type": "event"
    },
    {
      "anonymous": false,
      "inputs": [
        {
          "indexed": true,
          "internalType": "address",
          "name": "from",
          "type": "address"
        },
        {
          "indexed": true,
          "internalType": "address",
          "name": "to",
          "type": "address"
        },
        {
          "indexed": true,
          "internalType": "uint256",
          "name": "tokenId",
          "type": "uint256"
        }
      ],
      "name": "Transfer",
      "type": "event"
    },
    {
      "inputs": [],
      "name": "COLLECTION_SIZE",
      "outputs": [
        {
          "internalType": "uint256",
          "name": "",
          "type": "uint256"
        }
      ],
      "stateMutability": "view",
      "type": "function"
    },
    {
      "inputs": [],
      "name": "MINT_PRICE",
      "outputs": [
        {
          "internalType": "uint256",
          "name": "",
          "type": "uint256"
        }
      ],
      "stateMutability": "view",
      "type": "function"
    },
    {
      "inputs": [],
      "name": "PUBLIC_MINT_LIMIT",
      "outputs": [
        {
          "internalType": "uint256",
          "name": "",
          "type": "uint256"
        }
      ],
      "stateMutability": "view",
      "type": "function"
    },
    {
      "inputs": [
        {
          "internalType": "address",
          "name": "to",
          "type": "address"
        },
        {
          "internalType": "uint256",
          "name": "count",
          "type": "uint256"
        }
      ],
      "name": "airdrop",
      "outputs": [],
      "stateMutability": "nonpayable",
      "type": "function"
    },
    {
      "inputs": [],
      "name": "airdropped",
      "outputs": [
        {
          "internalType": "uint256",
          "name": "",
          "type": "uint256"
        }
      ],
      "stateMutability": "view",
      "type": "function"
    },
    {
      "inputs": [
        {
          "internalType": "address",
          "name": "to",
          "type": "address"
        },
        {
          "internalType": "uint256",
          "name": "tokenId",
          "type": "uint256"
        }
      ],
      "name": "approve",
      "outputs": [],
      "stateMutability": "nonpayable",
      "type": "function"
    },
    {
      "inputs": [
        {
          "internalType": "address",
          "name": "owner",
          "type": "address"
        }
      ],
      "name": "balanceOf",
      "outputs": [
        {
          "internalType": "uint256",
          "name": "",
          "type": "uint256"
        }
      ],
      "stateMutability": "view",
      "type": "function"
    },
    {
      "inputs": [],
      "name": "finalizeMetadata",
      "outputs": [],
      "stateMutability": "nonpayable",
      "type": "function"
    },
    {
      "inputs": [],
      "name": "finalized",
      "outputs": [
        {
          "internalType": "bool",
          "name": "",
          "type": "bool"
        }
      ],
      "stateMutability": "view",
      "type": "function"
    },
    {
      "inputs": [
        {
          "internalType": "uint256",
          "name": "tokenId",
          "type": "uint256"
        }
      ],
      "name": "getApproved",
      "outputs": [
        {
          "internalType": "address",
          "name": "",
          "type": "address"
        }
      ],
      "stateMutability": "view",
      "type": "function"
    },
    {
      "inputs": [
        {
          "internalType": "address",
          "name": "owner",
          "type": "address"
        },
        {
          "internalType": "address",
          "name": "operator",
          "type": "address"
        }
      ],
      "name": "isApprovedForAll",
      "outputs": [
        {
          "internalType": "bool",
          "name": "",
          "type": "bool"
        }
      ],
      "stateMutability": "view",
      "type": "function"
    },
    {
      "inputs": [
        {
          "internalType": "uint256",
          "name": "count",
          "type": "uint256"
        }
      ],
      "name": "mint",
      "outputs": [],
      "stateMutability": "nonpayable",
      "type": "function"
    },
    {
      "inputs": [],
      "name": "name",
      "outputs": [
        {
          "internalType": "string",
          "name": "",
          "type": "string"
        }
      ],
      "stateMutability": "view",
      "type": "function"
    },
    {
      "inputs": [
        {
          "internalType": "address",
          "name": "addr",
          "type": "address"
        },
        {
          "internalType": "bytes32[]",
          "name": "_merkleProof",
          "type": "bytes32[]"
        }
      ],
      "name": "onWhitelist",
      "outputs": [
        {
          "internalType": "bool",
          "name": "",
          "type": "bool"
        }
      ],
      "stateMutability": "view",
      "type": "function"
    },
    {
      "inputs": [],
      "name": "owner",
      "outputs": [
        {
          "internalType": "address",
          "name": "",
          "type": "address"
        }
      ],
      "stateMutability": "view",
      "type": "function"
    },
    {
      "inputs": [
        {
          "internalType": "uint256",
          "name": "tokenId",
          "type": "uint256"
        }
      ],
      "name": "ownerOf",
      "outputs": [
        {
          "internalType": "address",
          "name": "",
          "type": "address"
        }
      ],
      "stateMutability": "view",
      "type": "function"
    },
    {
      "inputs": [],
      "name": "presaleMerkleRoot",
      "outputs": [
        {
          "internalType": "bytes32",
          "name": "",
          "type": "bytes32"
        }
      ],
      "stateMutability": "view",
      "type": "function"
    },
    {
      "inputs": [
        {
          "internalType": "bytes32[]",
          "name": "_merkleProof",
          "type": "bytes32[]"
        }
      ],
      "name": "presaleMint",
      "outputs": [],
      "stateMutability": "payable",
      "type": "function"
    },
    {
      "inputs": [],
      "name": "renounceOwnership",
      "outputs": [],
      "stateMutability": "nonpayable",
      "type": "function"
    },
    {
      "inputs": [
        {
          "internalType": "address",
          "name": "from",
          "type": "address"
        },
        {
          "internalType": "address",
          "name": "to",
          "type": "address"
        },
        {
          "internalType": "uint256",
          "name": "tokenId",
          "type": "uint256"
        }
      ],
      "name": "safeTransferFrom",
      "outputs": [],
      "stateMutability": "nonpayable",
      "type": "function"
    },
    {
      "inputs": [
        {
          "internalType": "address",
          "name": "from",
          "type": "address"
        },
        {
          "internalType": "address",
          "name": "to",
          "type": "address"
        },
        {
          "internalType": "uint256",
          "name": "tokenId",
          "type": "uint256"
        },
        {
          "internalType": "bytes",
          "name": "_data",
          "type": "bytes"
        }
      ],
      "name": "safeTransferFrom",
      "outputs": [],
      "stateMutability": "nonpayable",
      "type": "function"
    },
    {
      "inputs": [],
      "name": "saleStatus",
      "outputs": [
        {
          "internalType": "enum CyberLionzCubzMock.SaleStatus",
          "name": "",
          "type": "uint8"
        }
      ],
      "stateMutability": "view",
      "type": "function"
    },
    {
      "inputs": [
        {
          "internalType": "address",
          "name": "operator",
          "type": "address"
        },
        {
          "internalType": "bool",
          "name": "approved",
          "type": "bool"
        }
      ],
      "name": "setApprovalForAll",
      "outputs": [],
      "stateMutability": "nonpayable",
      "type": "function"
    },
    {
      "inputs": [
        {
          "internalType": "string",
          "name": "baseUri",
          "type": "string"
        }
      ],
      "name": "setBaseURI",
      "outputs": [],
      "stateMutability": "nonpayable",
      "type": "function"
    },
    {
      "inputs": [
        {
          "internalType": "bytes32",
          "name": "merkleRoot",
          "type": "bytes32"
        }
      ],
      "name": "setPresaleMerkleRoot",
      "outputs": [],
      "stateMutability": "nonpayable",
      "type": "function"
    },
    {
      "inputs": [
        {
          "internalType": "enum CyberLionzCubzMock.SaleStatus",
          "name": "status",
          "type": "uint8"
        }
      ],
      "name": "setSaleStatus",
      "outputs": [],
      "stateMutability": "nonpayable",
      "type": "function"
    },
    {
      "inputs": [
        {
          "internalType": "bytes4",
          "name": "interfaceId",
          "type": "bytes4"
        }
      ],
      "name": "supportsInterface",
      "outputs": [
        {
          "internalType": "bool",
          "name": "",
          "type": "bool"
        }
      ],
      "stateMutability": "view",
      "type": "function"
    },
    {
      "inputs": [],
      "name": "symbol",
      "outputs": [
        {
          "internalType": "string",
          "name": "",
          "type": "string"
        }
      ],
      "stateMutability": "view",
      "type": "function"
    },
    {
      "inputs": [
        {
          "internalType": "uint256",
          "name": "tokenId",
          "type": "uint256"
        }
      ],
      "name": "tokenURI",
      "outputs": [
        {
          "internalType": "string",
          "name": "",
          "type": "string"
        }
      ],
      "stateMutability": "view",
      "type": "function"
    },
    {
      "inputs": [],
      "name": "totalSupply",
      "outputs": [
        {
          "internalType": "uint256",
          "name": "",
          "type": "uint256"
        }
      ],
      "stateMutability": "view",
      "type": "function"
    },
    {
      "inputs": [
        {
          "internalType": "address",
          "name": "from",
          "type": "address"
        },
        {
          "internalType": "address",
          "name": "to",
          "type": "address"
        },
        {
          "internalType": "uint256",
          "name": "tokenId",
          "type": "uint256"
        }
      ],
      "name": "transferFrom",
      "outputs": [],
      "stateMutability": "nonpayable",
      "type": "function"
    },
    {
      "inputs": [
        {
          "internalType": "address",
          "name": "newOwner",
          "type": "address"
        }
      ],
      "name": "transferOwnership",
      "outputs": [],
      "stateMutability": "nonpayable",
      "type": "function"
    },
    {
      "inputs": [],
      "name": "withdraw",
      "outputs": [],
      "stateMutability": "nonpayable",
      "type": "function"
    }
  ],
  "bytecode": "0x60806040526000600960006101000a81548160ff021916908360028111156200002d576200002c620002eb565b5b02179055506000600960016101000a81548160ff0219169083151502179055506000600a553480156200005f57600080fd5b5060405162004be038038062004be08339818101604052810190620000859190620004f2565b6040518060400160405280600e81526020017f43796265724c696f6e7a4375627a0000000000000000000000000000000000008152506040518060400160405280600381526020017f434c4300000000000000000000000000000000000000000000000000000000008152508160009080519060200190620001099291906200023b565b508060019080519060200190620001229291906200023b565b50505062000145620001396200016d60201b60201c565b6200017560201b60201c565b81600b90805190602001906200015d9291906200023b565b50806008819055505050620005bc565b600033905090565b6000600660009054906101000a900473ffffffffffffffffffffffffffffffffffffffff16905081600660006101000a81548173ffffffffffffffffffffffffffffffffffffffff021916908373ffffffffffffffffffffffffffffffffffffffff1602179055508173ffffffffffffffffffffffffffffffffffffffff168173ffffffffffffffffffffffffffffffffffffffff167f8be0079c531659141344cd1fd0a4f28419497f9722a3daafe3b4186f6b6457e060405160405180910390a35050565b828054620002499062000587565b90600052602060002090601f0160209004810192826200026d5760008555620002b9565b82601f106200028857805160ff1916838001178555620002b9565b82800160010185558215620002b9579182015b82811115620002b85782518255916020019190600101906200029b565b5b509050620002c89190620002cc565b5090565b5b80821115620002e7576000816000905550600101620002cd565b5090565b7f4e487b7100000000000000000000000000000000000000000000000000000000600052602160045260246000fd5b6000604051905090565b600080fd5b600080fd5b600080fd5b600080fd5b6000601f19601f8301169050919050565b7f4e487b7100000000000000000000000000000000000000000000000000000000600052604160045260246000fd5b620003838262000338565b810181811067ffffffffffffffff82111715620003a557620003a462000349565b5b80604052505050565b6000620003ba6200031a565b9050620003c8828262000378565b919050565b600067ffffffffffffffff821115620003eb57620003ea62000349565b5b620003f68262000338565b9050602081019050919050565b60005b838110156200042357808201518184015260208101905062000406565b8381111562000433576000848401525b50505050565b6000620004506200044a84620003cd565b620003ae565b9050828152602081018484840111156200046f576200046e62000333565b5b6200047c84828562000403565b509392505050565b600082601f8301126200049c576200049b6200032e565b5b8151620004ae84826020860162000439565b91505092915050565b6000819050919050565b620004cc81620004b7565b8114620004d857600080fd5b50565b600081519050620004ec81620004c1565b92915050565b600080604083850312156200050c576200050b62000324565b5b600083015167ffffffffffffffff8111156200052d576200052c62000329565b5b6200053b8582860162000484565b92505060206200054e85828601620004db565b9150509250929050565b7f4e487b7100000000000000000000000000000000000000000000000000000000600052602260045260246000fd5b60006002820490506001821680620005a057607f821691505b602082108103620005b657620005b562000558565b5b50919050565b61461480620005cc6000396000f3fe6080604052600436106101ee5760003560e01c80638ba4cc3c1161010d578063c002d23d116100a0578063e985e9c51161006f578063e985e9c5146106d7578063edc0c72c14610714578063f2fde38b14610730578063f4a560a514610759578063f9020e3314610770576101ee565b8063c002d23d14610607578063c87b56dd14610632578063c9d40e181461066f578063d8258d95146106ac576101ee565b8063a22cb465116100dc578063a22cb4651461055f578063b3f05b9714610588578063b88d4fde146105b3578063bceae77b146105dc576101ee565b80638ba4cc3c146104b75780638da5cb5b146104e057806395d89b411461050b578063a0712d6814610536576101ee565b806328d7b2761161018557806355f804b31161015457806355f804b3146103fd5780636352211e1461042657806370a0823114610463578063715018a6146104a0576101ee565b806328d7b2761461036b5780633ccfd60b1461039457806342842e0e146103ab5780634891ad88146103d4576101ee565b806318160ddd116101c157806318160ddd146102c157806319cc02aa146102ec57806322212e2b1461031757806323b872dd14610342576101ee565b806301ffc9a7146101f357806306fdde0314610230578063081812fc1461025b578063095ea7b314610298575b600080fd5b3480156101ff57600080fd5b5061021a60048036038101906102159190612a25565b61079b565b6040516102279190612a6d565b60405180910390f35b34801561023c57600080fd5b5061024561087d565b6040516102529190612b21565b60405180910390f35b34801561026757600080fd5b50610282600480360381019061027d9190612b79565b61090f565b60405161028f9190612be7565b60405180910390f35b3480156102a457600080fd5b506102bf60048036038101906102ba9190612c2e565b610994565b005b3480156102cd57600080fd5b506102d6610aab565b6040516102e39190612c7d565b60405180910390f35b3480156102f857600080fd5b50610301610abc565b60405161030e9190612c7d565b60405180910390f35b34801561032357600080fd5b5061032c610ac2565b6040516103399190612cb1565b60405180910390f35b34801561034e57600080fd5b5061036960048036038101906103649190612ccc565b610ac8565b005b34801561037757600080fd5b50610392600480360381019061038d9190612d4b565b610b28565b005b3480156103a057600080fd5b506103a9610bfe565b005b3480156103b757600080fd5b506103d260048036038101906103cd9190612ccc565b610dba565b005b3480156103e057600080fd5b506103fb60048036038101906103f69190612d9d565b610dda565b005b34801561040957600080fd5b50610424600480360381019061041f9190612eff565b610e83565b005b34801561043257600080fd5b5061044d60048036038101906104489190612b79565b610f69565b60405161045a9190612be7565b60405180910390f35b34801561046f57600080fd5b5061048a60048036038101906104859190612f48565b61101a565b6040516104979190612c7d565b60405180910390f35b3480156104ac57600080fd5b506104b56110d1565b005b3480156104c357600080fd5b506104de60048036038101906104d99190612c2e565b611159565b005b3480156104ec57600080fd5b506104f56112a6565b6040516105029190612be7565b60405180910390f35b34801561051757600080fd5b506105206112d0565b60405161052d9190612b21565b60405180910390f35b34801561054257600080fd5b5061055d60048036038101906105589190612b79565b611362565b005b34801561056b57600080fd5b5061058660048036038101906105819190612fa1565b61141e565b005b34801561059457600080fd5b5061059d611434565b6040516105aa9190612a6d565b60405180910390f35b3480156105bf57600080fd5b506105da60048036038101906105d59190613082565b611447565b005b3480156105e857600080fd5b506105f16114a9565b6040516105fe9190612c7d565b60405180910390f35b34801561061357600080fd5b5061061c6114ae565b6040516106299190612c7d565b60405180910390f35b34801561063e57600080fd5b5061065960048036038101906106549190612b79565b6114ba565b6040516106669190612b21565b60405180910390f35b34801561067b57600080fd5b5061069660048036038101906106919190613165565b61153c565b6040516106a39190612a6d565b60405180910390f35b3480156106b857600080fd5b506106c16115c2565b6040516106ce9190612c7d565b60405180910390f35b3480156106e357600080fd5b506106fe60048036038101906106f991906131c5565b6115c8565b60405161070b9190612a6d565b60405180910390f35b61072e60048036038101906107299190613205565b61165c565b005b34801561073c57600080fd5b5061075760048036038101906107529190612f48565b6118b5565b005b34801561076557600080fd5b5061076e6119ac565b005b34801561077c57600080fd5b50610785611a95565b60405161079291906132c9565b60405180910390f35b60007f80ac58cd000000000000000000000000000000000000000000000000000000007bffffffffffffffffffffffffffffffffffffffffffffffffffffffff1916827bffffffffffffffffffffffffffffffffffffffffffffffffffffffff1916148061086657507f5b5e139f000000000000000000000000000000000000000000000000000000007bffffffffffffffffffffffffffffffffffffffffffffffffffffffff1916827bffffffffffffffffffffffffffffffffffffffffffffffffffffffff1916145b80610876575061087582611aa8565b5b9050919050565b60606000805461088c90613313565b80601f01602080910402602001604051908101604052809291908181526020018280546108b890613313565b80156109055780601f106108da57610100808354040283529160200191610905565b820191906000526020600020905b8154815290600101906020018083116108e857829003601f168201915b5050505050905090565b600061091a82611b12565b610959576040517f08c379a0000000000000000000000000000000000000000000000000000000008152600401610950906133b6565b60405180910390fd5b6004600083815260200190815260200160002060009054906101000a900473ffffffffffffffffffffffffffffffffffffffff169050919050565b600061099f82610f69565b90508073ffffffffffffffffffffffffffffffffffffffff168373ffffffffffffffffffffffffffffffffffffffff1603610a0f576040517f08c379a0000000000000000000000000000000000000000000000000000000008152600401610a0690613448565b60405180910390fd5b8073ffffffffffffffffffffffffffffffffffffffff16610a2e611b7e565b73ffffffffffffffffffffffffffffffffffffffff161480610a5d5750610a5c81610a57611b7e565b6115c8565b5b610a9c576040517f08c379a0000000000000000000000000000000000000000000000000000000008152600401610a93906134da565b60405180910390fd5b610aa68383611b86565b505050565b6000610ab76007611c3f565b905090565b600a5481565b60085481565b610ad9610ad3611b7e565b82611c4d565b610b18576040517f08c379a0000000000000000000000000000000000000000000000000000000008152600401610b0f9061356c565b60405180910390fd5b610b23838383611d2b565b505050565b610b30611b7e565b73ffffffffffffffffffffffffffffffffffffffff16610b4e6112a6565b73ffffffffffffffffffffffffffffffffffffffff1614610ba4576040517f08c379a0000000000000000000000000000000000000000000000000000000008152600401610b9b906135d8565b60405180910390fd5b600960019054906101000a900460ff1615610bf4576040517f08c379a0000000000000000000000000000000000000000000000000000000008152600401610beb9061366a565b60405180910390fd5b8060088190555050565b600047905060008111610c46576040517f08c379a0000000000000000000000000000000000000000000000000000000008152600401610c3d906136d6565b60405180910390fd5b600061271061196483610c599190613725565b610c6391906137ae565b905060006127106109c484610c789190613725565b610c8291906137ae565b905060006127106103e885610c979190613725565b610ca191906137ae565b905073aff176e6bedddf28cbbc8579c54a81aca7b90f4c73ffffffffffffffffffffffffffffffffffffffff166108fc849081150290604051600060405180830381858888f19350505050158015610cfd573d6000803e3d6000fd5b507318316ead5871424d13c13556bfba43e7ec118f2173ffffffffffffffffffffffffffffffffffffffff166108fc839081150290604051600060405180830381858888f19350505050158015610d58573d6000803e3d6000fd5b507309949453aea9876764feb874b198693bacd7e0d373ffffffffffffffffffffffffffffffffffffffff166108fc829081150290604051600060405180830381858888f19350505050158015610db3573d6000803e3d6000fd5b5050505050565b610dd583838360405180602001604052806000815250611447565b505050565b610de2611b7e565b73ffffffffffffffffffffffffffffffffffffffff16610e006112a6565b73ffffffffffffffffffffffffffffffffffffffff1614610e56576040517f08c379a0000000000000000000000000000000000000000000000000000000008152600401610e4d906135d8565b60405180910390fd5b80600960006101000a81548160ff02191690836002811115610e7b57610e7a613252565b5b021790555050565b610e8b611b7e565b73ffffffffffffffffffffffffffffffffffffffff16610ea96112a6565b73ffffffffffffffffffffffffffffffffffffffff1614610eff576040517f08c379a0000000000000000000000000000000000000000000000000000000008152600401610ef6906135d8565b60405180910390fd5b600960019054906101000a900460ff1615610f4f576040517f08c379a0000000000000000000000000000000000000000000000000000000008152600401610f4690613851565b60405180910390fd5b80600b9080519060200190610f65929190612916565b5050565b6000806002600084815260200190815260200160002060009054906101000a900473ffffffffffffffffffffffffffffffffffffffff169050600073ffffffffffffffffffffffffffffffffffffffff168173ffffffffffffffffffffffffffffffffffffffff1603611011576040517f08c379a0000000000000000000000000000000000000000000000000000000008152600401611008906138e3565b60405180910390fd5b80915050919050565b60008073ffffffffffffffffffffffffffffffffffffffff168273ffffffffffffffffffffffffffffffffffffffff160361108a576040517f08c379a000000000000000000000000000000000000000000000000000000000815260040161108190613975565b60405180910390fd5b600360008373ffffffffffffffffffffffffffffffffffffffff1673ffffffffffffffffffffffffffffffffffffffff168152602001908152602001600020549050919050565b6110d9611b7e565b73ffffffffffffffffffffffffffffffffffffffff166110f76112a6565b73ffffffffffffffffffffffffffffffffffffffff161461114d576040517f08c379a0000000000000000000000000000000000000000000000000000000008152600401611144906135d8565b60405180910390fd5b6111576000611f91565b565b611161611b7e565b73ffffffffffffffffffffffffffffffffffffffff1661117f6112a6565b73ffffffffffffffffffffffffffffffffffffffff16146111d5576040517f08c379a00000000000000000000000000000000000000000000000000000000081526004016111cc906135d8565b60405180910390fd5b600f81600a546111e59190613995565b1115611226576040517f08c379a000000000000000000000000000000000000000000000000000000000815260040161121d90613a5d565b60405180910390fd5b6101f4816112346007611c3f565b61123e9190613995565b111561127f576040517f08c379a000000000000000000000000000000000000000000000000000000000815260040161127690613aef565b60405180910390fd5b80600a60008282546112919190613995565b925050819055506112a28282612057565b5050565b6000600660009054906101000a900473ffffffffffffffffffffffffffffffffffffffff16905090565b6060600180546112df90613313565b80601f016020809104026020016040519081016040528092919081815260200182805461130b90613313565b80156113585780601f1061132d57610100808354040283529160200191611358565b820191906000526020600020905b81548152906001019060200180831161133b57829003601f168201915b5050505050905090565b6101f4816113706007611c3f565b61137a9190613995565b11156113bb576040517f08c379a00000000000000000000000000000000000000000000000000000000081526004016113b290613b81565b60405180910390fd5b80600c60003373ffffffffffffffffffffffffffffffffffffffff1673ffffffffffffffffffffffffffffffffffffffff168152602001908152602001600020600082825461140a9190613995565b9250508190555061141b3382612057565b50565b611430611429611b7e565b838361209d565b5050565b600960019054906101000a900460ff1681565b611458611452611b7e565b83611c4d565b611497576040517f08c379a000000000000000000000000000000000000000000000000000000000815260040161148e9061356c565b60405180910390fd5b6114a384848484612209565b50505050565b600681565b6701118f178fb4800081565b60606114c582611b12565b611504576040517f08c379a00000000000000000000000000000000000000000000000000000000081526004016114fb90613c13565b60405180910390fd5b61150c612265565b611515836122f7565b604051602001611526929190613cbb565b6040516020818303038152906040529050919050565b6000600115156115b6848480806020026020016040519081016040528093929190818152602001838360200280828437600081840152601f19601f820116905080830192505050505050506008548760405160200161159b9190613d32565b60405160208183030381529060405280519060200120612457565b15151490509392505050565b6101f481565b6000600560008473ffffffffffffffffffffffffffffffffffffffff1673ffffffffffffffffffffffffffffffffffffffff16815260200190815260200160002060008373ffffffffffffffffffffffffffffffffffffffff1673ffffffffffffffffffffffffffffffffffffffff16815260200190815260200160002060009054906101000a900460ff16905092915050565b600160028111156116705761166f613252565b5b600960009054906101000a900460ff16600281111561169257611691613252565b5b146116d2576040517f08c379a00000000000000000000000000000000000000000000000000000000081526004016116c990613d99565b60405180910390fd5b6116dd33838361153c565b61171c576040517f08c379a000000000000000000000000000000000000000000000000000000000815260040161171390613e2b565b60405180910390fd5b6701118f178fb48000341015611767576040517f08c379a000000000000000000000000000000000000000000000000000000000815260040161175e90613ebd565b60405180910390fd5b6101f460016117766007611c3f565b6117809190613995565b11156117c1576040517f08c379a00000000000000000000000000000000000000000000000000000000081526004016117b890613f4f565b60405180910390fd5b600d60003373ffffffffffffffffffffffffffffffffffffffff1673ffffffffffffffffffffffffffffffffffffffff16815260200190815260200160002060009054906101000a900460ff161561184e576040517f08c379a000000000000000000000000000000000000000000000000000000000815260040161184590613fe1565b60405180910390fd5b6001600d60003373ffffffffffffffffffffffffffffffffffffffff1673ffffffffffffffffffffffffffffffffffffffff16815260200190815260200160002060006101000a81548160ff0219169083151502179055506118b1336001612057565b5050565b6118bd611b7e565b73ffffffffffffffffffffffffffffffffffffffff166118db6112a6565b73ffffffffffffffffffffffffffffffffffffffff1614611931576040517f08c379a0000000000000000000000000000000000000000000000000000000008152600401611928906135d8565b60405180910390fd5b600073ffffffffffffffffffffffffffffffffffffffff168173ffffffffffffffffffffffffffffffffffffffff16036119a0576040517f08c379a000000000000000000000000000000000000000000000000000000000815260040161199790614073565b60405180910390fd5b6119a981611f91565b50565b6119b4611b7e565b73ffffffffffffffffffffffffffffffffffffffff166119d26112a6565b73ffffffffffffffffffffffffffffffffffffffff1614611a28576040517f08c379a0000000000000000000000000000000000000000000000000000000008152600401611a1f906135d8565b60405180910390fd5b600960019054906101000a900460ff1615611a78576040517f08c379a0000000000000000000000000000000000000000000000000000000008152600401611a6f90613851565b60405180910390fd5b6001600960016101000a81548160ff021916908315150217905550565b600960009054906101000a900460ff1681565b60007f01ffc9a7000000000000000000000000000000000000000000000000000000007bffffffffffffffffffffffffffffffffffffffffffffffffffffffff1916827bffffffffffffffffffffffffffffffffffffffffffffffffffffffff1916149050919050565b60008073ffffffffffffffffffffffffffffffffffffffff166002600084815260200190815260200160002060009054906101000a900473ffffffffffffffffffffffffffffffffffffffff1673ffffffffffffffffffffffffffffffffffffffff1614159050919050565b600033905090565b816004600083815260200190815260200160002060006101000a81548173ffffffffffffffffffffffffffffffffffffffff021916908373ffffffffffffffffffffffffffffffffffffffff160217905550808273ffffffffffffffffffffffffffffffffffffffff16611bf983610f69565b73ffffffffffffffffffffffffffffffffffffffff167f8c5be1e5ebec7d5bd14f71427d1e84f3dd0314c0f7b2291e5b200ac8c7c3b92560405160405180910390a45050565b600081600001549050919050565b6000611c5882611b12565b611c97576040517f08c379a0000000000000000000000000000000000000000000000000000000008152600401611c8e90614105565b60405180910390fd5b6000611ca283610f69565b90508073ffffffffffffffffffffffffffffffffffffffff168473ffffffffffffffffffffffffffffffffffffffff161480611ce45750611ce381856115c8565b5b80611d2257508373ffffffffffffffffffffffffffffffffffffffff16611d0a8461090f565b73ffffffffffffffffffffffffffffffffffffffff16145b91505092915050565b8273ffffffffffffffffffffffffffffffffffffffff16611d4b82610f69565b73ffffffffffffffffffffffffffffffffffffffff1614611da1576040517f08c379a0000000000000000000000000000000000000000000000000000000008152600401611d9890614197565b60405180910390fd5b600073ffffffffffffffffffffffffffffffffffffffff168273ffffffffffffffffffffffffffffffffffffffff1603611e10576040517f08c379a0000000000000000000000000000000000000000000000000000000008152600401611e0790614229565b60405180910390fd5b611e1b83838361246e565b611e26600082611b86565b6001600360008573ffffffffffffffffffffffffffffffffffffffff1673ffffffffffffffffffffffffffffffffffffffff1681526020019081526020016000206000828254611e769190614249565b925050819055506001600360008473ffffffffffffffffffffffffffffffffffffffff1673ffffffffffffffffffffffffffffffffffffffff1681526020019081526020016000206000828254611ecd9190613995565b92505081905550816002600083815260200190815260200160002060006101000a81548173ffffffffffffffffffffffffffffffffffffffff021916908373ffffffffffffffffffffffffffffffffffffffff160217905550808273ffffffffffffffffffffffffffffffffffffffff168473ffffffffffffffffffffffffffffffffffffffff167fddf252ad1be2c89b69c2b068fc378daa952ba7f163c4a11628f55a4df523b3ef60405160405180910390a4611f8c838383612473565b505050565b6000600660009054906101000a900473ffffffffffffffffffffffffffffffffffffffff16905081600660006101000a81548173ffffffffffffffffffffffffffffffffffffffff021916908373ffffffffffffffffffffffffffffffffffffffff1602179055508173ffffffffffffffffffffffffffffffffffffffff168173ffffffffffffffffffffffffffffffffffffffff167f8be0079c531659141344cd1fd0a4f28419497f9722a3daafe3b4186f6b6457e060405160405180910390a35050565b60005b818110156120985761206c6007612478565b60006120786007611c3f565b9050612084848261248e565b5080806120909061427d565b91505061205a565b505050565b8173ffffffffffffffffffffffffffffffffffffffff168373ffffffffffffffffffffffffffffffffffffffff160361210b576040517f08c379a000000000000000000000000000000000000000000000000000000000815260040161210290614311565b60405180910390fd5b80600560008573ffffffffffffffffffffffffffffffffffffffff1673ffffffffffffffffffffffffffffffffffffffff16815260200190815260200160002060008473ffffffffffffffffffffffffffffffffffffffff1673ffffffffffffffffffffffffffffffffffffffff16815260200190815260200160002060006101000a81548160ff0219169083151502179055508173ffffffffffffffffffffffffffffffffffffffff168373ffffffffffffffffffffffffffffffffffffffff167f17307eab39ab6107e8899845ad3d59bd9653f200f220920489ca2b5937696c31836040516121fc9190612a6d565b60405180910390a3505050565b612214848484611d2b565b612220848484846124ac565b61225f576040517f08c379a0000000000000000000000000000000000000000000000000000000008152600401612256906143a3565b60405180910390fd5b50505050565b6060600b805461227490613313565b80601f01602080910402602001604051908101604052809291908181526020018280546122a090613313565b80156122ed5780601f106122c2576101008083540402835291602001916122ed565b820191906000526020600020905b8154815290600101906020018083116122d057829003601f168201915b5050505050905090565b60606000820361233e576040518060400160405280600181526020017f30000000000000000000000000000000000000000000000000000000000000008152509050612452565b600082905060005b600082146123705780806123599061427d565b915050600a8261236991906137ae565b9150612346565b60008167ffffffffffffffff81111561238c5761238b612dd4565b5b6040519080825280601f01601f1916602001820160405280156123be5781602001600182028036833780820191505090505b5090505b6000851461244b576001826123d79190614249565b9150600a856123e691906143c3565b60306123f29190613995565b60f81b818381518110612408576124076143f4565b5b60200101907effffffffffffffffffffffffffffffffffffffffffffffffffffffffffffff1916908160001a905350600a8561244491906137ae565b94506123c2565b8093505050505b919050565b6000826124648584612633565b1490509392505050565b505050565b505050565b6001816000016000828254019250508190555050565b6124a88282604051806020016040528060008152506126a8565b5050565b60006124cd8473ffffffffffffffffffffffffffffffffffffffff16612703565b15612626578373ffffffffffffffffffffffffffffffffffffffff1663150b7a026124f6611b7e565b8786866040518563ffffffff1660e01b81526004016125189493929190614478565b6020604051808303816000875af192505050801561255457506040513d601f19601f8201168201806040525081019061255191906144d9565b60015b6125d6573d8060008114612584576040519150601f19603f3d011682016040523d82523d6000602084013e612589565b606091505b5060008151036125ce576040517f08c379a00000000000000000000000000000000000000000000000000000000081526004016125c5906143a3565b60405180910390fd5b805181602001fd5b63150b7a0260e01b7bffffffffffffffffffffffffffffffffffffffffffffffffffffffff1916817bffffffffffffffffffffffffffffffffffffffffffffffffffffffff19161491505061262b565b600190505b949350505050565b60008082905060005b845181101561269d57600085828151811061265a576126596143f4565b5b6020026020010151905080831161267c576126758382612726565b9250612689565b6126868184612726565b92505b5080806126959061427d565b91505061263c565b508091505092915050565b6126b2838361273d565b6126bf60008484846124ac565b6126fe576040517f08c379a00000000000000000000000000000000000000000000000000000000081526004016126f5906143a3565b60405180910390fd5b505050565b6000808273ffffffffffffffffffffffffffffffffffffffff163b119050919050565b600082600052816020526040600020905092915050565b600073ffffffffffffffffffffffffffffffffffffffff168273ffffffffffffffffffffffffffffffffffffffff16036127ac576040517f08c379a00000000000000000000000000000000000000000000000000000000081526004016127a390614552565b60405180910390fd5b6127b581611b12565b156127f5576040517f08c379a00000000000000000000000000000000000000000000000000000000081526004016127ec906145be565b60405180910390fd5b6128016000838361246e565b6001600360008473ffffffffffffffffffffffffffffffffffffffff1673ffffffffffffffffffffffffffffffffffffffff16815260200190815260200160002060008282546128519190613995565b92505081905550816002600083815260200190815260200160002060006101000a81548173ffffffffffffffffffffffffffffffffffffffff021916908373ffffffffffffffffffffffffffffffffffffffff160217905550808273ffffffffffffffffffffffffffffffffffffffff16600073ffffffffffffffffffffffffffffffffffffffff167fddf252ad1be2c89b69c2b068fc378daa952ba7f163c4a11628f55a4df523b3ef60405160405180910390a461291260008383612473565b5050565b82805461292290613313565b90600052602060002090601f016020900481019282612944576000855561298b565b82601f1061295d57805160ff191683800117855561298b565b8280016001018555821561298b579182015b8281111561298a57825182559160200191906001019061296f565b5b509050612998919061299c565b5090565b5b808211156129b557600081600090555060010161299d565b5090565b6000604051905090565b600080fd5b600080fd5b60007fffffffff0000000000000000000000000000000000000000000000000000000082169050919050565b612a02816129cd565b8114612a0d57600080fd5b50565b600081359050612a1f816129f9565b92915050565b600060208284031215612a3b57612a3a6129c3565b5b6000612a4984828501612a10565b91505092915050565b60008115159050919050565b612a6781612a52565b82525050565b6000602082019050612a826000830184612a5e565b92915050565b600081519050919050565b600082825260208201905092915050565b60005b83811015612ac2578082015181840152602081019050612aa7565b83811115612ad1576000848401525b50505050565b6000601f19601f8301169050919050565b6000612af382612a88565b612afd8185612a93565b9350612b0d818560208601612aa4565b612b1681612ad7565b840191505092915050565b60006020820190508181036000830152612b3b8184612ae8565b905092915050565b6000819050919050565b612b5681612b43565b8114612b6157600080fd5b50565b600081359050612b7381612b4d565b92915050565b600060208284031215612b8f57612b8e6129c3565b5b6000612b9d84828501612b64565b91505092915050565b600073ffffffffffffffffffffffffffffffffffffffff82169050919050565b6000612bd182612ba6565b9050919050565b612be181612bc6565b82525050565b6000602082019050612bfc6000830184612bd8565b92915050565b612c0b81612bc6565b8114612c1657600080fd5b50565b600081359050612c2881612c02565b92915050565b60008060408385031215612c4557612c446129c3565b5b6000612c5385828601612c19565b9250506020612c6485828601612b64565b9150509250929050565b612c7781612b43565b82525050565b6000602082019050612c926000830184612c6e565b92915050565b6000819050919050565b612cab81612c98565b82525050565b6000602082019050612cc66000830184612ca2565b92915050565b600080600060608486031215612ce557612ce46129c3565b5b6000612cf386828701612c19565b9350506020612d0486828701612c19565b9250506040612d1586828701612b64565b9150509250925092565b612d2881612c98565b8114612d3357600080fd5b50565b600081359050612d4581612d1f565b92915050565b600060208284031215612d6157612d606129c3565b5b6000612d6f84828501612d36565b91505092915050565b60038110612d8557600080fd5b50565b600081359050612d9781612d78565b92915050565b600060208284031215612db357612db26129c3565b5b6000612dc184828501612d88565b91505092915050565b600080fd5b600080fd5b7f4e487b7100000000000000000000000000000000000000000000000000000000600052604160045260246000fd5b612e0c82612ad7565b810181811067ffffffffffffffff82111715612e2b57612e2a612dd4565b5b80604052505050565b6000612e3e6129b9565b9050612e4a8282612e03565b919050565b600067ffffffffffffffff821115612e6a57612e69612dd4565b5b612e7382612ad7565b9050602081019050919050565b82818337600083830152505050565b6000612ea2612e9d84612e4f565b612e34565b905082815260208101848484011115612ebe57612ebd612dcf565b5b612ec9848285612e80565b509392505050565b600082601f830112612ee657612ee5612dca565b5b8135612ef6848260208601612e8f565b91505092915050565b600060208284031215612f1557612f146129c3565b5b600082013567ffffffffffffffff811115612f3357612f326129c8565b5b612f3f84828501612ed1565b91505092915050565b600060208284031215612f5e57612f5d6129c3565b5b6000612f6c84828501612c19565b91505092915050565b612f7e81612a52565b8114612f8957600080fd5b50565b600081359050612f9b81612f75565b92915050565b60008060408385031215612fb857612fb76129c3565b5b6000612fc685828601612c19565b9250506020612fd785828601612f8c565b9150509250929050565b600067ffffffffffffffff821115612ffc57612ffb612dd4565b5b61300582612ad7565b9050602081019050919050565b600061302561302084612fe1565b612e34565b90508281526020810184848401111561304157613040612dcf565b5b61304c848285612e80565b509392505050565b600082601f83011261306957613068612dca565b5b8135613079848260208601613012565b91505092915050565b6000806000806080858703121561309c5761309b6129c3565b5b60006130aa87828801612c19565b94505060206130bb87828801612c19565b93505060406130cc87828801612b64565b925050606085013567ffffffffffffffff8111156130ed576130ec6129c8565b5b6130f987828801613054565b91505092959194509250565b600080fd5b600080fd5b60008083601f84011261312557613124612dca565b5b8235905067ffffffffffffffff81111561314257613141613105565b5b60208301915083602082028301111561315e5761315d61310a565b5b9250929050565b60008060006040848603121561317e5761317d6129c3565b5b600061318c86828701612c19565b935050602084013567ffffffffffffffff8111156131ad576131ac6129c8565b5b6131b98682870161310f565b92509250509250925092565b600080604083850312156131dc576131db6129c3565b5b60006131ea85828601612c19565b92505060206131fb85828601612c19565b9150509250929050565b6000806020838503121561321c5761321b6129c3565b5b600083013567ffffffffffffffff81111561323a576132396129c8565b5b6132468582860161310f565b92509250509250929050565b7f4e487b7100000000000000000000000000000000000000000000000000000000600052602160045260246000fd5b6003811061329257613291613252565b5b50565b60008190506132a382613281565b919050565b60006132b382613295565b9050919050565b6132c3816132a8565b82525050565b60006020820190506132de60008301846132ba565b92915050565b7f4e487b7100000000000000000000000000000000000000000000000000000000600052602260045260246000fd5b6000600282049050600182168061332b57607f821691505b60208210810361333e5761333d6132e4565b5b50919050565b7f4552433732313a20617070726f76656420717565727920666f72206e6f6e657860008201527f697374656e7420746f6b656e0000000000000000000000000000000000000000602082015250565b60006133a0602c83612a93565b91506133ab82613344565b604082019050919050565b600060208201905081810360008301526133cf81613393565b9050919050565b7f4552433732313a20617070726f76616c20746f2063757272656e74206f776e6560008201527f7200000000000000000000000000000000000000000000000000000000000000602082015250565b6000613432602183612a93565b915061343d826133d6565b604082019050919050565b6000602082019050818103600083015261346181613425565b9050919050565b7f4552433732313a20617070726f76652063616c6c6572206973206e6f74206f7760008201527f6e6572206e6f7220617070726f76656420666f7220616c6c0000000000000000602082015250565b60006134c4603883612a93565b91506134cf82613468565b604082019050919050565b600060208201905081810360008301526134f3816134b7565b9050919050565b7f4552433732313a207472616e736665722063616c6c6572206973206e6f74206f60008201527f776e6572206e6f7220617070726f766564000000000000000000000000000000602082015250565b6000613556603183612a93565b9150613561826134fa565b604082019050919050565b6000602082019050818103600083015261358581613549565b9050919050565b7f4f776e61626c653a2063616c6c6572206973206e6f7420746865206f776e6572600082015250565b60006135c2602083612a93565b91506135cd8261358c565b602082019050919050565b600060208201905081810360008301526135f1816135b5565b9050919050565b7f5468652070726573616c65206c69737420686173206265656e2066696e616c6960008201527f7a65642e00000000000000000000000000000000000000000000000000000000602082015250565b6000613654602483612a93565b915061365f826135f8565b604082019050919050565b6000602082019050818103600083015261368381613647565b9050919050565b7f4e6f2062616c616e636500000000000000000000000000000000000000000000600082015250565b60006136c0600a83612a93565b91506136cb8261368a565b602082019050919050565b600060208201905081810360008301526136ef816136b3565b9050919050565b7f4e487b7100000000000000000000000000000000000000000000000000000000600052601160045260246000fd5b600061373082612b43565b915061373b83612b43565b9250817fffffffffffffffffffffffffffffffffffffffffffffffffffffffffffffffff0483118215151615613774576137736136f6565b5b828202905092915050565b7f4e487b7100000000000000000000000000000000000000000000000000000000600052601260045260246000fd5b60006137b982612b43565b91506137c483612b43565b9250826137d4576137d361377f565b5b828204905092915050565b7f4d657461646174612068617320616c7265616479206265656e2066696e616c6960008201527f7a65642e00000000000000000000000000000000000000000000000000000000602082015250565b600061383b602483612a93565b9150613846826137df565b604082019050919050565b6000602082019050818103600083015261386a8161382e565b9050919050565b7f4552433732313a206f776e657220717565727920666f72206e6f6e657869737460008201527f656e7420746f6b656e0000000000000000000000000000000000000000000000602082015250565b60006138cd602983612a93565b91506138d882613871565b604082019050919050565b600060208201905081810360008301526138fc816138c0565b9050919050565b7f4552433732313a2062616c616e636520717565727920666f7220746865207a6560008201527f726f206164647265737300000000000000000000000000000000000000000000602082015250565b600061395f602a83612a93565b915061396a82613903565b604082019050919050565b6000602082019050818103600083015261398e81613952565b9050919050565b60006139a082612b43565b91506139ab83612b43565b9250827fffffffffffffffffffffffffffffffffffffffffffffffffffffffffffffffff038211156139e0576139df6136f6565b5b828201905092915050565b7f43616e206e6f742061697264726f70206d6f7265207468616e207075626c696360008201527f6c7920646973636c6f73656420746f207465616d000000000000000000000000602082015250565b6000613a47603483612a93565b9150613a52826139eb565b604082019050919050565b60006020820190508181036000830152613a7681613a3a565b9050919050565b7f4e756d626572206f6620746f6b656e732072657175657374656420657863656560008201527f647320636f6c6c656374696f6e2073697a650000000000000000000000000000602082015250565b6000613ad9603283612a93565b9150613ae482613a7d565b604082019050919050565b60006020820190508181036000830152613b0881613acc565b9050919050565b7f4d696e74696e672074686973206d616e7920746f6b656e7320776f756c64206560008201527f78636565642074686520746f74616c20636f6c6c656374696f6e2073697a6500602082015250565b6000613b6b603f83612a93565b9150613b7682613b0f565b604082019050919050565b60006020820190508181036000830152613b9a81613b5e565b9050919050565b7f546f6b656e20494420646f6573206e6f7420657869737420696e20746869732060008201527f636f6c6c656374696f6e00000000000000000000000000000000000000000000602082015250565b6000613bfd602a83612a93565b9150613c0882613ba1565b604082019050919050565b60006020820190508181036000830152613c2c81613bf0565b9050919050565b600081905092915050565b6000613c4982612a88565b613c538185613c33565b9350613c63818560208601612aa4565b80840191505092915050565b7f2e6a736f6e000000000000000000000000000000000000000000000000000000600082015250565b6000613ca5600583613c33565b9150613cb082613c6f565b600582019050919050565b6000613cc78285613c3e565b9150613cd38284613c3e565b9150613cde82613c98565b91508190509392505050565b60008160601b9050919050565b6000613d0282613cea565b9050919050565b6000613d1482613cf7565b9050919050565b613d2c613d2782612bc6565b613d09565b82525050565b6000613d3e8284613d1b565b60148201915081905092915050565b7f50726573616c65206973206e6f74206163746976650000000000000000000000600082015250565b6000613d83601583612a93565b9150613d8e82613d4d565b602082019050919050565b60006020820190508181036000830152613db281613d76565b9050919050565b7f53656e646572206973206e6f74206f6e207468652070726573616c65206c697360008201527f7400000000000000000000000000000000000000000000000000000000000000602082015250565b6000613e15602183612a93565b9150613e2082613db9565b604082019050919050565b60006020820190508181036000830152613e4481613e08565b9050919050565b7f45746865722076616c75652073656e74206973206c657373207468616e202e3060008201527f3737000000000000000000000000000000000000000000000000000000000000602082015250565b6000613ea7602283612a93565b9150613eb282613e4b565b604082019050919050565b60006020820190508181036000830152613ed681613e9a565b9050919050565b7f436f6c6c656374696f6e2073697a65206c696d69742068617320616c7265616460008201527f79206265656e2072656163686564000000000000000000000000000000000000602082015250565b6000613f39602e83612a93565b9150613f4482613edd565b604082019050919050565b60006020820190508181036000830152613f6881613f2c565b9050919050565b7f5468697320616464726573732068617320616c7265616479206d696e7465642060008201527f647572696e672070726573616c65000000000000000000000000000000000000602082015250565b6000613fcb602e83612a93565b9150613fd682613f6f565b604082019050919050565b60006020820190508181036000830152613ffa81613fbe565b9050919050565b7f4f776e61626c653a206e6577206f776e657220697320746865207a65726f206160008201527f6464726573730000000000000000000000000000000000000000000000000000602082015250565b600061405d602683612a93565b915061406882614001565b604082019050919050565b6000602082019050818103600083015261408c81614050565b9050919050565b7f4552433732313a206f70657261746f7220717565727920666f72206e6f6e657860008201527f697374656e7420746f6b656e0000000000000000000000000000000000000000602082015250565b60006140ef602c83612a93565b91506140fa82614093565b604082019050919050565b6000602082019050818103600083015261411e816140e2565b9050919050565b7f4552433732313a207472616e736665722066726f6d20696e636f72726563742060008201527f6f776e6572000000000000000000000000000000000000000000000000000000602082015250565b6000614181602583612a93565b915061418c82614125565b604082019050919050565b600060208201905081810360008301526141b081614174565b9050919050565b7f4552433732313a207472616e7366657220746f20746865207a65726f2061646460008201527f7265737300000000000000000000000000000000000000000000000000000000602082015250565b6000614213602483612a93565b915061421e826141b7565b604082019050919050565b6000602082019050818103600083015261424281614206565b9050919050565b600061425482612b43565b915061425f83612b43565b925082821015614272576142716136f6565b5b828203905092915050565b600061428882612b43565b91507fffffffffffffffffffffffffffffffffffffffffffffffffffffffffffffffff82036142ba576142b96136f6565b5b600182019050919050565b7f4552433732313a20617070726f766520746f2063616c6c657200000000000000600082015250565b60006142fb601983612a93565b9150614306826142c5565b602082019050919050565b6000602082019050818103600083015261432a816142ee565b9050919050565b7f4552433732313a207472616e7366657220746f206e6f6e20455243373231526560008201527f63656976657220696d706c656d656e7465720000000000000000000000000000602082015250565b600061438d603283612a93565b915061439882614331565b604082019050919050565b600060208201905081810360008301526143bc81614380565b9050919050565b60006143ce82612b43565b91506143d983612b43565b9250826143e9576143e861377f565b5b828206905092915050565b7f4e487b7100000000000000000000000000000000000000000000000000000000600052603260045260246000fd5b600081519050919050565b600082825260208201905092915050565b600061444a82614423565b614454818561442e565b9350614464818560208601612aa4565b61446d81612ad7565b840191505092915050565b600060808201905061448d6000830187612bd8565b61449a6020830186612bd8565b6144a76040830185612c6e565b81810360608301526144b9818461443f565b905095945050505050565b6000815190506144d3816129f9565b92915050565b6000602082840312156144ef576144ee6129c3565b5b60006144fd848285016144c4565b91505092915050565b7f4552433732313a206d696e7420746f20746865207a65726f2061646472657373600082015250565b600061453c602083612a93565b915061454782614506565b602082019050919050565b6000602082019050818103600083015261456b8161452f565b9050919050565b7f4552433732313a20746f6b656e20616c7265616479206d696e74656400000000600082015250565b60006145a8601c83612a93565b91506145b382614572565b602082019050919050565b600060208201905081810360008301526145d78161459b565b905091905056fea26469706673582212206e5e3efca2f5b8bd17ea09b510934d188aab3007bb11446ec079ce3aeed9412464736f6c634300080d0033",
  "linkReferences": {},
  "deployedLinkReferences": {}
}