{
  "_format": "hh-sol-artifact-1",
  "contractName": "CyberLionzCubzMock",
  "sourceName": "contracts/mocks/CyberLionzMock.sol",
  "abi": [
    {
      "inputs": [
        {
          "internalType": "string",
          "name": "baseUri",
          "type": "string"
        },
        {
          "internalType": "bytes32",
          "name": "merkleRoot",
          "type": "bytes32"
        }
      ],
      "stateMutability": "nonpayable",
      "type": "constructor"
    },
    {
      "anonymous": false,
      "inputs": [
        {
          "indexed": true,
          "internalType": "address",
          "name": "owner",
          "type": "address"
        },
        {
          "indexed": true,
          "internalType": "address",
          "name": "approved",
          "type": "address"
        },
        {
          "indexed": true,
          "internalType": "uint256",
          "name": "tokenId",
          "type": "uint256"
        }
      ],
      "name": "Approval",
      "type": "event"
    },
    {
      "anonymous": false,
      "inputs": [
        {
          "indexed": true,
          "internalType": "address",
          "name": "owner",
          "type": "address"
        },
        {
          "indexed": true,
          "internalType": "address",
          "name": "operator",
          "type": "address"
        },
        {
          "indexed": false,
          "internalType": "bool",
          "name": "approved",
          "type": "bool"
        }
      ],
      "name": "ApprovalForAll",
      "type": "event"
    },
    {
      "anonymous": false,
      "inputs": [
        {
          "indexed": true,
          "internalType": "address",
          "name": "previousOwner",
          "type": "address"
        },
        {
          "indexed": true,
          "internalType": "address",
          "name": "newOwner",
          "type": "address"
        }
      ],
      "name": "OwnershipTransferred",
      "type": "event"
    },
    {
      "anonymous": false,
      "inputs": [
        {
          "indexed": true,
          "internalType": "address",
          "name": "from",
          "type": "address"
        },
        {
          "indexed": true,
          "internalType": "address",
          "name": "to",
          "type": "address"
        },
        {
          "indexed": true,
          "internalType": "uint256",
          "name": "tokenId",
          "type": "uint256"
        }
      ],
      "name": "Transfer",
      "type": "event"
    },
    {
      "inputs": [],
      "name": "COLLECTION_SIZE",
      "outputs": [
        {
          "internalType": "uint256",
          "name": "",
          "type": "uint256"
        }
      ],
      "stateMutability": "view",
      "type": "function"
    },
    {
      "inputs": [],
      "name": "MINT_PRICE",
      "outputs": [
        {
          "internalType": "uint256",
          "name": "",
          "type": "uint256"
        }
      ],
      "stateMutability": "view",
      "type": "function"
    },
    {
      "inputs": [],
      "name": "PUBLIC_MINT_LIMIT",
      "outputs": [
        {
          "internalType": "uint256",
          "name": "",
          "type": "uint256"
        }
      ],
      "stateMutability": "view",
      "type": "function"
    },
    {
      "inputs": [
        {
          "internalType": "address",
          "name": "to",
          "type": "address"
        },
        {
          "internalType": "uint256",
          "name": "count",
          "type": "uint256"
        }
      ],
      "name": "airdrop",
      "outputs": [],
      "stateMutability": "nonpayable",
      "type": "function"
    },
    {
      "inputs": [],
      "name": "airdropped",
      "outputs": [
        {
          "internalType": "uint256",
          "name": "",
          "type": "uint256"
        }
      ],
      "stateMutability": "view",
      "type": "function"
    },
    {
      "inputs": [
        {
          "internalType": "address",
          "name": "to",
          "type": "address"
        },
        {
          "internalType": "uint256",
          "name": "tokenId",
          "type": "uint256"
        }
      ],
      "name": "approve",
      "outputs": [],
      "stateMutability": "nonpayable",
      "type": "function"
    },
    {
      "inputs": [
        {
          "internalType": "address",
          "name": "owner",
          "type": "address"
        }
      ],
      "name": "balanceOf",
      "outputs": [
        {
          "internalType": "uint256",
          "name": "",
          "type": "uint256"
        }
      ],
      "stateMutability": "view",
      "type": "function"
    },
    {
      "inputs": [],
      "name": "finalizeMetadata",
      "outputs": [],
      "stateMutability": "nonpayable",
      "type": "function"
    },
    {
      "inputs": [],
      "name": "finalized",
      "outputs": [
        {
          "internalType": "bool",
          "name": "",
          "type": "bool"
        }
      ],
      "stateMutability": "view",
      "type": "function"
    },
    {
      "inputs": [
        {
          "internalType": "uint256",
          "name": "tokenId",
          "type": "uint256"
        }
      ],
      "name": "getApproved",
      "outputs": [
        {
          "internalType": "address",
          "name": "",
          "type": "address"
        }
      ],
      "stateMutability": "view",
      "type": "function"
    },
    {
      "inputs": [
        {
          "internalType": "address",
          "name": "owner",
          "type": "address"
        },
        {
          "internalType": "address",
          "name": "operator",
          "type": "address"
        }
      ],
      "name": "isApprovedForAll",
      "outputs": [
        {
          "internalType": "bool",
          "name": "",
          "type": "bool"
        }
      ],
      "stateMutability": "view",
      "type": "function"
    },
    {
      "inputs": [
        {
          "internalType": "uint256",
          "name": "count",
          "type": "uint256"
        }
      ],
      "name": "mint",
      "outputs": [],
      "stateMutability": "nonpayable",
      "type": "function"
    },
    {
      "inputs": [],
      "name": "name",
      "outputs": [
        {
          "internalType": "string",
          "name": "",
          "type": "string"
        }
      ],
      "stateMutability": "view",
      "type": "function"
    },
    {
      "inputs": [
        {
          "internalType": "address",
          "name": "addr",
          "type": "address"
        },
        {
          "internalType": "bytes32[]",
          "name": "_merkleProof",
          "type": "bytes32[]"
        }
      ],
      "name": "onWhitelist",
      "outputs": [
        {
          "internalType": "bool",
          "name": "",
          "type": "bool"
        }
      ],
      "stateMutability": "view",
      "type": "function"
    },
    {
      "inputs": [],
      "name": "owner",
      "outputs": [
        {
          "internalType": "address",
          "name": "",
          "type": "address"
        }
      ],
      "stateMutability": "view",
      "type": "function"
    },
    {
      "inputs": [
        {
          "internalType": "uint256",
          "name": "tokenId",
          "type": "uint256"
        }
      ],
      "name": "ownerOf",
      "outputs": [
        {
          "internalType": "address",
          "name": "",
          "type": "address"
        }
      ],
      "stateMutability": "view",
      "type": "function"
    },
    {
      "inputs": [],
      "name": "presaleMerkleRoot",
      "outputs": [
        {
          "internalType": "bytes32",
          "name": "",
          "type": "bytes32"
        }
      ],
      "stateMutability": "view",
      "type": "function"
    },
    {
      "inputs": [
        {
          "internalType": "bytes32[]",
          "name": "_merkleProof",
          "type": "bytes32[]"
        }
      ],
      "name": "presaleMint",
      "outputs": [],
      "stateMutability": "payable",
      "type": "function"
    },
    {
      "inputs": [],
      "name": "renounceOwnership",
      "outputs": [],
      "stateMutability": "nonpayable",
      "type": "function"
    },
    {
      "inputs": [
        {
          "internalType": "address",
          "name": "from",
          "type": "address"
        },
        {
          "internalType": "address",
          "name": "to",
          "type": "address"
        },
        {
          "internalType": "uint256",
          "name": "tokenId",
          "type": "uint256"
        }
      ],
      "name": "safeTransferFrom",
      "outputs": [],
      "stateMutability": "nonpayable",
      "type": "function"
    },
    {
      "inputs": [
        {
          "internalType": "address",
          "name": "from",
          "type": "address"
        },
        {
          "internalType": "address",
          "name": "to",
          "type": "address"
        },
        {
          "internalType": "uint256",
          "name": "tokenId",
          "type": "uint256"
        },
        {
          "internalType": "bytes",
          "name": "_data",
          "type": "bytes"
        }
      ],
      "name": "safeTransferFrom",
      "outputs": [],
      "stateMutability": "nonpayable",
      "type": "function"
    },
    {
      "inputs": [],
      "name": "saleStatus",
      "outputs": [
        {
          "internalType": "enum CyberLionzCubzMock.SaleStatus",
          "name": "",
          "type": "uint8"
        }
      ],
      "stateMutability": "view",
      "type": "function"
    },
    {
      "inputs": [
        {
          "internalType": "address",
          "name": "operator",
          "type": "address"
        },
        {
          "internalType": "bool",
          "name": "approved",
          "type": "bool"
        }
      ],
      "name": "setApprovalForAll",
      "outputs": [],
      "stateMutability": "nonpayable",
      "type": "function"
    },
    {
      "inputs": [
        {
          "internalType": "string",
          "name": "baseUri",
          "type": "string"
        }
      ],
      "name": "setBaseURI",
      "outputs": [],
      "stateMutability": "nonpayable",
      "type": "function"
    },
    {
      "inputs": [
        {
          "internalType": "bytes32",
          "name": "merkleRoot",
          "type": "bytes32"
        }
      ],
      "name": "setPresaleMerkleRoot",
      "outputs": [],
      "stateMutability": "nonpayable",
      "type": "function"
    },
    {
      "inputs": [
        {
          "internalType": "enum CyberLionzCubzMock.SaleStatus",
          "name": "status",
          "type": "uint8"
        }
      ],
      "name": "setSaleStatus",
      "outputs": [],
      "stateMutability": "nonpayable",
      "type": "function"
    },
    {
      "inputs": [
        {
          "internalType": "bytes4",
          "name": "interfaceId",
          "type": "bytes4"
        }
      ],
      "name": "supportsInterface",
      "outputs": [
        {
          "internalType": "bool",
          "name": "",
          "type": "bool"
        }
      ],
      "stateMutability": "view",
      "type": "function"
    },
    {
      "inputs": [],
      "name": "symbol",
      "outputs": [
        {
          "internalType": "string",
          "name": "",
          "type": "string"
        }
      ],
      "stateMutability": "view",
      "type": "function"
    },
    {
      "inputs": [
        {
          "internalType": "uint256",
          "name": "tokenId",
          "type": "uint256"
        }
      ],
      "name": "tokenURI",
      "outputs": [
        {
          "internalType": "string",
          "name": "",
          "type": "string"
        }
      ],
      "stateMutability": "view",
      "type": "function"
    },
    {
      "inputs": [],
      "name": "totalSupply",
      "outputs": [
        {
          "internalType": "uint256",
          "name": "",
          "type": "uint256"
        }
      ],
      "stateMutability": "view",
      "type": "function"
    },
    {
      "inputs": [
        {
          "internalType": "address",
          "name": "from",
          "type": "address"
        },
        {
          "internalType": "address",
          "name": "to",
          "type": "address"
        },
        {
          "internalType": "uint256",
          "name": "tokenId",
          "type": "uint256"
        }
      ],
      "name": "transferFrom",
      "outputs": [],
      "stateMutability": "nonpayable",
      "type": "function"
    },
    {
      "inputs": [
        {
          "internalType": "address",
          "name": "newOwner",
          "type": "address"
        }
      ],
      "name": "transferOwnership",
      "outputs": [],
      "stateMutability": "nonpayable",
      "type": "function"
    },
    {
      "inputs": [],
      "name": "withdraw",
      "outputs": [],
      "stateMutability": "nonpayable",
      "type": "function"
    }
  ],
  "bytecode": "0x60806040526000600960006101000a81548160ff021916908360028111156200002d576200002c620002eb565b5b02179055506000600960016101000a81548160ff0219169083151502179055506000600a553480156200005f57600080fd5b5060405162004d0038038062004d008339818101604052810190620000859190620004f2565b6040518060400160405280600e81526020017f43796265724c696f6e7a4375627a0000000000000000000000000000000000008152506040518060400160405280600381526020017f434c4300000000000000000000000000000000000000000000000000000000008152508160009080519060200190620001099291906200023b565b508060019080519060200190620001229291906200023b565b50505062000145620001396200016d60201b60201c565b6200017560201b60201c565b81600b90805190602001906200015d9291906200023b565b50806008819055505050620005bc565b600033905090565b6000600660009054906101000a900473ffffffffffffffffffffffffffffffffffffffff16905081600660006101000a81548173ffffffffffffffffffffffffffffffffffffffff021916908373ffffffffffffffffffffffffffffffffffffffff1602179055508173ffffffffffffffffffffffffffffffffffffffff168173ffffffffffffffffffffffffffffffffffffffff167f8be0079c531659141344cd1fd0a4f28419497f9722a3daafe3b4186f6b6457e060405160405180910390a35050565b828054620002499062000587565b90600052602060002090601f0160209004810192826200026d5760008555620002b9565b82601f106200028857805160ff1916838001178555620002b9565b82800160010185558215620002b9579182015b82811115620002b85782518255916020019190600101906200029b565b5b509050620002c89190620002cc565b5090565b5b80821115620002e7576000816000905550600101620002cd565b5090565b7f4e487b7100000000000000000000000000000000000000000000000000000000600052602160045260246000fd5b6000604051905090565b600080fd5b600080fd5b600080fd5b600080fd5b6000601f19601f8301169050919050565b7f4e487b7100000000000000000000000000000000000000000000000000000000600052604160045260246000fd5b620003838262000338565b810181811067ffffffffffffffff82111715620003a557620003a462000349565b5b80604052505050565b6000620003ba6200031a565b9050620003c8828262000378565b919050565b600067ffffffffffffffff821115620003eb57620003ea62000349565b5b620003f68262000338565b9050602081019050919050565b60005b838110156200042357808201518184015260208101905062000406565b8381111562000433576000848401525b50505050565b6000620004506200044a84620003cd565b620003ae565b9050828152602081018484840111156200046f576200046e62000333565b5b6200047c84828562000403565b509392505050565b600082601f8301126200049c576200049b6200032e565b5b8151620004ae84826020860162000439565b91505092915050565b6000819050919050565b620004cc81620004b7565b8114620004d857600080fd5b50565b600081519050620004ec81620004c1565b92915050565b600080604083850312156200050c576200050b62000324565b5b600083015167ffffffffffffffff8111156200052d576200052c62000329565b5b6200053b8582860162000484565b92505060206200054e85828601620004db565b9150509250929050565b7f4e487b7100000000000000000000000000000000000000000000000000000000600052602260045260246000fd5b60006002820490506001821680620005a057607f821691505b602082108103620005b657620005b562000558565b5b50919050565b61473480620005cc6000396000f3fe6080604052600436106101ee5760003560e01c80638ba4cc3c1161010d578063c002d23d116100a0578063e985e9c51161006f578063e985e9c5146106d7578063edc0c72c14610714578063f2fde38b14610730578063f4a560a514610759578063f9020e3314610770576101ee565b8063c002d23d14610607578063c87b56dd14610632578063c9d40e181461066f578063d8258d95146106ac576101ee565b8063a22cb465116100dc578063a22cb4651461055f578063b3f05b9714610588578063b88d4fde146105b3578063bceae77b146105dc576101ee565b80638ba4cc3c146104b75780638da5cb5b146104e057806395d89b411461050b578063a0712d6814610536576101ee565b806328d7b2761161018557806355f804b31161015457806355f804b3146103fd5780636352211e1461042657806370a0823114610463578063715018a6146104a0576101ee565b806328d7b2761461036b5780633ccfd60b1461039457806342842e0e146103ab5780634891ad88146103d4576101ee565b806318160ddd116101c157806318160ddd146102c157806319cc02aa146102ec57806322212e2b1461031757806323b872dd14610342576101ee565b806301ffc9a7146101f357806306fdde0314610230578063081812fc1461025b578063095ea7b314610298575b600080fd5b3480156101ff57600080fd5b5061021a60048036038101906102159190612ab3565b61079b565b6040516102279190612afb565b60405180910390f35b34801561023c57600080fd5b5061024561087d565b6040516102529190612baf565b60405180910390f35b34801561026757600080fd5b50610282600480360381019061027d9190612c07565b61090f565b60405161028f9190612c75565b60405180910390f35b3480156102a457600080fd5b506102bf60048036038101906102ba9190612cbc565b610994565b005b3480156102cd57600080fd5b506102d6610aab565b6040516102e39190612d0b565b60405180910390f35b3480156102f857600080fd5b50610301610abc565b60405161030e9190612d0b565b60405180910390f35b34801561032357600080fd5b5061032c610ac2565b6040516103399190612d3f565b60405180910390f35b34801561034e57600080fd5b5061036960048036038101906103649190612d5a565b610ac8565b005b34801561037757600080fd5b50610392600480360381019061038d9190612dd9565b610b28565b005b3480156103a057600080fd5b506103a9610bfe565b005b3480156103b757600080fd5b506103d260048036038101906103cd9190612d5a565b610dba565b005b3480156103e057600080fd5b506103fb60048036038101906103f69190612e2b565b610dda565b005b34801561040957600080fd5b50610424600480360381019061041f9190612f8d565b610e83565b005b34801561043257600080fd5b5061044d60048036038101906104489190612c07565b610f69565b60405161045a9190612c75565b60405180910390f35b34801561046f57600080fd5b5061048a60048036038101906104859190612fd6565b61101a565b6040516104979190612d0b565b60405180910390f35b3480156104ac57600080fd5b506104b56110d1565b005b3480156104c357600080fd5b506104de60048036038101906104d99190612cbc565b611159565b005b3480156104ec57600080fd5b506104f56112a6565b6040516105029190612c75565b60405180910390f35b34801561051757600080fd5b506105206112d0565b60405161052d9190612baf565b60405180910390f35b34801561054257600080fd5b5061055d60048036038101906105589190612c07565b611362565b005b34801561056b57600080fd5b506105866004803603810190610581919061302f565b6114ac565b005b34801561059457600080fd5b5061059d6114c2565b6040516105aa9190612afb565b60405180910390f35b3480156105bf57600080fd5b506105da60048036038101906105d59190613110565b6114d5565b005b3480156105e857600080fd5b506105f1611537565b6040516105fe9190612d0b565b60405180910390f35b34801561061357600080fd5b5061061c61153c565b6040516106299190612d0b565b60405180910390f35b34801561063e57600080fd5b5061065960048036038101906106549190612c07565b611548565b6040516106669190612baf565b60405180910390f35b34801561067b57600080fd5b50610696600480360381019061069191906131f3565b6115ca565b6040516106a39190612afb565b60405180910390f35b3480156106b857600080fd5b506106c1611650565b6040516106ce9190612d0b565b60405180910390f35b3480156106e357600080fd5b506106fe60048036038101906106f99190613253565b611656565b60405161070b9190612afb565b60405180910390f35b61072e60048036038101906107299190613293565b6116ea565b005b34801561073c57600080fd5b5061075760048036038101906107529190612fd6565b611943565b005b34801561076557600080fd5b5061076e611a3a565b005b34801561077c57600080fd5b50610785611b23565b6040516107929190613357565b60405180910390f35b60007f80ac58cd000000000000000000000000000000000000000000000000000000007bffffffffffffffffffffffffffffffffffffffffffffffffffffffff1916827bffffffffffffffffffffffffffffffffffffffffffffffffffffffff1916148061086657507f5b5e139f000000000000000000000000000000000000000000000000000000007bffffffffffffffffffffffffffffffffffffffffffffffffffffffff1916827bffffffffffffffffffffffffffffffffffffffffffffffffffffffff1916145b80610876575061087582611b36565b5b9050919050565b60606000805461088c906133a1565b80601f01602080910402602001604051908101604052809291908181526020018280546108b8906133a1565b80156109055780601f106108da57610100808354040283529160200191610905565b820191906000526020600020905b8154815290600101906020018083116108e857829003601f168201915b5050505050905090565b600061091a82611ba0565b610959576040517f08c379a000000000000000000000000000000000000000000000000000000000815260040161095090613444565b60405180910390fd5b6004600083815260200190815260200160002060009054906101000a900473ffffffffffffffffffffffffffffffffffffffff169050919050565b600061099f82610f69565b90508073ffffffffffffffffffffffffffffffffffffffff168373ffffffffffffffffffffffffffffffffffffffff1603610a0f576040517f08c379a0000000000000000000000000000000000000000000000000000000008152600401610a06906134d6565b60405180910390fd5b8073ffffffffffffffffffffffffffffffffffffffff16610a2e611c0c565b73ffffffffffffffffffffffffffffffffffffffff161480610a5d5750610a5c81610a57611c0c565b611656565b5b610a9c576040517f08c379a0000000000000000000000000000000000000000000000000000000008152600401610a9390613568565b60405180910390fd5b610aa68383611c14565b505050565b6000610ab76007611ccd565b905090565b600a5481565b60085481565b610ad9610ad3611c0c565b82611cdb565b610b18576040517f08c379a0000000000000000000000000000000000000000000000000000000008152600401610b0f906135fa565b60405180910390fd5b610b23838383611db9565b505050565b610b30611c0c565b73ffffffffffffffffffffffffffffffffffffffff16610b4e6112a6565b73ffffffffffffffffffffffffffffffffffffffff1614610ba4576040517f08c379a0000000000000000000000000000000000000000000000000000000008152600401610b9b90613666565b60405180910390fd5b600960019054906101000a900460ff1615610bf4576040517f08c379a0000000000000000000000000000000000000000000000000000000008152600401610beb906136f8565b60405180910390fd5b8060088190555050565b600047905060008111610c46576040517f08c379a0000000000000000000000000000000000000000000000000000000008152600401610c3d90613764565b60405180910390fd5b600061271061196483610c5991906137b3565b610c63919061383c565b905060006127106109c484610c7891906137b3565b610c82919061383c565b905060006127106103e885610c9791906137b3565b610ca1919061383c565b905073aff176e6bedddf28cbbc8579c54a81aca7b90f4c73ffffffffffffffffffffffffffffffffffffffff166108fc849081150290604051600060405180830381858888f19350505050158015610cfd573d6000803e3d6000fd5b507318316ead5871424d13c13556bfba43e7ec118f2173ffffffffffffffffffffffffffffffffffffffff166108fc839081150290604051600060405180830381858888f19350505050158015610d58573d6000803e3d6000fd5b507309949453aea9876764feb874b198693bacd7e0d373ffffffffffffffffffffffffffffffffffffffff166108fc829081150290604051600060405180830381858888f19350505050158015610db3573d6000803e3d6000fd5b5050505050565b610dd5838383604051806020016040528060008152506114d5565b505050565b610de2611c0c565b73ffffffffffffffffffffffffffffffffffffffff16610e006112a6565b73ffffffffffffffffffffffffffffffffffffffff1614610e56576040517f08c379a0000000000000000000000000000000000000000000000000000000008152600401610e4d90613666565b60405180910390fd5b80600960006101000a81548160ff02191690836002811115610e7b57610e7a6132e0565b5b021790555050565b610e8b611c0c565b73ffffffffffffffffffffffffffffffffffffffff16610ea96112a6565b73ffffffffffffffffffffffffffffffffffffffff1614610eff576040517f08c379a0000000000000000000000000000000000000000000000000000000008152600401610ef690613666565b60405180910390fd5b600960019054906101000a900460ff1615610f4f576040517f08c379a0000000000000000000000000000000000000000000000000000000008152600401610f46906138df565b60405180910390fd5b80600b9080519060200190610f659291906129a4565b5050565b6000806002600084815260200190815260200160002060009054906101000a900473ffffffffffffffffffffffffffffffffffffffff169050600073ffffffffffffffffffffffffffffffffffffffff168173ffffffffffffffffffffffffffffffffffffffff1603611011576040517f08c379a000000000000000000000000000000000000000000000000000000000815260040161100890613971565b60405180910390fd5b80915050919050565b60008073ffffffffffffffffffffffffffffffffffffffff168273ffffffffffffffffffffffffffffffffffffffff160361108a576040517f08c379a000000000000000000000000000000000000000000000000000000000815260040161108190613a03565b60405180910390fd5b600360008373ffffffffffffffffffffffffffffffffffffffff1673ffffffffffffffffffffffffffffffffffffffff168152602001908152602001600020549050919050565b6110d9611c0c565b73ffffffffffffffffffffffffffffffffffffffff166110f76112a6565b73ffffffffffffffffffffffffffffffffffffffff161461114d576040517f08c379a000000000000000000000000000000000000000000000000000000000815260040161114490613666565b60405180910390fd5b611157600061201f565b565b611161611c0c565b73ffffffffffffffffffffffffffffffffffffffff1661117f6112a6565b73ffffffffffffffffffffffffffffffffffffffff16146111d5576040517f08c379a00000000000000000000000000000000000000000000000000000000081526004016111cc90613666565b60405180910390fd5b600f81600a546111e59190613a23565b1115611226576040517f08c379a000000000000000000000000000000000000000000000000000000000815260040161121d90613aeb565b60405180910390fd5b6101f4816112346007611ccd565b61123e9190613a23565b111561127f576040517f08c379a000000000000000000000000000000000000000000000000000000000815260040161127690613b7d565b60405180910390fd5b80600a60008282546112919190613a23565b925050819055506112a282826120e5565b5050565b6000600660009054906101000a900473ffffffffffffffffffffffffffffffffffffffff16905090565b6060600180546112df906133a1565b80601f016020809104026020016040519081016040528092919081815260200182805461130b906133a1565b80156113585780601f1061132d57610100808354040283529160200191611358565b820191906000526020600020905b81548152906001019060200180831161133b57829003601f168201915b5050505050905090565b6101f4816113706007611ccd565b61137a9190613a23565b11156113bb576040517f08c379a00000000000000000000000000000000000000000000000000000000081526004016113b290613c0f565b60405180910390fd5b600681600c60003373ffffffffffffffffffffffffffffffffffffffff1673ffffffffffffffffffffffffffffffffffffffff168152602001908152602001600020546114089190613a23565b1115611449576040517f08c379a000000000000000000000000000000000000000000000000000000000815260040161144090613ca1565b60405180910390fd5b80600c60003373ffffffffffffffffffffffffffffffffffffffff1673ffffffffffffffffffffffffffffffffffffffff16815260200190815260200160002060008282546114989190613a23565b925050819055506114a933826120e5565b50565b6114be6114b7611c0c565b838361212b565b5050565b600960019054906101000a900460ff1681565b6114e66114e0611c0c565b83611cdb565b611525576040517f08c379a000000000000000000000000000000000000000000000000000000000815260040161151c906135fa565b60405180910390fd5b61153184848484612297565b50505050565b600681565b6701118f178fb4800081565b606061155382611ba0565b611592576040517f08c379a000000000000000000000000000000000000000000000000000000000815260040161158990613d33565b60405180910390fd5b61159a6122f3565b6115a383612385565b6040516020016115b4929190613ddb565b6040516020818303038152906040529050919050565b600060011515611644848480806020026020016040519081016040528093929190818152602001838360200280828437600081840152601f19601f82011690508083019250505050505050600854876040516020016116299190613e52565b604051602081830303815290604052805190602001206124e5565b15151490509392505050565b6101f481565b6000600560008473ffffffffffffffffffffffffffffffffffffffff1673ffffffffffffffffffffffffffffffffffffffff16815260200190815260200160002060008373ffffffffffffffffffffffffffffffffffffffff1673ffffffffffffffffffffffffffffffffffffffff16815260200190815260200160002060009054906101000a900460ff16905092915050565b600160028111156116fe576116fd6132e0565b5b600960009054906101000a900460ff1660028111156117205761171f6132e0565b5b14611760576040517f08c379a000000000000000000000000000000000000000000000000000000000815260040161175790613eb9565b60405180910390fd5b61176b3383836115ca565b6117aa576040517f08c379a00000000000000000000000000000000000000000000000000000000081526004016117a190613f4b565b60405180910390fd5b6701118f178fb480003410156117f5576040517f08c379a00000000000000000000000000000000000000000000000000000000081526004016117ec90613fdd565b60405180910390fd5b6101f460016118046007611ccd565b61180e9190613a23565b111561184f576040517f08c379a00000000000000000000000000000000000000000000000000000000081526004016118469061406f565b60405180910390fd5b600d60003373ffffffffffffffffffffffffffffffffffffffff1673ffffffffffffffffffffffffffffffffffffffff16815260200190815260200160002060009054906101000a900460ff16156118dc576040517f08c379a00000000000000000000000000000000000000000000000000000000081526004016118d390614101565b60405180910390fd5b6001600d60003373ffffffffffffffffffffffffffffffffffffffff1673ffffffffffffffffffffffffffffffffffffffff16815260200190815260200160002060006101000a81548160ff02191690831515021790555061193f3360016120e5565b5050565b61194b611c0c565b73ffffffffffffffffffffffffffffffffffffffff166119696112a6565b73ffffffffffffffffffffffffffffffffffffffff16146119bf576040517f08c379a00000000000000000000000000000000000000000000000000000000081526004016119b690613666565b60405180910390fd5b600073ffffffffffffffffffffffffffffffffffffffff168173ffffffffffffffffffffffffffffffffffffffff1603611a2e576040517f08c379a0000000000000000000000000000000000000000000000000000000008152600401611a2590614193565b60405180910390fd5b611a378161201f565b50565b611a42611c0c565b73ffffffffffffffffffffffffffffffffffffffff16611a606112a6565b73ffffffffffffffffffffffffffffffffffffffff1614611ab6576040517f08c379a0000000000000000000000000000000000000000000000000000000008152600401611aad90613666565b60405180910390fd5b600960019054906101000a900460ff1615611b06576040517f08c379a0000000000000000000000000000000000000000000000000000000008152600401611afd906138df565b60405180910390fd5b6001600960016101000a81548160ff021916908315150217905550565b600960009054906101000a900460ff1681565b60007f01ffc9a7000000000000000000000000000000000000000000000000000000007bffffffffffffffffffffffffffffffffffffffffffffffffffffffff1916827bffffffffffffffffffffffffffffffffffffffffffffffffffffffff1916149050919050565b60008073ffffffffffffffffffffffffffffffffffffffff166002600084815260200190815260200160002060009054906101000a900473ffffffffffffffffffffffffffffffffffffffff1673ffffffffffffffffffffffffffffffffffffffff1614159050919050565b600033905090565b816004600083815260200190815260200160002060006101000a81548173ffffffffffffffffffffffffffffffffffffffff021916908373ffffffffffffffffffffffffffffffffffffffff160217905550808273ffffffffffffffffffffffffffffffffffffffff16611c8783610f69565b73ffffffffffffffffffffffffffffffffffffffff167f8c5be1e5ebec7d5bd14f71427d1e84f3dd0314c0f7b2291e5b200ac8c7c3b92560405160405180910390a45050565b600081600001549050919050565b6000611ce682611ba0565b611d25576040517f08c379a0000000000000000000000000000000000000000000000000000000008152600401611d1c90614225565b60405180910390fd5b6000611d3083610f69565b90508073ffffffffffffffffffffffffffffffffffffffff168473ffffffffffffffffffffffffffffffffffffffff161480611d725750611d718185611656565b5b80611db057508373ffffffffffffffffffffffffffffffffffffffff16611d988461090f565b73ffffffffffffffffffffffffffffffffffffffff16145b91505092915050565b8273ffffffffffffffffffffffffffffffffffffffff16611dd982610f69565b73ffffffffffffffffffffffffffffffffffffffff1614611e2f576040517f08c379a0000000000000000000000000000000000000000000000000000000008152600401611e26906142b7565b60405180910390fd5b600073ffffffffffffffffffffffffffffffffffffffff168273ffffffffffffffffffffffffffffffffffffffff1603611e9e576040517f08c379a0000000000000000000000000000000000000000000000000000000008152600401611e9590614349565b60405180910390fd5b611ea98383836124fc565b611eb4600082611c14565b6001600360008573ffffffffffffffffffffffffffffffffffffffff1673ffffffffffffffffffffffffffffffffffffffff1681526020019081526020016000206000828254611f049190614369565b925050819055506001600360008473ffffffffffffffffffffffffffffffffffffffff1673ffffffffffffffffffffffffffffffffffffffff1681526020019081526020016000206000828254611f5b9190613a23565b92505081905550816002600083815260200190815260200160002060006101000a81548173ffffffffffffffffffffffffffffffffffffffff021916908373ffffffffffffffffffffffffffffffffffffffff160217905550808273ffffffffffffffffffffffffffffffffffffffff168473ffffffffffffffffffffffffffffffffffffffff167fddf252ad1be2c89b69c2b068fc378daa952ba7f163c4a11628f55a4df523b3ef60405160405180910390a461201a838383612501565b505050565b6000600660009054906101000a900473ffffffffffffffffffffffffffffffffffffffff16905081600660006101000a81548173ffffffffffffffffffffffffffffffffffffffff021916908373ffffffffffffffffffffffffffffffffffffffff1602179055508173ffffffffffffffffffffffffffffffffffffffff168173ffffffffffffffffffffffffffffffffffffffff167f8be0079c531659141344cd1fd0a4f28419497f9722a3daafe3b4186f6b6457e060405160405180910390a35050565b60005b81811015612126576120fa6007612506565b60006121066007611ccd565b9050612112848261251c565b50808061211e9061439d565b9150506120e8565b505050565b8173ffffffffffffffffffffffffffffffffffffffff168373ffffffffffffffffffffffffffffffffffffffff1603612199576040517f08c379a000000000000000000000000000000000000000000000000000000000815260040161219090614431565b60405180910390fd5b80600560008573ffffffffffffffffffffffffffffffffffffffff1673ffffffffffffffffffffffffffffffffffffffff16815260200190815260200160002060008473ffffffffffffffffffffffffffffffffffffffff1673ffffffffffffffffffffffffffffffffffffffff16815260200190815260200160002060006101000a81548160ff0219169083151502179055508173ffffffffffffffffffffffffffffffffffffffff168373ffffffffffffffffffffffffffffffffffffffff167f17307eab39ab6107e8899845ad3d59bd9653f200f220920489ca2b5937696c318360405161228a9190612afb565b60405180910390a3505050565b6122a2848484611db9565b6122ae8484848461253a565b6122ed576040517f08c379a00000000000000000000000000000000000000000000000000000000081526004016122e4906144c3565b60405180910390fd5b50505050565b6060600b8054612302906133a1565b80601f016020809104026020016040519081016040528092919081815260200182805461232e906133a1565b801561237b5780601f106123505761010080835404028352916020019161237b565b820191906000526020600020905b81548152906001019060200180831161235e57829003601f168201915b5050505050905090565b6060600082036123cc576040518060400160405280600181526020017f300000000000000000000000000000000000000000000000000000000000000081525090506124e0565b600082905060005b600082146123fe5780806123e79061439d565b915050600a826123f7919061383c565b91506123d4565b60008167ffffffffffffffff81111561241a57612419612e62565b5b6040519080825280601f01601f19166020018201604052801561244c5781602001600182028036833780820191505090505b5090505b600085146124d9576001826124659190614369565b9150600a8561247491906144e3565b60306124809190613a23565b60f81b81838151811061249657612495614514565b5b60200101907effffffffffffffffffffffffffffffffffffffffffffffffffffffffffffff1916908160001a905350600a856124d2919061383c565b9450612450565b8093505050505b919050565b6000826124f285846126c1565b1490509392505050565b505050565b505050565b6001816000016000828254019250508190555050565b612536828260405180602001604052806000815250612736565b5050565b600061255b8473ffffffffffffffffffffffffffffffffffffffff16612791565b156126b4578373ffffffffffffffffffffffffffffffffffffffff1663150b7a02612584611c0c565b8786866040518563ffffffff1660e01b81526004016125a69493929190614598565b6020604051808303816000875af19250505080156125e257506040513d601f19601f820116820180604052508101906125df91906145f9565b60015b612664573d8060008114612612576040519150601f19603f3d011682016040523d82523d6000602084013e612617565b606091505b50600081510361265c576040517f08c379a0000000000000000000000000000000000000000000000000000000008152600401612653906144c3565b60405180910390fd5b805181602001fd5b63150b7a0260e01b7bffffffffffffffffffffffffffffffffffffffffffffffffffffffff1916817bffffffffffffffffffffffffffffffffffffffffffffffffffffffff1916149150506126b9565b600190505b949350505050565b60008082905060005b845181101561272b5760008582815181106126e8576126e7614514565b5b6020026020010151905080831161270a5761270383826127b4565b9250612717565b61271481846127b4565b92505b5080806127239061439d565b9150506126ca565b508091505092915050565b61274083836127cb565b61274d600084848461253a565b61278c576040517f08c379a0000000000000000000000000000000000000000000000000000000008152600401612783906144c3565b60405180910390fd5b505050565b6000808273ffffffffffffffffffffffffffffffffffffffff163b119050919050565b600082600052816020526040600020905092915050565b600073ffffffffffffffffffffffffffffffffffffffff168273ffffffffffffffffffffffffffffffffffffffff160361283a576040517f08c379a000000000000000000000000000000000000000000000000000000000815260040161283190614672565b60405180910390fd5b61284381611ba0565b15612883576040517f08c379a000000000000000000000000000000000000000000000000000000000815260040161287a906146de565b60405180910390fd5b61288f600083836124fc565b6001600360008473ffffffffffffffffffffffffffffffffffffffff1673ffffffffffffffffffffffffffffffffffffffff16815260200190815260200160002060008282546128df9190613a23565b92505081905550816002600083815260200190815260200160002060006101000a81548173ffffffffffffffffffffffffffffffffffffffff021916908373ffffffffffffffffffffffffffffffffffffffff160217905550808273ffffffffffffffffffffffffffffffffffffffff16600073ffffffffffffffffffffffffffffffffffffffff167fddf252ad1be2c89b69c2b068fc378daa952ba7f163c4a11628f55a4df523b3ef60405160405180910390a46129a060008383612501565b5050565b8280546129b0906133a1565b90600052602060002090601f0160209004810192826129d25760008555612a19565b82601f106129eb57805160ff1916838001178555612a19565b82800160010185558215612a19579182015b82811115612a185782518255916020019190600101906129fd565b5b509050612a269190612a2a565b5090565b5b80821115612a43576000816000905550600101612a2b565b5090565b6000604051905090565b600080fd5b600080fd5b60007fffffffff0000000000000000000000000000000000000000000000000000000082169050919050565b612a9081612a5b565b8114612a9b57600080fd5b50565b600081359050612aad81612a87565b92915050565b600060208284031215612ac957612ac8612a51565b5b6000612ad784828501612a9e565b91505092915050565b60008115159050919050565b612af581612ae0565b82525050565b6000602082019050612b106000830184612aec565b92915050565b600081519050919050565b600082825260208201905092915050565b60005b83811015612b50578082015181840152602081019050612b35565b83811115612b5f576000848401525b50505050565b6000601f19601f8301169050919050565b6000612b8182612b16565b612b8b8185612b21565b9350612b9b818560208601612b32565b612ba481612b65565b840191505092915050565b60006020820190508181036000830152612bc98184612b76565b905092915050565b6000819050919050565b612be481612bd1565b8114612bef57600080fd5b50565b600081359050612c0181612bdb565b92915050565b600060208284031215612c1d57612c1c612a51565b5b6000612c2b84828501612bf2565b91505092915050565b600073ffffffffffffffffffffffffffffffffffffffff82169050919050565b6000612c5f82612c34565b9050919050565b612c6f81612c54565b82525050565b6000602082019050612c8a6000830184612c66565b92915050565b612c9981612c54565b8114612ca457600080fd5b50565b600081359050612cb681612c90565b92915050565b60008060408385031215612cd357612cd2612a51565b5b6000612ce185828601612ca7565b9250506020612cf285828601612bf2565b9150509250929050565b612d0581612bd1565b82525050565b6000602082019050612d206000830184612cfc565b92915050565b6000819050919050565b612d3981612d26565b82525050565b6000602082019050612d546000830184612d30565b92915050565b600080600060608486031215612d7357612d72612a51565b5b6000612d8186828701612ca7565b9350506020612d9286828701612ca7565b9250506040612da386828701612bf2565b9150509250925092565b612db681612d26565b8114612dc157600080fd5b50565b600081359050612dd381612dad565b92915050565b600060208284031215612def57612dee612a51565b5b6000612dfd84828501612dc4565b91505092915050565b60038110612e1357600080fd5b50565b600081359050612e2581612e06565b92915050565b600060208284031215612e4157612e40612a51565b5b6000612e4f84828501612e16565b91505092915050565b600080fd5b600080fd5b7f4e487b7100000000000000000000000000000000000000000000000000000000600052604160045260246000fd5b612e9a82612b65565b810181811067ffffffffffffffff82111715612eb957612eb8612e62565b5b80604052505050565b6000612ecc612a47565b9050612ed88282612e91565b919050565b600067ffffffffffffffff821115612ef857612ef7612e62565b5b612f0182612b65565b9050602081019050919050565b82818337600083830152505050565b6000612f30612f2b84612edd565b612ec2565b905082815260208101848484011115612f4c57612f4b612e5d565b5b612f57848285612f0e565b509392505050565b600082601f830112612f7457612f73612e58565b5b8135612f84848260208601612f1d565b91505092915050565b600060208284031215612fa357612fa2612a51565b5b600082013567ffffffffffffffff811115612fc157612fc0612a56565b5b612fcd84828501612f5f565b91505092915050565b600060208284031215612fec57612feb612a51565b5b6000612ffa84828501612ca7565b91505092915050565b61300c81612ae0565b811461301757600080fd5b50565b60008135905061302981613003565b92915050565b6000806040838503121561304657613045612a51565b5b600061305485828601612ca7565b92505060206130658582860161301a565b9150509250929050565b600067ffffffffffffffff82111561308a57613089612e62565b5b61309382612b65565b9050602081019050919050565b60006130b36130ae8461306f565b612ec2565b9050828152602081018484840111156130cf576130ce612e5d565b5b6130da848285612f0e565b509392505050565b600082601f8301126130f7576130f6612e58565b5b81356131078482602086016130a0565b91505092915050565b6000806000806080858703121561312a57613129612a51565b5b600061313887828801612ca7565b945050602061314987828801612ca7565b935050604061315a87828801612bf2565b925050606085013567ffffffffffffffff81111561317b5761317a612a56565b5b613187878288016130e2565b91505092959194509250565b600080fd5b600080fd5b60008083601f8401126131b3576131b2612e58565b5b8235905067ffffffffffffffff8111156131d0576131cf613193565b5b6020830191508360208202830111156131ec576131eb613198565b5b9250929050565b60008060006040848603121561320c5761320b612a51565b5b600061321a86828701612ca7565b935050602084013567ffffffffffffffff81111561323b5761323a612a56565b5b6132478682870161319d565b92509250509250925092565b6000806040838503121561326a57613269612a51565b5b600061327885828601612ca7565b925050602061328985828601612ca7565b9150509250929050565b600080602083850312156132aa576132a9612a51565b5b600083013567ffffffffffffffff8111156132c8576132c7612a56565b5b6132d48582860161319d565b92509250509250929050565b7f4e487b7100000000000000000000000000000000000000000000000000000000600052602160045260246000fd5b600381106133205761331f6132e0565b5b50565b60008190506133318261330f565b919050565b600061334182613323565b9050919050565b61335181613336565b82525050565b600060208201905061336c6000830184613348565b92915050565b7f4e487b7100000000000000000000000000000000000000000000000000000000600052602260045260246000fd5b600060028204905060018216806133b957607f821691505b6020821081036133cc576133cb613372565b5b50919050565b7f4552433732313a20617070726f76656420717565727920666f72206e6f6e657860008201527f697374656e7420746f6b656e0000000000000000000000000000000000000000602082015250565b600061342e602c83612b21565b9150613439826133d2565b604082019050919050565b6000602082019050818103600083015261345d81613421565b9050919050565b7f4552433732313a20617070726f76616c20746f2063757272656e74206f776e6560008201527f7200000000000000000000000000000000000000000000000000000000000000602082015250565b60006134c0602183612b21565b91506134cb82613464565b604082019050919050565b600060208201905081810360008301526134ef816134b3565b9050919050565b7f4552433732313a20617070726f76652063616c6c6572206973206e6f74206f7760008201527f6e6572206e6f7220617070726f76656420666f7220616c6c0000000000000000602082015250565b6000613552603883612b21565b915061355d826134f6565b604082019050919050565b6000602082019050818103600083015261358181613545565b9050919050565b7f4552433732313a207472616e736665722063616c6c6572206973206e6f74206f60008201527f776e6572206e6f7220617070726f766564000000000000000000000000000000602082015250565b60006135e4603183612b21565b91506135ef82613588565b604082019050919050565b60006020820190508181036000830152613613816135d7565b9050919050565b7f4f776e61626c653a2063616c6c6572206973206e6f7420746865206f776e6572600082015250565b6000613650602083612b21565b915061365b8261361a565b602082019050919050565b6000602082019050818103600083015261367f81613643565b9050919050565b7f5468652070726573616c65206c69737420686173206265656e2066696e616c6960008201527f7a65642e00000000000000000000000000000000000000000000000000000000602082015250565b60006136e2602483612b21565b91506136ed82613686565b604082019050919050565b60006020820190508181036000830152613711816136d5565b9050919050565b7f4e6f2062616c616e636500000000000000000000000000000000000000000000600082015250565b600061374e600a83612b21565b915061375982613718565b602082019050919050565b6000602082019050818103600083015261377d81613741565b9050919050565b7f4e487b7100000000000000000000000000000000000000000000000000000000600052601160045260246000fd5b60006137be82612bd1565b91506137c983612bd1565b9250817fffffffffffffffffffffffffffffffffffffffffffffffffffffffffffffffff048311821515161561380257613801613784565b5b828202905092915050565b7f4e487b7100000000000000000000000000000000000000000000000000000000600052601260045260246000fd5b600061384782612bd1565b915061385283612bd1565b9250826138625761386161380d565b5b828204905092915050565b7f4d657461646174612068617320616c7265616479206265656e2066696e616c6960008201527f7a65642e00000000000000000000000000000000000000000000000000000000602082015250565b60006138c9602483612b21565b91506138d48261386d565b604082019050919050565b600060208201905081810360008301526138f8816138bc565b9050919050565b7f4552433732313a206f776e657220717565727920666f72206e6f6e657869737460008201527f656e7420746f6b656e0000000000000000000000000000000000000000000000602082015250565b600061395b602983612b21565b9150613966826138ff565b604082019050919050565b6000602082019050818103600083015261398a8161394e565b9050919050565b7f4552433732313a2062616c616e636520717565727920666f7220746865207a6560008201527f726f206164647265737300000000000000000000000000000000000000000000602082015250565b60006139ed602a83612b21565b91506139f882613991565b604082019050919050565b60006020820190508181036000830152613a1c816139e0565b9050919050565b6000613a2e82612bd1565b9150613a3983612bd1565b9250827fffffffffffffffffffffffffffffffffffffffffffffffffffffffffffffffff03821115613a6e57613a6d613784565b5b828201905092915050565b7f43616e206e6f742061697264726f70206d6f7265207468616e207075626c696360008201527f6c7920646973636c6f73656420746f207465616d000000000000000000000000602082015250565b6000613ad5603483612b21565b9150613ae082613a79565b604082019050919050565b60006020820190508181036000830152613b0481613ac8565b9050919050565b7f4e756d626572206f6620746f6b656e732072657175657374656420657863656560008201527f647320636f6c6c656374696f6e2073697a650000000000000000000000000000602082015250565b6000613b67603283612b21565b9150613b7282613b0b565b604082019050919050565b60006020820190508181036000830152613b9681613b5a565b9050919050565b7f4d696e74696e672074686973206d616e7920746f6b656e7320776f756c64206560008201527f78636565642074686520746f74616c20636f6c6c656374696f6e2073697a6500602082015250565b6000613bf9603f83612b21565b9150613c0482613b9d565b604082019050919050565b60006020820190508181036000830152613c2881613bec565b9050919050565b7f456163682061646472657373206d6179206f6e6c79206d696e74203620746f6b60008201527f656e730000000000000000000000000000000000000000000000000000000000602082015250565b6000613c8b602383612b21565b9150613c9682613c2f565b604082019050919050565b60006020820190508181036000830152613cba81613c7e565b9050919050565b7f546f6b656e20494420646f6573206e6f7420657869737420696e20746869732060008201527f636f6c6c656374696f6e00000000000000000000000000000000000000000000602082015250565b6000613d1d602a83612b21565b9150613d2882613cc1565b604082019050919050565b60006020820190508181036000830152613d4c81613d10565b9050919050565b600081905092915050565b6000613d6982612b16565b613d738185613d53565b9350613d83818560208601612b32565b80840191505092915050565b7f2e6a736f6e000000000000000000000000000000000000000000000000000000600082015250565b6000613dc5600583613d53565b9150613dd082613d8f565b600582019050919050565b6000613de78285613d5e565b9150613df38284613d5e565b9150613dfe82613db8565b91508190509392505050565b60008160601b9050919050565b6000613e2282613e0a565b9050919050565b6000613e3482613e17565b9050919050565b613e4c613e4782612c54565b613e29565b82525050565b6000613e5e8284613e3b565b60148201915081905092915050565b7f50726573616c65206973206e6f74206163746976650000000000000000000000600082015250565b6000613ea3601583612b21565b9150613eae82613e6d565b602082019050919050565b60006020820190508181036000830152613ed281613e96565b9050919050565b7f53656e646572206973206e6f74206f6e207468652070726573616c65206c697360008201527f7400000000000000000000000000000000000000000000000000000000000000602082015250565b6000613f35602183612b21565b9150613f4082613ed9565b604082019050919050565b60006020820190508181036000830152613f6481613f28565b9050919050565b7f45746865722076616c75652073656e74206973206c657373207468616e202e3060008201527f3737000000000000000000000000000000000000000000000000000000000000602082015250565b6000613fc7602283612b21565b9150613fd282613f6b565b604082019050919050565b60006020820190508181036000830152613ff681613fba565b9050919050565b7f436f6c6c656374696f6e2073697a65206c696d69742068617320616c7265616460008201527f79206265656e2072656163686564000000000000000000000000000000000000602082015250565b6000614059602e83612b21565b915061406482613ffd565b604082019050919050565b600060208201905081810360008301526140888161404c565b9050919050565b7f5468697320616464726573732068617320616c7265616479206d696e7465642060008201527f647572696e672070726573616c65000000000000000000000000000000000000602082015250565b60006140eb602e83612b21565b91506140f68261408f565b604082019050919050565b6000602082019050818103600083015261411a816140de565b9050919050565b7f4f776e61626c653a206e6577206f776e657220697320746865207a65726f206160008201527f6464726573730000000000000000000000000000000000000000000000000000602082015250565b600061417d602683612b21565b915061418882614121565b604082019050919050565b600060208201905081810360008301526141ac81614170565b9050919050565b7f4552433732313a206f70657261746f7220717565727920666f72206e6f6e657860008201527f697374656e7420746f6b656e0000000000000000000000000000000000000000602082015250565b600061420f602c83612b21565b915061421a826141b3565b604082019050919050565b6000602082019050818103600083015261423e81614202565b9050919050565b7f4552433732313a207472616e736665722066726f6d20696e636f72726563742060008201527f6f776e6572000000000000000000000000000000000000000000000000000000602082015250565b60006142a1602583612b21565b91506142ac82614245565b604082019050919050565b600060208201905081810360008301526142d081614294565b9050919050565b7f4552433732313a207472616e7366657220746f20746865207a65726f2061646460008201527f7265737300000000000000000000000000000000000000000000000000000000602082015250565b6000614333602483612b21565b915061433e826142d7565b604082019050919050565b6000602082019050818103600083015261436281614326565b9050919050565b600061437482612bd1565b915061437f83612bd1565b92508282101561439257614391613784565b5b828203905092915050565b60006143a882612bd1565b91507fffffffffffffffffffffffffffffffffffffffffffffffffffffffffffffffff82036143da576143d9613784565b5b600182019050919050565b7f4552433732313a20617070726f766520746f2063616c6c657200000000000000600082015250565b600061441b601983612b21565b9150614426826143e5565b602082019050919050565b6000602082019050818103600083015261444a8161440e565b9050919050565b7f4552433732313a207472616e7366657220746f206e6f6e20455243373231526560008201527f63656976657220696d706c656d656e7465720000000000000000000000000000602082015250565b60006144ad603283612b21565b91506144b882614451565b604082019050919050565b600060208201905081810360008301526144dc816144a0565b9050919050565b60006144ee82612bd1565b91506144f983612bd1565b9250826145095761450861380d565b5b828206905092915050565b7f4e487b7100000000000000000000000000000000000000000000000000000000600052603260045260246000fd5b600081519050919050565b600082825260208201905092915050565b600061456a82614543565b614574818561454e565b9350614584818560208601612b32565b61458d81612b65565b840191505092915050565b60006080820190506145ad6000830187612c66565b6145ba6020830186612c66565b6145c76040830185612cfc565b81810360608301526145d9818461455f565b905095945050505050565b6000815190506145f381612a87565b92915050565b60006020828403121561460f5761460e612a51565b5b600061461d848285016145e4565b91505092915050565b7f4552433732313a206d696e7420746f20746865207a65726f2061646472657373600082015250565b600061465c602083612b21565b915061466782614626565b602082019050919050565b6000602082019050818103600083015261468b8161464f565b9050919050565b7f4552433732313a20746f6b656e20616c7265616479206d696e74656400000000600082015250565b60006146c8601c83612b21565b91506146d382614692565b602082019050919050565b600060208201905081810360008301526146f7816146bb565b905091905056fea2646970667358221220e841544469a98cad6bb83292ded8e3ee34a0242baf655de81ba17ebf36ae45da64736f6c634300080d0033",
  "linkReferences": {},
  "deployedLinkReferences": {}
}