{
  "_format": "hh-sol-artifact-1",
  "contractName": "RevenueSplitter",
  "sourceName": "contracts/PaymentSplitter.sol",
  "abi": [
    {
      "inputs": [
        {
          "internalType": "address[]",
          "name": "payees_",
          "type": "address[]"
        },
        {
          "internalType": "uint256[]",
          "name": "shares_",
          "type": "uint256[]"
        }
      ],
      "stateMutability": "nonpayable",
      "type": "constructor"
    },
    {
      "anonymous": false,
      "inputs": [
        {
          "indexed": true,
          "internalType": "contract IERC20",
          "name": "token",
          "type": "address"
        },
        {
          "indexed": false,
          "internalType": "address",
          "name": "to",
          "type": "address"
        },
        {
          "indexed": false,
          "internalType": "uint256",
          "name": "amount",
          "type": "uint256"
        }
      ],
      "name": "ERC20PaymentReleased",
      "type": "event"
    },
    {
      "anonymous": false,
      "inputs": [
        {
          "indexed": false,
          "internalType": "address",
          "name": "account",
          "type": "address"
        },
        {
          "indexed": false,
          "internalType": "uint256",
          "name": "shares",
          "type": "uint256"
        }
      ],
      "name": "PayeeAdded",
      "type": "event"
    },
    {
      "anonymous": false,
      "inputs": [
        {
          "indexed": false,
          "internalType": "address",
          "name": "from",
          "type": "address"
        },
        {
          "indexed": false,
          "internalType": "uint256",
          "name": "amount",
          "type": "uint256"
        }
      ],
      "name": "PaymentReceived",
      "type": "event"
    },
    {
      "anonymous": false,
      "inputs": [
        {
          "indexed": false,
          "internalType": "address",
          "name": "to",
          "type": "address"
        },
        {
          "indexed": false,
          "internalType": "uint256",
          "name": "amount",
          "type": "uint256"
        }
      ],
      "name": "PaymentReleased",
      "type": "event"
    },
    {
      "inputs": [
        {
          "internalType": "uint256",
          "name": "index",
          "type": "uint256"
        }
      ],
      "name": "payee",
      "outputs": [
        {
          "internalType": "address",
          "name": "",
          "type": "address"
        }
      ],
      "stateMutability": "view",
      "type": "function"
    },
    {
      "inputs": [],
      "name": "payeeCount",
      "outputs": [
        {
          "internalType": "uint256",
          "name": "",
          "type": "uint256"
        }
      ],
      "stateMutability": "view",
      "type": "function"
    },
    {
      "inputs": [
        {
          "internalType": "address payable",
          "name": "account",
          "type": "address"
        }
      ],
      "name": "release",
      "outputs": [],
      "stateMutability": "nonpayable",
      "type": "function"
    },
    {
      "inputs": [
        {
          "internalType": "contract IERC20",
          "name": "token",
          "type": "address"
        },
        {
          "internalType": "address",
          "name": "account",
          "type": "address"
        }
      ],
      "name": "release",
      "outputs": [],
      "stateMutability": "nonpayable",
      "type": "function"
    },
    {
      "inputs": [],
      "name": "releaseAll",
      "outputs": [],
      "stateMutability": "nonpayable",
      "type": "function"
    },
    {
      "inputs": [
        {
          "internalType": "contract IERC20",
          "name": "token",
          "type": "address"
        },
        {
          "internalType": "address",
          "name": "account",
          "type": "address"
        }
      ],
      "name": "released",
      "outputs": [
        {
          "internalType": "uint256",
          "name": "",
          "type": "uint256"
        }
      ],
      "stateMutability": "view",
      "type": "function"
    },
    {
      "inputs": [
        {
          "internalType": "address",
          "name": "account",
          "type": "address"
        }
      ],
      "name": "released",
      "outputs": [
        {
          "internalType": "uint256",
          "name": "",
          "type": "uint256"
        }
      ],
      "stateMutability": "view",
      "type": "function"
    },
    {
      "inputs": [
        {
          "internalType": "address",
          "name": "account",
          "type": "address"
        }
      ],
      "name": "shares",
      "outputs": [
        {
          "internalType": "uint256",
          "name": "",
          "type": "uint256"
        }
      ],
      "stateMutability": "view",
      "type": "function"
    },
    {
      "inputs": [
        {
          "internalType": "contract IERC20",
          "name": "token",
          "type": "address"
        }
      ],
      "name": "totalReleased",
      "outputs": [
        {
          "internalType": "uint256",
          "name": "",
          "type": "uint256"
        }
      ],
      "stateMutability": "view",
      "type": "function"
    },
    {
      "inputs": [],
      "name": "totalReleased",
      "outputs": [
        {
          "internalType": "uint256",
          "name": "",
          "type": "uint256"
        }
      ],
      "stateMutability": "view",
      "type": "function"
    },
    {
      "inputs": [],
      "name": "totalShares",
      "outputs": [
        {
          "internalType": "uint256",
          "name": "",
          "type": "uint256"
        }
      ],
      "stateMutability": "view",
      "type": "function"
    },
    {
      "stateMutability": "payable",
      "type": "receive"
    }
  ],
  "bytecode": "0x60806040523480156200001157600080fd5b50604051620023c0380380620023c0833981810160405281019062000037919062000681565b8181805182511462000080576040517f08c379a000000000000000000000000000000000000000000000000000000000815260040162000077906200078d565b60405180910390fd5b6000825111620000c7576040517f08c379a0000000000000000000000000000000000000000000000000000000008152600401620000be90620007ff565b60405180910390fd5b60005b8251811015620001365762000120838281518110620000ee57620000ed62000821565b5b60200260200101518383815181106200010c576200010b62000821565b5b60200260200101516200014960201b60201c565b80806200012d906200087f565b915050620000ca565b5050508151600781905550505062000b1a565b600073ffffffffffffffffffffffffffffffffffffffff168273ffffffffffffffffffffffffffffffffffffffff1603620001bb576040517f08c379a0000000000000000000000000000000000000000000000000000000008152600401620001b29062000942565b60405180910390fd5b6000811162000201576040517f08c379a0000000000000000000000000000000000000000000000000000000008152600401620001f890620009b4565b60405180910390fd5b6000600260008473ffffffffffffffffffffffffffffffffffffffff1673ffffffffffffffffffffffffffffffffffffffff168152602001908152602001600020541462000286576040517f08c379a00000000000000000000000000000000000000000000000000000000081526004016200027d9062000a4c565b60405180910390fd5b6004829080600181540180825580915050600190039060005260206000200160009091909190916101000a81548173ffffffffffffffffffffffffffffffffffffffff021916908373ffffffffffffffffffffffffffffffffffffffff16021790555080600260008473ffffffffffffffffffffffffffffffffffffffff1673ffffffffffffffffffffffffffffffffffffffff16815260200190815260200160002081905550806000546200033d919062000a6e565b6000819055507f40c340f65e17194d14ddddb073d3c9f888e3cb52b5aae0c6c7706b4fbc905fac82826040516200037692919062000aed565b60405180910390a15050565b6000604051905090565b600080fd5b600080fd5b600080fd5b6000601f19601f8301169050919050565b7f4e487b7100000000000000000000000000000000000000000000000000000000600052604160045260246000fd5b620003e6826200039b565b810181811067ffffffffffffffff82111715620004085762000407620003ac565b5b80604052505050565b60006200041d62000382565b90506200042b8282620003db565b919050565b600067ffffffffffffffff8211156200044e576200044d620003ac565b5b602082029050602081019050919050565b600080fd5b600073ffffffffffffffffffffffffffffffffffffffff82169050919050565b6000620004918262000464565b9050919050565b620004a38162000484565b8114620004af57600080fd5b50565b600081519050620004c38162000498565b92915050565b6000620004e0620004da8462000430565b62000411565b905080838252602082019050602084028301858111156200050657620005056200045f565b5b835b818110156200053357806200051e8882620004b2565b84526020840193505060208101905062000508565b5050509392505050565b600082601f83011262000555576200055462000396565b5b815162000567848260208601620004c9565b91505092915050565b600067ffffffffffffffff8211156200058e576200058d620003ac565b5b602082029050602081019050919050565b6000819050919050565b620005b4816200059f565b8114620005c057600080fd5b50565b600081519050620005d481620005a9565b92915050565b6000620005f1620005eb8462000570565b62000411565b905080838252602082019050602084028301858111156200061757620006166200045f565b5b835b818110156200064457806200062f8882620005c3565b84526020840193505060208101905062000619565b5050509392505050565b600082601f83011262000666576200066562000396565b5b815162000678848260208601620005da565b91505092915050565b600080604083850312156200069b576200069a6200038c565b5b600083015167ffffffffffffffff811115620006bc57620006bb62000391565b5b620006ca858286016200053d565b925050602083015167ffffffffffffffff811115620006ee57620006ed62000391565b5b620006fc858286016200064e565b9150509250929050565b600082825260208201905092915050565b7f5061796d656e7453706c69747465723a2070617965657320616e64207368617260008201527f6573206c656e677468206d69736d617463680000000000000000000000000000602082015250565b60006200077560328362000706565b9150620007828262000717565b604082019050919050565b60006020820190508181036000830152620007a88162000766565b9050919050565b7f5061796d656e7453706c69747465723a206e6f20706179656573000000000000600082015250565b6000620007e7601a8362000706565b9150620007f482620007af565b602082019050919050565b600060208201905081810360008301526200081a81620007d8565b9050919050565b7f4e487b7100000000000000000000000000000000000000000000000000000000600052603260045260246000fd5b7f4e487b7100000000000000000000000000000000000000000000000000000000600052601160045260246000fd5b60006200088c826200059f565b91507fffffffffffffffffffffffffffffffffffffffffffffffffffffffffffffffff8203620008c157620008c062000850565b5b600182019050919050565b7f5061796d656e7453706c69747465723a206163636f756e74206973207468652060008201527f7a65726f20616464726573730000000000000000000000000000000000000000602082015250565b60006200092a602c8362000706565b91506200093782620008cc565b604082019050919050565b600060208201905081810360008301526200095d816200091b565b9050919050565b7f5061796d656e7453706c69747465723a20736861726573206172652030000000600082015250565b60006200099c601d8362000706565b9150620009a98262000964565b602082019050919050565b60006020820190508181036000830152620009cf816200098d565b9050919050565b7f5061796d656e7453706c69747465723a206163636f756e7420616c726561647960008201527f2068617320736861726573000000000000000000000000000000000000000000602082015250565b600062000a34602b8362000706565b915062000a4182620009d6565b604082019050919050565b6000602082019050818103600083015262000a678162000a25565b9050919050565b600062000a7b826200059f565b915062000a88836200059f565b9250827fffffffffffffffffffffffffffffffffffffffffffffffffffffffffffffffff0382111562000ac05762000abf62000850565b5b828201905092915050565b62000ad68162000484565b82525050565b62000ae7816200059f565b82525050565b600060408201905062000b04600083018562000acb565b62000b13602083018462000adc565b9392505050565b6118968062000b2a6000396000f3fe60806040526004361061009f5760003560e01c80635be7fde8116100645780635be7fde8146101d05780638b83209b146101e75780639852595c14610224578063ce7c2ac214610261578063d79779b21461029e578063e33b7de3146102db576100e6565b8062dbe109146100eb57806319165587146101165780633a98ef391461013f578063406072a91461016a57806348b75044146101a7576100e6565b366100e6577f6ef95f06320e7a25a04a175ca677b7052bdd97131872c2192525a629f51be7706100cd610306565b346040516100dc929190610e15565b60405180910390a1005b600080fd5b3480156100f757600080fd5b5061010061030e565b60405161010d9190610e3e565b60405180910390f35b34801561012257600080fd5b5061013d60048036038101906101389190610e9c565b610314565b005b34801561014b57600080fd5b506101546104be565b6040516101619190610e3e565b60405180910390f35b34801561017657600080fd5b50610191600480360381019061018c9190610f33565b6104c7565b60405161019e9190610e3e565b60405180910390f35b3480156101b357600080fd5b506101ce60048036038101906101c99190610f33565b61054e565b005b3480156101dc57600080fd5b506101e5610806565b005b3480156101f357600080fd5b5061020e60048036038101906102099190610f9f565b610829565b60405161021b9190610fcc565b60405180910390f35b34801561023057600080fd5b5061024b60048036038101906102469190610fe7565b610871565b6040516102589190610e3e565b60405180910390f35b34801561026d57600080fd5b5061028860048036038101906102839190610fe7565b6108ba565b6040516102959190610e3e565b60405180910390f35b3480156102aa57600080fd5b506102c560048036038101906102c09190611014565b610903565b6040516102d29190610e3e565b60405180910390f35b3480156102e757600080fd5b506102f061094c565b6040516102fd9190610e3e565b60405180910390f35b600033905090565b60075481565b6000600260008373ffffffffffffffffffffffffffffffffffffffff1673ffffffffffffffffffffffffffffffffffffffff1681526020019081526020016000205411610396576040517f08c379a000000000000000000000000000000000000000000000000000000000815260040161038d906110c4565b60405180910390fd5b60006103a061094c565b476103ab9190611113565b905060006103c283836103bd86610871565b610956565b905060008103610407576040517f08c379a00000000000000000000000000000000000000000000000000000000081526004016103fe906111db565b60405180910390fd5b80600360008573ffffffffffffffffffffffffffffffffffffffff1673ffffffffffffffffffffffffffffffffffffffff16815260200190815260200160002060008282546104569190611113565b92505081905550806001600082825461046f9190611113565b9250508190555061048083826109c4565b7fdf20fd1e76bc69d672e4814fafb2c449bba3a5369d8359adf9e05e6fde87b05683826040516104b192919061125a565b60405180910390a1505050565b60008054905090565b6000600660008473ffffffffffffffffffffffffffffffffffffffff1673ffffffffffffffffffffffffffffffffffffffff16815260200190815260200160002060008373ffffffffffffffffffffffffffffffffffffffff1673ffffffffffffffffffffffffffffffffffffffff16815260200190815260200160002054905092915050565b6000600260008373ffffffffffffffffffffffffffffffffffffffff1673ffffffffffffffffffffffffffffffffffffffff16815260200190815260200160002054116105d0576040517f08c379a00000000000000000000000000000000000000000000000000000000081526004016105c7906110c4565b60405180910390fd5b60006105db83610903565b8373ffffffffffffffffffffffffffffffffffffffff166370a08231306040518263ffffffff1660e01b81526004016106149190610fcc565b602060405180830381865afa158015610631573d6000803e3d6000fd5b505050506040513d601f19601f820116820180604052508101906106559190611298565b61065f9190611113565b90506000610677838361067287876104c7565b610956565b9050600081036106bc576040517f08c379a00000000000000000000000000000000000000000000000000000000081526004016106b3906111db565b60405180910390fd5b80600660008673ffffffffffffffffffffffffffffffffffffffff1673ffffffffffffffffffffffffffffffffffffffff16815260200190815260200160002060008573ffffffffffffffffffffffffffffffffffffffff1673ffffffffffffffffffffffffffffffffffffffff16815260200190815260200160002060008282546107489190611113565b9250508190555080600560008673ffffffffffffffffffffffffffffffffffffffff1673ffffffffffffffffffffffffffffffffffffffff168152602001908152602001600020600082825461079e9190611113565b925050819055506107b0848483610ab8565b8373ffffffffffffffffffffffffffffffffffffffff167f3be5b7a71e84ed12875d241991c70855ac5817d847039e17a9d895c1ceb0f18a84836040516107f8929190610e15565b60405180910390a250505050565b60005b60075481101561082657808061081e906112c5565b915050610809565b50565b60006004828154811061083f5761083e61130d565b5b9060005260206000200160009054906101000a900473ffffffffffffffffffffffffffffffffffffffff169050919050565b6000600360008373ffffffffffffffffffffffffffffffffffffffff1673ffffffffffffffffffffffffffffffffffffffff168152602001908152602001600020549050919050565b6000600260008373ffffffffffffffffffffffffffffffffffffffff1673ffffffffffffffffffffffffffffffffffffffff168152602001908152602001600020549050919050565b6000600560008373ffffffffffffffffffffffffffffffffffffffff1673ffffffffffffffffffffffffffffffffffffffff168152602001908152602001600020549050919050565b6000600154905090565b600081600054600260008773ffffffffffffffffffffffffffffffffffffffff1673ffffffffffffffffffffffffffffffffffffffff16815260200190815260200160002054856109a7919061133c565b6109b191906113c5565b6109bb91906113f6565b90509392505050565b80471015610a07576040517f08c379a00000000000000000000000000000000000000000000000000000000081526004016109fe90611476565b60405180910390fd5b60008273ffffffffffffffffffffffffffffffffffffffff1682604051610a2d906114c7565b60006040518083038185875af1925050503d8060008114610a6a576040519150601f19603f3d011682016040523d82523d6000602084013e610a6f565b606091505b5050905080610ab3576040517f08c379a0000000000000000000000000000000000000000000000000000000008152600401610aaa9061154e565b60405180910390fd5b505050565b610b398363a9059cbb60e01b8484604051602401610ad7929190610e15565b604051602081830303815290604052907bffffffffffffffffffffffffffffffffffffffffffffffffffffffff19166020820180517bffffffffffffffffffffffffffffffffffffffffffffffffffffffff8381831617835250505050610b3e565b505050565b6000610ba0826040518060400160405280602081526020017f5361666545524332303a206c6f772d6c6576656c2063616c6c206661696c65648152508573ffffffffffffffffffffffffffffffffffffffff16610c059092919063ffffffff16565b9050600081511115610c005780806020019051810190610bc091906115a6565b610bff576040517f08c379a0000000000000000000000000000000000000000000000000000000008152600401610bf690611645565b60405180910390fd5b5b505050565b6060610c148484600085610c1d565b90509392505050565b606082471015610c62576040517f08c379a0000000000000000000000000000000000000000000000000000000008152600401610c59906116d7565b60405180910390fd5b610c6b85610d31565b610caa576040517f08c379a0000000000000000000000000000000000000000000000000000000008152600401610ca190611743565b60405180910390fd5b6000808673ffffffffffffffffffffffffffffffffffffffff168587604051610cd391906117d2565b60006040518083038185875af1925050503d8060008114610d10576040519150601f19603f3d011682016040523d82523d6000602084013e610d15565b606091505b5091509150610d25828286610d54565b92505050949350505050565b6000808273ffffffffffffffffffffffffffffffffffffffff163b119050919050565b60608315610d6457829050610db4565b600083511115610d775782518084602001fd5b816040517f08c379a0000000000000000000000000000000000000000000000000000000008152600401610dab919061183e565b60405180910390fd5b9392505050565b600073ffffffffffffffffffffffffffffffffffffffff82169050919050565b6000610de682610dbb565b9050919050565b610df681610ddb565b82525050565b6000819050919050565b610e0f81610dfc565b82525050565b6000604082019050610e2a6000830185610ded565b610e376020830184610e06565b9392505050565b6000602082019050610e536000830184610e06565b92915050565b600080fd5b6000610e6982610dbb565b9050919050565b610e7981610e5e565b8114610e8457600080fd5b50565b600081359050610e9681610e70565b92915050565b600060208284031215610eb257610eb1610e59565b5b6000610ec084828501610e87565b91505092915050565b6000610ed482610ddb565b9050919050565b610ee481610ec9565b8114610eef57600080fd5b50565b600081359050610f0181610edb565b92915050565b610f1081610ddb565b8114610f1b57600080fd5b50565b600081359050610f2d81610f07565b92915050565b60008060408385031215610f4a57610f49610e59565b5b6000610f5885828601610ef2565b9250506020610f6985828601610f1e565b9150509250929050565b610f7c81610dfc565b8114610f8757600080fd5b50565b600081359050610f9981610f73565b92915050565b600060208284031215610fb557610fb4610e59565b5b6000610fc384828501610f8a565b91505092915050565b6000602082019050610fe16000830184610ded565b92915050565b600060208284031215610ffd57610ffc610e59565b5b600061100b84828501610f1e565b91505092915050565b60006020828403121561102a57611029610e59565b5b600061103884828501610ef2565b91505092915050565b600082825260208201905092915050565b7f5061796d656e7453706c69747465723a206163636f756e7420686173206e6f2060008201527f7368617265730000000000000000000000000000000000000000000000000000602082015250565b60006110ae602683611041565b91506110b982611052565b604082019050919050565b600060208201905081810360008301526110dd816110a1565b9050919050565b7f4e487b7100000000000000000000000000000000000000000000000000000000600052601160045260246000fd5b600061111e82610dfc565b915061112983610dfc565b9250827fffffffffffffffffffffffffffffffffffffffffffffffffffffffffffffffff0382111561115e5761115d6110e4565b5b828201905092915050565b7f5061796d656e7453706c69747465723a206163636f756e74206973206e6f742060008201527f647565207061796d656e74000000000000000000000000000000000000000000602082015250565b60006111c5602b83611041565b91506111d082611169565b604082019050919050565b600060208201905081810360008301526111f4816111b8565b9050919050565b6000819050919050565b600061122061121b61121684610dbb565b6111fb565b610dbb565b9050919050565b600061123282611205565b9050919050565b600061124482611227565b9050919050565b61125481611239565b82525050565b600060408201905061126f600083018561124b565b61127c6020830184610e06565b9392505050565b60008151905061129281610f73565b92915050565b6000602082840312156112ae576112ad610e59565b5b60006112bc84828501611283565b91505092915050565b60006112d082610dfc565b91507fffffffffffffffffffffffffffffffffffffffffffffffffffffffffffffffff8203611302576113016110e4565b5b600182019050919050565b7f4e487b7100000000000000000000000000000000000000000000000000000000600052603260045260246000fd5b600061134782610dfc565b915061135283610dfc565b9250817fffffffffffffffffffffffffffffffffffffffffffffffffffffffffffffffff048311821515161561138b5761138a6110e4565b5b828202905092915050565b7f4e487b7100000000000000000000000000000000000000000000000000000000600052601260045260246000fd5b60006113d082610dfc565b91506113db83610dfc565b9250826113eb576113ea611396565b5b828204905092915050565b600061140182610dfc565b915061140c83610dfc565b92508282101561141f5761141e6110e4565b5b828203905092915050565b7f416464726573733a20696e73756666696369656e742062616c616e6365000000600082015250565b6000611460601d83611041565b915061146b8261142a565b602082019050919050565b6000602082019050818103600083015261148f81611453565b9050919050565b600081905092915050565b50565b60006114b1600083611496565b91506114bc826114a1565b600082019050919050565b60006114d2826114a4565b9150819050919050565b7f416464726573733a20756e61626c6520746f2073656e642076616c75652c207260008201527f6563697069656e74206d61792068617665207265766572746564000000000000602082015250565b6000611538603a83611041565b9150611543826114dc565b604082019050919050565b600060208201905081810360008301526115678161152b565b9050919050565b60008115159050919050565b6115838161156e565b811461158e57600080fd5b50565b6000815190506115a08161157a565b92915050565b6000602082840312156115bc576115bb610e59565b5b60006115ca84828501611591565b91505092915050565b7f5361666545524332303a204552433230206f7065726174696f6e20646964206e60008201527f6f74207375636365656400000000000000000000000000000000000000000000602082015250565b600061162f602a83611041565b915061163a826115d3565b604082019050919050565b6000602082019050818103600083015261165e81611622565b9050919050565b7f416464726573733a20696e73756666696369656e742062616c616e636520666f60008201527f722063616c6c0000000000000000000000000000000000000000000000000000602082015250565b60006116c1602683611041565b91506116cc82611665565b604082019050919050565b600060208201905081810360008301526116f0816116b4565b9050919050565b7f416464726573733a2063616c6c20746f206e6f6e2d636f6e7472616374000000600082015250565b600061172d601d83611041565b9150611738826116f7565b602082019050919050565b6000602082019050818103600083015261175c81611720565b9050919050565b600081519050919050565b60005b8381101561178c578082015181840152602081019050611771565b8381111561179b576000848401525b50505050565b60006117ac82611763565b6117b68185611496565b93506117c681856020860161176e565b80840191505092915050565b60006117de82846117a1565b915081905092915050565b600081519050919050565b6000601f19601f8301169050919050565b6000611810826117e9565b61181a8185611041565b935061182a81856020860161176e565b611833816117f4565b840191505092915050565b600060208201905081810360008301526118588184611805565b90509291505056fea2646970667358221220ae136a1532b0939871b011141f4dd0928592fcd385a8ea7e73f727a44df7fb5864736f6c634300080d0033",
  "linkReferences": {},
  "deployedLinkReferences": {}
}