{
	"CLstaking.sol": {
		"CyberlionStaking": {
			"abi": [
				{
					"inputs": [
						{
							"internalType": "address",
							"name": "_rewardsToken",
							"type": "address"
						}
					],
					"stateMutability": "nonpayable",
					"type": "constructor"
				},
				{
					"anonymous": false,
					"inputs": [
						{
							"indexed": true,
							"internalType": "address",
							"name": "previousOwner",
							"type": "address"
						},
						{
							"indexed": true,
							"internalType": "address",
							"name": "newOwner",
							"type": "address"
						}
					],
					"name": "OwnershipTransferred",
					"type": "event"
				},
				{
					"anonymous": false,
					"inputs": [
						{
							"indexed": true,
							"internalType": "bytes32",
							"name": "role",
							"type": "bytes32"
						},
						{
							"indexed": true,
							"internalType": "bytes32",
							"name": "previousAdminRole",
							"type": "bytes32"
						},
						{
							"indexed": true,
							"internalType": "bytes32",
							"name": "newAdminRole",
							"type": "bytes32"
						}
					],
					"name": "RoleAdminChanged",
					"type": "event"
				},
				{
					"anonymous": false,
					"inputs": [
						{
							"indexed": true,
							"internalType": "bytes32",
							"name": "role",
							"type": "bytes32"
						},
						{
							"indexed": true,
							"internalType": "address",
							"name": "account",
							"type": "address"
						},
						{
							"indexed": true,
							"internalType": "address",
							"name": "sender",
							"type": "address"
						}
					],
					"name": "RoleGranted",
					"type": "event"
				},
				{
					"anonymous": false,
					"inputs": [
						{
							"indexed": true,
							"internalType": "bytes32",
							"name": "role",
							"type": "bytes32"
						},
						{
							"indexed": true,
							"internalType": "address",
							"name": "account",
							"type": "address"
						},
						{
							"indexed": true,
							"internalType": "address",
							"name": "sender",
							"type": "address"
						}
					],
					"name": "RoleRevoked",
					"type": "event"
				},
				{
					"inputs": [],
					"name": "ADMIN_ROLE",
					"outputs": [
						{
							"internalType": "bytes32",
							"name": "",
							"type": "bytes32"
						}
					],
					"stateMutability": "view",
					"type": "function"
				},
				{
					"inputs": [],
					"name": "DEFAULT_ADMIN_ROLE",
					"outputs": [
						{
							"internalType": "bytes32",
							"name": "",
							"type": "bytes32"
						}
					],
					"stateMutability": "view",
					"type": "function"
				},
				{
					"inputs": [
						{
							"internalType": "uint256",
							"name": "_collectionID",
							"type": "uint256"
						},
						{
							"internalType": "uint256[]",
							"name": "_tokenIDs",
							"type": "uint256[]"
						}
					],
					"name": "batchStake",
					"outputs": [],
					"stateMutability": "nonpayable",
					"type": "function"
				},
				{
					"inputs": [
						{
							"internalType": "uint256",
							"name": "_collectionID",
							"type": "uint256"
						},
						{
							"internalType": "uint256[]",
							"name": "_tokenIDs",
							"type": "uint256[]"
						}
					],
					"name": "batchUnstake",
					"outputs": [],
					"stateMutability": "nonpayable",
					"type": "function"
				},
				{
					"inputs": [
						{
							"internalType": "address",
							"name": "_userAddress",
							"type": "address"
						},
						{
							"internalType": "uint256",
							"name": "_collectionID",
							"type": "uint256"
						},
						{
							"internalType": "uint256",
							"name": "_tokenID",
							"type": "uint256"
						}
					],
					"name": "claimableReward",
					"outputs": [
						{
							"internalType": "uint256",
							"name": "",
							"type": "uint256"
						}
					],
					"stateMutability": "view",
					"type": "function"
				},
				{
					"inputs": [
						{
							"internalType": "uint256",
							"name": "",
							"type": "uint256"
						}
					],
					"name": "collectionInfo",
					"outputs": [
						{
							"internalType": "address",
							"name": "collectionAddress",
							"type": "address"
						},
						{
							"internalType": "uint256",
							"name": "rewardPerDay",
							"type": "uint256"
						},
						{
							"internalType": "uint256",
							"name": "totalAmountStaked",
							"type": "uint256"
						}
					],
					"stateMutability": "view",
					"type": "function"
				},
				{
					"inputs": [
						{
							"internalType": "bytes32",
							"name": "role",
							"type": "bytes32"
						}
					],
					"name": "getRoleAdmin",
					"outputs": [
						{
							"internalType": "bytes32",
							"name": "",
							"type": "bytes32"
						}
					],
					"stateMutability": "view",
					"type": "function"
				},
				{
					"inputs": [
						{
							"internalType": "uint256",
							"name": "_collectionID",
							"type": "uint256"
						}
					],
					"name": "getTotalStakedItemsCount",
					"outputs": [
						{
							"internalType": "uint256",
							"name": "",
							"type": "uint256"
						}
					],
					"stateMutability": "view",
					"type": "function"
				},
				{
					"inputs": [
						{
							"internalType": "address",
							"name": "_userAddress",
							"type": "address"
						},
						{
							"internalType": "uint256",
							"name": "_collectionID",
							"type": "uint256"
						}
					],
					"name": "getUserStakedTokens",
					"outputs": [
						{
							"internalType": "uint256[]",
							"name": "",
							"type": "uint256[]"
						}
					],
					"stateMutability": "view",
					"type": "function"
				},
				{
					"inputs": [
						{
							"internalType": "bytes32",
							"name": "role",
							"type": "bytes32"
						},
						{
							"internalType": "address",
							"name": "account",
							"type": "address"
						}
					],
					"name": "grantRole",
					"outputs": [],
					"stateMutability": "nonpayable",
					"type": "function"
				},
				{
					"inputs": [
						{
							"internalType": "bytes32",
							"name": "role",
							"type": "bytes32"
						},
						{
							"internalType": "address",
							"name": "account",
							"type": "address"
						}
					],
					"name": "hasRole",
					"outputs": [
						{
							"internalType": "bool",
							"name": "",
							"type": "bool"
						}
					],
					"stateMutability": "view",
					"type": "function"
				},
				{
					"inputs": [],
					"name": "mintTest",
					"outputs": [],
					"stateMutability": "nonpayable",
					"type": "function"
				},
				{
					"inputs": [
						{
							"internalType": "address",
							"name": "",
							"type": "address"
						},
						{
							"internalType": "address",
							"name": "",
							"type": "address"
						},
						{
							"internalType": "uint256",
							"name": "",
							"type": "uint256"
						}
					],
					"name": "onERC721Received",
					"outputs": [
						{
							"internalType": "bytes4",
							"name": "",
							"type": "bytes4"
						}
					],
					"stateMutability": "pure",
					"type": "function"
				},
				{
					"inputs": [],
					"name": "owner",
					"outputs": [
						{
							"internalType": "address",
							"name": "",
							"type": "address"
						}
					],
					"stateMutability": "view",
					"type": "function"
				},
				{
					"inputs": [],
					"name": "renounceOwnership",
					"outputs": [],
					"stateMutability": "nonpayable",
					"type": "function"
				},
				{
					"inputs": [
						{
							"internalType": "bytes32",
							"name": "role",
							"type": "bytes32"
						},
						{
							"internalType": "address",
							"name": "account",
							"type": "address"
						}
					],
					"name": "renounceRole",
					"outputs": [],
					"stateMutability": "nonpayable",
					"type": "function"
				},
				{
					"inputs": [
						{
							"internalType": "bytes32",
							"name": "role",
							"type": "bytes32"
						},
						{
							"internalType": "address",
							"name": "account",
							"type": "address"
						}
					],
					"name": "revokeRole",
					"outputs": [],
					"stateMutability": "nonpayable",
					"type": "function"
				},
				{
					"inputs": [
						{
							"internalType": "address",
							"name": "admin",
							"type": "address"
						}
					],
					"name": "setAdminRole",
					"outputs": [],
					"stateMutability": "nonpayable",
					"type": "function"
				},
				{
					"inputs": [
						{
							"internalType": "address",
							"name": "_collectionAddress",
							"type": "address"
						},
						{
							"internalType": "uint256",
							"name": "_rewardPerDay",
							"type": "uint256"
						}
					],
					"name": "setCollection",
					"outputs": [],
					"stateMutability": "nonpayable",
					"type": "function"
				},
				{
					"inputs": [
						{
							"internalType": "uint256",
							"name": "_collectionID",
							"type": "uint256"
						},
						{
							"internalType": "uint256",
							"name": "_tokenID",
							"type": "uint256"
						}
					],
					"name": "stake",
					"outputs": [],
					"stateMutability": "nonpayable",
					"type": "function"
				},
				{
					"inputs": [
						{
							"internalType": "bytes4",
							"name": "interfaceId",
							"type": "bytes4"
						}
					],
					"name": "supportsInterface",
					"outputs": [
						{
							"internalType": "bool",
							"name": "",
							"type": "bool"
						}
					],
					"stateMutability": "view",
					"type": "function"
				},
				{
					"inputs": [
						{
							"internalType": "address",
							"name": "_userAddress",
							"type": "address"
						},
						{
							"internalType": "uint256",
							"name": "_collectionID",
							"type": "uint256"
						}
					],
					"name": "totalClaimableReward",
					"outputs": [
						{
							"internalType": "uint256",
							"name": "",
							"type": "uint256"
						}
					],
					"stateMutability": "view",
					"type": "function"
				},
				{
					"inputs": [
						{
							"internalType": "address",
							"name": "newOwner",
							"type": "address"
						}
					],
					"name": "transferOwnership",
					"outputs": [],
					"stateMutability": "nonpayable",
					"type": "function"
				},
				{
					"inputs": [
						{
							"internalType": "uint256",
							"name": "_collectionID",
							"type": "uint256"
						},
						{
							"internalType": "uint256",
							"name": "_tokenID",
							"type": "uint256"
						}
					],
					"name": "unstake",
					"outputs": [],
					"stateMutability": "nonpayable",
					"type": "function"
				},
				{
					"inputs": [
						{
							"internalType": "uint256",
							"name": "_collectionID",
							"type": "uint256"
						},
						{
							"internalType": "address",
							"name": "_collectionAddress",
							"type": "address"
						},
						{
							"internalType": "uint256",
							"name": "_rewardPerDay",
							"type": "uint256"
						}
					],
					"name": "updateCollection",
					"outputs": [],
					"stateMutability": "nonpayable",
					"type": "function"
				}
			],
			"devdoc": {
				"kind": "dev",
				"methods": {
					"getRoleAdmin(bytes32)": {
						"details": "Returns the admin role that controls `role`. See {grantRole} and {revokeRole}. To change a role's admin, use {_setRoleAdmin}."
					},
					"grantRole(bytes32,address)": {
						"details": "Grants `role` to `account`. If `account` had not been already granted `role`, emits a {RoleGranted} event. Requirements: - the caller must have ``role``'s admin role."
					},
					"hasRole(bytes32,address)": {
						"details": "Returns `true` if `account` has been granted `role`."
					},
					"owner()": {
						"details": "Returns the address of the current owner."
					},
					"renounceOwnership()": {
						"details": "Leaves the contract without owner. It will not be possible to call `onlyOwner` functions anymore. Can only be called by the current owner. NOTE: Renouncing ownership will leave the contract without an owner, thereby removing any functionality that is only available to the owner."
					},
					"renounceRole(bytes32,address)": {
						"details": "Revokes `role` from the calling account. Roles are often managed via {grantRole} and {revokeRole}: this function's purpose is to provide a mechanism for accounts to lose their privileges if they are compromised (such as when a trusted device is misplaced). If the calling account had been revoked `role`, emits a {RoleRevoked} event. Requirements: - the caller must be `account`."
					},
					"revokeRole(bytes32,address)": {
						"details": "Revokes `role` from `account`. If `account` had been granted `role`, emits a {RoleRevoked} event. Requirements: - the caller must have ``role``'s admin role."
					},
					"supportsInterface(bytes4)": {
						"details": "See {IERC165-supportsInterface}."
					},
					"transferOwnership(address)": {
						"details": "Transfers ownership of the contract to a new account (`newOwner`). Can only be called by the current owner."
					}
				},
				"version": 1
			},
			"evm": {
				"assembly": "    /* \"CLstaking.sol\":584:7270  contract CyberlionStaking is Ownable, AccessControl {... */\n  mstore(0x40, 0x80)\n    /* \"CLstaking.sol\":670:688  keccak256(\"ADMIN\") */\n  0xdf8b4c520ffe197c5343c6f5aec59570151ef9a492f2c624fd45ddde6135ec42\n    /* \"CLstaking.sol\":642:688  bytes32 public ADMIN_ROLE = keccak256(\"ADMIN\") */\n  0x02\n  sstore\n    /* \"CLstaking.sol\":1313:1496  constructor(address _rewardsToken) {... */\n  callvalue\n  dup1\n  iszero\n  tag_1\n  jumpi\n  0x00\n  dup1\n  revert\ntag_1:\n  pop\n  mload(0x40)\n  sub(codesize, bytecodeSize)\n  dup1\n  bytecodeSize\n  dup4\n  codecopy\n  dup2\n  add\n  0x40\n  dup2\n  swap1\n  mstore\n  tag_2\n  swap2\n  tag_3\n  jump\t// in\ntag_2:\n    /* \"@openzeppelin/contracts/access/Ownable.sol\":921:953  _transferOwnership(_msgSender()) */\n  tag_7\n    /* \"@openzeppelin/contracts/utils/Context.sol\":719:729  msg.sender */\n  caller\n    /* \"@openzeppelin/contracts/access/Ownable.sol\":921:939  _transferOwnership */\n  tag_10\n    /* \"@openzeppelin/contracts/access/Ownable.sol\":921:953  _transferOwnership(_msgSender()) */\n  jump\t// in\ntag_7:\n    /* \"CLstaking.sol\":1358:1377  rewardsTokenAddress */\n  0x03\n    /* \"CLstaking.sol\":1358:1393  rewardsTokenAddress = _rewardsToken */\n  dup1\n  sload\n  not(sub(shl(0xa0, 0x01), 0x01))\n  and\n  sub(shl(0xa0, 0x01), 0x01)\n  dup4\n  and\n  or\n  swap1\n  sstore\n    /* \"CLstaking.sol\":1403:1445  _setupRole(DEFAULT_ADMIN_ROLE, msg.sender) */\n  tag_12\n  0x00\n    /* \"CLstaking.sol\":1434:1444  msg.sender */\n  caller\n    /* \"CLstaking.sol\":1403:1413  _setupRole */\n  tag_13\n    /* \"CLstaking.sol\":1403:1445  _setupRole(DEFAULT_ADMIN_ROLE, msg.sender) */\n  jump\t// in\ntag_12:\n    /* \"CLstaking.sol\":1466:1476  ADMIN_ROLE */\n  sload(0x02)\n    /* \"CLstaking.sol\":1455:1489  _setupRole(ADMIN_ROLE, msg.sender) */\n  tag_14\n  swap1\n    /* \"CLstaking.sol\":1478:1488  msg.sender */\n  caller\n    /* \"CLstaking.sol\":1455:1465  _setupRole */\n  tag_13\n    /* \"CLstaking.sol\":1455:1489  _setupRole(ADMIN_ROLE, msg.sender) */\n  jump\t// in\ntag_14:\n    /* \"CLstaking.sol\":1313:1496  constructor(address _rewardsToken) {... */\n  pop\n    /* \"CLstaking.sol\":584:7270  contract CyberlionStaking is Ownable, AccessControl {... */\n  jump(tag_27)\n    /* \"@openzeppelin/contracts/access/Ownable.sol\":2270:2457  function _transferOwnership(address newOwner) internal virtual {... */\ntag_10:\n    /* \"@openzeppelin/contracts/access/Ownable.sol\":2343:2359  address oldOwner */\n  0x00\n    /* \"@openzeppelin/contracts/access/Ownable.sol\":2362:2368  _owner */\n  dup1\n  sload\n  sub(shl(0xa0, 0x01), 0x01)\n    /* \"@openzeppelin/contracts/access/Ownable.sol\":2378:2395  _owner = newOwner */\n  dup4\n  dup2\n  and\n  not(sub(shl(0xa0, 0x01), 0x01))\n  dup4\n  and\n  dup2\n  or\n  dup5\n  sstore\n    /* \"@openzeppelin/contracts/access/Ownable.sol\":2410:2450  OwnershipTransferred(oldOwner, newOwner) */\n  mload(0x40)\n    /* \"@openzeppelin/contracts/access/Ownable.sol\":2362:2368  _owner */\n  swap2\n  swap1\n  swap3\n  and\n  swap3\n  dup4\n  swap2\n    /* \"@openzeppelin/contracts/access/Ownable.sol\":2410:2450  OwnershipTransferred(oldOwner, newOwner) */\n  0x8be0079c531659141344cd1fd0a4f28419497f9722a3daafe3b4186f6b6457e0\n  swap2\n    /* \"@openzeppelin/contracts/access/Ownable.sol\":2343:2359  address oldOwner */\n  swap1\n    /* \"@openzeppelin/contracts/access/Ownable.sol\":2410:2450  OwnershipTransferred(oldOwner, newOwner) */\n  log3\n    /* \"@openzeppelin/contracts/access/Ownable.sol\":2333:2457  {... */\n  pop\n    /* \"@openzeppelin/contracts/access/Ownable.sol\":2270:2457  function _transferOwnership(address newOwner) internal virtual {... */\n  pop\n  jump\t// out\n    /* \"@openzeppelin/contracts/access/AccessControl.sol\":6640:6750  function _setupRole(bytes32 role, address account) internal virtual {... */\ntag_13:\n    /* \"@openzeppelin/contracts/access/AccessControl.sol\":6718:6743  _grantRole(role, account) */\n  tag_19\n    /* \"@openzeppelin/contracts/access/AccessControl.sol\":6729:6733  role */\n  dup3\n    /* \"@openzeppelin/contracts/access/AccessControl.sol\":6735:6742  account */\n  dup3\n    /* \"@openzeppelin/contracts/access/AccessControl.sol\":6718:6728  _grantRole */\n  tag_20\n    /* \"@openzeppelin/contracts/access/AccessControl.sol\":6718:6743  _grantRole(role, account) */\n  jump\t// in\ntag_19:\n    /* \"@openzeppelin/contracts/access/AccessControl.sol\":6640:6750  function _setupRole(bytes32 role, address account) internal virtual {... */\n  pop\n  pop\n  jump\t// out\n    /* \"@openzeppelin/contracts/access/AccessControl.sol\":7244:7477  function _grantRole(bytes32 role, address account) internal virtual {... */\ntag_20:\n    /* \"@openzeppelin/contracts/access/AccessControl.sol\":2981:2985  bool */\n  0x00\n    /* \"@openzeppelin/contracts/access/AccessControl.sol\":3004:3016  _roles[role] */\n  dup3\n  dup2\n  mstore\n    /* \"@openzeppelin/contracts/access/AccessControl.sol\":3004:3010  _roles */\n  0x01\n    /* \"@openzeppelin/contracts/access/AccessControl.sol\":3004:3016  _roles[role] */\n  0x20\n  swap1\n  dup2\n  mstore\n  0x40\n  dup1\n  dup4\n  keccak256\n  sub(shl(0xa0, 0x01), 0x01)\n    /* \"@openzeppelin/contracts/access/AccessControl.sol\":3004:3033  _roles[role].members[account] */\n  dup6\n  and\n  dup5\n  mstore\n  swap1\n  swap2\n  mstore\n  swap1\n  keccak256\n  sload\n  0xff\n  and\n    /* \"@openzeppelin/contracts/access/AccessControl.sol\":7322:7471  if (!hasRole(role, account)) {... */\n  tag_19\n  jumpi\n    /* \"@openzeppelin/contracts/access/AccessControl.sol\":7365:7377  _roles[role] */\n  0x00\n  dup3\n  dup2\n  mstore\n    /* \"@openzeppelin/contracts/access/AccessControl.sol\":7397:7401  true */\n  0x01\n    /* \"@openzeppelin/contracts/access/AccessControl.sol\":7365:7377  _roles[role] */\n  0x20\n  dup2\n  dup2\n  mstore\n  0x40\n  dup1\n  dup5\n  keccak256\n  sub(shl(0xa0, 0x01), 0x01)\n    /* \"@openzeppelin/contracts/access/AccessControl.sol\":7365:7394  _roles[role].members[account] */\n  dup7\n  and\n  dup1\n  dup7\n  mstore\n  swap3\n  mstore\n  dup1\n  dup5\n  keccak256\n    /* \"@openzeppelin/contracts/access/AccessControl.sol\":7365:7401  _roles[role].members[account] = true */\n  dup1\n  sload\n  not(0xff)\n  and\n  swap1\n  swap4\n  or\n  swap1\n  swap3\n  sstore\n    /* \"@openzeppelin/contracts/access/AccessControl.sol\":7420:7460  RoleGranted(role, account, _msgSender()) */\n  swap1\n  mload\n    /* \"@openzeppelin/contracts/utils/Context.sol\":719:729  msg.sender */\n  caller\n  swap3\n    /* \"@openzeppelin/contracts/access/AccessControl.sol\":7365:7377  _roles[role] */\n  dup6\n  swap2\n    /* \"@openzeppelin/contracts/access/AccessControl.sol\":7420:7460  RoleGranted(role, account, _msgSender()) */\n  0x2f8788117e7eff1d82e926ec794901d17c78024a50270940304540a733656f0d\n  swap2\n    /* \"@openzeppelin/contracts/access/AccessControl.sol\":7365:7377  _roles[role] */\n  swap1\n    /* \"@openzeppelin/contracts/access/AccessControl.sol\":7420:7460  RoleGranted(role, account, _msgSender()) */\n  log4\n    /* \"@openzeppelin/contracts/access/AccessControl.sol\":7244:7477  function _grantRole(bytes32 role, address account) internal virtual {... */\n  pop\n  pop\n  jump\t// out\n    /* \"#utility.yul\":14:304   */\ntag_3:\n    /* \"#utility.yul\":84:90   */\n  0x00\n    /* \"#utility.yul\":137:139   */\n  0x20\n    /* \"#utility.yul\":125:134   */\n  dup3\n    /* \"#utility.yul\":116:123   */\n  dup5\n    /* \"#utility.yul\":112:135   */\n  sub\n    /* \"#utility.yul\":108:140   */\n  slt\n    /* \"#utility.yul\":105:157   */\n  iszero\n  tag_29\n  jumpi\n    /* \"#utility.yul\":153:154   */\n  0x00\n    /* \"#utility.yul\":150:151   */\n  dup1\n    /* \"#utility.yul\":143:155   */\n  revert\n    /* \"#utility.yul\":105:157   */\ntag_29:\n    /* \"#utility.yul\":179:195   */\n  dup2\n  mload\n  sub(shl(0xa0, 0x01), 0x01)\n    /* \"#utility.yul\":224:255   */\n  dup2\n  and\n    /* \"#utility.yul\":214:256   */\n  dup2\n  eq\n    /* \"#utility.yul\":204:274   */\n  tag_30\n  jumpi\n    /* \"#utility.yul\":270:271   */\n  0x00\n    /* \"#utility.yul\":267:268   */\n  dup1\n    /* \"#utility.yul\":260:272   */\n  revert\n    /* \"#utility.yul\":204:274   */\ntag_30:\n    /* \"#utility.yul\":293:298   */\n  swap4\n    /* \"#utility.yul\":14:304   */\n  swap3\n  pop\n  pop\n  pop\n  jump\t// out\ntag_27:\n    /* \"CLstaking.sol\":584:7270  contract CyberlionStaking is Ownable, AccessControl {... */\n  dataSize(sub_0)\n  dup1\n  dataOffset(sub_0)\n  0x00\n  codecopy\n  0x00\n  return\nstop\n\nsub_0: assembly {\n        /* \"CLstaking.sol\":584:7270  contract CyberlionStaking is Ownable, AccessControl {... */\n      mstore(0x40, 0x80)\n      callvalue\n      dup1\n      iszero\n      tag_1\n      jumpi\n      0x00\n      dup1\n      revert\n    tag_1:\n      pop\n      jumpi(tag_2, lt(calldatasize, 0x04))\n      shr(0xe0, calldataload(0x00))\n      dup1\n      0x715018a6\n      gt\n      tag_28\n      jumpi\n      dup1\n      0x91d14854\n      gt\n      tag_29\n      jumpi\n      dup1\n      0xd547741f\n      gt\n      tag_30\n      jumpi\n      dup1\n      0xd547741f\n      eq\n      tag_24\n      jumpi\n      dup1\n      0xeeafbddc\n      eq\n      tag_25\n      jumpi\n      dup1\n      0xf2fde38b\n      eq\n      tag_26\n      jumpi\n      dup1\n      0xf93b03bc\n      eq\n      tag_27\n      jumpi\n      0x00\n      dup1\n      revert\n    tag_30:\n      dup1\n      0x91d14854\n      eq\n      tag_21\n      jumpi\n      dup1\n      0x9e2c8a5b\n      eq\n      tag_22\n      jumpi\n      dup1\n      0xa217fddf\n      eq\n      tag_23\n      jumpi\n      0x00\n      dup1\n      revert\n    tag_29:\n      dup1\n      0x715018a6\n      eq\n      tag_15\n      jumpi\n      dup1\n      0x75b238fc\n      eq\n      tag_16\n      jumpi\n      dup1\n      0x7b0472f0\n      eq\n      tag_17\n      jumpi\n      dup1\n      0x7b71e5db\n      eq\n      tag_18\n      jumpi\n      dup1\n      0x842dd90a\n      eq\n      tag_19\n      jumpi\n      dup1\n      0x8da5cb5b\n      eq\n      tag_20\n      jumpi\n      0x00\n      dup1\n      revert\n    tag_28:\n      dup1\n      0x2f2ff15d\n      gt\n      tag_31\n      jumpi\n      dup1\n      0x2f2ff15d\n      eq\n      tag_9\n      jumpi\n      dup1\n      0x302f7fea\n      eq\n      tag_10\n      jumpi\n      dup1\n      0x36568abe\n      eq\n      tag_11\n      jumpi\n      dup1\n      0x3b552dbd\n      eq\n      tag_12\n      jumpi\n      dup1\n      0x4adc7cfd\n      eq\n      tag_13\n      jumpi\n      dup1\n      0x66675aa9\n      eq\n      tag_14\n      jumpi\n      0x00\n      dup1\n      revert\n    tag_31:\n      dup1\n      0x8afd4e\n      eq\n      tag_3\n      jumpi\n      dup1\n      0x01ffc9a7\n      eq\n      tag_4\n      jumpi\n      dup1\n      0x0fb4d2e5\n      eq\n      tag_5\n      jumpi\n      dup1\n      0x1bbda52b\n      eq\n      tag_6\n      jumpi\n      dup1\n      0x248a9ca3\n      eq\n      tag_7\n      jumpi\n      dup1\n      0x2edb531c\n      eq\n      tag_8\n      jumpi\n    tag_2:\n      0x00\n      dup1\n      revert\n        /* \"CLstaking.sol\":2796:3003  function batchUnstake(uint256 _collectionID, uint256[] memory _tokenIDs) external {... */\n    tag_3:\n      tag_32\n      tag_33\n      calldatasize\n      0x04\n      tag_34\n      jump\t// in\n    tag_33:\n      tag_35\n      jump\t// in\n    tag_32:\n      stop\n        /* \"@openzeppelin/contracts/access/AccessControl.sol\":2606:2808  function supportsInterface(bytes4 interfaceId) public view virtual override returns (bool) {... */\n    tag_4:\n      tag_36\n      tag_37\n      calldatasize\n      0x04\n      tag_38\n      jump\t// in\n    tag_37:\n      tag_39\n      jump\t// in\n    tag_36:\n      mload(0x40)\n        /* \"#utility.yul\":1790:1804   */\n      swap1\n      iszero\n        /* \"#utility.yul\":1783:1805   */\n      iszero\n        /* \"#utility.yul\":1765:1806   */\n      dup2\n      mstore\n        /* \"#utility.yul\":1753:1755   */\n      0x20\n        /* \"#utility.yul\":1738:1756   */\n      add\n        /* \"@openzeppelin/contracts/access/AccessControl.sol\":2606:2808  function supportsInterface(bytes4 interfaceId) public view virtual override returns (bool) {... */\n    tag_40:\n      mload(0x40)\n      dup1\n      swap2\n      sub\n      swap1\n      return\n        /* \"CLstaking.sol\":1268:1306  CollectionInfo[] public collectionInfo */\n    tag_5:\n      tag_42\n      tag_43\n      calldatasize\n      0x04\n      tag_44\n      jump\t// in\n    tag_43:\n      tag_45\n      jump\t// in\n    tag_42:\n      0x40\n      dup1\n      mload\n      sub(shl(0xa0, 0x01), 0x01)\n        /* \"#utility.yul\":2222:2254   */\n      swap1\n      swap5\n      and\n        /* \"#utility.yul\":2204:2255   */\n      dup5\n      mstore\n        /* \"#utility.yul\":2286:2288   */\n      0x20\n        /* \"#utility.yul\":2271:2289   */\n      dup5\n      add\n        /* \"#utility.yul\":2264:2298   */\n      swap3\n      swap1\n      swap3\n      mstore\n        /* \"#utility.yul\":2314:2332   */\n      swap1\n      dup3\n      add\n        /* \"#utility.yul\":2307:2341   */\n      mstore\n        /* \"#utility.yul\":2192:2194   */\n      0x60\n        /* \"#utility.yul\":2177:2195   */\n      add\n        /* \"CLstaking.sol\":1268:1306  CollectionInfo[] public collectionInfo */\n      tag_40\n        /* \"#utility.yul\":2002:2347   */\n      jump\n        /* \"CLstaking.sol\":2587:2790  function batchStake(uint256 _collectionID, uint256[] memory _tokenIDs) external {... */\n    tag_6:\n      tag_32\n      tag_49\n      calldatasize\n      0x04\n      tag_34\n      jump\t// in\n    tag_49:\n      tag_50\n      jump\t// in\n        /* \"@openzeppelin/contracts/access/AccessControl.sol\":4391:4520  function getRoleAdmin(bytes32 role) public view virtual override returns (bytes32) {... */\n    tag_7:\n      tag_51\n      tag_52\n      calldatasize\n      0x04\n      tag_44\n      jump\t// in\n    tag_52:\n        /* \"@openzeppelin/contracts/access/AccessControl.sol\":4465:4472  bytes32 */\n      0x00\n        /* \"@openzeppelin/contracts/access/AccessControl.sol\":4491:4503  _roles[role] */\n      swap1\n      dup2\n      mstore\n        /* \"@openzeppelin/contracts/access/AccessControl.sol\":4491:4497  _roles */\n      0x01\n        /* \"@openzeppelin/contracts/access/AccessControl.sol\":4491:4503  _roles[role] */\n      0x20\n      dup2\n      swap1\n      mstore\n      0x40\n      swap1\n      swap2\n      keccak256\n        /* \"@openzeppelin/contracts/access/AccessControl.sol\":4491:4513  _roles[role].adminRole */\n      add\n      sload\n      swap1\n        /* \"@openzeppelin/contracts/access/AccessControl.sol\":4391:4520  function getRoleAdmin(bytes32 role) public view virtual override returns (bytes32) {... */\n      jump\n    tag_51:\n      mload(0x40)\n        /* \"#utility.yul\":2683:2708   */\n      swap1\n      dup2\n      mstore\n        /* \"#utility.yul\":2671:2673   */\n      0x20\n        /* \"#utility.yul\":2656:2674   */\n      add\n        /* \"@openzeppelin/contracts/access/AccessControl.sol\":4391:4520  function getRoleAdmin(bytes32 role) public view virtual override returns (bytes32) {... */\n      tag_40\n        /* \"#utility.yul\":2537:2714   */\n      jump\n        /* \"CLstaking.sol\":5695:5964  function setCollection(address _collectionAddress, uint256 _rewardPerDay) public onlyRole(ADMIN_ROLE) {... */\n    tag_8:\n      tag_32\n      tag_58\n      calldatasize\n      0x04\n      tag_59\n      jump\t// in\n    tag_58:\n      tag_60\n      jump\t// in\n        /* \"@openzeppelin/contracts/access/AccessControl.sol\":4770:4915  function grantRole(bytes32 role, address account) public virtual override onlyRole(getRoleAdmin(role)) {... */\n    tag_9:\n      tag_32\n      tag_62\n      calldatasize\n      0x04\n      tag_63\n      jump\t// in\n    tag_62:\n      tag_64\n      jump\t// in\n        /* \"CLstaking.sol\":4791:5426  function claimableReward(address _userAddress, uint256 _collectionID, uint256 _tokenID) public view returns(uint256) {... */\n    tag_10:\n      tag_51\n      tag_66\n      calldatasize\n      0x04\n      tag_67\n      jump\t// in\n    tag_66:\n      tag_68\n      jump\t// in\n        /* \"@openzeppelin/contracts/access/AccessControl.sol\":5787:6001  function renounceRole(bytes32 role, address account) public virtual override {... */\n    tag_11:\n      tag_32\n      tag_72\n      calldatasize\n      0x04\n      tag_63\n      jump\t// in\n    tag_72:\n      tag_73\n      jump\t// in\n        /* \"CLstaking.sol\":4241:4785  function totalClaimableReward(address _userAddress, uint256 _collectionID) public view returns(uint256) {... */\n    tag_12:\n      tag_51\n      tag_75\n      calldatasize\n      0x04\n      tag_59\n      jump\t// in\n    tag_75:\n      tag_76\n      jump\t// in\n        /* \"CLstaking.sol\":1502:1620  function setAdminRole(address admin) public onlyRole(DEFAULT_ADMIN_ROLE){... */\n    tag_13:\n      tag_32\n      tag_79\n      calldatasize\n      0x04\n      tag_80\n      jump\t// in\n    tag_79:\n      tag_81\n      jump\t// in\n        /* \"CLstaking.sol\":3132:3245  function mintTest() public onlyRole(ADMIN_ROLE) {... */\n    tag_14:\n      tag_32\n      tag_83\n      jump\t// in\n        /* \"@openzeppelin/contracts/access/Ownable.sol\":1668:1769  function renounceOwnership() public virtual onlyOwner {... */\n    tag_15:\n      tag_32\n      tag_85\n      jump\t// in\n        /* \"CLstaking.sol\":642:688  bytes32 public ADMIN_ROLE = keccak256(\"ADMIN\") */\n    tag_16:\n      tag_51\n      sload(0x02)\n      dup2\n      jump\n        /* \"CLstaking.sol\":1626:1740  function stake(uint256 _collectionID, uint256 _tokenID) external {... */\n    tag_17:\n      tag_32\n      tag_90\n      calldatasize\n      0x04\n      tag_91\n      jump\t// in\n    tag_90:\n      tag_92\n      jump\t// in\n        /* \"CLstaking.sol\":5970:6319  function updateCollection(... */\n    tag_18:\n      tag_32\n      tag_94\n      calldatasize\n      0x04\n      tag_95\n      jump\t// in\n    tag_94:\n      tag_96\n      jump\t// in\n        /* \"CLstaking.sol\":6608:6824  function getTotalStakedItemsCount(uint256 _collectionID) external view returns (uint256) {... */\n    tag_19:\n      tag_51\n      tag_98\n      calldatasize\n      0x04\n      tag_44\n      jump\t// in\n    tag_98:\n      tag_99\n      jump\t// in\n        /* \"@openzeppelin/contracts/access/Ownable.sol\":1036:1121  function owner() public view virtual returns (address) {... */\n    tag_20:\n        /* \"@openzeppelin/contracts/access/Ownable.sol\":1082:1089  address */\n      0x00\n        /* \"@openzeppelin/contracts/access/Ownable.sol\":1108:1114  _owner */\n      sload\n        /* \"@openzeppelin/contracts/access/Ownable.sol\":1036:1121  function owner() public view virtual returns (address) {... */\n      mload(0x40)\n      sub(shl(0xa0, 0x01), 0x01)\n        /* \"@openzeppelin/contracts/access/Ownable.sol\":1108:1114  _owner */\n      swap1\n      swap2\n      and\n        /* \"#utility.yul\":4841:4892   */\n      dup2\n      mstore\n        /* \"#utility.yul\":4829:4831   */\n      0x20\n        /* \"#utility.yul\":4814:4832   */\n      add\n        /* \"@openzeppelin/contracts/access/Ownable.sol\":1036:1121  function owner() public view virtual returns (address) {... */\n      tag_40\n        /* \"#utility.yul\":4695:4898   */\n      jump\n        /* \"@openzeppelin/contracts/access/AccessControl.sol\":2895:3040  function hasRole(bytes32 role, address account) public view virtual override returns (bool) {... */\n    tag_21:\n      tag_36\n      tag_106\n      calldatasize\n      0x04\n      tag_63\n      jump\t// in\n    tag_106:\n      tag_107\n      jump\t// in\n        /* \"CLstaking.sol\":3009:3126  function unstake(uint256 _collectionID, uint256 _tokenID) external {... */\n    tag_22:\n      tag_32\n      tag_110\n      calldatasize\n      0x04\n      tag_91\n      jump\t// in\n    tag_110:\n      tag_111\n      jump\t// in\n        /* \"@openzeppelin/contracts/access/AccessControl.sol\":2027:2076  bytes32 public constant DEFAULT_ADMIN_ROLE = 0x00 */\n    tag_23:\n      tag_51\n        /* \"@openzeppelin/contracts/access/AccessControl.sol\":2072:2076  0x00 */\n      0x00\n        /* \"@openzeppelin/contracts/access/AccessControl.sol\":2027:2076  bytes32 public constant DEFAULT_ADMIN_ROLE = 0x00 */\n      dup2\n      jump\n        /* \"@openzeppelin/contracts/access/AccessControl.sol\":5149:5296  function revokeRole(bytes32 role, address account) public virtual override onlyRole(getRoleAdmin(role)) {... */\n    tag_24:\n      tag_32\n      tag_116\n      calldatasize\n      0x04\n      tag_63\n      jump\t// in\n    tag_116:\n      tag_117\n      jump\t// in\n        /* \"CLstaking.sol\":6830:6953  function onERC721Received( address, address, uint256) public pure returns (bytes4) {... */\n    tag_25:\n      tag_118\n      tag_119\n      calldatasize\n      0x04\n      tag_120\n      jump\t// in\n    tag_119:\n      shl(0xe1, 0x0a85bd01)\n      swap4\n      swap3\n      pop\n      pop\n      pop\n      jump\n    tag_118:\n      mload(0x40)\n      not(sub(shl(0xe0, 0x01), 0x01))\n        /* \"#utility.yul\":5398:5431   */\n      swap1\n      swap2\n      and\n        /* \"#utility.yul\":5380:5432   */\n      dup2\n      mstore\n        /* \"#utility.yul\":5368:5370   */\n      0x20\n        /* \"#utility.yul\":5353:5371   */\n      add\n        /* \"CLstaking.sol\":6830:6953  function onERC721Received( address, address, uint256) public pure returns (bytes4) {... */\n      tag_40\n        /* \"#utility.yul\":5236:5438   */\n      jump\n        /* \"@openzeppelin/contracts/access/Ownable.sol\":1918:2116  function transferOwnership(address newOwner) public virtual onlyOwner {... */\n    tag_26:\n      tag_32\n      tag_125\n      calldatasize\n      0x04\n      tag_80\n      jump\t// in\n    tag_125:\n      tag_126\n      jump\t// in\n        /* \"CLstaking.sol\":6325:6602  function getUserStakedTokens(address _userAddress, uint256 _collectionID) external view returns(uint256[] memory){... */\n    tag_27:\n      tag_127\n      tag_128\n      calldatasize\n      0x04\n      tag_59\n      jump\t// in\n    tag_128:\n      tag_129\n      jump\t// in\n    tag_127:\n      mload(0x40)\n      tag_40\n      swap2\n      swap1\n      tag_131\n      jump\t// in\n        /* \"CLstaking.sol\":2796:3003  function batchUnstake(uint256 _collectionID, uint256[] memory _tokenIDs) external {... */\n    tag_35:\n        /* \"CLstaking.sol\":2893:2902  uint256 i */\n      0x00\n        /* \"CLstaking.sol\":2888:2997  for (uint256 i = 0; i < _tokenIDs.length; ++i) {... */\n    tag_133:\n        /* \"CLstaking.sol\":2912:2921  _tokenIDs */\n      dup2\n        /* \"CLstaking.sol\":2912:2928  _tokenIDs.length */\n      mload\n        /* \"CLstaking.sol\":2908:2909  i */\n      dup2\n        /* \"CLstaking.sol\":2908:2928  i < _tokenIDs.length */\n      lt\n        /* \"CLstaking.sol\":2888:2997  for (uint256 i = 0; i < _tokenIDs.length; ++i) {... */\n      iszero\n      tag_134\n      jumpi\n        /* \"CLstaking.sol\":2949:2986  _unstake(_collectionID, _tokenIDs[i]) */\n      tag_136\n        /* \"CLstaking.sol\":2958:2971  _collectionID */\n      dup4\n        /* \"CLstaking.sol\":2973:2982  _tokenIDs */\n      dup4\n        /* \"CLstaking.sol\":2983:2984  i */\n      dup4\n        /* \"CLstaking.sol\":2973:2985  _tokenIDs[i] */\n      dup2\n      mload\n      dup2\n      lt\n      tag_138\n      jumpi\n      tag_138\n      tag_139\n      jump\t// in\n    tag_138:\n      0x20\n      mul\n      0x20\n      add\n      add\n      mload\n        /* \"CLstaking.sol\":2949:2957  _unstake */\n      tag_140\n        /* \"CLstaking.sol\":2949:2986  _unstake(_collectionID, _tokenIDs[i]) */\n      jump\t// in\n    tag_136:\n        /* \"CLstaking.sol\":2930:2933  ++i */\n      tag_141\n      dup2\n      tag_142\n      jump\t// in\n    tag_141:\n      swap1\n      pop\n        /* \"CLstaking.sol\":2888:2997  for (uint256 i = 0; i < _tokenIDs.length; ++i) {... */\n      jump(tag_133)\n    tag_134:\n      pop\n        /* \"CLstaking.sol\":2796:3003  function batchUnstake(uint256 _collectionID, uint256[] memory _tokenIDs) external {... */\n      pop\n      pop\n      jump\t// out\n        /* \"@openzeppelin/contracts/access/AccessControl.sol\":2606:2808  function supportsInterface(bytes4 interfaceId) public view virtual override returns (bool) {... */\n    tag_39:\n        /* \"@openzeppelin/contracts/access/AccessControl.sol\":2691:2695  bool */\n      0x00\n      not(sub(shl(0xe0, 0x01), 0x01))\n        /* \"@openzeppelin/contracts/access/AccessControl.sol\":2714:2761  interfaceId == type(IAccessControl).interfaceId */\n      dup3\n      and\n      shl(0xe0, 0x7965db0b)\n      eq\n      dup1\n        /* \"@openzeppelin/contracts/access/AccessControl.sol\":2714:2801  interfaceId == type(IAccessControl).interfaceId || super.supportsInterface(interfaceId) */\n      tag_145\n      jumpi\n      pop\n      shl(0xe0, 0x01ffc9a7)\n      not(sub(shl(0xe0, 0x01), 0x01))\n        /* \"@openzeppelin/contracts/utils/introspection/ERC165.sol\":937:977  interfaceId == type(IERC165).interfaceId */\n      dup4\n      and\n      eq\n        /* \"@openzeppelin/contracts/access/AccessControl.sol\":2765:2801  super.supportsInterface(interfaceId) */\n    tag_145:\n        /* \"@openzeppelin/contracts/access/AccessControl.sol\":2707:2801  return interfaceId == type(IAccessControl).interfaceId || super.supportsInterface(interfaceId) */\n      swap3\n        /* \"@openzeppelin/contracts/access/AccessControl.sol\":2606:2808  function supportsInterface(bytes4 interfaceId) public view virtual override returns (bool) {... */\n      swap2\n      pop\n      pop\n      jump\t// out\n        /* \"CLstaking.sol\":1268:1306  CollectionInfo[] public collectionInfo */\n    tag_45:\n      0x07\n      dup2\n      dup2\n      sload\n      dup2\n      lt\n      tag_147\n      jumpi\n      0x00\n      dup1\n      revert\n    tag_147:\n      0x00\n      swap2\n      dup3\n      mstore\n      0x20\n      swap1\n      swap2\n      keccak256\n      0x03\n      swap1\n      swap2\n      mul\n      add\n      dup1\n      sload\n      0x01\n      dup3\n      add\n      sload\n      0x02\n      swap1\n      swap3\n      add\n      sload\n      sub(shl(0xa0, 0x01), 0x01)\n      swap1\n      swap2\n      and\n      swap3\n      pop\n      dup4\n      jump\t// out\n        /* \"CLstaking.sol\":2587:2790  function batchStake(uint256 _collectionID, uint256[] memory _tokenIDs) external {... */\n    tag_50:\n        /* \"CLstaking.sol\":2682:2691  uint256 i */\n      0x00\n        /* \"CLstaking.sol\":2677:2784  for (uint256 i = 0; i < _tokenIDs.length; ++i) {... */\n    tag_150:\n        /* \"CLstaking.sol\":2701:2710  _tokenIDs */\n      dup2\n        /* \"CLstaking.sol\":2701:2717  _tokenIDs.length */\n      mload\n        /* \"CLstaking.sol\":2697:2698  i */\n      dup2\n        /* \"CLstaking.sol\":2697:2717  i < _tokenIDs.length */\n      lt\n        /* \"CLstaking.sol\":2677:2784  for (uint256 i = 0; i < _tokenIDs.length; ++i) {... */\n      iszero\n      tag_134\n      jumpi\n        /* \"CLstaking.sol\":2738:2773  _stake(_collectionID, _tokenIDs[i]) */\n      tag_153\n        /* \"CLstaking.sol\":2745:2758  _collectionID */\n      dup4\n        /* \"CLstaking.sol\":2760:2769  _tokenIDs */\n      dup4\n        /* \"CLstaking.sol\":2770:2771  i */\n      dup4\n        /* \"CLstaking.sol\":2760:2772  _tokenIDs[i] */\n      dup2\n      mload\n      dup2\n      lt\n      tag_155\n      jumpi\n      tag_155\n      tag_139\n      jump\t// in\n    tag_155:\n      0x20\n      mul\n      0x20\n      add\n      add\n      mload\n        /* \"CLstaking.sol\":2738:2744  _stake */\n      tag_156\n        /* \"CLstaking.sol\":2738:2773  _stake(_collectionID, _tokenIDs[i]) */\n      jump\t// in\n    tag_153:\n        /* \"CLstaking.sol\":2719:2722  ++i */\n      tag_157\n      dup2\n      tag_142\n      jump\t// in\n    tag_157:\n      swap1\n      pop\n        /* \"CLstaking.sol\":2677:2784  for (uint256 i = 0; i < _tokenIDs.length; ++i) {... */\n      jump(tag_150)\n        /* \"CLstaking.sol\":5695:5964  function setCollection(address _collectionAddress, uint256 _rewardPerDay) public onlyRole(ADMIN_ROLE) {... */\n    tag_60:\n        /* \"CLstaking.sol\":5785:5795  ADMIN_ROLE */\n      sload(0x02)\n        /* \"@openzeppelin/contracts/access/AccessControl.sol\":2505:2521  _checkRole(role) */\n      tag_160\n        /* \"@openzeppelin/contracts/access/AccessControl.sol\":2516:2520  role */\n      dup2\n        /* \"@openzeppelin/contracts/access/AccessControl.sol\":2505:2515  _checkRole */\n      tag_161\n        /* \"@openzeppelin/contracts/access/AccessControl.sol\":2505:2521  _checkRole(role) */\n      jump\t// in\n    tag_160:\n      pop\n        /* \"CLstaking.sol\":5841:5947  CollectionInfo({collectionAddress: _collectionAddress, rewardPerDay: _rewardPerDay, totalAmountStaked: 0}) */\n      0x40\n      dup1\n      mload\n      0x60\n      dup2\n      add\n      dup3\n      mstore\n      sub(shl(0xa0, 0x01), 0x01)\n      swap4\n      dup5\n      and\n      dup2\n      mstore\n      0x20\n      dup2\n      add\n      swap3\n      dup4\n      mstore\n      0x00\n      swap2\n      dup2\n      add\n      dup3\n      dup2\n      mstore\n        /* \"CLstaking.sol\":5808:5822  collectionInfo */\n      0x07\n        /* \"CLstaking.sol\":5808:5957  collectionInfo.push(... */\n      dup1\n      sload\n      0x01\n      dup2\n      add\n      dup3\n      sstore\n      swap4\n      mstore\n      swap1\n      mload\n      0xa66cc928b5edb82af9bd49922954155ab7b0942694bea4ce44661d9a8736c688\n      0x03\n      swap1\n      swap4\n      mul\n      swap3\n      dup4\n      add\n      dup1\n      sload\n      not(sub(shl(0xa0, 0x01), 0x01))\n      and\n      swap2\n      swap1\n      swap6\n      and\n      or\n      swap1\n      swap4\n      sstore\n      swap1\n      mload\n      0xa66cc928b5edb82af9bd49922954155ab7b0942694bea4ce44661d9a8736c689\n      dup3\n      add\n      sstore\n      swap1\n      mload\n      0xa66cc928b5edb82af9bd49922954155ab7b0942694bea4ce44661d9a8736c68a\n      swap1\n      swap2\n      add\n      sstore\n        /* \"CLstaking.sol\":5695:5964  function setCollection(address _collectionAddress, uint256 _rewardPerDay) public onlyRole(ADMIN_ROLE) {... */\n      jump\t// out\n        /* \"@openzeppelin/contracts/access/AccessControl.sol\":4770:4915  function grantRole(bytes32 role, address account) public virtual override onlyRole(getRoleAdmin(role)) {... */\n    tag_64:\n        /* \"@openzeppelin/contracts/access/AccessControl.sol\":4465:4472  bytes32 */\n      0x00\n        /* \"@openzeppelin/contracts/access/AccessControl.sol\":4491:4503  _roles[role] */\n      dup3\n      dup2\n      mstore\n        /* \"@openzeppelin/contracts/access/AccessControl.sol\":4491:4497  _roles */\n      0x01\n        /* \"@openzeppelin/contracts/access/AccessControl.sol\":4491:4503  _roles[role] */\n      0x20\n      dup2\n      swap1\n      mstore\n      0x40\n      swap1\n      swap2\n      keccak256\n        /* \"@openzeppelin/contracts/access/AccessControl.sol\":4491:4513  _roles[role].adminRole */\n      add\n      sload\n        /* \"@openzeppelin/contracts/access/AccessControl.sol\":2505:2521  _checkRole(role) */\n      tag_166\n        /* \"@openzeppelin/contracts/access/AccessControl.sol\":2516:2520  role */\n      dup2\n        /* \"@openzeppelin/contracts/access/AccessControl.sol\":2505:2515  _checkRole */\n      tag_161\n        /* \"@openzeppelin/contracts/access/AccessControl.sol\":2505:2521  _checkRole(role) */\n      jump\t// in\n    tag_166:\n        /* \"@openzeppelin/contracts/access/AccessControl.sol\":4883:4908  _grantRole(role, account) */\n      tag_134\n        /* \"@openzeppelin/contracts/access/AccessControl.sol\":4894:4898  role */\n      dup4\n        /* \"@openzeppelin/contracts/access/AccessControl.sol\":4900:4907  account */\n      dup4\n        /* \"@openzeppelin/contracts/access/AccessControl.sol\":4883:4893  _grantRole */\n      tag_169\n        /* \"@openzeppelin/contracts/access/AccessControl.sol\":4883:4908  _grantRole(role, account) */\n      jump\t// in\n        /* \"CLstaking.sol\":4791:5426  function claimableReward(address _userAddress, uint256 _collectionID, uint256 _tokenID) public view returns(uint256) {... */\n    tag_68:\n        /* \"CLstaking.sol\":4899:4906  uint256 */\n      0x00\n        /* \"CLstaking.sol\":4918:4951  CollectionInfo storage collection */\n      dup1\n        /* \"CLstaking.sol\":4954:4968  collectionInfo */\n      0x07\n        /* \"CLstaking.sol\":4969:4982  _collectionID */\n      dup5\n        /* \"CLstaking.sol\":4954:4983  collectionInfo[_collectionID] */\n      dup2\n      sload\n      dup2\n      lt\n      tag_172\n      jumpi\n      tag_172\n      tag_139\n      jump\t// in\n    tag_172:\n      0x00\n      swap2\n      dup3\n      mstore\n      0x20\n      dup1\n      dup4\n      keccak256\n      0x03\n      swap1\n      swap3\n      mul\n      swap1\n      swap2\n      add\n        /* \"CLstaking.sol\":5073:5101  collection.collectionAddress */\n      dup1\n      sload\n      sub(shl(0xa0, 0x01), 0x01)\n      swap1\n      dup2\n      and\n        /* \"CLstaking.sol\":5050:5102  contractTokenIdToOwner[collection.collectionAddress] */\n      dup5\n      mstore\n        /* \"CLstaking.sol\":5050:5072  contractTokenIdToOwner */\n      0x05\n        /* \"CLstaking.sol\":5050:5102  contractTokenIdToOwner[collection.collectionAddress] */\n      dup4\n      mstore\n      0x40\n      dup1\n      dup6\n      keccak256\n        /* \"CLstaking.sol\":5050:5112  contractTokenIdToOwner[collection.collectionAddress][_tokenID] */\n      dup9\n      dup7\n      mstore\n      swap1\n      swap4\n      mstore\n      swap2\n      swap1\n      swap3\n      keccak256\n      sload\n        /* \"CLstaking.sol\":4954:4983  collectionInfo[_collectionID] */\n      swap2\n      swap3\n      pop\n        /* \"CLstaking.sol\":5050:5112  contractTokenIdToOwner[collection.collectionAddress][_tokenID] */\n      swap1\n      dup2\n      and\n        /* \"CLstaking.sol\":5050:5128  contractTokenIdToOwner[collection.collectionAddress][_tokenID] != _userAddress */\n      swap1\n      dup7\n      and\n      eq\n        /* \"CLstaking.sol\":5047:5148  if(contractTokenIdToOwner[collection.collectionAddress][_tokenID] != _userAddress)... */\n      tag_174\n      jumpi\n        /* \"CLstaking.sol\":5147:5148  0 */\n      0x00\n        /* \"CLstaking.sol\":5140:5148  return 0 */\n      swap2\n      pop\n      pop\n      jump(tag_170)\n        /* \"CLstaking.sol\":5047:5148  if(contractTokenIdToOwner[collection.collectionAddress][_tokenID] != _userAddress)... */\n    tag_174:\n        /* \"CLstaking.sol\":5210:5238  collection.collectionAddress */\n      dup1\n      sload\n      sub(shl(0xa0, 0x01), 0x01)\n      and\n        /* \"CLstaking.sol\":5159:5174  uint timeStaked */\n      0x00\n        /* \"CLstaking.sol\":5177:5239  contractTokenIdToStakedTimestamp[collection.collectionAddress] */\n      swap1\n      dup2\n      mstore\n        /* \"CLstaking.sol\":5177:5209  contractTokenIdToStakedTimestamp */\n      0x06\n        /* \"CLstaking.sol\":5177:5239  contractTokenIdToStakedTimestamp[collection.collectionAddress] */\n      0x20\n      swap1\n      dup2\n      mstore\n      0x40\n      dup1\n      dup4\n      keccak256\n        /* \"CLstaking.sol\":5177:5249  contractTokenIdToStakedTimestamp[collection.collectionAddress][_tokenID] */\n      dup7\n      dup5\n      mstore\n      swap1\n      swap2\n      mstore\n      dup2\n      keccak256\n      sload\n        /* \"CLstaking.sol\":5210:5238  collection.collectionAddress */\n      0x01\n        /* \"CLstaking.sol\":5365:5388  collection.rewardPerDay */\n      dup4\n      add\n      sload\n        /* \"CLstaking.sol\":5177:5249  contractTokenIdToStakedTimestamp[collection.collectionAddress][_tokenID] */\n      swap1\n      swap2\n        /* \"CLstaking.sol\":5159:5174  uint timeStaked */\n      swap1\n        /* \"CLstaking.sol\":5283:5389  (block.timestamp - timeStaked)... */\n      tag_175\n      swap1\n        /* \"CLstaking.sol\":5283:5347  (block.timestamp - timeStaked)... */\n      tag_176\n        /* \"CLstaking.sol\":853:861  24*60*60 */\n      0x015180\n        /* \"CLstaking.sol\":5284:5312  block.timestamp - timeStaked */\n      tag_177\n        /* \"CLstaking.sol\":5177:5249  contractTokenIdToStakedTimestamp[collection.collectionAddress][_tokenID] */\n      dup7\n        /* \"CLstaking.sol\":5284:5299  block.timestamp */\n      timestamp\n        /* \"CLstaking.sol\":5284:5312  block.timestamp - timeStaked */\n      tag_178\n      jump\t// in\n    tag_177:\n        /* \"CLstaking.sol\":5283:5330  (block.timestamp - timeStaked)... */\n      swap1\n      tag_179\n        /* \"CLstaking.sol\":5283:5347  (block.timestamp - timeStaked)... */\n      jump\t// in\n    tag_176:\n        /* \"CLstaking.sol\":5283:5364  (block.timestamp - timeStaked)... */\n      swap1\n      tag_180\n        /* \"CLstaking.sol\":5283:5389  (block.timestamp - timeStaked)... */\n      jump\t// in\n    tag_175:\n        /* \"CLstaking.sol\":5259:5389  uint256 payableAmount = (block.timestamp - timeStaked)... */\n      swap4\n      pop\n      pop\n      pop\n      pop\n        /* \"CLstaking.sol\":4791:5426  function claimableReward(address _userAddress, uint256 _collectionID, uint256 _tokenID) public view returns(uint256) {... */\n    tag_170:\n      swap4\n      swap3\n      pop\n      pop\n      pop\n      jump\t// out\n        /* \"@openzeppelin/contracts/access/AccessControl.sol\":5787:6001  function renounceRole(bytes32 role, address account) public virtual override {... */\n    tag_73:\n      sub(shl(0xa0, 0x01), 0x01)\n        /* \"@openzeppelin/contracts/access/AccessControl.sol\":5882:5905  account == _msgSender() */\n      dup2\n      and\n        /* \"@openzeppelin/contracts/utils/Context.sol\":719:729  msg.sender */\n      caller\n        /* \"@openzeppelin/contracts/access/AccessControl.sol\":5882:5905  account == _msgSender() */\n      eq\n        /* \"@openzeppelin/contracts/access/AccessControl.sol\":5874:5957  require(account == _msgSender(), \"AccessControl: can only renounce roles for self\") */\n      tag_184\n      jumpi\n      mload(0x40)\n      shl(0xe5, 0x461bcd)\n      dup2\n      mstore\n        /* \"#utility.yul\":6816:6818   */\n      0x20\n        /* \"@openzeppelin/contracts/access/AccessControl.sol\":5874:5957  require(account == _msgSender(), \"AccessControl: can only renounce roles for self\") */\n      0x04\n      dup3\n      add\n        /* \"#utility.yul\":6798:6819   */\n      mstore\n        /* \"#utility.yul\":6855:6857   */\n      0x2f\n        /* \"#utility.yul\":6835:6853   */\n      0x24\n      dup3\n      add\n        /* \"#utility.yul\":6828:6858   */\n      mstore\n        /* \"#utility.yul\":6894:6928   */\n      0x416363657373436f6e74726f6c3a2063616e206f6e6c792072656e6f756e6365\n        /* \"#utility.yul\":6874:6892   */\n      0x44\n      dup3\n      add\n        /* \"#utility.yul\":6867:6929   */\n      mstore\n      shl(0x89, 0x103937b632b9903337b91039b2b633)\n        /* \"#utility.yul\":6945:6963   */\n      0x64\n      dup3\n      add\n        /* \"#utility.yul\":6938:6983   */\n      mstore\n        /* \"#utility.yul\":7000:7019   */\n      0x84\n      add\n        /* \"@openzeppelin/contracts/access/AccessControl.sol\":5874:5957  require(account == _msgSender(), \"AccessControl: can only renounce roles for self\") */\n    tag_185:\n      mload(0x40)\n      dup1\n      swap2\n      sub\n      swap1\n      revert\n    tag_184:\n        /* \"@openzeppelin/contracts/access/AccessControl.sol\":5968:5994  _revokeRole(role, account) */\n      tag_187\n        /* \"@openzeppelin/contracts/access/AccessControl.sol\":5980:5984  role */\n      dup3\n        /* \"@openzeppelin/contracts/access/AccessControl.sol\":5986:5993  account */\n      dup3\n        /* \"@openzeppelin/contracts/access/AccessControl.sol\":5968:5979  _revokeRole */\n      tag_188\n        /* \"@openzeppelin/contracts/access/AccessControl.sol\":5968:5994  _revokeRole(role, account) */\n      jump\t// in\n    tag_187:\n        /* \"@openzeppelin/contracts/access/AccessControl.sol\":5787:6001  function renounceRole(bytes32 role, address account) public virtual override {... */\n      pop\n      pop\n      jump\t// out\n        /* \"CLstaking.sol\":4241:4785  function totalClaimableReward(address _userAddress, uint256 _collectionID) public view returns(uint256) {... */\n    tag_76:\n        /* \"CLstaking.sol\":4336:4343  uint256 */\n      0x00\n        /* \"CLstaking.sol\":4355:4376  uint256 payableAmount */\n      dup1\n        /* \"CLstaking.sol\":4379:4380  0 */\n      0x00\n        /* \"CLstaking.sol\":4355:4380  uint256 payableAmount = 0 */\n      swap1\n      pop\n        /* \"CLstaking.sol\":4390:4415  address collectionAddress */\n      0x00\n        /* \"CLstaking.sol\":4418:4432  collectionInfo */\n      0x07\n        /* \"CLstaking.sol\":4433:4446  _collectionID */\n      dup5\n        /* \"CLstaking.sol\":4418:4447  collectionInfo[_collectionID] */\n      dup2\n      sload\n      dup2\n      lt\n      tag_191\n      jumpi\n      tag_191\n      tag_139\n      jump\t// in\n    tag_191:\n      0x00\n      swap2\n      dup3\n      mstore\n      0x20\n      dup3\n      keccak256\n      0x03\n      swap1\n      swap2\n      mul\n      add\n        /* \"CLstaking.sol\":4418:4465  collectionInfo[_collectionID].collectionAddress */\n      sload\n      sub(shl(0xa0, 0x01), 0x01)\n      and\n      swap2\n      pop\n        /* \"CLstaking.sol\":4475:4749  for (uint256 i; i < addressToStakedTokens[collectionAddress][_userAddress].length; i++) {... */\n    tag_193:\n      sub(shl(0xa0, 0x01), 0x01)\n        /* \"CLstaking.sol\":4495:4535  addressToStakedTokens[collectionAddress] */\n      dup1\n      dup4\n      and\n      0x00\n      swap1\n      dup2\n      mstore\n        /* \"CLstaking.sol\":4495:4516  addressToStakedTokens */\n      0x04\n        /* \"CLstaking.sol\":4495:4535  addressToStakedTokens[collectionAddress] */\n      0x20\n      swap1\n      dup2\n      mstore\n      0x40\n      dup1\n      dup4\n      keccak256\n        /* \"CLstaking.sol\":4495:4549  addressToStakedTokens[collectionAddress][_userAddress] */\n      swap4\n      dup11\n      and\n      dup4\n      mstore\n      swap3\n      swap1\n      mstore\n      keccak256\n        /* \"CLstaking.sol\":4495:4556  addressToStakedTokens[collectionAddress][_userAddress].length */\n      sload\n        /* \"CLstaking.sol\":4491:4556  i < addressToStakedTokens[collectionAddress][_userAddress].length */\n      dup2\n      lt\n        /* \"CLstaking.sol\":4475:4749  for (uint256 i; i < addressToStakedTokens[collectionAddress][_userAddress].length; i++) {... */\n      iszero\n      tag_194\n      jumpi\n      sub(shl(0xa0, 0x01), 0x01)\n        /* \"CLstaking.sol\":4596:4636  addressToStakedTokens[collectionAddress] */\n      dup1\n      dup4\n      and\n        /* \"CLstaking.sol\":4577:4593  uint256 _tokenId */\n      0x00\n        /* \"CLstaking.sol\":4596:4636  addressToStakedTokens[collectionAddress] */\n      swap1\n      dup2\n      mstore\n        /* \"CLstaking.sol\":4596:4617  addressToStakedTokens */\n      0x04\n        /* \"CLstaking.sol\":4596:4636  addressToStakedTokens[collectionAddress] */\n      0x20\n      swap1\n      dup2\n      mstore\n      0x40\n      dup1\n      dup4\n      keccak256\n        /* \"CLstaking.sol\":4596:4650  addressToStakedTokens[collectionAddress][_userAddress] */\n      swap4\n      dup11\n      and\n      dup4\n      mstore\n      swap3\n      swap1\n      mstore\n      swap1\n      dup2\n      keccak256\n        /* \"CLstaking.sol\":4596:4653  addressToStakedTokens[collectionAddress][_userAddress][i] */\n      dup1\n      sload\n        /* \"CLstaking.sol\":4651:4652  i */\n      dup4\n      swap1\n        /* \"CLstaking.sol\":4596:4653  addressToStakedTokens[collectionAddress][_userAddress][i] */\n      dup2\n      lt\n      tag_197\n      jumpi\n      tag_197\n      tag_139\n      jump\t// in\n    tag_197:\n      swap1\n      0x00\n      mstore\n      keccak256(0x00, 0x20)\n      add\n      sload\n        /* \"CLstaking.sol\":4577:4653  uint256 _tokenId = addressToStakedTokens[collectionAddress][_userAddress][i] */\n      swap1\n      pop\n        /* \"CLstaking.sol\":4684:4738  claimableReward(_userAddress, _collectionID, _tokenId) */\n      tag_199\n        /* \"CLstaking.sol\":4700:4712  _userAddress */\n      dup8\n        /* \"CLstaking.sol\":4714:4727  _collectionID */\n      dup8\n        /* \"CLstaking.sol\":4729:4737  _tokenId */\n      dup4\n        /* \"CLstaking.sol\":4684:4699  claimableReward */\n      tag_68\n        /* \"CLstaking.sol\":4684:4738  claimableReward(_userAddress, _collectionID, _tokenId) */\n      jump\t// in\n    tag_199:\n        /* \"CLstaking.sol\":4667:4738  payableAmount += claimableReward(_userAddress, _collectionID, _tokenId) */\n      tag_200\n      swap1\n      dup6\n      tag_201\n      jump\t// in\n    tag_200:\n      swap4\n      pop\n        /* \"CLstaking.sol\":4563:4749  {... */\n      pop\n        /* \"CLstaking.sol\":4558:4561  i++ */\n      dup1\n      dup1\n      tag_202\n      swap1\n      tag_142\n      jump\t// in\n    tag_202:\n      swap2\n      pop\n      pop\n        /* \"CLstaking.sol\":4475:4749  for (uint256 i; i < addressToStakedTokens[collectionAddress][_userAddress].length; i++) {... */\n      jump(tag_193)\n    tag_194:\n      pop\n        /* \"CLstaking.sol\":4765:4778  payableAmount */\n      swap1\n      swap5\n        /* \"CLstaking.sol\":4241:4785  function totalClaimableReward(address _userAddress, uint256 _collectionID) public view returns(uint256) {... */\n      swap4\n      pop\n      pop\n      pop\n      pop\n      jump\t// out\n        /* \"CLstaking.sol\":1502:1620  function setAdminRole(address admin) public onlyRole(DEFAULT_ADMIN_ROLE){... */\n    tag_81:\n        /* \"@openzeppelin/contracts/access/AccessControl.sol\":2072:2076  0x00 */\n      0x00\n        /* \"@openzeppelin/contracts/access/AccessControl.sol\":2505:2521  _checkRole(role) */\n      tag_204\n        /* \"@openzeppelin/contracts/access/AccessControl.sol\":2072:2076  0x00 */\n      dup2\n        /* \"@openzeppelin/contracts/access/AccessControl.sol\":2505:2515  _checkRole */\n      tag_161\n        /* \"@openzeppelin/contracts/access/AccessControl.sol\":2505:2521  _checkRole(role) */\n      jump\t// in\n    tag_204:\n        /* \"CLstaking.sol\":1584:1613  _setupRole(ADMIN_ROLE, admin) */\n      tag_187\n        /* \"CLstaking.sol\":1595:1605  ADMIN_ROLE */\n      sload(0x02)\n        /* \"CLstaking.sol\":1607:1612  admin */\n      dup4\n        /* \"CLstaking.sol\":1584:1594  _setupRole */\n      tag_207\n        /* \"CLstaking.sol\":1584:1613  _setupRole(ADMIN_ROLE, admin) */\n      jump\t// in\n        /* \"CLstaking.sol\":3132:3245  function mintTest() public onlyRole(ADMIN_ROLE) {... */\n    tag_83:\n        /* \"CLstaking.sol\":3168:3178  ADMIN_ROLE */\n      sload(0x02)\n        /* \"@openzeppelin/contracts/access/AccessControl.sol\":2505:2521  _checkRole(role) */\n      tag_209\n        /* \"@openzeppelin/contracts/access/AccessControl.sol\":2516:2520  role */\n      dup2\n        /* \"@openzeppelin/contracts/access/AccessControl.sol\":2505:2515  _checkRole */\n      tag_161\n        /* \"@openzeppelin/contracts/access/AccessControl.sol\":2505:2521  _checkRole(role) */\n      jump\t// in\n    tag_209:\n        /* \"CLstaking.sol\":3199:3218  rewardsTokenAddress */\n      sload(0x03)\n        /* \"CLstaking.sol\":3190:3238  Mintable(rewardsTokenAddress).mint(msg.sender,1) */\n      mload(0x40)\n      shl(0xe0, 0x40c10f19)\n      dup2\n      mstore\n        /* \"CLstaking.sol\":3225:3235  msg.sender */\n      caller\n        /* \"CLstaking.sol\":3190:3238  Mintable(rewardsTokenAddress).mint(msg.sender,1) */\n      0x04\n      dup3\n      add\n        /* \"#utility.yul\":7345:7396   */\n      mstore\n        /* \"CLstaking.sol\":3199:3218  rewardsTokenAddress */\n      0x01\n        /* \"#utility.yul\":7412:7430   */\n      0x24\n      dup3\n      add\n        /* \"#utility.yul\":7405:7439   */\n      mstore\n      sub(shl(0xa0, 0x01), 0x01)\n        /* \"CLstaking.sol\":3199:3218  rewardsTokenAddress */\n      swap1\n      swap2\n      and\n      swap1\n        /* \"CLstaking.sol\":3190:3224  Mintable(rewardsTokenAddress).mint */\n      0x40c10f19\n      swap1\n        /* \"#utility.yul\":7318:7336   */\n      0x44\n      add\n        /* \"CLstaking.sol\":3190:3238  Mintable(rewardsTokenAddress).mint(msg.sender,1) */\n      0x00\n      mload(0x40)\n      dup1\n      dup4\n      sub\n      dup2\n      0x00\n      dup8\n      dup1\n      extcodesize\n      iszero\n      dup1\n      iszero\n      tag_213\n      jumpi\n      0x00\n      dup1\n      revert\n    tag_213:\n      pop\n      gas\n      call\n      iszero\n      dup1\n      iszero\n      tag_215\n      jumpi\n      returndatasize\n      0x00\n      dup1\n      returndatacopy\n      revert(0x00, returndatasize)\n    tag_215:\n      pop\n      pop\n      pop\n      pop\n        /* \"CLstaking.sol\":3132:3245  function mintTest() public onlyRole(ADMIN_ROLE) {... */\n      pop\n      jump\t// out\n        /* \"@openzeppelin/contracts/access/Ownable.sol\":1668:1769  function renounceOwnership() public virtual onlyOwner {... */\n    tag_85:\n        /* \"@openzeppelin/contracts/access/Ownable.sol\":1082:1089  address */\n      0x00\n        /* \"@openzeppelin/contracts/access/Ownable.sol\":1108:1114  _owner */\n      sload\n      sub(shl(0xa0, 0x01), 0x01)\n      and\n        /* \"@openzeppelin/contracts/utils/Context.sol\":719:729  msg.sender */\n      caller\n        /* \"@openzeppelin/contracts/access/Ownable.sol\":1248:1271  owner() == _msgSender() */\n      eq\n        /* \"@openzeppelin/contracts/access/Ownable.sol\":1240:1308  require(owner() == _msgSender(), \"Ownable: caller is not the owner\") */\n      tag_219\n      jumpi\n      mload(0x40)\n      shl(0xe5, 0x461bcd)\n      dup2\n      mstore\n        /* \"#utility.yul\":7652:7654   */\n      0x20\n        /* \"@openzeppelin/contracts/access/Ownable.sol\":1240:1308  require(owner() == _msgSender(), \"Ownable: caller is not the owner\") */\n      0x04\n      dup3\n      add\n        /* \"#utility.yul\":7634:7655   */\n      dup2\n      swap1\n      mstore\n        /* \"#utility.yul\":7671:7689   */\n      0x24\n      dup3\n      add\n        /* \"#utility.yul\":7664:7694   */\n      mstore\n        /* \"#utility.yul\":7730:7764   */\n      0x4f776e61626c653a2063616c6c6572206973206e6f7420746865206f776e6572\n        /* \"#utility.yul\":7710:7728   */\n      0x44\n      dup3\n      add\n        /* \"#utility.yul\":7703:7765   */\n      mstore\n        /* \"#utility.yul\":7782:7800   */\n      0x64\n      add\n        /* \"@openzeppelin/contracts/access/Ownable.sol\":1240:1308  require(owner() == _msgSender(), \"Ownable: caller is not the owner\") */\n      tag_185\n        /* \"#utility.yul\":7450:7806   */\n      jump\n        /* \"@openzeppelin/contracts/access/Ownable.sol\":1240:1308  require(owner() == _msgSender(), \"Ownable: caller is not the owner\") */\n    tag_219:\n        /* \"@openzeppelin/contracts/access/Ownable.sol\":1732:1762  _transferOwnership(address(0)) */\n      tag_223\n        /* \"@openzeppelin/contracts/access/Ownable.sol\":1759:1760  0 */\n      0x00\n        /* \"@openzeppelin/contracts/access/Ownable.sol\":1732:1750  _transferOwnership */\n      tag_224\n        /* \"@openzeppelin/contracts/access/Ownable.sol\":1732:1762  _transferOwnership(address(0)) */\n      jump\t// in\n    tag_223:\n        /* \"@openzeppelin/contracts/access/Ownable.sol\":1668:1769  function renounceOwnership() public virtual onlyOwner {... */\n      jump\t// out\n        /* \"CLstaking.sol\":1626:1740  function stake(uint256 _collectionID, uint256 _tokenID) external {... */\n    tag_92:\n        /* \"CLstaking.sol\":1701:1733  _stake( _collectionID, _tokenID) */\n      tag_187\n        /* \"CLstaking.sol\":1709:1722  _collectionID */\n      dup3\n        /* \"CLstaking.sol\":1724:1732  _tokenID */\n      dup3\n        /* \"CLstaking.sol\":1701:1707  _stake */\n      tag_156\n        /* \"CLstaking.sol\":1701:1733  _stake( _collectionID, _tokenID) */\n      jump\t// in\n        /* \"CLstaking.sol\":5970:6319  function updateCollection(... */\n    tag_96:\n        /* \"CLstaking.sol\":6116:6126  ADMIN_ROLE */\n      sload(0x02)\n        /* \"@openzeppelin/contracts/access/AccessControl.sol\":2505:2521  _checkRole(role) */\n      tag_228\n        /* \"@openzeppelin/contracts/access/AccessControl.sol\":2516:2520  role */\n      dup2\n        /* \"@openzeppelin/contracts/access/AccessControl.sol\":2505:2515  _checkRole */\n      tag_161\n        /* \"@openzeppelin/contracts/access/AccessControl.sol\":2505:2521  _checkRole(role) */\n      jump\t// in\n    tag_228:\n        /* \"CLstaking.sol\":6139:6172  CollectionInfo storage collection */\n      0x00\n        /* \"CLstaking.sol\":6175:6189  collectionInfo */\n      0x07\n        /* \"CLstaking.sol\":6190:6203  _collectionID */\n      dup6\n        /* \"CLstaking.sol\":6175:6204  collectionInfo[_collectionID] */\n      dup2\n      sload\n      dup2\n      lt\n      tag_231\n      jumpi\n      tag_231\n      tag_139\n      jump\t// in\n    tag_231:\n      0x00\n      swap2\n      dup3\n      mstore\n      0x20\n      swap1\n      swap2\n      keccak256\n      0x03\n      swap1\n      swap2\n      mul\n      add\n        /* \"CLstaking.sol\":6214:6263  collection.collectionAddress = _collectionAddress */\n      dup1\n      sload\n      not(sub(shl(0xa0, 0x01), 0x01))\n      and\n      sub(shl(0xa0, 0x01), 0x01)\n      swap6\n      swap1\n      swap6\n      and\n      swap5\n      swap1\n      swap5\n      or\n      dup5\n      sstore\n      pop\n      pop\n      0x01\n        /* \"CLstaking.sol\":6273:6296  collection.rewardPerDay */\n      swap1\n      swap2\n      add\n        /* \"CLstaking.sol\":6273:6312  collection.rewardPerDay = _rewardPerDay */\n      sstore\n      pop\n        /* \"CLstaking.sol\":5970:6319  function updateCollection(... */\n      jump\t// out\n        /* \"CLstaking.sol\":6608:6824  function getTotalStakedItemsCount(uint256 _collectionID) external view returns (uint256) {... */\n    tag_99:\n        /* \"CLstaking.sol\":6688:6695  uint256 */\n      0x00\n        /* \"CLstaking.sol\":6707:6740  CollectionInfo storage collection */\n      dup1\n        /* \"CLstaking.sol\":6743:6757  collectionInfo */\n      0x07\n        /* \"CLstaking.sol\":6758:6771  _collectionID */\n      dup4\n        /* \"CLstaking.sol\":6743:6772  collectionInfo[_collectionID] */\n      dup2\n      sload\n      dup2\n      lt\n      tag_235\n      jumpi\n      tag_235\n      tag_139\n      jump\t// in\n    tag_235:\n      0x00\n      swap2\n      dup3\n      mstore\n      0x20\n      swap1\n      swap2\n      keccak256\n        /* \"CLstaking.sol\":6789:6817  collection.totalAmountStaked */\n      0x02\n        /* \"CLstaking.sol\":6743:6772  collectionInfo[_collectionID] */\n      0x03\n      swap1\n      swap3\n      mul\n      add\n        /* \"CLstaking.sol\":6789:6817  collection.totalAmountStaked */\n      add\n      sload\n      swap4\n        /* \"CLstaking.sol\":6608:6824  function getTotalStakedItemsCount(uint256 _collectionID) external view returns (uint256) {... */\n      swap3\n      pop\n      pop\n      pop\n      jump\t// out\n        /* \"@openzeppelin/contracts/access/AccessControl.sol\":2895:3040  function hasRole(bytes32 role, address account) public view virtual override returns (bool) {... */\n    tag_107:\n        /* \"@openzeppelin/contracts/access/AccessControl.sol\":2981:2985  bool */\n      0x00\n        /* \"@openzeppelin/contracts/access/AccessControl.sol\":3004:3016  _roles[role] */\n      swap2\n      dup3\n      mstore\n        /* \"@openzeppelin/contracts/access/AccessControl.sol\":3004:3010  _roles */\n      0x01\n        /* \"@openzeppelin/contracts/access/AccessControl.sol\":3004:3016  _roles[role] */\n      0x20\n      swap1\n      dup2\n      mstore\n      0x40\n      dup1\n      dup5\n      keccak256\n      sub(shl(0xa0, 0x01), 0x01)\n        /* \"@openzeppelin/contracts/access/AccessControl.sol\":3004:3033  _roles[role].members[account] */\n      swap4\n      swap1\n      swap4\n      and\n      dup5\n      mstore\n      swap2\n      swap1\n      mstore\n      swap1\n      keccak256\n      sload\n      0xff\n      and\n      swap1\n        /* \"@openzeppelin/contracts/access/AccessControl.sol\":2895:3040  function hasRole(bytes32 role, address account) public view virtual override returns (bool) {... */\n      jump\t// out\n        /* \"CLstaking.sol\":3009:3126  function unstake(uint256 _collectionID, uint256 _tokenID) external {... */\n    tag_111:\n        /* \"CLstaking.sol\":3086:3119  _unstake(_collectionID, _tokenID) */\n      tag_187\n        /* \"CLstaking.sol\":3095:3108  _collectionID */\n      dup3\n        /* \"CLstaking.sol\":3110:3118  _tokenID */\n      dup3\n        /* \"CLstaking.sol\":3086:3094  _unstake */\n      tag_140\n        /* \"CLstaking.sol\":3086:3119  _unstake(_collectionID, _tokenID) */\n      jump\t// in\n        /* \"@openzeppelin/contracts/access/AccessControl.sol\":5149:5296  function revokeRole(bytes32 role, address account) public virtual override onlyRole(getRoleAdmin(role)) {... */\n    tag_117:\n        /* \"@openzeppelin/contracts/access/AccessControl.sol\":4465:4472  bytes32 */\n      0x00\n        /* \"@openzeppelin/contracts/access/AccessControl.sol\":4491:4503  _roles[role] */\n      dup3\n      dup2\n      mstore\n        /* \"@openzeppelin/contracts/access/AccessControl.sol\":4491:4497  _roles */\n      0x01\n        /* \"@openzeppelin/contracts/access/AccessControl.sol\":4491:4503  _roles[role] */\n      0x20\n      dup2\n      swap1\n      mstore\n      0x40\n      swap1\n      swap2\n      keccak256\n        /* \"@openzeppelin/contracts/access/AccessControl.sol\":4491:4513  _roles[role].adminRole */\n      add\n      sload\n        /* \"@openzeppelin/contracts/access/AccessControl.sol\":2505:2521  _checkRole(role) */\n      tag_243\n        /* \"@openzeppelin/contracts/access/AccessControl.sol\":2516:2520  role */\n      dup2\n        /* \"@openzeppelin/contracts/access/AccessControl.sol\":2505:2515  _checkRole */\n      tag_161\n        /* \"@openzeppelin/contracts/access/AccessControl.sol\":2505:2521  _checkRole(role) */\n      jump\t// in\n    tag_243:\n        /* \"@openzeppelin/contracts/access/AccessControl.sol\":5263:5289  _revokeRole(role, account) */\n      tag_134\n        /* \"@openzeppelin/contracts/access/AccessControl.sol\":5275:5279  role */\n      dup4\n        /* \"@openzeppelin/contracts/access/AccessControl.sol\":5281:5288  account */\n      dup4\n        /* \"@openzeppelin/contracts/access/AccessControl.sol\":5263:5274  _revokeRole */\n      tag_188\n        /* \"@openzeppelin/contracts/access/AccessControl.sol\":5263:5289  _revokeRole(role, account) */\n      jump\t// in\n        /* \"@openzeppelin/contracts/access/Ownable.sol\":1918:2116  function transferOwnership(address newOwner) public virtual onlyOwner {... */\n    tag_126:\n        /* \"@openzeppelin/contracts/access/Ownable.sol\":1082:1089  address */\n      0x00\n        /* \"@openzeppelin/contracts/access/Ownable.sol\":1108:1114  _owner */\n      sload\n      sub(shl(0xa0, 0x01), 0x01)\n      and\n        /* \"@openzeppelin/contracts/utils/Context.sol\":719:729  msg.sender */\n      caller\n        /* \"@openzeppelin/contracts/access/Ownable.sol\":1248:1271  owner() == _msgSender() */\n      eq\n        /* \"@openzeppelin/contracts/access/Ownable.sol\":1240:1308  require(owner() == _msgSender(), \"Ownable: caller is not the owner\") */\n      tag_250\n      jumpi\n      mload(0x40)\n      shl(0xe5, 0x461bcd)\n      dup2\n      mstore\n        /* \"#utility.yul\":7652:7654   */\n      0x20\n        /* \"@openzeppelin/contracts/access/Ownable.sol\":1240:1308  require(owner() == _msgSender(), \"Ownable: caller is not the owner\") */\n      0x04\n      dup3\n      add\n        /* \"#utility.yul\":7634:7655   */\n      dup2\n      swap1\n      mstore\n        /* \"#utility.yul\":7671:7689   */\n      0x24\n      dup3\n      add\n        /* \"#utility.yul\":7664:7694   */\n      mstore\n        /* \"#utility.yul\":7730:7764   */\n      0x4f776e61626c653a2063616c6c6572206973206e6f7420746865206f776e6572\n        /* \"#utility.yul\":7710:7728   */\n      0x44\n      dup3\n      add\n        /* \"#utility.yul\":7703:7765   */\n      mstore\n        /* \"#utility.yul\":7782:7800   */\n      0x64\n      add\n        /* \"@openzeppelin/contracts/access/Ownable.sol\":1240:1308  require(owner() == _msgSender(), \"Ownable: caller is not the owner\") */\n      tag_185\n        /* \"#utility.yul\":7450:7806   */\n      jump\n        /* \"@openzeppelin/contracts/access/Ownable.sol\":1240:1308  require(owner() == _msgSender(), \"Ownable: caller is not the owner\") */\n    tag_250:\n      sub(shl(0xa0, 0x01), 0x01)\n        /* \"@openzeppelin/contracts/access/Ownable.sol\":2006:2028  newOwner != address(0) */\n      dup2\n      and\n        /* \"@openzeppelin/contracts/access/Ownable.sol\":1998:2071  require(newOwner != address(0), \"Ownable: new owner is the zero address\") */\n      tag_253\n      jumpi\n      mload(0x40)\n      shl(0xe5, 0x461bcd)\n      dup2\n      mstore\n        /* \"#utility.yul\":8013:8015   */\n      0x20\n        /* \"@openzeppelin/contracts/access/Ownable.sol\":1998:2071  require(newOwner != address(0), \"Ownable: new owner is the zero address\") */\n      0x04\n      dup3\n      add\n        /* \"#utility.yul\":7995:8016   */\n      mstore\n        /* \"#utility.yul\":8052:8054   */\n      0x26\n        /* \"#utility.yul\":8032:8050   */\n      0x24\n      dup3\n      add\n        /* \"#utility.yul\":8025:8055   */\n      mstore\n        /* \"#utility.yul\":8091:8125   */\n      0x4f776e61626c653a206e6577206f776e657220697320746865207a65726f2061\n        /* \"#utility.yul\":8071:8089   */\n      0x44\n      dup3\n      add\n        /* \"#utility.yul\":8064:8126   */\n      mstore\n      shl(0xd0, 0x646472657373)\n        /* \"#utility.yul\":8142:8160   */\n      0x64\n      dup3\n      add\n        /* \"#utility.yul\":8135:8171   */\n      mstore\n        /* \"#utility.yul\":8188:8207   */\n      0x84\n      add\n        /* \"@openzeppelin/contracts/access/Ownable.sol\":1998:2071  require(newOwner != address(0), \"Ownable: new owner is the zero address\") */\n      tag_185\n        /* \"#utility.yul\":7811:8213   */\n      jump\n        /* \"@openzeppelin/contracts/access/Ownable.sol\":1998:2071  require(newOwner != address(0), \"Ownable: new owner is the zero address\") */\n    tag_253:\n        /* \"@openzeppelin/contracts/access/Ownable.sol\":2081:2109  _transferOwnership(newOwner) */\n      tag_256\n        /* \"@openzeppelin/contracts/access/Ownable.sol\":2100:2108  newOwner */\n      dup2\n        /* \"@openzeppelin/contracts/access/Ownable.sol\":2081:2099  _transferOwnership */\n      tag_224\n        /* \"@openzeppelin/contracts/access/Ownable.sol\":2081:2109  _transferOwnership(newOwner) */\n      jump\t// in\n    tag_256:\n        /* \"@openzeppelin/contracts/access/Ownable.sol\":1918:2116  function transferOwnership(address newOwner) public virtual onlyOwner {... */\n      pop\n      jump\t// out\n        /* \"CLstaking.sol\":6325:6602  function getUserStakedTokens(address _userAddress, uint256 _collectionID) external view returns(uint256[] memory){... */\n    tag_129:\n        /* \"CLstaking.sol\":6421:6437  uint256[] memory */\n      0x60\n        /* \"CLstaking.sol\":6448:6481  CollectionInfo storage collection */\n      0x00\n        /* \"CLstaking.sol\":6484:6498  collectionInfo */\n      0x07\n        /* \"CLstaking.sol\":6499:6512  _collectionID */\n      dup4\n        /* \"CLstaking.sol\":6484:6513  collectionInfo[_collectionID] */\n      dup2\n      sload\n      dup2\n      lt\n      tag_259\n      jumpi\n      tag_259\n      tag_139\n      jump\t// in\n    tag_259:\n      0x00\n      swap2\n      dup3\n      mstore\n      0x20\n      dup1\n      dup4\n      keccak256\n      0x03\n      swap1\n      swap3\n      mul\n      swap1\n      swap2\n      add\n        /* \"CLstaking.sol\":6552:6580  collection.collectionAddress */\n      dup1\n      sload\n      sub(shl(0xa0, 0x01), 0x01)\n      swap1\n      dup2\n      and\n        /* \"CLstaking.sol\":6530:6581  addressToStakedTokens[collection.collectionAddress] */\n      dup5\n      mstore\n        /* \"CLstaking.sol\":6530:6551  addressToStakedTokens */\n      0x04\n        /* \"CLstaking.sol\":6530:6581  addressToStakedTokens[collection.collectionAddress] */\n      dup4\n      mstore\n      0x40\n      dup1\n      dup6\n      keccak256\n        /* \"CLstaking.sol\":6530:6595  addressToStakedTokens[collection.collectionAddress][_userAddress] */\n      swap2\n      dup10\n      and\n      dup6\n      mstore\n      swap1\n      dup4\n      mstore\n      swap3\n      dup4\n      swap1\n      keccak256\n        /* \"CLstaking.sol\":6523:6595  return addressToStakedTokens[collection.collectionAddress][_userAddress] */\n      dup1\n      sload\n      dup5\n      mload\n      dup2\n      dup6\n      mul\n      dup2\n      add\n      dup6\n      add\n      swap1\n      swap6\n      mstore\n      dup1\n      dup6\n      mstore\n        /* \"CLstaking.sol\":6484:6513  collectionInfo[_collectionID] */\n      swap2\n      swap5\n      pop\n        /* \"CLstaking.sol\":6530:6595  addressToStakedTokens[collection.collectionAddress][_userAddress] */\n      swap2\n        /* \"CLstaking.sol\":6523:6595  return addressToStakedTokens[collection.collectionAddress][_userAddress] */\n      dup4\n      add\n        /* \"CLstaking.sol\":6530:6595  addressToStakedTokens[collection.collectionAddress][_userAddress] */\n      dup3\n        /* \"CLstaking.sol\":6523:6595  return addressToStakedTokens[collection.collectionAddress][_userAddress] */\n      dup3\n      dup1\n      iszero\n      tag_261\n      jumpi\n      0x20\n      mul\n      dup3\n      add\n      swap2\n      swap1\n      0x00\n      mstore\n      keccak256(0x00, 0x20)\n      swap1\n    tag_262:\n      dup2\n      sload\n      dup2\n      mstore\n      0x20\n      add\n      swap1\n      0x01\n      add\n      swap1\n      dup1\n      dup4\n      gt\n      tag_262\n      jumpi\n    tag_261:\n      pop\n      pop\n      pop\n      pop\n      pop\n      swap2\n      pop\n      pop\n        /* \"CLstaking.sol\":6325:6602  function getUserStakedTokens(address _userAddress, uint256 _collectionID) external view returns(uint256[] memory){... */\n      swap3\n      swap2\n      pop\n      pop\n      jump\t// out\n        /* \"CLstaking.sol\":3251:4235  function _unstake(... */\n    tag_140:\n        /* \"CLstaking.sol\":3351:3384  CollectionInfo storage collection */\n      0x00\n        /* \"CLstaking.sol\":3387:3401  collectionInfo */\n      0x07\n        /* \"CLstaking.sol\":3402:3415  _collectionID */\n      dup4\n        /* \"CLstaking.sol\":3387:3416  collectionInfo[_collectionID] */\n      dup2\n      sload\n      dup2\n      lt\n      tag_265\n      jumpi\n      tag_265\n      tag_139\n      jump\t// in\n    tag_265:\n      0x00\n      swap2\n      dup3\n      mstore\n      0x20\n      dup1\n      dup4\n      keccak256\n      0x03\n      swap1\n      swap3\n      mul\n      swap1\n      swap2\n      add\n        /* \"CLstaking.sol\":3458:3486  collection.collectionAddress */\n      dup1\n      sload\n      sub(shl(0xa0, 0x01), 0x01)\n      swap1\n      dup2\n      and\n        /* \"CLstaking.sol\":3435:3487  contractTokenIdToOwner[collection.collectionAddress] */\n      dup5\n      mstore\n        /* \"CLstaking.sol\":3435:3457  contractTokenIdToOwner */\n      0x05\n        /* \"CLstaking.sol\":3435:3487  contractTokenIdToOwner[collection.collectionAddress] */\n      dup4\n      mstore\n      0x40\n      dup1\n      dup6\n      keccak256\n        /* \"CLstaking.sol\":3435:3497  contractTokenIdToOwner[collection.collectionAddress][_tokenID] */\n      dup8\n      dup7\n      mstore\n      swap1\n      swap4\n      mstore\n      swap2\n      swap1\n      swap3\n      keccak256\n      sload\n        /* \"CLstaking.sol\":3387:3416  collectionInfo[_collectionID] */\n      swap2\n      swap3\n      pop\n        /* \"CLstaking.sol\":3435:3497  contractTokenIdToOwner[collection.collectionAddress][_tokenID] */\n      and\n        /* \"CLstaking.sol\":3501:3511  msg.sender */\n      caller\n        /* \"CLstaking.sol\":3435:3511  contractTokenIdToOwner[collection.collectionAddress][_tokenID] == msg.sender */\n      eq\n        /* \"CLstaking.sol\":3427:3582  require(contractTokenIdToOwner[collection.collectionAddress][_tokenID] == msg.sender,... */\n      tag_267\n      jumpi\n      mload(0x40)\n      shl(0xe5, 0x461bcd)\n      dup2\n      mstore\n        /* \"#utility.yul\":8420:8422   */\n      0x20\n        /* \"CLstaking.sol\":3427:3582  require(contractTokenIdToOwner[collection.collectionAddress][_tokenID] == msg.sender,... */\n      0x04\n      dup3\n      add\n        /* \"#utility.yul\":8402:8423   */\n      mstore\n        /* \"#utility.yul\":8459:8461   */\n      0x2d\n        /* \"#utility.yul\":8439:8457   */\n      0x24\n      dup3\n      add\n        /* \"#utility.yul\":8432:8462   */\n      mstore\n        /* \"#utility.yul\":8498:8532   */\n      0x746f6b656e206973206e6f74207374616b6564206f722073656e64657220646f\n        /* \"#utility.yul\":8478:8496   */\n      0x44\n      dup3\n      add\n        /* \"#utility.yul\":8471:8533   */\n      mstore\n      shl(0x9a, 0x195cc81b9bdd081bdddb881a5d)\n        /* \"#utility.yul\":8549:8567   */\n      0x64\n      dup3\n      add\n        /* \"#utility.yul\":8542:8585   */\n      mstore\n        /* \"#utility.yul\":8602:8621   */\n      0x84\n      add\n        /* \"CLstaking.sol\":3427:3582  require(contractTokenIdToOwner[collection.collectionAddress][_tokenID] == msg.sender,... */\n      tag_185\n        /* \"#utility.yul\":8218:8627   */\n      jump\n        /* \"CLstaking.sol\":3427:3582  require(contractTokenIdToOwner[collection.collectionAddress][_tokenID] == msg.sender,... */\n    tag_267:\n        /* \"CLstaking.sol\":3593:3642  _claimReward(msg.sender, _collectionID, _tokenID) */\n      tag_270\n        /* \"CLstaking.sol\":3606:3616  msg.sender */\n      caller\n        /* \"CLstaking.sol\":3618:3631  _collectionID */\n      dup5\n        /* \"CLstaking.sol\":3633:3641  _tokenID */\n      dup5\n        /* \"CLstaking.sol\":3593:3605  _claimReward */\n      tag_271\n        /* \"CLstaking.sol\":3593:3642  _claimReward(msg.sender, _collectionID, _tokenID) */\n      jump\t// in\n    tag_270:\n        /* \"CLstaking.sol\":3751:3779  collection.collectionAddress */\n      dup1\n      sload\n      sub(shl(0xa0, 0x01), 0x01)\n      and\n        /* \"CLstaking.sol\":3729:3780  addressToStakedTokens[collection.collectionAddress] */\n      0x00\n      swap1\n      dup2\n      mstore\n        /* \"CLstaking.sol\":3729:3750  addressToStakedTokens */\n      0x04\n        /* \"CLstaking.sol\":3729:3780  addressToStakedTokens[collection.collectionAddress] */\n      0x20\n      swap1\n      dup2\n      mstore\n      0x40\n      dup1\n      dup4\n      keccak256\n        /* \"CLstaking.sol\":3781:3791  msg.sender */\n      caller\n        /* \"CLstaking.sol\":3729:3792  addressToStakedTokens[collection.collectionAddress][msg.sender] */\n      dup5\n      mstore\n      swap1\n      swap2\n      mstore\n      swap1\n      keccak256\n        /* \"CLstaking.sol\":3714:3803  _removeElement(addressToStakedTokens[collection.collectionAddress][msg.sender], _tokenID) */\n      tag_272\n      swap1\n        /* \"CLstaking.sol\":3794:3802  _tokenID */\n      dup4\n        /* \"CLstaking.sol\":3714:3728  _removeElement */\n      tag_273\n        /* \"CLstaking.sol\":3714:3803  _removeElement(addressToStakedTokens[collection.collectionAddress][msg.sender], _tokenID) */\n      jump\t// in\n    tag_272:\n        /* \"CLstaking.sol\":3895:3923  collection.collectionAddress */\n      dup1\n      sload\n      sub(shl(0xa0, 0x01), 0x01)\n      swap1\n      dup2\n      and\n        /* \"CLstaking.sol\":3872:3924  contractTokenIdToOwner[collection.collectionAddress] */\n      0x00\n      swap1\n      dup2\n      mstore\n        /* \"CLstaking.sol\":3872:3894  contractTokenIdToOwner */\n      0x05\n        /* \"CLstaking.sol\":3872:3924  contractTokenIdToOwner[collection.collectionAddress] */\n      0x20\n      swap1\n      dup2\n      mstore\n      0x40\n      dup1\n      dup4\n      keccak256\n        /* \"CLstaking.sol\":3872:3934  contractTokenIdToOwner[collection.collectionAddress][_tokenID] */\n      dup7\n      dup5\n      mstore\n      dup3\n      mstore\n      dup1\n      dup4\n      keccak256\n        /* \"CLstaking.sol\":3865:3934  delete contractTokenIdToOwner[collection.collectionAddress][_tokenID] */\n      dup1\n      sload\n      not(sub(shl(0xa0, 0x01), 0x01))\n      and\n      swap1\n      sstore\n        /* \"CLstaking.sol\":4038:4066  collection.collectionAddress */\n      dup5\n      sload\n      swap1\n      swap4\n      and\n        /* \"CLstaking.sol\":4005:4067  contractTokenIdToStakedTimestamp[collection.collectionAddress] */\n      dup3\n      mstore\n        /* \"CLstaking.sol\":4005:4037  contractTokenIdToStakedTimestamp */\n      0x06\n        /* \"CLstaking.sol\":4005:4067  contractTokenIdToStakedTimestamp[collection.collectionAddress] */\n      dup2\n      mstore\n      dup3\n      dup3\n      keccak256\n        /* \"CLstaking.sol\":4005:4077  contractTokenIdToStakedTimestamp[collection.collectionAddress][_tokenID] */\n      dup6\n      dup4\n      mstore\n      swap1\n      mstore\n      swap1\n      dup2\n      keccak256\n        /* \"CLstaking.sol\":3998:4077  delete contractTokenIdToStakedTimestamp[collection.collectionAddress][_tokenID] */\n      dup2\n      swap1\n      sstore\n        /* \"CLstaking.sol\":4088:4116  collection.totalAmountStaked */\n      0x02\n      dup3\n      add\n        /* \"CLstaking.sol\":4088:4121  collection.totalAmountStaked -= 1 */\n      dup1\n      sload\n        /* \"CLstaking.sol\":3895:3923  collection.collectionAddress */\n      0x01\n      swap3\n        /* \"CLstaking.sol\":3872:3924  contractTokenIdToOwner[collection.collectionAddress] */\n      swap1\n        /* \"CLstaking.sol\":4088:4121  collection.totalAmountStaked -= 1 */\n      tag_274\n      swap1\n        /* \"CLstaking.sol\":3895:3923  collection.collectionAddress */\n      dup5\n      swap1\n        /* \"CLstaking.sol\":4088:4121  collection.totalAmountStaked -= 1 */\n      tag_178\n      jump\t// in\n    tag_274:\n      swap1\n      swap2\n      sstore\n      pop\n      pop\n        /* \"CLstaking.sol\":4140:4168  collection.collectionAddress */\n      dup1\n      sload\n        /* \"CLstaking.sol\":4132:4219  IERC721(collection.collectionAddress).transferFrom(address(this), msg.sender, _tokenID) */\n      mload(0x40)\n      shl(0xe0, 0x23b872dd)\n      dup2\n      mstore\n        /* \"CLstaking.sol\":4191:4195  this */\n      address\n        /* \"CLstaking.sol\":4132:4219  IERC721(collection.collectionAddress).transferFrom(address(this), msg.sender, _tokenID) */\n      0x04\n      dup3\n      add\n        /* \"#utility.yul\":8872:8906   */\n      mstore\n        /* \"CLstaking.sol\":4198:4208  msg.sender */\n      caller\n        /* \"#utility.yul\":8922:8940   */\n      0x24\n      dup3\n      add\n        /* \"#utility.yul\":8915:8958   */\n      mstore\n        /* \"#utility.yul\":8974:8992   */\n      0x44\n      dup2\n      add\n        /* \"#utility.yul\":8967:9001   */\n      dup5\n      swap1\n      mstore\n      sub(shl(0xa0, 0x01), 0x01)\n        /* \"CLstaking.sol\":4140:4168  collection.collectionAddress */\n      swap1\n      swap2\n      and\n      swap1\n        /* \"CLstaking.sol\":4132:4182  IERC721(collection.collectionAddress).transferFrom */\n      0x23b872dd\n      swap1\n        /* \"#utility.yul\":8807:8825   */\n      0x64\n      add\n        /* \"CLstaking.sol\":4132:4219  IERC721(collection.collectionAddress).transferFrom(address(this), msg.sender, _tokenID) */\n    tag_275:\n      0x00\n      mload(0x40)\n      dup1\n      dup4\n      sub\n      dup2\n      0x00\n      dup8\n      dup1\n      extcodesize\n      iszero\n      dup1\n      iszero\n      tag_277\n      jumpi\n      0x00\n      dup1\n      revert\n    tag_277:\n      pop\n      gas\n      call\n      iszero\n      dup1\n      iszero\n      tag_279\n      jumpi\n      returndatasize\n      0x00\n      dup1\n      returndatacopy\n      revert(0x00, returndatasize)\n    tag_279:\n      pop\n      pop\n      pop\n      pop\n        /* \"CLstaking.sol\":3341:4235  {... */\n      pop\n        /* \"CLstaking.sol\":3251:4235  function _unstake(... */\n      pop\n      pop\n      jump\t// out\n        /* \"CLstaking.sol\":1746:2581  function _stake(... */\n    tag_156:\n        /* \"CLstaking.sol\":1844:1877  CollectionInfo storage collection */\n      0x00\n        /* \"CLstaking.sol\":1880:1894  collectionInfo */\n      0x07\n        /* \"CLstaking.sol\":1895:1908  _collectionID */\n      dup4\n        /* \"CLstaking.sol\":1880:1909  collectionInfo[_collectionID] */\n      dup2\n      sload\n      dup2\n      lt\n      tag_283\n      jumpi\n      tag_283\n      tag_139\n      jump\t// in\n    tag_283:\n      0x00\n      swap2\n      dup3\n      mstore\n      0x20\n      dup1\n      dup4\n      keccak256\n      0x03\n      swap1\n      swap3\n      mul\n      swap1\n      swap2\n      add\n        /* \"CLstaking.sol\":2011:2039  collection.collectionAddress */\n      dup1\n      sload\n      sub(shl(0xa0, 0x01), 0x01)\n      swap1\n      dup2\n      and\n        /* \"CLstaking.sol\":1988:2040  contractTokenIdToOwner[collection.collectionAddress] */\n      dup5\n      mstore\n        /* \"CLstaking.sol\":1988:2010  contractTokenIdToOwner */\n      0x05\n        /* \"CLstaking.sol\":1988:2040  contractTokenIdToOwner[collection.collectionAddress] */\n      dup4\n      mstore\n      0x40\n      dup1\n      dup6\n      keccak256\n        /* \"CLstaking.sol\":1988:2050  contractTokenIdToOwner[collection.collectionAddress][_tokenID] */\n      dup8\n      dup7\n      mstore\n      dup5\n      mstore\n      dup1\n      dup6\n      keccak256\n        /* \"CLstaking.sol\":1988:2063  contractTokenIdToOwner[collection.collectionAddress][_tokenID] = msg.sender */\n      dup1\n      sload\n      not(sub(shl(0xa0, 0x01), 0x01))\n      and\n        /* \"CLstaking.sol\":2053:2063  msg.sender */\n      caller\n        /* \"CLstaking.sol\":1988:2063  contractTokenIdToOwner[collection.collectionAddress][_tokenID] = msg.sender */\n      swap1\n      dup2\n      or\n      swap1\n      swap2\n      sstore\n        /* \"CLstaking.sol\":2145:2173  collection.collectionAddress */\n      dup4\n      sload\n      dup4\n      and\n        /* \"CLstaking.sol\":2112:2174  contractTokenIdToStakedTimestamp[collection.collectionAddress] */\n      dup7\n      mstore\n        /* \"CLstaking.sol\":2112:2144  contractTokenIdToStakedTimestamp */\n      0x06\n        /* \"CLstaking.sol\":2112:2174  contractTokenIdToStakedTimestamp[collection.collectionAddress] */\n      dup6\n      mstore\n      dup2\n      dup7\n      keccak256\n        /* \"CLstaking.sol\":2112:2184  contractTokenIdToStakedTimestamp[collection.collectionAddress][_tokenID] */\n      dup9\n      dup8\n      mstore\n      dup6\n      mstore\n      dup2\n      dup7\n      keccak256\n        /* \"CLstaking.sol\":2187:2202  block.timestamp */\n      timestamp\n        /* \"CLstaking.sol\":2112:2202  contractTokenIdToStakedTimestamp[collection.collectionAddress][_tokenID] = block.timestamp */\n      swap1\n      sstore\n        /* \"CLstaking.sol\":2317:2345  collection.collectionAddress */\n      dup4\n      sload\n      swap1\n      swap3\n      and\n        /* \"CLstaking.sol\":2295:2346  addressToStakedTokens[collection.collectionAddress] */\n      dup6\n      mstore\n        /* \"CLstaking.sol\":2295:2316  addressToStakedTokens */\n      0x04\n        /* \"CLstaking.sol\":2295:2346  addressToStakedTokens[collection.collectionAddress] */\n      dup5\n      mstore\n      dup1\n      dup6\n      keccak256\n        /* \"CLstaking.sol\":2295:2358  addressToStakedTokens[collection.collectionAddress][msg.sender] */\n      swap2\n      dup6\n      mstore\n      swap1\n      dup4\n      mstore\n      dup4\n      keccak256\n        /* \"CLstaking.sol\":2295:2373  addressToStakedTokens[collection.collectionAddress][msg.sender].push(_tokenID) */\n      dup1\n      sload\n        /* \"CLstaking.sol\":2011:2039  collection.collectionAddress */\n      0x01\n        /* \"CLstaking.sol\":2295:2373  addressToStakedTokens[collection.collectionAddress][msg.sender].push(_tokenID) */\n      dup2\n      dup2\n      add\n      dup4\n      sstore\n      swap2\n      dup6\n      mstore\n      swap3\n      dup5\n      keccak256\n      swap1\n      swap3\n      add\n      dup6\n      swap1\n      sstore\n        /* \"CLstaking.sol\":2384:2412  collection.totalAmountStaked */\n      0x02\n      dup2\n      add\n        /* \"CLstaking.sol\":2384:2417  collection.totalAmountStaked += 1 */\n      dup1\n      sload\n        /* \"CLstaking.sol\":1880:1909  collectionInfo[_collectionID] */\n      swap2\n      swap5\n      pop\n        /* \"CLstaking.sol\":2011:2039  collection.collectionAddress */\n      swap2\n      swap3\n        /* \"CLstaking.sol\":1880:1909  collectionInfo[_collectionID] */\n      swap1\n        /* \"CLstaking.sol\":2384:2417  collection.totalAmountStaked += 1 */\n      tag_286\n      swap1\n        /* \"CLstaking.sol\":2011:2039  collection.collectionAddress */\n      dup5\n      swap1\n        /* \"CLstaking.sol\":2384:2417  collection.totalAmountStaked += 1 */\n      tag_201\n      jump\t// in\n    tag_286:\n      swap1\n      swap2\n      sstore\n      pop\n      pop\n        /* \"CLstaking.sol\":2495:2523  collection.collectionAddress */\n      dup1\n      sload\n        /* \"CLstaking.sol\":2487:2574  IERC721(collection.collectionAddress).transferFrom(msg.sender, address(this), _tokenID) */\n      mload(0x40)\n      shl(0xe0, 0x23b872dd)\n      dup2\n      mstore\n        /* \"CLstaking.sol\":2538:2548  msg.sender */\n      caller\n        /* \"CLstaking.sol\":2487:2574  IERC721(collection.collectionAddress).transferFrom(msg.sender, address(this), _tokenID) */\n      0x04\n      dup3\n      add\n        /* \"#utility.yul\":8872:8906   */\n      mstore\n        /* \"CLstaking.sol\":2558:2562  this */\n      address\n        /* \"#utility.yul\":8922:8940   */\n      0x24\n      dup3\n      add\n        /* \"#utility.yul\":8915:8958   */\n      mstore\n        /* \"#utility.yul\":8974:8992   */\n      0x44\n      dup2\n      add\n        /* \"#utility.yul\":8967:9001   */\n      dup5\n      swap1\n      mstore\n      sub(shl(0xa0, 0x01), 0x01)\n        /* \"CLstaking.sol\":2495:2523  collection.collectionAddress */\n      swap1\n      swap2\n      and\n      swap1\n        /* \"CLstaking.sol\":2487:2537  IERC721(collection.collectionAddress).transferFrom */\n      0x23b872dd\n      swap1\n        /* \"#utility.yul\":8807:8825   */\n      0x64\n      add\n        /* \"CLstaking.sol\":2487:2574  IERC721(collection.collectionAddress).transferFrom(msg.sender, address(this), _tokenID) */\n      tag_275\n        /* \"#utility.yul\":8632:9007   */\n      jump\n        /* \"@openzeppelin/contracts/access/AccessControl.sol\":3334:3437  function _checkRole(bytes32 role) internal view virtual {... */\n    tag_161:\n        /* \"@openzeppelin/contracts/access/AccessControl.sol\":3400:3430  _checkRole(role, _msgSender()) */\n      tag_256\n        /* \"@openzeppelin/contracts/access/AccessControl.sol\":3411:3415  role */\n      dup2\n        /* \"@openzeppelin/contracts/utils/Context.sol\":719:729  msg.sender */\n      caller\n        /* \"@openzeppelin/contracts/access/AccessControl.sol\":3400:3410  _checkRole */\n      tag_294\n        /* \"@openzeppelin/contracts/access/AccessControl.sol\":3400:3430  _checkRole(role, _msgSender()) */\n      jump\t// in\n        /* \"@openzeppelin/contracts/access/AccessControl.sol\":7244:7477  function _grantRole(bytes32 role, address account) internal virtual {... */\n    tag_169:\n        /* \"@openzeppelin/contracts/access/AccessControl.sol\":7327:7349  hasRole(role, account) */\n      tag_296\n        /* \"@openzeppelin/contracts/access/AccessControl.sol\":7335:7339  role */\n      dup3\n        /* \"@openzeppelin/contracts/access/AccessControl.sol\":7341:7348  account */\n      dup3\n        /* \"@openzeppelin/contracts/access/AccessControl.sol\":7327:7334  hasRole */\n      tag_107\n        /* \"@openzeppelin/contracts/access/AccessControl.sol\":7327:7349  hasRole(role, account) */\n      jump\t// in\n    tag_296:\n        /* \"@openzeppelin/contracts/access/AccessControl.sol\":7322:7471  if (!hasRole(role, account)) {... */\n      tag_187\n      jumpi\n        /* \"@openzeppelin/contracts/access/AccessControl.sol\":7365:7377  _roles[role] */\n      0x00\n      dup3\n      dup2\n      mstore\n        /* \"@openzeppelin/contracts/access/AccessControl.sol\":7397:7401  true */\n      0x01\n        /* \"@openzeppelin/contracts/access/AccessControl.sol\":7365:7377  _roles[role] */\n      0x20\n      dup2\n      dup2\n      mstore\n      0x40\n      dup1\n      dup5\n      keccak256\n      sub(shl(0xa0, 0x01), 0x01)\n        /* \"@openzeppelin/contracts/access/AccessControl.sol\":7365:7394  _roles[role].members[account] */\n      dup7\n      and\n      dup1\n      dup7\n      mstore\n      swap3\n      mstore\n      dup1\n      dup5\n      keccak256\n        /* \"@openzeppelin/contracts/access/AccessControl.sol\":7365:7401  _roles[role].members[account] = true */\n      dup1\n      sload\n      not(0xff)\n      and\n      swap1\n      swap4\n      or\n      swap1\n      swap3\n      sstore\n        /* \"@openzeppelin/contracts/access/AccessControl.sol\":7420:7460  RoleGranted(role, account, _msgSender()) */\n      swap1\n      mload\n        /* \"@openzeppelin/contracts/utils/Context.sol\":719:729  msg.sender */\n      caller\n      swap3\n        /* \"@openzeppelin/contracts/access/AccessControl.sol\":7365:7377  _roles[role] */\n      dup6\n      swap2\n        /* \"@openzeppelin/contracts/access/AccessControl.sol\":7420:7460  RoleGranted(role, account, _msgSender()) */\n      0x2f8788117e7eff1d82e926ec794901d17c78024a50270940304540a733656f0d\n      swap2\n        /* \"@openzeppelin/contracts/access/AccessControl.sol\":7365:7377  _roles[role] */\n      swap1\n        /* \"@openzeppelin/contracts/access/AccessControl.sol\":7420:7460  RoleGranted(role, account, _msgSender()) */\n      log4\n        /* \"@openzeppelin/contracts/access/AccessControl.sol\":7244:7477  function _grantRole(bytes32 role, address account) internal virtual {... */\n      pop\n      pop\n      jump\t// out\n        /* \"@openzeppelin/contracts/utils/math/SafeMath.sol\":3850:3946  function div(uint256 a, uint256 b) internal pure returns (uint256) {... */\n    tag_179:\n        /* \"@openzeppelin/contracts/utils/math/SafeMath.sol\":3908:3915  uint256 */\n      0x00\n        /* \"@openzeppelin/contracts/utils/math/SafeMath.sol\":3934:3939  a / b */\n      tag_170\n        /* \"@openzeppelin/contracts/utils/math/SafeMath.sol\":3938:3939  b */\n      dup3\n        /* \"@openzeppelin/contracts/utils/math/SafeMath.sol\":3934:3935  a */\n      dup5\n        /* \"@openzeppelin/contracts/utils/math/SafeMath.sol\":3934:3939  a / b */\n      tag_301\n      jump\t// in\n        /* \"@openzeppelin/contracts/utils/math/SafeMath.sol\":3465:3561  function mul(uint256 a, uint256 b) internal pure returns (uint256) {... */\n    tag_180:\n        /* \"@openzeppelin/contracts/utils/math/SafeMath.sol\":3523:3530  uint256 */\n      0x00\n        /* \"@openzeppelin/contracts/utils/math/SafeMath.sol\":3549:3554  a * b */\n      tag_170\n        /* \"@openzeppelin/contracts/utils/math/SafeMath.sol\":3553:3554  b */\n      dup3\n        /* \"@openzeppelin/contracts/utils/math/SafeMath.sol\":3549:3550  a */\n      dup5\n        /* \"@openzeppelin/contracts/utils/math/SafeMath.sol\":3549:3554  a * b */\n      tag_304\n      jump\t// in\n        /* \"@openzeppelin/contracts/access/AccessControl.sol\":7602:7836  function _revokeRole(bytes32 role, address account) internal virtual {... */\n    tag_188:\n        /* \"@openzeppelin/contracts/access/AccessControl.sol\":7685:7707  hasRole(role, account) */\n      tag_307\n        /* \"@openzeppelin/contracts/access/AccessControl.sol\":7693:7697  role */\n      dup3\n        /* \"@openzeppelin/contracts/access/AccessControl.sol\":7699:7706  account */\n      dup3\n        /* \"@openzeppelin/contracts/access/AccessControl.sol\":7685:7692  hasRole */\n      tag_107\n        /* \"@openzeppelin/contracts/access/AccessControl.sol\":7685:7707  hasRole(role, account) */\n      jump\t// in\n    tag_307:\n        /* \"@openzeppelin/contracts/access/AccessControl.sol\":7681:7830  if (hasRole(role, account)) {... */\n      iszero\n      tag_187\n      jumpi\n        /* \"@openzeppelin/contracts/access/AccessControl.sol\":7755:7760  false */\n      0x00\n        /* \"@openzeppelin/contracts/access/AccessControl.sol\":7723:7735  _roles[role] */\n      dup3\n      dup2\n      mstore\n        /* \"@openzeppelin/contracts/access/AccessControl.sol\":7723:7729  _roles */\n      0x01\n        /* \"@openzeppelin/contracts/access/AccessControl.sol\":7723:7735  _roles[role] */\n      0x20\n      swap1\n      dup2\n      mstore\n      0x40\n      dup1\n      dup4\n      keccak256\n      sub(shl(0xa0, 0x01), 0x01)\n        /* \"@openzeppelin/contracts/access/AccessControl.sol\":7723:7752  _roles[role].members[account] */\n      dup6\n      and\n      dup1\n      dup6\n      mstore\n      swap3\n      mstore\n      dup1\n      dup4\n      keccak256\n        /* \"@openzeppelin/contracts/access/AccessControl.sol\":7723:7760  _roles[role].members[account] = false */\n      dup1\n      sload\n      not(0xff)\n      and\n      swap1\n      sstore\n        /* \"@openzeppelin/contracts/access/AccessControl.sol\":7779:7819  RoleRevoked(role, account, _msgSender()) */\n      mload\n        /* \"@openzeppelin/contracts/utils/Context.sol\":719:729  msg.sender */\n      caller\n      swap3\n        /* \"@openzeppelin/contracts/access/AccessControl.sol\":7723:7735  _roles[role] */\n      dup6\n      swap2\n        /* \"@openzeppelin/contracts/access/AccessControl.sol\":7779:7819  RoleRevoked(role, account, _msgSender()) */\n      0xf6391f5c32d9c69d2a47ea670b442974b53935d1edc7fd64eb21e047a839171b\n      swap2\n        /* \"@openzeppelin/contracts/access/AccessControl.sol\":7755:7760  false */\n      swap1\n        /* \"@openzeppelin/contracts/access/AccessControl.sol\":7779:7819  RoleRevoked(role, account, _msgSender()) */\n      log4\n        /* \"@openzeppelin/contracts/access/AccessControl.sol\":7602:7836  function _revokeRole(bytes32 role, address account) internal virtual {... */\n      pop\n      pop\n      jump\t// out\n        /* \"@openzeppelin/contracts/access/AccessControl.sol\":6640:6750  function _setupRole(bytes32 role, address account) internal virtual {... */\n    tag_207:\n        /* \"@openzeppelin/contracts/access/AccessControl.sol\":6718:6743  _grantRole(role, account) */\n      tag_187\n        /* \"@openzeppelin/contracts/access/AccessControl.sol\":6729:6733  role */\n      dup3\n        /* \"@openzeppelin/contracts/access/AccessControl.sol\":6735:6742  account */\n      dup3\n        /* \"@openzeppelin/contracts/access/AccessControl.sol\":6718:6728  _grantRole */\n      tag_169\n        /* \"@openzeppelin/contracts/access/AccessControl.sol\":6718:6743  _grantRole(role, account) */\n      jump\t// in\n        /* \"@openzeppelin/contracts/access/Ownable.sol\":2270:2457  function _transferOwnership(address newOwner) internal virtual {... */\n    tag_224:\n        /* \"@openzeppelin/contracts/access/Ownable.sol\":2343:2359  address oldOwner */\n      0x00\n        /* \"@openzeppelin/contracts/access/Ownable.sol\":2362:2368  _owner */\n      dup1\n      sload\n      sub(shl(0xa0, 0x01), 0x01)\n        /* \"@openzeppelin/contracts/access/Ownable.sol\":2378:2395  _owner = newOwner */\n      dup4\n      dup2\n      and\n      not(sub(shl(0xa0, 0x01), 0x01))\n      dup4\n      and\n      dup2\n      or\n      dup5\n      sstore\n        /* \"@openzeppelin/contracts/access/Ownable.sol\":2410:2450  OwnershipTransferred(oldOwner, newOwner) */\n      mload(0x40)\n        /* \"@openzeppelin/contracts/access/Ownable.sol\":2362:2368  _owner */\n      swap2\n      swap1\n      swap3\n      and\n      swap3\n      dup4\n      swap2\n        /* \"@openzeppelin/contracts/access/Ownable.sol\":2410:2450  OwnershipTransferred(oldOwner, newOwner) */\n      0x8be0079c531659141344cd1fd0a4f28419497f9722a3daafe3b4186f6b6457e0\n      swap2\n        /* \"@openzeppelin/contracts/access/Ownable.sol\":2343:2359  address oldOwner */\n      swap1\n        /* \"@openzeppelin/contracts/access/Ownable.sol\":2410:2450  OwnershipTransferred(oldOwner, newOwner) */\n      log3\n        /* \"@openzeppelin/contracts/access/Ownable.sol\":2333:2457  {... */\n      pop\n        /* \"@openzeppelin/contracts/access/Ownable.sol\":2270:2457  function _transferOwnership(address newOwner) internal virtual {... */\n      pop\n      jump\t// out\n        /* \"CLstaking.sol\":5432:5689  function _claimReward(address _userAddress, uint256 _collectionID,uint256 _tokenID) internal {... */\n    tag_271:\n        /* \"CLstaking.sol\":5535:5556  uint256 payableAmount */\n      0x00\n        /* \"CLstaking.sol\":5559:5612  claimableReward(_userAddress, _collectionID,_tokenID) */\n      tag_314\n        /* \"CLstaking.sol\":5575:5587  _userAddress */\n      dup5\n        /* \"CLstaking.sol\":5589:5602  _collectionID */\n      dup5\n        /* \"CLstaking.sol\":5603:5611  _tokenID */\n      dup5\n        /* \"CLstaking.sol\":5559:5574  claimableReward */\n      tag_68\n        /* \"CLstaking.sol\":5559:5612  claimableReward(_userAddress, _collectionID,_tokenID) */\n      jump\t// in\n    tag_314:\n        /* \"CLstaking.sol\":5631:5650  rewardsTokenAddress */\n      sload(0x03)\n        /* \"CLstaking.sol\":5622:5682  Mintable(rewardsTokenAddress).mint(msg.sender,payableAmount) */\n      mload(0x40)\n      shl(0xe0, 0x40c10f19)\n      dup2\n      mstore\n        /* \"CLstaking.sol\":5657:5667  msg.sender */\n      caller\n        /* \"CLstaking.sol\":5622:5682  Mintable(rewardsTokenAddress).mint(msg.sender,payableAmount) */\n      0x04\n      dup3\n      add\n        /* \"#utility.yul\":7345:7396   */\n      mstore\n        /* \"#utility.yul\":7412:7430   */\n      0x24\n      dup2\n      add\n        /* \"#utility.yul\":7405:7439   */\n      dup4\n      swap1\n      mstore\n        /* \"CLstaking.sol\":5535:5612  uint256 payableAmount = claimableReward(_userAddress, _collectionID,_tokenID) */\n      swap2\n      swap3\n      pop\n      sub(shl(0xa0, 0x01), 0x01)\n        /* \"CLstaking.sol\":5631:5650  rewardsTokenAddress */\n      and\n      swap1\n        /* \"CLstaking.sol\":5622:5656  Mintable(rewardsTokenAddress).mint */\n      0x40c10f19\n      swap1\n        /* \"#utility.yul\":7318:7336   */\n      0x44\n      add\n        /* \"CLstaking.sol\":5622:5682  Mintable(rewardsTokenAddress).mint(msg.sender,payableAmount) */\n      0x00\n      mload(0x40)\n      dup1\n      dup4\n      sub\n      dup2\n      0x00\n      dup8\n      dup1\n      extcodesize\n      iszero\n      dup1\n      iszero\n      tag_317\n      jumpi\n      0x00\n      dup1\n      revert\n    tag_317:\n      pop\n      gas\n      call\n      iszero\n      dup1\n      iszero\n      tag_319\n      jumpi\n      returndatasize\n      0x00\n      dup1\n      returndatacopy\n      revert(0x00, returndatasize)\n    tag_319:\n      pop\n      pop\n      pop\n      pop\n        /* \"CLstaking.sol\":5525:5689  {... */\n      pop\n        /* \"CLstaking.sol\":5432:5689  function _claimReward(address _userAddress, uint256 _collectionID,uint256 _tokenID) internal {... */\n      pop\n      pop\n      pop\n      jump\t// out\n        /* \"CLstaking.sol\":6959:7267  function _removeElement(uint256[] storage _array, uint256 _element) internal {... */\n    tag_273:\n        /* \"CLstaking.sol\":7052:7061  uint256 i */\n      0x00\n        /* \"CLstaking.sol\":7047:7261  for (uint256 i; i < _array.length; i++) {... */\n    tag_321:\n        /* \"CLstaking.sol\":7067:7080  _array.length */\n      dup3\n      sload\n        /* \"CLstaking.sol\":7063:7080  i < _array.length */\n      dup2\n      lt\n        /* \"CLstaking.sol\":7047:7261  for (uint256 i; i < _array.length; i++) {... */\n      iszero\n      tag_134\n      jumpi\n        /* \"CLstaking.sol\":7118:7126  _element */\n      dup2\n        /* \"CLstaking.sol\":7105:7111  _array */\n      dup4\n        /* \"CLstaking.sol\":7112:7113  i */\n      dup3\n        /* \"CLstaking.sol\":7105:7114  _array[i] */\n      dup2\n      sload\n      dup2\n      lt\n      tag_325\n      jumpi\n      tag_325\n      tag_139\n      jump\t// in\n    tag_325:\n      swap1\n      0x00\n      mstore\n      keccak256(0x00, 0x20)\n      add\n      sload\n        /* \"CLstaking.sol\":7105:7126  _array[i] == _element */\n      sub\n        /* \"CLstaking.sol\":7101:7251  if (_array[i] == _element) {... */\n      tag_327\n      jumpi\n        /* \"CLstaking.sol\":7165:7178  _array.length */\n      dup3\n      sload\n        /* \"CLstaking.sol\":7158:7164  _array */\n      dup4\n      swap1\n        /* \"CLstaking.sol\":7165:7182  _array.length - 1 */\n      tag_328\n      swap1\n        /* \"CLstaking.sol\":7181:7182  1 */\n      0x01\n      swap1\n        /* \"CLstaking.sol\":7165:7182  _array.length - 1 */\n      tag_178\n      jump\t// in\n    tag_328:\n        /* \"CLstaking.sol\":7158:7183  _array[_array.length - 1] */\n      dup2\n      sload\n      dup2\n      lt\n      tag_330\n      jumpi\n      tag_330\n      tag_139\n      jump\t// in\n    tag_330:\n      swap1\n      0x00\n      mstore\n      keccak256(0x00, 0x20)\n      add\n      sload\n        /* \"CLstaking.sol\":7146:7152  _array */\n      dup4\n        /* \"CLstaking.sol\":7153:7154  i */\n      dup3\n        /* \"CLstaking.sol\":7146:7155  _array[i] */\n      dup2\n      sload\n      dup2\n      lt\n      tag_333\n      jumpi\n      tag_333\n      tag_139\n      jump\t// in\n    tag_333:\n      swap1\n      0x00\n      mstore\n      keccak256(0x00, 0x20)\n      add\n        /* \"CLstaking.sol\":7146:7183  _array[i] = _array[_array.length - 1] */\n      dup2\n      swap1\n      sstore\n      pop\n        /* \"CLstaking.sol\":7201:7207  _array */\n      dup3\n        /* \"CLstaking.sol\":7201:7213  _array.pop() */\n      dup1\n      sload\n      dup1\n      tag_336\n      jumpi\n      tag_336\n      tag_337\n      jump\t// in\n    tag_336:\n      0x01\n      swap1\n      sub\n      dup2\n      dup2\n      swap1\n      0x00\n      mstore\n      keccak256(0x00, 0x20)\n      add\n      0x00\n      swap1\n      sstore\n      swap1\n      sstore\n        /* \"CLstaking.sol\":2888:2997  for (uint256 i = 0; i < _tokenIDs.length; ++i) {... */\n      pop\n        /* \"CLstaking.sol\":2796:3003  function batchUnstake(uint256 _collectionID, uint256[] memory _tokenIDs) external {... */\n      pop\n      pop\n      jump\t// out\n        /* \"CLstaking.sol\":7101:7251  if (_array[i] == _element) {... */\n    tag_327:\n        /* \"CLstaking.sol\":7082:7085  i++ */\n      dup1\n      tag_339\n      dup2\n      tag_142\n      jump\t// in\n    tag_339:\n      swap2\n      pop\n      pop\n        /* \"CLstaking.sol\":7047:7261  for (uint256 i; i < _array.length; i++) {... */\n      jump(tag_321)\n        /* \"@openzeppelin/contracts/access/AccessControl.sol\":3718:4210  function _checkRole(bytes32 role, address account) internal view virtual {... */\n    tag_294:\n        /* \"@openzeppelin/contracts/access/AccessControl.sol\":3806:3828  hasRole(role, account) */\n      tag_341\n        /* \"@openzeppelin/contracts/access/AccessControl.sol\":3814:3818  role */\n      dup3\n        /* \"@openzeppelin/contracts/access/AccessControl.sol\":3820:3827  account */\n      dup3\n        /* \"@openzeppelin/contracts/access/AccessControl.sol\":3806:3813  hasRole */\n      tag_107\n        /* \"@openzeppelin/contracts/access/AccessControl.sol\":3806:3828  hasRole(role, account) */\n      jump\t// in\n    tag_341:\n        /* \"@openzeppelin/contracts/access/AccessControl.sol\":3801:4204  if (!hasRole(role, account)) {... */\n      tag_187\n      jumpi\n        /* \"@openzeppelin/contracts/access/AccessControl.sol\":3989:4030  Strings.toHexString(uint160(account), 20) */\n      tag_343\n        /* \"@openzeppelin/contracts/access/AccessControl.sol\":4017:4024  account */\n      dup2\n      sub(shl(0xa0, 0x01), 0x01)\n        /* \"@openzeppelin/contracts/access/AccessControl.sol\":3989:4030  Strings.toHexString(uint160(account), 20) */\n      and\n        /* \"@openzeppelin/contracts/access/AccessControl.sol\":4027:4029  20 */\n      0x14\n        /* \"@openzeppelin/contracts/access/AccessControl.sol\":3989:4008  Strings.toHexString */\n      tag_344\n        /* \"@openzeppelin/contracts/access/AccessControl.sol\":3989:4030  Strings.toHexString(uint160(account), 20) */\n      jump\t// in\n    tag_343:\n        /* \"@openzeppelin/contracts/access/AccessControl.sol\":4101:4139  Strings.toHexString(uint256(role), 32) */\n      tag_345\n        /* \"@openzeppelin/contracts/access/AccessControl.sol\":4129:4133  role */\n      dup4\n        /* \"@openzeppelin/contracts/access/AccessControl.sol\":4136:4138  32 */\n      0x20\n        /* \"@openzeppelin/contracts/access/AccessControl.sol\":4101:4120  Strings.toHexString */\n      tag_344\n        /* \"@openzeppelin/contracts/access/AccessControl.sol\":4101:4139  Strings.toHexString(uint256(role), 32) */\n      jump\t// in\n    tag_345:\n        /* \"@openzeppelin/contracts/access/AccessControl.sol\":3896:4161  abi.encodePacked(... */\n      add(0x20, mload(0x40))\n      tag_346\n      swap3\n      swap2\n      swap1\n      tag_347\n      jump\t// in\n    tag_346:\n      0x40\n      dup1\n      mload\n      not(0x1f)\n      dup2\n      dup5\n      sub\n      add\n      dup2\n      mstore\n      swap1\n      dup3\n      swap1\n      mstore\n      shl(0xe5, 0x461bcd)\n        /* \"@openzeppelin/contracts/access/AccessControl.sol\":3844:4193  revert(... */\n      dup3\n      mstore\n      tag_185\n      swap2\n      0x04\n      add\n      tag_349\n      jump\t// in\n        /* \"@openzeppelin/contracts/utils/Strings.sol\":1588:2029  function toHexString(uint256 value, uint256 length) internal pure returns (string memory) {... */\n    tag_344:\n        /* \"@openzeppelin/contracts/utils/Strings.sol\":1663:1676  string memory */\n      0x60\n        /* \"@openzeppelin/contracts/utils/Strings.sol\":1688:1707  bytes memory buffer */\n      0x00\n        /* \"@openzeppelin/contracts/utils/Strings.sol\":1720:1730  2 * length */\n      tag_351\n        /* \"@openzeppelin/contracts/utils/Strings.sol\":1724:1730  length */\n      dup4\n        /* \"@openzeppelin/contracts/utils/Strings.sol\":1720:1721  2 */\n      0x02\n        /* \"@openzeppelin/contracts/utils/Strings.sol\":1720:1730  2 * length */\n      tag_304\n      jump\t// in\n    tag_351:\n        /* \"@openzeppelin/contracts/utils/Strings.sol\":1720:1734  2 * length + 2 */\n      tag_352\n      swap1\n        /* \"@openzeppelin/contracts/utils/Strings.sol\":1733:1734  2 */\n      0x02\n        /* \"@openzeppelin/contracts/utils/Strings.sol\":1720:1734  2 * length + 2 */\n      tag_201\n      jump\t// in\n    tag_352:\n        /* \"@openzeppelin/contracts/utils/Strings.sol\":1710:1735  new bytes(2 * length + 2) */\n      0xffffffffffffffff\n      dup2\n      gt\n      iszero\n      tag_354\n      jumpi\n      tag_354\n      tag_355\n      jump\t// in\n    tag_354:\n      mload(0x40)\n      swap1\n      dup1\n      dup3\n      mstore\n      dup1\n      0x1f\n      add\n      not(0x1f)\n      and\n      0x20\n      add\n      dup3\n      add\n      0x40\n      mstore\n      dup1\n      iszero\n      tag_356\n      jumpi\n      0x20\n      dup3\n      add\n      dup2\n      dup1\n      calldatasize\n      dup4\n      calldatacopy\n      add\n      swap1\n      pop\n    tag_356:\n      pop\n        /* \"@openzeppelin/contracts/utils/Strings.sol\":1688:1735  bytes memory buffer = new bytes(2 * length + 2) */\n      swap1\n      pop\n      shl(0xfc, 0x03)\n        /* \"@openzeppelin/contracts/utils/Strings.sol\":1745:1751  buffer */\n      dup2\n        /* \"@openzeppelin/contracts/utils/Strings.sol\":1752:1753  0 */\n      0x00\n        /* \"@openzeppelin/contracts/utils/Strings.sol\":1745:1754  buffer[0] */\n      dup2\n      mload\n      dup2\n      lt\n      tag_358\n      jumpi\n      tag_358\n      tag_139\n      jump\t// in\n    tag_358:\n      0x20\n      add\n      add\n        /* \"@openzeppelin/contracts/utils/Strings.sol\":1745:1760  buffer[0] = \"0\" */\n      swap1\n      not(sub(shl(0xf8, 0x01), 0x01))\n      and\n      swap1\n      dup2\n      0x00\n      byte\n      swap1\n      mstore8\n      pop\n      shl(0xfb, 0x0f)\n        /* \"@openzeppelin/contracts/utils/Strings.sol\":1770:1776  buffer */\n      dup2\n        /* \"@openzeppelin/contracts/utils/Strings.sol\":1777:1778  1 */\n      0x01\n        /* \"@openzeppelin/contracts/utils/Strings.sol\":1770:1779  buffer[1] */\n      dup2\n      mload\n      dup2\n      lt\n      tag_360\n      jumpi\n      tag_360\n      tag_139\n      jump\t// in\n    tag_360:\n      0x20\n      add\n      add\n        /* \"@openzeppelin/contracts/utils/Strings.sol\":1770:1785  buffer[1] = \"x\" */\n      swap1\n      not(sub(shl(0xf8, 0x01), 0x01))\n      and\n      swap1\n      dup2\n      0x00\n      byte\n      swap1\n      mstore8\n      pop\n        /* \"@openzeppelin/contracts/utils/Strings.sol\":1800:1809  uint256 i */\n      0x00\n        /* \"@openzeppelin/contracts/utils/Strings.sol\":1812:1822  2 * length */\n      tag_364\n        /* \"@openzeppelin/contracts/utils/Strings.sol\":1816:1822  length */\n      dup5\n        /* \"@openzeppelin/contracts/utils/Strings.sol\":1812:1813  2 */\n      0x02\n        /* \"@openzeppelin/contracts/utils/Strings.sol\":1812:1822  2 * length */\n      tag_304\n      jump\t// in\n    tag_364:\n        /* \"@openzeppelin/contracts/utils/Strings.sol\":1812:1826  2 * length + 1 */\n      tag_365\n      swap1\n        /* \"@openzeppelin/contracts/utils/Strings.sol\":1825:1826  1 */\n      0x01\n        /* \"@openzeppelin/contracts/utils/Strings.sol\":1812:1826  2 * length + 1 */\n      tag_201\n      jump\t// in\n    tag_365:\n        /* \"@openzeppelin/contracts/utils/Strings.sol\":1800:1826  uint256 i = 2 * length + 1 */\n      swap1\n      pop\n        /* \"@openzeppelin/contracts/utils/Strings.sol\":1795:1927  for (uint256 i = 2 * length + 1; i > 1; --i) {... */\n    tag_361:\n        /* \"@openzeppelin/contracts/utils/Strings.sol\":1832:1833  1 */\n      0x01\n        /* \"@openzeppelin/contracts/utils/Strings.sol\":1828:1829  i */\n      dup2\n        /* \"@openzeppelin/contracts/utils/Strings.sol\":1828:1833  i > 1 */\n      gt\n        /* \"@openzeppelin/contracts/utils/Strings.sol\":1795:1927  for (uint256 i = 2 * length + 1; i > 1; --i) {... */\n      iszero\n      tag_362\n      jumpi\n      shl(0x81, 0x181899199a1a9b1b9c1cb0b131b232b3)\n        /* \"@openzeppelin/contracts/utils/Strings.sol\":1879:1884  value */\n      dup6\n        /* \"@openzeppelin/contracts/utils/Strings.sol\":1887:1890  0xf */\n      0x0f\n        /* \"@openzeppelin/contracts/utils/Strings.sol\":1879:1890  value & 0xf */\n      and\n        /* \"@openzeppelin/contracts/utils/Strings.sol\":1866:1891  _HEX_SYMBOLS[value & 0xf] */\n      0x10\n      dup2\n      lt\n      tag_367\n      jumpi\n      tag_367\n      tag_139\n      jump\t// in\n    tag_367:\n      byte\n      0xf8\n      shl\n        /* \"@openzeppelin/contracts/utils/Strings.sol\":1854:1860  buffer */\n      dup3\n        /* \"@openzeppelin/contracts/utils/Strings.sol\":1861:1862  i */\n      dup3\n        /* \"@openzeppelin/contracts/utils/Strings.sol\":1854:1863  buffer[i] */\n      dup2\n      mload\n      dup2\n      lt\n      tag_369\n      jumpi\n      tag_369\n      tag_139\n      jump\t// in\n    tag_369:\n      0x20\n      add\n      add\n        /* \"@openzeppelin/contracts/utils/Strings.sol\":1854:1891  buffer[i] = _HEX_SYMBOLS[value & 0xf] */\n      swap1\n      not(sub(shl(0xf8, 0x01), 0x01))\n      and\n      swap1\n      dup2\n      0x00\n      byte\n      swap1\n      mstore8\n      pop\n        /* \"@openzeppelin/contracts/utils/Strings.sol\":1915:1916  4 */\n      0x04\n        /* \"@openzeppelin/contracts/utils/Strings.sol\":1905:1916  value >>= 4 */\n      swap5\n      swap1\n      swap5\n      shr\n      swap4\n        /* \"@openzeppelin/contracts/utils/Strings.sol\":1835:1838  --i */\n      tag_370\n      dup2\n      tag_371\n      jump\t// in\n    tag_370:\n      swap1\n      pop\n        /* \"@openzeppelin/contracts/utils/Strings.sol\":1795:1927  for (uint256 i = 2 * length + 1; i > 1; --i) {... */\n      jump(tag_361)\n    tag_362:\n      pop\n        /* \"@openzeppelin/contracts/utils/Strings.sol\":1944:1954  value == 0 */\n      dup4\n      iszero\n        /* \"@openzeppelin/contracts/utils/Strings.sol\":1936:1991  require(value == 0, \"Strings: hex length insufficient\") */\n      tag_170\n      jumpi\n      mload(0x40)\n      shl(0xe5, 0x461bcd)\n      dup2\n      mstore\n        /* \"#utility.yul\":11603:11605   */\n      0x20\n        /* \"@openzeppelin/contracts/utils/Strings.sol\":1936:1991  require(value == 0, \"Strings: hex length insufficient\") */\n      0x04\n      dup3\n      add\n        /* \"#utility.yul\":11585:11606   */\n      dup2\n      swap1\n      mstore\n        /* \"#utility.yul\":11622:11640   */\n      0x24\n      dup3\n      add\n        /* \"#utility.yul\":11615:11645   */\n      mstore\n        /* \"#utility.yul\":11681:11715   */\n      0x537472696e67733a20686578206c656e67746820696e73756666696369656e74\n        /* \"#utility.yul\":11661:11679   */\n      0x44\n      dup3\n      add\n        /* \"#utility.yul\":11654:11716   */\n      mstore\n        /* \"#utility.yul\":11733:11751   */\n      0x64\n      add\n        /* \"@openzeppelin/contracts/utils/Strings.sol\":1936:1991  require(value == 0, \"Strings: hex length insufficient\") */\n      tag_185\n        /* \"#utility.yul\":11401:11757   */\n      jump\n        /* \"#utility.yul\":14:141   */\n    tag_355:\n        /* \"#utility.yul\":75:85   */\n      0x4e487b71\n        /* \"#utility.yul\":70:73   */\n      0xe0\n        /* \"#utility.yul\":66:86   */\n      shl\n        /* \"#utility.yul\":63:64   */\n      0x00\n        /* \"#utility.yul\":56:87   */\n      mstore\n        /* \"#utility.yul\":106:110   */\n      0x41\n        /* \"#utility.yul\":103:104   */\n      0x04\n        /* \"#utility.yul\":96:111   */\n      mstore\n        /* \"#utility.yul\":130:134   */\n      0x24\n        /* \"#utility.yul\":127:128   */\n      0x00\n        /* \"#utility.yul\":120:135   */\n      revert\n        /* \"#utility.yul\":146:1329   */\n    tag_34:\n        /* \"#utility.yul\":239:245   */\n      0x00\n        /* \"#utility.yul\":247:253   */\n      dup1\n        /* \"#utility.yul\":300:302   */\n      0x40\n        /* \"#utility.yul\":288:297   */\n      dup4\n        /* \"#utility.yul\":279:286   */\n      dup6\n        /* \"#utility.yul\":275:298   */\n      sub\n        /* \"#utility.yul\":271:303   */\n      slt\n        /* \"#utility.yul\":268:320   */\n      iszero\n      tag_381\n      jumpi\n        /* \"#utility.yul\":316:317   */\n      0x00\n        /* \"#utility.yul\":313:314   */\n      dup1\n        /* \"#utility.yul\":306:318   */\n      revert\n        /* \"#utility.yul\":268:320   */\n    tag_381:\n        /* \"#utility.yul\":352:361   */\n      dup3\n        /* \"#utility.yul\":339:362   */\n      calldataload\n        /* \"#utility.yul\":329:362   */\n      swap2\n      pop\n        /* \"#utility.yul\":381:383   */\n      0x20\n        /* \"#utility.yul\":434:436   */\n      dup1\n        /* \"#utility.yul\":423:432   */\n      dup5\n        /* \"#utility.yul\":419:437   */\n      add\n        /* \"#utility.yul\":406:438   */\n      calldataload\n        /* \"#utility.yul\":457:475   */\n      0xffffffffffffffff\n        /* \"#utility.yul\":498:500   */\n      dup1\n        /* \"#utility.yul\":490:496   */\n      dup3\n        /* \"#utility.yul\":487:501   */\n      gt\n        /* \"#utility.yul\":484:518   */\n      iszero\n      tag_382\n      jumpi\n        /* \"#utility.yul\":514:515   */\n      0x00\n        /* \"#utility.yul\":511:512   */\n      dup1\n        /* \"#utility.yul\":504:516   */\n      revert\n        /* \"#utility.yul\":484:518   */\n    tag_382:\n        /* \"#utility.yul\":552:558   */\n      dup2\n        /* \"#utility.yul\":541:550   */\n      dup7\n        /* \"#utility.yul\":537:559   */\n      add\n        /* \"#utility.yul\":527:559   */\n      swap2\n      pop\n        /* \"#utility.yul\":597:604   */\n      dup7\n        /* \"#utility.yul\":590:594   */\n      0x1f\n        /* \"#utility.yul\":586:588   */\n      dup4\n        /* \"#utility.yul\":582:595   */\n      add\n        /* \"#utility.yul\":578:605   */\n      slt\n        /* \"#utility.yul\":568:623   */\n      tag_383\n      jumpi\n        /* \"#utility.yul\":619:620   */\n      0x00\n        /* \"#utility.yul\":616:617   */\n      dup1\n        /* \"#utility.yul\":609:621   */\n      revert\n        /* \"#utility.yul\":568:623   */\n    tag_383:\n        /* \"#utility.yul\":655:657   */\n      dup2\n        /* \"#utility.yul\":642:658   */\n      calldataload\n        /* \"#utility.yul\":677:679   */\n      dup2\n        /* \"#utility.yul\":673:675   */\n      dup2\n        /* \"#utility.yul\":670:680   */\n      gt\n        /* \"#utility.yul\":667:703   */\n      iszero\n      tag_385\n      jumpi\n        /* \"#utility.yul\":683:701   */\n      tag_385\n      tag_355\n      jump\t// in\n    tag_385:\n        /* \"#utility.yul\":729:731   */\n      dup1\n        /* \"#utility.yul\":726:727   */\n      0x05\n        /* \"#utility.yul\":722:732   */\n      shl\n        /* \"#utility.yul\":761:763   */\n      0x40\n        /* \"#utility.yul\":755:764   */\n      mload\n        /* \"#utility.yul\":824:826   */\n      0x1f\n        /* \"#utility.yul\":820:827   */\n      not\n        /* \"#utility.yul\":815:817   */\n      0x3f\n        /* \"#utility.yul\":811:813   */\n      dup4\n        /* \"#utility.yul\":807:818   */\n      add\n        /* \"#utility.yul\":803:828   */\n      and\n        /* \"#utility.yul\":795:801   */\n      dup2\n        /* \"#utility.yul\":791:829   */\n      add\n        /* \"#utility.yul\":879:885   */\n      dup2\n        /* \"#utility.yul\":867:877   */\n      dup2\n        /* \"#utility.yul\":864:886   */\n      lt\n        /* \"#utility.yul\":859:861   */\n      dup6\n        /* \"#utility.yul\":847:857   */\n      dup3\n        /* \"#utility.yul\":844:862   */\n      gt\n        /* \"#utility.yul\":841:887   */\n      or\n        /* \"#utility.yul\":838:910   */\n      iszero\n      tag_387\n      jumpi\n        /* \"#utility.yul\":890:908   */\n      tag_387\n      tag_355\n      jump\t// in\n    tag_387:\n        /* \"#utility.yul\":926:928   */\n      0x40\n        /* \"#utility.yul\":919:941   */\n      mstore\n        /* \"#utility.yul\":976:994   */\n      swap2\n      dup3\n      mstore\n        /* \"#utility.yul\":1010:1025   */\n      dup5\n      dup3\n      add\n      swap3\n      pop\n        /* \"#utility.yul\":1052:1063   */\n      dup4\n      dup2\n      add\n        /* \"#utility.yul\":1048:1068   */\n      dup6\n      add\n      swap2\n        /* \"#utility.yul\":1080:1099   */\n      dup10\n      dup4\n      gt\n        /* \"#utility.yul\":1077:1116   */\n      iszero\n      tag_388\n      jumpi\n        /* \"#utility.yul\":1112:1113   */\n      0x00\n        /* \"#utility.yul\":1109:1110   */\n      dup1\n        /* \"#utility.yul\":1102:1114   */\n      revert\n        /* \"#utility.yul\":1077:1116   */\n    tag_388:\n        /* \"#utility.yul\":1136:1147   */\n      swap4\n      dup6\n      add\n      swap4\n        /* \"#utility.yul\":1156:1298   */\n    tag_389:\n        /* \"#utility.yul\":1172:1178   */\n      dup3\n        /* \"#utility.yul\":1167:1170   */\n      dup6\n        /* \"#utility.yul\":1164:1179   */\n      lt\n        /* \"#utility.yul\":1156:1298   */\n      iszero\n      tag_391\n      jumpi\n        /* \"#utility.yul\":1238:1255   */\n      dup5\n      calldataload\n        /* \"#utility.yul\":1226:1256   */\n      dup5\n      mstore\n        /* \"#utility.yul\":1189:1201   */\n      swap4\n      dup6\n      add\n      swap4\n        /* \"#utility.yul\":1276:1288   */\n      swap3\n      dup6\n      add\n      swap3\n        /* \"#utility.yul\":1156:1298   */\n      jump(tag_389)\n    tag_391:\n        /* \"#utility.yul\":1317:1323   */\n      dup1\n        /* \"#utility.yul\":1307:1323   */\n      swap7\n      pop\n      pop\n      pop\n      pop\n      pop\n      pop\n      pop\n        /* \"#utility.yul\":146:1329   */\n      swap3\n      pop\n      swap3\n      swap1\n      pop\n      jump\t// out\n        /* \"#utility.yul\":1334:1620   */\n    tag_38:\n        /* \"#utility.yul\":1392:1398   */\n      0x00\n        /* \"#utility.yul\":1445:1447   */\n      0x20\n        /* \"#utility.yul\":1433:1442   */\n      dup3\n        /* \"#utility.yul\":1424:1431   */\n      dup5\n        /* \"#utility.yul\":1420:1443   */\n      sub\n        /* \"#utility.yul\":1416:1448   */\n      slt\n        /* \"#utility.yul\":1413:1465   */\n      iszero\n      tag_393\n      jumpi\n        /* \"#utility.yul\":1461:1462   */\n      0x00\n        /* \"#utility.yul\":1458:1459   */\n      dup1\n        /* \"#utility.yul\":1451:1463   */\n      revert\n        /* \"#utility.yul\":1413:1465   */\n    tag_393:\n        /* \"#utility.yul\":1487:1510   */\n      dup2\n      calldataload\n      not(sub(shl(0xe0, 0x01), 0x01))\n        /* \"#utility.yul\":1539:1571   */\n      dup2\n      and\n        /* \"#utility.yul\":1529:1572   */\n      dup2\n      eq\n        /* \"#utility.yul\":1519:1590   */\n      tag_170\n      jumpi\n        /* \"#utility.yul\":1586:1587   */\n      0x00\n        /* \"#utility.yul\":1583:1584   */\n      dup1\n        /* \"#utility.yul\":1576:1588   */\n      revert\n        /* \"#utility.yul\":1817:1997   */\n    tag_44:\n        /* \"#utility.yul\":1876:1882   */\n      0x00\n        /* \"#utility.yul\":1929:1931   */\n      0x20\n        /* \"#utility.yul\":1917:1926   */\n      dup3\n        /* \"#utility.yul\":1908:1915   */\n      dup5\n        /* \"#utility.yul\":1904:1927   */\n      sub\n        /* \"#utility.yul\":1900:1932   */\n      slt\n        /* \"#utility.yul\":1897:1949   */\n      iszero\n      tag_397\n      jumpi\n        /* \"#utility.yul\":1945:1946   */\n      0x00\n        /* \"#utility.yul\":1942:1943   */\n      dup1\n        /* \"#utility.yul\":1935:1947   */\n      revert\n        /* \"#utility.yul\":1897:1949   */\n    tag_397:\n      pop\n        /* \"#utility.yul\":1968:1991   */\n      calldataload\n      swap2\n        /* \"#utility.yul\":1817:1997   */\n      swap1\n      pop\n      jump\t// out\n        /* \"#utility.yul\":2719:2892   */\n    tag_375:\n        /* \"#utility.yul\":2787:2807   */\n      dup1\n      calldataload\n      sub(shl(0xa0, 0x01), 0x01)\n        /* \"#utility.yul\":2836:2867   */\n      dup2\n      and\n        /* \"#utility.yul\":2826:2868   */\n      dup2\n      eq\n        /* \"#utility.yul\":2816:2886   */\n      tag_403\n      jumpi\n        /* \"#utility.yul\":2882:2883   */\n      0x00\n        /* \"#utility.yul\":2879:2880   */\n      dup1\n        /* \"#utility.yul\":2872:2884   */\n      revert\n        /* \"#utility.yul\":2816:2886   */\n    tag_403:\n        /* \"#utility.yul\":2719:2892   */\n      swap2\n      swap1\n      pop\n      jump\t// out\n        /* \"#utility.yul\":2897:3151   */\n    tag_59:\n        /* \"#utility.yul\":2965:2971   */\n      0x00\n        /* \"#utility.yul\":2973:2979   */\n      dup1\n        /* \"#utility.yul\":3026:3028   */\n      0x40\n        /* \"#utility.yul\":3014:3023   */\n      dup4\n        /* \"#utility.yul\":3005:3012   */\n      dup6\n        /* \"#utility.yul\":3001:3024   */\n      sub\n        /* \"#utility.yul\":2997:3029   */\n      slt\n        /* \"#utility.yul\":2994:3046   */\n      iszero\n      tag_405\n      jumpi\n        /* \"#utility.yul\":3042:3043   */\n      0x00\n        /* \"#utility.yul\":3039:3040   */\n      dup1\n        /* \"#utility.yul\":3032:3044   */\n      revert\n        /* \"#utility.yul\":2994:3046   */\n    tag_405:\n        /* \"#utility.yul\":3065:3094   */\n      tag_406\n        /* \"#utility.yul\":3084:3093   */\n      dup4\n        /* \"#utility.yul\":3065:3094   */\n      tag_375\n      jump\t// in\n    tag_406:\n        /* \"#utility.yul\":3055:3094   */\n      swap5\n        /* \"#utility.yul\":3141:3143   */\n      0x20\n        /* \"#utility.yul\":3126:3144   */\n      swap4\n      swap1\n      swap4\n      add\n        /* \"#utility.yul\":3113:3145   */\n      calldataload\n      swap4\n      pop\n      pop\n      pop\n        /* \"#utility.yul\":2897:3151   */\n      jump\t// out\n        /* \"#utility.yul\":3156:3410   */\n    tag_63:\n        /* \"#utility.yul\":3224:3230   */\n      0x00\n        /* \"#utility.yul\":3232:3238   */\n      dup1\n        /* \"#utility.yul\":3285:3287   */\n      0x40\n        /* \"#utility.yul\":3273:3282   */\n      dup4\n        /* \"#utility.yul\":3264:3271   */\n      dup6\n        /* \"#utility.yul\":3260:3283   */\n      sub\n        /* \"#utility.yul\":3256:3288   */\n      slt\n        /* \"#utility.yul\":3253:3305   */\n      iszero\n      tag_408\n      jumpi\n        /* \"#utility.yul\":3301:3302   */\n      0x00\n        /* \"#utility.yul\":3298:3299   */\n      dup1\n        /* \"#utility.yul\":3291:3303   */\n      revert\n        /* \"#utility.yul\":3253:3305   */\n    tag_408:\n        /* \"#utility.yul\":3337:3346   */\n      dup3\n        /* \"#utility.yul\":3324:3347   */\n      calldataload\n        /* \"#utility.yul\":3314:3347   */\n      swap2\n      pop\n        /* \"#utility.yul\":3366:3404   */\n      tag_409\n        /* \"#utility.yul\":3400:3402   */\n      0x20\n        /* \"#utility.yul\":3389:3398   */\n      dup5\n        /* \"#utility.yul\":3385:3403   */\n      add\n        /* \"#utility.yul\":3366:3404   */\n      tag_375\n      jump\t// in\n    tag_409:\n        /* \"#utility.yul\":3356:3404   */\n      swap1\n      pop\n        /* \"#utility.yul\":3156:3410   */\n      swap3\n      pop\n      swap3\n      swap1\n      pop\n      jump\t// out\n        /* \"#utility.yul\":3415:3737   */\n    tag_67:\n        /* \"#utility.yul\":3492:3498   */\n      0x00\n        /* \"#utility.yul\":3500:3506   */\n      dup1\n        /* \"#utility.yul\":3508:3514   */\n      0x00\n        /* \"#utility.yul\":3561:3563   */\n      0x60\n        /* \"#utility.yul\":3549:3558   */\n      dup5\n        /* \"#utility.yul\":3540:3547   */\n      dup7\n        /* \"#utility.yul\":3536:3559   */\n      sub\n        /* \"#utility.yul\":3532:3564   */\n      slt\n        /* \"#utility.yul\":3529:3581   */\n      iszero\n      tag_411\n      jumpi\n        /* \"#utility.yul\":3577:3578   */\n      0x00\n        /* \"#utility.yul\":3574:3575   */\n      dup1\n        /* \"#utility.yul\":3567:3579   */\n      revert\n        /* \"#utility.yul\":3529:3581   */\n    tag_411:\n        /* \"#utility.yul\":3600:3629   */\n      tag_412\n        /* \"#utility.yul\":3619:3628   */\n      dup5\n        /* \"#utility.yul\":3600:3629   */\n      tag_375\n      jump\t// in\n    tag_412:\n        /* \"#utility.yul\":3590:3629   */\n      swap6\n        /* \"#utility.yul\":3676:3678   */\n      0x20\n        /* \"#utility.yul\":3661:3679   */\n      dup6\n      add\n        /* \"#utility.yul\":3648:3680   */\n      calldataload\n      swap6\n      pop\n        /* \"#utility.yul\":3727:3729   */\n      0x40\n        /* \"#utility.yul\":3712:3730   */\n      swap1\n      swap5\n      add\n        /* \"#utility.yul\":3699:3731   */\n      calldataload\n      swap4\n        /* \"#utility.yul\":3415:3737   */\n      swap3\n      pop\n      pop\n      pop\n      jump\t// out\n        /* \"#utility.yul\":3924:4110   */\n    tag_80:\n        /* \"#utility.yul\":3983:3989   */\n      0x00\n        /* \"#utility.yul\":4036:4038   */\n      0x20\n        /* \"#utility.yul\":4024:4033   */\n      dup3\n        /* \"#utility.yul\":4015:4022   */\n      dup5\n        /* \"#utility.yul\":4011:4034   */\n      sub\n        /* \"#utility.yul\":4007:4039   */\n      slt\n        /* \"#utility.yul\":4004:4056   */\n      iszero\n      tag_415\n      jumpi\n        /* \"#utility.yul\":4052:4053   */\n      0x00\n        /* \"#utility.yul\":4049:4050   */\n      dup1\n        /* \"#utility.yul\":4042:4054   */\n      revert\n        /* \"#utility.yul\":4004:4056   */\n    tag_415:\n        /* \"#utility.yul\":4075:4104   */\n      tag_170\n        /* \"#utility.yul\":4094:4103   */\n      dup3\n        /* \"#utility.yul\":4075:4104   */\n      tag_375\n      jump\t// in\n        /* \"#utility.yul\":4115:4363   */\n    tag_91:\n        /* \"#utility.yul\":4183:4189   */\n      0x00\n        /* \"#utility.yul\":4191:4197   */\n      dup1\n        /* \"#utility.yul\":4244:4246   */\n      0x40\n        /* \"#utility.yul\":4232:4241   */\n      dup4\n        /* \"#utility.yul\":4223:4230   */\n      dup6\n        /* \"#utility.yul\":4219:4242   */\n      sub\n        /* \"#utility.yul\":4215:4247   */\n      slt\n        /* \"#utility.yul\":4212:4264   */\n      iszero\n      tag_418\n      jumpi\n        /* \"#utility.yul\":4260:4261   */\n      0x00\n        /* \"#utility.yul\":4257:4258   */\n      dup1\n        /* \"#utility.yul\":4250:4262   */\n      revert\n        /* \"#utility.yul\":4212:4264   */\n    tag_418:\n      pop\n      pop\n        /* \"#utility.yul\":4283:4306   */\n      dup1\n      calldataload\n      swap3\n        /* \"#utility.yul\":4353:4355   */\n      0x20\n        /* \"#utility.yul\":4338:4356   */\n      swap1\n      swap2\n      add\n        /* \"#utility.yul\":4325:4357   */\n      calldataload\n      swap2\n      pop\n        /* \"#utility.yul\":4115:4363   */\n      jump\t// out\n        /* \"#utility.yul\":4368:4690   */\n    tag_95:\n        /* \"#utility.yul\":4445:4451   */\n      0x00\n        /* \"#utility.yul\":4453:4459   */\n      dup1\n        /* \"#utility.yul\":4461:4467   */\n      0x00\n        /* \"#utility.yul\":4514:4516   */\n      0x60\n        /* \"#utility.yul\":4502:4511   */\n      dup5\n        /* \"#utility.yul\":4493:4500   */\n      dup7\n        /* \"#utility.yul\":4489:4512   */\n      sub\n        /* \"#utility.yul\":4485:4517   */\n      slt\n        /* \"#utility.yul\":4482:4534   */\n      iszero\n      tag_420\n      jumpi\n        /* \"#utility.yul\":4530:4531   */\n      0x00\n        /* \"#utility.yul\":4527:4528   */\n      dup1\n        /* \"#utility.yul\":4520:4532   */\n      revert\n        /* \"#utility.yul\":4482:4534   */\n    tag_420:\n        /* \"#utility.yul\":4566:4575   */\n      dup4\n        /* \"#utility.yul\":4553:4576   */\n      calldataload\n        /* \"#utility.yul\":4543:4576   */\n      swap3\n      pop\n        /* \"#utility.yul\":4595:4633   */\n      tag_421\n        /* \"#utility.yul\":4629:4631   */\n      0x20\n        /* \"#utility.yul\":4618:4627   */\n      dup6\n        /* \"#utility.yul\":4614:4632   */\n      add\n        /* \"#utility.yul\":4595:4633   */\n      tag_375\n      jump\t// in\n    tag_421:\n        /* \"#utility.yul\":4585:4633   */\n      swap2\n      pop\n        /* \"#utility.yul\":4680:4682   */\n      0x40\n        /* \"#utility.yul\":4669:4678   */\n      dup5\n        /* \"#utility.yul\":4665:4683   */\n      add\n        /* \"#utility.yul\":4652:4684   */\n      calldataload\n        /* \"#utility.yul\":4642:4684   */\n      swap1\n      pop\n        /* \"#utility.yul\":4368:4690   */\n      swap3\n      pop\n      swap3\n      pop\n      swap3\n      jump\t// out\n        /* \"#utility.yul\":4903:5231   */\n    tag_120:\n        /* \"#utility.yul\":4980:4986   */\n      0x00\n        /* \"#utility.yul\":4988:4994   */\n      dup1\n        /* \"#utility.yul\":4996:5002   */\n      0x00\n        /* \"#utility.yul\":5049:5051   */\n      0x60\n        /* \"#utility.yul\":5037:5046   */\n      dup5\n        /* \"#utility.yul\":5028:5035   */\n      dup7\n        /* \"#utility.yul\":5024:5047   */\n      sub\n        /* \"#utility.yul\":5020:5052   */\n      slt\n        /* \"#utility.yul\":5017:5069   */\n      iszero\n      tag_424\n      jumpi\n        /* \"#utility.yul\":5065:5066   */\n      0x00\n        /* \"#utility.yul\":5062:5063   */\n      dup1\n        /* \"#utility.yul\":5055:5067   */\n      revert\n        /* \"#utility.yul\":5017:5069   */\n    tag_424:\n        /* \"#utility.yul\":5088:5117   */\n      tag_425\n        /* \"#utility.yul\":5107:5116   */\n      dup5\n        /* \"#utility.yul\":5088:5117   */\n      tag_375\n      jump\t// in\n    tag_425:\n        /* \"#utility.yul\":5078:5117   */\n      swap3\n      pop\n        /* \"#utility.yul\":5136:5174   */\n      tag_421\n        /* \"#utility.yul\":5170:5172   */\n      0x20\n        /* \"#utility.yul\":5159:5168   */\n      dup6\n        /* \"#utility.yul\":5155:5173   */\n      add\n        /* \"#utility.yul\":5136:5174   */\n      tag_375\n      jump\t// in\n        /* \"#utility.yul\":5443:6075   */\n    tag_131:\n        /* \"#utility.yul\":5614:5616   */\n      0x20\n        /* \"#utility.yul\":5666:5687   */\n      dup1\n      dup3\n      mstore\n        /* \"#utility.yul\":5736:5749   */\n      dup3\n      mload\n        /* \"#utility.yul\":5639:5657   */\n      dup3\n      dup3\n      add\n        /* \"#utility.yul\":5758:5780   */\n      dup2\n      swap1\n      mstore\n        /* \"#utility.yul\":5585:5589   */\n      0x00\n      swap2\n        /* \"#utility.yul\":5614:5616   */\n      swap1\n        /* \"#utility.yul\":5837:5852   */\n      dup5\n      dup3\n      add\n      swap1\n        /* \"#utility.yul\":5811:5813   */\n      0x40\n        /* \"#utility.yul\":5796:5814   */\n      dup6\n      add\n      swap1\n        /* \"#utility.yul\":5585:5589   */\n      dup5\n        /* \"#utility.yul\":5880:6049   */\n    tag_429:\n        /* \"#utility.yul\":5894:5900   */\n      dup2\n        /* \"#utility.yul\":5891:5892   */\n      dup2\n        /* \"#utility.yul\":5888:5901   */\n      lt\n        /* \"#utility.yul\":5880:6049   */\n      iszero\n      tag_431\n      jumpi\n        /* \"#utility.yul\":5955:5968   */\n      dup4\n      mload\n        /* \"#utility.yul\":5943:5969   */\n      dup4\n      mstore\n        /* \"#utility.yul\":6024:6039   */\n      swap3\n      dup5\n      add\n      swap3\n        /* \"#utility.yul\":5989:6001   */\n      swap2\n      dup5\n      add\n      swap2\n        /* \"#utility.yul\":5916:5917   */\n      0x01\n        /* \"#utility.yul\":5909:5918   */\n      add\n        /* \"#utility.yul\":5880:6049   */\n      jump(tag_429)\n    tag_431:\n      pop\n        /* \"#utility.yul\":6066:6069   */\n      swap1\n      swap7\n        /* \"#utility.yul\":5443:6075   */\n      swap6\n      pop\n      pop\n      pop\n      pop\n      pop\n      pop\n      jump\t// out\n        /* \"#utility.yul\":6080:6207   */\n    tag_139:\n        /* \"#utility.yul\":6141:6151   */\n      0x4e487b71\n        /* \"#utility.yul\":6136:6139   */\n      0xe0\n        /* \"#utility.yul\":6132:6152   */\n      shl\n        /* \"#utility.yul\":6129:6130   */\n      0x00\n        /* \"#utility.yul\":6122:6153   */\n      mstore\n        /* \"#utility.yul\":6172:6176   */\n      0x32\n        /* \"#utility.yul\":6169:6170   */\n      0x04\n        /* \"#utility.yul\":6162:6177   */\n      mstore\n        /* \"#utility.yul\":6196:6200   */\n      0x24\n        /* \"#utility.yul\":6193:6194   */\n      0x00\n        /* \"#utility.yul\":6186:6201   */\n      revert\n        /* \"#utility.yul\":6212:6339   */\n    tag_376:\n        /* \"#utility.yul\":6273:6283   */\n      0x4e487b71\n        /* \"#utility.yul\":6268:6271   */\n      0xe0\n        /* \"#utility.yul\":6264:6284   */\n      shl\n        /* \"#utility.yul\":6261:6262   */\n      0x00\n        /* \"#utility.yul\":6254:6285   */\n      mstore\n        /* \"#utility.yul\":6304:6308   */\n      0x11\n        /* \"#utility.yul\":6301:6302   */\n      0x04\n        /* \"#utility.yul\":6294:6309   */\n      mstore\n        /* \"#utility.yul\":6328:6332   */\n      0x24\n        /* \"#utility.yul\":6325:6326   */\n      0x00\n        /* \"#utility.yul\":6318:6333   */\n      revert\n        /* \"#utility.yul\":6344:6479   */\n    tag_142:\n        /* \"#utility.yul\":6383:6386   */\n      0x00\n        /* \"#utility.yul\":6404:6421   */\n      0x01\n      dup3\n      add\n        /* \"#utility.yul\":6401:6444   */\n      tag_436\n      jumpi\n        /* \"#utility.yul\":6424:6442   */\n      tag_436\n      tag_376\n      jump\t// in\n    tag_436:\n      pop\n        /* \"#utility.yul\":6471:6472   */\n      0x01\n        /* \"#utility.yul\":6460:6473   */\n      add\n      swap1\n        /* \"#utility.yul\":6344:6479   */\n      jump\t// out\n        /* \"#utility.yul\":6484:6609   */\n    tag_178:\n        /* \"#utility.yul\":6524:6528   */\n      0x00\n        /* \"#utility.yul\":6552:6553   */\n      dup3\n        /* \"#utility.yul\":6549:6550   */\n      dup3\n        /* \"#utility.yul\":6546:6554   */\n      lt\n        /* \"#utility.yul\":6543:6577   */\n      iszero\n      tag_439\n      jumpi\n        /* \"#utility.yul\":6557:6575   */\n      tag_439\n      tag_376\n      jump\t// in\n    tag_439:\n      pop\n        /* \"#utility.yul\":6594:6603   */\n      sub\n      swap1\n        /* \"#utility.yul\":6484:6609   */\n      jump\t// out\n        /* \"#utility.yul\":7030:7158   */\n    tag_201:\n        /* \"#utility.yul\":7070:7073   */\n      0x00\n        /* \"#utility.yul\":7101:7102   */\n      dup3\n        /* \"#utility.yul\":7097:7103   */\n      not\n        /* \"#utility.yul\":7094:7095   */\n      dup3\n        /* \"#utility.yul\":7091:7104   */\n      gt\n        /* \"#utility.yul\":7088:7127   */\n      iszero\n      tag_443\n      jumpi\n        /* \"#utility.yul\":7107:7125   */\n      tag_443\n      tag_376\n      jump\t// in\n    tag_443:\n      pop\n        /* \"#utility.yul\":7143:7152   */\n      add\n      swap1\n        /* \"#utility.yul\":7030:7158   */\n      jump\t// out\n        /* \"#utility.yul\":9012:9229   */\n    tag_301:\n        /* \"#utility.yul\":9052:9053   */\n      0x00\n        /* \"#utility.yul\":9078:9079   */\n      dup3\n        /* \"#utility.yul\":9068:9200   */\n      tag_450\n      jumpi\n        /* \"#utility.yul\":9122:9132   */\n      0x4e487b71\n        /* \"#utility.yul\":9117:9120   */\n      0xe0\n        /* \"#utility.yul\":9113:9133   */\n      shl\n        /* \"#utility.yul\":9110:9111   */\n      0x00\n        /* \"#utility.yul\":9103:9134   */\n      mstore\n        /* \"#utility.yul\":9157:9161   */\n      0x12\n        /* \"#utility.yul\":9154:9155   */\n      0x04\n        /* \"#utility.yul\":9147:9162   */\n      mstore\n        /* \"#utility.yul\":9185:9189   */\n      0x24\n        /* \"#utility.yul\":9182:9183   */\n      0x00\n        /* \"#utility.yul\":9175:9190   */\n      revert\n        /* \"#utility.yul\":9068:9200   */\n    tag_450:\n      pop\n        /* \"#utility.yul\":9214:9223   */\n      div\n      swap1\n        /* \"#utility.yul\":9012:9229   */\n      jump\t// out\n        /* \"#utility.yul\":9234:9402   */\n    tag_304:\n        /* \"#utility.yul\":9274:9281   */\n      0x00\n        /* \"#utility.yul\":9340:9341   */\n      dup2\n        /* \"#utility.yul\":9336:9337   */\n      0x00\n        /* \"#utility.yul\":9332:9338   */\n      not\n        /* \"#utility.yul\":9328:9342   */\n      div\n        /* \"#utility.yul\":9325:9326   */\n      dup4\n        /* \"#utility.yul\":9322:9343   */\n      gt\n        /* \"#utility.yul\":9317:9318   */\n      dup3\n        /* \"#utility.yul\":9310:9319   */\n      iszero\n        /* \"#utility.yul\":9303:9320   */\n      iszero\n        /* \"#utility.yul\":9299:9344   */\n      and\n        /* \"#utility.yul\":9296:9367   */\n      iszero\n      tag_453\n      jumpi\n        /* \"#utility.yul\":9347:9365   */\n      tag_453\n      tag_376\n      jump\t// in\n    tag_453:\n      pop\n        /* \"#utility.yul\":9387:9396   */\n      mul\n      swap1\n        /* \"#utility.yul\":9234:9402   */\n      jump\t// out\n        /* \"#utility.yul\":9686:9813   */\n    tag_337:\n        /* \"#utility.yul\":9747:9757   */\n      0x4e487b71\n        /* \"#utility.yul\":9742:9745   */\n      0xe0\n        /* \"#utility.yul\":9738:9758   */\n      shl\n        /* \"#utility.yul\":9735:9736   */\n      0x00\n        /* \"#utility.yul\":9728:9759   */\n      mstore\n        /* \"#utility.yul\":9778:9782   */\n      0x31\n        /* \"#utility.yul\":9775:9776   */\n      0x04\n        /* \"#utility.yul\":9768:9783   */\n      mstore\n        /* \"#utility.yul\":9802:9806   */\n      0x24\n        /* \"#utility.yul\":9799:9800   */\n      0x00\n        /* \"#utility.yul\":9792:9807   */\n      revert\n        /* \"#utility.yul\":9818:10076   */\n    tag_377:\n        /* \"#utility.yul\":9890:9891   */\n      0x00\n        /* \"#utility.yul\":9900:10013   */\n    tag_457:\n        /* \"#utility.yul\":9914:9920   */\n      dup4\n        /* \"#utility.yul\":9911:9912   */\n      dup2\n        /* \"#utility.yul\":9908:9921   */\n      lt\n        /* \"#utility.yul\":9900:10013   */\n      iszero\n      tag_459\n      jumpi\n        /* \"#utility.yul\":9990:10001   */\n      dup2\n      dup2\n      add\n        /* \"#utility.yul\":9984:10002   */\n      mload\n        /* \"#utility.yul\":9971:9982   */\n      dup4\n      dup3\n      add\n        /* \"#utility.yul\":9964:10003   */\n      mstore\n        /* \"#utility.yul\":9936:9938   */\n      0x20\n        /* \"#utility.yul\":9929:9939   */\n      add\n        /* \"#utility.yul\":9900:10013   */\n      jump(tag_457)\n    tag_459:\n        /* \"#utility.yul\":10031:10037   */\n      dup4\n        /* \"#utility.yul\":10028:10029   */\n      dup2\n        /* \"#utility.yul\":10025:10038   */\n      gt\n        /* \"#utility.yul\":10022:10070   */\n      iszero\n      tag_460\n      jumpi\n        /* \"#utility.yul\":10066:10067   */\n      0x00\n        /* \"#utility.yul\":10057:10063   */\n      dup5\n        /* \"#utility.yul\":10052:10055   */\n      dup5\n        /* \"#utility.yul\":10048:10064   */\n      add\n        /* \"#utility.yul\":10041:10068   */\n      mstore\n        /* \"#utility.yul\":10022:10070   */\n    tag_460:\n      pop\n        /* \"#utility.yul\":9818:10076   */\n      pop\n      pop\n      pop\n      jump\t// out\n        /* \"#utility.yul\":10081:10867   */\n    tag_347:\n        /* \"#utility.yul\":10492:10517   */\n      0x416363657373436f6e74726f6c3a206163636f756e7420000000000000000000\n        /* \"#utility.yul\":10487:10490   */\n      dup2\n        /* \"#utility.yul\":10480:10518   */\n      mstore\n        /* \"#utility.yul\":10462:10465   */\n      0x00\n        /* \"#utility.yul\":10547:10553   */\n      dup4\n        /* \"#utility.yul\":10541:10554   */\n      mload\n        /* \"#utility.yul\":10563:10625   */\n      tag_462\n        /* \"#utility.yul\":10618:10624   */\n      dup2\n        /* \"#utility.yul\":10613:10615   */\n      0x17\n        /* \"#utility.yul\":10608:10611   */\n      dup6\n        /* \"#utility.yul\":10604:10616   */\n      add\n        /* \"#utility.yul\":10597:10601   */\n      0x20\n        /* \"#utility.yul\":10589:10595   */\n      dup9\n        /* \"#utility.yul\":10585:10602   */\n      add\n        /* \"#utility.yul\":10563:10625   */\n      tag_377\n      jump\t// in\n    tag_462:\n      shl(0x7d, 0x01034b99036b4b9b9b4b733903937b6329)\n        /* \"#utility.yul\":10684:10686   */\n      0x17\n        /* \"#utility.yul\":10644:10660   */\n      swap2\n      dup5\n      add\n        /* \"#utility.yul\":10676:10687   */\n      swap2\n      dup3\n      add\n        /* \"#utility.yul\":10669:10709   */\n      mstore\n        /* \"#utility.yul\":10734:10747   */\n      dup4\n      mload\n        /* \"#utility.yul\":10756:10819   */\n      tag_463\n        /* \"#utility.yul\":10734:10747   */\n      dup2\n        /* \"#utility.yul\":10805:10807   */\n      0x28\n        /* \"#utility.yul\":10797:10808   */\n      dup5\n      add\n        /* \"#utility.yul\":10790:10794   */\n      0x20\n        /* \"#utility.yul\":10778:10795   */\n      dup9\n      add\n        /* \"#utility.yul\":10756:10819   */\n      tag_377\n      jump\t// in\n    tag_463:\n        /* \"#utility.yul\":10839:10856   */\n      add\n        /* \"#utility.yul\":10858:10860   */\n      0x28\n        /* \"#utility.yul\":10835:10861   */\n      add\n      swap5\n        /* \"#utility.yul\":10081:10867   */\n      swap4\n      pop\n      pop\n      pop\n      pop\n      jump\t// out\n        /* \"#utility.yul\":10872:11255   */\n    tag_349:\n        /* \"#utility.yul\":11021:11023   */\n      0x20\n        /* \"#utility.yul\":11010:11019   */\n      dup2\n        /* \"#utility.yul\":11003:11024   */\n      mstore\n        /* \"#utility.yul\":10984:10988   */\n      0x00\n        /* \"#utility.yul\":11053:11059   */\n      dup3\n        /* \"#utility.yul\":11047:11060   */\n      mload\n        /* \"#utility.yul\":11096:11102   */\n      dup1\n        /* \"#utility.yul\":11091:11093   */\n      0x20\n        /* \"#utility.yul\":11080:11089   */\n      dup5\n        /* \"#utility.yul\":11076:11094   */\n      add\n        /* \"#utility.yul\":11069:11103   */\n      mstore\n        /* \"#utility.yul\":11112:11178   */\n      tag_465\n        /* \"#utility.yul\":11171:11177   */\n      dup2\n        /* \"#utility.yul\":11166:11168   */\n      0x40\n        /* \"#utility.yul\":11155:11164   */\n      dup6\n        /* \"#utility.yul\":11151:11169   */\n      add\n        /* \"#utility.yul\":11146:11148   */\n      0x20\n        /* \"#utility.yul\":11138:11144   */\n      dup8\n        /* \"#utility.yul\":11134:11149   */\n      add\n        /* \"#utility.yul\":11112:11178   */\n      tag_377\n      jump\t// in\n    tag_465:\n        /* \"#utility.yul\":11239:11241   */\n      0x1f\n        /* \"#utility.yul\":11218:11233   */\n      add\n      not(0x1f)\n        /* \"#utility.yul\":11214:11243   */\n      and\n        /* \"#utility.yul\":11199:11244   */\n      swap2\n      swap1\n      swap2\n      add\n        /* \"#utility.yul\":11246:11248   */\n      0x40\n        /* \"#utility.yul\":11195:11249   */\n      add\n      swap3\n        /* \"#utility.yul\":10872:11255   */\n      swap2\n      pop\n      pop\n      jump\t// out\n        /* \"#utility.yul\":11260:11396   */\n    tag_371:\n        /* \"#utility.yul\":11299:11302   */\n      0x00\n        /* \"#utility.yul\":11327:11332   */\n      dup2\n        /* \"#utility.yul\":11317:11356   */\n      tag_468\n      jumpi\n        /* \"#utility.yul\":11336:11354   */\n      tag_468\n      tag_376\n      jump\t// in\n    tag_468:\n      pop\n      not(0x00)\n        /* \"#utility.yul\":11372:11390   */\n      add\n      swap1\n        /* \"#utility.yul\":11260:11396   */\n      jump\t// out\n\n    auxdata: 0xa26469706673582212205cb3e017827c62e7f61a541f68e7321199521a388a5fd7a87af6e79a57038eb264736f6c634300080d0033\n}\n",
				"bytecode": {
					"linkReferences": {},
					"object": "60806040527fdf8b4c520ffe197c5343c6f5aec59570151ef9a492f2c624fd45ddde6135ec426002553480156200003557600080fd5b50604051620018a7380380620018a7833981016040819052620000589162000189565b6200006333620000a1565b600380546001600160a01b0319166001600160a01b0383161790556200008b600033620000f1565b6002546200009a9033620000f1565b50620001bb565b600080546001600160a01b038381166001600160a01b0319831681178455604051919092169283917f8be0079c531659141344cd1fd0a4f28419497f9722a3daafe3b4186f6b6457e09190a35050565b620000fd828262000101565b5050565b60008281526001602090815260408083206001600160a01b038516845290915290205460ff16620000fd5760008281526001602081815260408084206001600160a01b0386168086529252808420805460ff19169093179092559051339285917f2f8788117e7eff1d82e926ec794901d17c78024a50270940304540a733656f0d9190a45050565b6000602082840312156200019c57600080fd5b81516001600160a01b0381168114620001b457600080fd5b9392505050565b6116dc80620001cb6000396000f3fe608060405234801561001057600080fd5b50600436106101725760003560e01c8063715018a6116100de57806391d1485411610097578063d547741f11610071578063d547741f1461033e578063eeafbddc14610351578063f2fde38b14610387578063f93b03bc1461039a57600080fd5b806391d14854146103105780639e2c8a5b14610323578063a217fddf1461033657600080fd5b8063715018a6146102ab57806375b238fc146102b35780637b0472f0146102bc5780637b71e5db146102cf578063842dd90a146102e25780638da5cb5b146102f557600080fd5b80632f2ff15d116101305780632f2ff15d14610244578063302f7fea1461025757806336568abe1461026a5780633b552dbd1461027d5780634adc7cfd1461029057806366675aa9146102a357600080fd5b80628afd4e1461017757806301ffc9a71461018c5780630fb4d2e5146101b45780631bbda52b146101ec578063248a9ca3146101ff5780632edb531c14610231575b600080fd5b61018a610185366004611258565b6103ba565b005b61019f61019a366004611322565b6103fe565b60405190151581526020015b60405180910390f35b6101c76101c236600461134c565b610435565b604080516001600160a01b0390941684526020840192909252908201526060016101ab565b61018a6101fa366004611258565b610472565b61022361020d36600461134c565b6000908152600160208190526040909120015490565b6040519081526020016101ab565b61018a61023f366004611381565b6104b1565b61018a6102523660046113ab565b61057e565b6102236102653660046113d7565b6105a4565b61018a6102783660046113ab565b610662565b61022361028b366004611381565b6106e5565b61018a61029e36600461140a565b6107c5565b61018a6107dc565b61018a61084f565b61022360025481565b61018a6102ca366004611425565b6108b5565b61018a6102dd366004611447565b6108bf565b6102236102f036600461134c565b610919565b6000546040516001600160a01b0390911681526020016101ab565b61019f61031e3660046113ab565b61094a565b61018a610331366004611425565b610975565b610223600081565b61018a61034c3660046113ab565b61097f565b61036e61035f36600461147c565b630a85bd0160e11b9392505050565b6040516001600160e01b031990911681526020016101ab565b61018a61039536600461140a565b6109a5565b6103ad6103a8366004611381565b610a70565b6040516101ab91906114a8565b60005b81518110156103f9576103e9838383815181106103dc576103dc6114ec565b6020026020010151610b0f565b6103f281611518565b90506103bd565b505050565b60006001600160e01b03198216637965db0b60e01b148061042f57506301ffc9a760e01b6001600160e01b03198316145b92915050565b6007818154811061044557600080fd5b60009182526020909120600390910201805460018201546002909201546001600160a01b03909116925083565b60005b81518110156103f9576104a183838381518110610494576104946114ec565b6020026020010151610cd0565b6104aa81611518565b9050610475565b6002546104bd81610dc5565b50604080516060810182526001600160a01b03938416815260208101928352600091810182815260078054600181018255935290517fa66cc928b5edb82af9bd49922954155ab7b0942694bea4ce44661d9a8736c688600390930292830180546001600160a01b031916919095161790935590517fa66cc928b5edb82af9bd49922954155ab7b0942694bea4ce44661d9a8736c68982015590517fa66cc928b5edb82af9bd49922954155ab7b0942694bea4ce44661d9a8736c68a90910155565b6000828152600160208190526040909120015461059a81610dc5565b6103f98383610dcf565b600080600784815481106105ba576105ba6114ec565b60009182526020808320600390920290910180546001600160a01b03908116845260058352604080852088865290935291909220549192509081169086161461060757600091505061065b565b80546001600160a01b0316600090815260066020908152604080832086845290915281205460018301549091906106559061064f620151806106498642611531565b90610e3a565b90610e46565b93505050505b9392505050565b6001600160a01b03811633146106d75760405162461bcd60e51b815260206004820152602f60248201527f416363657373436f6e74726f6c3a2063616e206f6e6c792072656e6f756e636560448201526e103937b632b9903337b91039b2b63360891b60648201526084015b60405180910390fd5b6106e18282610e52565b5050565b60008060009050600060078481548110610701576107016114ec565b600091825260208220600390910201546001600160a01b031691505b6001600160a01b038083166000908152600460209081526040808320938a16835292905220548110156107bb576001600160a01b038083166000908152600460209081526040808320938a168352929052908120805483908110610783576107836114ec565b9060005260206000200154905061079b8787836105a4565b6107a59085611548565b93505080806107b390611518565b91505061071d565b5090949350505050565b60006107d081610dc5565b6106e160025483610eb9565b6002546107e881610dc5565b6003546040516340c10f1960e01b8152336004820152600160248201526001600160a01b03909116906340c10f1990604401600060405180830381600087803b15801561083457600080fd5b505af1158015610848573d6000803e3d6000fd5b5050505050565b6000546001600160a01b031633146108a95760405162461bcd60e51b815260206004820181905260248201527f4f776e61626c653a2063616c6c6572206973206e6f7420746865206f776e657260448201526064016106ce565b6108b36000610ec3565b565b6106e18282610cd0565b6002546108cb81610dc5565b6000600785815481106108e0576108e06114ec565b6000918252602090912060039091020180546001600160a01b0319166001600160a01b0395909516949094178455505060019091015550565b6000806007838154811061092f5761092f6114ec565b60009182526020909120600260039092020101549392505050565b60009182526001602090815260408084206001600160a01b0393909316845291905290205460ff1690565b6106e18282610b0f565b6000828152600160208190526040909120015461099b81610dc5565b6103f98383610e52565b6000546001600160a01b031633146109ff5760405162461bcd60e51b815260206004820181905260248201527f4f776e61626c653a2063616c6c6572206973206e6f7420746865206f776e657260448201526064016106ce565b6001600160a01b038116610a645760405162461bcd60e51b815260206004820152602660248201527f4f776e61626c653a206e6577206f776e657220697320746865207a65726f206160448201526564647265737360d01b60648201526084016106ce565b610a6d81610ec3565b50565b6060600060078381548110610a8757610a876114ec565b60009182526020808320600390920290910180546001600160a01b039081168452600483526040808520918916855290835292839020805484518185028101850190955280855291945091830182828015610b0157602002820191906000526020600020905b815481526020019060010190808311610aed575b505050505091505092915050565b600060078381548110610b2457610b246114ec565b60009182526020808320600390920290910180546001600160a01b0390811684526005835260408085208786529093529190922054919250163314610bc15760405162461bcd60e51b815260206004820152602d60248201527f746f6b656e206973206e6f74207374616b6564206f722073656e64657220646f60448201526c195cc81b9bdd081bdddb881a5d609a1b60648201526084016106ce565b610bcc338484610f13565b80546001600160a01b031660009081526004602090815260408083203384529091529020610bfa9083610f8b565b80546001600160a01b039081166000908152600560209081526040808320868452825280832080546001600160a01b03191690558454909316825260068152828220858352905290812081905560028201805460019290610c5c908490611531565b909155505080546040516323b872dd60e01b8152306004820152336024820152604481018490526001600160a01b03909116906323b872dd906064015b600060405180830381600087803b158015610cb357600080fd5b505af1158015610cc7573d6000803e3d6000fd5b50505050505050565b600060078381548110610ce557610ce56114ec565b60009182526020808320600390920290910180546001600160a01b039081168452600583526040808520878652845280852080546001600160a01b0319163390811790915583548316865260068552818620888752855281862042905583549092168552600484528085209185529083528320805460018181018355918552928420909201859055600281018054919450919290610d84908490611548565b909155505080546040516323b872dd60e01b8152336004820152306024820152604481018490526001600160a01b03909116906323b872dd90606401610c99565b610a6d8133611042565b610dd9828261094a565b6106e15760008281526001602081815260408084206001600160a01b0386168086529252808420805460ff19169093179092559051339285917f2f8788117e7eff1d82e926ec794901d17c78024a50270940304540a733656f0d9190a45050565b600061065b8284611560565b600061065b8284611582565b610e5c828261094a565b156106e15760008281526001602090815260408083206001600160a01b0385168085529252808320805460ff1916905551339285917ff6391f5c32d9c69d2a47ea670b442974b53935d1edc7fd64eb21e047a839171b9190a45050565b6106e18282610dcf565b600080546001600160a01b038381166001600160a01b0319831681178455604051919092169283917f8be0079c531659141344cd1fd0a4f28419497f9722a3daafe3b4186f6b6457e09190a35050565b6000610f208484846105a4565b6003546040516340c10f1960e01b8152336004820152602481018390529192506001600160a01b0316906340c10f1990604401600060405180830381600087803b158015610f6d57600080fd5b505af1158015610f81573d6000803e3d6000fd5b5050505050505050565b60005b82548110156103f95781838281548110610faa57610faa6114ec565b9060005260206000200154036110305782548390610fca90600190611531565b81548110610fda57610fda6114ec565b9060005260206000200154838281548110610ff757610ff76114ec565b906000526020600020018190555082805480611015576110156115a1565b60019003818190600052602060002001600090559055505050565b8061103a81611518565b915050610f8e565b61104c828261094a565b6106e157611064816001600160a01b031660146110a6565b61106f8360206110a6565b6040516020016110809291906115e7565b60408051601f198184030181529082905262461bcd60e51b82526106ce9160040161165c565b606060006110b5836002611582565b6110c0906002611548565b67ffffffffffffffff8111156110d8576110d8611242565b6040519080825280601f01601f191660200182016040528015611102576020820181803683370190505b509050600360fc1b8160008151811061111d5761111d6114ec565b60200101906001600160f81b031916908160001a905350600f60fb1b8160018151811061114c5761114c6114ec565b60200101906001600160f81b031916908160001a9053506000611170846002611582565b61117b906001611548565b90505b60018111156111f3576f181899199a1a9b1b9c1cb0b131b232b360811b85600f16601081106111af576111af6114ec565b1a60f81b8282815181106111c5576111c56114ec565b60200101906001600160f81b031916908160001a90535060049490941c936111ec8161168f565b905061117e565b50831561065b5760405162461bcd60e51b815260206004820181905260248201527f537472696e67733a20686578206c656e67746820696e73756666696369656e7460448201526064016106ce565b634e487b7160e01b600052604160045260246000fd5b6000806040838503121561126b57600080fd5b8235915060208084013567ffffffffffffffff8082111561128b57600080fd5b818601915086601f83011261129f57600080fd5b8135818111156112b1576112b1611242565b8060051b604051601f19603f830116810181811085821117156112d6576112d6611242565b6040529182528482019250838101850191898311156112f457600080fd5b938501935b82851015611312578435845293850193928501926112f9565b8096505050505050509250929050565b60006020828403121561133457600080fd5b81356001600160e01b03198116811461065b57600080fd5b60006020828403121561135e57600080fd5b5035919050565b80356001600160a01b038116811461137c57600080fd5b919050565b6000806040838503121561139457600080fd5b61139d83611365565b946020939093013593505050565b600080604083850312156113be57600080fd5b823591506113ce60208401611365565b90509250929050565b6000806000606084860312156113ec57600080fd5b6113f584611365565b95602085013595506040909401359392505050565b60006020828403121561141c57600080fd5b61065b82611365565b6000806040838503121561143857600080fd5b50508035926020909101359150565b60008060006060848603121561145c57600080fd5b8335925061146c60208501611365565b9150604084013590509250925092565b60008060006060848603121561149157600080fd5b61149a84611365565b925061146c60208501611365565b6020808252825182820181905260009190848201906040850190845b818110156114e0578351835292840192918401916001016114c4565b50909695505050505050565b634e487b7160e01b600052603260045260246000fd5b634e487b7160e01b600052601160045260246000fd5b60006001820161152a5761152a611502565b5060010190565b60008282101561154357611543611502565b500390565b6000821982111561155b5761155b611502565b500190565b60008261157d57634e487b7160e01b600052601260045260246000fd5b500490565b600081600019048311821515161561159c5761159c611502565b500290565b634e487b7160e01b600052603160045260246000fd5b60005b838110156115d25781810151838201526020016115ba565b838111156115e1576000848401525b50505050565b7f416363657373436f6e74726f6c3a206163636f756e742000000000000000000081526000835161161f8160178501602088016115b7565b7001034b99036b4b9b9b4b733903937b6329607d1b60179184019182015283516116508160288401602088016115b7565b01602801949350505050565b602081526000825180602084015261167b8160408501602087016115b7565b601f01601f19169190910160400192915050565b60008161169e5761169e611502565b50600019019056fea26469706673582212205cb3e017827c62e7f61a541f68e7321199521a388a5fd7a87af6e79a57038eb264736f6c634300080d0033",
					"opcodes": "PUSH1 0x80 PUSH1 0x40 MSTORE PUSH32 0xDF8B4C520FFE197C5343C6F5AEC59570151EF9A492F2C624FD45DDDE6135EC42 PUSH1 0x2 SSTORE CALLVALUE DUP1 ISZERO PUSH3 0x35 JUMPI PUSH1 0x0 DUP1 REVERT JUMPDEST POP PUSH1 0x40 MLOAD PUSH3 0x18A7 CODESIZE SUB DUP1 PUSH3 0x18A7 DUP4 CODECOPY DUP2 ADD PUSH1 0x40 DUP2 SWAP1 MSTORE PUSH3 0x58 SWAP2 PUSH3 0x189 JUMP JUMPDEST PUSH3 0x63 CALLER PUSH3 0xA1 JUMP JUMPDEST PUSH1 0x3 DUP1 SLOAD PUSH1 0x1 PUSH1 0x1 PUSH1 0xA0 SHL SUB NOT AND PUSH1 0x1 PUSH1 0x1 PUSH1 0xA0 SHL SUB DUP4 AND OR SWAP1 SSTORE PUSH3 0x8B PUSH1 0x0 CALLER PUSH3 0xF1 JUMP JUMPDEST PUSH1 0x2 SLOAD PUSH3 0x9A SWAP1 CALLER PUSH3 0xF1 JUMP JUMPDEST POP PUSH3 0x1BB JUMP JUMPDEST PUSH1 0x0 DUP1 SLOAD PUSH1 0x1 PUSH1 0x1 PUSH1 0xA0 SHL SUB DUP4 DUP2 AND PUSH1 0x1 PUSH1 0x1 PUSH1 0xA0 SHL SUB NOT DUP4 AND DUP2 OR DUP5 SSTORE PUSH1 0x40 MLOAD SWAP2 SWAP1 SWAP3 AND SWAP3 DUP4 SWAP2 PUSH32 0x8BE0079C531659141344CD1FD0A4F28419497F9722A3DAAFE3B4186F6B6457E0 SWAP2 SWAP1 LOG3 POP POP JUMP JUMPDEST PUSH3 0xFD DUP3 DUP3 PUSH3 0x101 JUMP JUMPDEST POP POP JUMP JUMPDEST PUSH1 0x0 DUP3 DUP2 MSTORE PUSH1 0x1 PUSH1 0x20 SWAP1 DUP2 MSTORE PUSH1 0x40 DUP1 DUP4 KECCAK256 PUSH1 0x1 PUSH1 0x1 PUSH1 0xA0 SHL SUB DUP6 AND DUP5 MSTORE SWAP1 SWAP2 MSTORE SWAP1 KECCAK256 SLOAD PUSH1 0xFF AND PUSH3 0xFD JUMPI PUSH1 0x0 DUP3 DUP2 MSTORE PUSH1 0x1 PUSH1 0x20 DUP2 DUP2 MSTORE PUSH1 0x40 DUP1 DUP5 KECCAK256 PUSH1 0x1 PUSH1 0x1 PUSH1 0xA0 SHL SUB DUP7 AND DUP1 DUP7 MSTORE SWAP3 MSTORE DUP1 DUP5 KECCAK256 DUP1 SLOAD PUSH1 0xFF NOT AND SWAP1 SWAP4 OR SWAP1 SWAP3 SSTORE SWAP1 MLOAD CALLER SWAP3 DUP6 SWAP2 PUSH32 0x2F8788117E7EFF1D82E926EC794901D17C78024A50270940304540A733656F0D SWAP2 SWAP1 LOG4 POP POP JUMP JUMPDEST PUSH1 0x0 PUSH1 0x20 DUP3 DUP5 SUB SLT ISZERO PUSH3 0x19C JUMPI PUSH1 0x0 DUP1 REVERT JUMPDEST DUP2 MLOAD PUSH1 0x1 PUSH1 0x1 PUSH1 0xA0 SHL SUB DUP2 AND DUP2 EQ PUSH3 0x1B4 JUMPI PUSH1 0x0 DUP1 REVERT JUMPDEST SWAP4 SWAP3 POP POP POP JUMP JUMPDEST PUSH2 0x16DC DUP1 PUSH3 0x1CB PUSH1 0x0 CODECOPY PUSH1 0x0 RETURN INVALID PUSH1 0x80 PUSH1 0x40 MSTORE CALLVALUE DUP1 ISZERO PUSH2 0x10 JUMPI PUSH1 0x0 DUP1 REVERT JUMPDEST POP PUSH1 0x4 CALLDATASIZE LT PUSH2 0x172 JUMPI PUSH1 0x0 CALLDATALOAD PUSH1 0xE0 SHR DUP1 PUSH4 0x715018A6 GT PUSH2 0xDE JUMPI DUP1 PUSH4 0x91D14854 GT PUSH2 0x97 JUMPI DUP1 PUSH4 0xD547741F GT PUSH2 0x71 JUMPI DUP1 PUSH4 0xD547741F EQ PUSH2 0x33E JUMPI DUP1 PUSH4 0xEEAFBDDC EQ PUSH2 0x351 JUMPI DUP1 PUSH4 0xF2FDE38B EQ PUSH2 0x387 JUMPI DUP1 PUSH4 0xF93B03BC EQ PUSH2 0x39A JUMPI PUSH1 0x0 DUP1 REVERT JUMPDEST DUP1 PUSH4 0x91D14854 EQ PUSH2 0x310 JUMPI DUP1 PUSH4 0x9E2C8A5B EQ PUSH2 0x323 JUMPI DUP1 PUSH4 0xA217FDDF EQ PUSH2 0x336 JUMPI PUSH1 0x0 DUP1 REVERT JUMPDEST DUP1 PUSH4 0x715018A6 EQ PUSH2 0x2AB JUMPI DUP1 PUSH4 0x75B238FC EQ PUSH2 0x2B3 JUMPI DUP1 PUSH4 0x7B0472F0 EQ PUSH2 0x2BC JUMPI DUP1 PUSH4 0x7B71E5DB EQ PUSH2 0x2CF JUMPI DUP1 PUSH4 0x842DD90A EQ PUSH2 0x2E2 JUMPI DUP1 PUSH4 0x8DA5CB5B EQ PUSH2 0x2F5 JUMPI PUSH1 0x0 DUP1 REVERT JUMPDEST DUP1 PUSH4 0x2F2FF15D GT PUSH2 0x130 JUMPI DUP1 PUSH4 0x2F2FF15D EQ PUSH2 0x244 JUMPI DUP1 PUSH4 0x302F7FEA EQ PUSH2 0x257 JUMPI DUP1 PUSH4 0x36568ABE EQ PUSH2 0x26A JUMPI DUP1 PUSH4 0x3B552DBD EQ PUSH2 0x27D JUMPI DUP1 PUSH4 0x4ADC7CFD EQ PUSH2 0x290 JUMPI DUP1 PUSH4 0x66675AA9 EQ PUSH2 0x2A3 JUMPI PUSH1 0x0 DUP1 REVERT JUMPDEST DUP1 PUSH3 0x8AFD4E EQ PUSH2 0x177 JUMPI DUP1 PUSH4 0x1FFC9A7 EQ PUSH2 0x18C JUMPI DUP1 PUSH4 0xFB4D2E5 EQ PUSH2 0x1B4 JUMPI DUP1 PUSH4 0x1BBDA52B EQ PUSH2 0x1EC JUMPI DUP1 PUSH4 0x248A9CA3 EQ PUSH2 0x1FF JUMPI DUP1 PUSH4 0x2EDB531C EQ PUSH2 0x231 JUMPI JUMPDEST PUSH1 0x0 DUP1 REVERT JUMPDEST PUSH2 0x18A PUSH2 0x185 CALLDATASIZE PUSH1 0x4 PUSH2 0x1258 JUMP JUMPDEST PUSH2 0x3BA JUMP JUMPDEST STOP JUMPDEST PUSH2 0x19F PUSH2 0x19A CALLDATASIZE PUSH1 0x4 PUSH2 0x1322 JUMP JUMPDEST PUSH2 0x3FE JUMP JUMPDEST PUSH1 0x40 MLOAD SWAP1 ISZERO ISZERO DUP2 MSTORE PUSH1 0x20 ADD JUMPDEST PUSH1 0x40 MLOAD DUP1 SWAP2 SUB SWAP1 RETURN JUMPDEST PUSH2 0x1C7 PUSH2 0x1C2 CALLDATASIZE PUSH1 0x4 PUSH2 0x134C JUMP JUMPDEST PUSH2 0x435 JUMP JUMPDEST PUSH1 0x40 DUP1 MLOAD PUSH1 0x1 PUSH1 0x1 PUSH1 0xA0 SHL SUB SWAP1 SWAP5 AND DUP5 MSTORE PUSH1 0x20 DUP5 ADD SWAP3 SWAP1 SWAP3 MSTORE SWAP1 DUP3 ADD MSTORE PUSH1 0x60 ADD PUSH2 0x1AB JUMP JUMPDEST PUSH2 0x18A PUSH2 0x1FA CALLDATASIZE PUSH1 0x4 PUSH2 0x1258 JUMP JUMPDEST PUSH2 0x472 JUMP JUMPDEST PUSH2 0x223 PUSH2 0x20D CALLDATASIZE PUSH1 0x4 PUSH2 0x134C JUMP JUMPDEST PUSH1 0x0 SWAP1 DUP2 MSTORE PUSH1 0x1 PUSH1 0x20 DUP2 SWAP1 MSTORE PUSH1 0x40 SWAP1 SWAP2 KECCAK256 ADD SLOAD SWAP1 JUMP JUMPDEST PUSH1 0x40 MLOAD SWAP1 DUP2 MSTORE PUSH1 0x20 ADD PUSH2 0x1AB JUMP JUMPDEST PUSH2 0x18A PUSH2 0x23F CALLDATASIZE PUSH1 0x4 PUSH2 0x1381 JUMP JUMPDEST PUSH2 0x4B1 JUMP JUMPDEST PUSH2 0x18A PUSH2 0x252 CALLDATASIZE PUSH1 0x4 PUSH2 0x13AB JUMP JUMPDEST PUSH2 0x57E JUMP JUMPDEST PUSH2 0x223 PUSH2 0x265 CALLDATASIZE PUSH1 0x4 PUSH2 0x13D7 JUMP JUMPDEST PUSH2 0x5A4 JUMP JUMPDEST PUSH2 0x18A PUSH2 0x278 CALLDATASIZE PUSH1 0x4 PUSH2 0x13AB JUMP JUMPDEST PUSH2 0x662 JUMP JUMPDEST PUSH2 0x223 PUSH2 0x28B CALLDATASIZE PUSH1 0x4 PUSH2 0x1381 JUMP JUMPDEST PUSH2 0x6E5 JUMP JUMPDEST PUSH2 0x18A PUSH2 0x29E CALLDATASIZE PUSH1 0x4 PUSH2 0x140A JUMP JUMPDEST PUSH2 0x7C5 JUMP JUMPDEST PUSH2 0x18A PUSH2 0x7DC JUMP JUMPDEST PUSH2 0x18A PUSH2 0x84F JUMP JUMPDEST PUSH2 0x223 PUSH1 0x2 SLOAD DUP2 JUMP JUMPDEST PUSH2 0x18A PUSH2 0x2CA CALLDATASIZE PUSH1 0x4 PUSH2 0x1425 JUMP JUMPDEST PUSH2 0x8B5 JUMP JUMPDEST PUSH2 0x18A PUSH2 0x2DD CALLDATASIZE PUSH1 0x4 PUSH2 0x1447 JUMP JUMPDEST PUSH2 0x8BF JUMP JUMPDEST PUSH2 0x223 PUSH2 0x2F0 CALLDATASIZE PUSH1 0x4 PUSH2 0x134C JUMP JUMPDEST PUSH2 0x919 JUMP JUMPDEST PUSH1 0x0 SLOAD PUSH1 0x40 MLOAD PUSH1 0x1 PUSH1 0x1 PUSH1 0xA0 SHL SUB SWAP1 SWAP2 AND DUP2 MSTORE PUSH1 0x20 ADD PUSH2 0x1AB JUMP JUMPDEST PUSH2 0x19F PUSH2 0x31E CALLDATASIZE PUSH1 0x4 PUSH2 0x13AB JUMP JUMPDEST PUSH2 0x94A JUMP JUMPDEST PUSH2 0x18A PUSH2 0x331 CALLDATASIZE PUSH1 0x4 PUSH2 0x1425 JUMP JUMPDEST PUSH2 0x975 JUMP JUMPDEST PUSH2 0x223 PUSH1 0x0 DUP2 JUMP JUMPDEST PUSH2 0x18A PUSH2 0x34C CALLDATASIZE PUSH1 0x4 PUSH2 0x13AB JUMP JUMPDEST PUSH2 0x97F JUMP JUMPDEST PUSH2 0x36E PUSH2 0x35F CALLDATASIZE PUSH1 0x4 PUSH2 0x147C JUMP JUMPDEST PUSH4 0xA85BD01 PUSH1 0xE1 SHL SWAP4 SWAP3 POP POP POP JUMP JUMPDEST PUSH1 0x40 MLOAD PUSH1 0x1 PUSH1 0x1 PUSH1 0xE0 SHL SUB NOT SWAP1 SWAP2 AND DUP2 MSTORE PUSH1 0x20 ADD PUSH2 0x1AB JUMP JUMPDEST PUSH2 0x18A PUSH2 0x395 CALLDATASIZE PUSH1 0x4 PUSH2 0x140A JUMP JUMPDEST PUSH2 0x9A5 JUMP JUMPDEST PUSH2 0x3AD PUSH2 0x3A8 CALLDATASIZE PUSH1 0x4 PUSH2 0x1381 JUMP JUMPDEST PUSH2 0xA70 JUMP JUMPDEST PUSH1 0x40 MLOAD PUSH2 0x1AB SWAP2 SWAP1 PUSH2 0x14A8 JUMP JUMPDEST PUSH1 0x0 JUMPDEST DUP2 MLOAD DUP2 LT ISZERO PUSH2 0x3F9 JUMPI PUSH2 0x3E9 DUP4 DUP4 DUP4 DUP2 MLOAD DUP2 LT PUSH2 0x3DC JUMPI PUSH2 0x3DC PUSH2 0x14EC JUMP JUMPDEST PUSH1 0x20 MUL PUSH1 0x20 ADD ADD MLOAD PUSH2 0xB0F JUMP JUMPDEST PUSH2 0x3F2 DUP2 PUSH2 0x1518 JUMP JUMPDEST SWAP1 POP PUSH2 0x3BD JUMP JUMPDEST POP POP POP JUMP JUMPDEST PUSH1 0x0 PUSH1 0x1 PUSH1 0x1 PUSH1 0xE0 SHL SUB NOT DUP3 AND PUSH4 0x7965DB0B PUSH1 0xE0 SHL EQ DUP1 PUSH2 0x42F JUMPI POP PUSH4 0x1FFC9A7 PUSH1 0xE0 SHL PUSH1 0x1 PUSH1 0x1 PUSH1 0xE0 SHL SUB NOT DUP4 AND EQ JUMPDEST SWAP3 SWAP2 POP POP JUMP JUMPDEST PUSH1 0x7 DUP2 DUP2 SLOAD DUP2 LT PUSH2 0x445 JUMPI PUSH1 0x0 DUP1 REVERT JUMPDEST PUSH1 0x0 SWAP2 DUP3 MSTORE PUSH1 0x20 SWAP1 SWAP2 KECCAK256 PUSH1 0x3 SWAP1 SWAP2 MUL ADD DUP1 SLOAD PUSH1 0x1 DUP3 ADD SLOAD PUSH1 0x2 SWAP1 SWAP3 ADD SLOAD PUSH1 0x1 PUSH1 0x1 PUSH1 0xA0 SHL SUB SWAP1 SWAP2 AND SWAP3 POP DUP4 JUMP JUMPDEST PUSH1 0x0 JUMPDEST DUP2 MLOAD DUP2 LT ISZERO PUSH2 0x3F9 JUMPI PUSH2 0x4A1 DUP4 DUP4 DUP4 DUP2 MLOAD DUP2 LT PUSH2 0x494 JUMPI PUSH2 0x494 PUSH2 0x14EC JUMP JUMPDEST PUSH1 0x20 MUL PUSH1 0x20 ADD ADD MLOAD PUSH2 0xCD0 JUMP JUMPDEST PUSH2 0x4AA DUP2 PUSH2 0x1518 JUMP JUMPDEST SWAP1 POP PUSH2 0x475 JUMP JUMPDEST PUSH1 0x2 SLOAD PUSH2 0x4BD DUP2 PUSH2 0xDC5 JUMP JUMPDEST POP PUSH1 0x40 DUP1 MLOAD PUSH1 0x60 DUP2 ADD DUP3 MSTORE PUSH1 0x1 PUSH1 0x1 PUSH1 0xA0 SHL SUB SWAP4 DUP5 AND DUP2 MSTORE PUSH1 0x20 DUP2 ADD SWAP3 DUP4 MSTORE PUSH1 0x0 SWAP2 DUP2 ADD DUP3 DUP2 MSTORE PUSH1 0x7 DUP1 SLOAD PUSH1 0x1 DUP2 ADD DUP3 SSTORE SWAP4 MSTORE SWAP1 MLOAD PUSH32 0xA66CC928B5EDB82AF9BD49922954155AB7B0942694BEA4CE44661D9A8736C688 PUSH1 0x3 SWAP1 SWAP4 MUL SWAP3 DUP4 ADD DUP1 SLOAD PUSH1 0x1 PUSH1 0x1 PUSH1 0xA0 SHL SUB NOT AND SWAP2 SWAP1 SWAP6 AND OR SWAP1 SWAP4 SSTORE SWAP1 MLOAD PUSH32 0xA66CC928B5EDB82AF9BD49922954155AB7B0942694BEA4CE44661D9A8736C689 DUP3 ADD SSTORE SWAP1 MLOAD PUSH32 0xA66CC928B5EDB82AF9BD49922954155AB7B0942694BEA4CE44661D9A8736C68A SWAP1 SWAP2 ADD SSTORE JUMP JUMPDEST PUSH1 0x0 DUP3 DUP2 MSTORE PUSH1 0x1 PUSH1 0x20 DUP2 SWAP1 MSTORE PUSH1 0x40 SWAP1 SWAP2 KECCAK256 ADD SLOAD PUSH2 0x59A DUP2 PUSH2 0xDC5 JUMP JUMPDEST PUSH2 0x3F9 DUP4 DUP4 PUSH2 0xDCF JUMP JUMPDEST PUSH1 0x0 DUP1 PUSH1 0x7 DUP5 DUP2 SLOAD DUP2 LT PUSH2 0x5BA JUMPI PUSH2 0x5BA PUSH2 0x14EC JUMP JUMPDEST PUSH1 0x0 SWAP2 DUP3 MSTORE PUSH1 0x20 DUP1 DUP4 KECCAK256 PUSH1 0x3 SWAP1 SWAP3 MUL SWAP1 SWAP2 ADD DUP1 SLOAD PUSH1 0x1 PUSH1 0x1 PUSH1 0xA0 SHL SUB SWAP1 DUP2 AND DUP5 MSTORE PUSH1 0x5 DUP4 MSTORE PUSH1 0x40 DUP1 DUP6 KECCAK256 DUP9 DUP7 MSTORE SWAP1 SWAP4 MSTORE SWAP2 SWAP1 SWAP3 KECCAK256 SLOAD SWAP2 SWAP3 POP SWAP1 DUP2 AND SWAP1 DUP7 AND EQ PUSH2 0x607 JUMPI PUSH1 0x0 SWAP2 POP POP PUSH2 0x65B JUMP JUMPDEST DUP1 SLOAD PUSH1 0x1 PUSH1 0x1 PUSH1 0xA0 SHL SUB AND PUSH1 0x0 SWAP1 DUP2 MSTORE PUSH1 0x6 PUSH1 0x20 SWAP1 DUP2 MSTORE PUSH1 0x40 DUP1 DUP4 KECCAK256 DUP7 DUP5 MSTORE SWAP1 SWAP2 MSTORE DUP2 KECCAK256 SLOAD PUSH1 0x1 DUP4 ADD SLOAD SWAP1 SWAP2 SWAP1 PUSH2 0x655 SWAP1 PUSH2 0x64F PUSH3 0x15180 PUSH2 0x649 DUP7 TIMESTAMP PUSH2 0x1531 JUMP JUMPDEST SWAP1 PUSH2 0xE3A JUMP JUMPDEST SWAP1 PUSH2 0xE46 JUMP JUMPDEST SWAP4 POP POP POP POP JUMPDEST SWAP4 SWAP3 POP POP POP JUMP JUMPDEST PUSH1 0x1 PUSH1 0x1 PUSH1 0xA0 SHL SUB DUP2 AND CALLER EQ PUSH2 0x6D7 JUMPI PUSH1 0x40 MLOAD PUSH3 0x461BCD PUSH1 0xE5 SHL DUP2 MSTORE PUSH1 0x20 PUSH1 0x4 DUP3 ADD MSTORE PUSH1 0x2F PUSH1 0x24 DUP3 ADD MSTORE PUSH32 0x416363657373436F6E74726F6C3A2063616E206F6E6C792072656E6F756E6365 PUSH1 0x44 DUP3 ADD MSTORE PUSH15 0x103937B632B9903337B91039B2B633 PUSH1 0x89 SHL PUSH1 0x64 DUP3 ADD MSTORE PUSH1 0x84 ADD JUMPDEST PUSH1 0x40 MLOAD DUP1 SWAP2 SUB SWAP1 REVERT JUMPDEST PUSH2 0x6E1 DUP3 DUP3 PUSH2 0xE52 JUMP JUMPDEST POP POP JUMP JUMPDEST PUSH1 0x0 DUP1 PUSH1 0x0 SWAP1 POP PUSH1 0x0 PUSH1 0x7 DUP5 DUP2 SLOAD DUP2 LT PUSH2 0x701 JUMPI PUSH2 0x701 PUSH2 0x14EC JUMP JUMPDEST PUSH1 0x0 SWAP2 DUP3 MSTORE PUSH1 0x20 DUP3 KECCAK256 PUSH1 0x3 SWAP1 SWAP2 MUL ADD SLOAD PUSH1 0x1 PUSH1 0x1 PUSH1 0xA0 SHL SUB AND SWAP2 POP JUMPDEST PUSH1 0x1 PUSH1 0x1 PUSH1 0xA0 SHL SUB DUP1 DUP4 AND PUSH1 0x0 SWAP1 DUP2 MSTORE PUSH1 0x4 PUSH1 0x20 SWAP1 DUP2 MSTORE PUSH1 0x40 DUP1 DUP4 KECCAK256 SWAP4 DUP11 AND DUP4 MSTORE SWAP3 SWAP1 MSTORE KECCAK256 SLOAD DUP2 LT ISZERO PUSH2 0x7BB JUMPI PUSH1 0x1 PUSH1 0x1 PUSH1 0xA0 SHL SUB DUP1 DUP4 AND PUSH1 0x0 SWAP1 DUP2 MSTORE PUSH1 0x4 PUSH1 0x20 SWAP1 DUP2 MSTORE PUSH1 0x40 DUP1 DUP4 KECCAK256 SWAP4 DUP11 AND DUP4 MSTORE SWAP3 SWAP1 MSTORE SWAP1 DUP2 KECCAK256 DUP1 SLOAD DUP4 SWAP1 DUP2 LT PUSH2 0x783 JUMPI PUSH2 0x783 PUSH2 0x14EC JUMP JUMPDEST SWAP1 PUSH1 0x0 MSTORE PUSH1 0x20 PUSH1 0x0 KECCAK256 ADD SLOAD SWAP1 POP PUSH2 0x79B DUP8 DUP8 DUP4 PUSH2 0x5A4 JUMP JUMPDEST PUSH2 0x7A5 SWAP1 DUP6 PUSH2 0x1548 JUMP JUMPDEST SWAP4 POP POP DUP1 DUP1 PUSH2 0x7B3 SWAP1 PUSH2 0x1518 JUMP JUMPDEST SWAP2 POP POP PUSH2 0x71D JUMP JUMPDEST POP SWAP1 SWAP5 SWAP4 POP POP POP POP JUMP JUMPDEST PUSH1 0x0 PUSH2 0x7D0 DUP2 PUSH2 0xDC5 JUMP JUMPDEST PUSH2 0x6E1 PUSH1 0x2 SLOAD DUP4 PUSH2 0xEB9 JUMP JUMPDEST PUSH1 0x2 SLOAD PUSH2 0x7E8 DUP2 PUSH2 0xDC5 JUMP JUMPDEST PUSH1 0x3 SLOAD PUSH1 0x40 MLOAD PUSH4 0x40C10F19 PUSH1 0xE0 SHL DUP2 MSTORE CALLER PUSH1 0x4 DUP3 ADD MSTORE PUSH1 0x1 PUSH1 0x24 DUP3 ADD MSTORE PUSH1 0x1 PUSH1 0x1 PUSH1 0xA0 SHL SUB SWAP1 SWAP2 AND SWAP1 PUSH4 0x40C10F19 SWAP1 PUSH1 0x44 ADD PUSH1 0x0 PUSH1 0x40 MLOAD DUP1 DUP4 SUB DUP2 PUSH1 0x0 DUP8 DUP1 EXTCODESIZE ISZERO DUP1 ISZERO PUSH2 0x834 JUMPI PUSH1 0x0 DUP1 REVERT JUMPDEST POP GAS CALL ISZERO DUP1 ISZERO PUSH2 0x848 JUMPI RETURNDATASIZE PUSH1 0x0 DUP1 RETURNDATACOPY RETURNDATASIZE PUSH1 0x0 REVERT JUMPDEST POP POP POP POP POP JUMP JUMPDEST PUSH1 0x0 SLOAD PUSH1 0x1 PUSH1 0x1 PUSH1 0xA0 SHL SUB AND CALLER EQ PUSH2 0x8A9 JUMPI PUSH1 0x40 MLOAD PUSH3 0x461BCD PUSH1 0xE5 SHL DUP2 MSTORE PUSH1 0x20 PUSH1 0x4 DUP3 ADD DUP2 SWAP1 MSTORE PUSH1 0x24 DUP3 ADD MSTORE PUSH32 0x4F776E61626C653A2063616C6C6572206973206E6F7420746865206F776E6572 PUSH1 0x44 DUP3 ADD MSTORE PUSH1 0x64 ADD PUSH2 0x6CE JUMP JUMPDEST PUSH2 0x8B3 PUSH1 0x0 PUSH2 0xEC3 JUMP JUMPDEST JUMP JUMPDEST PUSH2 0x6E1 DUP3 DUP3 PUSH2 0xCD0 JUMP JUMPDEST PUSH1 0x2 SLOAD PUSH2 0x8CB DUP2 PUSH2 0xDC5 JUMP JUMPDEST PUSH1 0x0 PUSH1 0x7 DUP6 DUP2 SLOAD DUP2 LT PUSH2 0x8E0 JUMPI PUSH2 0x8E0 PUSH2 0x14EC JUMP JUMPDEST PUSH1 0x0 SWAP2 DUP3 MSTORE PUSH1 0x20 SWAP1 SWAP2 KECCAK256 PUSH1 0x3 SWAP1 SWAP2 MUL ADD DUP1 SLOAD PUSH1 0x1 PUSH1 0x1 PUSH1 0xA0 SHL SUB NOT AND PUSH1 0x1 PUSH1 0x1 PUSH1 0xA0 SHL SUB SWAP6 SWAP1 SWAP6 AND SWAP5 SWAP1 SWAP5 OR DUP5 SSTORE POP POP PUSH1 0x1 SWAP1 SWAP2 ADD SSTORE POP JUMP JUMPDEST PUSH1 0x0 DUP1 PUSH1 0x7 DUP4 DUP2 SLOAD DUP2 LT PUSH2 0x92F JUMPI PUSH2 0x92F PUSH2 0x14EC JUMP JUMPDEST PUSH1 0x0 SWAP2 DUP3 MSTORE PUSH1 0x20 SWAP1 SWAP2 KECCAK256 PUSH1 0x2 PUSH1 0x3 SWAP1 SWAP3 MUL ADD ADD SLOAD SWAP4 SWAP3 POP POP POP JUMP JUMPDEST PUSH1 0x0 SWAP2 DUP3 MSTORE PUSH1 0x1 PUSH1 0x20 SWAP1 DUP2 MSTORE PUSH1 0x40 DUP1 DUP5 KECCAK256 PUSH1 0x1 PUSH1 0x1 PUSH1 0xA0 SHL SUB SWAP4 SWAP1 SWAP4 AND DUP5 MSTORE SWAP2 SWAP1 MSTORE SWAP1 KECCAK256 SLOAD PUSH1 0xFF AND SWAP1 JUMP JUMPDEST PUSH2 0x6E1 DUP3 DUP3 PUSH2 0xB0F JUMP JUMPDEST PUSH1 0x0 DUP3 DUP2 MSTORE PUSH1 0x1 PUSH1 0x20 DUP2 SWAP1 MSTORE PUSH1 0x40 SWAP1 SWAP2 KECCAK256 ADD SLOAD PUSH2 0x99B DUP2 PUSH2 0xDC5 JUMP JUMPDEST PUSH2 0x3F9 DUP4 DUP4 PUSH2 0xE52 JUMP JUMPDEST PUSH1 0x0 SLOAD PUSH1 0x1 PUSH1 0x1 PUSH1 0xA0 SHL SUB AND CALLER EQ PUSH2 0x9FF JUMPI PUSH1 0x40 MLOAD PUSH3 0x461BCD PUSH1 0xE5 SHL DUP2 MSTORE PUSH1 0x20 PUSH1 0x4 DUP3 ADD DUP2 SWAP1 MSTORE PUSH1 0x24 DUP3 ADD MSTORE PUSH32 0x4F776E61626C653A2063616C6C6572206973206E6F7420746865206F776E6572 PUSH1 0x44 DUP3 ADD MSTORE PUSH1 0x64 ADD PUSH2 0x6CE JUMP JUMPDEST PUSH1 0x1 PUSH1 0x1 PUSH1 0xA0 SHL SUB DUP2 AND PUSH2 0xA64 JUMPI PUSH1 0x40 MLOAD PUSH3 0x461BCD PUSH1 0xE5 SHL DUP2 MSTORE PUSH1 0x20 PUSH1 0x4 DUP3 ADD MSTORE PUSH1 0x26 PUSH1 0x24 DUP3 ADD MSTORE PUSH32 0x4F776E61626C653A206E6577206F776E657220697320746865207A65726F2061 PUSH1 0x44 DUP3 ADD MSTORE PUSH6 0x646472657373 PUSH1 0xD0 SHL PUSH1 0x64 DUP3 ADD MSTORE PUSH1 0x84 ADD PUSH2 0x6CE JUMP JUMPDEST PUSH2 0xA6D DUP2 PUSH2 0xEC3 JUMP JUMPDEST POP JUMP JUMPDEST PUSH1 0x60 PUSH1 0x0 PUSH1 0x7 DUP4 DUP2 SLOAD DUP2 LT PUSH2 0xA87 JUMPI PUSH2 0xA87 PUSH2 0x14EC JUMP JUMPDEST PUSH1 0x0 SWAP2 DUP3 MSTORE PUSH1 0x20 DUP1 DUP4 KECCAK256 PUSH1 0x3 SWAP1 SWAP3 MUL SWAP1 SWAP2 ADD DUP1 SLOAD PUSH1 0x1 PUSH1 0x1 PUSH1 0xA0 SHL SUB SWAP1 DUP2 AND DUP5 MSTORE PUSH1 0x4 DUP4 MSTORE PUSH1 0x40 DUP1 DUP6 KECCAK256 SWAP2 DUP10 AND DUP6 MSTORE SWAP1 DUP4 MSTORE SWAP3 DUP4 SWAP1 KECCAK256 DUP1 SLOAD DUP5 MLOAD DUP2 DUP6 MUL DUP2 ADD DUP6 ADD SWAP1 SWAP6 MSTORE DUP1 DUP6 MSTORE SWAP2 SWAP5 POP SWAP2 DUP4 ADD DUP3 DUP3 DUP1 ISZERO PUSH2 0xB01 JUMPI PUSH1 0x20 MUL DUP3 ADD SWAP2 SWAP1 PUSH1 0x0 MSTORE PUSH1 0x20 PUSH1 0x0 KECCAK256 SWAP1 JUMPDEST DUP2 SLOAD DUP2 MSTORE PUSH1 0x20 ADD SWAP1 PUSH1 0x1 ADD SWAP1 DUP1 DUP4 GT PUSH2 0xAED JUMPI JUMPDEST POP POP POP POP POP SWAP2 POP POP SWAP3 SWAP2 POP POP JUMP JUMPDEST PUSH1 0x0 PUSH1 0x7 DUP4 DUP2 SLOAD DUP2 LT PUSH2 0xB24 JUMPI PUSH2 0xB24 PUSH2 0x14EC JUMP JUMPDEST PUSH1 0x0 SWAP2 DUP3 MSTORE PUSH1 0x20 DUP1 DUP4 KECCAK256 PUSH1 0x3 SWAP1 SWAP3 MUL SWAP1 SWAP2 ADD DUP1 SLOAD PUSH1 0x1 PUSH1 0x1 PUSH1 0xA0 SHL SUB SWAP1 DUP2 AND DUP5 MSTORE PUSH1 0x5 DUP4 MSTORE PUSH1 0x40 DUP1 DUP6 KECCAK256 DUP8 DUP7 MSTORE SWAP1 SWAP4 MSTORE SWAP2 SWAP1 SWAP3 KECCAK256 SLOAD SWAP2 SWAP3 POP AND CALLER EQ PUSH2 0xBC1 JUMPI PUSH1 0x40 MLOAD PUSH3 0x461BCD PUSH1 0xE5 SHL DUP2 MSTORE PUSH1 0x20 PUSH1 0x4 DUP3 ADD MSTORE PUSH1 0x2D PUSH1 0x24 DUP3 ADD MSTORE PUSH32 0x746F6B656E206973206E6F74207374616B6564206F722073656E64657220646F PUSH1 0x44 DUP3 ADD MSTORE PUSH13 0x195CC81B9BDD081BDDDB881A5D PUSH1 0x9A SHL PUSH1 0x64 DUP3 ADD MSTORE PUSH1 0x84 ADD PUSH2 0x6CE JUMP JUMPDEST PUSH2 0xBCC CALLER DUP5 DUP5 PUSH2 0xF13 JUMP JUMPDEST DUP1 SLOAD PUSH1 0x1 PUSH1 0x1 PUSH1 0xA0 SHL SUB AND PUSH1 0x0 SWAP1 DUP2 MSTORE PUSH1 0x4 PUSH1 0x20 SWAP1 DUP2 MSTORE PUSH1 0x40 DUP1 DUP4 KECCAK256 CALLER DUP5 MSTORE SWAP1 SWAP2 MSTORE SWAP1 KECCAK256 PUSH2 0xBFA SWAP1 DUP4 PUSH2 0xF8B JUMP JUMPDEST DUP1 SLOAD PUSH1 0x1 PUSH1 0x1 PUSH1 0xA0 SHL SUB SWAP1 DUP2 AND PUSH1 0x0 SWAP1 DUP2 MSTORE PUSH1 0x5 PUSH1 0x20 SWAP1 DUP2 MSTORE PUSH1 0x40 DUP1 DUP4 KECCAK256 DUP7 DUP5 MSTORE DUP3 MSTORE DUP1 DUP4 KECCAK256 DUP1 SLOAD PUSH1 0x1 PUSH1 0x1 PUSH1 0xA0 SHL SUB NOT AND SWAP1 SSTORE DUP5 SLOAD SWAP1 SWAP4 AND DUP3 MSTORE PUSH1 0x6 DUP2 MSTORE DUP3 DUP3 KECCAK256 DUP6 DUP4 MSTORE SWAP1 MSTORE SWAP1 DUP2 KECCAK256 DUP2 SWAP1 SSTORE PUSH1 0x2 DUP3 ADD DUP1 SLOAD PUSH1 0x1 SWAP3 SWAP1 PUSH2 0xC5C SWAP1 DUP5 SWAP1 PUSH2 0x1531 JUMP JUMPDEST SWAP1 SWAP2 SSTORE POP POP DUP1 SLOAD PUSH1 0x40 MLOAD PUSH4 0x23B872DD PUSH1 0xE0 SHL DUP2 MSTORE ADDRESS PUSH1 0x4 DUP3 ADD MSTORE CALLER PUSH1 0x24 DUP3 ADD MSTORE PUSH1 0x44 DUP2 ADD DUP5 SWAP1 MSTORE PUSH1 0x1 PUSH1 0x1 PUSH1 0xA0 SHL SUB SWAP1 SWAP2 AND SWAP1 PUSH4 0x23B872DD SWAP1 PUSH1 0x64 ADD JUMPDEST PUSH1 0x0 PUSH1 0x40 MLOAD DUP1 DUP4 SUB DUP2 PUSH1 0x0 DUP8 DUP1 EXTCODESIZE ISZERO DUP1 ISZERO PUSH2 0xCB3 JUMPI PUSH1 0x0 DUP1 REVERT JUMPDEST POP GAS CALL ISZERO DUP1 ISZERO PUSH2 0xCC7 JUMPI RETURNDATASIZE PUSH1 0x0 DUP1 RETURNDATACOPY RETURNDATASIZE PUSH1 0x0 REVERT JUMPDEST POP POP POP POP POP POP POP JUMP JUMPDEST PUSH1 0x0 PUSH1 0x7 DUP4 DUP2 SLOAD DUP2 LT PUSH2 0xCE5 JUMPI PUSH2 0xCE5 PUSH2 0x14EC JUMP JUMPDEST PUSH1 0x0 SWAP2 DUP3 MSTORE PUSH1 0x20 DUP1 DUP4 KECCAK256 PUSH1 0x3 SWAP1 SWAP3 MUL SWAP1 SWAP2 ADD DUP1 SLOAD PUSH1 0x1 PUSH1 0x1 PUSH1 0xA0 SHL SUB SWAP1 DUP2 AND DUP5 MSTORE PUSH1 0x5 DUP4 MSTORE PUSH1 0x40 DUP1 DUP6 KECCAK256 DUP8 DUP7 MSTORE DUP5 MSTORE DUP1 DUP6 KECCAK256 DUP1 SLOAD PUSH1 0x1 PUSH1 0x1 PUSH1 0xA0 SHL SUB NOT AND CALLER SWAP1 DUP2 OR SWAP1 SWAP2 SSTORE DUP4 SLOAD DUP4 AND DUP7 MSTORE PUSH1 0x6 DUP6 MSTORE DUP2 DUP7 KECCAK256 DUP9 DUP8 MSTORE DUP6 MSTORE DUP2 DUP7 KECCAK256 TIMESTAMP SWAP1 SSTORE DUP4 SLOAD SWAP1 SWAP3 AND DUP6 MSTORE PUSH1 0x4 DUP5 MSTORE DUP1 DUP6 KECCAK256 SWAP2 DUP6 MSTORE SWAP1 DUP4 MSTORE DUP4 KECCAK256 DUP1 SLOAD PUSH1 0x1 DUP2 DUP2 ADD DUP4 SSTORE SWAP2 DUP6 MSTORE SWAP3 DUP5 KECCAK256 SWAP1 SWAP3 ADD DUP6 SWAP1 SSTORE PUSH1 0x2 DUP2 ADD DUP1 SLOAD SWAP2 SWAP5 POP SWAP2 SWAP3 SWAP1 PUSH2 0xD84 SWAP1 DUP5 SWAP1 PUSH2 0x1548 JUMP JUMPDEST SWAP1 SWAP2 SSTORE POP POP DUP1 SLOAD PUSH1 0x40 MLOAD PUSH4 0x23B872DD PUSH1 0xE0 SHL DUP2 MSTORE CALLER PUSH1 0x4 DUP3 ADD MSTORE ADDRESS PUSH1 0x24 DUP3 ADD MSTORE PUSH1 0x44 DUP2 ADD DUP5 SWAP1 MSTORE PUSH1 0x1 PUSH1 0x1 PUSH1 0xA0 SHL SUB SWAP1 SWAP2 AND SWAP1 PUSH4 0x23B872DD SWAP1 PUSH1 0x64 ADD PUSH2 0xC99 JUMP JUMPDEST PUSH2 0xA6D DUP2 CALLER PUSH2 0x1042 JUMP JUMPDEST PUSH2 0xDD9 DUP3 DUP3 PUSH2 0x94A JUMP JUMPDEST PUSH2 0x6E1 JUMPI PUSH1 0x0 DUP3 DUP2 MSTORE PUSH1 0x1 PUSH1 0x20 DUP2 DUP2 MSTORE PUSH1 0x40 DUP1 DUP5 KECCAK256 PUSH1 0x1 PUSH1 0x1 PUSH1 0xA0 SHL SUB DUP7 AND DUP1 DUP7 MSTORE SWAP3 MSTORE DUP1 DUP5 KECCAK256 DUP1 SLOAD PUSH1 0xFF NOT AND SWAP1 SWAP4 OR SWAP1 SWAP3 SSTORE SWAP1 MLOAD CALLER SWAP3 DUP6 SWAP2 PUSH32 0x2F8788117E7EFF1D82E926EC794901D17C78024A50270940304540A733656F0D SWAP2 SWAP1 LOG4 POP POP JUMP JUMPDEST PUSH1 0x0 PUSH2 0x65B DUP3 DUP5 PUSH2 0x1560 JUMP JUMPDEST PUSH1 0x0 PUSH2 0x65B DUP3 DUP5 PUSH2 0x1582 JUMP JUMPDEST PUSH2 0xE5C DUP3 DUP3 PUSH2 0x94A JUMP JUMPDEST ISZERO PUSH2 0x6E1 JUMPI PUSH1 0x0 DUP3 DUP2 MSTORE PUSH1 0x1 PUSH1 0x20 SWAP1 DUP2 MSTORE PUSH1 0x40 DUP1 DUP4 KECCAK256 PUSH1 0x1 PUSH1 0x1 PUSH1 0xA0 SHL SUB DUP6 AND DUP1 DUP6 MSTORE SWAP3 MSTORE DUP1 DUP4 KECCAK256 DUP1 SLOAD PUSH1 0xFF NOT AND SWAP1 SSTORE MLOAD CALLER SWAP3 DUP6 SWAP2 PUSH32 0xF6391F5C32D9C69D2A47EA670B442974B53935D1EDC7FD64EB21E047A839171B SWAP2 SWAP1 LOG4 POP POP JUMP JUMPDEST PUSH2 0x6E1 DUP3 DUP3 PUSH2 0xDCF JUMP JUMPDEST PUSH1 0x0 DUP1 SLOAD PUSH1 0x1 PUSH1 0x1 PUSH1 0xA0 SHL SUB DUP4 DUP2 AND PUSH1 0x1 PUSH1 0x1 PUSH1 0xA0 SHL SUB NOT DUP4 AND DUP2 OR DUP5 SSTORE PUSH1 0x40 MLOAD SWAP2 SWAP1 SWAP3 AND SWAP3 DUP4 SWAP2 PUSH32 0x8BE0079C531659141344CD1FD0A4F28419497F9722A3DAAFE3B4186F6B6457E0 SWAP2 SWAP1 LOG3 POP POP JUMP JUMPDEST PUSH1 0x0 PUSH2 0xF20 DUP5 DUP5 DUP5 PUSH2 0x5A4 JUMP JUMPDEST PUSH1 0x3 SLOAD PUSH1 0x40 MLOAD PUSH4 0x40C10F19 PUSH1 0xE0 SHL DUP2 MSTORE CALLER PUSH1 0x4 DUP3 ADD MSTORE PUSH1 0x24 DUP2 ADD DUP4 SWAP1 MSTORE SWAP2 SWAP3 POP PUSH1 0x1 PUSH1 0x1 PUSH1 0xA0 SHL SUB AND SWAP1 PUSH4 0x40C10F19 SWAP1 PUSH1 0x44 ADD PUSH1 0x0 PUSH1 0x40 MLOAD DUP1 DUP4 SUB DUP2 PUSH1 0x0 DUP8 DUP1 EXTCODESIZE ISZERO DUP1 ISZERO PUSH2 0xF6D JUMPI PUSH1 0x0 DUP1 REVERT JUMPDEST POP GAS CALL ISZERO DUP1 ISZERO PUSH2 0xF81 JUMPI RETURNDATASIZE PUSH1 0x0 DUP1 RETURNDATACOPY RETURNDATASIZE PUSH1 0x0 REVERT JUMPDEST POP POP POP POP POP POP POP POP JUMP JUMPDEST PUSH1 0x0 JUMPDEST DUP3 SLOAD DUP2 LT ISZERO PUSH2 0x3F9 JUMPI DUP2 DUP4 DUP3 DUP2 SLOAD DUP2 LT PUSH2 0xFAA JUMPI PUSH2 0xFAA PUSH2 0x14EC JUMP JUMPDEST SWAP1 PUSH1 0x0 MSTORE PUSH1 0x20 PUSH1 0x0 KECCAK256 ADD SLOAD SUB PUSH2 0x1030 JUMPI DUP3 SLOAD DUP4 SWAP1 PUSH2 0xFCA SWAP1 PUSH1 0x1 SWAP1 PUSH2 0x1531 JUMP JUMPDEST DUP2 SLOAD DUP2 LT PUSH2 0xFDA JUMPI PUSH2 0xFDA PUSH2 0x14EC JUMP JUMPDEST SWAP1 PUSH1 0x0 MSTORE PUSH1 0x20 PUSH1 0x0 KECCAK256 ADD SLOAD DUP4 DUP3 DUP2 SLOAD DUP2 LT PUSH2 0xFF7 JUMPI PUSH2 0xFF7 PUSH2 0x14EC JUMP JUMPDEST SWAP1 PUSH1 0x0 MSTORE PUSH1 0x20 PUSH1 0x0 KECCAK256 ADD DUP2 SWAP1 SSTORE POP DUP3 DUP1 SLOAD DUP1 PUSH2 0x1015 JUMPI PUSH2 0x1015 PUSH2 0x15A1 JUMP JUMPDEST PUSH1 0x1 SWAP1 SUB DUP2 DUP2 SWAP1 PUSH1 0x0 MSTORE PUSH1 0x20 PUSH1 0x0 KECCAK256 ADD PUSH1 0x0 SWAP1 SSTORE SWAP1 SSTORE POP POP POP JUMP JUMPDEST DUP1 PUSH2 0x103A DUP2 PUSH2 0x1518 JUMP JUMPDEST SWAP2 POP POP PUSH2 0xF8E JUMP JUMPDEST PUSH2 0x104C DUP3 DUP3 PUSH2 0x94A JUMP JUMPDEST PUSH2 0x6E1 JUMPI PUSH2 0x1064 DUP2 PUSH1 0x1 PUSH1 0x1 PUSH1 0xA0 SHL SUB AND PUSH1 0x14 PUSH2 0x10A6 JUMP JUMPDEST PUSH2 0x106F DUP4 PUSH1 0x20 PUSH2 0x10A6 JUMP JUMPDEST PUSH1 0x40 MLOAD PUSH1 0x20 ADD PUSH2 0x1080 SWAP3 SWAP2 SWAP1 PUSH2 0x15E7 JUMP JUMPDEST PUSH1 0x40 DUP1 MLOAD PUSH1 0x1F NOT DUP2 DUP5 SUB ADD DUP2 MSTORE SWAP1 DUP3 SWAP1 MSTORE PUSH3 0x461BCD PUSH1 0xE5 SHL DUP3 MSTORE PUSH2 0x6CE SWAP2 PUSH1 0x4 ADD PUSH2 0x165C JUMP JUMPDEST PUSH1 0x60 PUSH1 0x0 PUSH2 0x10B5 DUP4 PUSH1 0x2 PUSH2 0x1582 JUMP JUMPDEST PUSH2 0x10C0 SWAP1 PUSH1 0x2 PUSH2 0x1548 JUMP JUMPDEST PUSH8 0xFFFFFFFFFFFFFFFF DUP2 GT ISZERO PUSH2 0x10D8 JUMPI PUSH2 0x10D8 PUSH2 0x1242 JUMP JUMPDEST PUSH1 0x40 MLOAD SWAP1 DUP1 DUP3 MSTORE DUP1 PUSH1 0x1F ADD PUSH1 0x1F NOT AND PUSH1 0x20 ADD DUP3 ADD PUSH1 0x40 MSTORE DUP1 ISZERO PUSH2 0x1102 JUMPI PUSH1 0x20 DUP3 ADD DUP2 DUP1 CALLDATASIZE DUP4 CALLDATACOPY ADD SWAP1 POP JUMPDEST POP SWAP1 POP PUSH1 0x3 PUSH1 0xFC SHL DUP2 PUSH1 0x0 DUP2 MLOAD DUP2 LT PUSH2 0x111D JUMPI PUSH2 0x111D PUSH2 0x14EC JUMP JUMPDEST PUSH1 0x20 ADD ADD SWAP1 PUSH1 0x1 PUSH1 0x1 PUSH1 0xF8 SHL SUB NOT AND SWAP1 DUP2 PUSH1 0x0 BYTE SWAP1 MSTORE8 POP PUSH1 0xF PUSH1 0xFB SHL DUP2 PUSH1 0x1 DUP2 MLOAD DUP2 LT PUSH2 0x114C JUMPI PUSH2 0x114C PUSH2 0x14EC JUMP JUMPDEST PUSH1 0x20 ADD ADD SWAP1 PUSH1 0x1 PUSH1 0x1 PUSH1 0xF8 SHL SUB NOT AND SWAP1 DUP2 PUSH1 0x0 BYTE SWAP1 MSTORE8 POP PUSH1 0x0 PUSH2 0x1170 DUP5 PUSH1 0x2 PUSH2 0x1582 JUMP JUMPDEST PUSH2 0x117B SWAP1 PUSH1 0x1 PUSH2 0x1548 JUMP JUMPDEST SWAP1 POP JUMPDEST PUSH1 0x1 DUP2 GT ISZERO PUSH2 0x11F3 JUMPI PUSH16 0x181899199A1A9B1B9C1CB0B131B232B3 PUSH1 0x81 SHL DUP6 PUSH1 0xF AND PUSH1 0x10 DUP2 LT PUSH2 0x11AF JUMPI PUSH2 0x11AF PUSH2 0x14EC JUMP JUMPDEST BYTE PUSH1 0xF8 SHL DUP3 DUP3 DUP2 MLOAD DUP2 LT PUSH2 0x11C5 JUMPI PUSH2 0x11C5 PUSH2 0x14EC JUMP JUMPDEST PUSH1 0x20 ADD ADD SWAP1 PUSH1 0x1 PUSH1 0x1 PUSH1 0xF8 SHL SUB NOT AND SWAP1 DUP2 PUSH1 0x0 BYTE SWAP1 MSTORE8 POP PUSH1 0x4 SWAP5 SWAP1 SWAP5 SHR SWAP4 PUSH2 0x11EC DUP2 PUSH2 0x168F JUMP JUMPDEST SWAP1 POP PUSH2 0x117E JUMP JUMPDEST POP DUP4 ISZERO PUSH2 0x65B JUMPI PUSH1 0x40 MLOAD PUSH3 0x461BCD PUSH1 0xE5 SHL DUP2 MSTORE PUSH1 0x20 PUSH1 0x4 DUP3 ADD DUP2 SWAP1 MSTORE PUSH1 0x24 DUP3 ADD MSTORE PUSH32 0x537472696E67733A20686578206C656E67746820696E73756666696369656E74 PUSH1 0x44 DUP3 ADD MSTORE PUSH1 0x64 ADD PUSH2 0x6CE JUMP JUMPDEST PUSH4 0x4E487B71 PUSH1 0xE0 SHL PUSH1 0x0 MSTORE PUSH1 0x41 PUSH1 0x4 MSTORE PUSH1 0x24 PUSH1 0x0 REVERT JUMPDEST PUSH1 0x0 DUP1 PUSH1 0x40 DUP4 DUP6 SUB SLT ISZERO PUSH2 0x126B JUMPI PUSH1 0x0 DUP1 REVERT JUMPDEST DUP3 CALLDATALOAD SWAP2 POP PUSH1 0x20 DUP1 DUP5 ADD CALLDATALOAD PUSH8 0xFFFFFFFFFFFFFFFF DUP1 DUP3 GT ISZERO PUSH2 0x128B JUMPI PUSH1 0x0 DUP1 REVERT JUMPDEST DUP2 DUP7 ADD SWAP2 POP DUP7 PUSH1 0x1F DUP4 ADD SLT PUSH2 0x129F JUMPI PUSH1 0x0 DUP1 REVERT JUMPDEST DUP2 CALLDATALOAD DUP2 DUP2 GT ISZERO PUSH2 0x12B1 JUMPI PUSH2 0x12B1 PUSH2 0x1242 JUMP JUMPDEST DUP1 PUSH1 0x5 SHL PUSH1 0x40 MLOAD PUSH1 0x1F NOT PUSH1 0x3F DUP4 ADD AND DUP2 ADD DUP2 DUP2 LT DUP6 DUP3 GT OR ISZERO PUSH2 0x12D6 JUMPI PUSH2 0x12D6 PUSH2 0x1242 JUMP JUMPDEST PUSH1 0x40 MSTORE SWAP2 DUP3 MSTORE DUP5 DUP3 ADD SWAP3 POP DUP4 DUP2 ADD DUP6 ADD SWAP2 DUP10 DUP4 GT ISZERO PUSH2 0x12F4 JUMPI PUSH1 0x0 DUP1 REVERT JUMPDEST SWAP4 DUP6 ADD SWAP4 JUMPDEST DUP3 DUP6 LT ISZERO PUSH2 0x1312 JUMPI DUP5 CALLDATALOAD DUP5 MSTORE SWAP4 DUP6 ADD SWAP4 SWAP3 DUP6 ADD SWAP3 PUSH2 0x12F9 JUMP JUMPDEST DUP1 SWAP7 POP POP POP POP POP POP POP SWAP3 POP SWAP3 SWAP1 POP JUMP JUMPDEST PUSH1 0x0 PUSH1 0x20 DUP3 DUP5 SUB SLT ISZERO PUSH2 0x1334 JUMPI PUSH1 0x0 DUP1 REVERT JUMPDEST DUP2 CALLDATALOAD PUSH1 0x1 PUSH1 0x1 PUSH1 0xE0 SHL SUB NOT DUP2 AND DUP2 EQ PUSH2 0x65B JUMPI PUSH1 0x0 DUP1 REVERT JUMPDEST PUSH1 0x0 PUSH1 0x20 DUP3 DUP5 SUB SLT ISZERO PUSH2 0x135E JUMPI PUSH1 0x0 DUP1 REVERT JUMPDEST POP CALLDATALOAD SWAP2 SWAP1 POP JUMP JUMPDEST DUP1 CALLDATALOAD PUSH1 0x1 PUSH1 0x1 PUSH1 0xA0 SHL SUB DUP2 AND DUP2 EQ PUSH2 0x137C JUMPI PUSH1 0x0 DUP1 REVERT JUMPDEST SWAP2 SWAP1 POP JUMP JUMPDEST PUSH1 0x0 DUP1 PUSH1 0x40 DUP4 DUP6 SUB SLT ISZERO PUSH2 0x1394 JUMPI PUSH1 0x0 DUP1 REVERT JUMPDEST PUSH2 0x139D DUP4 PUSH2 0x1365 JUMP JUMPDEST SWAP5 PUSH1 0x20 SWAP4 SWAP1 SWAP4 ADD CALLDATALOAD SWAP4 POP POP POP JUMP JUMPDEST PUSH1 0x0 DUP1 PUSH1 0x40 DUP4 DUP6 SUB SLT ISZERO PUSH2 0x13BE JUMPI PUSH1 0x0 DUP1 REVERT JUMPDEST DUP3 CALLDATALOAD SWAP2 POP PUSH2 0x13CE PUSH1 0x20 DUP5 ADD PUSH2 0x1365 JUMP JUMPDEST SWAP1 POP SWAP3 POP SWAP3 SWAP1 POP JUMP JUMPDEST PUSH1 0x0 DUP1 PUSH1 0x0 PUSH1 0x60 DUP5 DUP7 SUB SLT ISZERO PUSH2 0x13EC JUMPI PUSH1 0x0 DUP1 REVERT JUMPDEST PUSH2 0x13F5 DUP5 PUSH2 0x1365 JUMP JUMPDEST SWAP6 PUSH1 0x20 DUP6 ADD CALLDATALOAD SWAP6 POP PUSH1 0x40 SWAP1 SWAP5 ADD CALLDATALOAD SWAP4 SWAP3 POP POP POP JUMP JUMPDEST PUSH1 0x0 PUSH1 0x20 DUP3 DUP5 SUB SLT ISZERO PUSH2 0x141C JUMPI PUSH1 0x0 DUP1 REVERT JUMPDEST PUSH2 0x65B DUP3 PUSH2 0x1365 JUMP JUMPDEST PUSH1 0x0 DUP1 PUSH1 0x40 DUP4 DUP6 SUB SLT ISZERO PUSH2 0x1438 JUMPI PUSH1 0x0 DUP1 REVERT JUMPDEST POP POP DUP1 CALLDATALOAD SWAP3 PUSH1 0x20 SWAP1 SWAP2 ADD CALLDATALOAD SWAP2 POP JUMP JUMPDEST PUSH1 0x0 DUP1 PUSH1 0x0 PUSH1 0x60 DUP5 DUP7 SUB SLT ISZERO PUSH2 0x145C JUMPI PUSH1 0x0 DUP1 REVERT JUMPDEST DUP4 CALLDATALOAD SWAP3 POP PUSH2 0x146C PUSH1 0x20 DUP6 ADD PUSH2 0x1365 JUMP JUMPDEST SWAP2 POP PUSH1 0x40 DUP5 ADD CALLDATALOAD SWAP1 POP SWAP3 POP SWAP3 POP SWAP3 JUMP JUMPDEST PUSH1 0x0 DUP1 PUSH1 0x0 PUSH1 0x60 DUP5 DUP7 SUB SLT ISZERO PUSH2 0x1491 JUMPI PUSH1 0x0 DUP1 REVERT JUMPDEST PUSH2 0x149A DUP5 PUSH2 0x1365 JUMP JUMPDEST SWAP3 POP PUSH2 0x146C PUSH1 0x20 DUP6 ADD PUSH2 0x1365 JUMP JUMPDEST PUSH1 0x20 DUP1 DUP3 MSTORE DUP3 MLOAD DUP3 DUP3 ADD DUP2 SWAP1 MSTORE PUSH1 0x0 SWAP2 SWAP1 DUP5 DUP3 ADD SWAP1 PUSH1 0x40 DUP6 ADD SWAP1 DUP5 JUMPDEST DUP2 DUP2 LT ISZERO PUSH2 0x14E0 JUMPI DUP4 MLOAD DUP4 MSTORE SWAP3 DUP5 ADD SWAP3 SWAP2 DUP5 ADD SWAP2 PUSH1 0x1 ADD PUSH2 0x14C4 JUMP JUMPDEST POP SWAP1 SWAP7 SWAP6 POP POP POP POP POP POP JUMP JUMPDEST PUSH4 0x4E487B71 PUSH1 0xE0 SHL PUSH1 0x0 MSTORE PUSH1 0x32 PUSH1 0x4 MSTORE PUSH1 0x24 PUSH1 0x0 REVERT JUMPDEST PUSH4 0x4E487B71 PUSH1 0xE0 SHL PUSH1 0x0 MSTORE PUSH1 0x11 PUSH1 0x4 MSTORE PUSH1 0x24 PUSH1 0x0 REVERT JUMPDEST PUSH1 0x0 PUSH1 0x1 DUP3 ADD PUSH2 0x152A JUMPI PUSH2 0x152A PUSH2 0x1502 JUMP JUMPDEST POP PUSH1 0x1 ADD SWAP1 JUMP JUMPDEST PUSH1 0x0 DUP3 DUP3 LT ISZERO PUSH2 0x1543 JUMPI PUSH2 0x1543 PUSH2 0x1502 JUMP JUMPDEST POP SUB SWAP1 JUMP JUMPDEST PUSH1 0x0 DUP3 NOT DUP3 GT ISZERO PUSH2 0x155B JUMPI PUSH2 0x155B PUSH2 0x1502 JUMP JUMPDEST POP ADD SWAP1 JUMP JUMPDEST PUSH1 0x0 DUP3 PUSH2 0x157D JUMPI PUSH4 0x4E487B71 PUSH1 0xE0 SHL PUSH1 0x0 MSTORE PUSH1 0x12 PUSH1 0x4 MSTORE PUSH1 0x24 PUSH1 0x0 REVERT JUMPDEST POP DIV SWAP1 JUMP JUMPDEST PUSH1 0x0 DUP2 PUSH1 0x0 NOT DIV DUP4 GT DUP3 ISZERO ISZERO AND ISZERO PUSH2 0x159C JUMPI PUSH2 0x159C PUSH2 0x1502 JUMP JUMPDEST POP MUL SWAP1 JUMP JUMPDEST PUSH4 0x4E487B71 PUSH1 0xE0 SHL PUSH1 0x0 MSTORE PUSH1 0x31 PUSH1 0x4 MSTORE PUSH1 0x24 PUSH1 0x0 REVERT JUMPDEST PUSH1 0x0 JUMPDEST DUP4 DUP2 LT ISZERO PUSH2 0x15D2 JUMPI DUP2 DUP2 ADD MLOAD DUP4 DUP3 ADD MSTORE PUSH1 0x20 ADD PUSH2 0x15BA JUMP JUMPDEST DUP4 DUP2 GT ISZERO PUSH2 0x15E1 JUMPI PUSH1 0x0 DUP5 DUP5 ADD MSTORE JUMPDEST POP POP POP POP JUMP JUMPDEST PUSH32 0x416363657373436F6E74726F6C3A206163636F756E7420000000000000000000 DUP2 MSTORE PUSH1 0x0 DUP4 MLOAD PUSH2 0x161F DUP2 PUSH1 0x17 DUP6 ADD PUSH1 0x20 DUP9 ADD PUSH2 0x15B7 JUMP JUMPDEST PUSH17 0x1034B99036B4B9B9B4B733903937B6329 PUSH1 0x7D SHL PUSH1 0x17 SWAP2 DUP5 ADD SWAP2 DUP3 ADD MSTORE DUP4 MLOAD PUSH2 0x1650 DUP2 PUSH1 0x28 DUP5 ADD PUSH1 0x20 DUP9 ADD PUSH2 0x15B7 JUMP JUMPDEST ADD PUSH1 0x28 ADD SWAP5 SWAP4 POP POP POP POP JUMP JUMPDEST PUSH1 0x20 DUP2 MSTORE PUSH1 0x0 DUP3 MLOAD DUP1 PUSH1 0x20 DUP5 ADD MSTORE PUSH2 0x167B DUP2 PUSH1 0x40 DUP6 ADD PUSH1 0x20 DUP8 ADD PUSH2 0x15B7 JUMP JUMPDEST PUSH1 0x1F ADD PUSH1 0x1F NOT AND SWAP2 SWAP1 SWAP2 ADD PUSH1 0x40 ADD SWAP3 SWAP2 POP POP JUMP JUMPDEST PUSH1 0x0 DUP2 PUSH2 0x169E JUMPI PUSH2 0x169E PUSH2 0x1502 JUMP JUMPDEST POP PUSH1 0x0 NOT ADD SWAP1 JUMP INVALID LOG2 PUSH5 0x6970667358 0x22 SLT KECCAK256 0x5C 0xB3 0xE0 OR DUP3 PUSH29 0x62E7F61A541F68E7321199521A388A5FD7A87AF6E79A57038EB264736F PUSH13 0x634300080D0033000000000000 "
				},
				"gasEstimates": {
					"creation": {
						"codeDepositCost": "1170400",
						"executionCost": "infinite",
						"totalCost": "infinite"
					},
					"external": {
						"ADMIN_ROLE()": "2340",
						"DEFAULT_ADMIN_ROLE()": "284",
						"batchStake(uint256,uint256[])": "infinite",
						"batchUnstake(uint256,uint256[])": "infinite",
						"claimableReward(address,uint256,uint256)": "infinite",
						"collectionInfo(uint256)": "8968",
						"getRoleAdmin(bytes32)": "2562",
						"getTotalStakedItemsCount(uint256)": "4716",
						"getUserStakedTokens(address,uint256)": "infinite",
						"grantRole(bytes32,address)": "infinite",
						"hasRole(bytes32,address)": "2699",
						"mintTest()": "infinite",
						"onERC721Received(address,address,uint256)": "infinite",
						"owner()": "2434",
						"renounceOwnership()": "28137",
						"renounceRole(bytes32,address)": "29068",
						"revokeRole(bytes32,address)": "infinite",
						"setAdminRole(address)": "infinite",
						"setCollection(address,uint256)": "infinite",
						"stake(uint256,uint256)": "infinite",
						"supportsInterface(bytes4)": "472",
						"totalClaimableReward(address,uint256)": "infinite",
						"transferOwnership(address)": "28397",
						"unstake(uint256,uint256)": "infinite",
						"updateCollection(uint256,address,uint256)": "infinite"
					},
					"internal": {
						"_claimReward(address,uint256,uint256)": "infinite",
						"_removeElement(uint256[] storage pointer,uint256)": "infinite",
						"_stake(uint256,uint256)": "infinite",
						"_unstake(uint256,uint256)": "infinite"
					}
				},
				"methodIdentifiers": {
					"ADMIN_ROLE()": "75b238fc",
					"DEFAULT_ADMIN_ROLE()": "a217fddf",
					"batchStake(uint256,uint256[])": "1bbda52b",
					"batchUnstake(uint256,uint256[])": "008afd4e",
					"claimableReward(address,uint256,uint256)": "302f7fea",
					"collectionInfo(uint256)": "0fb4d2e5",
					"getRoleAdmin(bytes32)": "248a9ca3",
					"getTotalStakedItemsCount(uint256)": "842dd90a",
					"getUserStakedTokens(address,uint256)": "f93b03bc",
					"grantRole(bytes32,address)": "2f2ff15d",
					"hasRole(bytes32,address)": "91d14854",
					"mintTest()": "66675aa9",
					"onERC721Received(address,address,uint256)": "eeafbddc",
					"owner()": "8da5cb5b",
					"renounceOwnership()": "715018a6",
					"renounceRole(bytes32,address)": "36568abe",
					"revokeRole(bytes32,address)": "d547741f",
					"setAdminRole(address)": "4adc7cfd",
					"setCollection(address,uint256)": "2edb531c",
					"stake(uint256,uint256)": "7b0472f0",
					"supportsInterface(bytes4)": "01ffc9a7",
					"totalClaimableReward(address,uint256)": "3b552dbd",
					"transferOwnership(address)": "f2fde38b",
					"unstake(uint256,uint256)": "9e2c8a5b",
					"updateCollection(uint256,address,uint256)": "7b71e5db"
				}
			},
			"storageLayout": {
				"storage": [
					{
						"astId": 400,
						"contract": "CLstaking.sol:CyberlionStaking",
						"label": "_owner",
						"offset": 0,
						"slot": "0",
						"type": "t_address"
					},
					{
						"astId": 24,
						"contract": "CLstaking.sol:CyberlionStaking",
						"label": "_roles",
						"offset": 0,
						"slot": "1",
						"type": "t_mapping(t_bytes32,t_struct(RoleData)19_storage)"
					},
					{
						"astId": 2506,
						"contract": "CLstaking.sol:CyberlionStaking",
						"label": "ADMIN_ROLE",
						"offset": 0,
						"slot": "2",
						"type": "t_bytes32"
					},
					{
						"astId": 2524,
						"contract": "CLstaking.sol:CyberlionStaking",
						"label": "rewardsTokenAddress",
						"offset": 0,
						"slot": "3",
						"type": "t_address"
					},
					{
						"astId": 2538,
						"contract": "CLstaking.sol:CyberlionStaking",
						"label": "addressToStakedTokens",
						"offset": 0,
						"slot": "4",
						"type": "t_mapping(t_address,t_mapping(t_address,t_array(t_uint256)dyn_storage))"
					},
					{
						"astId": 2544,
						"contract": "CLstaking.sol:CyberlionStaking",
						"label": "contractTokenIdToOwner",
						"offset": 0,
						"slot": "5",
						"type": "t_mapping(t_address,t_mapping(t_uint256,t_address))"
					},
					{
						"astId": 2550,
						"contract": "CLstaking.sol:CyberlionStaking",
						"label": "contractTokenIdToStakedTimestamp",
						"offset": 0,
						"slot": "6",
						"type": "t_mapping(t_address,t_mapping(t_uint256,t_uint256))"
					},
					{
						"astId": 2554,
						"contract": "CLstaking.sol:CyberlionStaking",
						"label": "collectionInfo",
						"offset": 0,
						"slot": "7",
						"type": "t_array(t_struct(CollectionInfo)2531_storage)dyn_storage"
					}
				],
				"types": {
					"t_address": {
						"encoding": "inplace",
						"label": "address",
						"numberOfBytes": "20"
					},
					"t_array(t_struct(CollectionInfo)2531_storage)dyn_storage": {
						"base": "t_struct(CollectionInfo)2531_storage",
						"encoding": "dynamic_array",
						"label": "struct CyberlionStaking.CollectionInfo[]",
						"numberOfBytes": "32"
					},
					"t_array(t_uint256)dyn_storage": {
						"base": "t_uint256",
						"encoding": "dynamic_array",
						"label": "uint256[]",
						"numberOfBytes": "32"
					},
					"t_bool": {
						"encoding": "inplace",
						"label": "bool",
						"numberOfBytes": "1"
					},
					"t_bytes32": {
						"encoding": "inplace",
						"label": "bytes32",
						"numberOfBytes": "32"
					},
					"t_mapping(t_address,t_array(t_uint256)dyn_storage)": {
						"encoding": "mapping",
						"key": "t_address",
						"label": "mapping(address => uint256[])",
						"numberOfBytes": "32",
						"value": "t_array(t_uint256)dyn_storage"
					},
					"t_mapping(t_address,t_bool)": {
						"encoding": "mapping",
						"key": "t_address",
						"label": "mapping(address => bool)",
						"numberOfBytes": "32",
						"value": "t_bool"
					},
					"t_mapping(t_address,t_mapping(t_address,t_array(t_uint256)dyn_storage))": {
						"encoding": "mapping",
						"key": "t_address",
						"label": "mapping(address => mapping(address => uint256[]))",
						"numberOfBytes": "32",
						"value": "t_mapping(t_address,t_array(t_uint256)dyn_storage)"
					},
					"t_mapping(t_address,t_mapping(t_uint256,t_address))": {
						"encoding": "mapping",
						"key": "t_address",
						"label": "mapping(address => mapping(uint256 => address))",
						"numberOfBytes": "32",
						"value": "t_mapping(t_uint256,t_address)"
					},
					"t_mapping(t_address,t_mapping(t_uint256,t_uint256))": {
						"encoding": "mapping",
						"key": "t_address",
						"label": "mapping(address => mapping(uint256 => uint256))",
						"numberOfBytes": "32",
						"value": "t_mapping(t_uint256,t_uint256)"
					},
					"t_mapping(t_bytes32,t_struct(RoleData)19_storage)": {
						"encoding": "mapping",
						"key": "t_bytes32",
						"label": "mapping(bytes32 => struct AccessControl.RoleData)",
						"numberOfBytes": "32",
						"value": "t_struct(RoleData)19_storage"
					},
					"t_mapping(t_uint256,t_address)": {
						"encoding": "mapping",
						"key": "t_uint256",
						"label": "mapping(uint256 => address)",
						"numberOfBytes": "32",
						"value": "t_address"
					},
					"t_mapping(t_uint256,t_uint256)": {
						"encoding": "mapping",
						"key": "t_uint256",
						"label": "mapping(uint256 => uint256)",
						"numberOfBytes": "32",
						"value": "t_uint256"
					},
					"t_struct(CollectionInfo)2531_storage": {
						"encoding": "inplace",
						"label": "struct CyberlionStaking.CollectionInfo",
						"members": [
							{
								"astId": 2526,
								"contract": "CLstaking.sol:CyberlionStaking",
								"label": "collectionAddress",
								"offset": 0,
								"slot": "0",
								"type": "t_address"
							},
							{
								"astId": 2528,
								"contract": "CLstaking.sol:CyberlionStaking",
								"label": "rewardPerDay",
								"offset": 0,
								"slot": "1",
								"type": "t_uint256"
							},
							{
								"astId": 2530,
								"contract": "CLstaking.sol:CyberlionStaking",
								"label": "totalAmountStaked",
								"offset": 0,
								"slot": "2",
								"type": "t_uint256"
							}
						],
						"numberOfBytes": "96"
					},
					"t_struct(RoleData)19_storage": {
						"encoding": "inplace",
						"label": "struct AccessControl.RoleData",
						"members": [
							{
								"astId": 16,
								"contract": "CLstaking.sol:CyberlionStaking",
								"label": "members",
								"offset": 0,
								"slot": "0",
								"type": "t_mapping(t_address,t_bool)"
							},
							{
								"astId": 18,
								"contract": "CLstaking.sol:CyberlionStaking",
								"label": "adminRole",
								"offset": 0,
								"slot": "1",
								"type": "t_bytes32"
							}
						],
						"numberOfBytes": "64"
					},
					"t_uint256": {
						"encoding": "inplace",
						"label": "uint256",
						"numberOfBytes": "32"
					}
				}
			},
			"userdoc": {
				"kind": "user",
				"methods": {},
				"version": 1
			}
		}
	}
}