{
	"CLstaking.sol": {
		"CyberlionzStaking": {
			"abi": [
				{
					"inputs": [
						{
							"internalType": "address",
							"name": "_rewardsToken",
							"type": "address"
						}
					],
					"stateMutability": "nonpayable",
					"type": "constructor"
				},
				{
					"anonymous": false,
					"inputs": [
						{
							"indexed": true,
							"internalType": "bytes32",
							"name": "role",
							"type": "bytes32"
						},
						{
							"indexed": true,
							"internalType": "bytes32",
							"name": "previousAdminRole",
							"type": "bytes32"
						},
						{
							"indexed": true,
							"internalType": "bytes32",
							"name": "newAdminRole",
							"type": "bytes32"
						}
					],
					"name": "RoleAdminChanged",
					"type": "event"
				},
				{
					"anonymous": false,
					"inputs": [
						{
							"indexed": true,
							"internalType": "bytes32",
							"name": "role",
							"type": "bytes32"
						},
						{
							"indexed": true,
							"internalType": "address",
							"name": "account",
							"type": "address"
						},
						{
							"indexed": true,
							"internalType": "address",
							"name": "sender",
							"type": "address"
						}
					],
					"name": "RoleGranted",
					"type": "event"
				},
				{
					"anonymous": false,
					"inputs": [
						{
							"indexed": true,
							"internalType": "bytes32",
							"name": "role",
							"type": "bytes32"
						},
						{
							"indexed": true,
							"internalType": "address",
							"name": "account",
							"type": "address"
						},
						{
							"indexed": true,
							"internalType": "address",
							"name": "sender",
							"type": "address"
						}
					],
					"name": "RoleRevoked",
					"type": "event"
				},
				{
					"inputs": [],
					"name": "ADMIN_ROLE",
					"outputs": [
						{
							"internalType": "bytes32",
							"name": "",
							"type": "bytes32"
						}
					],
					"stateMutability": "view",
					"type": "function"
				},
				{
					"inputs": [],
					"name": "DEFAULT_ADMIN_ROLE",
					"outputs": [
						{
							"internalType": "bytes32",
							"name": "",
							"type": "bytes32"
						}
					],
					"stateMutability": "view",
					"type": "function"
				},
				{
					"inputs": [
						{
							"internalType": "uint256",
							"name": "_collectionID",
							"type": "uint256"
						},
						{
							"internalType": "uint256[]",
							"name": "_tokenIDs",
							"type": "uint256[]"
						}
					],
					"name": "batchStake",
					"outputs": [],
					"stateMutability": "nonpayable",
					"type": "function"
				},
				{
					"inputs": [
						{
							"internalType": "uint256",
							"name": "_collectionID",
							"type": "uint256"
						},
						{
							"internalType": "uint256[]",
							"name": "_tokenIDs",
							"type": "uint256[]"
						}
					],
					"name": "batchUnstake",
					"outputs": [],
					"stateMutability": "nonpayable",
					"type": "function"
				},
				{
					"inputs": [
						{
							"internalType": "address",
							"name": "_userAddress",
							"type": "address"
						},
						{
							"internalType": "uint256",
							"name": "_collectionID",
							"type": "uint256"
						},
						{
							"internalType": "uint256",
							"name": "_tokenID",
							"type": "uint256"
						}
					],
					"name": "claimableReward",
					"outputs": [
						{
							"internalType": "uint256",
							"name": "",
							"type": "uint256"
						}
					],
					"stateMutability": "view",
					"type": "function"
				},
				{
					"inputs": [
						{
							"internalType": "uint256",
							"name": "",
							"type": "uint256"
						}
					],
					"name": "collectionInfo",
					"outputs": [
						{
							"internalType": "address",
							"name": "collectionAddress",
							"type": "address"
						},
						{
							"internalType": "uint256",
							"name": "rewardPerDay",
							"type": "uint256"
						},
						{
							"internalType": "uint256",
							"name": "totalAmountStaked",
							"type": "uint256"
						}
					],
					"stateMutability": "view",
					"type": "function"
				},
				{
					"inputs": [
						{
							"internalType": "bytes32",
							"name": "role",
							"type": "bytes32"
						}
					],
					"name": "getRoleAdmin",
					"outputs": [
						{
							"internalType": "bytes32",
							"name": "",
							"type": "bytes32"
						}
					],
					"stateMutability": "view",
					"type": "function"
				},
				{
					"inputs": [
						{
							"internalType": "uint256",
							"name": "_collectionID",
							"type": "uint256"
						}
					],
					"name": "getTotalStakedItemsCount",
					"outputs": [
						{
							"internalType": "uint256",
							"name": "",
							"type": "uint256"
						}
					],
					"stateMutability": "view",
					"type": "function"
				},
				{
					"inputs": [
						{
							"internalType": "address",
							"name": "_userAddress",
							"type": "address"
						},
						{
							"internalType": "uint256",
							"name": "_collectionID",
							"type": "uint256"
						}
					],
					"name": "getUserStakedTokens",
					"outputs": [
						{
							"internalType": "uint256[]",
							"name": "",
							"type": "uint256[]"
						}
					],
					"stateMutability": "view",
					"type": "function"
				},
				{
					"inputs": [
						{
							"internalType": "bytes32",
							"name": "role",
							"type": "bytes32"
						},
						{
							"internalType": "address",
							"name": "account",
							"type": "address"
						}
					],
					"name": "grantRole",
					"outputs": [],
					"stateMutability": "nonpayable",
					"type": "function"
				},
				{
					"inputs": [
						{
							"internalType": "bytes32",
							"name": "role",
							"type": "bytes32"
						},
						{
							"internalType": "address",
							"name": "account",
							"type": "address"
						}
					],
					"name": "hasRole",
					"outputs": [
						{
							"internalType": "bool",
							"name": "",
							"type": "bool"
						}
					],
					"stateMutability": "view",
					"type": "function"
				},
				{
					"inputs": [
						{
							"internalType": "address",
							"name": "",
							"type": "address"
						},
						{
							"internalType": "address",
							"name": "",
							"type": "address"
						},
						{
							"internalType": "uint256",
							"name": "",
							"type": "uint256"
						}
					],
					"name": "onERC721Received",
					"outputs": [
						{
							"internalType": "bytes4",
							"name": "",
							"type": "bytes4"
						}
					],
					"stateMutability": "pure",
					"type": "function"
				},
				{
					"inputs": [
						{
							"internalType": "bytes32",
							"name": "role",
							"type": "bytes32"
						},
						{
							"internalType": "address",
							"name": "account",
							"type": "address"
						}
					],
					"name": "renounceRole",
					"outputs": [],
					"stateMutability": "nonpayable",
					"type": "function"
				},
				{
					"inputs": [
						{
							"internalType": "bytes32",
							"name": "role",
							"type": "bytes32"
						},
						{
							"internalType": "address",
							"name": "account",
							"type": "address"
						}
					],
					"name": "revokeRole",
					"outputs": [],
					"stateMutability": "nonpayable",
					"type": "function"
				},
				{
					"inputs": [
						{
							"internalType": "address",
							"name": "admin",
							"type": "address"
						}
					],
					"name": "setAdminRole",
					"outputs": [],
					"stateMutability": "nonpayable",
					"type": "function"
				},
				{
					"inputs": [
						{
							"internalType": "address",
							"name": "_collectionAddress",
							"type": "address"
						},
						{
							"internalType": "uint256",
							"name": "_rewardPerDay",
							"type": "uint256"
						}
					],
					"name": "setCollection",
					"outputs": [],
					"stateMutability": "nonpayable",
					"type": "function"
				},
				{
					"inputs": [
						{
							"internalType": "uint256",
							"name": "_collectionID",
							"type": "uint256"
						},
						{
							"internalType": "uint256",
							"name": "_tokenID",
							"type": "uint256"
						}
					],
					"name": "stake",
					"outputs": [],
					"stateMutability": "nonpayable",
					"type": "function"
				},
				{
					"inputs": [
						{
							"internalType": "bytes4",
							"name": "interfaceId",
							"type": "bytes4"
						}
					],
					"name": "supportsInterface",
					"outputs": [
						{
							"internalType": "bool",
							"name": "",
							"type": "bool"
						}
					],
					"stateMutability": "view",
					"type": "function"
				},
				{
					"inputs": [
						{
							"internalType": "address",
							"name": "_userAddress",
							"type": "address"
						},
						{
							"internalType": "uint256",
							"name": "_collectionID",
							"type": "uint256"
						}
					],
					"name": "totalClaimableReward",
					"outputs": [
						{
							"internalType": "uint256",
							"name": "",
							"type": "uint256"
						}
					],
					"stateMutability": "view",
					"type": "function"
				},
				{
					"inputs": [
						{
							"internalType": "uint256",
							"name": "_collectionID",
							"type": "uint256"
						},
						{
							"internalType": "uint256",
							"name": "_tokenID",
							"type": "uint256"
						}
					],
					"name": "unstake",
					"outputs": [],
					"stateMutability": "nonpayable",
					"type": "function"
				},
				{
					"inputs": [
						{
							"internalType": "uint256",
							"name": "_collectionID",
							"type": "uint256"
						},
						{
							"internalType": "address",
							"name": "_collectionAddress",
							"type": "address"
						},
						{
							"internalType": "uint256",
							"name": "_rewardPerDay",
							"type": "uint256"
						}
					],
					"name": "updateCollection",
					"outputs": [],
					"stateMutability": "nonpayable",
					"type": "function"
				}
			],
			"devdoc": {
				"kind": "dev",
				"methods": {
					"getRoleAdmin(bytes32)": {
						"details": "Returns the admin role that controls `role`. See {grantRole} and {revokeRole}. To change a role's admin, use {_setRoleAdmin}."
					},
					"grantRole(bytes32,address)": {
						"details": "Grants `role` to `account`. If `account` had not been already granted `role`, emits a {RoleGranted} event. Requirements: - the caller must have ``role``'s admin role."
					},
					"hasRole(bytes32,address)": {
						"details": "Returns `true` if `account` has been granted `role`."
					},
					"renounceRole(bytes32,address)": {
						"details": "Revokes `role` from the calling account. Roles are often managed via {grantRole} and {revokeRole}: this function's purpose is to provide a mechanism for accounts to lose their privileges if they are compromised (such as when a trusted device is misplaced). If the calling account had been revoked `role`, emits a {RoleRevoked} event. Requirements: - the caller must be `account`."
					},
					"revokeRole(bytes32,address)": {
						"details": "Revokes `role` from `account`. If `account` had been granted `role`, emits a {RoleRevoked} event. Requirements: - the caller must have ``role``'s admin role."
					},
					"supportsInterface(bytes4)": {
						"details": "See {IERC165-supportsInterface}."
					}
				},
				"version": 1
			},
			"evm": {
				"assembly": "    /* \"CLstaking.sol\":531:7090  contract CyberlionzStaking is AccessControl {... */\n  mstore(0x40, 0x80)\n    /* \"CLstaking.sol\":609:627  keccak256(\"ADMIN\") */\n  0xdf8b4c520ffe197c5343c6f5aec59570151ef9a492f2c624fd45ddde6135ec42\n    /* \"CLstaking.sol\":581:627  bytes32 public ADMIN_ROLE = keccak256(\"ADMIN\") */\n  0x01\n  sstore\n    /* \"CLstaking.sol\":1252:1435  constructor(address _rewardsToken) {... */\n  callvalue\n  dup1\n  iszero\n  tag_1\n  jumpi\n  0x00\n  dup1\n  revert\ntag_1:\n  pop\n  mload(0x40)\n  sub(codesize, bytecodeSize)\n  dup1\n  bytecodeSize\n  dup4\n  codecopy\n  dup2\n  add\n  0x40\n  dup2\n  swap1\n  mstore\n  tag_2\n  swap2\n  tag_3\n  jump\t// in\ntag_2:\n    /* \"CLstaking.sol\":1297:1316  rewardsTokenAddress */\n  0x02\n    /* \"CLstaking.sol\":1297:1332  rewardsTokenAddress = _rewardsToken */\n  dup1\n  sload\n  not(sub(shl(0xa0, 0x01), 0x01))\n  and\n  sub(shl(0xa0, 0x01), 0x01)\n  dup4\n  and\n  or\n  swap1\n  sstore\n    /* \"CLstaking.sol\":1342:1384  _setupRole(DEFAULT_ADMIN_ROLE, msg.sender) */\n  tag_6\n  0x00\n    /* \"CLstaking.sol\":1373:1383  msg.sender */\n  caller\n    /* \"CLstaking.sol\":1342:1352  _setupRole */\n  tag_7\n    /* \"CLstaking.sol\":1342:1384  _setupRole(DEFAULT_ADMIN_ROLE, msg.sender) */\n  jump\t// in\ntag_6:\n    /* \"CLstaking.sol\":1405:1415  ADMIN_ROLE */\n  sload(0x01)\n    /* \"CLstaking.sol\":1394:1428  _setupRole(ADMIN_ROLE, msg.sender) */\n  tag_8\n  swap1\n    /* \"CLstaking.sol\":1417:1427  msg.sender */\n  caller\n    /* \"CLstaking.sol\":1394:1404  _setupRole */\n  tag_7\n    /* \"CLstaking.sol\":1394:1428  _setupRole(ADMIN_ROLE, msg.sender) */\n  jump\t// in\ntag_8:\n    /* \"CLstaking.sol\":1252:1435  constructor(address _rewardsToken) {... */\n  pop\n    /* \"CLstaking.sol\":531:7090  contract CyberlionzStaking is AccessControl {... */\n  jump(tag_21)\n    /* \"@openzeppelin/contracts/access/AccessControl.sol\":6640:6750  function _setupRole(bytes32 role, address account) internal virtual {... */\ntag_7:\n    /* \"@openzeppelin/contracts/access/AccessControl.sol\":6718:6743  _grantRole(role, account) */\n  tag_11\n    /* \"@openzeppelin/contracts/access/AccessControl.sol\":6729:6733  role */\n  dup3\n    /* \"@openzeppelin/contracts/access/AccessControl.sol\":6735:6742  account */\n  dup3\n    /* \"@openzeppelin/contracts/access/AccessControl.sol\":6718:6728  _grantRole */\n  tag_12\n    /* \"@openzeppelin/contracts/access/AccessControl.sol\":6718:6743  _grantRole(role, account) */\n  jump\t// in\ntag_11:\n    /* \"@openzeppelin/contracts/access/AccessControl.sol\":6640:6750  function _setupRole(bytes32 role, address account) internal virtual {... */\n  pop\n  pop\n  jump\t// out\n    /* \"@openzeppelin/contracts/access/AccessControl.sol\":7244:7477  function _grantRole(bytes32 role, address account) internal virtual {... */\ntag_12:\n    /* \"@openzeppelin/contracts/access/AccessControl.sol\":2981:2985  bool */\n  0x00\n    /* \"@openzeppelin/contracts/access/AccessControl.sol\":3004:3016  _roles[role] */\n  dup3\n  dup2\n  mstore\n  0x20\n  dup2\n  dup2\n  mstore\n  0x40\n  dup1\n  dup4\n  keccak256\n  sub(shl(0xa0, 0x01), 0x01)\n    /* \"@openzeppelin/contracts/access/AccessControl.sol\":3004:3033  _roles[role].members[account] */\n  dup6\n  and\n  dup5\n  mstore\n  swap1\n  swap2\n  mstore\n  swap1\n  keccak256\n  sload\n  0xff\n  and\n    /* \"@openzeppelin/contracts/access/AccessControl.sol\":7322:7471  if (!hasRole(role, account)) {... */\n  tag_11\n  jumpi\n    /* \"@openzeppelin/contracts/access/AccessControl.sol\":7365:7371  _roles */\n  0x00\n    /* \"@openzeppelin/contracts/access/AccessControl.sol\":7365:7377  _roles[role] */\n  dup3\n  dup2\n  mstore\n  0x20\n  dup2\n  dup2\n  mstore\n  0x40\n  dup1\n  dup4\n  keccak256\n  sub(shl(0xa0, 0x01), 0x01)\n    /* \"@openzeppelin/contracts/access/AccessControl.sol\":7365:7394  _roles[role].members[account] */\n  dup6\n  and\n  dup5\n  mstore\n  swap1\n  swap2\n  mstore\n  swap1\n  keccak256\n    /* \"@openzeppelin/contracts/access/AccessControl.sol\":7365:7401  _roles[role].members[account] = true */\n  dup1\n  sload\n  not(0xff)\n  and\n    /* \"@openzeppelin/contracts/access/AccessControl.sol\":7397:7401  true */\n  0x01\n    /* \"@openzeppelin/contracts/access/AccessControl.sol\":7365:7401  _roles[role].members[account] = true */\n  or\n  swap1\n  sstore\n    /* \"@openzeppelin/contracts/access/AccessControl.sol\":7447:7459  _msgSender() */\n  tag_17\n    /* \"@openzeppelin/contracts/utils/Context.sol\":719:729  msg.sender */\n  caller\n  swap1\n    /* \"@openzeppelin/contracts/utils/Context.sol\":640:736  function _msgSender() internal view virtual returns (address) {... */\n  jump\n    /* \"@openzeppelin/contracts/access/AccessControl.sol\":7447:7459  _msgSender() */\ntag_17:\n  sub(shl(0xa0, 0x01), 0x01)\n    /* \"@openzeppelin/contracts/access/AccessControl.sol\":7420:7460  RoleGranted(role, account, _msgSender()) */\n  and\n    /* \"@openzeppelin/contracts/access/AccessControl.sol\":7438:7445  account */\n  dup2\n  sub(shl(0xa0, 0x01), 0x01)\n    /* \"@openzeppelin/contracts/access/AccessControl.sol\":7420:7460  RoleGranted(role, account, _msgSender()) */\n  and\n    /* \"@openzeppelin/contracts/access/AccessControl.sol\":7432:7436  role */\n  dup4\n    /* \"@openzeppelin/contracts/access/AccessControl.sol\":7420:7460  RoleGranted(role, account, _msgSender()) */\n  0x2f8788117e7eff1d82e926ec794901d17c78024a50270940304540a733656f0d\n  mload(0x40)\n  mload(0x40)\n  dup1\n  swap2\n  sub\n  swap1\n  log4\n    /* \"@openzeppelin/contracts/access/AccessControl.sol\":7244:7477  function _grantRole(bytes32 role, address account) internal virtual {... */\n  pop\n  pop\n  jump\t// out\n    /* \"#utility.yul\":14:304   */\ntag_3:\n    /* \"#utility.yul\":84:90   */\n  0x00\n    /* \"#utility.yul\":137:139   */\n  0x20\n    /* \"#utility.yul\":125:134   */\n  dup3\n    /* \"#utility.yul\":116:123   */\n  dup5\n    /* \"#utility.yul\":112:135   */\n  sub\n    /* \"#utility.yul\":108:140   */\n  slt\n    /* \"#utility.yul\":105:157   */\n  iszero\n  tag_23\n  jumpi\n    /* \"#utility.yul\":153:154   */\n  0x00\n    /* \"#utility.yul\":150:151   */\n  dup1\n    /* \"#utility.yul\":143:155   */\n  revert\n    /* \"#utility.yul\":105:157   */\ntag_23:\n    /* \"#utility.yul\":179:195   */\n  dup2\n  mload\n  sub(shl(0xa0, 0x01), 0x01)\n    /* \"#utility.yul\":224:255   */\n  dup2\n  and\n    /* \"#utility.yul\":214:256   */\n  dup2\n  eq\n    /* \"#utility.yul\":204:274   */\n  tag_24\n  jumpi\n    /* \"#utility.yul\":270:271   */\n  0x00\n    /* \"#utility.yul\":267:268   */\n  dup1\n    /* \"#utility.yul\":260:272   */\n  revert\n    /* \"#utility.yul\":204:274   */\ntag_24:\n    /* \"#utility.yul\":293:298   */\n  swap4\n    /* \"#utility.yul\":14:304   */\n  swap3\n  pop\n  pop\n  pop\n  jump\t// out\ntag_21:\n    /* \"CLstaking.sol\":531:7090  contract CyberlionzStaking is AccessControl {... */\n  dataSize(sub_0)\n  dup1\n  dataOffset(sub_0)\n  0x00\n  codecopy\n  0x00\n  return\nstop\n\nsub_0: assembly {\n        /* \"CLstaking.sol\":531:7090  contract CyberlionzStaking is AccessControl {... */\n      mstore(0x40, 0x80)\n      callvalue\n      dup1\n      iszero\n      tag_1\n      jumpi\n      0x00\n      dup1\n      revert\n    tag_1:\n      pop\n      jumpi(tag_2, lt(calldatasize, 0x04))\n      shr(0xe0, calldataload(0x00))\n      dup1\n      0x4adc7cfd\n      gt\n      tag_24\n      jumpi\n      dup1\n      0x91d14854\n      gt\n      tag_25\n      jumpi\n      dup1\n      0x91d14854\n      eq\n      tag_18\n      jumpi\n      dup1\n      0x9e2c8a5b\n      eq\n      tag_19\n      jumpi\n      dup1\n      0xa217fddf\n      eq\n      tag_20\n      jumpi\n      dup1\n      0xd547741f\n      eq\n      tag_21\n      jumpi\n      dup1\n      0xeeafbddc\n      eq\n      tag_22\n      jumpi\n      dup1\n      0xf93b03bc\n      eq\n      tag_23\n      jumpi\n      0x00\n      dup1\n      revert\n    tag_25:\n      dup1\n      0x4adc7cfd\n      eq\n      tag_13\n      jumpi\n      dup1\n      0x75b238fc\n      eq\n      tag_14\n      jumpi\n      dup1\n      0x7b0472f0\n      eq\n      tag_15\n      jumpi\n      dup1\n      0x7b71e5db\n      eq\n      tag_16\n      jumpi\n      dup1\n      0x842dd90a\n      eq\n      tag_17\n      jumpi\n      0x00\n      dup1\n      revert\n    tag_24:\n      dup1\n      0x2edb531c\n      gt\n      tag_26\n      jumpi\n      dup1\n      0x2edb531c\n      eq\n      tag_8\n      jumpi\n      dup1\n      0x2f2ff15d\n      eq\n      tag_9\n      jumpi\n      dup1\n      0x302f7fea\n      eq\n      tag_10\n      jumpi\n      dup1\n      0x36568abe\n      eq\n      tag_11\n      jumpi\n      dup1\n      0x3b552dbd\n      eq\n      tag_12\n      jumpi\n      0x00\n      dup1\n      revert\n    tag_26:\n      dup1\n      0x8afd4e\n      eq\n      tag_3\n      jumpi\n      dup1\n      0x01ffc9a7\n      eq\n      tag_4\n      jumpi\n      dup1\n      0x0fb4d2e5\n      eq\n      tag_5\n      jumpi\n      dup1\n      0x1bbda52b\n      eq\n      tag_6\n      jumpi\n      dup1\n      0x248a9ca3\n      eq\n      tag_7\n      jumpi\n    tag_2:\n      0x00\n      dup1\n      revert\n        /* \"CLstaking.sol\":2735:2942  function batchUnstake(uint256 _collectionID, uint256[] memory _tokenIDs) external {... */\n    tag_3:\n      tag_27\n      tag_28\n      calldatasize\n      0x04\n      tag_29\n      jump\t// in\n    tag_28:\n      tag_30\n      jump\t// in\n    tag_27:\n      stop\n        /* \"@openzeppelin/contracts/access/AccessControl.sol\":2606:2808  function supportsInterface(bytes4 interfaceId) public view virtual override returns (bool) {... */\n    tag_4:\n      tag_31\n      tag_32\n      calldatasize\n      0x04\n      tag_33\n      jump\t// in\n    tag_32:\n      tag_34\n      jump\t// in\n    tag_31:\n      mload(0x40)\n        /* \"#utility.yul\":1790:1804   */\n      swap1\n      iszero\n        /* \"#utility.yul\":1783:1805   */\n      iszero\n        /* \"#utility.yul\":1765:1806   */\n      dup2\n      mstore\n        /* \"#utility.yul\":1753:1755   */\n      0x20\n        /* \"#utility.yul\":1738:1756   */\n      add\n        /* \"@openzeppelin/contracts/access/AccessControl.sol\":2606:2808  function supportsInterface(bytes4 interfaceId) public view virtual override returns (bool) {... */\n    tag_35:\n      mload(0x40)\n      dup1\n      swap2\n      sub\n      swap1\n      return\n        /* \"CLstaking.sol\":1207:1245  CollectionInfo[] public collectionInfo */\n    tag_5:\n      tag_37\n      tag_38\n      calldatasize\n      0x04\n      tag_39\n      jump\t// in\n    tag_38:\n      tag_40\n      jump\t// in\n    tag_37:\n      0x40\n      dup1\n      mload\n      sub(shl(0xa0, 0x01), 0x01)\n        /* \"#utility.yul\":2222:2254   */\n      swap1\n      swap5\n      and\n        /* \"#utility.yul\":2204:2255   */\n      dup5\n      mstore\n        /* \"#utility.yul\":2286:2288   */\n      0x20\n        /* \"#utility.yul\":2271:2289   */\n      dup5\n      add\n        /* \"#utility.yul\":2264:2298   */\n      swap3\n      swap1\n      swap3\n      mstore\n        /* \"#utility.yul\":2314:2332   */\n      swap1\n      dup3\n      add\n        /* \"#utility.yul\":2307:2341   */\n      mstore\n        /* \"#utility.yul\":2192:2194   */\n      0x60\n        /* \"#utility.yul\":2177:2195   */\n      add\n        /* \"CLstaking.sol\":1207:1245  CollectionInfo[] public collectionInfo */\n      tag_35\n        /* \"#utility.yul\":2002:2347   */\n      jump\n        /* \"CLstaking.sol\":2526:2729  function batchStake(uint256 _collectionID, uint256[] memory _tokenIDs) external {... */\n    tag_6:\n      tag_27\n      tag_44\n      calldatasize\n      0x04\n      tag_29\n      jump\t// in\n    tag_44:\n      tag_45\n      jump\t// in\n        /* \"@openzeppelin/contracts/access/AccessControl.sol\":4391:4520  function getRoleAdmin(bytes32 role) public view virtual override returns (bytes32) {... */\n    tag_7:\n      tag_46\n      tag_47\n      calldatasize\n      0x04\n      tag_39\n      jump\t// in\n    tag_47:\n        /* \"@openzeppelin/contracts/access/AccessControl.sol\":4465:4472  bytes32 */\n      0x00\n        /* \"@openzeppelin/contracts/access/AccessControl.sol\":4491:4503  _roles[role] */\n      swap1\n      dup2\n      mstore\n      0x20\n      dup2\n      swap1\n      mstore\n      0x40\n      swap1\n      keccak256\n        /* \"@openzeppelin/contracts/access/AccessControl.sol\":4491:4513  _roles[role].adminRole */\n      0x01\n      add\n      sload\n      swap1\n        /* \"@openzeppelin/contracts/access/AccessControl.sol\":4391:4520  function getRoleAdmin(bytes32 role) public view virtual override returns (bytes32) {... */\n      jump\n    tag_46:\n      mload(0x40)\n        /* \"#utility.yul\":2683:2708   */\n      swap1\n      dup2\n      mstore\n        /* \"#utility.yul\":2671:2673   */\n      0x20\n        /* \"#utility.yul\":2656:2674   */\n      add\n        /* \"@openzeppelin/contracts/access/AccessControl.sol\":4391:4520  function getRoleAdmin(bytes32 role) public view virtual override returns (bytes32) {... */\n      tag_35\n        /* \"#utility.yul\":2537:2714   */\n      jump\n        /* \"CLstaking.sol\":5515:5784  function setCollection(address _collectionAddress, uint256 _rewardPerDay) public onlyRole(ADMIN_ROLE) {... */\n    tag_8:\n      tag_27\n      tag_53\n      calldatasize\n      0x04\n      tag_54\n      jump\t// in\n    tag_53:\n      tag_55\n      jump\t// in\n        /* \"@openzeppelin/contracts/access/AccessControl.sol\":4770:4915  function grantRole(bytes32 role, address account) public virtual override onlyRole(getRoleAdmin(role)) {... */\n    tag_9:\n      tag_27\n      tag_57\n      calldatasize\n      0x04\n      tag_58\n      jump\t// in\n    tag_57:\n      tag_59\n      jump\t// in\n        /* \"CLstaking.sol\":4611:5246  function claimableReward(address _userAddress, uint256 _collectionID, uint256 _tokenID) public view returns(uint256) {... */\n    tag_10:\n      tag_46\n      tag_61\n      calldatasize\n      0x04\n      tag_62\n      jump\t// in\n    tag_61:\n      tag_63\n      jump\t// in\n        /* \"@openzeppelin/contracts/access/AccessControl.sol\":5787:6001  function renounceRole(bytes32 role, address account) public virtual override {... */\n    tag_11:\n      tag_27\n      tag_67\n      calldatasize\n      0x04\n      tag_58\n      jump\t// in\n    tag_67:\n      tag_68\n      jump\t// in\n        /* \"CLstaking.sol\":4061:4605  function totalClaimableReward(address _userAddress, uint256 _collectionID) public view returns(uint256) {... */\n    tag_12:\n      tag_46\n      tag_70\n      calldatasize\n      0x04\n      tag_54\n      jump\t// in\n    tag_70:\n      tag_71\n      jump\t// in\n        /* \"CLstaking.sol\":1441:1559  function setAdminRole(address admin) public onlyRole(DEFAULT_ADMIN_ROLE){... */\n    tag_13:\n      tag_27\n      tag_74\n      calldatasize\n      0x04\n      tag_75\n      jump\t// in\n    tag_74:\n      tag_76\n      jump\t// in\n        /* \"CLstaking.sol\":581:627  bytes32 public ADMIN_ROLE = keccak256(\"ADMIN\") */\n    tag_14:\n      tag_46\n      sload(0x01)\n      dup2\n      jump\n        /* \"CLstaking.sol\":1565:1679  function stake(uint256 _collectionID, uint256 _tokenID) external {... */\n    tag_15:\n      tag_27\n      tag_81\n      calldatasize\n      0x04\n      tag_82\n      jump\t// in\n    tag_81:\n      tag_83\n      jump\t// in\n        /* \"CLstaking.sol\":5790:6139  function updateCollection(... */\n    tag_16:\n      tag_27\n      tag_85\n      calldatasize\n      0x04\n      tag_86\n      jump\t// in\n    tag_85:\n      tag_87\n      jump\t// in\n        /* \"CLstaking.sol\":6428:6644  function getTotalStakedItemsCount(uint256 _collectionID) external view returns (uint256) {... */\n    tag_17:\n      tag_46\n      tag_89\n      calldatasize\n      0x04\n      tag_39\n      jump\t// in\n    tag_89:\n      tag_90\n      jump\t// in\n        /* \"@openzeppelin/contracts/access/AccessControl.sol\":2895:3040  function hasRole(bytes32 role, address account) public view virtual override returns (bool) {... */\n    tag_18:\n      tag_31\n      tag_93\n      calldatasize\n      0x04\n      tag_58\n      jump\t// in\n    tag_93:\n      tag_94\n      jump\t// in\n        /* \"CLstaking.sol\":2948:3065  function unstake(uint256 _collectionID, uint256 _tokenID) external {... */\n    tag_19:\n      tag_27\n      tag_97\n      calldatasize\n      0x04\n      tag_82\n      jump\t// in\n    tag_97:\n      tag_98\n      jump\t// in\n        /* \"@openzeppelin/contracts/access/AccessControl.sol\":2027:2076  bytes32 public constant DEFAULT_ADMIN_ROLE = 0x00 */\n    tag_20:\n      tag_46\n        /* \"@openzeppelin/contracts/access/AccessControl.sol\":2072:2076  0x00 */\n      0x00\n        /* \"@openzeppelin/contracts/access/AccessControl.sol\":2027:2076  bytes32 public constant DEFAULT_ADMIN_ROLE = 0x00 */\n      dup2\n      jump\n        /* \"@openzeppelin/contracts/access/AccessControl.sol\":5149:5296  function revokeRole(bytes32 role, address account) public virtual override onlyRole(getRoleAdmin(role)) {... */\n    tag_21:\n      tag_27\n      tag_103\n      calldatasize\n      0x04\n      tag_58\n      jump\t// in\n    tag_103:\n      tag_104\n      jump\t// in\n        /* \"CLstaking.sol\":6650:6773  function onERC721Received( address, address, uint256) public pure returns (bytes4) {... */\n    tag_22:\n      tag_105\n      tag_106\n      calldatasize\n      0x04\n      tag_107\n      jump\t// in\n    tag_106:\n      shl(0xe1, 0x0a85bd01)\n      swap4\n      swap3\n      pop\n      pop\n      pop\n      jump\n    tag_105:\n      mload(0x40)\n      not(sub(shl(0xe0, 0x01), 0x01))\n        /* \"#utility.yul\":5190:5223   */\n      swap1\n      swap2\n      and\n        /* \"#utility.yul\":5172:5224   */\n      dup2\n      mstore\n        /* \"#utility.yul\":5160:5162   */\n      0x20\n        /* \"#utility.yul\":5145:5163   */\n      add\n        /* \"CLstaking.sol\":6650:6773  function onERC721Received( address, address, uint256) public pure returns (bytes4) {... */\n      tag_35\n        /* \"#utility.yul\":5028:5230   */\n      jump\n        /* \"CLstaking.sol\":6145:6422  function getUserStakedTokens(address _userAddress, uint256 _collectionID) external view returns(uint256[] memory){... */\n    tag_23:\n      tag_111\n      tag_112\n      calldatasize\n      0x04\n      tag_54\n      jump\t// in\n    tag_112:\n      tag_113\n      jump\t// in\n    tag_111:\n      mload(0x40)\n      tag_35\n      swap2\n      swap1\n      tag_115\n      jump\t// in\n        /* \"CLstaking.sol\":2735:2942  function batchUnstake(uint256 _collectionID, uint256[] memory _tokenIDs) external {... */\n    tag_30:\n        /* \"CLstaking.sol\":2832:2841  uint256 i */\n      0x00\n        /* \"CLstaking.sol\":2827:2936  for (uint256 i = 0; i < _tokenIDs.length; ++i) {... */\n    tag_117:\n        /* \"CLstaking.sol\":2851:2860  _tokenIDs */\n      dup2\n        /* \"CLstaking.sol\":2851:2867  _tokenIDs.length */\n      mload\n        /* \"CLstaking.sol\":2847:2848  i */\n      dup2\n        /* \"CLstaking.sol\":2847:2867  i < _tokenIDs.length */\n      lt\n        /* \"CLstaking.sol\":2827:2936  for (uint256 i = 0; i < _tokenIDs.length; ++i) {... */\n      iszero\n      tag_118\n      jumpi\n        /* \"CLstaking.sol\":2888:2925  _unstake(_collectionID, _tokenIDs[i]) */\n      tag_120\n        /* \"CLstaking.sol\":2897:2910  _collectionID */\n      dup4\n        /* \"CLstaking.sol\":2912:2921  _tokenIDs */\n      dup4\n        /* \"CLstaking.sol\":2922:2923  i */\n      dup4\n        /* \"CLstaking.sol\":2912:2924  _tokenIDs[i] */\n      dup2\n      mload\n      dup2\n      lt\n      tag_122\n      jumpi\n      tag_122\n      tag_123\n      jump\t// in\n    tag_122:\n      0x20\n      mul\n      0x20\n      add\n      add\n      mload\n        /* \"CLstaking.sol\":2888:2896  _unstake */\n      tag_124\n        /* \"CLstaking.sol\":2888:2925  _unstake(_collectionID, _tokenIDs[i]) */\n      jump\t// in\n    tag_120:\n        /* \"CLstaking.sol\":2869:2872  ++i */\n      tag_125\n      dup2\n      tag_126\n      jump\t// in\n    tag_125:\n      swap1\n      pop\n        /* \"CLstaking.sol\":2827:2936  for (uint256 i = 0; i < _tokenIDs.length; ++i) {... */\n      jump(tag_117)\n    tag_118:\n      pop\n        /* \"CLstaking.sol\":2735:2942  function batchUnstake(uint256 _collectionID, uint256[] memory _tokenIDs) external {... */\n      pop\n      pop\n      jump\t// out\n        /* \"@openzeppelin/contracts/access/AccessControl.sol\":2606:2808  function supportsInterface(bytes4 interfaceId) public view virtual override returns (bool) {... */\n    tag_34:\n        /* \"@openzeppelin/contracts/access/AccessControl.sol\":2691:2695  bool */\n      0x00\n      not(sub(shl(0xe0, 0x01), 0x01))\n        /* \"@openzeppelin/contracts/access/AccessControl.sol\":2714:2761  interfaceId == type(IAccessControl).interfaceId */\n      dup3\n      and\n      shl(0xe0, 0x7965db0b)\n      eq\n      dup1\n        /* \"@openzeppelin/contracts/access/AccessControl.sol\":2714:2801  interfaceId == type(IAccessControl).interfaceId || super.supportsInterface(interfaceId) */\n      tag_129\n      jumpi\n      pop\n      shl(0xe0, 0x01ffc9a7)\n      not(sub(shl(0xe0, 0x01), 0x01))\n        /* \"@openzeppelin/contracts/utils/introspection/ERC165.sol\":937:977  interfaceId == type(IERC165).interfaceId */\n      dup4\n      and\n      eq\n        /* \"@openzeppelin/contracts/access/AccessControl.sol\":2765:2801  super.supportsInterface(interfaceId) */\n    tag_129:\n        /* \"@openzeppelin/contracts/access/AccessControl.sol\":2707:2801  return interfaceId == type(IAccessControl).interfaceId || super.supportsInterface(interfaceId) */\n      swap3\n        /* \"@openzeppelin/contracts/access/AccessControl.sol\":2606:2808  function supportsInterface(bytes4 interfaceId) public view virtual override returns (bool) {... */\n      swap2\n      pop\n      pop\n      jump\t// out\n        /* \"CLstaking.sol\":1207:1245  CollectionInfo[] public collectionInfo */\n    tag_40:\n      0x06\n      dup2\n      dup2\n      sload\n      dup2\n      lt\n      tag_131\n      jumpi\n      0x00\n      dup1\n      revert\n    tag_131:\n      0x00\n      swap2\n      dup3\n      mstore\n      0x20\n      swap1\n      swap2\n      keccak256\n      0x03\n      swap1\n      swap2\n      mul\n      add\n      dup1\n      sload\n      0x01\n      dup3\n      add\n      sload\n      0x02\n      swap1\n      swap3\n      add\n      sload\n      sub(shl(0xa0, 0x01), 0x01)\n      swap1\n      swap2\n      and\n      swap3\n      pop\n      dup4\n      jump\t// out\n        /* \"CLstaking.sol\":2526:2729  function batchStake(uint256 _collectionID, uint256[] memory _tokenIDs) external {... */\n    tag_45:\n        /* \"CLstaking.sol\":2621:2630  uint256 i */\n      0x00\n        /* \"CLstaking.sol\":2616:2723  for (uint256 i = 0; i < _tokenIDs.length; ++i) {... */\n    tag_134:\n        /* \"CLstaking.sol\":2640:2649  _tokenIDs */\n      dup2\n        /* \"CLstaking.sol\":2640:2656  _tokenIDs.length */\n      mload\n        /* \"CLstaking.sol\":2636:2637  i */\n      dup2\n        /* \"CLstaking.sol\":2636:2656  i < _tokenIDs.length */\n      lt\n        /* \"CLstaking.sol\":2616:2723  for (uint256 i = 0; i < _tokenIDs.length; ++i) {... */\n      iszero\n      tag_118\n      jumpi\n        /* \"CLstaking.sol\":2677:2712  _stake(_collectionID, _tokenIDs[i]) */\n      tag_137\n        /* \"CLstaking.sol\":2684:2697  _collectionID */\n      dup4\n        /* \"CLstaking.sol\":2699:2708  _tokenIDs */\n      dup4\n        /* \"CLstaking.sol\":2709:2710  i */\n      dup4\n        /* \"CLstaking.sol\":2699:2711  _tokenIDs[i] */\n      dup2\n      mload\n      dup2\n      lt\n      tag_139\n      jumpi\n      tag_139\n      tag_123\n      jump\t// in\n    tag_139:\n      0x20\n      mul\n      0x20\n      add\n      add\n      mload\n        /* \"CLstaking.sol\":2677:2683  _stake */\n      tag_140\n        /* \"CLstaking.sol\":2677:2712  _stake(_collectionID, _tokenIDs[i]) */\n      jump\t// in\n    tag_137:\n        /* \"CLstaking.sol\":2658:2661  ++i */\n      tag_141\n      dup2\n      tag_126\n      jump\t// in\n    tag_141:\n      swap1\n      pop\n        /* \"CLstaking.sol\":2616:2723  for (uint256 i = 0; i < _tokenIDs.length; ++i) {... */\n      jump(tag_134)\n        /* \"CLstaking.sol\":5515:5784  function setCollection(address _collectionAddress, uint256 _rewardPerDay) public onlyRole(ADMIN_ROLE) {... */\n    tag_55:\n        /* \"CLstaking.sol\":5605:5615  ADMIN_ROLE */\n      sload(0x01)\n        /* \"@openzeppelin/contracts/access/AccessControl.sol\":2505:2521  _checkRole(role) */\n      tag_144\n        /* \"@openzeppelin/contracts/access/AccessControl.sol\":2516:2520  role */\n      dup2\n        /* \"@openzeppelin/contracts/access/AccessControl.sol\":2505:2515  _checkRole */\n      tag_145\n        /* \"@openzeppelin/contracts/access/AccessControl.sol\":2505:2521  _checkRole(role) */\n      jump\t// in\n    tag_144:\n      pop\n        /* \"CLstaking.sol\":5661:5767  CollectionInfo({collectionAddress: _collectionAddress, rewardPerDay: _rewardPerDay, totalAmountStaked: 0}) */\n      0x40\n      dup1\n      mload\n      0x60\n      dup2\n      add\n      dup3\n      mstore\n      sub(shl(0xa0, 0x01), 0x01)\n      swap4\n      dup5\n      and\n      dup2\n      mstore\n      0x20\n      dup2\n      add\n      swap3\n      dup4\n      mstore\n      0x00\n      swap2\n      dup2\n      add\n      dup3\n      dup2\n      mstore\n        /* \"CLstaking.sol\":5628:5642  collectionInfo */\n      0x06\n        /* \"CLstaking.sol\":5628:5777  collectionInfo.push(... */\n      dup1\n      sload\n      0x01\n      dup2\n      add\n      dup3\n      sstore\n      swap4\n      mstore\n      swap1\n      mload\n      0xf652222313e28459528d920b65115c16c04f3efc82aaedc97be59f3f377c0d3f\n      0x03\n      swap1\n      swap4\n      mul\n      swap3\n      dup4\n      add\n      dup1\n      sload\n      not(sub(shl(0xa0, 0x01), 0x01))\n      and\n      swap2\n      swap1\n      swap6\n      and\n      or\n      swap1\n      swap4\n      sstore\n      swap1\n      mload\n      0xf652222313e28459528d920b65115c16c04f3efc82aaedc97be59f3f377c0d40\n      dup3\n      add\n      sstore\n      swap1\n      mload\n      0xf652222313e28459528d920b65115c16c04f3efc82aaedc97be59f3f377c0d41\n      swap1\n      swap2\n      add\n      sstore\n        /* \"CLstaking.sol\":5515:5784  function setCollection(address _collectionAddress, uint256 _rewardPerDay) public onlyRole(ADMIN_ROLE) {... */\n      jump\t// out\n        /* \"@openzeppelin/contracts/access/AccessControl.sol\":4770:4915  function grantRole(bytes32 role, address account) public virtual override onlyRole(getRoleAdmin(role)) {... */\n    tag_59:\n        /* \"@openzeppelin/contracts/access/AccessControl.sol\":4465:4472  bytes32 */\n      0x00\n        /* \"@openzeppelin/contracts/access/AccessControl.sol\":4491:4503  _roles[role] */\n      dup3\n      dup2\n      mstore\n      0x20\n      dup2\n      swap1\n      mstore\n      0x40\n      swap1\n      keccak256\n        /* \"@openzeppelin/contracts/access/AccessControl.sol\":4491:4513  _roles[role].adminRole */\n      0x01\n      add\n      sload\n        /* \"@openzeppelin/contracts/access/AccessControl.sol\":2505:2521  _checkRole(role) */\n      tag_150\n        /* \"@openzeppelin/contracts/access/AccessControl.sol\":2516:2520  role */\n      dup2\n        /* \"@openzeppelin/contracts/access/AccessControl.sol\":2505:2515  _checkRole */\n      tag_145\n        /* \"@openzeppelin/contracts/access/AccessControl.sol\":2505:2521  _checkRole(role) */\n      jump\t// in\n    tag_150:\n        /* \"@openzeppelin/contracts/access/AccessControl.sol\":4883:4908  _grantRole(role, account) */\n      tag_118\n        /* \"@openzeppelin/contracts/access/AccessControl.sol\":4894:4898  role */\n      dup4\n        /* \"@openzeppelin/contracts/access/AccessControl.sol\":4900:4907  account */\n      dup4\n        /* \"@openzeppelin/contracts/access/AccessControl.sol\":4883:4893  _grantRole */\n      tag_153\n        /* \"@openzeppelin/contracts/access/AccessControl.sol\":4883:4908  _grantRole(role, account) */\n      jump\t// in\n        /* \"CLstaking.sol\":4611:5246  function claimableReward(address _userAddress, uint256 _collectionID, uint256 _tokenID) public view returns(uint256) {... */\n    tag_63:\n        /* \"CLstaking.sol\":4719:4726  uint256 */\n      0x00\n        /* \"CLstaking.sol\":4738:4771  CollectionInfo storage collection */\n      dup1\n        /* \"CLstaking.sol\":4774:4788  collectionInfo */\n      0x06\n        /* \"CLstaking.sol\":4789:4802  _collectionID */\n      dup5\n        /* \"CLstaking.sol\":4774:4803  collectionInfo[_collectionID] */\n      dup2\n      sload\n      dup2\n      lt\n      tag_156\n      jumpi\n      tag_156\n      tag_123\n      jump\t// in\n    tag_156:\n      0x00\n      swap2\n      dup3\n      mstore\n      0x20\n      dup1\n      dup4\n      keccak256\n      0x03\n      swap1\n      swap3\n      mul\n      swap1\n      swap2\n      add\n        /* \"CLstaking.sol\":4893:4921  collection.collectionAddress */\n      dup1\n      sload\n      sub(shl(0xa0, 0x01), 0x01)\n      swap1\n      dup2\n      and\n        /* \"CLstaking.sol\":4870:4922  contractTokenIdToOwner[collection.collectionAddress] */\n      dup5\n      mstore\n        /* \"CLstaking.sol\":4870:4892  contractTokenIdToOwner */\n      0x04\n        /* \"CLstaking.sol\":4870:4922  contractTokenIdToOwner[collection.collectionAddress] */\n      dup4\n      mstore\n      0x40\n      dup1\n      dup6\n      keccak256\n        /* \"CLstaking.sol\":4870:4932  contractTokenIdToOwner[collection.collectionAddress][_tokenID] */\n      dup9\n      dup7\n      mstore\n      swap1\n      swap4\n      mstore\n      swap2\n      swap1\n      swap3\n      keccak256\n      sload\n        /* \"CLstaking.sol\":4774:4803  collectionInfo[_collectionID] */\n      swap2\n      swap3\n      pop\n        /* \"CLstaking.sol\":4870:4932  contractTokenIdToOwner[collection.collectionAddress][_tokenID] */\n      swap1\n      dup2\n      and\n        /* \"CLstaking.sol\":4870:4948  contractTokenIdToOwner[collection.collectionAddress][_tokenID] != _userAddress */\n      swap1\n      dup7\n      and\n      eq\n        /* \"CLstaking.sol\":4867:4968  if(contractTokenIdToOwner[collection.collectionAddress][_tokenID] != _userAddress)... */\n      tag_158\n      jumpi\n        /* \"CLstaking.sol\":4967:4968  0 */\n      0x00\n        /* \"CLstaking.sol\":4960:4968  return 0 */\n      swap2\n      pop\n      pop\n      jump(tag_154)\n        /* \"CLstaking.sol\":4867:4968  if(contractTokenIdToOwner[collection.collectionAddress][_tokenID] != _userAddress)... */\n    tag_158:\n        /* \"CLstaking.sol\":5030:5058  collection.collectionAddress */\n      dup1\n      sload\n      sub(shl(0xa0, 0x01), 0x01)\n      and\n        /* \"CLstaking.sol\":4979:4994  uint timeStaked */\n      0x00\n        /* \"CLstaking.sol\":4997:5059  contractTokenIdToStakedTimestamp[collection.collectionAddress] */\n      swap1\n      dup2\n      mstore\n        /* \"CLstaking.sol\":4997:5029  contractTokenIdToStakedTimestamp */\n      0x05\n        /* \"CLstaking.sol\":4997:5059  contractTokenIdToStakedTimestamp[collection.collectionAddress] */\n      0x20\n      swap1\n      dup2\n      mstore\n      0x40\n      dup1\n      dup4\n      keccak256\n        /* \"CLstaking.sol\":4997:5069  contractTokenIdToStakedTimestamp[collection.collectionAddress][_tokenID] */\n      dup7\n      dup5\n      mstore\n      swap1\n      swap2\n      mstore\n      dup2\n      keccak256\n      sload\n        /* \"CLstaking.sol\":5030:5058  collection.collectionAddress */\n      0x01\n        /* \"CLstaking.sol\":5185:5208  collection.rewardPerDay */\n      dup4\n      add\n      sload\n        /* \"CLstaking.sol\":4997:5069  contractTokenIdToStakedTimestamp[collection.collectionAddress][_tokenID] */\n      swap1\n      swap2\n        /* \"CLstaking.sol\":4979:4994  uint timeStaked */\n      swap1\n        /* \"CLstaking.sol\":5103:5209  (block.timestamp - timeStaked)... */\n      tag_159\n      swap1\n        /* \"CLstaking.sol\":5103:5167  (block.timestamp - timeStaked)... */\n      tag_160\n        /* \"CLstaking.sol\":792:800  24*60*60 */\n      0x015180\n        /* \"CLstaking.sol\":5104:5132  block.timestamp - timeStaked */\n      tag_161\n        /* \"CLstaking.sol\":4997:5069  contractTokenIdToStakedTimestamp[collection.collectionAddress][_tokenID] */\n      dup7\n        /* \"CLstaking.sol\":5104:5119  block.timestamp */\n      timestamp\n        /* \"CLstaking.sol\":5104:5132  block.timestamp - timeStaked */\n      tag_162\n      jump\t// in\n    tag_161:\n        /* \"CLstaking.sol\":5103:5150  (block.timestamp - timeStaked)... */\n      swap1\n      tag_163\n        /* \"CLstaking.sol\":5103:5167  (block.timestamp - timeStaked)... */\n      jump\t// in\n    tag_160:\n        /* \"CLstaking.sol\":5103:5184  (block.timestamp - timeStaked)... */\n      swap1\n      tag_164\n        /* \"CLstaking.sol\":5103:5209  (block.timestamp - timeStaked)... */\n      jump\t// in\n    tag_159:\n        /* \"CLstaking.sol\":5079:5209  uint256 payableAmount = (block.timestamp - timeStaked)... */\n      swap4\n      pop\n      pop\n      pop\n      pop\n        /* \"CLstaking.sol\":4611:5246  function claimableReward(address _userAddress, uint256 _collectionID, uint256 _tokenID) public view returns(uint256) {... */\n    tag_154:\n      swap4\n      swap3\n      pop\n      pop\n      pop\n      jump\t// out\n        /* \"@openzeppelin/contracts/access/AccessControl.sol\":5787:6001  function renounceRole(bytes32 role, address account) public virtual override {... */\n    tag_68:\n      sub(shl(0xa0, 0x01), 0x01)\n        /* \"@openzeppelin/contracts/access/AccessControl.sol\":5882:5905  account == _msgSender() */\n      dup2\n      and\n        /* \"@openzeppelin/contracts/utils/Context.sol\":719:729  msg.sender */\n      caller\n        /* \"@openzeppelin/contracts/access/AccessControl.sol\":5882:5905  account == _msgSender() */\n      eq\n        /* \"@openzeppelin/contracts/access/AccessControl.sol\":5874:5957  require(account == _msgSender(), \"AccessControl: can only renounce roles for self\") */\n      tag_168\n      jumpi\n      mload(0x40)\n      shl(0xe5, 0x461bcd)\n      dup2\n      mstore\n        /* \"#utility.yul\":6608:6610   */\n      0x20\n        /* \"@openzeppelin/contracts/access/AccessControl.sol\":5874:5957  require(account == _msgSender(), \"AccessControl: can only renounce roles for self\") */\n      0x04\n      dup3\n      add\n        /* \"#utility.yul\":6590:6611   */\n      mstore\n        /* \"#utility.yul\":6647:6649   */\n      0x2f\n        /* \"#utility.yul\":6627:6645   */\n      0x24\n      dup3\n      add\n        /* \"#utility.yul\":6620:6650   */\n      mstore\n        /* \"#utility.yul\":6686:6720   */\n      0x416363657373436f6e74726f6c3a2063616e206f6e6c792072656e6f756e6365\n        /* \"#utility.yul\":6666:6684   */\n      0x44\n      dup3\n      add\n        /* \"#utility.yul\":6659:6721   */\n      mstore\n      shl(0x89, 0x103937b632b9903337b91039b2b633)\n        /* \"#utility.yul\":6737:6755   */\n      0x64\n      dup3\n      add\n        /* \"#utility.yul\":6730:6775   */\n      mstore\n        /* \"#utility.yul\":6792:6811   */\n      0x84\n      add\n        /* \"@openzeppelin/contracts/access/AccessControl.sol\":5874:5957  require(account == _msgSender(), \"AccessControl: can only renounce roles for self\") */\n    tag_169:\n      mload(0x40)\n      dup1\n      swap2\n      sub\n      swap1\n      revert\n    tag_168:\n        /* \"@openzeppelin/contracts/access/AccessControl.sol\":5968:5994  _revokeRole(role, account) */\n      tag_171\n        /* \"@openzeppelin/contracts/access/AccessControl.sol\":5980:5984  role */\n      dup3\n        /* \"@openzeppelin/contracts/access/AccessControl.sol\":5986:5993  account */\n      dup3\n        /* \"@openzeppelin/contracts/access/AccessControl.sol\":5968:5979  _revokeRole */\n      tag_172\n        /* \"@openzeppelin/contracts/access/AccessControl.sol\":5968:5994  _revokeRole(role, account) */\n      jump\t// in\n    tag_171:\n        /* \"@openzeppelin/contracts/access/AccessControl.sol\":5787:6001  function renounceRole(bytes32 role, address account) public virtual override {... */\n      pop\n      pop\n      jump\t// out\n        /* \"CLstaking.sol\":4061:4605  function totalClaimableReward(address _userAddress, uint256 _collectionID) public view returns(uint256) {... */\n    tag_71:\n        /* \"CLstaking.sol\":4156:4163  uint256 */\n      0x00\n        /* \"CLstaking.sol\":4175:4196  uint256 payableAmount */\n      dup1\n        /* \"CLstaking.sol\":4199:4200  0 */\n      0x00\n        /* \"CLstaking.sol\":4175:4200  uint256 payableAmount = 0 */\n      swap1\n      pop\n        /* \"CLstaking.sol\":4210:4235  address collectionAddress */\n      0x00\n        /* \"CLstaking.sol\":4238:4252  collectionInfo */\n      0x06\n        /* \"CLstaking.sol\":4253:4266  _collectionID */\n      dup5\n        /* \"CLstaking.sol\":4238:4267  collectionInfo[_collectionID] */\n      dup2\n      sload\n      dup2\n      lt\n      tag_175\n      jumpi\n      tag_175\n      tag_123\n      jump\t// in\n    tag_175:\n      0x00\n      swap2\n      dup3\n      mstore\n      0x20\n      dup3\n      keccak256\n      0x03\n      swap1\n      swap2\n      mul\n      add\n        /* \"CLstaking.sol\":4238:4285  collectionInfo[_collectionID].collectionAddress */\n      sload\n      sub(shl(0xa0, 0x01), 0x01)\n      and\n      swap2\n      pop\n        /* \"CLstaking.sol\":4295:4569  for (uint256 i; i < addressToStakedTokens[collectionAddress][_userAddress].length; i++) {... */\n    tag_177:\n      sub(shl(0xa0, 0x01), 0x01)\n        /* \"CLstaking.sol\":4315:4355  addressToStakedTokens[collectionAddress] */\n      dup1\n      dup4\n      and\n      0x00\n      swap1\n      dup2\n      mstore\n        /* \"CLstaking.sol\":4315:4336  addressToStakedTokens */\n      0x03\n        /* \"CLstaking.sol\":4315:4355  addressToStakedTokens[collectionAddress] */\n      0x20\n      swap1\n      dup2\n      mstore\n      0x40\n      dup1\n      dup4\n      keccak256\n        /* \"CLstaking.sol\":4315:4369  addressToStakedTokens[collectionAddress][_userAddress] */\n      swap4\n      dup11\n      and\n      dup4\n      mstore\n      swap3\n      swap1\n      mstore\n      keccak256\n        /* \"CLstaking.sol\":4315:4376  addressToStakedTokens[collectionAddress][_userAddress].length */\n      sload\n        /* \"CLstaking.sol\":4311:4376  i < addressToStakedTokens[collectionAddress][_userAddress].length */\n      dup2\n      lt\n        /* \"CLstaking.sol\":4295:4569  for (uint256 i; i < addressToStakedTokens[collectionAddress][_userAddress].length; i++) {... */\n      iszero\n      tag_178\n      jumpi\n      sub(shl(0xa0, 0x01), 0x01)\n        /* \"CLstaking.sol\":4416:4456  addressToStakedTokens[collectionAddress] */\n      dup1\n      dup4\n      and\n        /* \"CLstaking.sol\":4397:4413  uint256 _tokenId */\n      0x00\n        /* \"CLstaking.sol\":4416:4456  addressToStakedTokens[collectionAddress] */\n      swap1\n      dup2\n      mstore\n        /* \"CLstaking.sol\":4416:4437  addressToStakedTokens */\n      0x03\n        /* \"CLstaking.sol\":4416:4456  addressToStakedTokens[collectionAddress] */\n      0x20\n      swap1\n      dup2\n      mstore\n      0x40\n      dup1\n      dup4\n      keccak256\n        /* \"CLstaking.sol\":4416:4470  addressToStakedTokens[collectionAddress][_userAddress] */\n      swap4\n      dup11\n      and\n      dup4\n      mstore\n      swap3\n      swap1\n      mstore\n      swap1\n      dup2\n      keccak256\n        /* \"CLstaking.sol\":4416:4473  addressToStakedTokens[collectionAddress][_userAddress][i] */\n      dup1\n      sload\n        /* \"CLstaking.sol\":4471:4472  i */\n      dup4\n      swap1\n        /* \"CLstaking.sol\":4416:4473  addressToStakedTokens[collectionAddress][_userAddress][i] */\n      dup2\n      lt\n      tag_181\n      jumpi\n      tag_181\n      tag_123\n      jump\t// in\n    tag_181:\n      swap1\n      0x00\n      mstore\n      keccak256(0x00, 0x20)\n      add\n      sload\n        /* \"CLstaking.sol\":4397:4473  uint256 _tokenId = addressToStakedTokens[collectionAddress][_userAddress][i] */\n      swap1\n      pop\n        /* \"CLstaking.sol\":4504:4558  claimableReward(_userAddress, _collectionID, _tokenId) */\n      tag_183\n        /* \"CLstaking.sol\":4520:4532  _userAddress */\n      dup8\n        /* \"CLstaking.sol\":4534:4547  _collectionID */\n      dup8\n        /* \"CLstaking.sol\":4549:4557  _tokenId */\n      dup4\n        /* \"CLstaking.sol\":4504:4519  claimableReward */\n      tag_63\n        /* \"CLstaking.sol\":4504:4558  claimableReward(_userAddress, _collectionID, _tokenId) */\n      jump\t// in\n    tag_183:\n        /* \"CLstaking.sol\":4487:4558  payableAmount += claimableReward(_userAddress, _collectionID, _tokenId) */\n      tag_184\n      swap1\n      dup6\n      tag_185\n      jump\t// in\n    tag_184:\n      swap4\n      pop\n        /* \"CLstaking.sol\":4383:4569  {... */\n      pop\n        /* \"CLstaking.sol\":4378:4381  i++ */\n      dup1\n      dup1\n      tag_186\n      swap1\n      tag_126\n      jump\t// in\n    tag_186:\n      swap2\n      pop\n      pop\n        /* \"CLstaking.sol\":4295:4569  for (uint256 i; i < addressToStakedTokens[collectionAddress][_userAddress].length; i++) {... */\n      jump(tag_177)\n    tag_178:\n      pop\n        /* \"CLstaking.sol\":4585:4598  payableAmount */\n      swap1\n      swap5\n        /* \"CLstaking.sol\":4061:4605  function totalClaimableReward(address _userAddress, uint256 _collectionID) public view returns(uint256) {... */\n      swap4\n      pop\n      pop\n      pop\n      pop\n      jump\t// out\n        /* \"CLstaking.sol\":1441:1559  function setAdminRole(address admin) public onlyRole(DEFAULT_ADMIN_ROLE){... */\n    tag_76:\n        /* \"@openzeppelin/contracts/access/AccessControl.sol\":2072:2076  0x00 */\n      0x00\n        /* \"@openzeppelin/contracts/access/AccessControl.sol\":2505:2521  _checkRole(role) */\n      tag_188\n        /* \"@openzeppelin/contracts/access/AccessControl.sol\":2072:2076  0x00 */\n      dup2\n        /* \"@openzeppelin/contracts/access/AccessControl.sol\":2505:2515  _checkRole */\n      tag_145\n        /* \"@openzeppelin/contracts/access/AccessControl.sol\":2505:2521  _checkRole(role) */\n      jump\t// in\n    tag_188:\n        /* \"CLstaking.sol\":1523:1552  _setupRole(ADMIN_ROLE, admin) */\n      tag_171\n        /* \"CLstaking.sol\":1534:1544  ADMIN_ROLE */\n      sload(0x01)\n        /* \"CLstaking.sol\":1546:1551  admin */\n      dup4\n        /* \"CLstaking.sol\":1523:1533  _setupRole */\n      tag_191\n        /* \"CLstaking.sol\":1523:1552  _setupRole(ADMIN_ROLE, admin) */\n      jump\t// in\n        /* \"CLstaking.sol\":1565:1679  function stake(uint256 _collectionID, uint256 _tokenID) external {... */\n    tag_83:\n        /* \"CLstaking.sol\":1640:1672  _stake( _collectionID, _tokenID) */\n      tag_171\n        /* \"CLstaking.sol\":1648:1661  _collectionID */\n      dup3\n        /* \"CLstaking.sol\":1663:1671  _tokenID */\n      dup3\n        /* \"CLstaking.sol\":1640:1646  _stake */\n      tag_140\n        /* \"CLstaking.sol\":1640:1672  _stake( _collectionID, _tokenID) */\n      jump\t// in\n        /* \"CLstaking.sol\":5790:6139  function updateCollection(... */\n    tag_87:\n        /* \"CLstaking.sol\":5936:5946  ADMIN_ROLE */\n      sload(0x01)\n        /* \"@openzeppelin/contracts/access/AccessControl.sol\":2505:2521  _checkRole(role) */\n      tag_195\n        /* \"@openzeppelin/contracts/access/AccessControl.sol\":2516:2520  role */\n      dup2\n        /* \"@openzeppelin/contracts/access/AccessControl.sol\":2505:2515  _checkRole */\n      tag_145\n        /* \"@openzeppelin/contracts/access/AccessControl.sol\":2505:2521  _checkRole(role) */\n      jump\t// in\n    tag_195:\n        /* \"CLstaking.sol\":5959:5992  CollectionInfo storage collection */\n      0x00\n        /* \"CLstaking.sol\":5995:6009  collectionInfo */\n      0x06\n        /* \"CLstaking.sol\":6010:6023  _collectionID */\n      dup6\n        /* \"CLstaking.sol\":5995:6024  collectionInfo[_collectionID] */\n      dup2\n      sload\n      dup2\n      lt\n      tag_198\n      jumpi\n      tag_198\n      tag_123\n      jump\t// in\n    tag_198:\n      0x00\n      swap2\n      dup3\n      mstore\n      0x20\n      swap1\n      swap2\n      keccak256\n      0x03\n      swap1\n      swap2\n      mul\n      add\n        /* \"CLstaking.sol\":6034:6083  collection.collectionAddress = _collectionAddress */\n      dup1\n      sload\n      not(sub(shl(0xa0, 0x01), 0x01))\n      and\n      sub(shl(0xa0, 0x01), 0x01)\n      swap6\n      swap1\n      swap6\n      and\n      swap5\n      swap1\n      swap5\n      or\n      dup5\n      sstore\n      pop\n      pop\n      0x01\n        /* \"CLstaking.sol\":6093:6116  collection.rewardPerDay */\n      swap1\n      swap2\n      add\n        /* \"CLstaking.sol\":6093:6132  collection.rewardPerDay = _rewardPerDay */\n      sstore\n      pop\n        /* \"CLstaking.sol\":5790:6139  function updateCollection(... */\n      jump\t// out\n        /* \"CLstaking.sol\":6428:6644  function getTotalStakedItemsCount(uint256 _collectionID) external view returns (uint256) {... */\n    tag_90:\n        /* \"CLstaking.sol\":6508:6515  uint256 */\n      0x00\n        /* \"CLstaking.sol\":6527:6560  CollectionInfo storage collection */\n      dup1\n        /* \"CLstaking.sol\":6563:6577  collectionInfo */\n      0x06\n        /* \"CLstaking.sol\":6578:6591  _collectionID */\n      dup4\n        /* \"CLstaking.sol\":6563:6592  collectionInfo[_collectionID] */\n      dup2\n      sload\n      dup2\n      lt\n      tag_202\n      jumpi\n      tag_202\n      tag_123\n      jump\t// in\n    tag_202:\n      0x00\n      swap2\n      dup3\n      mstore\n      0x20\n      swap1\n      swap2\n      keccak256\n        /* \"CLstaking.sol\":6609:6637  collection.totalAmountStaked */\n      0x02\n        /* \"CLstaking.sol\":6563:6592  collectionInfo[_collectionID] */\n      0x03\n      swap1\n      swap3\n      mul\n      add\n        /* \"CLstaking.sol\":6609:6637  collection.totalAmountStaked */\n      add\n      sload\n      swap4\n        /* \"CLstaking.sol\":6428:6644  function getTotalStakedItemsCount(uint256 _collectionID) external view returns (uint256) {... */\n      swap3\n      pop\n      pop\n      pop\n      jump\t// out\n        /* \"@openzeppelin/contracts/access/AccessControl.sol\":2895:3040  function hasRole(bytes32 role, address account) public view virtual override returns (bool) {... */\n    tag_94:\n        /* \"@openzeppelin/contracts/access/AccessControl.sol\":2981:2985  bool */\n      0x00\n        /* \"@openzeppelin/contracts/access/AccessControl.sol\":3004:3016  _roles[role] */\n      swap2\n      dup3\n      mstore\n      0x20\n      dup3\n      dup2\n      mstore\n      0x40\n      dup1\n      dup5\n      keccak256\n      sub(shl(0xa0, 0x01), 0x01)\n        /* \"@openzeppelin/contracts/access/AccessControl.sol\":3004:3033  _roles[role].members[account] */\n      swap4\n      swap1\n      swap4\n      and\n      dup5\n      mstore\n      swap2\n      swap1\n      mstore\n      swap1\n      keccak256\n      sload\n      0xff\n      and\n      swap1\n        /* \"@openzeppelin/contracts/access/AccessControl.sol\":2895:3040  function hasRole(bytes32 role, address account) public view virtual override returns (bool) {... */\n      jump\t// out\n        /* \"CLstaking.sol\":2948:3065  function unstake(uint256 _collectionID, uint256 _tokenID) external {... */\n    tag_98:\n        /* \"CLstaking.sol\":3025:3058  _unstake(_collectionID, _tokenID) */\n      tag_171\n        /* \"CLstaking.sol\":3034:3047  _collectionID */\n      dup3\n        /* \"CLstaking.sol\":3049:3057  _tokenID */\n      dup3\n        /* \"CLstaking.sol\":3025:3033  _unstake */\n      tag_124\n        /* \"CLstaking.sol\":3025:3058  _unstake(_collectionID, _tokenID) */\n      jump\t// in\n        /* \"@openzeppelin/contracts/access/AccessControl.sol\":5149:5296  function revokeRole(bytes32 role, address account) public virtual override onlyRole(getRoleAdmin(role)) {... */\n    tag_104:\n        /* \"@openzeppelin/contracts/access/AccessControl.sol\":4465:4472  bytes32 */\n      0x00\n        /* \"@openzeppelin/contracts/access/AccessControl.sol\":4491:4503  _roles[role] */\n      dup3\n      dup2\n      mstore\n      0x20\n      dup2\n      swap1\n      mstore\n      0x40\n      swap1\n      keccak256\n        /* \"@openzeppelin/contracts/access/AccessControl.sol\":4491:4513  _roles[role].adminRole */\n      0x01\n      add\n      sload\n        /* \"@openzeppelin/contracts/access/AccessControl.sol\":2505:2521  _checkRole(role) */\n      tag_209\n        /* \"@openzeppelin/contracts/access/AccessControl.sol\":2516:2520  role */\n      dup2\n        /* \"@openzeppelin/contracts/access/AccessControl.sol\":2505:2515  _checkRole */\n      tag_145\n        /* \"@openzeppelin/contracts/access/AccessControl.sol\":2505:2521  _checkRole(role) */\n      jump\t// in\n    tag_209:\n        /* \"@openzeppelin/contracts/access/AccessControl.sol\":5263:5289  _revokeRole(role, account) */\n      tag_118\n        /* \"@openzeppelin/contracts/access/AccessControl.sol\":5275:5279  role */\n      dup4\n        /* \"@openzeppelin/contracts/access/AccessControl.sol\":5281:5288  account */\n      dup4\n        /* \"@openzeppelin/contracts/access/AccessControl.sol\":5263:5274  _revokeRole */\n      tag_172\n        /* \"@openzeppelin/contracts/access/AccessControl.sol\":5263:5289  _revokeRole(role, account) */\n      jump\t// in\n        /* \"CLstaking.sol\":6145:6422  function getUserStakedTokens(address _userAddress, uint256 _collectionID) external view returns(uint256[] memory){... */\n    tag_113:\n        /* \"CLstaking.sol\":6241:6257  uint256[] memory */\n      0x60\n        /* \"CLstaking.sol\":6268:6301  CollectionInfo storage collection */\n      0x00\n        /* \"CLstaking.sol\":6304:6318  collectionInfo */\n      0x06\n        /* \"CLstaking.sol\":6319:6332  _collectionID */\n      dup4\n        /* \"CLstaking.sol\":6304:6333  collectionInfo[_collectionID] */\n      dup2\n      sload\n      dup2\n      lt\n      tag_215\n      jumpi\n      tag_215\n      tag_123\n      jump\t// in\n    tag_215:\n      0x00\n      swap2\n      dup3\n      mstore\n      0x20\n      dup1\n      dup4\n      keccak256\n      0x03\n      swap3\n      dup4\n      mul\n      add\n        /* \"CLstaking.sol\":6372:6400  collection.collectionAddress */\n      dup1\n      sload\n      sub(shl(0xa0, 0x01), 0x01)\n      swap1\n      dup2\n      and\n        /* \"CLstaking.sol\":6350:6401  addressToStakedTokens[collection.collectionAddress] */\n      dup6\n      mstore\n      swap3\n      dup3\n      mstore\n      0x40\n      dup1\n      dup6\n      keccak256\n        /* \"CLstaking.sol\":6350:6415  addressToStakedTokens[collection.collectionAddress][_userAddress] */\n      swap4\n      dup10\n      and\n      dup6\n      mstore\n      swap3\n      dup3\n      mstore\n      swap3\n      dup3\n      swap1\n      keccak256\n        /* \"CLstaking.sol\":6343:6415  return addressToStakedTokens[collection.collectionAddress][_userAddress] */\n      dup1\n      sload\n      dup4\n      mload\n      dup2\n      dup5\n      mul\n      dup2\n      add\n      dup5\n      add\n      swap1\n      swap5\n      mstore\n      dup1\n      dup5\n      mstore\n        /* \"CLstaking.sol\":6304:6333  collectionInfo[_collectionID] */\n      swap4\n      swap5\n      pop\n        /* \"CLstaking.sol\":6343:6415  return addressToStakedTokens[collection.collectionAddress][_userAddress] */\n      swap2\n      swap3\n      swap1\n      dup4\n      add\n        /* \"CLstaking.sol\":6350:6415  addressToStakedTokens[collection.collectionAddress][_userAddress] */\n      dup3\n        /* \"CLstaking.sol\":6343:6415  return addressToStakedTokens[collection.collectionAddress][_userAddress] */\n      dup3\n      dup1\n      iszero\n      tag_217\n      jumpi\n      0x20\n      mul\n      dup3\n      add\n      swap2\n      swap1\n      0x00\n      mstore\n      keccak256(0x00, 0x20)\n      swap1\n    tag_218:\n      dup2\n      sload\n      dup2\n      mstore\n      0x20\n      add\n      swap1\n      0x01\n      add\n      swap1\n      dup1\n      dup4\n      gt\n      tag_218\n      jumpi\n    tag_217:\n      pop\n      pop\n      pop\n      pop\n      pop\n      swap2\n      pop\n      pop\n        /* \"CLstaking.sol\":6145:6422  function getUserStakedTokens(address _userAddress, uint256 _collectionID) external view returns(uint256[] memory){... */\n      swap3\n      swap2\n      pop\n      pop\n      jump\t// out\n        /* \"CLstaking.sol\":3071:4055  function _unstake(... */\n    tag_124:\n        /* \"CLstaking.sol\":3171:3204  CollectionInfo storage collection */\n      0x00\n        /* \"CLstaking.sol\":3207:3221  collectionInfo */\n      0x06\n        /* \"CLstaking.sol\":3222:3235  _collectionID */\n      dup4\n        /* \"CLstaking.sol\":3207:3236  collectionInfo[_collectionID] */\n      dup2\n      sload\n      dup2\n      lt\n      tag_221\n      jumpi\n      tag_221\n      tag_123\n      jump\t// in\n    tag_221:\n      0x00\n      swap2\n      dup3\n      mstore\n      0x20\n      dup1\n      dup4\n      keccak256\n      0x03\n      swap1\n      swap3\n      mul\n      swap1\n      swap2\n      add\n        /* \"CLstaking.sol\":3278:3306  collection.collectionAddress */\n      dup1\n      sload\n      sub(shl(0xa0, 0x01), 0x01)\n      swap1\n      dup2\n      and\n        /* \"CLstaking.sol\":3255:3307  contractTokenIdToOwner[collection.collectionAddress] */\n      dup5\n      mstore\n        /* \"CLstaking.sol\":3255:3277  contractTokenIdToOwner */\n      0x04\n        /* \"CLstaking.sol\":3255:3307  contractTokenIdToOwner[collection.collectionAddress] */\n      dup4\n      mstore\n      0x40\n      dup1\n      dup6\n      keccak256\n        /* \"CLstaking.sol\":3255:3317  contractTokenIdToOwner[collection.collectionAddress][_tokenID] */\n      dup8\n      dup7\n      mstore\n      swap1\n      swap4\n      mstore\n      swap2\n      swap1\n      swap3\n      keccak256\n      sload\n        /* \"CLstaking.sol\":3207:3236  collectionInfo[_collectionID] */\n      swap2\n      swap3\n      pop\n        /* \"CLstaking.sol\":3255:3317  contractTokenIdToOwner[collection.collectionAddress][_tokenID] */\n      and\n        /* \"CLstaking.sol\":3321:3331  msg.sender */\n      caller\n        /* \"CLstaking.sol\":3255:3331  contractTokenIdToOwner[collection.collectionAddress][_tokenID] == msg.sender */\n      eq\n        /* \"CLstaking.sol\":3247:3402  require(contractTokenIdToOwner[collection.collectionAddress][_tokenID] == msg.sender,... */\n      tag_223\n      jumpi\n      mload(0x40)\n      shl(0xe5, 0x461bcd)\n      dup2\n      mstore\n        /* \"#utility.yul\":7157:7159   */\n      0x20\n        /* \"CLstaking.sol\":3247:3402  require(contractTokenIdToOwner[collection.collectionAddress][_tokenID] == msg.sender,... */\n      0x04\n      dup3\n      add\n        /* \"#utility.yul\":7139:7160   */\n      mstore\n        /* \"#utility.yul\":7196:7198   */\n      0x2d\n        /* \"#utility.yul\":7176:7194   */\n      0x24\n      dup3\n      add\n        /* \"#utility.yul\":7169:7199   */\n      mstore\n        /* \"#utility.yul\":7235:7269   */\n      0x746f6b656e206973206e6f74207374616b6564206f722073656e64657220646f\n        /* \"#utility.yul\":7215:7233   */\n      0x44\n      dup3\n      add\n        /* \"#utility.yul\":7208:7270   */\n      mstore\n      shl(0x9a, 0x195cc81b9bdd081bdddb881a5d)\n        /* \"#utility.yul\":7286:7304   */\n      0x64\n      dup3\n      add\n        /* \"#utility.yul\":7279:7322   */\n      mstore\n        /* \"#utility.yul\":7339:7358   */\n      0x84\n      add\n        /* \"CLstaking.sol\":3247:3402  require(contractTokenIdToOwner[collection.collectionAddress][_tokenID] == msg.sender,... */\n      tag_169\n        /* \"#utility.yul\":6955:7364   */\n      jump\n        /* \"CLstaking.sol\":3247:3402  require(contractTokenIdToOwner[collection.collectionAddress][_tokenID] == msg.sender,... */\n    tag_223:\n        /* \"CLstaking.sol\":3413:3462  _claimReward(msg.sender, _collectionID, _tokenID) */\n      tag_226\n        /* \"CLstaking.sol\":3426:3436  msg.sender */\n      caller\n        /* \"CLstaking.sol\":3438:3451  _collectionID */\n      dup5\n        /* \"CLstaking.sol\":3453:3461  _tokenID */\n      dup5\n        /* \"CLstaking.sol\":3413:3425  _claimReward */\n      tag_227\n        /* \"CLstaking.sol\":3413:3462  _claimReward(msg.sender, _collectionID, _tokenID) */\n      jump\t// in\n    tag_226:\n        /* \"CLstaking.sol\":3571:3599  collection.collectionAddress */\n      dup1\n      sload\n      sub(shl(0xa0, 0x01), 0x01)\n      and\n        /* \"CLstaking.sol\":3549:3600  addressToStakedTokens[collection.collectionAddress] */\n      0x00\n      swap1\n      dup2\n      mstore\n        /* \"CLstaking.sol\":3549:3570  addressToStakedTokens */\n      0x03\n        /* \"CLstaking.sol\":3549:3600  addressToStakedTokens[collection.collectionAddress] */\n      0x20\n      swap1\n      dup2\n      mstore\n      0x40\n      dup1\n      dup4\n      keccak256\n        /* \"CLstaking.sol\":3601:3611  msg.sender */\n      caller\n        /* \"CLstaking.sol\":3549:3612  addressToStakedTokens[collection.collectionAddress][msg.sender] */\n      dup5\n      mstore\n      swap1\n      swap2\n      mstore\n      swap1\n      keccak256\n        /* \"CLstaking.sol\":3534:3623  _removeElement(addressToStakedTokens[collection.collectionAddress][msg.sender], _tokenID) */\n      tag_228\n      swap1\n        /* \"CLstaking.sol\":3614:3622  _tokenID */\n      dup4\n        /* \"CLstaking.sol\":3534:3548  _removeElement */\n      tag_229\n        /* \"CLstaking.sol\":3534:3623  _removeElement(addressToStakedTokens[collection.collectionAddress][msg.sender], _tokenID) */\n      jump\t// in\n    tag_228:\n        /* \"CLstaking.sol\":3715:3743  collection.collectionAddress */\n      dup1\n      sload\n      sub(shl(0xa0, 0x01), 0x01)\n      swap1\n      dup2\n      and\n        /* \"CLstaking.sol\":3692:3744  contractTokenIdToOwner[collection.collectionAddress] */\n      0x00\n      swap1\n      dup2\n      mstore\n        /* \"CLstaking.sol\":3692:3714  contractTokenIdToOwner */\n      0x04\n        /* \"CLstaking.sol\":3692:3744  contractTokenIdToOwner[collection.collectionAddress] */\n      0x20\n      swap1\n      dup2\n      mstore\n      0x40\n      dup1\n      dup4\n      keccak256\n        /* \"CLstaking.sol\":3692:3754  contractTokenIdToOwner[collection.collectionAddress][_tokenID] */\n      dup7\n      dup5\n      mstore\n      dup3\n      mstore\n      dup1\n      dup4\n      keccak256\n        /* \"CLstaking.sol\":3685:3754  delete contractTokenIdToOwner[collection.collectionAddress][_tokenID] */\n      dup1\n      sload\n      not(sub(shl(0xa0, 0x01), 0x01))\n      and\n      swap1\n      sstore\n        /* \"CLstaking.sol\":3858:3886  collection.collectionAddress */\n      dup5\n      sload\n      swap1\n      swap4\n      and\n        /* \"CLstaking.sol\":3825:3887  contractTokenIdToStakedTimestamp[collection.collectionAddress] */\n      dup3\n      mstore\n        /* \"CLstaking.sol\":3825:3857  contractTokenIdToStakedTimestamp */\n      0x05\n        /* \"CLstaking.sol\":3825:3887  contractTokenIdToStakedTimestamp[collection.collectionAddress] */\n      dup2\n      mstore\n      dup3\n      dup3\n      keccak256\n        /* \"CLstaking.sol\":3825:3897  contractTokenIdToStakedTimestamp[collection.collectionAddress][_tokenID] */\n      dup6\n      dup4\n      mstore\n      swap1\n      mstore\n      swap1\n      dup2\n      keccak256\n        /* \"CLstaking.sol\":3818:3897  delete contractTokenIdToStakedTimestamp[collection.collectionAddress][_tokenID] */\n      dup2\n      swap1\n      sstore\n        /* \"CLstaking.sol\":3908:3936  collection.totalAmountStaked */\n      0x02\n      dup3\n      add\n        /* \"CLstaking.sol\":3908:3941  collection.totalAmountStaked -= 1 */\n      dup1\n      sload\n        /* \"CLstaking.sol\":3715:3743  collection.collectionAddress */\n      0x01\n      swap3\n        /* \"CLstaking.sol\":3692:3744  contractTokenIdToOwner[collection.collectionAddress] */\n      swap1\n        /* \"CLstaking.sol\":3908:3941  collection.totalAmountStaked -= 1 */\n      tag_230\n      swap1\n        /* \"CLstaking.sol\":3715:3743  collection.collectionAddress */\n      dup5\n      swap1\n        /* \"CLstaking.sol\":3908:3941  collection.totalAmountStaked -= 1 */\n      tag_162\n      jump\t// in\n    tag_230:\n      swap1\n      swap2\n      sstore\n      pop\n      pop\n        /* \"CLstaking.sol\":3960:3988  collection.collectionAddress */\n      dup1\n      sload\n        /* \"CLstaking.sol\":3952:4039  IERC721(collection.collectionAddress).transferFrom(address(this), msg.sender, _tokenID) */\n      mload(0x40)\n      shl(0xe0, 0x23b872dd)\n      dup2\n      mstore\n        /* \"CLstaking.sol\":4011:4015  this */\n      address\n        /* \"CLstaking.sol\":3952:4039  IERC721(collection.collectionAddress).transferFrom(address(this), msg.sender, _tokenID) */\n      0x04\n      dup3\n      add\n        /* \"#utility.yul\":7609:7643   */\n      mstore\n        /* \"CLstaking.sol\":4018:4028  msg.sender */\n      caller\n        /* \"#utility.yul\":7659:7677   */\n      0x24\n      dup3\n      add\n        /* \"#utility.yul\":7652:7695   */\n      mstore\n        /* \"#utility.yul\":7711:7729   */\n      0x44\n      dup2\n      add\n        /* \"#utility.yul\":7704:7738   */\n      dup5\n      swap1\n      mstore\n      sub(shl(0xa0, 0x01), 0x01)\n        /* \"CLstaking.sol\":3960:3988  collection.collectionAddress */\n      swap1\n      swap2\n      and\n      swap1\n        /* \"CLstaking.sol\":3952:4002  IERC721(collection.collectionAddress).transferFrom */\n      0x23b872dd\n      swap1\n        /* \"#utility.yul\":7544:7562   */\n      0x64\n      add\n        /* \"CLstaking.sol\":3952:4039  IERC721(collection.collectionAddress).transferFrom(address(this), msg.sender, _tokenID) */\n    tag_231:\n      0x00\n      mload(0x40)\n      dup1\n      dup4\n      sub\n      dup2\n      0x00\n      dup8\n      dup1\n      extcodesize\n      iszero\n      dup1\n      iszero\n      tag_233\n      jumpi\n      0x00\n      dup1\n      revert\n    tag_233:\n      pop\n      gas\n      call\n      iszero\n      dup1\n      iszero\n      tag_235\n      jumpi\n      returndatasize\n      0x00\n      dup1\n      returndatacopy\n      revert(0x00, returndatasize)\n    tag_235:\n      pop\n      pop\n      pop\n      pop\n        /* \"CLstaking.sol\":3161:4055  {... */\n      pop\n        /* \"CLstaking.sol\":3071:4055  function _unstake(... */\n      pop\n      pop\n      jump\t// out\n        /* \"CLstaking.sol\":1685:2520  function _stake(... */\n    tag_140:\n        /* \"CLstaking.sol\":1783:1816  CollectionInfo storage collection */\n      0x00\n        /* \"CLstaking.sol\":1819:1833  collectionInfo */\n      0x06\n        /* \"CLstaking.sol\":1834:1847  _collectionID */\n      dup4\n        /* \"CLstaking.sol\":1819:1848  collectionInfo[_collectionID] */\n      dup2\n      sload\n      dup2\n      lt\n      tag_239\n      jumpi\n      tag_239\n      tag_123\n      jump\t// in\n    tag_239:\n      0x00\n      swap2\n      dup3\n      mstore\n      0x20\n      dup1\n      dup4\n      keccak256\n      0x03\n      swap3\n      dup4\n      mul\n      add\n        /* \"CLstaking.sol\":1950:1978  collection.collectionAddress */\n      dup1\n      sload\n      sub(shl(0xa0, 0x01), 0x01)\n      swap1\n      dup2\n      and\n        /* \"CLstaking.sol\":1927:1979  contractTokenIdToOwner[collection.collectionAddress] */\n      dup6\n      mstore\n        /* \"CLstaking.sol\":1927:1949  contractTokenIdToOwner */\n      0x04\n        /* \"CLstaking.sol\":1927:1979  contractTokenIdToOwner[collection.collectionAddress] */\n      dup4\n      mstore\n      0x40\n      dup1\n      dup7\n      keccak256\n        /* \"CLstaking.sol\":1927:1989  contractTokenIdToOwner[collection.collectionAddress][_tokenID] */\n      dup9\n      dup8\n      mstore\n      dup5\n      mstore\n      dup1\n      dup7\n      keccak256\n        /* \"CLstaking.sol\":1927:2002  contractTokenIdToOwner[collection.collectionAddress][_tokenID] = msg.sender */\n      dup1\n      sload\n      not(sub(shl(0xa0, 0x01), 0x01))\n      and\n        /* \"CLstaking.sol\":1992:2002  msg.sender */\n      caller\n        /* \"CLstaking.sol\":1927:2002  contractTokenIdToOwner[collection.collectionAddress][_tokenID] = msg.sender */\n      swap1\n      dup2\n      or\n      swap1\n      swap2\n      sstore\n        /* \"CLstaking.sol\":2084:2112  collection.collectionAddress */\n      dup4\n      sload\n      dup4\n      and\n        /* \"CLstaking.sol\":2051:2113  contractTokenIdToStakedTimestamp[collection.collectionAddress] */\n      dup8\n      mstore\n        /* \"CLstaking.sol\":2051:2083  contractTokenIdToStakedTimestamp */\n      0x05\n        /* \"CLstaking.sol\":2051:2113  contractTokenIdToStakedTimestamp[collection.collectionAddress] */\n      dup6\n      mstore\n      dup2\n      dup8\n      keccak256\n        /* \"CLstaking.sol\":2051:2123  contractTokenIdToStakedTimestamp[collection.collectionAddress][_tokenID] */\n      dup10\n      dup9\n      mstore\n      dup6\n      mstore\n      dup2\n      dup8\n      keccak256\n        /* \"CLstaking.sol\":2126:2141  block.timestamp */\n      timestamp\n        /* \"CLstaking.sol\":2051:2141  contractTokenIdToStakedTimestamp[collection.collectionAddress][_tokenID] = block.timestamp */\n      swap1\n      sstore\n        /* \"CLstaking.sol\":2256:2284  collection.collectionAddress */\n      dup4\n      sload\n      swap1\n      swap3\n      and\n        /* \"CLstaking.sol\":2234:2285  addressToStakedTokens[collection.collectionAddress] */\n      dup7\n      mstore\n      swap4\n      dup4\n      mstore\n      dup4\n      dup6\n      keccak256\n        /* \"CLstaking.sol\":2234:2297  addressToStakedTokens[collection.collectionAddress][msg.sender] */\n      swap1\n      dup6\n      mstore\n      dup3\n      mstore\n      swap2\n      dup4\n      keccak256\n        /* \"CLstaking.sol\":2234:2312  addressToStakedTokens[collection.collectionAddress][msg.sender].push(_tokenID) */\n      dup1\n      sload\n        /* \"CLstaking.sol\":1950:1978  collection.collectionAddress */\n      0x01\n        /* \"CLstaking.sol\":2234:2312  addressToStakedTokens[collection.collectionAddress][msg.sender].push(_tokenID) */\n      dup2\n      dup2\n      add\n      dup4\n      sstore\n      swap2\n      dup6\n      mstore\n      swap2\n      dup5\n      keccak256\n      swap1\n      swap2\n      add\n      dup6\n      swap1\n      sstore\n        /* \"CLstaking.sol\":2323:2351  collection.totalAmountStaked */\n      0x02\n      dup3\n      add\n        /* \"CLstaking.sol\":2323:2356  collection.totalAmountStaked += 1 */\n      dup1\n      sload\n        /* \"CLstaking.sol\":1819:1848  collectionInfo[_collectionID] */\n      swap3\n      swap5\n      pop\n        /* \"CLstaking.sol\":1950:1978  collection.collectionAddress */\n      swap1\n      swap3\n        /* \"CLstaking.sol\":2323:2351  collection.totalAmountStaked */\n      swap1\n      swap2\n        /* \"CLstaking.sol\":2323:2356  collection.totalAmountStaked += 1 */\n      tag_242\n      swap1\n        /* \"CLstaking.sol\":1950:1978  collection.collectionAddress */\n      dup5\n      swap1\n        /* \"CLstaking.sol\":2323:2356  collection.totalAmountStaked += 1 */\n      tag_185\n      jump\t// in\n    tag_242:\n      swap1\n      swap2\n      sstore\n      pop\n      pop\n        /* \"CLstaking.sol\":2434:2462  collection.collectionAddress */\n      dup1\n      sload\n        /* \"CLstaking.sol\":2426:2513  IERC721(collection.collectionAddress).transferFrom(msg.sender, address(this), _tokenID) */\n      mload(0x40)\n      shl(0xe0, 0x23b872dd)\n      dup2\n      mstore\n        /* \"CLstaking.sol\":2477:2487  msg.sender */\n      caller\n        /* \"CLstaking.sol\":2426:2513  IERC721(collection.collectionAddress).transferFrom(msg.sender, address(this), _tokenID) */\n      0x04\n      dup3\n      add\n        /* \"#utility.yul\":7609:7643   */\n      mstore\n        /* \"CLstaking.sol\":2497:2501  this */\n      address\n        /* \"#utility.yul\":7659:7677   */\n      0x24\n      dup3\n      add\n        /* \"#utility.yul\":7652:7695   */\n      mstore\n        /* \"#utility.yul\":7711:7729   */\n      0x44\n      dup2\n      add\n        /* \"#utility.yul\":7704:7738   */\n      dup5\n      swap1\n      mstore\n      sub(shl(0xa0, 0x01), 0x01)\n        /* \"CLstaking.sol\":2434:2462  collection.collectionAddress */\n      swap1\n      swap2\n      and\n      swap1\n        /* \"CLstaking.sol\":2426:2476  IERC721(collection.collectionAddress).transferFrom */\n      0x23b872dd\n      swap1\n        /* \"#utility.yul\":7544:7562   */\n      0x64\n      add\n        /* \"CLstaking.sol\":2426:2513  IERC721(collection.collectionAddress).transferFrom(msg.sender, address(this), _tokenID) */\n      tag_231\n        /* \"#utility.yul\":7369:7744   */\n      jump\n        /* \"@openzeppelin/contracts/access/AccessControl.sol\":3334:3437  function _checkRole(bytes32 role) internal view virtual {... */\n    tag_145:\n        /* \"@openzeppelin/contracts/access/AccessControl.sol\":3400:3430  _checkRole(role, _msgSender()) */\n      tag_248\n        /* \"@openzeppelin/contracts/access/AccessControl.sol\":3411:3415  role */\n      dup2\n        /* \"@openzeppelin/contracts/utils/Context.sol\":719:729  msg.sender */\n      caller\n        /* \"@openzeppelin/contracts/access/AccessControl.sol\":3400:3410  _checkRole */\n      tag_250\n        /* \"@openzeppelin/contracts/access/AccessControl.sol\":3400:3430  _checkRole(role, _msgSender()) */\n      jump\t// in\n    tag_248:\n        /* \"@openzeppelin/contracts/access/AccessControl.sol\":3334:3437  function _checkRole(bytes32 role) internal view virtual {... */\n      pop\n      jump\t// out\n        /* \"@openzeppelin/contracts/access/AccessControl.sol\":7244:7477  function _grantRole(bytes32 role, address account) internal virtual {... */\n    tag_153:\n        /* \"@openzeppelin/contracts/access/AccessControl.sol\":7327:7349  hasRole(role, account) */\n      tag_252\n        /* \"@openzeppelin/contracts/access/AccessControl.sol\":7335:7339  role */\n      dup3\n        /* \"@openzeppelin/contracts/access/AccessControl.sol\":7341:7348  account */\n      dup3\n        /* \"@openzeppelin/contracts/access/AccessControl.sol\":7327:7334  hasRole */\n      tag_94\n        /* \"@openzeppelin/contracts/access/AccessControl.sol\":7327:7349  hasRole(role, account) */\n      jump\t// in\n    tag_252:\n        /* \"@openzeppelin/contracts/access/AccessControl.sol\":7322:7471  if (!hasRole(role, account)) {... */\n      tag_171\n      jumpi\n        /* \"@openzeppelin/contracts/access/AccessControl.sol\":7365:7371  _roles */\n      0x00\n        /* \"@openzeppelin/contracts/access/AccessControl.sol\":7365:7377  _roles[role] */\n      dup3\n      dup2\n      mstore\n      0x20\n      dup2\n      dup2\n      mstore\n      0x40\n      dup1\n      dup4\n      keccak256\n      sub(shl(0xa0, 0x01), 0x01)\n        /* \"@openzeppelin/contracts/access/AccessControl.sol\":7365:7394  _roles[role].members[account] */\n      dup6\n      and\n      dup5\n      mstore\n      swap1\n      swap2\n      mstore\n      swap1\n      keccak256\n        /* \"@openzeppelin/contracts/access/AccessControl.sol\":7365:7401  _roles[role].members[account] = true */\n      dup1\n      sload\n      not(0xff)\n      and\n        /* \"@openzeppelin/contracts/access/AccessControl.sol\":7397:7401  true */\n      0x01\n        /* \"@openzeppelin/contracts/access/AccessControl.sol\":7365:7401  _roles[role].members[account] = true */\n      or\n      swap1\n      sstore\n        /* \"@openzeppelin/contracts/access/AccessControl.sol\":7447:7459  _msgSender() */\n      tag_254\n        /* \"@openzeppelin/contracts/utils/Context.sol\":719:729  msg.sender */\n      caller\n      swap1\n        /* \"@openzeppelin/contracts/utils/Context.sol\":640:736  function _msgSender() internal view virtual returns (address) {... */\n      jump\n        /* \"@openzeppelin/contracts/access/AccessControl.sol\":7447:7459  _msgSender() */\n    tag_254:\n      sub(shl(0xa0, 0x01), 0x01)\n        /* \"@openzeppelin/contracts/access/AccessControl.sol\":7420:7460  RoleGranted(role, account, _msgSender()) */\n      and\n        /* \"@openzeppelin/contracts/access/AccessControl.sol\":7438:7445  account */\n      dup2\n      sub(shl(0xa0, 0x01), 0x01)\n        /* \"@openzeppelin/contracts/access/AccessControl.sol\":7420:7460  RoleGranted(role, account, _msgSender()) */\n      and\n        /* \"@openzeppelin/contracts/access/AccessControl.sol\":7432:7436  role */\n      dup4\n        /* \"@openzeppelin/contracts/access/AccessControl.sol\":7420:7460  RoleGranted(role, account, _msgSender()) */\n      0x2f8788117e7eff1d82e926ec794901d17c78024a50270940304540a733656f0d\n      mload(0x40)\n      mload(0x40)\n      dup1\n      swap2\n      sub\n      swap1\n      log4\n        /* \"@openzeppelin/contracts/access/AccessControl.sol\":7244:7477  function _grantRole(bytes32 role, address account) internal virtual {... */\n      pop\n      pop\n      jump\t// out\n        /* \"@openzeppelin/contracts/utils/math/SafeMath.sol\":3850:3946  function div(uint256 a, uint256 b) internal pure returns (uint256) {... */\n    tag_163:\n        /* \"@openzeppelin/contracts/utils/math/SafeMath.sol\":3908:3915  uint256 */\n      0x00\n        /* \"@openzeppelin/contracts/utils/math/SafeMath.sol\":3934:3939  a / b */\n      tag_154\n        /* \"@openzeppelin/contracts/utils/math/SafeMath.sol\":3938:3939  b */\n      dup3\n        /* \"@openzeppelin/contracts/utils/math/SafeMath.sol\":3934:3935  a */\n      dup5\n        /* \"@openzeppelin/contracts/utils/math/SafeMath.sol\":3934:3939  a / b */\n      tag_257\n      jump\t// in\n        /* \"@openzeppelin/contracts/utils/math/SafeMath.sol\":3465:3561  function mul(uint256 a, uint256 b) internal pure returns (uint256) {... */\n    tag_164:\n        /* \"@openzeppelin/contracts/utils/math/SafeMath.sol\":3523:3530  uint256 */\n      0x00\n        /* \"@openzeppelin/contracts/utils/math/SafeMath.sol\":3549:3554  a * b */\n      tag_154\n        /* \"@openzeppelin/contracts/utils/math/SafeMath.sol\":3553:3554  b */\n      dup3\n        /* \"@openzeppelin/contracts/utils/math/SafeMath.sol\":3549:3550  a */\n      dup5\n        /* \"@openzeppelin/contracts/utils/math/SafeMath.sol\":3549:3554  a * b */\n      tag_260\n      jump\t// in\n        /* \"@openzeppelin/contracts/access/AccessControl.sol\":7602:7836  function _revokeRole(bytes32 role, address account) internal virtual {... */\n    tag_172:\n        /* \"@openzeppelin/contracts/access/AccessControl.sol\":7685:7707  hasRole(role, account) */\n      tag_263\n        /* \"@openzeppelin/contracts/access/AccessControl.sol\":7693:7697  role */\n      dup3\n        /* \"@openzeppelin/contracts/access/AccessControl.sol\":7699:7706  account */\n      dup3\n        /* \"@openzeppelin/contracts/access/AccessControl.sol\":7685:7692  hasRole */\n      tag_94\n        /* \"@openzeppelin/contracts/access/AccessControl.sol\":7685:7707  hasRole(role, account) */\n      jump\t// in\n    tag_263:\n        /* \"@openzeppelin/contracts/access/AccessControl.sol\":7681:7830  if (hasRole(role, account)) {... */\n      iszero\n      tag_171\n      jumpi\n        /* \"@openzeppelin/contracts/access/AccessControl.sol\":7755:7760  false */\n      0x00\n        /* \"@openzeppelin/contracts/access/AccessControl.sol\":7723:7735  _roles[role] */\n      dup3\n      dup2\n      mstore\n      0x20\n      dup2\n      dup2\n      mstore\n      0x40\n      dup1\n      dup4\n      keccak256\n      sub(shl(0xa0, 0x01), 0x01)\n        /* \"@openzeppelin/contracts/access/AccessControl.sol\":7723:7752  _roles[role].members[account] */\n      dup6\n      and\n      dup1\n      dup6\n      mstore\n      swap3\n      mstore\n      dup1\n      dup4\n      keccak256\n        /* \"@openzeppelin/contracts/access/AccessControl.sol\":7723:7760  _roles[role].members[account] = false */\n      dup1\n      sload\n      not(0xff)\n      and\n      swap1\n      sstore\n        /* \"@openzeppelin/contracts/access/AccessControl.sol\":7779:7819  RoleRevoked(role, account, _msgSender()) */\n      mload\n        /* \"@openzeppelin/contracts/utils/Context.sol\":719:729  msg.sender */\n      caller\n      swap3\n        /* \"@openzeppelin/contracts/access/AccessControl.sol\":7723:7735  _roles[role] */\n      dup6\n      swap2\n        /* \"@openzeppelin/contracts/access/AccessControl.sol\":7779:7819  RoleRevoked(role, account, _msgSender()) */\n      0xf6391f5c32d9c69d2a47ea670b442974b53935d1edc7fd64eb21e047a839171b\n      swap2\n        /* \"@openzeppelin/contracts/access/AccessControl.sol\":7755:7760  false */\n      swap1\n        /* \"@openzeppelin/contracts/access/AccessControl.sol\":7779:7819  RoleRevoked(role, account, _msgSender()) */\n      log4\n        /* \"@openzeppelin/contracts/access/AccessControl.sol\":7602:7836  function _revokeRole(bytes32 role, address account) internal virtual {... */\n      pop\n      pop\n      jump\t// out\n        /* \"@openzeppelin/contracts/access/AccessControl.sol\":6640:6750  function _setupRole(bytes32 role, address account) internal virtual {... */\n    tag_191:\n        /* \"@openzeppelin/contracts/access/AccessControl.sol\":6718:6743  _grantRole(role, account) */\n      tag_171\n        /* \"@openzeppelin/contracts/access/AccessControl.sol\":6729:6733  role */\n      dup3\n        /* \"@openzeppelin/contracts/access/AccessControl.sol\":6735:6742  account */\n      dup3\n        /* \"@openzeppelin/contracts/access/AccessControl.sol\":6718:6728  _grantRole */\n      tag_153\n        /* \"@openzeppelin/contracts/access/AccessControl.sol\":6718:6743  _grantRole(role, account) */\n      jump\t// in\n        /* \"CLstaking.sol\":5252:5509  function _claimReward(address _userAddress, uint256 _collectionID,uint256 _tokenID) internal {... */\n    tag_227:\n        /* \"CLstaking.sol\":5355:5376  uint256 payableAmount */\n      0x00\n        /* \"CLstaking.sol\":5379:5432  claimableReward(_userAddress, _collectionID,_tokenID) */\n      tag_269\n        /* \"CLstaking.sol\":5395:5407  _userAddress */\n      dup5\n        /* \"CLstaking.sol\":5409:5422  _collectionID */\n      dup5\n        /* \"CLstaking.sol\":5423:5431  _tokenID */\n      dup5\n        /* \"CLstaking.sol\":5379:5394  claimableReward */\n      tag_63\n        /* \"CLstaking.sol\":5379:5432  claimableReward(_userAddress, _collectionID,_tokenID) */\n      jump\t// in\n    tag_269:\n        /* \"CLstaking.sol\":5451:5470  rewardsTokenAddress */\n      sload(0x02)\n        /* \"CLstaking.sol\":5442:5502  Mintable(rewardsTokenAddress).mint(msg.sender,payableAmount) */\n      mload(0x40)\n      shl(0xe0, 0x40c10f19)\n      dup2\n      mstore\n        /* \"CLstaking.sol\":5477:5487  msg.sender */\n      caller\n        /* \"CLstaking.sol\":5442:5502  Mintable(rewardsTokenAddress).mint(msg.sender,payableAmount) */\n      0x04\n      dup3\n      add\n        /* \"#utility.yul\":8318:8369   */\n      mstore\n        /* \"#utility.yul\":8385:8403   */\n      0x24\n      dup2\n      add\n        /* \"#utility.yul\":8378:8412   */\n      dup4\n      swap1\n      mstore\n        /* \"CLstaking.sol\":5355:5432  uint256 payableAmount = claimableReward(_userAddress, _collectionID,_tokenID) */\n      swap2\n      swap3\n      pop\n      sub(shl(0xa0, 0x01), 0x01)\n        /* \"CLstaking.sol\":5451:5470  rewardsTokenAddress */\n      and\n      swap1\n        /* \"CLstaking.sol\":5442:5476  Mintable(rewardsTokenAddress).mint */\n      0x40c10f19\n      swap1\n        /* \"#utility.yul\":8291:8309   */\n      0x44\n      add\n        /* \"CLstaking.sol\":5442:5502  Mintable(rewardsTokenAddress).mint(msg.sender,payableAmount) */\n      0x00\n      mload(0x40)\n      dup1\n      dup4\n      sub\n      dup2\n      0x00\n      dup8\n      dup1\n      extcodesize\n      iszero\n      dup1\n      iszero\n      tag_272\n      jumpi\n      0x00\n      dup1\n      revert\n    tag_272:\n      pop\n      gas\n      call\n      iszero\n      dup1\n      iszero\n      tag_274\n      jumpi\n      returndatasize\n      0x00\n      dup1\n      returndatacopy\n      revert(0x00, returndatasize)\n    tag_274:\n      pop\n      pop\n      pop\n      pop\n        /* \"CLstaking.sol\":5345:5509  {... */\n      pop\n        /* \"CLstaking.sol\":5252:5509  function _claimReward(address _userAddress, uint256 _collectionID,uint256 _tokenID) internal {... */\n      pop\n      pop\n      pop\n      jump\t// out\n        /* \"CLstaking.sol\":6779:7087  function _removeElement(uint256[] storage _array, uint256 _element) internal {... */\n    tag_229:\n        /* \"CLstaking.sol\":6872:6881  uint256 i */\n      0x00\n        /* \"CLstaking.sol\":6867:7081  for (uint256 i; i < _array.length; i++) {... */\n    tag_276:\n        /* \"CLstaking.sol\":6887:6900  _array.length */\n      dup3\n      sload\n        /* \"CLstaking.sol\":6883:6900  i < _array.length */\n      dup2\n      lt\n        /* \"CLstaking.sol\":6867:7081  for (uint256 i; i < _array.length; i++) {... */\n      iszero\n      tag_118\n      jumpi\n        /* \"CLstaking.sol\":6938:6946  _element */\n      dup2\n        /* \"CLstaking.sol\":6925:6931  _array */\n      dup4\n        /* \"CLstaking.sol\":6932:6933  i */\n      dup3\n        /* \"CLstaking.sol\":6925:6934  _array[i] */\n      dup2\n      sload\n      dup2\n      lt\n      tag_280\n      jumpi\n      tag_280\n      tag_123\n      jump\t// in\n    tag_280:\n      swap1\n      0x00\n      mstore\n      keccak256(0x00, 0x20)\n      add\n      sload\n        /* \"CLstaking.sol\":6925:6946  _array[i] == _element */\n      sub\n        /* \"CLstaking.sol\":6921:7071  if (_array[i] == _element) {... */\n      tag_282\n      jumpi\n        /* \"CLstaking.sol\":6985:6998  _array.length */\n      dup3\n      sload\n        /* \"CLstaking.sol\":6978:6984  _array */\n      dup4\n      swap1\n        /* \"CLstaking.sol\":6985:7002  _array.length - 1 */\n      tag_283\n      swap1\n        /* \"CLstaking.sol\":7001:7002  1 */\n      0x01\n      swap1\n        /* \"CLstaking.sol\":6985:7002  _array.length - 1 */\n      tag_162\n      jump\t// in\n    tag_283:\n        /* \"CLstaking.sol\":6978:7003  _array[_array.length - 1] */\n      dup2\n      sload\n      dup2\n      lt\n      tag_285\n      jumpi\n      tag_285\n      tag_123\n      jump\t// in\n    tag_285:\n      swap1\n      0x00\n      mstore\n      keccak256(0x00, 0x20)\n      add\n      sload\n        /* \"CLstaking.sol\":6966:6972  _array */\n      dup4\n        /* \"CLstaking.sol\":6973:6974  i */\n      dup3\n        /* \"CLstaking.sol\":6966:6975  _array[i] */\n      dup2\n      sload\n      dup2\n      lt\n      tag_288\n      jumpi\n      tag_288\n      tag_123\n      jump\t// in\n    tag_288:\n      swap1\n      0x00\n      mstore\n      keccak256(0x00, 0x20)\n      add\n        /* \"CLstaking.sol\":6966:7003  _array[i] = _array[_array.length - 1] */\n      dup2\n      swap1\n      sstore\n      pop\n        /* \"CLstaking.sol\":7021:7027  _array */\n      dup3\n        /* \"CLstaking.sol\":7021:7033  _array.pop() */\n      dup1\n      sload\n      dup1\n      tag_291\n      jumpi\n      tag_291\n      tag_292\n      jump\t// in\n    tag_291:\n      0x01\n      swap1\n      sub\n      dup2\n      dup2\n      swap1\n      0x00\n      mstore\n      keccak256(0x00, 0x20)\n      add\n      0x00\n      swap1\n      sstore\n      swap1\n      sstore\n        /* \"CLstaking.sol\":2827:2936  for (uint256 i = 0; i < _tokenIDs.length; ++i) {... */\n      pop\n        /* \"CLstaking.sol\":2735:2942  function batchUnstake(uint256 _collectionID, uint256[] memory _tokenIDs) external {... */\n      pop\n      pop\n      jump\t// out\n        /* \"CLstaking.sol\":6921:7071  if (_array[i] == _element) {... */\n    tag_282:\n        /* \"CLstaking.sol\":6902:6905  i++ */\n      dup1\n      tag_294\n      dup2\n      tag_126\n      jump\t// in\n    tag_294:\n      swap2\n      pop\n      pop\n        /* \"CLstaking.sol\":6867:7081  for (uint256 i; i < _array.length; i++) {... */\n      jump(tag_276)\n        /* \"@openzeppelin/contracts/access/AccessControl.sol\":3718:4210  function _checkRole(bytes32 role, address account) internal view virtual {... */\n    tag_250:\n        /* \"@openzeppelin/contracts/access/AccessControl.sol\":3806:3828  hasRole(role, account) */\n      tag_296\n        /* \"@openzeppelin/contracts/access/AccessControl.sol\":3814:3818  role */\n      dup3\n        /* \"@openzeppelin/contracts/access/AccessControl.sol\":3820:3827  account */\n      dup3\n        /* \"@openzeppelin/contracts/access/AccessControl.sol\":3806:3813  hasRole */\n      tag_94\n        /* \"@openzeppelin/contracts/access/AccessControl.sol\":3806:3828  hasRole(role, account) */\n      jump\t// in\n    tag_296:\n        /* \"@openzeppelin/contracts/access/AccessControl.sol\":3801:4204  if (!hasRole(role, account)) {... */\n      tag_171\n      jumpi\n        /* \"@openzeppelin/contracts/access/AccessControl.sol\":3989:4030  Strings.toHexString(uint160(account), 20) */\n      tag_298\n        /* \"@openzeppelin/contracts/access/AccessControl.sol\":4017:4024  account */\n      dup2\n      sub(shl(0xa0, 0x01), 0x01)\n        /* \"@openzeppelin/contracts/access/AccessControl.sol\":3989:4030  Strings.toHexString(uint160(account), 20) */\n      and\n        /* \"@openzeppelin/contracts/access/AccessControl.sol\":4027:4029  20 */\n      0x14\n        /* \"@openzeppelin/contracts/access/AccessControl.sol\":3989:4008  Strings.toHexString */\n      tag_299\n        /* \"@openzeppelin/contracts/access/AccessControl.sol\":3989:4030  Strings.toHexString(uint160(account), 20) */\n      jump\t// in\n    tag_298:\n        /* \"@openzeppelin/contracts/access/AccessControl.sol\":4101:4139  Strings.toHexString(uint256(role), 32) */\n      tag_300\n        /* \"@openzeppelin/contracts/access/AccessControl.sol\":4129:4133  role */\n      dup4\n        /* \"@openzeppelin/contracts/access/AccessControl.sol\":4136:4138  32 */\n      0x20\n        /* \"@openzeppelin/contracts/access/AccessControl.sol\":4101:4120  Strings.toHexString */\n      tag_299\n        /* \"@openzeppelin/contracts/access/AccessControl.sol\":4101:4139  Strings.toHexString(uint256(role), 32) */\n      jump\t// in\n    tag_300:\n        /* \"@openzeppelin/contracts/access/AccessControl.sol\":3896:4161  abi.encodePacked(... */\n      add(0x20, mload(0x40))\n      tag_301\n      swap3\n      swap2\n      swap1\n      tag_302\n      jump\t// in\n    tag_301:\n      0x40\n      dup1\n      mload\n      not(0x1f)\n      dup2\n      dup5\n      sub\n      add\n      dup2\n      mstore\n      swap1\n      dup3\n      swap1\n      mstore\n      shl(0xe5, 0x461bcd)\n        /* \"@openzeppelin/contracts/access/AccessControl.sol\":3844:4193  revert(... */\n      dup3\n      mstore\n      tag_169\n      swap2\n      0x04\n      add\n      tag_304\n      jump\t// in\n        /* \"@openzeppelin/contracts/utils/Strings.sol\":1588:2029  function toHexString(uint256 value, uint256 length) internal pure returns (string memory) {... */\n    tag_299:\n        /* \"@openzeppelin/contracts/utils/Strings.sol\":1663:1676  string memory */\n      0x60\n        /* \"@openzeppelin/contracts/utils/Strings.sol\":1688:1707  bytes memory buffer */\n      0x00\n        /* \"@openzeppelin/contracts/utils/Strings.sol\":1720:1730  2 * length */\n      tag_306\n        /* \"@openzeppelin/contracts/utils/Strings.sol\":1724:1730  length */\n      dup4\n        /* \"@openzeppelin/contracts/utils/Strings.sol\":1720:1721  2 */\n      0x02\n        /* \"@openzeppelin/contracts/utils/Strings.sol\":1720:1730  2 * length */\n      tag_260\n      jump\t// in\n    tag_306:\n        /* \"@openzeppelin/contracts/utils/Strings.sol\":1720:1734  2 * length + 2 */\n      tag_307\n      swap1\n        /* \"@openzeppelin/contracts/utils/Strings.sol\":1733:1734  2 */\n      0x02\n        /* \"@openzeppelin/contracts/utils/Strings.sol\":1720:1734  2 * length + 2 */\n      tag_185\n      jump\t// in\n    tag_307:\n        /* \"@openzeppelin/contracts/utils/Strings.sol\":1710:1735  new bytes(2 * length + 2) */\n      0xffffffffffffffff\n      dup2\n      gt\n      iszero\n      tag_309\n      jumpi\n      tag_309\n      tag_310\n      jump\t// in\n    tag_309:\n      mload(0x40)\n      swap1\n      dup1\n      dup3\n      mstore\n      dup1\n      0x1f\n      add\n      not(0x1f)\n      and\n      0x20\n      add\n      dup3\n      add\n      0x40\n      mstore\n      dup1\n      iszero\n      tag_311\n      jumpi\n      0x20\n      dup3\n      add\n      dup2\n      dup1\n      calldatasize\n      dup4\n      calldatacopy\n      add\n      swap1\n      pop\n    tag_311:\n      pop\n        /* \"@openzeppelin/contracts/utils/Strings.sol\":1688:1735  bytes memory buffer = new bytes(2 * length + 2) */\n      swap1\n      pop\n      shl(0xfc, 0x03)\n        /* \"@openzeppelin/contracts/utils/Strings.sol\":1745:1751  buffer */\n      dup2\n        /* \"@openzeppelin/contracts/utils/Strings.sol\":1752:1753  0 */\n      0x00\n        /* \"@openzeppelin/contracts/utils/Strings.sol\":1745:1754  buffer[0] */\n      dup2\n      mload\n      dup2\n      lt\n      tag_313\n      jumpi\n      tag_313\n      tag_123\n      jump\t// in\n    tag_313:\n      0x20\n      add\n      add\n        /* \"@openzeppelin/contracts/utils/Strings.sol\":1745:1760  buffer[0] = \"0\" */\n      swap1\n      not(sub(shl(0xf8, 0x01), 0x01))\n      and\n      swap1\n      dup2\n      0x00\n      byte\n      swap1\n      mstore8\n      pop\n      shl(0xfb, 0x0f)\n        /* \"@openzeppelin/contracts/utils/Strings.sol\":1770:1776  buffer */\n      dup2\n        /* \"@openzeppelin/contracts/utils/Strings.sol\":1777:1778  1 */\n      0x01\n        /* \"@openzeppelin/contracts/utils/Strings.sol\":1770:1779  buffer[1] */\n      dup2\n      mload\n      dup2\n      lt\n      tag_315\n      jumpi\n      tag_315\n      tag_123\n      jump\t// in\n    tag_315:\n      0x20\n      add\n      add\n        /* \"@openzeppelin/contracts/utils/Strings.sol\":1770:1785  buffer[1] = \"x\" */\n      swap1\n      not(sub(shl(0xf8, 0x01), 0x01))\n      and\n      swap1\n      dup2\n      0x00\n      byte\n      swap1\n      mstore8\n      pop\n        /* \"@openzeppelin/contracts/utils/Strings.sol\":1800:1809  uint256 i */\n      0x00\n        /* \"@openzeppelin/contracts/utils/Strings.sol\":1812:1822  2 * length */\n      tag_319\n        /* \"@openzeppelin/contracts/utils/Strings.sol\":1816:1822  length */\n      dup5\n        /* \"@openzeppelin/contracts/utils/Strings.sol\":1812:1813  2 */\n      0x02\n        /* \"@openzeppelin/contracts/utils/Strings.sol\":1812:1822  2 * length */\n      tag_260\n      jump\t// in\n    tag_319:\n        /* \"@openzeppelin/contracts/utils/Strings.sol\":1812:1826  2 * length + 1 */\n      tag_320\n      swap1\n        /* \"@openzeppelin/contracts/utils/Strings.sol\":1825:1826  1 */\n      0x01\n        /* \"@openzeppelin/contracts/utils/Strings.sol\":1812:1826  2 * length + 1 */\n      tag_185\n      jump\t// in\n    tag_320:\n        /* \"@openzeppelin/contracts/utils/Strings.sol\":1800:1826  uint256 i = 2 * length + 1 */\n      swap1\n      pop\n        /* \"@openzeppelin/contracts/utils/Strings.sol\":1795:1927  for (uint256 i = 2 * length + 1; i > 1; --i) {... */\n    tag_316:\n        /* \"@openzeppelin/contracts/utils/Strings.sol\":1832:1833  1 */\n      0x01\n        /* \"@openzeppelin/contracts/utils/Strings.sol\":1828:1829  i */\n      dup2\n        /* \"@openzeppelin/contracts/utils/Strings.sol\":1828:1833  i > 1 */\n      gt\n        /* \"@openzeppelin/contracts/utils/Strings.sol\":1795:1927  for (uint256 i = 2 * length + 1; i > 1; --i) {... */\n      iszero\n      tag_317\n      jumpi\n      shl(0x81, 0x181899199a1a9b1b9c1cb0b131b232b3)\n        /* \"@openzeppelin/contracts/utils/Strings.sol\":1879:1884  value */\n      dup6\n        /* \"@openzeppelin/contracts/utils/Strings.sol\":1887:1890  0xf */\n      0x0f\n        /* \"@openzeppelin/contracts/utils/Strings.sol\":1879:1890  value & 0xf */\n      and\n        /* \"@openzeppelin/contracts/utils/Strings.sol\":1866:1891  _HEX_SYMBOLS[value & 0xf] */\n      0x10\n      dup2\n      lt\n      tag_322\n      jumpi\n      tag_322\n      tag_123\n      jump\t// in\n    tag_322:\n      byte\n      0xf8\n      shl\n        /* \"@openzeppelin/contracts/utils/Strings.sol\":1854:1860  buffer */\n      dup3\n        /* \"@openzeppelin/contracts/utils/Strings.sol\":1861:1862  i */\n      dup3\n        /* \"@openzeppelin/contracts/utils/Strings.sol\":1854:1863  buffer[i] */\n      dup2\n      mload\n      dup2\n      lt\n      tag_324\n      jumpi\n      tag_324\n      tag_123\n      jump\t// in\n    tag_324:\n      0x20\n      add\n      add\n        /* \"@openzeppelin/contracts/utils/Strings.sol\":1854:1891  buffer[i] = _HEX_SYMBOLS[value & 0xf] */\n      swap1\n      not(sub(shl(0xf8, 0x01), 0x01))\n      and\n      swap1\n      dup2\n      0x00\n      byte\n      swap1\n      mstore8\n      pop\n        /* \"@openzeppelin/contracts/utils/Strings.sol\":1915:1916  4 */\n      0x04\n        /* \"@openzeppelin/contracts/utils/Strings.sol\":1905:1916  value >>= 4 */\n      swap5\n      swap1\n      swap5\n      shr\n      swap4\n        /* \"@openzeppelin/contracts/utils/Strings.sol\":1835:1838  --i */\n      tag_325\n      dup2\n      tag_326\n      jump\t// in\n    tag_325:\n      swap1\n      pop\n        /* \"@openzeppelin/contracts/utils/Strings.sol\":1795:1927  for (uint256 i = 2 * length + 1; i > 1; --i) {... */\n      jump(tag_316)\n    tag_317:\n      pop\n        /* \"@openzeppelin/contracts/utils/Strings.sol\":1944:1954  value == 0 */\n      dup4\n      iszero\n        /* \"@openzeppelin/contracts/utils/Strings.sol\":1936:1991  require(value == 0, \"Strings: hex length insufficient\") */\n      tag_154\n      jumpi\n      mload(0x40)\n      shl(0xe5, 0x461bcd)\n      dup2\n      mstore\n        /* \"#utility.yul\":10340:10342   */\n      0x20\n        /* \"@openzeppelin/contracts/utils/Strings.sol\":1936:1991  require(value == 0, \"Strings: hex length insufficient\") */\n      0x04\n      dup3\n      add\n        /* \"#utility.yul\":10322:10343   */\n      dup2\n      swap1\n      mstore\n        /* \"#utility.yul\":10359:10377   */\n      0x24\n      dup3\n      add\n        /* \"#utility.yul\":10352:10382   */\n      mstore\n        /* \"#utility.yul\":10418:10452   */\n      0x537472696e67733a20686578206c656e67746820696e73756666696369656e74\n        /* \"#utility.yul\":10398:10416   */\n      0x44\n      dup3\n      add\n        /* \"#utility.yul\":10391:10453   */\n      mstore\n        /* \"#utility.yul\":10470:10488   */\n      0x64\n      add\n        /* \"@openzeppelin/contracts/utils/Strings.sol\":1936:1991  require(value == 0, \"Strings: hex length insufficient\") */\n      tag_169\n        /* \"#utility.yul\":10138:10494   */\n      jump\n        /* \"#utility.yul\":14:141   */\n    tag_310:\n        /* \"#utility.yul\":75:85   */\n      0x4e487b71\n        /* \"#utility.yul\":70:73   */\n      0xe0\n        /* \"#utility.yul\":66:86   */\n      shl\n        /* \"#utility.yul\":63:64   */\n      0x00\n        /* \"#utility.yul\":56:87   */\n      mstore\n        /* \"#utility.yul\":106:110   */\n      0x41\n        /* \"#utility.yul\":103:104   */\n      0x04\n        /* \"#utility.yul\":96:111   */\n      mstore\n        /* \"#utility.yul\":130:134   */\n      0x24\n        /* \"#utility.yul\":127:128   */\n      0x00\n        /* \"#utility.yul\":120:135   */\n      revert\n        /* \"#utility.yul\":146:1329   */\n    tag_29:\n        /* \"#utility.yul\":239:245   */\n      0x00\n        /* \"#utility.yul\":247:253   */\n      dup1\n        /* \"#utility.yul\":300:302   */\n      0x40\n        /* \"#utility.yul\":288:297   */\n      dup4\n        /* \"#utility.yul\":279:286   */\n      dup6\n        /* \"#utility.yul\":275:298   */\n      sub\n        /* \"#utility.yul\":271:303   */\n      slt\n        /* \"#utility.yul\":268:320   */\n      iszero\n      tag_336\n      jumpi\n        /* \"#utility.yul\":316:317   */\n      0x00\n        /* \"#utility.yul\":313:314   */\n      dup1\n        /* \"#utility.yul\":306:318   */\n      revert\n        /* \"#utility.yul\":268:320   */\n    tag_336:\n        /* \"#utility.yul\":352:361   */\n      dup3\n        /* \"#utility.yul\":339:362   */\n      calldataload\n        /* \"#utility.yul\":329:362   */\n      swap2\n      pop\n        /* \"#utility.yul\":381:383   */\n      0x20\n        /* \"#utility.yul\":434:436   */\n      dup1\n        /* \"#utility.yul\":423:432   */\n      dup5\n        /* \"#utility.yul\":419:437   */\n      add\n        /* \"#utility.yul\":406:438   */\n      calldataload\n        /* \"#utility.yul\":457:475   */\n      0xffffffffffffffff\n        /* \"#utility.yul\":498:500   */\n      dup1\n        /* \"#utility.yul\":490:496   */\n      dup3\n        /* \"#utility.yul\":487:501   */\n      gt\n        /* \"#utility.yul\":484:518   */\n      iszero\n      tag_337\n      jumpi\n        /* \"#utility.yul\":514:515   */\n      0x00\n        /* \"#utility.yul\":511:512   */\n      dup1\n        /* \"#utility.yul\":504:516   */\n      revert\n        /* \"#utility.yul\":484:518   */\n    tag_337:\n        /* \"#utility.yul\":552:558   */\n      dup2\n        /* \"#utility.yul\":541:550   */\n      dup7\n        /* \"#utility.yul\":537:559   */\n      add\n        /* \"#utility.yul\":527:559   */\n      swap2\n      pop\n        /* \"#utility.yul\":597:604   */\n      dup7\n        /* \"#utility.yul\":590:594   */\n      0x1f\n        /* \"#utility.yul\":586:588   */\n      dup4\n        /* \"#utility.yul\":582:595   */\n      add\n        /* \"#utility.yul\":578:605   */\n      slt\n        /* \"#utility.yul\":568:623   */\n      tag_338\n      jumpi\n        /* \"#utility.yul\":619:620   */\n      0x00\n        /* \"#utility.yul\":616:617   */\n      dup1\n        /* \"#utility.yul\":609:621   */\n      revert\n        /* \"#utility.yul\":568:623   */\n    tag_338:\n        /* \"#utility.yul\":655:657   */\n      dup2\n        /* \"#utility.yul\":642:658   */\n      calldataload\n        /* \"#utility.yul\":677:679   */\n      dup2\n        /* \"#utility.yul\":673:675   */\n      dup2\n        /* \"#utility.yul\":670:680   */\n      gt\n        /* \"#utility.yul\":667:703   */\n      iszero\n      tag_340\n      jumpi\n        /* \"#utility.yul\":683:701   */\n      tag_340\n      tag_310\n      jump\t// in\n    tag_340:\n        /* \"#utility.yul\":729:731   */\n      dup1\n        /* \"#utility.yul\":726:727   */\n      0x05\n        /* \"#utility.yul\":722:732   */\n      shl\n        /* \"#utility.yul\":761:763   */\n      0x40\n        /* \"#utility.yul\":755:764   */\n      mload\n        /* \"#utility.yul\":824:826   */\n      0x1f\n        /* \"#utility.yul\":820:827   */\n      not\n        /* \"#utility.yul\":815:817   */\n      0x3f\n        /* \"#utility.yul\":811:813   */\n      dup4\n        /* \"#utility.yul\":807:818   */\n      add\n        /* \"#utility.yul\":803:828   */\n      and\n        /* \"#utility.yul\":795:801   */\n      dup2\n        /* \"#utility.yul\":791:829   */\n      add\n        /* \"#utility.yul\":879:885   */\n      dup2\n        /* \"#utility.yul\":867:877   */\n      dup2\n        /* \"#utility.yul\":864:886   */\n      lt\n        /* \"#utility.yul\":859:861   */\n      dup6\n        /* \"#utility.yul\":847:857   */\n      dup3\n        /* \"#utility.yul\":844:862   */\n      gt\n        /* \"#utility.yul\":841:887   */\n      or\n        /* \"#utility.yul\":838:910   */\n      iszero\n      tag_342\n      jumpi\n        /* \"#utility.yul\":890:908   */\n      tag_342\n      tag_310\n      jump\t// in\n    tag_342:\n        /* \"#utility.yul\":926:928   */\n      0x40\n        /* \"#utility.yul\":919:941   */\n      mstore\n        /* \"#utility.yul\":976:994   */\n      swap2\n      dup3\n      mstore\n        /* \"#utility.yul\":1010:1025   */\n      dup5\n      dup3\n      add\n      swap3\n      pop\n        /* \"#utility.yul\":1052:1063   */\n      dup4\n      dup2\n      add\n        /* \"#utility.yul\":1048:1068   */\n      dup6\n      add\n      swap2\n        /* \"#utility.yul\":1080:1099   */\n      dup10\n      dup4\n      gt\n        /* \"#utility.yul\":1077:1116   */\n      iszero\n      tag_343\n      jumpi\n        /* \"#utility.yul\":1112:1113   */\n      0x00\n        /* \"#utility.yul\":1109:1110   */\n      dup1\n        /* \"#utility.yul\":1102:1114   */\n      revert\n        /* \"#utility.yul\":1077:1116   */\n    tag_343:\n        /* \"#utility.yul\":1136:1147   */\n      swap4\n      dup6\n      add\n      swap4\n        /* \"#utility.yul\":1156:1298   */\n    tag_344:\n        /* \"#utility.yul\":1172:1178   */\n      dup3\n        /* \"#utility.yul\":1167:1170   */\n      dup6\n        /* \"#utility.yul\":1164:1179   */\n      lt\n        /* \"#utility.yul\":1156:1298   */\n      iszero\n      tag_346\n      jumpi\n        /* \"#utility.yul\":1238:1255   */\n      dup5\n      calldataload\n        /* \"#utility.yul\":1226:1256   */\n      dup5\n      mstore\n        /* \"#utility.yul\":1189:1201   */\n      swap4\n      dup6\n      add\n      swap4\n        /* \"#utility.yul\":1276:1288   */\n      swap3\n      dup6\n      add\n      swap3\n        /* \"#utility.yul\":1156:1298   */\n      jump(tag_344)\n    tag_346:\n        /* \"#utility.yul\":1317:1323   */\n      dup1\n        /* \"#utility.yul\":1307:1323   */\n      swap7\n      pop\n      pop\n      pop\n      pop\n      pop\n      pop\n      pop\n        /* \"#utility.yul\":146:1329   */\n      swap3\n      pop\n      swap3\n      swap1\n      pop\n      jump\t// out\n        /* \"#utility.yul\":1334:1620   */\n    tag_33:\n        /* \"#utility.yul\":1392:1398   */\n      0x00\n        /* \"#utility.yul\":1445:1447   */\n      0x20\n        /* \"#utility.yul\":1433:1442   */\n      dup3\n        /* \"#utility.yul\":1424:1431   */\n      dup5\n        /* \"#utility.yul\":1420:1443   */\n      sub\n        /* \"#utility.yul\":1416:1448   */\n      slt\n        /* \"#utility.yul\":1413:1465   */\n      iszero\n      tag_348\n      jumpi\n        /* \"#utility.yul\":1461:1462   */\n      0x00\n        /* \"#utility.yul\":1458:1459   */\n      dup1\n        /* \"#utility.yul\":1451:1463   */\n      revert\n        /* \"#utility.yul\":1413:1465   */\n    tag_348:\n        /* \"#utility.yul\":1487:1510   */\n      dup2\n      calldataload\n      not(sub(shl(0xe0, 0x01), 0x01))\n        /* \"#utility.yul\":1539:1571   */\n      dup2\n      and\n        /* \"#utility.yul\":1529:1572   */\n      dup2\n      eq\n        /* \"#utility.yul\":1519:1590   */\n      tag_154\n      jumpi\n        /* \"#utility.yul\":1586:1587   */\n      0x00\n        /* \"#utility.yul\":1583:1584   */\n      dup1\n        /* \"#utility.yul\":1576:1588   */\n      revert\n        /* \"#utility.yul\":1817:1997   */\n    tag_39:\n        /* \"#utility.yul\":1876:1882   */\n      0x00\n        /* \"#utility.yul\":1929:1931   */\n      0x20\n        /* \"#utility.yul\":1917:1926   */\n      dup3\n        /* \"#utility.yul\":1908:1915   */\n      dup5\n        /* \"#utility.yul\":1904:1927   */\n      sub\n        /* \"#utility.yul\":1900:1932   */\n      slt\n        /* \"#utility.yul\":1897:1949   */\n      iszero\n      tag_352\n      jumpi\n        /* \"#utility.yul\":1945:1946   */\n      0x00\n        /* \"#utility.yul\":1942:1943   */\n      dup1\n        /* \"#utility.yul\":1935:1947   */\n      revert\n        /* \"#utility.yul\":1897:1949   */\n    tag_352:\n      pop\n        /* \"#utility.yul\":1968:1991   */\n      calldataload\n      swap2\n        /* \"#utility.yul\":1817:1997   */\n      swap1\n      pop\n      jump\t// out\n        /* \"#utility.yul\":2719:2892   */\n    tag_330:\n        /* \"#utility.yul\":2787:2807   */\n      dup1\n      calldataload\n      sub(shl(0xa0, 0x01), 0x01)\n        /* \"#utility.yul\":2836:2867   */\n      dup2\n      and\n        /* \"#utility.yul\":2826:2868   */\n      dup2\n      eq\n        /* \"#utility.yul\":2816:2886   */\n      tag_358\n      jumpi\n        /* \"#utility.yul\":2882:2883   */\n      0x00\n        /* \"#utility.yul\":2879:2880   */\n      dup1\n        /* \"#utility.yul\":2872:2884   */\n      revert\n        /* \"#utility.yul\":2816:2886   */\n    tag_358:\n        /* \"#utility.yul\":2719:2892   */\n      swap2\n      swap1\n      pop\n      jump\t// out\n        /* \"#utility.yul\":2897:3151   */\n    tag_54:\n        /* \"#utility.yul\":2965:2971   */\n      0x00\n        /* \"#utility.yul\":2973:2979   */\n      dup1\n        /* \"#utility.yul\":3026:3028   */\n      0x40\n        /* \"#utility.yul\":3014:3023   */\n      dup4\n        /* \"#utility.yul\":3005:3012   */\n      dup6\n        /* \"#utility.yul\":3001:3024   */\n      sub\n        /* \"#utility.yul\":2997:3029   */\n      slt\n        /* \"#utility.yul\":2994:3046   */\n      iszero\n      tag_360\n      jumpi\n        /* \"#utility.yul\":3042:3043   */\n      0x00\n        /* \"#utility.yul\":3039:3040   */\n      dup1\n        /* \"#utility.yul\":3032:3044   */\n      revert\n        /* \"#utility.yul\":2994:3046   */\n    tag_360:\n        /* \"#utility.yul\":3065:3094   */\n      tag_361\n        /* \"#utility.yul\":3084:3093   */\n      dup4\n        /* \"#utility.yul\":3065:3094   */\n      tag_330\n      jump\t// in\n    tag_361:\n        /* \"#utility.yul\":3055:3094   */\n      swap5\n        /* \"#utility.yul\":3141:3143   */\n      0x20\n        /* \"#utility.yul\":3126:3144   */\n      swap4\n      swap1\n      swap4\n      add\n        /* \"#utility.yul\":3113:3145   */\n      calldataload\n      swap4\n      pop\n      pop\n      pop\n        /* \"#utility.yul\":2897:3151   */\n      jump\t// out\n        /* \"#utility.yul\":3156:3410   */\n    tag_58:\n        /* \"#utility.yul\":3224:3230   */\n      0x00\n        /* \"#utility.yul\":3232:3238   */\n      dup1\n        /* \"#utility.yul\":3285:3287   */\n      0x40\n        /* \"#utility.yul\":3273:3282   */\n      dup4\n        /* \"#utility.yul\":3264:3271   */\n      dup6\n        /* \"#utility.yul\":3260:3283   */\n      sub\n        /* \"#utility.yul\":3256:3288   */\n      slt\n        /* \"#utility.yul\":3253:3305   */\n      iszero\n      tag_363\n      jumpi\n        /* \"#utility.yul\":3301:3302   */\n      0x00\n        /* \"#utility.yul\":3298:3299   */\n      dup1\n        /* \"#utility.yul\":3291:3303   */\n      revert\n        /* \"#utility.yul\":3253:3305   */\n    tag_363:\n        /* \"#utility.yul\":3337:3346   */\n      dup3\n        /* \"#utility.yul\":3324:3347   */\n      calldataload\n        /* \"#utility.yul\":3314:3347   */\n      swap2\n      pop\n        /* \"#utility.yul\":3366:3404   */\n      tag_364\n        /* \"#utility.yul\":3400:3402   */\n      0x20\n        /* \"#utility.yul\":3389:3398   */\n      dup5\n        /* \"#utility.yul\":3385:3403   */\n      add\n        /* \"#utility.yul\":3366:3404   */\n      tag_330\n      jump\t// in\n    tag_364:\n        /* \"#utility.yul\":3356:3404   */\n      swap1\n      pop\n        /* \"#utility.yul\":3156:3410   */\n      swap3\n      pop\n      swap3\n      swap1\n      pop\n      jump\t// out\n        /* \"#utility.yul\":3415:3737   */\n    tag_62:\n        /* \"#utility.yul\":3492:3498   */\n      0x00\n        /* \"#utility.yul\":3500:3506   */\n      dup1\n        /* \"#utility.yul\":3508:3514   */\n      0x00\n        /* \"#utility.yul\":3561:3563   */\n      0x60\n        /* \"#utility.yul\":3549:3558   */\n      dup5\n        /* \"#utility.yul\":3540:3547   */\n      dup7\n        /* \"#utility.yul\":3536:3559   */\n      sub\n        /* \"#utility.yul\":3532:3564   */\n      slt\n        /* \"#utility.yul\":3529:3581   */\n      iszero\n      tag_366\n      jumpi\n        /* \"#utility.yul\":3577:3578   */\n      0x00\n        /* \"#utility.yul\":3574:3575   */\n      dup1\n        /* \"#utility.yul\":3567:3579   */\n      revert\n        /* \"#utility.yul\":3529:3581   */\n    tag_366:\n        /* \"#utility.yul\":3600:3629   */\n      tag_367\n        /* \"#utility.yul\":3619:3628   */\n      dup5\n        /* \"#utility.yul\":3600:3629   */\n      tag_330\n      jump\t// in\n    tag_367:\n        /* \"#utility.yul\":3590:3629   */\n      swap6\n        /* \"#utility.yul\":3676:3678   */\n      0x20\n        /* \"#utility.yul\":3661:3679   */\n      dup6\n      add\n        /* \"#utility.yul\":3648:3680   */\n      calldataload\n      swap6\n      pop\n        /* \"#utility.yul\":3727:3729   */\n      0x40\n        /* \"#utility.yul\":3712:3730   */\n      swap1\n      swap5\n      add\n        /* \"#utility.yul\":3699:3731   */\n      calldataload\n      swap4\n        /* \"#utility.yul\":3415:3737   */\n      swap3\n      pop\n      pop\n      pop\n      jump\t// out\n        /* \"#utility.yul\":3924:4110   */\n    tag_75:\n        /* \"#utility.yul\":3983:3989   */\n      0x00\n        /* \"#utility.yul\":4036:4038   */\n      0x20\n        /* \"#utility.yul\":4024:4033   */\n      dup3\n        /* \"#utility.yul\":4015:4022   */\n      dup5\n        /* \"#utility.yul\":4011:4034   */\n      sub\n        /* \"#utility.yul\":4007:4039   */\n      slt\n        /* \"#utility.yul\":4004:4056   */\n      iszero\n      tag_370\n      jumpi\n        /* \"#utility.yul\":4052:4053   */\n      0x00\n        /* \"#utility.yul\":4049:4050   */\n      dup1\n        /* \"#utility.yul\":4042:4054   */\n      revert\n        /* \"#utility.yul\":4004:4056   */\n    tag_370:\n        /* \"#utility.yul\":4075:4104   */\n      tag_154\n        /* \"#utility.yul\":4094:4103   */\n      dup3\n        /* \"#utility.yul\":4075:4104   */\n      tag_330\n      jump\t// in\n        /* \"#utility.yul\":4115:4363   */\n    tag_82:\n        /* \"#utility.yul\":4183:4189   */\n      0x00\n        /* \"#utility.yul\":4191:4197   */\n      dup1\n        /* \"#utility.yul\":4244:4246   */\n      0x40\n        /* \"#utility.yul\":4232:4241   */\n      dup4\n        /* \"#utility.yul\":4223:4230   */\n      dup6\n        /* \"#utility.yul\":4219:4242   */\n      sub\n        /* \"#utility.yul\":4215:4247   */\n      slt\n        /* \"#utility.yul\":4212:4264   */\n      iszero\n      tag_373\n      jumpi\n        /* \"#utility.yul\":4260:4261   */\n      0x00\n        /* \"#utility.yul\":4257:4258   */\n      dup1\n        /* \"#utility.yul\":4250:4262   */\n      revert\n        /* \"#utility.yul\":4212:4264   */\n    tag_373:\n      pop\n      pop\n        /* \"#utility.yul\":4283:4306   */\n      dup1\n      calldataload\n      swap3\n        /* \"#utility.yul\":4353:4355   */\n      0x20\n        /* \"#utility.yul\":4338:4356   */\n      swap1\n      swap2\n      add\n        /* \"#utility.yul\":4325:4357   */\n      calldataload\n      swap2\n      pop\n        /* \"#utility.yul\":4115:4363   */\n      jump\t// out\n        /* \"#utility.yul\":4368:4690   */\n    tag_86:\n        /* \"#utility.yul\":4445:4451   */\n      0x00\n        /* \"#utility.yul\":4453:4459   */\n      dup1\n        /* \"#utility.yul\":4461:4467   */\n      0x00\n        /* \"#utility.yul\":4514:4516   */\n      0x60\n        /* \"#utility.yul\":4502:4511   */\n      dup5\n        /* \"#utility.yul\":4493:4500   */\n      dup7\n        /* \"#utility.yul\":4489:4512   */\n      sub\n        /* \"#utility.yul\":4485:4517   */\n      slt\n        /* \"#utility.yul\":4482:4534   */\n      iszero\n      tag_375\n      jumpi\n        /* \"#utility.yul\":4530:4531   */\n      0x00\n        /* \"#utility.yul\":4527:4528   */\n      dup1\n        /* \"#utility.yul\":4520:4532   */\n      revert\n        /* \"#utility.yul\":4482:4534   */\n    tag_375:\n        /* \"#utility.yul\":4566:4575   */\n      dup4\n        /* \"#utility.yul\":4553:4576   */\n      calldataload\n        /* \"#utility.yul\":4543:4576   */\n      swap3\n      pop\n        /* \"#utility.yul\":4595:4633   */\n      tag_376\n        /* \"#utility.yul\":4629:4631   */\n      0x20\n        /* \"#utility.yul\":4618:4627   */\n      dup6\n        /* \"#utility.yul\":4614:4632   */\n      add\n        /* \"#utility.yul\":4595:4633   */\n      tag_330\n      jump\t// in\n    tag_376:\n        /* \"#utility.yul\":4585:4633   */\n      swap2\n      pop\n        /* \"#utility.yul\":4680:4682   */\n      0x40\n        /* \"#utility.yul\":4669:4678   */\n      dup5\n        /* \"#utility.yul\":4665:4683   */\n      add\n        /* \"#utility.yul\":4652:4684   */\n      calldataload\n        /* \"#utility.yul\":4642:4684   */\n      swap1\n      pop\n        /* \"#utility.yul\":4368:4690   */\n      swap3\n      pop\n      swap3\n      pop\n      swap3\n      jump\t// out\n        /* \"#utility.yul\":4695:5023   */\n    tag_107:\n        /* \"#utility.yul\":4772:4778   */\n      0x00\n        /* \"#utility.yul\":4780:4786   */\n      dup1\n        /* \"#utility.yul\":4788:4794   */\n      0x00\n        /* \"#utility.yul\":4841:4843   */\n      0x60\n        /* \"#utility.yul\":4829:4838   */\n      dup5\n        /* \"#utility.yul\":4820:4827   */\n      dup7\n        /* \"#utility.yul\":4816:4839   */\n      sub\n        /* \"#utility.yul\":4812:4844   */\n      slt\n        /* \"#utility.yul\":4809:4861   */\n      iszero\n      tag_378\n      jumpi\n        /* \"#utility.yul\":4857:4858   */\n      0x00\n        /* \"#utility.yul\":4854:4855   */\n      dup1\n        /* \"#utility.yul\":4847:4859   */\n      revert\n        /* \"#utility.yul\":4809:4861   */\n    tag_378:\n        /* \"#utility.yul\":4880:4909   */\n      tag_379\n        /* \"#utility.yul\":4899:4908   */\n      dup5\n        /* \"#utility.yul\":4880:4909   */\n      tag_330\n      jump\t// in\n    tag_379:\n        /* \"#utility.yul\":4870:4909   */\n      swap3\n      pop\n        /* \"#utility.yul\":4928:4966   */\n      tag_376\n        /* \"#utility.yul\":4962:4964   */\n      0x20\n        /* \"#utility.yul\":4951:4960   */\n      dup6\n        /* \"#utility.yul\":4947:4965   */\n      add\n        /* \"#utility.yul\":4928:4966   */\n      tag_330\n      jump\t// in\n        /* \"#utility.yul\":5235:5867   */\n    tag_115:\n        /* \"#utility.yul\":5406:5408   */\n      0x20\n        /* \"#utility.yul\":5458:5479   */\n      dup1\n      dup3\n      mstore\n        /* \"#utility.yul\":5528:5541   */\n      dup3\n      mload\n        /* \"#utility.yul\":5431:5449   */\n      dup3\n      dup3\n      add\n        /* \"#utility.yul\":5550:5572   */\n      dup2\n      swap1\n      mstore\n        /* \"#utility.yul\":5377:5381   */\n      0x00\n      swap2\n        /* \"#utility.yul\":5406:5408   */\n      swap1\n        /* \"#utility.yul\":5629:5644   */\n      dup5\n      dup3\n      add\n      swap1\n        /* \"#utility.yul\":5603:5605   */\n      0x40\n        /* \"#utility.yul\":5588:5606   */\n      dup6\n      add\n      swap1\n        /* \"#utility.yul\":5377:5381   */\n      dup5\n        /* \"#utility.yul\":5672:5841   */\n    tag_383:\n        /* \"#utility.yul\":5686:5692   */\n      dup2\n        /* \"#utility.yul\":5683:5684   */\n      dup2\n        /* \"#utility.yul\":5680:5693   */\n      lt\n        /* \"#utility.yul\":5672:5841   */\n      iszero\n      tag_385\n      jumpi\n        /* \"#utility.yul\":5747:5760   */\n      dup4\n      mload\n        /* \"#utility.yul\":5735:5761   */\n      dup4\n      mstore\n        /* \"#utility.yul\":5816:5831   */\n      swap3\n      dup5\n      add\n      swap3\n        /* \"#utility.yul\":5781:5793   */\n      swap2\n      dup5\n      add\n      swap2\n        /* \"#utility.yul\":5708:5709   */\n      0x01\n        /* \"#utility.yul\":5701:5710   */\n      add\n        /* \"#utility.yul\":5672:5841   */\n      jump(tag_383)\n    tag_385:\n      pop\n        /* \"#utility.yul\":5858:5861   */\n      swap1\n      swap7\n        /* \"#utility.yul\":5235:5867   */\n      swap6\n      pop\n      pop\n      pop\n      pop\n      pop\n      pop\n      jump\t// out\n        /* \"#utility.yul\":5872:5999   */\n    tag_123:\n        /* \"#utility.yul\":5933:5943   */\n      0x4e487b71\n        /* \"#utility.yul\":5928:5931   */\n      0xe0\n        /* \"#utility.yul\":5924:5944   */\n      shl\n        /* \"#utility.yul\":5921:5922   */\n      0x00\n        /* \"#utility.yul\":5914:5945   */\n      mstore\n        /* \"#utility.yul\":5964:5968   */\n      0x32\n        /* \"#utility.yul\":5961:5962   */\n      0x04\n        /* \"#utility.yul\":5954:5969   */\n      mstore\n        /* \"#utility.yul\":5988:5992   */\n      0x24\n        /* \"#utility.yul\":5985:5986   */\n      0x00\n        /* \"#utility.yul\":5978:5993   */\n      revert\n        /* \"#utility.yul\":6004:6131   */\n    tag_331:\n        /* \"#utility.yul\":6065:6075   */\n      0x4e487b71\n        /* \"#utility.yul\":6060:6063   */\n      0xe0\n        /* \"#utility.yul\":6056:6076   */\n      shl\n        /* \"#utility.yul\":6053:6054   */\n      0x00\n        /* \"#utility.yul\":6046:6077   */\n      mstore\n        /* \"#utility.yul\":6096:6100   */\n      0x11\n        /* \"#utility.yul\":6093:6094   */\n      0x04\n        /* \"#utility.yul\":6086:6101   */\n      mstore\n        /* \"#utility.yul\":6120:6124   */\n      0x24\n        /* \"#utility.yul\":6117:6118   */\n      0x00\n        /* \"#utility.yul\":6110:6125   */\n      revert\n        /* \"#utility.yul\":6136:6271   */\n    tag_126:\n        /* \"#utility.yul\":6175:6178   */\n      0x00\n        /* \"#utility.yul\":6196:6213   */\n      0x01\n      dup3\n      add\n        /* \"#utility.yul\":6193:6236   */\n      tag_390\n      jumpi\n        /* \"#utility.yul\":6216:6234   */\n      tag_390\n      tag_331\n      jump\t// in\n    tag_390:\n      pop\n        /* \"#utility.yul\":6263:6264   */\n      0x01\n        /* \"#utility.yul\":6252:6265   */\n      add\n      swap1\n        /* \"#utility.yul\":6136:6271   */\n      jump\t// out\n        /* \"#utility.yul\":6276:6401   */\n    tag_162:\n        /* \"#utility.yul\":6316:6320   */\n      0x00\n        /* \"#utility.yul\":6344:6345   */\n      dup3\n        /* \"#utility.yul\":6341:6342   */\n      dup3\n        /* \"#utility.yul\":6338:6346   */\n      lt\n        /* \"#utility.yul\":6335:6369   */\n      iszero\n      tag_393\n      jumpi\n        /* \"#utility.yul\":6349:6367   */\n      tag_393\n      tag_331\n      jump\t// in\n    tag_393:\n      pop\n        /* \"#utility.yul\":6386:6395   */\n      sub\n      swap1\n        /* \"#utility.yul\":6276:6401   */\n      jump\t// out\n        /* \"#utility.yul\":6822:6950   */\n    tag_185:\n        /* \"#utility.yul\":6862:6865   */\n      0x00\n        /* \"#utility.yul\":6893:6894   */\n      dup3\n        /* \"#utility.yul\":6889:6895   */\n      not\n        /* \"#utility.yul\":6886:6887   */\n      dup3\n        /* \"#utility.yul\":6883:6896   */\n      gt\n        /* \"#utility.yul\":6880:6919   */\n      iszero\n      tag_397\n      jumpi\n        /* \"#utility.yul\":6899:6917   */\n      tag_397\n      tag_331\n      jump\t// in\n    tag_397:\n      pop\n        /* \"#utility.yul\":6935:6944   */\n      add\n      swap1\n        /* \"#utility.yul\":6822:6950   */\n      jump\t// out\n        /* \"#utility.yul\":7749:7966   */\n    tag_257:\n        /* \"#utility.yul\":7789:7790   */\n      0x00\n        /* \"#utility.yul\":7815:7816   */\n      dup3\n        /* \"#utility.yul\":7805:7937   */\n      tag_401\n      jumpi\n        /* \"#utility.yul\":7859:7869   */\n      0x4e487b71\n        /* \"#utility.yul\":7854:7857   */\n      0xe0\n        /* \"#utility.yul\":7850:7870   */\n      shl\n        /* \"#utility.yul\":7847:7848   */\n      0x00\n        /* \"#utility.yul\":7840:7871   */\n      mstore\n        /* \"#utility.yul\":7894:7898   */\n      0x12\n        /* \"#utility.yul\":7891:7892   */\n      0x04\n        /* \"#utility.yul\":7884:7899   */\n      mstore\n        /* \"#utility.yul\":7922:7926   */\n      0x24\n        /* \"#utility.yul\":7919:7920   */\n      0x00\n        /* \"#utility.yul\":7912:7927   */\n      revert\n        /* \"#utility.yul\":7805:7937   */\n    tag_401:\n      pop\n        /* \"#utility.yul\":7951:7960   */\n      div\n      swap1\n        /* \"#utility.yul\":7749:7966   */\n      jump\t// out\n        /* \"#utility.yul\":7971:8139   */\n    tag_260:\n        /* \"#utility.yul\":8011:8018   */\n      0x00\n        /* \"#utility.yul\":8077:8078   */\n      dup2\n        /* \"#utility.yul\":8073:8074   */\n      0x00\n        /* \"#utility.yul\":8069:8075   */\n      not\n        /* \"#utility.yul\":8065:8079   */\n      div\n        /* \"#utility.yul\":8062:8063   */\n      dup4\n        /* \"#utility.yul\":8059:8080   */\n      gt\n        /* \"#utility.yul\":8054:8055   */\n      dup3\n        /* \"#utility.yul\":8047:8056   */\n      iszero\n        /* \"#utility.yul\":8040:8057   */\n      iszero\n        /* \"#utility.yul\":8036:8081   */\n      and\n        /* \"#utility.yul\":8033:8104   */\n      iszero\n      tag_404\n      jumpi\n        /* \"#utility.yul\":8084:8102   */\n      tag_404\n      tag_331\n      jump\t// in\n    tag_404:\n      pop\n        /* \"#utility.yul\":8124:8133   */\n      mul\n      swap1\n        /* \"#utility.yul\":7971:8139   */\n      jump\t// out\n        /* \"#utility.yul\":8423:8550   */\n    tag_292:\n        /* \"#utility.yul\":8484:8494   */\n      0x4e487b71\n        /* \"#utility.yul\":8479:8482   */\n      0xe0\n        /* \"#utility.yul\":8475:8495   */\n      shl\n        /* \"#utility.yul\":8472:8473   */\n      0x00\n        /* \"#utility.yul\":8465:8496   */\n      mstore\n        /* \"#utility.yul\":8515:8519   */\n      0x31\n        /* \"#utility.yul\":8512:8513   */\n      0x04\n        /* \"#utility.yul\":8505:8520   */\n      mstore\n        /* \"#utility.yul\":8539:8543   */\n      0x24\n        /* \"#utility.yul\":8536:8537   */\n      0x00\n        /* \"#utility.yul\":8529:8544   */\n      revert\n        /* \"#utility.yul\":8555:8813   */\n    tag_332:\n        /* \"#utility.yul\":8627:8628   */\n      0x00\n        /* \"#utility.yul\":8637:8750   */\n    tag_408:\n        /* \"#utility.yul\":8651:8657   */\n      dup4\n        /* \"#utility.yul\":8648:8649   */\n      dup2\n        /* \"#utility.yul\":8645:8658   */\n      lt\n        /* \"#utility.yul\":8637:8750   */\n      iszero\n      tag_410\n      jumpi\n        /* \"#utility.yul\":8727:8738   */\n      dup2\n      dup2\n      add\n        /* \"#utility.yul\":8721:8739   */\n      mload\n        /* \"#utility.yul\":8708:8719   */\n      dup4\n      dup3\n      add\n        /* \"#utility.yul\":8701:8740   */\n      mstore\n        /* \"#utility.yul\":8673:8675   */\n      0x20\n        /* \"#utility.yul\":8666:8676   */\n      add\n        /* \"#utility.yul\":8637:8750   */\n      jump(tag_408)\n    tag_410:\n        /* \"#utility.yul\":8768:8774   */\n      dup4\n        /* \"#utility.yul\":8765:8766   */\n      dup2\n        /* \"#utility.yul\":8762:8775   */\n      gt\n        /* \"#utility.yul\":8759:8807   */\n      iszero\n      tag_411\n      jumpi\n        /* \"#utility.yul\":8803:8804   */\n      0x00\n        /* \"#utility.yul\":8794:8800   */\n      dup5\n        /* \"#utility.yul\":8789:8792   */\n      dup5\n        /* \"#utility.yul\":8785:8801   */\n      add\n        /* \"#utility.yul\":8778:8805   */\n      mstore\n        /* \"#utility.yul\":8759:8807   */\n    tag_411:\n      pop\n        /* \"#utility.yul\":8555:8813   */\n      pop\n      pop\n      pop\n      jump\t// out\n        /* \"#utility.yul\":8818:9604   */\n    tag_302:\n        /* \"#utility.yul\":9229:9254   */\n      0x416363657373436f6e74726f6c3a206163636f756e7420000000000000000000\n        /* \"#utility.yul\":9224:9227   */\n      dup2\n        /* \"#utility.yul\":9217:9255   */\n      mstore\n        /* \"#utility.yul\":9199:9202   */\n      0x00\n        /* \"#utility.yul\":9284:9290   */\n      dup4\n        /* \"#utility.yul\":9278:9291   */\n      mload\n        /* \"#utility.yul\":9300:9362   */\n      tag_413\n        /* \"#utility.yul\":9355:9361   */\n      dup2\n        /* \"#utility.yul\":9350:9352   */\n      0x17\n        /* \"#utility.yul\":9345:9348   */\n      dup6\n        /* \"#utility.yul\":9341:9353   */\n      add\n        /* \"#utility.yul\":9334:9338   */\n      0x20\n        /* \"#utility.yul\":9326:9332   */\n      dup9\n        /* \"#utility.yul\":9322:9339   */\n      add\n        /* \"#utility.yul\":9300:9362   */\n      tag_332\n      jump\t// in\n    tag_413:\n      shl(0x7d, 0x01034b99036b4b9b9b4b733903937b6329)\n        /* \"#utility.yul\":9421:9423   */\n      0x17\n        /* \"#utility.yul\":9381:9397   */\n      swap2\n      dup5\n      add\n        /* \"#utility.yul\":9413:9424   */\n      swap2\n      dup3\n      add\n        /* \"#utility.yul\":9406:9446   */\n      mstore\n        /* \"#utility.yul\":9471:9484   */\n      dup4\n      mload\n        /* \"#utility.yul\":9493:9556   */\n      tag_414\n        /* \"#utility.yul\":9471:9484   */\n      dup2\n        /* \"#utility.yul\":9542:9544   */\n      0x28\n        /* \"#utility.yul\":9534:9545   */\n      dup5\n      add\n        /* \"#utility.yul\":9527:9531   */\n      0x20\n        /* \"#utility.yul\":9515:9532   */\n      dup9\n      add\n        /* \"#utility.yul\":9493:9556   */\n      tag_332\n      jump\t// in\n    tag_414:\n        /* \"#utility.yul\":9576:9593   */\n      add\n        /* \"#utility.yul\":9595:9597   */\n      0x28\n        /* \"#utility.yul\":9572:9598   */\n      add\n      swap5\n        /* \"#utility.yul\":8818:9604   */\n      swap4\n      pop\n      pop\n      pop\n      pop\n      jump\t// out\n        /* \"#utility.yul\":9609:9992   */\n    tag_304:\n        /* \"#utility.yul\":9758:9760   */\n      0x20\n        /* \"#utility.yul\":9747:9756   */\n      dup2\n        /* \"#utility.yul\":9740:9761   */\n      mstore\n        /* \"#utility.yul\":9721:9725   */\n      0x00\n        /* \"#utility.yul\":9790:9796   */\n      dup3\n        /* \"#utility.yul\":9784:9797   */\n      mload\n        /* \"#utility.yul\":9833:9839   */\n      dup1\n        /* \"#utility.yul\":9828:9830   */\n      0x20\n        /* \"#utility.yul\":9817:9826   */\n      dup5\n        /* \"#utility.yul\":9813:9831   */\n      add\n        /* \"#utility.yul\":9806:9840   */\n      mstore\n        /* \"#utility.yul\":9849:9915   */\n      tag_416\n        /* \"#utility.yul\":9908:9914   */\n      dup2\n        /* \"#utility.yul\":9903:9905   */\n      0x40\n        /* \"#utility.yul\":9892:9901   */\n      dup6\n        /* \"#utility.yul\":9888:9906   */\n      add\n        /* \"#utility.yul\":9883:9885   */\n      0x20\n        /* \"#utility.yul\":9875:9881   */\n      dup8\n        /* \"#utility.yul\":9871:9886   */\n      add\n        /* \"#utility.yul\":9849:9915   */\n      tag_332\n      jump\t// in\n    tag_416:\n        /* \"#utility.yul\":9976:9978   */\n      0x1f\n        /* \"#utility.yul\":9955:9970   */\n      add\n      not(0x1f)\n        /* \"#utility.yul\":9951:9980   */\n      and\n        /* \"#utility.yul\":9936:9981   */\n      swap2\n      swap1\n      swap2\n      add\n        /* \"#utility.yul\":9983:9985   */\n      0x40\n        /* \"#utility.yul\":9932:9986   */\n      add\n      swap3\n        /* \"#utility.yul\":9609:9992   */\n      swap2\n      pop\n      pop\n      jump\t// out\n        /* \"#utility.yul\":9997:10133   */\n    tag_326:\n        /* \"#utility.yul\":10036:10039   */\n      0x00\n        /* \"#utility.yul\":10064:10069   */\n      dup2\n        /* \"#utility.yul\":10054:10093   */\n      tag_419\n      jumpi\n        /* \"#utility.yul\":10073:10091   */\n      tag_419\n      tag_331\n      jump\t// in\n    tag_419:\n      pop\n      not(0x00)\n        /* \"#utility.yul\":10109:10127   */\n      add\n      swap1\n        /* \"#utility.yul\":9997:10133   */\n      jump\t// out\n\n    auxdata: 0xa2646970667358221220e8798c3e473c5d9cf2eb5e6b70ffc5234ffde1529ad29f5290a47ce73bc9dc2364736f6c634300080d0033\n}\n",
				"bytecode": {
					"linkReferences": {},
					"object": "60806040527fdf8b4c520ffe197c5343c6f5aec59570151ef9a492f2c624fd45ddde6135ec426001553480156200003557600080fd5b506040516200160838038062001608833981016040819052620000589162000146565b600280546001600160a01b0319166001600160a01b0383161790556200008060003362000096565b6001546200008f903362000096565b5062000178565b620000a28282620000a6565b5050565b6000828152602081815260408083206001600160a01b038516845290915290205460ff16620000a2576000828152602081815260408083206001600160a01b03851684529091529020805460ff19166001179055620001023390565b6001600160a01b0316816001600160a01b0316837f2f8788117e7eff1d82e926ec794901d17c78024a50270940304540a733656f0d60405160405180910390a45050565b6000602082840312156200015957600080fd5b81516001600160a01b03811681146200017157600080fd5b9392505050565b61148080620001886000396000f3fe608060405234801561001057600080fd5b50600436106101365760003560e01c80634adc7cfd116100b857806391d148541161007c57806391d14854146102a85780639e2c8a5b146102bb578063a217fddf146102ce578063d547741f146102d6578063eeafbddc146102e9578063f93b03bc1461031f57600080fd5b80634adc7cfd1461025357806375b238fc146102665780637b0472f01461026f5780637b71e5db14610282578063842dd90a1461029557600080fd5b80632edb531c116100ff5780632edb531c146101f45780632f2ff15d14610207578063302f7fea1461021a57806336568abe1461022d5780633b552dbd1461024057600080fd5b80628afd4e1461013b57806301ffc9a7146101505780630fb4d2e5146101785780631bbda52b146101b0578063248a9ca3146101c3575b600080fd5b61014e610149366004610ffc565b61033f565b005b61016361015e3660046110c6565b610383565b60405190151581526020015b60405180910390f35b61018b6101863660046110f0565b6103ba565b604080516001600160a01b03909416845260208401929092529082015260600161016f565b61014e6101be366004610ffc565b6103f7565b6101e66101d13660046110f0565b60009081526020819052604090206001015490565b60405190815260200161016f565b61014e610202366004611125565b610436565b61014e61021536600461114f565b610503565b6101e661022836600461117b565b610528565b61014e61023b36600461114f565b6105e6565b6101e661024e366004611125565b610669565b61014e6102613660046111ae565b610749565b6101e660015481565b61014e61027d3660046111c9565b610760565b61014e6102903660046111eb565b61076a565b6101e66102a33660046110f0565b6107c4565b6101636102b636600461114f565b6107f5565b61014e6102c93660046111c9565b61081e565b6101e6600081565b61014e6102e436600461114f565b610828565b6103066102f7366004611220565b630a85bd0160e11b9392505050565b6040516001600160e01b0319909116815260200161016f565b61033261032d366004611125565b61084d565b60405161016f919061124c565b60005b815181101561037e5761036e8383838151811061036157610361611290565b60200260200101516108eb565b610377816112bc565b9050610342565b505050565b60006001600160e01b03198216637965db0b60e01b14806103b457506301ffc9a760e01b6001600160e01b03198316145b92915050565b600681815481106103ca57600080fd5b60009182526020909120600390910201805460018201546002909201546001600160a01b03909116925083565b60005b815181101561037e576104268383838151811061041957610419611290565b6020026020010151610aac565b61042f816112bc565b90506103fa565b60015461044281610b9f565b50604080516060810182526001600160a01b03938416815260208101928352600091810182815260068054600181018255935290517ff652222313e28459528d920b65115c16c04f3efc82aaedc97be59f3f377c0d3f600390930292830180546001600160a01b031916919095161790935590517ff652222313e28459528d920b65115c16c04f3efc82aaedc97be59f3f377c0d4082015590517ff652222313e28459528d920b65115c16c04f3efc82aaedc97be59f3f377c0d4190910155565b60008281526020819052604090206001015461051e81610b9f565b61037e8383610bac565b6000806006848154811061053e5761053e611290565b60009182526020808320600390920290910180546001600160a01b03908116845260048352604080852088865290935291909220549192509081169086161461058b5760009150506105df565b80546001600160a01b0316600090815260056020908152604080832086845290915281205460018301549091906105d9906105d3620151806105cd86426112d5565b90610c30565b90610c3c565b93505050505b9392505050565b6001600160a01b038116331461065b5760405162461bcd60e51b815260206004820152602f60248201527f416363657373436f6e74726f6c3a2063616e206f6e6c792072656e6f756e636560448201526e103937b632b9903337b91039b2b63360891b60648201526084015b60405180910390fd5b6106658282610c48565b5050565b6000806000905060006006848154811061068557610685611290565b600091825260208220600390910201546001600160a01b031691505b6001600160a01b038083166000908152600360209081526040808320938a168352929052205481101561073f576001600160a01b038083166000908152600360209081526040808320938a16835292905290812080548390811061070757610707611290565b9060005260206000200154905061071f878783610528565b61072990856112ec565b9350508080610737906112bc565b9150506106a1565b5090949350505050565b600061075481610b9f565b61066560015483610cad565b6106658282610aac565b60015461077681610b9f565b60006006858154811061078b5761078b611290565b6000918252602090912060039091020180546001600160a01b0319166001600160a01b0395909516949094178455505060019091015550565b600080600683815481106107da576107da611290565b60009182526020909120600260039092020101549392505050565b6000918252602082815260408084206001600160a01b0393909316845291905290205460ff1690565b61066582826108eb565b60008281526020819052604090206001015461084381610b9f565b61037e8383610c48565b606060006006838154811061086457610864611290565b6000918252602080832060039283020180546001600160a01b039081168552928252604080852093891685529282529282902080548351818402810184019094528084529394509192908301828280156108dd57602002820191906000526020600020905b8154815260200190600101908083116108c9575b505050505091505092915050565b60006006838154811061090057610900611290565b60009182526020808320600390920290910180546001600160a01b039081168452600483526040808520878652909352919092205491925016331461099d5760405162461bcd60e51b815260206004820152602d60248201527f746f6b656e206973206e6f74207374616b6564206f722073656e64657220646f60448201526c195cc81b9bdd081bdddb881a5d609a1b6064820152608401610652565b6109a8338484610cb7565b80546001600160a01b0316600090815260036020908152604080832033845290915290206109d69083610d2f565b80546001600160a01b039081166000908152600460209081526040808320868452825280832080546001600160a01b03191690558454909316825260058152828220858352905290812081905560028201805460019290610a389084906112d5565b909155505080546040516323b872dd60e01b8152306004820152336024820152604481018490526001600160a01b03909116906323b872dd906064015b600060405180830381600087803b158015610a8f57600080fd5b505af1158015610aa3573d6000803e3d6000fd5b50505050505050565b600060068381548110610ac157610ac1611290565b6000918252602080832060039283020180546001600160a01b039081168552600483526040808620888752845280862080546001600160a01b0319163390811790915583548316875260058552818720898852855281872042905583549092168652938352838520908552825291832080546001818101835591855291842090910185905560028201805492945090929091610b5e9084906112ec565b909155505080546040516323b872dd60e01b8152336004820152306024820152604481018490526001600160a01b03909116906323b872dd90606401610a75565b610ba98133610de6565b50565b610bb682826107f5565b610665576000828152602081815260408083206001600160a01b03851684529091529020805460ff19166001179055610bec3390565b6001600160a01b0316816001600160a01b0316837f2f8788117e7eff1d82e926ec794901d17c78024a50270940304540a733656f0d60405160405180910390a45050565b60006105df8284611304565b60006105df8284611326565b610c5282826107f5565b15610665576000828152602081815260408083206001600160a01b0385168085529252808320805460ff1916905551339285917ff6391f5c32d9c69d2a47ea670b442974b53935d1edc7fd64eb21e047a839171b9190a45050565b6106658282610bac565b6000610cc4848484610528565b6002546040516340c10f1960e01b8152336004820152602481018390529192506001600160a01b0316906340c10f1990604401600060405180830381600087803b158015610d1157600080fd5b505af1158015610d25573d6000803e3d6000fd5b5050505050505050565b60005b825481101561037e5781838281548110610d4e57610d4e611290565b906000526020600020015403610dd45782548390610d6e906001906112d5565b81548110610d7e57610d7e611290565b9060005260206000200154838281548110610d9b57610d9b611290565b906000526020600020018190555082805480610db957610db9611345565b60019003818190600052602060002001600090559055505050565b80610dde816112bc565b915050610d32565b610df082826107f5565b61066557610e08816001600160a01b03166014610e4a565b610e13836020610e4a565b604051602001610e2492919061138b565b60408051601f198184030181529082905262461bcd60e51b825261065291600401611400565b60606000610e59836002611326565b610e649060026112ec565b67ffffffffffffffff811115610e7c57610e7c610fe6565b6040519080825280601f01601f191660200182016040528015610ea6576020820181803683370190505b509050600360fc1b81600081518110610ec157610ec1611290565b60200101906001600160f81b031916908160001a905350600f60fb1b81600181518110610ef057610ef0611290565b60200101906001600160f81b031916908160001a9053506000610f14846002611326565b610f1f9060016112ec565b90505b6001811115610f97576f181899199a1a9b1b9c1cb0b131b232b360811b85600f1660108110610f5357610f53611290565b1a60f81b828281518110610f6957610f69611290565b60200101906001600160f81b031916908160001a90535060049490941c93610f9081611433565b9050610f22565b5083156105df5760405162461bcd60e51b815260206004820181905260248201527f537472696e67733a20686578206c656e67746820696e73756666696369656e746044820152606401610652565b634e487b7160e01b600052604160045260246000fd5b6000806040838503121561100f57600080fd5b8235915060208084013567ffffffffffffffff8082111561102f57600080fd5b818601915086601f83011261104357600080fd5b81358181111561105557611055610fe6565b8060051b604051601f19603f8301168101818110858211171561107a5761107a610fe6565b60405291825284820192508381018501918983111561109857600080fd5b938501935b828510156110b65784358452938501939285019261109d565b8096505050505050509250929050565b6000602082840312156110d857600080fd5b81356001600160e01b0319811681146105df57600080fd5b60006020828403121561110257600080fd5b5035919050565b80356001600160a01b038116811461112057600080fd5b919050565b6000806040838503121561113857600080fd5b61114183611109565b946020939093013593505050565b6000806040838503121561116257600080fd5b8235915061117260208401611109565b90509250929050565b60008060006060848603121561119057600080fd5b61119984611109565b95602085013595506040909401359392505050565b6000602082840312156111c057600080fd5b6105df82611109565b600080604083850312156111dc57600080fd5b50508035926020909101359150565b60008060006060848603121561120057600080fd5b8335925061121060208501611109565b9150604084013590509250925092565b60008060006060848603121561123557600080fd5b61123e84611109565b925061121060208501611109565b6020808252825182820181905260009190848201906040850190845b8181101561128457835183529284019291840191600101611268565b50909695505050505050565b634e487b7160e01b600052603260045260246000fd5b634e487b7160e01b600052601160045260246000fd5b6000600182016112ce576112ce6112a6565b5060010190565b6000828210156112e7576112e76112a6565b500390565b600082198211156112ff576112ff6112a6565b500190565b60008261132157634e487b7160e01b600052601260045260246000fd5b500490565b6000816000190483118215151615611340576113406112a6565b500290565b634e487b7160e01b600052603160045260246000fd5b60005b8381101561137657818101518382015260200161135e565b83811115611385576000848401525b50505050565b7f416363657373436f6e74726f6c3a206163636f756e74200000000000000000008152600083516113c381601785016020880161135b565b7001034b99036b4b9b9b4b733903937b6329607d1b60179184019182015283516113f481602884016020880161135b565b01602801949350505050565b602081526000825180602084015261141f81604085016020870161135b565b601f01601f19169190910160400192915050565b600081611442576114426112a6565b50600019019056fea2646970667358221220e8798c3e473c5d9cf2eb5e6b70ffc5234ffde1529ad29f5290a47ce73bc9dc2364736f6c634300080d0033",
					"opcodes": "PUSH1 0x80 PUSH1 0x40 MSTORE PUSH32 0xDF8B4C520FFE197C5343C6F5AEC59570151EF9A492F2C624FD45DDDE6135EC42 PUSH1 0x1 SSTORE CALLVALUE DUP1 ISZERO PUSH3 0x35 JUMPI PUSH1 0x0 DUP1 REVERT JUMPDEST POP PUSH1 0x40 MLOAD PUSH3 0x1608 CODESIZE SUB DUP1 PUSH3 0x1608 DUP4 CODECOPY DUP2 ADD PUSH1 0x40 DUP2 SWAP1 MSTORE PUSH3 0x58 SWAP2 PUSH3 0x146 JUMP JUMPDEST PUSH1 0x2 DUP1 SLOAD PUSH1 0x1 PUSH1 0x1 PUSH1 0xA0 SHL SUB NOT AND PUSH1 0x1 PUSH1 0x1 PUSH1 0xA0 SHL SUB DUP4 AND OR SWAP1 SSTORE PUSH3 0x80 PUSH1 0x0 CALLER PUSH3 0x96 JUMP JUMPDEST PUSH1 0x1 SLOAD PUSH3 0x8F SWAP1 CALLER PUSH3 0x96 JUMP JUMPDEST POP PUSH3 0x178 JUMP JUMPDEST PUSH3 0xA2 DUP3 DUP3 PUSH3 0xA6 JUMP JUMPDEST POP POP JUMP JUMPDEST PUSH1 0x0 DUP3 DUP2 MSTORE PUSH1 0x20 DUP2 DUP2 MSTORE PUSH1 0x40 DUP1 DUP4 KECCAK256 PUSH1 0x1 PUSH1 0x1 PUSH1 0xA0 SHL SUB DUP6 AND DUP5 MSTORE SWAP1 SWAP2 MSTORE SWAP1 KECCAK256 SLOAD PUSH1 0xFF AND PUSH3 0xA2 JUMPI PUSH1 0x0 DUP3 DUP2 MSTORE PUSH1 0x20 DUP2 DUP2 MSTORE PUSH1 0x40 DUP1 DUP4 KECCAK256 PUSH1 0x1 PUSH1 0x1 PUSH1 0xA0 SHL SUB DUP6 AND DUP5 MSTORE SWAP1 SWAP2 MSTORE SWAP1 KECCAK256 DUP1 SLOAD PUSH1 0xFF NOT AND PUSH1 0x1 OR SWAP1 SSTORE PUSH3 0x102 CALLER SWAP1 JUMP JUMPDEST PUSH1 0x1 PUSH1 0x1 PUSH1 0xA0 SHL SUB AND DUP2 PUSH1 0x1 PUSH1 0x1 PUSH1 0xA0 SHL SUB AND DUP4 PUSH32 0x2F8788117E7EFF1D82E926EC794901D17C78024A50270940304540A733656F0D PUSH1 0x40 MLOAD PUSH1 0x40 MLOAD DUP1 SWAP2 SUB SWAP1 LOG4 POP POP JUMP JUMPDEST PUSH1 0x0 PUSH1 0x20 DUP3 DUP5 SUB SLT ISZERO PUSH3 0x159 JUMPI PUSH1 0x0 DUP1 REVERT JUMPDEST DUP2 MLOAD PUSH1 0x1 PUSH1 0x1 PUSH1 0xA0 SHL SUB DUP2 AND DUP2 EQ PUSH3 0x171 JUMPI PUSH1 0x0 DUP1 REVERT JUMPDEST SWAP4 SWAP3 POP POP POP JUMP JUMPDEST PUSH2 0x1480 DUP1 PUSH3 0x188 PUSH1 0x0 CODECOPY PUSH1 0x0 RETURN INVALID PUSH1 0x80 PUSH1 0x40 MSTORE CALLVALUE DUP1 ISZERO PUSH2 0x10 JUMPI PUSH1 0x0 DUP1 REVERT JUMPDEST POP PUSH1 0x4 CALLDATASIZE LT PUSH2 0x136 JUMPI PUSH1 0x0 CALLDATALOAD PUSH1 0xE0 SHR DUP1 PUSH4 0x4ADC7CFD GT PUSH2 0xB8 JUMPI DUP1 PUSH4 0x91D14854 GT PUSH2 0x7C JUMPI DUP1 PUSH4 0x91D14854 EQ PUSH2 0x2A8 JUMPI DUP1 PUSH4 0x9E2C8A5B EQ PUSH2 0x2BB JUMPI DUP1 PUSH4 0xA217FDDF EQ PUSH2 0x2CE JUMPI DUP1 PUSH4 0xD547741F EQ PUSH2 0x2D6 JUMPI DUP1 PUSH4 0xEEAFBDDC EQ PUSH2 0x2E9 JUMPI DUP1 PUSH4 0xF93B03BC EQ PUSH2 0x31F JUMPI PUSH1 0x0 DUP1 REVERT JUMPDEST DUP1 PUSH4 0x4ADC7CFD EQ PUSH2 0x253 JUMPI DUP1 PUSH4 0x75B238FC EQ PUSH2 0x266 JUMPI DUP1 PUSH4 0x7B0472F0 EQ PUSH2 0x26F JUMPI DUP1 PUSH4 0x7B71E5DB EQ PUSH2 0x282 JUMPI DUP1 PUSH4 0x842DD90A EQ PUSH2 0x295 JUMPI PUSH1 0x0 DUP1 REVERT JUMPDEST DUP1 PUSH4 0x2EDB531C GT PUSH2 0xFF JUMPI DUP1 PUSH4 0x2EDB531C EQ PUSH2 0x1F4 JUMPI DUP1 PUSH4 0x2F2FF15D EQ PUSH2 0x207 JUMPI DUP1 PUSH4 0x302F7FEA EQ PUSH2 0x21A JUMPI DUP1 PUSH4 0x36568ABE EQ PUSH2 0x22D JUMPI DUP1 PUSH4 0x3B552DBD EQ PUSH2 0x240 JUMPI PUSH1 0x0 DUP1 REVERT JUMPDEST DUP1 PUSH3 0x8AFD4E EQ PUSH2 0x13B JUMPI DUP1 PUSH4 0x1FFC9A7 EQ PUSH2 0x150 JUMPI DUP1 PUSH4 0xFB4D2E5 EQ PUSH2 0x178 JUMPI DUP1 PUSH4 0x1BBDA52B EQ PUSH2 0x1B0 JUMPI DUP1 PUSH4 0x248A9CA3 EQ PUSH2 0x1C3 JUMPI JUMPDEST PUSH1 0x0 DUP1 REVERT JUMPDEST PUSH2 0x14E PUSH2 0x149 CALLDATASIZE PUSH1 0x4 PUSH2 0xFFC JUMP JUMPDEST PUSH2 0x33F JUMP JUMPDEST STOP JUMPDEST PUSH2 0x163 PUSH2 0x15E CALLDATASIZE PUSH1 0x4 PUSH2 0x10C6 JUMP JUMPDEST PUSH2 0x383 JUMP JUMPDEST PUSH1 0x40 MLOAD SWAP1 ISZERO ISZERO DUP2 MSTORE PUSH1 0x20 ADD JUMPDEST PUSH1 0x40 MLOAD DUP1 SWAP2 SUB SWAP1 RETURN JUMPDEST PUSH2 0x18B PUSH2 0x186 CALLDATASIZE PUSH1 0x4 PUSH2 0x10F0 JUMP JUMPDEST PUSH2 0x3BA JUMP JUMPDEST PUSH1 0x40 DUP1 MLOAD PUSH1 0x1 PUSH1 0x1 PUSH1 0xA0 SHL SUB SWAP1 SWAP5 AND DUP5 MSTORE PUSH1 0x20 DUP5 ADD SWAP3 SWAP1 SWAP3 MSTORE SWAP1 DUP3 ADD MSTORE PUSH1 0x60 ADD PUSH2 0x16F JUMP JUMPDEST PUSH2 0x14E PUSH2 0x1BE CALLDATASIZE PUSH1 0x4 PUSH2 0xFFC JUMP JUMPDEST PUSH2 0x3F7 JUMP JUMPDEST PUSH2 0x1E6 PUSH2 0x1D1 CALLDATASIZE PUSH1 0x4 PUSH2 0x10F0 JUMP JUMPDEST PUSH1 0x0 SWAP1 DUP2 MSTORE PUSH1 0x20 DUP2 SWAP1 MSTORE PUSH1 0x40 SWAP1 KECCAK256 PUSH1 0x1 ADD SLOAD SWAP1 JUMP JUMPDEST PUSH1 0x40 MLOAD SWAP1 DUP2 MSTORE PUSH1 0x20 ADD PUSH2 0x16F JUMP JUMPDEST PUSH2 0x14E PUSH2 0x202 CALLDATASIZE PUSH1 0x4 PUSH2 0x1125 JUMP JUMPDEST PUSH2 0x436 JUMP JUMPDEST PUSH2 0x14E PUSH2 0x215 CALLDATASIZE PUSH1 0x4 PUSH2 0x114F JUMP JUMPDEST PUSH2 0x503 JUMP JUMPDEST PUSH2 0x1E6 PUSH2 0x228 CALLDATASIZE PUSH1 0x4 PUSH2 0x117B JUMP JUMPDEST PUSH2 0x528 JUMP JUMPDEST PUSH2 0x14E PUSH2 0x23B CALLDATASIZE PUSH1 0x4 PUSH2 0x114F JUMP JUMPDEST PUSH2 0x5E6 JUMP JUMPDEST PUSH2 0x1E6 PUSH2 0x24E CALLDATASIZE PUSH1 0x4 PUSH2 0x1125 JUMP JUMPDEST PUSH2 0x669 JUMP JUMPDEST PUSH2 0x14E PUSH2 0x261 CALLDATASIZE PUSH1 0x4 PUSH2 0x11AE JUMP JUMPDEST PUSH2 0x749 JUMP JUMPDEST PUSH2 0x1E6 PUSH1 0x1 SLOAD DUP2 JUMP JUMPDEST PUSH2 0x14E PUSH2 0x27D CALLDATASIZE PUSH1 0x4 PUSH2 0x11C9 JUMP JUMPDEST PUSH2 0x760 JUMP JUMPDEST PUSH2 0x14E PUSH2 0x290 CALLDATASIZE PUSH1 0x4 PUSH2 0x11EB JUMP JUMPDEST PUSH2 0x76A JUMP JUMPDEST PUSH2 0x1E6 PUSH2 0x2A3 CALLDATASIZE PUSH1 0x4 PUSH2 0x10F0 JUMP JUMPDEST PUSH2 0x7C4 JUMP JUMPDEST PUSH2 0x163 PUSH2 0x2B6 CALLDATASIZE PUSH1 0x4 PUSH2 0x114F JUMP JUMPDEST PUSH2 0x7F5 JUMP JUMPDEST PUSH2 0x14E PUSH2 0x2C9 CALLDATASIZE PUSH1 0x4 PUSH2 0x11C9 JUMP JUMPDEST PUSH2 0x81E JUMP JUMPDEST PUSH2 0x1E6 PUSH1 0x0 DUP2 JUMP JUMPDEST PUSH2 0x14E PUSH2 0x2E4 CALLDATASIZE PUSH1 0x4 PUSH2 0x114F JUMP JUMPDEST PUSH2 0x828 JUMP JUMPDEST PUSH2 0x306 PUSH2 0x2F7 CALLDATASIZE PUSH1 0x4 PUSH2 0x1220 JUMP JUMPDEST PUSH4 0xA85BD01 PUSH1 0xE1 SHL SWAP4 SWAP3 POP POP POP JUMP JUMPDEST PUSH1 0x40 MLOAD PUSH1 0x1 PUSH1 0x1 PUSH1 0xE0 SHL SUB NOT SWAP1 SWAP2 AND DUP2 MSTORE PUSH1 0x20 ADD PUSH2 0x16F JUMP JUMPDEST PUSH2 0x332 PUSH2 0x32D CALLDATASIZE PUSH1 0x4 PUSH2 0x1125 JUMP JUMPDEST PUSH2 0x84D JUMP JUMPDEST PUSH1 0x40 MLOAD PUSH2 0x16F SWAP2 SWAP1 PUSH2 0x124C JUMP JUMPDEST PUSH1 0x0 JUMPDEST DUP2 MLOAD DUP2 LT ISZERO PUSH2 0x37E JUMPI PUSH2 0x36E DUP4 DUP4 DUP4 DUP2 MLOAD DUP2 LT PUSH2 0x361 JUMPI PUSH2 0x361 PUSH2 0x1290 JUMP JUMPDEST PUSH1 0x20 MUL PUSH1 0x20 ADD ADD MLOAD PUSH2 0x8EB JUMP JUMPDEST PUSH2 0x377 DUP2 PUSH2 0x12BC JUMP JUMPDEST SWAP1 POP PUSH2 0x342 JUMP JUMPDEST POP POP POP JUMP JUMPDEST PUSH1 0x0 PUSH1 0x1 PUSH1 0x1 PUSH1 0xE0 SHL SUB NOT DUP3 AND PUSH4 0x7965DB0B PUSH1 0xE0 SHL EQ DUP1 PUSH2 0x3B4 JUMPI POP PUSH4 0x1FFC9A7 PUSH1 0xE0 SHL PUSH1 0x1 PUSH1 0x1 PUSH1 0xE0 SHL SUB NOT DUP4 AND EQ JUMPDEST SWAP3 SWAP2 POP POP JUMP JUMPDEST PUSH1 0x6 DUP2 DUP2 SLOAD DUP2 LT PUSH2 0x3CA JUMPI PUSH1 0x0 DUP1 REVERT JUMPDEST PUSH1 0x0 SWAP2 DUP3 MSTORE PUSH1 0x20 SWAP1 SWAP2 KECCAK256 PUSH1 0x3 SWAP1 SWAP2 MUL ADD DUP1 SLOAD PUSH1 0x1 DUP3 ADD SLOAD PUSH1 0x2 SWAP1 SWAP3 ADD SLOAD PUSH1 0x1 PUSH1 0x1 PUSH1 0xA0 SHL SUB SWAP1 SWAP2 AND SWAP3 POP DUP4 JUMP JUMPDEST PUSH1 0x0 JUMPDEST DUP2 MLOAD DUP2 LT ISZERO PUSH2 0x37E JUMPI PUSH2 0x426 DUP4 DUP4 DUP4 DUP2 MLOAD DUP2 LT PUSH2 0x419 JUMPI PUSH2 0x419 PUSH2 0x1290 JUMP JUMPDEST PUSH1 0x20 MUL PUSH1 0x20 ADD ADD MLOAD PUSH2 0xAAC JUMP JUMPDEST PUSH2 0x42F DUP2 PUSH2 0x12BC JUMP JUMPDEST SWAP1 POP PUSH2 0x3FA JUMP JUMPDEST PUSH1 0x1 SLOAD PUSH2 0x442 DUP2 PUSH2 0xB9F JUMP JUMPDEST POP PUSH1 0x40 DUP1 MLOAD PUSH1 0x60 DUP2 ADD DUP3 MSTORE PUSH1 0x1 PUSH1 0x1 PUSH1 0xA0 SHL SUB SWAP4 DUP5 AND DUP2 MSTORE PUSH1 0x20 DUP2 ADD SWAP3 DUP4 MSTORE PUSH1 0x0 SWAP2 DUP2 ADD DUP3 DUP2 MSTORE PUSH1 0x6 DUP1 SLOAD PUSH1 0x1 DUP2 ADD DUP3 SSTORE SWAP4 MSTORE SWAP1 MLOAD PUSH32 0xF652222313E28459528D920B65115C16C04F3EFC82AAEDC97BE59F3F377C0D3F PUSH1 0x3 SWAP1 SWAP4 MUL SWAP3 DUP4 ADD DUP1 SLOAD PUSH1 0x1 PUSH1 0x1 PUSH1 0xA0 SHL SUB NOT AND SWAP2 SWAP1 SWAP6 AND OR SWAP1 SWAP4 SSTORE SWAP1 MLOAD PUSH32 0xF652222313E28459528D920B65115C16C04F3EFC82AAEDC97BE59F3F377C0D40 DUP3 ADD SSTORE SWAP1 MLOAD PUSH32 0xF652222313E28459528D920B65115C16C04F3EFC82AAEDC97BE59F3F377C0D41 SWAP1 SWAP2 ADD SSTORE JUMP JUMPDEST PUSH1 0x0 DUP3 DUP2 MSTORE PUSH1 0x20 DUP2 SWAP1 MSTORE PUSH1 0x40 SWAP1 KECCAK256 PUSH1 0x1 ADD SLOAD PUSH2 0x51E DUP2 PUSH2 0xB9F JUMP JUMPDEST PUSH2 0x37E DUP4 DUP4 PUSH2 0xBAC JUMP JUMPDEST PUSH1 0x0 DUP1 PUSH1 0x6 DUP5 DUP2 SLOAD DUP2 LT PUSH2 0x53E JUMPI PUSH2 0x53E PUSH2 0x1290 JUMP JUMPDEST PUSH1 0x0 SWAP2 DUP3 MSTORE PUSH1 0x20 DUP1 DUP4 KECCAK256 PUSH1 0x3 SWAP1 SWAP3 MUL SWAP1 SWAP2 ADD DUP1 SLOAD PUSH1 0x1 PUSH1 0x1 PUSH1 0xA0 SHL SUB SWAP1 DUP2 AND DUP5 MSTORE PUSH1 0x4 DUP4 MSTORE PUSH1 0x40 DUP1 DUP6 KECCAK256 DUP9 DUP7 MSTORE SWAP1 SWAP4 MSTORE SWAP2 SWAP1 SWAP3 KECCAK256 SLOAD SWAP2 SWAP3 POP SWAP1 DUP2 AND SWAP1 DUP7 AND EQ PUSH2 0x58B JUMPI PUSH1 0x0 SWAP2 POP POP PUSH2 0x5DF JUMP JUMPDEST DUP1 SLOAD PUSH1 0x1 PUSH1 0x1 PUSH1 0xA0 SHL SUB AND PUSH1 0x0 SWAP1 DUP2 MSTORE PUSH1 0x5 PUSH1 0x20 SWAP1 DUP2 MSTORE PUSH1 0x40 DUP1 DUP4 KECCAK256 DUP7 DUP5 MSTORE SWAP1 SWAP2 MSTORE DUP2 KECCAK256 SLOAD PUSH1 0x1 DUP4 ADD SLOAD SWAP1 SWAP2 SWAP1 PUSH2 0x5D9 SWAP1 PUSH2 0x5D3 PUSH3 0x15180 PUSH2 0x5CD DUP7 TIMESTAMP PUSH2 0x12D5 JUMP JUMPDEST SWAP1 PUSH2 0xC30 JUMP JUMPDEST SWAP1 PUSH2 0xC3C JUMP JUMPDEST SWAP4 POP POP POP POP JUMPDEST SWAP4 SWAP3 POP POP POP JUMP JUMPDEST PUSH1 0x1 PUSH1 0x1 PUSH1 0xA0 SHL SUB DUP2 AND CALLER EQ PUSH2 0x65B JUMPI PUSH1 0x40 MLOAD PUSH3 0x461BCD PUSH1 0xE5 SHL DUP2 MSTORE PUSH1 0x20 PUSH1 0x4 DUP3 ADD MSTORE PUSH1 0x2F PUSH1 0x24 DUP3 ADD MSTORE PUSH32 0x416363657373436F6E74726F6C3A2063616E206F6E6C792072656E6F756E6365 PUSH1 0x44 DUP3 ADD MSTORE PUSH15 0x103937B632B9903337B91039B2B633 PUSH1 0x89 SHL PUSH1 0x64 DUP3 ADD MSTORE PUSH1 0x84 ADD JUMPDEST PUSH1 0x40 MLOAD DUP1 SWAP2 SUB SWAP1 REVERT JUMPDEST PUSH2 0x665 DUP3 DUP3 PUSH2 0xC48 JUMP JUMPDEST POP POP JUMP JUMPDEST PUSH1 0x0 DUP1 PUSH1 0x0 SWAP1 POP PUSH1 0x0 PUSH1 0x6 DUP5 DUP2 SLOAD DUP2 LT PUSH2 0x685 JUMPI PUSH2 0x685 PUSH2 0x1290 JUMP JUMPDEST PUSH1 0x0 SWAP2 DUP3 MSTORE PUSH1 0x20 DUP3 KECCAK256 PUSH1 0x3 SWAP1 SWAP2 MUL ADD SLOAD PUSH1 0x1 PUSH1 0x1 PUSH1 0xA0 SHL SUB AND SWAP2 POP JUMPDEST PUSH1 0x1 PUSH1 0x1 PUSH1 0xA0 SHL SUB DUP1 DUP4 AND PUSH1 0x0 SWAP1 DUP2 MSTORE PUSH1 0x3 PUSH1 0x20 SWAP1 DUP2 MSTORE PUSH1 0x40 DUP1 DUP4 KECCAK256 SWAP4 DUP11 AND DUP4 MSTORE SWAP3 SWAP1 MSTORE KECCAK256 SLOAD DUP2 LT ISZERO PUSH2 0x73F JUMPI PUSH1 0x1 PUSH1 0x1 PUSH1 0xA0 SHL SUB DUP1 DUP4 AND PUSH1 0x0 SWAP1 DUP2 MSTORE PUSH1 0x3 PUSH1 0x20 SWAP1 DUP2 MSTORE PUSH1 0x40 DUP1 DUP4 KECCAK256 SWAP4 DUP11 AND DUP4 MSTORE SWAP3 SWAP1 MSTORE SWAP1 DUP2 KECCAK256 DUP1 SLOAD DUP4 SWAP1 DUP2 LT PUSH2 0x707 JUMPI PUSH2 0x707 PUSH2 0x1290 JUMP JUMPDEST SWAP1 PUSH1 0x0 MSTORE PUSH1 0x20 PUSH1 0x0 KECCAK256 ADD SLOAD SWAP1 POP PUSH2 0x71F DUP8 DUP8 DUP4 PUSH2 0x528 JUMP JUMPDEST PUSH2 0x729 SWAP1 DUP6 PUSH2 0x12EC JUMP JUMPDEST SWAP4 POP POP DUP1 DUP1 PUSH2 0x737 SWAP1 PUSH2 0x12BC JUMP JUMPDEST SWAP2 POP POP PUSH2 0x6A1 JUMP JUMPDEST POP SWAP1 SWAP5 SWAP4 POP POP POP POP JUMP JUMPDEST PUSH1 0x0 PUSH2 0x754 DUP2 PUSH2 0xB9F JUMP JUMPDEST PUSH2 0x665 PUSH1 0x1 SLOAD DUP4 PUSH2 0xCAD JUMP JUMPDEST PUSH2 0x665 DUP3 DUP3 PUSH2 0xAAC JUMP JUMPDEST PUSH1 0x1 SLOAD PUSH2 0x776 DUP2 PUSH2 0xB9F JUMP JUMPDEST PUSH1 0x0 PUSH1 0x6 DUP6 DUP2 SLOAD DUP2 LT PUSH2 0x78B JUMPI PUSH2 0x78B PUSH2 0x1290 JUMP JUMPDEST PUSH1 0x0 SWAP2 DUP3 MSTORE PUSH1 0x20 SWAP1 SWAP2 KECCAK256 PUSH1 0x3 SWAP1 SWAP2 MUL ADD DUP1 SLOAD PUSH1 0x1 PUSH1 0x1 PUSH1 0xA0 SHL SUB NOT AND PUSH1 0x1 PUSH1 0x1 PUSH1 0xA0 SHL SUB SWAP6 SWAP1 SWAP6 AND SWAP5 SWAP1 SWAP5 OR DUP5 SSTORE POP POP PUSH1 0x1 SWAP1 SWAP2 ADD SSTORE POP JUMP JUMPDEST PUSH1 0x0 DUP1 PUSH1 0x6 DUP4 DUP2 SLOAD DUP2 LT PUSH2 0x7DA JUMPI PUSH2 0x7DA PUSH2 0x1290 JUMP JUMPDEST PUSH1 0x0 SWAP2 DUP3 MSTORE PUSH1 0x20 SWAP1 SWAP2 KECCAK256 PUSH1 0x2 PUSH1 0x3 SWAP1 SWAP3 MUL ADD ADD SLOAD SWAP4 SWAP3 POP POP POP JUMP JUMPDEST PUSH1 0x0 SWAP2 DUP3 MSTORE PUSH1 0x20 DUP3 DUP2 MSTORE PUSH1 0x40 DUP1 DUP5 KECCAK256 PUSH1 0x1 PUSH1 0x1 PUSH1 0xA0 SHL SUB SWAP4 SWAP1 SWAP4 AND DUP5 MSTORE SWAP2 SWAP1 MSTORE SWAP1 KECCAK256 SLOAD PUSH1 0xFF AND SWAP1 JUMP JUMPDEST PUSH2 0x665 DUP3 DUP3 PUSH2 0x8EB JUMP JUMPDEST PUSH1 0x0 DUP3 DUP2 MSTORE PUSH1 0x20 DUP2 SWAP1 MSTORE PUSH1 0x40 SWAP1 KECCAK256 PUSH1 0x1 ADD SLOAD PUSH2 0x843 DUP2 PUSH2 0xB9F JUMP JUMPDEST PUSH2 0x37E DUP4 DUP4 PUSH2 0xC48 JUMP JUMPDEST PUSH1 0x60 PUSH1 0x0 PUSH1 0x6 DUP4 DUP2 SLOAD DUP2 LT PUSH2 0x864 JUMPI PUSH2 0x864 PUSH2 0x1290 JUMP JUMPDEST PUSH1 0x0 SWAP2 DUP3 MSTORE PUSH1 0x20 DUP1 DUP4 KECCAK256 PUSH1 0x3 SWAP3 DUP4 MUL ADD DUP1 SLOAD PUSH1 0x1 PUSH1 0x1 PUSH1 0xA0 SHL SUB SWAP1 DUP2 AND DUP6 MSTORE SWAP3 DUP3 MSTORE PUSH1 0x40 DUP1 DUP6 KECCAK256 SWAP4 DUP10 AND DUP6 MSTORE SWAP3 DUP3 MSTORE SWAP3 DUP3 SWAP1 KECCAK256 DUP1 SLOAD DUP4 MLOAD DUP2 DUP5 MUL DUP2 ADD DUP5 ADD SWAP1 SWAP5 MSTORE DUP1 DUP5 MSTORE SWAP4 SWAP5 POP SWAP2 SWAP3 SWAP1 DUP4 ADD DUP3 DUP3 DUP1 ISZERO PUSH2 0x8DD JUMPI PUSH1 0x20 MUL DUP3 ADD SWAP2 SWAP1 PUSH1 0x0 MSTORE PUSH1 0x20 PUSH1 0x0 KECCAK256 SWAP1 JUMPDEST DUP2 SLOAD DUP2 MSTORE PUSH1 0x20 ADD SWAP1 PUSH1 0x1 ADD SWAP1 DUP1 DUP4 GT PUSH2 0x8C9 JUMPI JUMPDEST POP POP POP POP POP SWAP2 POP POP SWAP3 SWAP2 POP POP JUMP JUMPDEST PUSH1 0x0 PUSH1 0x6 DUP4 DUP2 SLOAD DUP2 LT PUSH2 0x900 JUMPI PUSH2 0x900 PUSH2 0x1290 JUMP JUMPDEST PUSH1 0x0 SWAP2 DUP3 MSTORE PUSH1 0x20 DUP1 DUP4 KECCAK256 PUSH1 0x3 SWAP1 SWAP3 MUL SWAP1 SWAP2 ADD DUP1 SLOAD PUSH1 0x1 PUSH1 0x1 PUSH1 0xA0 SHL SUB SWAP1 DUP2 AND DUP5 MSTORE PUSH1 0x4 DUP4 MSTORE PUSH1 0x40 DUP1 DUP6 KECCAK256 DUP8 DUP7 MSTORE SWAP1 SWAP4 MSTORE SWAP2 SWAP1 SWAP3 KECCAK256 SLOAD SWAP2 SWAP3 POP AND CALLER EQ PUSH2 0x99D JUMPI PUSH1 0x40 MLOAD PUSH3 0x461BCD PUSH1 0xE5 SHL DUP2 MSTORE PUSH1 0x20 PUSH1 0x4 DUP3 ADD MSTORE PUSH1 0x2D PUSH1 0x24 DUP3 ADD MSTORE PUSH32 0x746F6B656E206973206E6F74207374616B6564206F722073656E64657220646F PUSH1 0x44 DUP3 ADD MSTORE PUSH13 0x195CC81B9BDD081BDDDB881A5D PUSH1 0x9A SHL PUSH1 0x64 DUP3 ADD MSTORE PUSH1 0x84 ADD PUSH2 0x652 JUMP JUMPDEST PUSH2 0x9A8 CALLER DUP5 DUP5 PUSH2 0xCB7 JUMP JUMPDEST DUP1 SLOAD PUSH1 0x1 PUSH1 0x1 PUSH1 0xA0 SHL SUB AND PUSH1 0x0 SWAP1 DUP2 MSTORE PUSH1 0x3 PUSH1 0x20 SWAP1 DUP2 MSTORE PUSH1 0x40 DUP1 DUP4 KECCAK256 CALLER DUP5 MSTORE SWAP1 SWAP2 MSTORE SWAP1 KECCAK256 PUSH2 0x9D6 SWAP1 DUP4 PUSH2 0xD2F JUMP JUMPDEST DUP1 SLOAD PUSH1 0x1 PUSH1 0x1 PUSH1 0xA0 SHL SUB SWAP1 DUP2 AND PUSH1 0x0 SWAP1 DUP2 MSTORE PUSH1 0x4 PUSH1 0x20 SWAP1 DUP2 MSTORE PUSH1 0x40 DUP1 DUP4 KECCAK256 DUP7 DUP5 MSTORE DUP3 MSTORE DUP1 DUP4 KECCAK256 DUP1 SLOAD PUSH1 0x1 PUSH1 0x1 PUSH1 0xA0 SHL SUB NOT AND SWAP1 SSTORE DUP5 SLOAD SWAP1 SWAP4 AND DUP3 MSTORE PUSH1 0x5 DUP2 MSTORE DUP3 DUP3 KECCAK256 DUP6 DUP4 MSTORE SWAP1 MSTORE SWAP1 DUP2 KECCAK256 DUP2 SWAP1 SSTORE PUSH1 0x2 DUP3 ADD DUP1 SLOAD PUSH1 0x1 SWAP3 SWAP1 PUSH2 0xA38 SWAP1 DUP5 SWAP1 PUSH2 0x12D5 JUMP JUMPDEST SWAP1 SWAP2 SSTORE POP POP DUP1 SLOAD PUSH1 0x40 MLOAD PUSH4 0x23B872DD PUSH1 0xE0 SHL DUP2 MSTORE ADDRESS PUSH1 0x4 DUP3 ADD MSTORE CALLER PUSH1 0x24 DUP3 ADD MSTORE PUSH1 0x44 DUP2 ADD DUP5 SWAP1 MSTORE PUSH1 0x1 PUSH1 0x1 PUSH1 0xA0 SHL SUB SWAP1 SWAP2 AND SWAP1 PUSH4 0x23B872DD SWAP1 PUSH1 0x64 ADD JUMPDEST PUSH1 0x0 PUSH1 0x40 MLOAD DUP1 DUP4 SUB DUP2 PUSH1 0x0 DUP8 DUP1 EXTCODESIZE ISZERO DUP1 ISZERO PUSH2 0xA8F JUMPI PUSH1 0x0 DUP1 REVERT JUMPDEST POP GAS CALL ISZERO DUP1 ISZERO PUSH2 0xAA3 JUMPI RETURNDATASIZE PUSH1 0x0 DUP1 RETURNDATACOPY RETURNDATASIZE PUSH1 0x0 REVERT JUMPDEST POP POP POP POP POP POP POP JUMP JUMPDEST PUSH1 0x0 PUSH1 0x6 DUP4 DUP2 SLOAD DUP2 LT PUSH2 0xAC1 JUMPI PUSH2 0xAC1 PUSH2 0x1290 JUMP JUMPDEST PUSH1 0x0 SWAP2 DUP3 MSTORE PUSH1 0x20 DUP1 DUP4 KECCAK256 PUSH1 0x3 SWAP3 DUP4 MUL ADD DUP1 SLOAD PUSH1 0x1 PUSH1 0x1 PUSH1 0xA0 SHL SUB SWAP1 DUP2 AND DUP6 MSTORE PUSH1 0x4 DUP4 MSTORE PUSH1 0x40 DUP1 DUP7 KECCAK256 DUP9 DUP8 MSTORE DUP5 MSTORE DUP1 DUP7 KECCAK256 DUP1 SLOAD PUSH1 0x1 PUSH1 0x1 PUSH1 0xA0 SHL SUB NOT AND CALLER SWAP1 DUP2 OR SWAP1 SWAP2 SSTORE DUP4 SLOAD DUP4 AND DUP8 MSTORE PUSH1 0x5 DUP6 MSTORE DUP2 DUP8 KECCAK256 DUP10 DUP9 MSTORE DUP6 MSTORE DUP2 DUP8 KECCAK256 TIMESTAMP SWAP1 SSTORE DUP4 SLOAD SWAP1 SWAP3 AND DUP7 MSTORE SWAP4 DUP4 MSTORE DUP4 DUP6 KECCAK256 SWAP1 DUP6 MSTORE DUP3 MSTORE SWAP2 DUP4 KECCAK256 DUP1 SLOAD PUSH1 0x1 DUP2 DUP2 ADD DUP4 SSTORE SWAP2 DUP6 MSTORE SWAP2 DUP5 KECCAK256 SWAP1 SWAP2 ADD DUP6 SWAP1 SSTORE PUSH1 0x2 DUP3 ADD DUP1 SLOAD SWAP3 SWAP5 POP SWAP1 SWAP3 SWAP1 SWAP2 PUSH2 0xB5E SWAP1 DUP5 SWAP1 PUSH2 0x12EC JUMP JUMPDEST SWAP1 SWAP2 SSTORE POP POP DUP1 SLOAD PUSH1 0x40 MLOAD PUSH4 0x23B872DD PUSH1 0xE0 SHL DUP2 MSTORE CALLER PUSH1 0x4 DUP3 ADD MSTORE ADDRESS PUSH1 0x24 DUP3 ADD MSTORE PUSH1 0x44 DUP2 ADD DUP5 SWAP1 MSTORE PUSH1 0x1 PUSH1 0x1 PUSH1 0xA0 SHL SUB SWAP1 SWAP2 AND SWAP1 PUSH4 0x23B872DD SWAP1 PUSH1 0x64 ADD PUSH2 0xA75 JUMP JUMPDEST PUSH2 0xBA9 DUP2 CALLER PUSH2 0xDE6 JUMP JUMPDEST POP JUMP JUMPDEST PUSH2 0xBB6 DUP3 DUP3 PUSH2 0x7F5 JUMP JUMPDEST PUSH2 0x665 JUMPI PUSH1 0x0 DUP3 DUP2 MSTORE PUSH1 0x20 DUP2 DUP2 MSTORE PUSH1 0x40 DUP1 DUP4 KECCAK256 PUSH1 0x1 PUSH1 0x1 PUSH1 0xA0 SHL SUB DUP6 AND DUP5 MSTORE SWAP1 SWAP2 MSTORE SWAP1 KECCAK256 DUP1 SLOAD PUSH1 0xFF NOT AND PUSH1 0x1 OR SWAP1 SSTORE PUSH2 0xBEC CALLER SWAP1 JUMP JUMPDEST PUSH1 0x1 PUSH1 0x1 PUSH1 0xA0 SHL SUB AND DUP2 PUSH1 0x1 PUSH1 0x1 PUSH1 0xA0 SHL SUB AND DUP4 PUSH32 0x2F8788117E7EFF1D82E926EC794901D17C78024A50270940304540A733656F0D PUSH1 0x40 MLOAD PUSH1 0x40 MLOAD DUP1 SWAP2 SUB SWAP1 LOG4 POP POP JUMP JUMPDEST PUSH1 0x0 PUSH2 0x5DF DUP3 DUP5 PUSH2 0x1304 JUMP JUMPDEST PUSH1 0x0 PUSH2 0x5DF DUP3 DUP5 PUSH2 0x1326 JUMP JUMPDEST PUSH2 0xC52 DUP3 DUP3 PUSH2 0x7F5 JUMP JUMPDEST ISZERO PUSH2 0x665 JUMPI PUSH1 0x0 DUP3 DUP2 MSTORE PUSH1 0x20 DUP2 DUP2 MSTORE PUSH1 0x40 DUP1 DUP4 KECCAK256 PUSH1 0x1 PUSH1 0x1 PUSH1 0xA0 SHL SUB DUP6 AND DUP1 DUP6 MSTORE SWAP3 MSTORE DUP1 DUP4 KECCAK256 DUP1 SLOAD PUSH1 0xFF NOT AND SWAP1 SSTORE MLOAD CALLER SWAP3 DUP6 SWAP2 PUSH32 0xF6391F5C32D9C69D2A47EA670B442974B53935D1EDC7FD64EB21E047A839171B SWAP2 SWAP1 LOG4 POP POP JUMP JUMPDEST PUSH2 0x665 DUP3 DUP3 PUSH2 0xBAC JUMP JUMPDEST PUSH1 0x0 PUSH2 0xCC4 DUP5 DUP5 DUP5 PUSH2 0x528 JUMP JUMPDEST PUSH1 0x2 SLOAD PUSH1 0x40 MLOAD PUSH4 0x40C10F19 PUSH1 0xE0 SHL DUP2 MSTORE CALLER PUSH1 0x4 DUP3 ADD MSTORE PUSH1 0x24 DUP2 ADD DUP4 SWAP1 MSTORE SWAP2 SWAP3 POP PUSH1 0x1 PUSH1 0x1 PUSH1 0xA0 SHL SUB AND SWAP1 PUSH4 0x40C10F19 SWAP1 PUSH1 0x44 ADD PUSH1 0x0 PUSH1 0x40 MLOAD DUP1 DUP4 SUB DUP2 PUSH1 0x0 DUP8 DUP1 EXTCODESIZE ISZERO DUP1 ISZERO PUSH2 0xD11 JUMPI PUSH1 0x0 DUP1 REVERT JUMPDEST POP GAS CALL ISZERO DUP1 ISZERO PUSH2 0xD25 JUMPI RETURNDATASIZE PUSH1 0x0 DUP1 RETURNDATACOPY RETURNDATASIZE PUSH1 0x0 REVERT JUMPDEST POP POP POP POP POP POP POP POP JUMP JUMPDEST PUSH1 0x0 JUMPDEST DUP3 SLOAD DUP2 LT ISZERO PUSH2 0x37E JUMPI DUP2 DUP4 DUP3 DUP2 SLOAD DUP2 LT PUSH2 0xD4E JUMPI PUSH2 0xD4E PUSH2 0x1290 JUMP JUMPDEST SWAP1 PUSH1 0x0 MSTORE PUSH1 0x20 PUSH1 0x0 KECCAK256 ADD SLOAD SUB PUSH2 0xDD4 JUMPI DUP3 SLOAD DUP4 SWAP1 PUSH2 0xD6E SWAP1 PUSH1 0x1 SWAP1 PUSH2 0x12D5 JUMP JUMPDEST DUP2 SLOAD DUP2 LT PUSH2 0xD7E JUMPI PUSH2 0xD7E PUSH2 0x1290 JUMP JUMPDEST SWAP1 PUSH1 0x0 MSTORE PUSH1 0x20 PUSH1 0x0 KECCAK256 ADD SLOAD DUP4 DUP3 DUP2 SLOAD DUP2 LT PUSH2 0xD9B JUMPI PUSH2 0xD9B PUSH2 0x1290 JUMP JUMPDEST SWAP1 PUSH1 0x0 MSTORE PUSH1 0x20 PUSH1 0x0 KECCAK256 ADD DUP2 SWAP1 SSTORE POP DUP3 DUP1 SLOAD DUP1 PUSH2 0xDB9 JUMPI PUSH2 0xDB9 PUSH2 0x1345 JUMP JUMPDEST PUSH1 0x1 SWAP1 SUB DUP2 DUP2 SWAP1 PUSH1 0x0 MSTORE PUSH1 0x20 PUSH1 0x0 KECCAK256 ADD PUSH1 0x0 SWAP1 SSTORE SWAP1 SSTORE POP POP POP JUMP JUMPDEST DUP1 PUSH2 0xDDE DUP2 PUSH2 0x12BC JUMP JUMPDEST SWAP2 POP POP PUSH2 0xD32 JUMP JUMPDEST PUSH2 0xDF0 DUP3 DUP3 PUSH2 0x7F5 JUMP JUMPDEST PUSH2 0x665 JUMPI PUSH2 0xE08 DUP2 PUSH1 0x1 PUSH1 0x1 PUSH1 0xA0 SHL SUB AND PUSH1 0x14 PUSH2 0xE4A JUMP JUMPDEST PUSH2 0xE13 DUP4 PUSH1 0x20 PUSH2 0xE4A JUMP JUMPDEST PUSH1 0x40 MLOAD PUSH1 0x20 ADD PUSH2 0xE24 SWAP3 SWAP2 SWAP1 PUSH2 0x138B JUMP JUMPDEST PUSH1 0x40 DUP1 MLOAD PUSH1 0x1F NOT DUP2 DUP5 SUB ADD DUP2 MSTORE SWAP1 DUP3 SWAP1 MSTORE PUSH3 0x461BCD PUSH1 0xE5 SHL DUP3 MSTORE PUSH2 0x652 SWAP2 PUSH1 0x4 ADD PUSH2 0x1400 JUMP JUMPDEST PUSH1 0x60 PUSH1 0x0 PUSH2 0xE59 DUP4 PUSH1 0x2 PUSH2 0x1326 JUMP JUMPDEST PUSH2 0xE64 SWAP1 PUSH1 0x2 PUSH2 0x12EC JUMP JUMPDEST PUSH8 0xFFFFFFFFFFFFFFFF DUP2 GT ISZERO PUSH2 0xE7C JUMPI PUSH2 0xE7C PUSH2 0xFE6 JUMP JUMPDEST PUSH1 0x40 MLOAD SWAP1 DUP1 DUP3 MSTORE DUP1 PUSH1 0x1F ADD PUSH1 0x1F NOT AND PUSH1 0x20 ADD DUP3 ADD PUSH1 0x40 MSTORE DUP1 ISZERO PUSH2 0xEA6 JUMPI PUSH1 0x20 DUP3 ADD DUP2 DUP1 CALLDATASIZE DUP4 CALLDATACOPY ADD SWAP1 POP JUMPDEST POP SWAP1 POP PUSH1 0x3 PUSH1 0xFC SHL DUP2 PUSH1 0x0 DUP2 MLOAD DUP2 LT PUSH2 0xEC1 JUMPI PUSH2 0xEC1 PUSH2 0x1290 JUMP JUMPDEST PUSH1 0x20 ADD ADD SWAP1 PUSH1 0x1 PUSH1 0x1 PUSH1 0xF8 SHL SUB NOT AND SWAP1 DUP2 PUSH1 0x0 BYTE SWAP1 MSTORE8 POP PUSH1 0xF PUSH1 0xFB SHL DUP2 PUSH1 0x1 DUP2 MLOAD DUP2 LT PUSH2 0xEF0 JUMPI PUSH2 0xEF0 PUSH2 0x1290 JUMP JUMPDEST PUSH1 0x20 ADD ADD SWAP1 PUSH1 0x1 PUSH1 0x1 PUSH1 0xF8 SHL SUB NOT AND SWAP1 DUP2 PUSH1 0x0 BYTE SWAP1 MSTORE8 POP PUSH1 0x0 PUSH2 0xF14 DUP5 PUSH1 0x2 PUSH2 0x1326 JUMP JUMPDEST PUSH2 0xF1F SWAP1 PUSH1 0x1 PUSH2 0x12EC JUMP JUMPDEST SWAP1 POP JUMPDEST PUSH1 0x1 DUP2 GT ISZERO PUSH2 0xF97 JUMPI PUSH16 0x181899199A1A9B1B9C1CB0B131B232B3 PUSH1 0x81 SHL DUP6 PUSH1 0xF AND PUSH1 0x10 DUP2 LT PUSH2 0xF53 JUMPI PUSH2 0xF53 PUSH2 0x1290 JUMP JUMPDEST BYTE PUSH1 0xF8 SHL DUP3 DUP3 DUP2 MLOAD DUP2 LT PUSH2 0xF69 JUMPI PUSH2 0xF69 PUSH2 0x1290 JUMP JUMPDEST PUSH1 0x20 ADD ADD SWAP1 PUSH1 0x1 PUSH1 0x1 PUSH1 0xF8 SHL SUB NOT AND SWAP1 DUP2 PUSH1 0x0 BYTE SWAP1 MSTORE8 POP PUSH1 0x4 SWAP5 SWAP1 SWAP5 SHR SWAP4 PUSH2 0xF90 DUP2 PUSH2 0x1433 JUMP JUMPDEST SWAP1 POP PUSH2 0xF22 JUMP JUMPDEST POP DUP4 ISZERO PUSH2 0x5DF JUMPI PUSH1 0x40 MLOAD PUSH3 0x461BCD PUSH1 0xE5 SHL DUP2 MSTORE PUSH1 0x20 PUSH1 0x4 DUP3 ADD DUP2 SWAP1 MSTORE PUSH1 0x24 DUP3 ADD MSTORE PUSH32 0x537472696E67733A20686578206C656E67746820696E73756666696369656E74 PUSH1 0x44 DUP3 ADD MSTORE PUSH1 0x64 ADD PUSH2 0x652 JUMP JUMPDEST PUSH4 0x4E487B71 PUSH1 0xE0 SHL PUSH1 0x0 MSTORE PUSH1 0x41 PUSH1 0x4 MSTORE PUSH1 0x24 PUSH1 0x0 REVERT JUMPDEST PUSH1 0x0 DUP1 PUSH1 0x40 DUP4 DUP6 SUB SLT ISZERO PUSH2 0x100F JUMPI PUSH1 0x0 DUP1 REVERT JUMPDEST DUP3 CALLDATALOAD SWAP2 POP PUSH1 0x20 DUP1 DUP5 ADD CALLDATALOAD PUSH8 0xFFFFFFFFFFFFFFFF DUP1 DUP3 GT ISZERO PUSH2 0x102F JUMPI PUSH1 0x0 DUP1 REVERT JUMPDEST DUP2 DUP7 ADD SWAP2 POP DUP7 PUSH1 0x1F DUP4 ADD SLT PUSH2 0x1043 JUMPI PUSH1 0x0 DUP1 REVERT JUMPDEST DUP2 CALLDATALOAD DUP2 DUP2 GT ISZERO PUSH2 0x1055 JUMPI PUSH2 0x1055 PUSH2 0xFE6 JUMP JUMPDEST DUP1 PUSH1 0x5 SHL PUSH1 0x40 MLOAD PUSH1 0x1F NOT PUSH1 0x3F DUP4 ADD AND DUP2 ADD DUP2 DUP2 LT DUP6 DUP3 GT OR ISZERO PUSH2 0x107A JUMPI PUSH2 0x107A PUSH2 0xFE6 JUMP JUMPDEST PUSH1 0x40 MSTORE SWAP2 DUP3 MSTORE DUP5 DUP3 ADD SWAP3 POP DUP4 DUP2 ADD DUP6 ADD SWAP2 DUP10 DUP4 GT ISZERO PUSH2 0x1098 JUMPI PUSH1 0x0 DUP1 REVERT JUMPDEST SWAP4 DUP6 ADD SWAP4 JUMPDEST DUP3 DUP6 LT ISZERO PUSH2 0x10B6 JUMPI DUP5 CALLDATALOAD DUP5 MSTORE SWAP4 DUP6 ADD SWAP4 SWAP3 DUP6 ADD SWAP3 PUSH2 0x109D JUMP JUMPDEST DUP1 SWAP7 POP POP POP POP POP POP POP SWAP3 POP SWAP3 SWAP1 POP JUMP JUMPDEST PUSH1 0x0 PUSH1 0x20 DUP3 DUP5 SUB SLT ISZERO PUSH2 0x10D8 JUMPI PUSH1 0x0 DUP1 REVERT JUMPDEST DUP2 CALLDATALOAD PUSH1 0x1 PUSH1 0x1 PUSH1 0xE0 SHL SUB NOT DUP2 AND DUP2 EQ PUSH2 0x5DF JUMPI PUSH1 0x0 DUP1 REVERT JUMPDEST PUSH1 0x0 PUSH1 0x20 DUP3 DUP5 SUB SLT ISZERO PUSH2 0x1102 JUMPI PUSH1 0x0 DUP1 REVERT JUMPDEST POP CALLDATALOAD SWAP2 SWAP1 POP JUMP JUMPDEST DUP1 CALLDATALOAD PUSH1 0x1 PUSH1 0x1 PUSH1 0xA0 SHL SUB DUP2 AND DUP2 EQ PUSH2 0x1120 JUMPI PUSH1 0x0 DUP1 REVERT JUMPDEST SWAP2 SWAP1 POP JUMP JUMPDEST PUSH1 0x0 DUP1 PUSH1 0x40 DUP4 DUP6 SUB SLT ISZERO PUSH2 0x1138 JUMPI PUSH1 0x0 DUP1 REVERT JUMPDEST PUSH2 0x1141 DUP4 PUSH2 0x1109 JUMP JUMPDEST SWAP5 PUSH1 0x20 SWAP4 SWAP1 SWAP4 ADD CALLDATALOAD SWAP4 POP POP POP JUMP JUMPDEST PUSH1 0x0 DUP1 PUSH1 0x40 DUP4 DUP6 SUB SLT ISZERO PUSH2 0x1162 JUMPI PUSH1 0x0 DUP1 REVERT JUMPDEST DUP3 CALLDATALOAD SWAP2 POP PUSH2 0x1172 PUSH1 0x20 DUP5 ADD PUSH2 0x1109 JUMP JUMPDEST SWAP1 POP SWAP3 POP SWAP3 SWAP1 POP JUMP JUMPDEST PUSH1 0x0 DUP1 PUSH1 0x0 PUSH1 0x60 DUP5 DUP7 SUB SLT ISZERO PUSH2 0x1190 JUMPI PUSH1 0x0 DUP1 REVERT JUMPDEST PUSH2 0x1199 DUP5 PUSH2 0x1109 JUMP JUMPDEST SWAP6 PUSH1 0x20 DUP6 ADD CALLDATALOAD SWAP6 POP PUSH1 0x40 SWAP1 SWAP5 ADD CALLDATALOAD SWAP4 SWAP3 POP POP POP JUMP JUMPDEST PUSH1 0x0 PUSH1 0x20 DUP3 DUP5 SUB SLT ISZERO PUSH2 0x11C0 JUMPI PUSH1 0x0 DUP1 REVERT JUMPDEST PUSH2 0x5DF DUP3 PUSH2 0x1109 JUMP JUMPDEST PUSH1 0x0 DUP1 PUSH1 0x40 DUP4 DUP6 SUB SLT ISZERO PUSH2 0x11DC JUMPI PUSH1 0x0 DUP1 REVERT JUMPDEST POP POP DUP1 CALLDATALOAD SWAP3 PUSH1 0x20 SWAP1 SWAP2 ADD CALLDATALOAD SWAP2 POP JUMP JUMPDEST PUSH1 0x0 DUP1 PUSH1 0x0 PUSH1 0x60 DUP5 DUP7 SUB SLT ISZERO PUSH2 0x1200 JUMPI PUSH1 0x0 DUP1 REVERT JUMPDEST DUP4 CALLDATALOAD SWAP3 POP PUSH2 0x1210 PUSH1 0x20 DUP6 ADD PUSH2 0x1109 JUMP JUMPDEST SWAP2 POP PUSH1 0x40 DUP5 ADD CALLDATALOAD SWAP1 POP SWAP3 POP SWAP3 POP SWAP3 JUMP JUMPDEST PUSH1 0x0 DUP1 PUSH1 0x0 PUSH1 0x60 DUP5 DUP7 SUB SLT ISZERO PUSH2 0x1235 JUMPI PUSH1 0x0 DUP1 REVERT JUMPDEST PUSH2 0x123E DUP5 PUSH2 0x1109 JUMP JUMPDEST SWAP3 POP PUSH2 0x1210 PUSH1 0x20 DUP6 ADD PUSH2 0x1109 JUMP JUMPDEST PUSH1 0x20 DUP1 DUP3 MSTORE DUP3 MLOAD DUP3 DUP3 ADD DUP2 SWAP1 MSTORE PUSH1 0x0 SWAP2 SWAP1 DUP5 DUP3 ADD SWAP1 PUSH1 0x40 DUP6 ADD SWAP1 DUP5 JUMPDEST DUP2 DUP2 LT ISZERO PUSH2 0x1284 JUMPI DUP4 MLOAD DUP4 MSTORE SWAP3 DUP5 ADD SWAP3 SWAP2 DUP5 ADD SWAP2 PUSH1 0x1 ADD PUSH2 0x1268 JUMP JUMPDEST POP SWAP1 SWAP7 SWAP6 POP POP POP POP POP POP JUMP JUMPDEST PUSH4 0x4E487B71 PUSH1 0xE0 SHL PUSH1 0x0 MSTORE PUSH1 0x32 PUSH1 0x4 MSTORE PUSH1 0x24 PUSH1 0x0 REVERT JUMPDEST PUSH4 0x4E487B71 PUSH1 0xE0 SHL PUSH1 0x0 MSTORE PUSH1 0x11 PUSH1 0x4 MSTORE PUSH1 0x24 PUSH1 0x0 REVERT JUMPDEST PUSH1 0x0 PUSH1 0x1 DUP3 ADD PUSH2 0x12CE JUMPI PUSH2 0x12CE PUSH2 0x12A6 JUMP JUMPDEST POP PUSH1 0x1 ADD SWAP1 JUMP JUMPDEST PUSH1 0x0 DUP3 DUP3 LT ISZERO PUSH2 0x12E7 JUMPI PUSH2 0x12E7 PUSH2 0x12A6 JUMP JUMPDEST POP SUB SWAP1 JUMP JUMPDEST PUSH1 0x0 DUP3 NOT DUP3 GT ISZERO PUSH2 0x12FF JUMPI PUSH2 0x12FF PUSH2 0x12A6 JUMP JUMPDEST POP ADD SWAP1 JUMP JUMPDEST PUSH1 0x0 DUP3 PUSH2 0x1321 JUMPI PUSH4 0x4E487B71 PUSH1 0xE0 SHL PUSH1 0x0 MSTORE PUSH1 0x12 PUSH1 0x4 MSTORE PUSH1 0x24 PUSH1 0x0 REVERT JUMPDEST POP DIV SWAP1 JUMP JUMPDEST PUSH1 0x0 DUP2 PUSH1 0x0 NOT DIV DUP4 GT DUP3 ISZERO ISZERO AND ISZERO PUSH2 0x1340 JUMPI PUSH2 0x1340 PUSH2 0x12A6 JUMP JUMPDEST POP MUL SWAP1 JUMP JUMPDEST PUSH4 0x4E487B71 PUSH1 0xE0 SHL PUSH1 0x0 MSTORE PUSH1 0x31 PUSH1 0x4 MSTORE PUSH1 0x24 PUSH1 0x0 REVERT JUMPDEST PUSH1 0x0 JUMPDEST DUP4 DUP2 LT ISZERO PUSH2 0x1376 JUMPI DUP2 DUP2 ADD MLOAD DUP4 DUP3 ADD MSTORE PUSH1 0x20 ADD PUSH2 0x135E JUMP JUMPDEST DUP4 DUP2 GT ISZERO PUSH2 0x1385 JUMPI PUSH1 0x0 DUP5 DUP5 ADD MSTORE JUMPDEST POP POP POP POP JUMP JUMPDEST PUSH32 0x416363657373436F6E74726F6C3A206163636F756E7420000000000000000000 DUP2 MSTORE PUSH1 0x0 DUP4 MLOAD PUSH2 0x13C3 DUP2 PUSH1 0x17 DUP6 ADD PUSH1 0x20 DUP9 ADD PUSH2 0x135B JUMP JUMPDEST PUSH17 0x1034B99036B4B9B9B4B733903937B6329 PUSH1 0x7D SHL PUSH1 0x17 SWAP2 DUP5 ADD SWAP2 DUP3 ADD MSTORE DUP4 MLOAD PUSH2 0x13F4 DUP2 PUSH1 0x28 DUP5 ADD PUSH1 0x20 DUP9 ADD PUSH2 0x135B JUMP JUMPDEST ADD PUSH1 0x28 ADD SWAP5 SWAP4 POP POP POP POP JUMP JUMPDEST PUSH1 0x20 DUP2 MSTORE PUSH1 0x0 DUP3 MLOAD DUP1 PUSH1 0x20 DUP5 ADD MSTORE PUSH2 0x141F DUP2 PUSH1 0x40 DUP6 ADD PUSH1 0x20 DUP8 ADD PUSH2 0x135B JUMP JUMPDEST PUSH1 0x1F ADD PUSH1 0x1F NOT AND SWAP2 SWAP1 SWAP2 ADD PUSH1 0x40 ADD SWAP3 SWAP2 POP POP JUMP JUMPDEST PUSH1 0x0 DUP2 PUSH2 0x1442 JUMPI PUSH2 0x1442 PUSH2 0x12A6 JUMP JUMPDEST POP PUSH1 0x0 NOT ADD SWAP1 JUMP INVALID LOG2 PUSH5 0x6970667358 0x22 SLT KECCAK256 0xE8 PUSH26 0x8C3E473C5D9CF2EB5E6B70FFC5234FFDE1529AD29F5290A47CE7 EXTCODESIZE 0xC9 0xDC 0x23 PUSH5 0x736F6C6343 STOP ADDMOD 0xD STOP CALLER "
				},
				"gasEstimates": {
					"creation": {
						"codeDepositCost": "1049600",
						"executionCost": "infinite",
						"totalCost": "infinite"
					},
					"external": {
						"ADMIN_ROLE()": "2340",
						"DEFAULT_ADMIN_ROLE()": "261",
						"batchStake(uint256,uint256[])": "infinite",
						"batchUnstake(uint256,uint256[])": "infinite",
						"claimableReward(address,uint256,uint256)": "infinite",
						"collectionInfo(uint256)": "8968",
						"getRoleAdmin(bytes32)": "2559",
						"getTotalStakedItemsCount(uint256)": "4716",
						"getUserStakedTokens(address,uint256)": "infinite",
						"grantRole(bytes32,address)": "infinite",
						"hasRole(bytes32,address)": "2673",
						"onERC721Received(address,address,uint256)": "infinite",
						"renounceRole(bytes32,address)": "29084",
						"revokeRole(bytes32,address)": "infinite",
						"setAdminRole(address)": "infinite",
						"setCollection(address,uint256)": "infinite",
						"stake(uint256,uint256)": "infinite",
						"supportsInterface(bytes4)": "472",
						"totalClaimableReward(address,uint256)": "infinite",
						"unstake(uint256,uint256)": "infinite",
						"updateCollection(uint256,address,uint256)": "infinite"
					},
					"internal": {
						"_claimReward(address,uint256,uint256)": "infinite",
						"_removeElement(uint256[] storage pointer,uint256)": "infinite",
						"_stake(uint256,uint256)": "infinite",
						"_unstake(uint256,uint256)": "infinite"
					}
				},
				"methodIdentifiers": {
					"ADMIN_ROLE()": "75b238fc",
					"DEFAULT_ADMIN_ROLE()": "a217fddf",
					"batchStake(uint256,uint256[])": "1bbda52b",
					"batchUnstake(uint256,uint256[])": "008afd4e",
					"claimableReward(address,uint256,uint256)": "302f7fea",
					"collectionInfo(uint256)": "0fb4d2e5",
					"getRoleAdmin(bytes32)": "248a9ca3",
					"getTotalStakedItemsCount(uint256)": "842dd90a",
					"getUserStakedTokens(address,uint256)": "f93b03bc",
					"grantRole(bytes32,address)": "2f2ff15d",
					"hasRole(bytes32,address)": "91d14854",
					"onERC721Received(address,address,uint256)": "eeafbddc",
					"renounceRole(bytes32,address)": "36568abe",
					"revokeRole(bytes32,address)": "d547741f",
					"setAdminRole(address)": "4adc7cfd",
					"setCollection(address,uint256)": "2edb531c",
					"stake(uint256,uint256)": "7b0472f0",
					"supportsInterface(bytes4)": "01ffc9a7",
					"totalClaimableReward(address,uint256)": "3b552dbd",
					"unstake(uint256,uint256)": "9e2c8a5b",
					"updateCollection(uint256,address,uint256)": "7b71e5db"
				}
			},
			"storageLayout": {
				"storage": [
					{
						"astId": 24,
						"contract": "CLstaking.sol:CyberlionzStaking",
						"label": "_roles",
						"offset": 0,
						"slot": "0",
						"type": "t_mapping(t_bytes32,t_struct(RoleData)19_storage)"
					},
					{
						"astId": 2398,
						"contract": "CLstaking.sol:CyberlionzStaking",
						"label": "ADMIN_ROLE",
						"offset": 0,
						"slot": "1",
						"type": "t_bytes32"
					},
					{
						"astId": 2416,
						"contract": "CLstaking.sol:CyberlionzStaking",
						"label": "rewardsTokenAddress",
						"offset": 0,
						"slot": "2",
						"type": "t_address"
					},
					{
						"astId": 2430,
						"contract": "CLstaking.sol:CyberlionzStaking",
						"label": "addressToStakedTokens",
						"offset": 0,
						"slot": "3",
						"type": "t_mapping(t_address,t_mapping(t_address,t_array(t_uint256)dyn_storage))"
					},
					{
						"astId": 2436,
						"contract": "CLstaking.sol:CyberlionzStaking",
						"label": "contractTokenIdToOwner",
						"offset": 0,
						"slot": "4",
						"type": "t_mapping(t_address,t_mapping(t_uint256,t_address))"
					},
					{
						"astId": 2442,
						"contract": "CLstaking.sol:CyberlionzStaking",
						"label": "contractTokenIdToStakedTimestamp",
						"offset": 0,
						"slot": "5",
						"type": "t_mapping(t_address,t_mapping(t_uint256,t_uint256))"
					},
					{
						"astId": 2446,
						"contract": "CLstaking.sol:CyberlionzStaking",
						"label": "collectionInfo",
						"offset": 0,
						"slot": "6",
						"type": "t_array(t_struct(CollectionInfo)2423_storage)dyn_storage"
					}
				],
				"types": {
					"t_address": {
						"encoding": "inplace",
						"label": "address",
						"numberOfBytes": "20"
					},
					"t_array(t_struct(CollectionInfo)2423_storage)dyn_storage": {
						"base": "t_struct(CollectionInfo)2423_storage",
						"encoding": "dynamic_array",
						"label": "struct CyberlionzStaking.CollectionInfo[]",
						"numberOfBytes": "32"
					},
					"t_array(t_uint256)dyn_storage": {
						"base": "t_uint256",
						"encoding": "dynamic_array",
						"label": "uint256[]",
						"numberOfBytes": "32"
					},
					"t_bool": {
						"encoding": "inplace",
						"label": "bool",
						"numberOfBytes": "1"
					},
					"t_bytes32": {
						"encoding": "inplace",
						"label": "bytes32",
						"numberOfBytes": "32"
					},
					"t_mapping(t_address,t_array(t_uint256)dyn_storage)": {
						"encoding": "mapping",
						"key": "t_address",
						"label": "mapping(address => uint256[])",
						"numberOfBytes": "32",
						"value": "t_array(t_uint256)dyn_storage"
					},
					"t_mapping(t_address,t_bool)": {
						"encoding": "mapping",
						"key": "t_address",
						"label": "mapping(address => bool)",
						"numberOfBytes": "32",
						"value": "t_bool"
					},
					"t_mapping(t_address,t_mapping(t_address,t_array(t_uint256)dyn_storage))": {
						"encoding": "mapping",
						"key": "t_address",
						"label": "mapping(address => mapping(address => uint256[]))",
						"numberOfBytes": "32",
						"value": "t_mapping(t_address,t_array(t_uint256)dyn_storage)"
					},
					"t_mapping(t_address,t_mapping(t_uint256,t_address))": {
						"encoding": "mapping",
						"key": "t_address",
						"label": "mapping(address => mapping(uint256 => address))",
						"numberOfBytes": "32",
						"value": "t_mapping(t_uint256,t_address)"
					},
					"t_mapping(t_address,t_mapping(t_uint256,t_uint256))": {
						"encoding": "mapping",
						"key": "t_address",
						"label": "mapping(address => mapping(uint256 => uint256))",
						"numberOfBytes": "32",
						"value": "t_mapping(t_uint256,t_uint256)"
					},
					"t_mapping(t_bytes32,t_struct(RoleData)19_storage)": {
						"encoding": "mapping",
						"key": "t_bytes32",
						"label": "mapping(bytes32 => struct AccessControl.RoleData)",
						"numberOfBytes": "32",
						"value": "t_struct(RoleData)19_storage"
					},
					"t_mapping(t_uint256,t_address)": {
						"encoding": "mapping",
						"key": "t_uint256",
						"label": "mapping(uint256 => address)",
						"numberOfBytes": "32",
						"value": "t_address"
					},
					"t_mapping(t_uint256,t_uint256)": {
						"encoding": "mapping",
						"key": "t_uint256",
						"label": "mapping(uint256 => uint256)",
						"numberOfBytes": "32",
						"value": "t_uint256"
					},
					"t_struct(CollectionInfo)2423_storage": {
						"encoding": "inplace",
						"label": "struct CyberlionzStaking.CollectionInfo",
						"members": [
							{
								"astId": 2418,
								"contract": "CLstaking.sol:CyberlionzStaking",
								"label": "collectionAddress",
								"offset": 0,
								"slot": "0",
								"type": "t_address"
							},
							{
								"astId": 2420,
								"contract": "CLstaking.sol:CyberlionzStaking",
								"label": "rewardPerDay",
								"offset": 0,
								"slot": "1",
								"type": "t_uint256"
							},
							{
								"astId": 2422,
								"contract": "CLstaking.sol:CyberlionzStaking",
								"label": "totalAmountStaked",
								"offset": 0,
								"slot": "2",
								"type": "t_uint256"
							}
						],
						"numberOfBytes": "96"
					},
					"t_struct(RoleData)19_storage": {
						"encoding": "inplace",
						"label": "struct AccessControl.RoleData",
						"members": [
							{
								"astId": 16,
								"contract": "CLstaking.sol:CyberlionzStaking",
								"label": "members",
								"offset": 0,
								"slot": "0",
								"type": "t_mapping(t_address,t_bool)"
							},
							{
								"astId": 18,
								"contract": "CLstaking.sol:CyberlionzStaking",
								"label": "adminRole",
								"offset": 0,
								"slot": "1",
								"type": "t_bytes32"
							}
						],
						"numberOfBytes": "64"
					},
					"t_uint256": {
						"encoding": "inplace",
						"label": "uint256",
						"numberOfBytes": "32"
					}
				}
			},
			"userdoc": {
				"kind": "user",
				"methods": {},
				"version": 1
			}
		}
	}
}