{
  "_format": "hh-sol-artifact-1",
  "contractName": "HeatToken",
  "sourceName": "contracts/HeatToken.sol",
  "abi": [
    {
      "inputs": [],
      "stateMutability": "nonpayable",
      "type": "constructor"
    },
    {
      "anonymous": false,
      "inputs": [
        {
          "indexed": true,
          "internalType": "address",
          "name": "owner",
          "type": "address"
        },
        {
          "indexed": true,
          "internalType": "address",
          "name": "spender",
          "type": "address"
        },
        {
          "indexed": false,
          "internalType": "uint256",
          "name": "value",
          "type": "uint256"
        }
      ],
      "name": "Approval",
      "type": "event"
    },
    {
      "anonymous": false,
      "inputs": [
        {
          "indexed": true,
          "internalType": "bytes32",
          "name": "role",
          "type": "bytes32"
        },
        {
          "indexed": true,
          "internalType": "bytes32",
          "name": "previousAdminRole",
          "type": "bytes32"
        },
        {
          "indexed": true,
          "internalType": "bytes32",
          "name": "newAdminRole",
          "type": "bytes32"
        }
      ],
      "name": "RoleAdminChanged",
      "type": "event"
    },
    {
      "anonymous": false,
      "inputs": [
        {
          "indexed": true,
          "internalType": "bytes32",
          "name": "role",
          "type": "bytes32"
        },
        {
          "indexed": true,
          "internalType": "address",
          "name": "account",
          "type": "address"
        },
        {
          "indexed": true,
          "internalType": "address",
          "name": "sender",
          "type": "address"
        }
      ],
      "name": "RoleGranted",
      "type": "event"
    },
    {
      "anonymous": false,
      "inputs": [
        {
          "indexed": true,
          "internalType": "bytes32",
          "name": "role",
          "type": "bytes32"
        },
        {
          "indexed": true,
          "internalType": "address",
          "name": "account",
          "type": "address"
        },
        {
          "indexed": true,
          "internalType": "address",
          "name": "sender",
          "type": "address"
        }
      ],
      "name": "RoleRevoked",
      "type": "event"
    },
    {
      "anonymous": false,
      "inputs": [
        {
          "indexed": true,
          "internalType": "address",
          "name": "from",
          "type": "address"
        },
        {
          "indexed": true,
          "internalType": "address",
          "name": "to",
          "type": "address"
        },
        {
          "indexed": false,
          "internalType": "uint256",
          "name": "value",
          "type": "uint256"
        }
      ],
      "name": "Transfer",
      "type": "event"
    },
    {
      "inputs": [],
      "name": "DEFAULT_ADMIN_ROLE",
      "outputs": [
        {
          "internalType": "bytes32",
          "name": "",
          "type": "bytes32"
        }
      ],
      "stateMutability": "view",
      "type": "function"
    },
    {
      "inputs": [
        {
          "internalType": "uint256",
          "name": "tokenId",
          "type": "uint256"
        }
      ],
      "name": "_burn",
      "outputs": [],
      "stateMutability": "nonpayable",
      "type": "function"
    },
    {
      "inputs": [
        {
          "internalType": "address",
          "name": "owner",
          "type": "address"
        },
        {
          "internalType": "address",
          "name": "operator",
          "type": "address"
        }
      ],
      "name": "_setApprovalForAll",
      "outputs": [],
      "stateMutability": "nonpayable",
      "type": "function"
    },
    {
      "inputs": [
        {
          "internalType": "address",
          "name": "minter",
          "type": "address"
        }
      ],
      "name": "_setRole",
      "outputs": [],
      "stateMutability": "nonpayable",
      "type": "function"
    },
    {
      "inputs": [
        {
          "internalType": "address",
          "name": "owner",
          "type": "address"
        },
        {
          "internalType": "address",
          "name": "spender",
          "type": "address"
        }
      ],
      "name": "allowance",
      "outputs": [
        {
          "internalType": "uint256",
          "name": "",
          "type": "uint256"
        }
      ],
      "stateMutability": "view",
      "type": "function"
    },
    {
      "inputs": [
        {
          "internalType": "address",
          "name": "spender",
          "type": "address"
        },
        {
          "internalType": "uint256",
          "name": "amount",
          "type": "uint256"
        }
      ],
      "name": "approve",
      "outputs": [
        {
          "internalType": "bool",
          "name": "",
          "type": "bool"
        }
      ],
      "stateMutability": "nonpayable",
      "type": "function"
    },
    {
      "inputs": [
        {
          "internalType": "address",
          "name": "account",
          "type": "address"
        }
      ],
      "name": "balanceOf",
      "outputs": [
        {
          "internalType": "uint256",
          "name": "",
          "type": "uint256"
        }
      ],
      "stateMutability": "view",
      "type": "function"
    },
    {
      "inputs": [],
      "name": "decimals",
      "outputs": [
        {
          "internalType": "uint8",
          "name": "",
          "type": "uint8"
        }
      ],
      "stateMutability": "view",
      "type": "function"
    },
    {
      "inputs": [
        {
          "internalType": "address",
          "name": "spender",
          "type": "address"
        },
        {
          "internalType": "uint256",
          "name": "subtractedValue",
          "type": "uint256"
        }
      ],
      "name": "decreaseAllowance",
      "outputs": [
        {
          "internalType": "bool",
          "name": "",
          "type": "bool"
        }
      ],
      "stateMutability": "nonpayable",
      "type": "function"
    },
    {
      "inputs": [
        {
          "internalType": "bytes32",
          "name": "role",
          "type": "bytes32"
        }
      ],
      "name": "getRoleAdmin",
      "outputs": [
        {
          "internalType": "bytes32",
          "name": "",
          "type": "bytes32"
        }
      ],
      "stateMutability": "view",
      "type": "function"
    },
    {
      "inputs": [
        {
          "internalType": "bytes32",
          "name": "role",
          "type": "bytes32"
        },
        {
          "internalType": "address",
          "name": "account",
          "type": "address"
        }
      ],
      "name": "grantRole",
      "outputs": [],
      "stateMutability": "nonpayable",
      "type": "function"
    },
    {
      "inputs": [
        {
          "internalType": "bytes32",
          "name": "role",
          "type": "bytes32"
        },
        {
          "internalType": "address",
          "name": "account",
          "type": "address"
        }
      ],
      "name": "hasRole",
      "outputs": [
        {
          "internalType": "bool",
          "name": "",
          "type": "bool"
        }
      ],
      "stateMutability": "view",
      "type": "function"
    },
    {
      "inputs": [
        {
          "internalType": "address",
          "name": "spender",
          "type": "address"
        },
        {
          "internalType": "uint256",
          "name": "addedValue",
          "type": "uint256"
        }
      ],
      "name": "increaseAllowance",
      "outputs": [
        {
          "internalType": "bool",
          "name": "",
          "type": "bool"
        }
      ],
      "stateMutability": "nonpayable",
      "type": "function"
    },
    {
      "inputs": [
        {
          "internalType": "address",
          "name": "to",
          "type": "address"
        },
        {
          "internalType": "uint256",
          "name": "amount",
          "type": "uint256"
        }
      ],
      "name": "mint",
      "outputs": [],
      "stateMutability": "nonpayable",
      "type": "function"
    },
    {
      "inputs": [],
      "name": "name",
      "outputs": [
        {
          "internalType": "string",
          "name": "",
          "type": "string"
        }
      ],
      "stateMutability": "view",
      "type": "function"
    },
    {
      "inputs": [
        {
          "internalType": "bytes32",
          "name": "role",
          "type": "bytes32"
        },
        {
          "internalType": "address",
          "name": "account",
          "type": "address"
        }
      ],
      "name": "renounceRole",
      "outputs": [],
      "stateMutability": "nonpayable",
      "type": "function"
    },
    {
      "inputs": [
        {
          "internalType": "bytes32",
          "name": "role",
          "type": "bytes32"
        },
        {
          "internalType": "address",
          "name": "account",
          "type": "address"
        }
      ],
      "name": "revokeRole",
      "outputs": [],
      "stateMutability": "nonpayable",
      "type": "function"
    },
    {
      "inputs": [
        {
          "internalType": "bytes4",
          "name": "interfaceId",
          "type": "bytes4"
        }
      ],
      "name": "supportsInterface",
      "outputs": [
        {
          "internalType": "bool",
          "name": "",
          "type": "bool"
        }
      ],
      "stateMutability": "view",
      "type": "function"
    },
    {
      "inputs": [],
      "name": "symbol",
      "outputs": [
        {
          "internalType": "string",
          "name": "",
          "type": "string"
        }
      ],
      "stateMutability": "view",
      "type": "function"
    },
    {
      "inputs": [],
      "name": "totalSupply",
      "outputs": [
        {
          "internalType": "uint256",
          "name": "",
          "type": "uint256"
        }
      ],
      "stateMutability": "view",
      "type": "function"
    },
    {
      "inputs": [
        {
          "internalType": "address",
          "name": "to",
          "type": "address"
        },
        {
          "internalType": "uint256",
          "name": "amount",
          "type": "uint256"
        }
      ],
      "name": "transfer",
      "outputs": [
        {
          "internalType": "bool",
          "name": "",
          "type": "bool"
        }
      ],
      "stateMutability": "nonpayable",
      "type": "function"
    },
    {
      "inputs": [
        {
          "internalType": "address",
          "name": "from",
          "type": "address"
        },
        {
          "internalType": "address",
          "name": "to",
          "type": "address"
        },
        {
          "internalType": "uint256",
          "name": "amount",
          "type": "uint256"
        }
      ],
      "name": "transferFrom",
      "outputs": [
        {
          "internalType": "bool",
          "name": "",
          "type": "bool"
        }
      ],
      "stateMutability": "nonpayable",
      "type": "function"
    }
  ],
  "bytecode": "0x60806040527f9f2df0fed2c77648de5860a4cc508cd0818c85b8b8a1ab4ceeef8d981c8956a66006557fdf8b4c520ffe197c5343c6f5aec59570151ef9a492f2c624fd45ddde6135ec426007553480156200005957600080fd5b506040518060400160405280600981526020017f48656174546f6b656e00000000000000000000000000000000000000000000008152506040518060400160405280600281526020017f48540000000000000000000000000000000000000000000000000000000000008152508160039080519060200190620000de92919062000100565b508060049080519060200190620000f792919062000100565b50505062000214565b8280546200010e90620001df565b90600052602060002090601f0160209004810192826200013257600085556200017e565b82601f106200014d57805160ff19168380011785556200017e565b828001600101855582156200017e579182015b828111156200017d57825182559160200191906001019062000160565b5b5090506200018d919062000191565b5090565b5b80821115620001ac57600081600090555060010162000192565b5090565b7f4e487b7100000000000000000000000000000000000000000000000000000000600052602260045260246000fd5b60006002820490506001821680620001f857607f821691505b6020821081036200020e576200020d620001b0565b5b50919050565b6121cc80620002246000396000f3fe608060405234801561001057600080fd5b50600436106101425760003560e01c806339509351116100b85780639b1f9e741161007c5780639b1f9e741461039b578063a217fddf146103b7578063a457c2d7146103d5578063a9059cbb14610405578063d547741f14610435578063dd62ed3e1461045157610142565b806339509351146102d157806340c10f191461030157806370a082311461031d57806391d148541461034d57806395d89b411461037d57610142565b8063248a9ca31161010a578063248a9ca31461021357806329c7e53c146102435780632f2ff15d1461025f578063311f12071461027b578063313ce5671461029757806336568abe146102b557610142565b806301ffc9a71461014757806306fdde0314610177578063095ea7b31461019557806318160ddd146101c557806323b872dd146101e3575b600080fd5b610161600480360381019061015c9190611573565b610481565b60405161016e91906115bb565b60405180910390f35b61017f6104fb565b60405161018c919061166f565b60405180910390f35b6101af60048036038101906101aa9190611725565b61058d565b6040516101bc91906115bb565b60405180910390f35b6101cd6105b0565b6040516101da9190611774565b60405180910390f35b6101fd60048036038101906101f8919061178f565b6105ba565b60405161020a91906115bb565b60405180910390f35b61022d60048036038101906102289190611818565b6105e9565b60405161023a9190611854565b60405180910390f35b61025d6004803603810190610258919061186f565b610609565b005b610279600480360381019061027491906118af565b610617565b005b610295600480360381019061029091906118ef565b610638565b005b61029f610647565b6040516102ac9190611938565b60405180910390f35b6102cf60048036038101906102ca91906118af565b610650565b005b6102eb60048036038101906102e69190611725565b6106d3565b6040516102f891906115bb565b60405180910390f35b61031b60048036038101906103169190611725565b61070a565b005b610337600480360381019061033291906118ef565b610718565b6040516103449190611774565b60405180910390f35b610367600480360381019061036291906118af565b610760565b60405161037491906115bb565b60405180910390f35b6103856107cb565b604051610392919061166f565b60405180910390f35b6103b560048036038101906103b09190611953565b61085d565b005b6103bf610860565b6040516103cc9190611854565b60405180910390f35b6103ef60048036038101906103ea9190611725565b610867565b6040516103fc91906115bb565b60405180910390f35b61041f600480360381019061041a9190611725565b6108de565b60405161042c91906115bb565b60405180910390f35b61044f600480360381019061044a91906118af565b610901565b005b61046b6004803603810190610466919061186f565b610922565b6040516104789190611774565b60405180910390f35b60007f7965db0b000000000000000000000000000000000000000000000000000000007bffffffffffffffffffffffffffffffffffffffffffffffffffffffff1916827bffffffffffffffffffffffffffffffffffffffffffffffffffffffff191614806104f457506104f3826109a9565b5b9050919050565b60606003805461050a906119af565b80601f0160208091040260200160405190810160405280929190818152602001828054610536906119af565b80156105835780601f1061055857610100808354040283529160200191610583565b820191906000526020600020905b81548152906001019060200180831161056657829003601f168201915b5050505050905090565b600080610598610a13565b90506105a5818585610a1b565b600191505092915050565b6000600254905090565b6000806105c5610a13565b90506105d2858285610be4565b6105dd858585610c70565b60019150509392505050565b600060056000838152602001908152602001600020600101549050919050565b6106138282610609565b5050565b610620826105e9565b61062981610eef565b6106338383610f03565b505050565b61064460065482610fe4565b50565b60006012905090565b610658610a13565b73ffffffffffffffffffffffffffffffffffffffff168173ffffffffffffffffffffffffffffffffffffffff16146106c5576040517f08c379a00000000000000000000000000000000000000000000000000000000081526004016106bc90611a52565b60405180910390fd5b6106cf8282610ff2565b5050565b6000806106de610a13565b90506106ff8185856106f08589610922565b6106fa9190611aa1565b610a1b565b600191505092915050565b61071482826110d4565b5050565b60008060008373ffffffffffffffffffffffffffffffffffffffff1673ffffffffffffffffffffffffffffffffffffffff168152602001908152602001600020549050919050565b60006005600084815260200190815260200160002060000160008373ffffffffffffffffffffffffffffffffffffffff1673ffffffffffffffffffffffffffffffffffffffff16815260200190815260200160002060009054906101000a900460ff16905092915050565b6060600480546107da906119af565b80601f0160208091040260200160405190810160405280929190818152602001828054610806906119af565b80156108535780601f1061082857610100808354040283529160200191610853565b820191906000526020600020905b81548152906001019060200180831161083657829003601f168201915b5050505050905090565b50565b6000801b81565b600080610872610a13565b905060006108808286610922565b9050838110156108c5576040517f08c379a00000000000000000000000000000000000000000000000000000000081526004016108bc90611b69565b60405180910390fd5b6108d28286868403610a1b565b60019250505092915050565b6000806108e9610a13565b90506108f6818585610c70565b600191505092915050565b61090a826105e9565b61091381610eef565b61091d8383610ff2565b505050565b6000600160008473ffffffffffffffffffffffffffffffffffffffff1673ffffffffffffffffffffffffffffffffffffffff16815260200190815260200160002060008373ffffffffffffffffffffffffffffffffffffffff1673ffffffffffffffffffffffffffffffffffffffff16815260200190815260200160002054905092915050565b60007f01ffc9a7000000000000000000000000000000000000000000000000000000007bffffffffffffffffffffffffffffffffffffffffffffffffffffffff1916827bffffffffffffffffffffffffffffffffffffffffffffffffffffffff1916149050919050565b600033905090565b600073ffffffffffffffffffffffffffffffffffffffff168373ffffffffffffffffffffffffffffffffffffffff1603610a8a576040517f08c379a0000000000000000000000000000000000000000000000000000000008152600401610a8190611bfb565b60405180910390fd5b600073ffffffffffffffffffffffffffffffffffffffff168273ffffffffffffffffffffffffffffffffffffffff1603610af9576040517f08c379a0000000000000000000000000000000000000000000000000000000008152600401610af090611c8d565b60405180910390fd5b80600160008573ffffffffffffffffffffffffffffffffffffffff1673ffffffffffffffffffffffffffffffffffffffff16815260200190815260200160002060008473ffffffffffffffffffffffffffffffffffffffff1673ffffffffffffffffffffffffffffffffffffffff168152602001908152602001600020819055508173ffffffffffffffffffffffffffffffffffffffff168373ffffffffffffffffffffffffffffffffffffffff167f8c5be1e5ebec7d5bd14f71427d1e84f3dd0314c0f7b2291e5b200ac8c7c3b92583604051610bd79190611774565b60405180910390a3505050565b6000610bf08484610922565b90507fffffffffffffffffffffffffffffffffffffffffffffffffffffffffffffffff8114610c6a5781811015610c5c576040517f08c379a0000000000000000000000000000000000000000000000000000000008152600401610c5390611cf9565b60405180910390fd5b610c698484848403610a1b565b5b50505050565b600073ffffffffffffffffffffffffffffffffffffffff168373ffffffffffffffffffffffffffffffffffffffff1603610cdf576040517f08c379a0000000000000000000000000000000000000000000000000000000008152600401610cd690611d8b565b60405180910390fd5b600073ffffffffffffffffffffffffffffffffffffffff168273ffffffffffffffffffffffffffffffffffffffff1603610d4e576040517f08c379a0000000000000000000000000000000000000000000000000000000008152600401610d4590611e1d565b60405180910390fd5b610d59838383611233565b60008060008573ffffffffffffffffffffffffffffffffffffffff1673ffffffffffffffffffffffffffffffffffffffff16815260200190815260200160002054905081811015610ddf576040517f08c379a0000000000000000000000000000000000000000000000000000000008152600401610dd690611eaf565b60405180910390fd5b8181036000808673ffffffffffffffffffffffffffffffffffffffff1673ffffffffffffffffffffffffffffffffffffffff16815260200190815260200160002081905550816000808573ffffffffffffffffffffffffffffffffffffffff1673ffffffffffffffffffffffffffffffffffffffff1681526020019081526020016000206000828254610e729190611aa1565b925050819055508273ffffffffffffffffffffffffffffffffffffffff168473ffffffffffffffffffffffffffffffffffffffff167fddf252ad1be2c89b69c2b068fc378daa952ba7f163c4a11628f55a4df523b3ef84604051610ed69190611774565b60405180910390a3610ee9848484611238565b50505050565b610f0081610efb610a13565b61123d565b50565b610f0d8282610760565b610fe05760016005600084815260200190815260200160002060000160008373ffffffffffffffffffffffffffffffffffffffff1673ffffffffffffffffffffffffffffffffffffffff16815260200190815260200160002060006101000a81548160ff021916908315150217905550610f85610a13565b73ffffffffffffffffffffffffffffffffffffffff168173ffffffffffffffffffffffffffffffffffffffff16837f2f8788117e7eff1d82e926ec794901d17c78024a50270940304540a733656f0d60405160405180910390a45b5050565b610fee8282610f03565b5050565b610ffc8282610760565b156110d05760006005600084815260200190815260200160002060000160008373ffffffffffffffffffffffffffffffffffffffff1673ffffffffffffffffffffffffffffffffffffffff16815260200190815260200160002060006101000a81548160ff021916908315150217905550611075610a13565b73ffffffffffffffffffffffffffffffffffffffff168173ffffffffffffffffffffffffffffffffffffffff16837ff6391f5c32d9c69d2a47ea670b442974b53935d1edc7fd64eb21e047a839171b60405160405180910390a45b5050565b600073ffffffffffffffffffffffffffffffffffffffff168273ffffffffffffffffffffffffffffffffffffffff1603611143576040517f08c379a000000000000000000000000000000000000000000000000000000000815260040161113a90611f1b565b60405180910390fd5b61114f60008383611233565b80600260008282546111619190611aa1565b92505081905550806000808473ffffffffffffffffffffffffffffffffffffffff1673ffffffffffffffffffffffffffffffffffffffff16815260200190815260200160002060008282546111b69190611aa1565b925050819055508173ffffffffffffffffffffffffffffffffffffffff16600073ffffffffffffffffffffffffffffffffffffffff167fddf252ad1be2c89b69c2b068fc378daa952ba7f163c4a11628f55a4df523b3ef8360405161121b9190611774565b60405180910390a361122f60008383611238565b5050565b505050565b505050565b6112478282610760565b6112d65761126c8173ffffffffffffffffffffffffffffffffffffffff1660146112da565b61127a8360001c60206112da565b60405160200161128b92919061200f565b6040516020818303038152906040526040517f08c379a00000000000000000000000000000000000000000000000000000000081526004016112cd919061166f565b60405180910390fd5b5050565b6060600060028360026112ed9190612049565b6112f79190611aa1565b67ffffffffffffffff8111156113105761130f6120a3565b5b6040519080825280601f01601f1916602001820160405280156113425781602001600182028036833780820191505090505b5090507f30000000000000000000000000000000000000000000000000000000000000008160008151811061137a576113796120d2565b5b60200101907effffffffffffffffffffffffffffffffffffffffffffffffffffffffffffff1916908160001a9053507f7800000000000000000000000000000000000000000000000000000000000000816001815181106113de576113dd6120d2565b5b60200101907effffffffffffffffffffffffffffffffffffffffffffffffffffffffffffff1916908160001a9053506000600184600261141e9190612049565b6114289190611aa1565b90505b60018111156114c8577f3031323334353637383961626364656600000000000000000000000000000000600f86166010811061146a576114696120d2565b5b1a60f81b828281518110611481576114806120d2565b5b60200101907effffffffffffffffffffffffffffffffffffffffffffffffffffffffffffff1916908160001a905350600485901c9450806114c190612101565b905061142b565b506000841461150c576040517f08c379a000000000000000000000000000000000000000000000000000000000815260040161150390612176565b60405180910390fd5b8091505092915050565b600080fd5b60007fffffffff0000000000000000000000000000000000000000000000000000000082169050919050565b6115508161151b565b811461155b57600080fd5b50565b60008135905061156d81611547565b92915050565b60006020828403121561158957611588611516565b5b60006115978482850161155e565b91505092915050565b60008115159050919050565b6115b5816115a0565b82525050565b60006020820190506115d060008301846115ac565b92915050565b600081519050919050565b600082825260208201905092915050565b60005b838110156116105780820151818401526020810190506115f5565b8381111561161f576000848401525b50505050565b6000601f19601f8301169050919050565b6000611641826115d6565b61164b81856115e1565b935061165b8185602086016115f2565b61166481611625565b840191505092915050565b600060208201905081810360008301526116898184611636565b905092915050565b600073ffffffffffffffffffffffffffffffffffffffff82169050919050565b60006116bc82611691565b9050919050565b6116cc816116b1565b81146116d757600080fd5b50565b6000813590506116e9816116c3565b92915050565b6000819050919050565b611702816116ef565b811461170d57600080fd5b50565b60008135905061171f816116f9565b92915050565b6000806040838503121561173c5761173b611516565b5b600061174a858286016116da565b925050602061175b85828601611710565b9150509250929050565b61176e816116ef565b82525050565b60006020820190506117896000830184611765565b92915050565b6000806000606084860312156117a8576117a7611516565b5b60006117b6868287016116da565b93505060206117c7868287016116da565b92505060406117d886828701611710565b9150509250925092565b6000819050919050565b6117f5816117e2565b811461180057600080fd5b50565b600081359050611812816117ec565b92915050565b60006020828403121561182e5761182d611516565b5b600061183c84828501611803565b91505092915050565b61184e816117e2565b82525050565b60006020820190506118696000830184611845565b92915050565b6000806040838503121561188657611885611516565b5b6000611894858286016116da565b92505060206118a5858286016116da565b9150509250929050565b600080604083850312156118c6576118c5611516565b5b60006118d485828601611803565b92505060206118e5858286016116da565b9150509250929050565b60006020828403121561190557611904611516565b5b6000611913848285016116da565b91505092915050565b600060ff82169050919050565b6119328161191c565b82525050565b600060208201905061194d6000830184611929565b92915050565b60006020828403121561196957611968611516565b5b600061197784828501611710565b91505092915050565b7f4e487b7100000000000000000000000000000000000000000000000000000000600052602260045260246000fd5b600060028204905060018216806119c757607f821691505b6020821081036119da576119d9611980565b5b50919050565b7f416363657373436f6e74726f6c3a2063616e206f6e6c792072656e6f756e636560008201527f20726f6c657320666f722073656c660000000000000000000000000000000000602082015250565b6000611a3c602f836115e1565b9150611a47826119e0565b604082019050919050565b60006020820190508181036000830152611a6b81611a2f565b9050919050565b7f4e487b7100000000000000000000000000000000000000000000000000000000600052601160045260246000fd5b6000611aac826116ef565b9150611ab7836116ef565b9250827fffffffffffffffffffffffffffffffffffffffffffffffffffffffffffffffff03821115611aec57611aeb611a72565b5b828201905092915050565b7f45524332303a2064656372656173656420616c6c6f77616e63652062656c6f7760008201527f207a65726f000000000000000000000000000000000000000000000000000000602082015250565b6000611b536025836115e1565b9150611b5e82611af7565b604082019050919050565b60006020820190508181036000830152611b8281611b46565b9050919050565b7f45524332303a20617070726f76652066726f6d20746865207a65726f2061646460008201527f7265737300000000000000000000000000000000000000000000000000000000602082015250565b6000611be56024836115e1565b9150611bf082611b89565b604082019050919050565b60006020820190508181036000830152611c1481611bd8565b9050919050565b7f45524332303a20617070726f766520746f20746865207a65726f20616464726560008201527f7373000000000000000000000000000000000000000000000000000000000000602082015250565b6000611c776022836115e1565b9150611c8282611c1b565b604082019050919050565b60006020820190508181036000830152611ca681611c6a565b9050919050565b7f45524332303a20696e73756666696369656e7420616c6c6f77616e6365000000600082015250565b6000611ce3601d836115e1565b9150611cee82611cad565b602082019050919050565b60006020820190508181036000830152611d1281611cd6565b9050919050565b7f45524332303a207472616e736665722066726f6d20746865207a65726f20616460008201527f6472657373000000000000000000000000000000000000000000000000000000602082015250565b6000611d756025836115e1565b9150611d8082611d19565b604082019050919050565b60006020820190508181036000830152611da481611d68565b9050919050565b7f45524332303a207472616e7366657220746f20746865207a65726f206164647260008201527f6573730000000000000000000000000000000000000000000000000000000000602082015250565b6000611e076023836115e1565b9150611e1282611dab565b604082019050919050565b60006020820190508181036000830152611e3681611dfa565b9050919050565b7f45524332303a207472616e7366657220616d6f756e742065786365656473206260008201527f616c616e63650000000000000000000000000000000000000000000000000000602082015250565b6000611e996026836115e1565b9150611ea482611e3d565b604082019050919050565b60006020820190508181036000830152611ec881611e8c565b9050919050565b7f45524332303a206d696e7420746f20746865207a65726f206164647265737300600082015250565b6000611f05601f836115e1565b9150611f1082611ecf565b602082019050919050565b60006020820190508181036000830152611f3481611ef8565b9050919050565b600081905092915050565b7f416363657373436f6e74726f6c3a206163636f756e7420000000000000000000600082015250565b6000611f7c601783611f3b565b9150611f8782611f46565b601782019050919050565b6000611f9d826115d6565b611fa78185611f3b565b9350611fb78185602086016115f2565b80840191505092915050565b7f206973206d697373696e6720726f6c6520000000000000000000000000000000600082015250565b6000611ff9601183611f3b565b915061200482611fc3565b601182019050919050565b600061201a82611f6f565b91506120268285611f92565b915061203182611fec565b915061203d8284611f92565b91508190509392505050565b6000612054826116ef565b915061205f836116ef565b9250817fffffffffffffffffffffffffffffffffffffffffffffffffffffffffffffffff048311821515161561209857612097611a72565b5b828202905092915050565b7f4e487b7100000000000000000000000000000000000000000000000000000000600052604160045260246000fd5b7f4e487b7100000000000000000000000000000000000000000000000000000000600052603260045260246000fd5b600061210c826116ef565b91506000820361211f5761211e611a72565b5b600182039050919050565b7f537472696e67733a20686578206c656e67746820696e73756666696369656e74600082015250565b60006121606020836115e1565b915061216b8261212a565b602082019050919050565b6000602082019050818103600083015261218f81612153565b905091905056fea2646970667358221220f15224cfdf7aca9279ee9fb065c189dace953b0da0483c831260da11c5fa42e164736f6c634300080d0033",
  "linkReferences": {},
  "deployedLinkReferences": {}
}