{
	"data": {
		"bytecode": {
			"linkReferences": {},
			"object": "60806040527fdf8b4c520ffe197c5343c6f5aec59570151ef9a492f2c624fd45ddde6135ec426001553480156200003557600080fd5b506040516200160838038062001608833981016040819052620000589162000146565b600280546001600160a01b0319166001600160a01b0383161790556200008060003362000096565b6001546200008f903362000096565b5062000178565b620000a28282620000a6565b5050565b6000828152602081815260408083206001600160a01b038516845290915290205460ff16620000a2576000828152602081815260408083206001600160a01b03851684529091529020805460ff19166001179055620001023390565b6001600160a01b0316816001600160a01b0316837f2f8788117e7eff1d82e926ec794901d17c78024a50270940304540a733656f0d60405160405180910390a45050565b6000602082840312156200015957600080fd5b81516001600160a01b03811681146200017157600080fd5b9392505050565b61148080620001886000396000f3fe608060405234801561001057600080fd5b50600436106101365760003560e01c80634adc7cfd116100b857806391d148541161007c57806391d14854146102a85780639e2c8a5b146102bb578063a217fddf146102ce578063d547741f146102d6578063eeafbddc146102e9578063f93b03bc1461031f57600080fd5b80634adc7cfd1461025357806375b238fc146102665780637b0472f01461026f5780637b71e5db14610282578063842dd90a1461029557600080fd5b80632edb531c116100ff5780632edb531c146101f45780632f2ff15d14610207578063302f7fea1461021a57806336568abe1461022d5780633b552dbd1461024057600080fd5b80628afd4e1461013b57806301ffc9a7146101505780630fb4d2e5146101785780631bbda52b146101b0578063248a9ca3146101c3575b600080fd5b61014e610149366004610ffc565b61033f565b005b61016361015e3660046110c6565b610383565b60405190151581526020015b60405180910390f35b61018b6101863660046110f0565b6103ba565b604080516001600160a01b03909416845260208401929092529082015260600161016f565b61014e6101be366004610ffc565b6103f7565b6101e66101d13660046110f0565b60009081526020819052604090206001015490565b60405190815260200161016f565b61014e610202366004611125565b610436565b61014e61021536600461114f565b610503565b6101e661022836600461117b565b610528565b61014e61023b36600461114f565b6105e6565b6101e661024e366004611125565b610669565b61014e6102613660046111ae565b610749565b6101e660015481565b61014e61027d3660046111c9565b610760565b61014e6102903660046111eb565b61076a565b6101e66102a33660046110f0565b6107c4565b6101636102b636600461114f565b6107f5565b61014e6102c93660046111c9565b61081e565b6101e6600081565b61014e6102e436600461114f565b610828565b6103066102f7366004611220565b630a85bd0160e11b9392505050565b6040516001600160e01b0319909116815260200161016f565b61033261032d366004611125565b61084d565b60405161016f919061124c565b60005b815181101561037e5761036e8383838151811061036157610361611290565b60200260200101516108eb565b610377816112bc565b9050610342565b505050565b60006001600160e01b03198216637965db0b60e01b14806103b457506301ffc9a760e01b6001600160e01b03198316145b92915050565b600681815481106103ca57600080fd5b60009182526020909120600390910201805460018201546002909201546001600160a01b03909116925083565b60005b815181101561037e576104268383838151811061041957610419611290565b6020026020010151610aac565b61042f816112bc565b90506103fa565b60015461044281610b9f565b50604080516060810182526001600160a01b03938416815260208101928352600091810182815260068054600181018255935290517ff652222313e28459528d920b65115c16c04f3efc82aaedc97be59f3f377c0d3f600390930292830180546001600160a01b031916919095161790935590517ff652222313e28459528d920b65115c16c04f3efc82aaedc97be59f3f377c0d4082015590517ff652222313e28459528d920b65115c16c04f3efc82aaedc97be59f3f377c0d4190910155565b60008281526020819052604090206001015461051e81610b9f565b61037e8383610bac565b6000806006848154811061053e5761053e611290565b60009182526020808320600390920290910180546001600160a01b03908116845260048352604080852088865290935291909220549192509081169086161461058b5760009150506105df565b80546001600160a01b0316600090815260056020908152604080832086845290915281205460018301549091906105d9906105d3620151806105cd86426112d5565b90610c30565b90610c3c565b93505050505b9392505050565b6001600160a01b038116331461065b5760405162461bcd60e51b815260206004820152602f60248201527f416363657373436f6e74726f6c3a2063616e206f6e6c792072656e6f756e636560448201526e103937b632b9903337b91039b2b63360891b60648201526084015b60405180910390fd5b6106658282610c48565b5050565b6000806000905060006006848154811061068557610685611290565b600091825260208220600390910201546001600160a01b031691505b6001600160a01b038083166000908152600360209081526040808320938a168352929052205481101561073f576001600160a01b038083166000908152600360209081526040808320938a16835292905290812080548390811061070757610707611290565b9060005260206000200154905061071f878783610528565b61072990856112ec565b9350508080610737906112bc565b9150506106a1565b5090949350505050565b600061075481610b9f565b61066560015483610cad565b6106658282610aac565b60015461077681610b9f565b60006006858154811061078b5761078b611290565b6000918252602090912060039091020180546001600160a01b0319166001600160a01b0395909516949094178455505060019091015550565b600080600683815481106107da576107da611290565b60009182526020909120600260039092020101549392505050565b6000918252602082815260408084206001600160a01b0393909316845291905290205460ff1690565b61066582826108eb565b60008281526020819052604090206001015461084381610b9f565b61037e8383610c48565b606060006006838154811061086457610864611290565b6000918252602080832060039283020180546001600160a01b039081168552928252604080852093891685529282529282902080548351818402810184019094528084529394509192908301828280156108dd57602002820191906000526020600020905b8154815260200190600101908083116108c9575b505050505091505092915050565b60006006838154811061090057610900611290565b60009182526020808320600390920290910180546001600160a01b039081168452600483526040808520878652909352919092205491925016331461099d5760405162461bcd60e51b815260206004820152602d60248201527f746f6b656e206973206e6f74207374616b6564206f722073656e64657220646f60448201526c195cc81b9bdd081bdddb881a5d609a1b6064820152608401610652565b6109a8338484610cb7565b80546001600160a01b0316600090815260036020908152604080832033845290915290206109d69083610d2f565b80546001600160a01b039081166000908152600460209081526040808320868452825280832080546001600160a01b03191690558454909316825260058152828220858352905290812081905560028201805460019290610a389084906112d5565b909155505080546040516323b872dd60e01b8152306004820152336024820152604481018490526001600160a01b03909116906323b872dd906064015b600060405180830381600087803b158015610a8f57600080fd5b505af1158015610aa3573d6000803e3d6000fd5b50505050505050565b600060068381548110610ac157610ac1611290565b6000918252602080832060039283020180546001600160a01b039081168552600483526040808620888752845280862080546001600160a01b0319163390811790915583548316875260058552818720898852855281872042905583549092168652938352838520908552825291832080546001818101835591855291842090910185905560028201805492945090929091610b5e9084906112ec565b909155505080546040516323b872dd60e01b8152336004820152306024820152604481018490526001600160a01b03909116906323b872dd90606401610a75565b610ba98133610de6565b50565b610bb682826107f5565b610665576000828152602081815260408083206001600160a01b03851684529091529020805460ff19166001179055610bec3390565b6001600160a01b0316816001600160a01b0316837f2f8788117e7eff1d82e926ec794901d17c78024a50270940304540a733656f0d60405160405180910390a45050565b60006105df8284611304565b60006105df8284611326565b610c5282826107f5565b15610665576000828152602081815260408083206001600160a01b0385168085529252808320805460ff1916905551339285917ff6391f5c32d9c69d2a47ea670b442974b53935d1edc7fd64eb21e047a839171b9190a45050565b6106658282610bac565b6000610cc4848484610528565b6002546040516340c10f1960e01b8152336004820152602481018390529192506001600160a01b0316906340c10f1990604401600060405180830381600087803b158015610d1157600080fd5b505af1158015610d25573d6000803e3d6000fd5b5050505050505050565b60005b825481101561037e5781838281548110610d4e57610d4e611290565b906000526020600020015403610dd45782548390610d6e906001906112d5565b81548110610d7e57610d7e611290565b9060005260206000200154838281548110610d9b57610d9b611290565b906000526020600020018190555082805480610db957610db9611345565b60019003818190600052602060002001600090559055505050565b80610dde816112bc565b915050610d32565b610df082826107f5565b61066557610e08816001600160a01b03166014610e4a565b610e13836020610e4a565b604051602001610e2492919061138b565b60408051601f198184030181529082905262461bcd60e51b825261065291600401611400565b60606000610e59836002611326565b610e649060026112ec565b67ffffffffffffffff811115610e7c57610e7c610fe6565b6040519080825280601f01601f191660200182016040528015610ea6576020820181803683370190505b509050600360fc1b81600081518110610ec157610ec1611290565b60200101906001600160f81b031916908160001a905350600f60fb1b81600181518110610ef057610ef0611290565b60200101906001600160f81b031916908160001a9053506000610f14846002611326565b610f1f9060016112ec565b90505b6001811115610f97576f181899199a1a9b1b9c1cb0b131b232b360811b85600f1660108110610f5357610f53611290565b1a60f81b828281518110610f6957610f69611290565b60200101906001600160f81b031916908160001a90535060049490941c93610f9081611433565b9050610f22565b5083156105df5760405162461bcd60e51b815260206004820181905260248201527f537472696e67733a20686578206c656e67746820696e73756666696369656e746044820152606401610652565b634e487b7160e01b600052604160045260246000fd5b6000806040838503121561100f57600080fd5b8235915060208084013567ffffffffffffffff8082111561102f57600080fd5b818601915086601f83011261104357600080fd5b81358181111561105557611055610fe6565b8060051b604051601f19603f8301168101818110858211171561107a5761107a610fe6565b60405291825284820192508381018501918983111561109857600080fd5b938501935b828510156110b65784358452938501939285019261109d565b8096505050505050509250929050565b6000602082840312156110d857600080fd5b81356001600160e01b0319811681146105df57600080fd5b60006020828403121561110257600080fd5b5035919050565b80356001600160a01b038116811461112057600080fd5b919050565b6000806040838503121561113857600080fd5b61114183611109565b946020939093013593505050565b6000806040838503121561116257600080fd5b8235915061117260208401611109565b90509250929050565b60008060006060848603121561119057600080fd5b61119984611109565b95602085013595506040909401359392505050565b6000602082840312156111c057600080fd5b6105df82611109565b600080604083850312156111dc57600080fd5b50508035926020909101359150565b60008060006060848603121561120057600080fd5b8335925061121060208501611109565b9150604084013590509250925092565b60008060006060848603121561123557600080fd5b61123e84611109565b925061121060208501611109565b6020808252825182820181905260009190848201906040850190845b8181101561128457835183529284019291840191600101611268565b50909695505050505050565b634e487b7160e01b600052603260045260246000fd5b634e487b7160e01b600052601160045260246000fd5b6000600182016112ce576112ce6112a6565b5060010190565b6000828210156112e7576112e76112a6565b500390565b600082198211156112ff576112ff6112a6565b500190565b60008261132157634e487b7160e01b600052601260045260246000fd5b500490565b6000816000190483118215151615611340576113406112a6565b500290565b634e487b7160e01b600052603160045260246000fd5b60005b8381101561137657818101518382015260200161135e565b83811115611385576000848401525b50505050565b7f416363657373436f6e74726f6c3a206163636f756e74200000000000000000008152600083516113c381601785016020880161135b565b7001034b99036b4b9b9b4b733903937b6329607d1b60179184019182015283516113f481602884016020880161135b565b01602801949350505050565b602081526000825180602084015261141f81604085016020870161135b565b601f01601f19169190910160400192915050565b600081611442576114426112a6565b50600019019056fea264697066735822122074f79ca7a638dd2822a0a151e5bfe5e601fad76d2aff3fb1f756b7072ed4196464736f6c634300080d0033",
			"opcodes": "PUSH1 0x80 PUSH1 0x40 MSTORE PUSH32 0xDF8B4C520FFE197C5343C6F5AEC59570151EF9A492F2C624FD45DDDE6135EC42 PUSH1 0x1 SSTORE CALLVALUE DUP1 ISZERO PUSH3 0x35 JUMPI PUSH1 0x0 DUP1 REVERT JUMPDEST POP PUSH1 0x40 MLOAD PUSH3 0x1608 CODESIZE SUB DUP1 PUSH3 0x1608 DUP4 CODECOPY DUP2 ADD PUSH1 0x40 DUP2 SWAP1 MSTORE PUSH3 0x58 SWAP2 PUSH3 0x146 JUMP JUMPDEST PUSH1 0x2 DUP1 SLOAD PUSH1 0x1 PUSH1 0x1 PUSH1 0xA0 SHL SUB NOT AND PUSH1 0x1 PUSH1 0x1 PUSH1 0xA0 SHL SUB DUP4 AND OR SWAP1 SSTORE PUSH3 0x80 PUSH1 0x0 CALLER PUSH3 0x96 JUMP JUMPDEST PUSH1 0x1 SLOAD PUSH3 0x8F SWAP1 CALLER PUSH3 0x96 JUMP JUMPDEST POP PUSH3 0x178 JUMP JUMPDEST PUSH3 0xA2 DUP3 DUP3 PUSH3 0xA6 JUMP JUMPDEST POP POP JUMP JUMPDEST PUSH1 0x0 DUP3 DUP2 MSTORE PUSH1 0x20 DUP2 DUP2 MSTORE PUSH1 0x40 DUP1 DUP4 KECCAK256 PUSH1 0x1 PUSH1 0x1 PUSH1 0xA0 SHL SUB DUP6 AND DUP5 MSTORE SWAP1 SWAP2 MSTORE SWAP1 KECCAK256 SLOAD PUSH1 0xFF AND PUSH3 0xA2 JUMPI PUSH1 0x0 DUP3 DUP2 MSTORE PUSH1 0x20 DUP2 DUP2 MSTORE PUSH1 0x40 DUP1 DUP4 KECCAK256 PUSH1 0x1 PUSH1 0x1 PUSH1 0xA0 SHL SUB DUP6 AND DUP5 MSTORE SWAP1 SWAP2 MSTORE SWAP1 KECCAK256 DUP1 SLOAD PUSH1 0xFF NOT AND PUSH1 0x1 OR SWAP1 SSTORE PUSH3 0x102 CALLER SWAP1 JUMP JUMPDEST PUSH1 0x1 PUSH1 0x1 PUSH1 0xA0 SHL SUB AND DUP2 PUSH1 0x1 PUSH1 0x1 PUSH1 0xA0 SHL SUB AND DUP4 PUSH32 0x2F8788117E7EFF1D82E926EC794901D17C78024A50270940304540A733656F0D PUSH1 0x40 MLOAD PUSH1 0x40 MLOAD DUP1 SWAP2 SUB SWAP1 LOG4 POP POP JUMP JUMPDEST PUSH1 0x0 PUSH1 0x20 DUP3 DUP5 SUB SLT ISZERO PUSH3 0x159 JUMPI PUSH1 0x0 DUP1 REVERT JUMPDEST DUP2 MLOAD PUSH1 0x1 PUSH1 0x1 PUSH1 0xA0 SHL SUB DUP2 AND DUP2 EQ PUSH3 0x171 JUMPI PUSH1 0x0 DUP1 REVERT JUMPDEST SWAP4 SWAP3 POP POP POP JUMP JUMPDEST PUSH2 0x1480 DUP1 PUSH3 0x188 PUSH1 0x0 CODECOPY PUSH1 0x0 RETURN INVALID PUSH1 0x80 PUSH1 0x40 MSTORE CALLVALUE DUP1 ISZERO PUSH2 0x10 JUMPI PUSH1 0x0 DUP1 REVERT JUMPDEST POP PUSH1 0x4 CALLDATASIZE LT PUSH2 0x136 JUMPI PUSH1 0x0 CALLDATALOAD PUSH1 0xE0 SHR DUP1 PUSH4 0x4ADC7CFD GT PUSH2 0xB8 JUMPI DUP1 PUSH4 0x91D14854 GT PUSH2 0x7C JUMPI DUP1 PUSH4 0x91D14854 EQ PUSH2 0x2A8 JUMPI DUP1 PUSH4 0x9E2C8A5B EQ PUSH2 0x2BB JUMPI DUP1 PUSH4 0xA217FDDF EQ PUSH2 0x2CE JUMPI DUP1 PUSH4 0xD547741F EQ PUSH2 0x2D6 JUMPI DUP1 PUSH4 0xEEAFBDDC EQ PUSH2 0x2E9 JUMPI DUP1 PUSH4 0xF93B03BC EQ PUSH2 0x31F JUMPI PUSH1 0x0 DUP1 REVERT JUMPDEST DUP1 PUSH4 0x4ADC7CFD EQ PUSH2 0x253 JUMPI DUP1 PUSH4 0x75B238FC EQ PUSH2 0x266 JUMPI DUP1 PUSH4 0x7B0472F0 EQ PUSH2 0x26F JUMPI DUP1 PUSH4 0x7B71E5DB EQ PUSH2 0x282 JUMPI DUP1 PUSH4 0x842DD90A EQ PUSH2 0x295 JUMPI PUSH1 0x0 DUP1 REVERT JUMPDEST DUP1 PUSH4 0x2EDB531C GT PUSH2 0xFF JUMPI DUP1 PUSH4 0x2EDB531C EQ PUSH2 0x1F4 JUMPI DUP1 PUSH4 0x2F2FF15D EQ PUSH2 0x207 JUMPI DUP1 PUSH4 0x302F7FEA EQ PUSH2 0x21A JUMPI DUP1 PUSH4 0x36568ABE EQ PUSH2 0x22D JUMPI DUP1 PUSH4 0x3B552DBD EQ PUSH2 0x240 JUMPI PUSH1 0x0 DUP1 REVERT JUMPDEST DUP1 PUSH3 0x8AFD4E EQ PUSH2 0x13B JUMPI DUP1 PUSH4 0x1FFC9A7 EQ PUSH2 0x150 JUMPI DUP1 PUSH4 0xFB4D2E5 EQ PUSH2 0x178 JUMPI DUP1 PUSH4 0x1BBDA52B EQ PUSH2 0x1B0 JUMPI DUP1 PUSH4 0x248A9CA3 EQ PUSH2 0x1C3 JUMPI JUMPDEST PUSH1 0x0 DUP1 REVERT JUMPDEST PUSH2 0x14E PUSH2 0x149 CALLDATASIZE PUSH1 0x4 PUSH2 0xFFC JUMP JUMPDEST PUSH2 0x33F JUMP JUMPDEST STOP JUMPDEST PUSH2 0x163 PUSH2 0x15E CALLDATASIZE PUSH1 0x4 PUSH2 0x10C6 JUMP JUMPDEST PUSH2 0x383 JUMP JUMPDEST PUSH1 0x40 MLOAD SWAP1 ISZERO ISZERO DUP2 MSTORE PUSH1 0x20 ADD JUMPDEST PUSH1 0x40 MLOAD DUP1 SWAP2 SUB SWAP1 RETURN JUMPDEST PUSH2 0x18B PUSH2 0x186 CALLDATASIZE PUSH1 0x4 PUSH2 0x10F0 JUMP JUMPDEST PUSH2 0x3BA JUMP JUMPDEST PUSH1 0x40 DUP1 MLOAD PUSH1 0x1 PUSH1 0x1 PUSH1 0xA0 SHL SUB SWAP1 SWAP5 AND DUP5 MSTORE PUSH1 0x20 DUP5 ADD SWAP3 SWAP1 SWAP3 MSTORE SWAP1 DUP3 ADD MSTORE PUSH1 0x60 ADD PUSH2 0x16F JUMP JUMPDEST PUSH2 0x14E PUSH2 0x1BE CALLDATASIZE PUSH1 0x4 PUSH2 0xFFC JUMP JUMPDEST PUSH2 0x3F7 JUMP JUMPDEST PUSH2 0x1E6 PUSH2 0x1D1 CALLDATASIZE PUSH1 0x4 PUSH2 0x10F0 JUMP JUMPDEST PUSH1 0x0 SWAP1 DUP2 MSTORE PUSH1 0x20 DUP2 SWAP1 MSTORE PUSH1 0x40 SWAP1 KECCAK256 PUSH1 0x1 ADD SLOAD SWAP1 JUMP JUMPDEST PUSH1 0x40 MLOAD SWAP1 DUP2 MSTORE PUSH1 0x20 ADD PUSH2 0x16F JUMP JUMPDEST PUSH2 0x14E PUSH2 0x202 CALLDATASIZE PUSH1 0x4 PUSH2 0x1125 JUMP JUMPDEST PUSH2 0x436 JUMP JUMPDEST PUSH2 0x14E PUSH2 0x215 CALLDATASIZE PUSH1 0x4 PUSH2 0x114F JUMP JUMPDEST PUSH2 0x503 JUMP JUMPDEST PUSH2 0x1E6 PUSH2 0x228 CALLDATASIZE PUSH1 0x4 PUSH2 0x117B JUMP JUMPDEST PUSH2 0x528 JUMP JUMPDEST PUSH2 0x14E PUSH2 0x23B CALLDATASIZE PUSH1 0x4 PUSH2 0x114F JUMP JUMPDEST PUSH2 0x5E6 JUMP JUMPDEST PUSH2 0x1E6 PUSH2 0x24E CALLDATASIZE PUSH1 0x4 PUSH2 0x1125 JUMP JUMPDEST PUSH2 0x669 JUMP JUMPDEST PUSH2 0x14E PUSH2 0x261 CALLDATASIZE PUSH1 0x4 PUSH2 0x11AE JUMP JUMPDEST PUSH2 0x749 JUMP JUMPDEST PUSH2 0x1E6 PUSH1 0x1 SLOAD DUP2 JUMP JUMPDEST PUSH2 0x14E PUSH2 0x27D CALLDATASIZE PUSH1 0x4 PUSH2 0x11C9 JUMP JUMPDEST PUSH2 0x760 JUMP JUMPDEST PUSH2 0x14E PUSH2 0x290 CALLDATASIZE PUSH1 0x4 PUSH2 0x11EB JUMP JUMPDEST PUSH2 0x76A JUMP JUMPDEST PUSH2 0x1E6 PUSH2 0x2A3 CALLDATASIZE PUSH1 0x4 PUSH2 0x10F0 JUMP JUMPDEST PUSH2 0x7C4 JUMP JUMPDEST PUSH2 0x163 PUSH2 0x2B6 CALLDATASIZE PUSH1 0x4 PUSH2 0x114F JUMP JUMPDEST PUSH2 0x7F5 JUMP JUMPDEST PUSH2 0x14E PUSH2 0x2C9 CALLDATASIZE PUSH1 0x4 PUSH2 0x11C9 JUMP JUMPDEST PUSH2 0x81E JUMP JUMPDEST PUSH2 0x1E6 PUSH1 0x0 DUP2 JUMP JUMPDEST PUSH2 0x14E PUSH2 0x2E4 CALLDATASIZE PUSH1 0x4 PUSH2 0x114F JUMP JUMPDEST PUSH2 0x828 JUMP JUMPDEST PUSH2 0x306 PUSH2 0x2F7 CALLDATASIZE PUSH1 0x4 PUSH2 0x1220 JUMP JUMPDEST PUSH4 0xA85BD01 PUSH1 0xE1 SHL SWAP4 SWAP3 POP POP POP JUMP JUMPDEST PUSH1 0x40 MLOAD PUSH1 0x1 PUSH1 0x1 PUSH1 0xE0 SHL SUB NOT SWAP1 SWAP2 AND DUP2 MSTORE PUSH1 0x20 ADD PUSH2 0x16F JUMP JUMPDEST PUSH2 0x332 PUSH2 0x32D CALLDATASIZE PUSH1 0x4 PUSH2 0x1125 JUMP JUMPDEST PUSH2 0x84D JUMP JUMPDEST PUSH1 0x40 MLOAD PUSH2 0x16F SWAP2 SWAP1 PUSH2 0x124C JUMP JUMPDEST PUSH1 0x0 JUMPDEST DUP2 MLOAD DUP2 LT ISZERO PUSH2 0x37E JUMPI PUSH2 0x36E DUP4 DUP4 DUP4 DUP2 MLOAD DUP2 LT PUSH2 0x361 JUMPI PUSH2 0x361 PUSH2 0x1290 JUMP JUMPDEST PUSH1 0x20 MUL PUSH1 0x20 ADD ADD MLOAD PUSH2 0x8EB JUMP JUMPDEST PUSH2 0x377 DUP2 PUSH2 0x12BC JUMP JUMPDEST SWAP1 POP PUSH2 0x342 JUMP JUMPDEST POP POP POP JUMP JUMPDEST PUSH1 0x0 PUSH1 0x1 PUSH1 0x1 PUSH1 0xE0 SHL SUB NOT DUP3 AND PUSH4 0x7965DB0B PUSH1 0xE0 SHL EQ DUP1 PUSH2 0x3B4 JUMPI POP PUSH4 0x1FFC9A7 PUSH1 0xE0 SHL PUSH1 0x1 PUSH1 0x1 PUSH1 0xE0 SHL SUB NOT DUP4 AND EQ JUMPDEST SWAP3 SWAP2 POP POP JUMP JUMPDEST PUSH1 0x6 DUP2 DUP2 SLOAD DUP2 LT PUSH2 0x3CA JUMPI PUSH1 0x0 DUP1 REVERT JUMPDEST PUSH1 0x0 SWAP2 DUP3 MSTORE PUSH1 0x20 SWAP1 SWAP2 KECCAK256 PUSH1 0x3 SWAP1 SWAP2 MUL ADD DUP1 SLOAD PUSH1 0x1 DUP3 ADD SLOAD PUSH1 0x2 SWAP1 SWAP3 ADD SLOAD PUSH1 0x1 PUSH1 0x1 PUSH1 0xA0 SHL SUB SWAP1 SWAP2 AND SWAP3 POP DUP4 JUMP JUMPDEST PUSH1 0x0 JUMPDEST DUP2 MLOAD DUP2 LT ISZERO PUSH2 0x37E JUMPI PUSH2 0x426 DUP4 DUP4 DUP4 DUP2 MLOAD DUP2 LT PUSH2 0x419 JUMPI PUSH2 0x419 PUSH2 0x1290 JUMP JUMPDEST PUSH1 0x20 MUL PUSH1 0x20 ADD ADD MLOAD PUSH2 0xAAC JUMP JUMPDEST PUSH2 0x42F DUP2 PUSH2 0x12BC JUMP JUMPDEST SWAP1 POP PUSH2 0x3FA JUMP JUMPDEST PUSH1 0x1 SLOAD PUSH2 0x442 DUP2 PUSH2 0xB9F JUMP JUMPDEST POP PUSH1 0x40 DUP1 MLOAD PUSH1 0x60 DUP2 ADD DUP3 MSTORE PUSH1 0x1 PUSH1 0x1 PUSH1 0xA0 SHL SUB SWAP4 DUP5 AND DUP2 MSTORE PUSH1 0x20 DUP2 ADD SWAP3 DUP4 MSTORE PUSH1 0x0 SWAP2 DUP2 ADD DUP3 DUP2 MSTORE PUSH1 0x6 DUP1 SLOAD PUSH1 0x1 DUP2 ADD DUP3 SSTORE SWAP4 MSTORE SWAP1 MLOAD PUSH32 0xF652222313E28459528D920B65115C16C04F3EFC82AAEDC97BE59F3F377C0D3F PUSH1 0x3 SWAP1 SWAP4 MUL SWAP3 DUP4 ADD DUP1 SLOAD PUSH1 0x1 PUSH1 0x1 PUSH1 0xA0 SHL SUB NOT AND SWAP2 SWAP1 SWAP6 AND OR SWAP1 SWAP4 SSTORE SWAP1 MLOAD PUSH32 0xF652222313E28459528D920B65115C16C04F3EFC82AAEDC97BE59F3F377C0D40 DUP3 ADD SSTORE SWAP1 MLOAD PUSH32 0xF652222313E28459528D920B65115C16C04F3EFC82AAEDC97BE59F3F377C0D41 SWAP1 SWAP2 ADD SSTORE JUMP JUMPDEST PUSH1 0x0 DUP3 DUP2 MSTORE PUSH1 0x20 DUP2 SWAP1 MSTORE PUSH1 0x40 SWAP1 KECCAK256 PUSH1 0x1 ADD SLOAD PUSH2 0x51E DUP2 PUSH2 0xB9F JUMP JUMPDEST PUSH2 0x37E DUP4 DUP4 PUSH2 0xBAC JUMP JUMPDEST PUSH1 0x0 DUP1 PUSH1 0x6 DUP5 DUP2 SLOAD DUP2 LT PUSH2 0x53E JUMPI PUSH2 0x53E PUSH2 0x1290 JUMP JUMPDEST PUSH1 0x0 SWAP2 DUP3 MSTORE PUSH1 0x20 DUP1 DUP4 KECCAK256 PUSH1 0x3 SWAP1 SWAP3 MUL SWAP1 SWAP2 ADD DUP1 SLOAD PUSH1 0x1 PUSH1 0x1 PUSH1 0xA0 SHL SUB SWAP1 DUP2 AND DUP5 MSTORE PUSH1 0x4 DUP4 MSTORE PUSH1 0x40 DUP1 DUP6 KECCAK256 DUP9 DUP7 MSTORE SWAP1 SWAP4 MSTORE SWAP2 SWAP1 SWAP3 KECCAK256 SLOAD SWAP2 SWAP3 POP SWAP1 DUP2 AND SWAP1 DUP7 AND EQ PUSH2 0x58B JUMPI PUSH1 0x0 SWAP2 POP POP PUSH2 0x5DF JUMP JUMPDEST DUP1 SLOAD PUSH1 0x1 PUSH1 0x1 PUSH1 0xA0 SHL SUB AND PUSH1 0x0 SWAP1 DUP2 MSTORE PUSH1 0x5 PUSH1 0x20 SWAP1 DUP2 MSTORE PUSH1 0x40 DUP1 DUP4 KECCAK256 DUP7 DUP5 MSTORE SWAP1 SWAP2 MSTORE DUP2 KECCAK256 SLOAD PUSH1 0x1 DUP4 ADD SLOAD SWAP1 SWAP2 SWAP1 PUSH2 0x5D9 SWAP1 PUSH2 0x5D3 PUSH3 0x15180 PUSH2 0x5CD DUP7 TIMESTAMP PUSH2 0x12D5 JUMP JUMPDEST SWAP1 PUSH2 0xC30 JUMP JUMPDEST SWAP1 PUSH2 0xC3C JUMP JUMPDEST SWAP4 POP POP POP POP JUMPDEST SWAP4 SWAP3 POP POP POP JUMP JUMPDEST PUSH1 0x1 PUSH1 0x1 PUSH1 0xA0 SHL SUB DUP2 AND CALLER EQ PUSH2 0x65B JUMPI PUSH1 0x40 MLOAD PUSH3 0x461BCD PUSH1 0xE5 SHL DUP2 MSTORE PUSH1 0x20 PUSH1 0x4 DUP3 ADD MSTORE PUSH1 0x2F PUSH1 0x24 DUP3 ADD MSTORE PUSH32 0x416363657373436F6E74726F6C3A2063616E206F6E6C792072656E6F756E6365 PUSH1 0x44 DUP3 ADD MSTORE PUSH15 0x103937B632B9903337B91039B2B633 PUSH1 0x89 SHL PUSH1 0x64 DUP3 ADD MSTORE PUSH1 0x84 ADD JUMPDEST PUSH1 0x40 MLOAD DUP1 SWAP2 SUB SWAP1 REVERT JUMPDEST PUSH2 0x665 DUP3 DUP3 PUSH2 0xC48 JUMP JUMPDEST POP POP JUMP JUMPDEST PUSH1 0x0 DUP1 PUSH1 0x0 SWAP1 POP PUSH1 0x0 PUSH1 0x6 DUP5 DUP2 SLOAD DUP2 LT PUSH2 0x685 JUMPI PUSH2 0x685 PUSH2 0x1290 JUMP JUMPDEST PUSH1 0x0 SWAP2 DUP3 MSTORE PUSH1 0x20 DUP3 KECCAK256 PUSH1 0x3 SWAP1 SWAP2 MUL ADD SLOAD PUSH1 0x1 PUSH1 0x1 PUSH1 0xA0 SHL SUB AND SWAP2 POP JUMPDEST PUSH1 0x1 PUSH1 0x1 PUSH1 0xA0 SHL SUB DUP1 DUP4 AND PUSH1 0x0 SWAP1 DUP2 MSTORE PUSH1 0x3 PUSH1 0x20 SWAP1 DUP2 MSTORE PUSH1 0x40 DUP1 DUP4 KECCAK256 SWAP4 DUP11 AND DUP4 MSTORE SWAP3 SWAP1 MSTORE KECCAK256 SLOAD DUP2 LT ISZERO PUSH2 0x73F JUMPI PUSH1 0x1 PUSH1 0x1 PUSH1 0xA0 SHL SUB DUP1 DUP4 AND PUSH1 0x0 SWAP1 DUP2 MSTORE PUSH1 0x3 PUSH1 0x20 SWAP1 DUP2 MSTORE PUSH1 0x40 DUP1 DUP4 KECCAK256 SWAP4 DUP11 AND DUP4 MSTORE SWAP3 SWAP1 MSTORE SWAP1 DUP2 KECCAK256 DUP1 SLOAD DUP4 SWAP1 DUP2 LT PUSH2 0x707 JUMPI PUSH2 0x707 PUSH2 0x1290 JUMP JUMPDEST SWAP1 PUSH1 0x0 MSTORE PUSH1 0x20 PUSH1 0x0 KECCAK256 ADD SLOAD SWAP1 POP PUSH2 0x71F DUP8 DUP8 DUP4 PUSH2 0x528 JUMP JUMPDEST PUSH2 0x729 SWAP1 DUP6 PUSH2 0x12EC JUMP JUMPDEST SWAP4 POP POP DUP1 DUP1 PUSH2 0x737 SWAP1 PUSH2 0x12BC JUMP JUMPDEST SWAP2 POP POP PUSH2 0x6A1 JUMP JUMPDEST POP SWAP1 SWAP5 SWAP4 POP POP POP POP JUMP JUMPDEST PUSH1 0x0 PUSH2 0x754 DUP2 PUSH2 0xB9F JUMP JUMPDEST PUSH2 0x665 PUSH1 0x1 SLOAD DUP4 PUSH2 0xCAD JUMP JUMPDEST PUSH2 0x665 DUP3 DUP3 PUSH2 0xAAC JUMP JUMPDEST PUSH1 0x1 SLOAD PUSH2 0x776 DUP2 PUSH2 0xB9F JUMP JUMPDEST PUSH1 0x0 PUSH1 0x6 DUP6 DUP2 SLOAD DUP2 LT PUSH2 0x78B JUMPI PUSH2 0x78B PUSH2 0x1290 JUMP JUMPDEST PUSH1 0x0 SWAP2 DUP3 MSTORE PUSH1 0x20 SWAP1 SWAP2 KECCAK256 PUSH1 0x3 SWAP1 SWAP2 MUL ADD DUP1 SLOAD PUSH1 0x1 PUSH1 0x1 PUSH1 0xA0 SHL SUB NOT AND PUSH1 0x1 PUSH1 0x1 PUSH1 0xA0 SHL SUB SWAP6 SWAP1 SWAP6 AND SWAP5 SWAP1 SWAP5 OR DUP5 SSTORE POP POP PUSH1 0x1 SWAP1 SWAP2 ADD SSTORE POP JUMP JUMPDEST PUSH1 0x0 DUP1 PUSH1 0x6 DUP4 DUP2 SLOAD DUP2 LT PUSH2 0x7DA JUMPI PUSH2 0x7DA PUSH2 0x1290 JUMP JUMPDEST PUSH1 0x0 SWAP2 DUP3 MSTORE PUSH1 0x20 SWAP1 SWAP2 KECCAK256 PUSH1 0x2 PUSH1 0x3 SWAP1 SWAP3 MUL ADD ADD SLOAD SWAP4 SWAP3 POP POP POP JUMP JUMPDEST PUSH1 0x0 SWAP2 DUP3 MSTORE PUSH1 0x20 DUP3 DUP2 MSTORE PUSH1 0x40 DUP1 DUP5 KECCAK256 PUSH1 0x1 PUSH1 0x1 PUSH1 0xA0 SHL SUB SWAP4 SWAP1 SWAP4 AND DUP5 MSTORE SWAP2 SWAP1 MSTORE SWAP1 KECCAK256 SLOAD PUSH1 0xFF AND SWAP1 JUMP JUMPDEST PUSH2 0x665 DUP3 DUP3 PUSH2 0x8EB JUMP JUMPDEST PUSH1 0x0 DUP3 DUP2 MSTORE PUSH1 0x20 DUP2 SWAP1 MSTORE PUSH1 0x40 SWAP1 KECCAK256 PUSH1 0x1 ADD SLOAD PUSH2 0x843 DUP2 PUSH2 0xB9F JUMP JUMPDEST PUSH2 0x37E DUP4 DUP4 PUSH2 0xC48 JUMP JUMPDEST PUSH1 0x60 PUSH1 0x0 PUSH1 0x6 DUP4 DUP2 SLOAD DUP2 LT PUSH2 0x864 JUMPI PUSH2 0x864 PUSH2 0x1290 JUMP JUMPDEST PUSH1 0x0 SWAP2 DUP3 MSTORE PUSH1 0x20 DUP1 DUP4 KECCAK256 PUSH1 0x3 SWAP3 DUP4 MUL ADD DUP1 SLOAD PUSH1 0x1 PUSH1 0x1 PUSH1 0xA0 SHL SUB SWAP1 DUP2 AND DUP6 MSTORE SWAP3 DUP3 MSTORE PUSH1 0x40 DUP1 DUP6 KECCAK256 SWAP4 DUP10 AND DUP6 MSTORE SWAP3 DUP3 MSTORE SWAP3 DUP3 SWAP1 KECCAK256 DUP1 SLOAD DUP4 MLOAD DUP2 DUP5 MUL DUP2 ADD DUP5 ADD SWAP1 SWAP5 MSTORE DUP1 DUP5 MSTORE SWAP4 SWAP5 POP SWAP2 SWAP3 SWAP1 DUP4 ADD DUP3 DUP3 DUP1 ISZERO PUSH2 0x8DD JUMPI PUSH1 0x20 MUL DUP3 ADD SWAP2 SWAP1 PUSH1 0x0 MSTORE PUSH1 0x20 PUSH1 0x0 KECCAK256 SWAP1 JUMPDEST DUP2 SLOAD DUP2 MSTORE PUSH1 0x20 ADD SWAP1 PUSH1 0x1 ADD SWAP1 DUP1 DUP4 GT PUSH2 0x8C9 JUMPI JUMPDEST POP POP POP POP POP SWAP2 POP POP SWAP3 SWAP2 POP POP JUMP JUMPDEST PUSH1 0x0 PUSH1 0x6 DUP4 DUP2 SLOAD DUP2 LT PUSH2 0x900 JUMPI PUSH2 0x900 PUSH2 0x1290 JUMP JUMPDEST PUSH1 0x0 SWAP2 DUP3 MSTORE PUSH1 0x20 DUP1 DUP4 KECCAK256 PUSH1 0x3 SWAP1 SWAP3 MUL SWAP1 SWAP2 ADD DUP1 SLOAD PUSH1 0x1 PUSH1 0x1 PUSH1 0xA0 SHL SUB SWAP1 DUP2 AND DUP5 MSTORE PUSH1 0x4 DUP4 MSTORE PUSH1 0x40 DUP1 DUP6 KECCAK256 DUP8 DUP7 MSTORE SWAP1 SWAP4 MSTORE SWAP2 SWAP1 SWAP3 KECCAK256 SLOAD SWAP2 SWAP3 POP AND CALLER EQ PUSH2 0x99D JUMPI PUSH1 0x40 MLOAD PUSH3 0x461BCD PUSH1 0xE5 SHL DUP2 MSTORE PUSH1 0x20 PUSH1 0x4 DUP3 ADD MSTORE PUSH1 0x2D PUSH1 0x24 DUP3 ADD MSTORE PUSH32 0x746F6B656E206973206E6F74207374616B6564206F722073656E64657220646F PUSH1 0x44 DUP3 ADD MSTORE PUSH13 0x195CC81B9BDD081BDDDB881A5D PUSH1 0x9A SHL PUSH1 0x64 DUP3 ADD MSTORE PUSH1 0x84 ADD PUSH2 0x652 JUMP JUMPDEST PUSH2 0x9A8 CALLER DUP5 DUP5 PUSH2 0xCB7 JUMP JUMPDEST DUP1 SLOAD PUSH1 0x1 PUSH1 0x1 PUSH1 0xA0 SHL SUB AND PUSH1 0x0 SWAP1 DUP2 MSTORE PUSH1 0x3 PUSH1 0x20 SWAP1 DUP2 MSTORE PUSH1 0x40 DUP1 DUP4 KECCAK256 CALLER DUP5 MSTORE SWAP1 SWAP2 MSTORE SWAP1 KECCAK256 PUSH2 0x9D6 SWAP1 DUP4 PUSH2 0xD2F JUMP JUMPDEST DUP1 SLOAD PUSH1 0x1 PUSH1 0x1 PUSH1 0xA0 SHL SUB SWAP1 DUP2 AND PUSH1 0x0 SWAP1 DUP2 MSTORE PUSH1 0x4 PUSH1 0x20 SWAP1 DUP2 MSTORE PUSH1 0x40 DUP1 DUP4 KECCAK256 DUP7 DUP5 MSTORE DUP3 MSTORE DUP1 DUP4 KECCAK256 DUP1 SLOAD PUSH1 0x1 PUSH1 0x1 PUSH1 0xA0 SHL SUB NOT AND SWAP1 SSTORE DUP5 SLOAD SWAP1 SWAP4 AND DUP3 MSTORE PUSH1 0x5 DUP2 MSTORE DUP3 DUP3 KECCAK256 DUP6 DUP4 MSTORE SWAP1 MSTORE SWAP1 DUP2 KECCAK256 DUP2 SWAP1 SSTORE PUSH1 0x2 DUP3 ADD DUP1 SLOAD PUSH1 0x1 SWAP3 SWAP1 PUSH2 0xA38 SWAP1 DUP5 SWAP1 PUSH2 0x12D5 JUMP JUMPDEST SWAP1 SWAP2 SSTORE POP POP DUP1 SLOAD PUSH1 0x40 MLOAD PUSH4 0x23B872DD PUSH1 0xE0 SHL DUP2 MSTORE ADDRESS PUSH1 0x4 DUP3 ADD MSTORE CALLER PUSH1 0x24 DUP3 ADD MSTORE PUSH1 0x44 DUP2 ADD DUP5 SWAP1 MSTORE PUSH1 0x1 PUSH1 0x1 PUSH1 0xA0 SHL SUB SWAP1 SWAP2 AND SWAP1 PUSH4 0x23B872DD SWAP1 PUSH1 0x64 ADD JUMPDEST PUSH1 0x0 PUSH1 0x40 MLOAD DUP1 DUP4 SUB DUP2 PUSH1 0x0 DUP8 DUP1 EXTCODESIZE ISZERO DUP1 ISZERO PUSH2 0xA8F JUMPI PUSH1 0x0 DUP1 REVERT JUMPDEST POP GAS CALL ISZERO DUP1 ISZERO PUSH2 0xAA3 JUMPI RETURNDATASIZE PUSH1 0x0 DUP1 RETURNDATACOPY RETURNDATASIZE PUSH1 0x0 REVERT JUMPDEST POP POP POP POP POP POP POP JUMP JUMPDEST PUSH1 0x0 PUSH1 0x6 DUP4 DUP2 SLOAD DUP2 LT PUSH2 0xAC1 JUMPI PUSH2 0xAC1 PUSH2 0x1290 JUMP JUMPDEST PUSH1 0x0 SWAP2 DUP3 MSTORE PUSH1 0x20 DUP1 DUP4 KECCAK256 PUSH1 0x3 SWAP3 DUP4 MUL ADD DUP1 SLOAD PUSH1 0x1 PUSH1 0x1 PUSH1 0xA0 SHL SUB SWAP1 DUP2 AND DUP6 MSTORE PUSH1 0x4 DUP4 MSTORE PUSH1 0x40 DUP1 DUP7 KECCAK256 DUP9 DUP8 MSTORE DUP5 MSTORE DUP1 DUP7 KECCAK256 DUP1 SLOAD PUSH1 0x1 PUSH1 0x1 PUSH1 0xA0 SHL SUB NOT AND CALLER SWAP1 DUP2 OR SWAP1 SWAP2 SSTORE DUP4 SLOAD DUP4 AND DUP8 MSTORE PUSH1 0x5 DUP6 MSTORE DUP2 DUP8 KECCAK256 DUP10 DUP9 MSTORE DUP6 MSTORE DUP2 DUP8 KECCAK256 TIMESTAMP SWAP1 SSTORE DUP4 SLOAD SWAP1 SWAP3 AND DUP7 MSTORE SWAP4 DUP4 MSTORE DUP4 DUP6 KECCAK256 SWAP1 DUP6 MSTORE DUP3 MSTORE SWAP2 DUP4 KECCAK256 DUP1 SLOAD PUSH1 0x1 DUP2 DUP2 ADD DUP4 SSTORE SWAP2 DUP6 MSTORE SWAP2 DUP5 KECCAK256 SWAP1 SWAP2 ADD DUP6 SWAP1 SSTORE PUSH1 0x2 DUP3 ADD DUP1 SLOAD SWAP3 SWAP5 POP SWAP1 SWAP3 SWAP1 SWAP2 PUSH2 0xB5E SWAP1 DUP5 SWAP1 PUSH2 0x12EC JUMP JUMPDEST SWAP1 SWAP2 SSTORE POP POP DUP1 SLOAD PUSH1 0x40 MLOAD PUSH4 0x23B872DD PUSH1 0xE0 SHL DUP2 MSTORE CALLER PUSH1 0x4 DUP3 ADD MSTORE ADDRESS PUSH1 0x24 DUP3 ADD MSTORE PUSH1 0x44 DUP2 ADD DUP5 SWAP1 MSTORE PUSH1 0x1 PUSH1 0x1 PUSH1 0xA0 SHL SUB SWAP1 SWAP2 AND SWAP1 PUSH4 0x23B872DD SWAP1 PUSH1 0x64 ADD PUSH2 0xA75 JUMP JUMPDEST PUSH2 0xBA9 DUP2 CALLER PUSH2 0xDE6 JUMP JUMPDEST POP JUMP JUMPDEST PUSH2 0xBB6 DUP3 DUP3 PUSH2 0x7F5 JUMP JUMPDEST PUSH2 0x665 JUMPI PUSH1 0x0 DUP3 DUP2 MSTORE PUSH1 0x20 DUP2 DUP2 MSTORE PUSH1 0x40 DUP1 DUP4 KECCAK256 PUSH1 0x1 PUSH1 0x1 PUSH1 0xA0 SHL SUB DUP6 AND DUP5 MSTORE SWAP1 SWAP2 MSTORE SWAP1 KECCAK256 DUP1 SLOAD PUSH1 0xFF NOT AND PUSH1 0x1 OR SWAP1 SSTORE PUSH2 0xBEC CALLER SWAP1 JUMP JUMPDEST PUSH1 0x1 PUSH1 0x1 PUSH1 0xA0 SHL SUB AND DUP2 PUSH1 0x1 PUSH1 0x1 PUSH1 0xA0 SHL SUB AND DUP4 PUSH32 0x2F8788117E7EFF1D82E926EC794901D17C78024A50270940304540A733656F0D PUSH1 0x40 MLOAD PUSH1 0x40 MLOAD DUP1 SWAP2 SUB SWAP1 LOG4 POP POP JUMP JUMPDEST PUSH1 0x0 PUSH2 0x5DF DUP3 DUP5 PUSH2 0x1304 JUMP JUMPDEST PUSH1 0x0 PUSH2 0x5DF DUP3 DUP5 PUSH2 0x1326 JUMP JUMPDEST PUSH2 0xC52 DUP3 DUP3 PUSH2 0x7F5 JUMP JUMPDEST ISZERO PUSH2 0x665 JUMPI PUSH1 0x0 DUP3 DUP2 MSTORE PUSH1 0x20 DUP2 DUP2 MSTORE PUSH1 0x40 DUP1 DUP4 KECCAK256 PUSH1 0x1 PUSH1 0x1 PUSH1 0xA0 SHL SUB DUP6 AND DUP1 DUP6 MSTORE SWAP3 MSTORE DUP1 DUP4 KECCAK256 DUP1 SLOAD PUSH1 0xFF NOT AND SWAP1 SSTORE MLOAD CALLER SWAP3 DUP6 SWAP2 PUSH32 0xF6391F5C32D9C69D2A47EA670B442974B53935D1EDC7FD64EB21E047A839171B SWAP2 SWAP1 LOG4 POP POP JUMP JUMPDEST PUSH2 0x665 DUP3 DUP3 PUSH2 0xBAC JUMP JUMPDEST PUSH1 0x0 PUSH2 0xCC4 DUP5 DUP5 DUP5 PUSH2 0x528 JUMP JUMPDEST PUSH1 0x2 SLOAD PUSH1 0x40 MLOAD PUSH4 0x40C10F19 PUSH1 0xE0 SHL DUP2 MSTORE CALLER PUSH1 0x4 DUP3 ADD MSTORE PUSH1 0x24 DUP2 ADD DUP4 SWAP1 MSTORE SWAP2 SWAP3 POP PUSH1 0x1 PUSH1 0x1 PUSH1 0xA0 SHL SUB AND SWAP1 PUSH4 0x40C10F19 SWAP1 PUSH1 0x44 ADD PUSH1 0x0 PUSH1 0x40 MLOAD DUP1 DUP4 SUB DUP2 PUSH1 0x0 DUP8 DUP1 EXTCODESIZE ISZERO DUP1 ISZERO PUSH2 0xD11 JUMPI PUSH1 0x0 DUP1 REVERT JUMPDEST POP GAS CALL ISZERO DUP1 ISZERO PUSH2 0xD25 JUMPI RETURNDATASIZE PUSH1 0x0 DUP1 RETURNDATACOPY RETURNDATASIZE PUSH1 0x0 REVERT JUMPDEST POP POP POP POP POP POP POP POP JUMP JUMPDEST PUSH1 0x0 JUMPDEST DUP3 SLOAD DUP2 LT ISZERO PUSH2 0x37E JUMPI DUP2 DUP4 DUP3 DUP2 SLOAD DUP2 LT PUSH2 0xD4E JUMPI PUSH2 0xD4E PUSH2 0x1290 JUMP JUMPDEST SWAP1 PUSH1 0x0 MSTORE PUSH1 0x20 PUSH1 0x0 KECCAK256 ADD SLOAD SUB PUSH2 0xDD4 JUMPI DUP3 SLOAD DUP4 SWAP1 PUSH2 0xD6E SWAP1 PUSH1 0x1 SWAP1 PUSH2 0x12D5 JUMP JUMPDEST DUP2 SLOAD DUP2 LT PUSH2 0xD7E JUMPI PUSH2 0xD7E PUSH2 0x1290 JUMP JUMPDEST SWAP1 PUSH1 0x0 MSTORE PUSH1 0x20 PUSH1 0x0 KECCAK256 ADD SLOAD DUP4 DUP3 DUP2 SLOAD DUP2 LT PUSH2 0xD9B JUMPI PUSH2 0xD9B PUSH2 0x1290 JUMP JUMPDEST SWAP1 PUSH1 0x0 MSTORE PUSH1 0x20 PUSH1 0x0 KECCAK256 ADD DUP2 SWAP1 SSTORE POP DUP3 DUP1 SLOAD DUP1 PUSH2 0xDB9 JUMPI PUSH2 0xDB9 PUSH2 0x1345 JUMP JUMPDEST PUSH1 0x1 SWAP1 SUB DUP2 DUP2 SWAP1 PUSH1 0x0 MSTORE PUSH1 0x20 PUSH1 0x0 KECCAK256 ADD PUSH1 0x0 SWAP1 SSTORE SWAP1 SSTORE POP POP POP JUMP JUMPDEST DUP1 PUSH2 0xDDE DUP2 PUSH2 0x12BC JUMP JUMPDEST SWAP2 POP POP PUSH2 0xD32 JUMP JUMPDEST PUSH2 0xDF0 DUP3 DUP3 PUSH2 0x7F5 JUMP JUMPDEST PUSH2 0x665 JUMPI PUSH2 0xE08 DUP2 PUSH1 0x1 PUSH1 0x1 PUSH1 0xA0 SHL SUB AND PUSH1 0x14 PUSH2 0xE4A JUMP JUMPDEST PUSH2 0xE13 DUP4 PUSH1 0x20 PUSH2 0xE4A JUMP JUMPDEST PUSH1 0x40 MLOAD PUSH1 0x20 ADD PUSH2 0xE24 SWAP3 SWAP2 SWAP1 PUSH2 0x138B JUMP JUMPDEST PUSH1 0x40 DUP1 MLOAD PUSH1 0x1F NOT DUP2 DUP5 SUB ADD DUP2 MSTORE SWAP1 DUP3 SWAP1 MSTORE PUSH3 0x461BCD PUSH1 0xE5 SHL DUP3 MSTORE PUSH2 0x652 SWAP2 PUSH1 0x4 ADD PUSH2 0x1400 JUMP JUMPDEST PUSH1 0x60 PUSH1 0x0 PUSH2 0xE59 DUP4 PUSH1 0x2 PUSH2 0x1326 JUMP JUMPDEST PUSH2 0xE64 SWAP1 PUSH1 0x2 PUSH2 0x12EC JUMP JUMPDEST PUSH8 0xFFFFFFFFFFFFFFFF DUP2 GT ISZERO PUSH2 0xE7C JUMPI PUSH2 0xE7C PUSH2 0xFE6 JUMP JUMPDEST PUSH1 0x40 MLOAD SWAP1 DUP1 DUP3 MSTORE DUP1 PUSH1 0x1F ADD PUSH1 0x1F NOT AND PUSH1 0x20 ADD DUP3 ADD PUSH1 0x40 MSTORE DUP1 ISZERO PUSH2 0xEA6 JUMPI PUSH1 0x20 DUP3 ADD DUP2 DUP1 CALLDATASIZE DUP4 CALLDATACOPY ADD SWAP1 POP JUMPDEST POP SWAP1 POP PUSH1 0x3 PUSH1 0xFC SHL DUP2 PUSH1 0x0 DUP2 MLOAD DUP2 LT PUSH2 0xEC1 JUMPI PUSH2 0xEC1 PUSH2 0x1290 JUMP JUMPDEST PUSH1 0x20 ADD ADD SWAP1 PUSH1 0x1 PUSH1 0x1 PUSH1 0xF8 SHL SUB NOT AND SWAP1 DUP2 PUSH1 0x0 BYTE SWAP1 MSTORE8 POP PUSH1 0xF PUSH1 0xFB SHL DUP2 PUSH1 0x1 DUP2 MLOAD DUP2 LT PUSH2 0xEF0 JUMPI PUSH2 0xEF0 PUSH2 0x1290 JUMP JUMPDEST PUSH1 0x20 ADD ADD SWAP1 PUSH1 0x1 PUSH1 0x1 PUSH1 0xF8 SHL SUB NOT AND SWAP1 DUP2 PUSH1 0x0 BYTE SWAP1 MSTORE8 POP PUSH1 0x0 PUSH2 0xF14 DUP5 PUSH1 0x2 PUSH2 0x1326 JUMP JUMPDEST PUSH2 0xF1F SWAP1 PUSH1 0x1 PUSH2 0x12EC JUMP JUMPDEST SWAP1 POP JUMPDEST PUSH1 0x1 DUP2 GT ISZERO PUSH2 0xF97 JUMPI PUSH16 0x181899199A1A9B1B9C1CB0B131B232B3 PUSH1 0x81 SHL DUP6 PUSH1 0xF AND PUSH1 0x10 DUP2 LT PUSH2 0xF53 JUMPI PUSH2 0xF53 PUSH2 0x1290 JUMP JUMPDEST BYTE PUSH1 0xF8 SHL DUP3 DUP3 DUP2 MLOAD DUP2 LT PUSH2 0xF69 JUMPI PUSH2 0xF69 PUSH2 0x1290 JUMP JUMPDEST PUSH1 0x20 ADD ADD SWAP1 PUSH1 0x1 PUSH1 0x1 PUSH1 0xF8 SHL SUB NOT AND SWAP1 DUP2 PUSH1 0x0 BYTE SWAP1 MSTORE8 POP PUSH1 0x4 SWAP5 SWAP1 SWAP5 SHR SWAP4 PUSH2 0xF90 DUP2 PUSH2 0x1433 JUMP JUMPDEST SWAP1 POP PUSH2 0xF22 JUMP JUMPDEST POP DUP4 ISZERO PUSH2 0x5DF JUMPI PUSH1 0x40 MLOAD PUSH3 0x461BCD PUSH1 0xE5 SHL DUP2 MSTORE PUSH1 0x20 PUSH1 0x4 DUP3 ADD DUP2 SWAP1 MSTORE PUSH1 0x24 DUP3 ADD MSTORE PUSH32 0x537472696E67733A20686578206C656E67746820696E73756666696369656E74 PUSH1 0x44 DUP3 ADD MSTORE PUSH1 0x64 ADD PUSH2 0x652 JUMP JUMPDEST PUSH4 0x4E487B71 PUSH1 0xE0 SHL PUSH1 0x0 MSTORE PUSH1 0x41 PUSH1 0x4 MSTORE PUSH1 0x24 PUSH1 0x0 REVERT JUMPDEST PUSH1 0x0 DUP1 PUSH1 0x40 DUP4 DUP6 SUB SLT ISZERO PUSH2 0x100F JUMPI PUSH1 0x0 DUP1 REVERT JUMPDEST DUP3 CALLDATALOAD SWAP2 POP PUSH1 0x20 DUP1 DUP5 ADD CALLDATALOAD PUSH8 0xFFFFFFFFFFFFFFFF DUP1 DUP3 GT ISZERO PUSH2 0x102F JUMPI PUSH1 0x0 DUP1 REVERT JUMPDEST DUP2 DUP7 ADD SWAP2 POP DUP7 PUSH1 0x1F DUP4 ADD SLT PUSH2 0x1043 JUMPI PUSH1 0x0 DUP1 REVERT JUMPDEST DUP2 CALLDATALOAD DUP2 DUP2 GT ISZERO PUSH2 0x1055 JUMPI PUSH2 0x1055 PUSH2 0xFE6 JUMP JUMPDEST DUP1 PUSH1 0x5 SHL PUSH1 0x40 MLOAD PUSH1 0x1F NOT PUSH1 0x3F DUP4 ADD AND DUP2 ADD DUP2 DUP2 LT DUP6 DUP3 GT OR ISZERO PUSH2 0x107A JUMPI PUSH2 0x107A PUSH2 0xFE6 JUMP JUMPDEST PUSH1 0x40 MSTORE SWAP2 DUP3 MSTORE DUP5 DUP3 ADD SWAP3 POP DUP4 DUP2 ADD DUP6 ADD SWAP2 DUP10 DUP4 GT ISZERO PUSH2 0x1098 JUMPI PUSH1 0x0 DUP1 REVERT JUMPDEST SWAP4 DUP6 ADD SWAP4 JUMPDEST DUP3 DUP6 LT ISZERO PUSH2 0x10B6 JUMPI DUP5 CALLDATALOAD DUP5 MSTORE SWAP4 DUP6 ADD SWAP4 SWAP3 DUP6 ADD SWAP3 PUSH2 0x109D JUMP JUMPDEST DUP1 SWAP7 POP POP POP POP POP POP POP SWAP3 POP SWAP3 SWAP1 POP JUMP JUMPDEST PUSH1 0x0 PUSH1 0x20 DUP3 DUP5 SUB SLT ISZERO PUSH2 0x10D8 JUMPI PUSH1 0x0 DUP1 REVERT JUMPDEST DUP2 CALLDATALOAD PUSH1 0x1 PUSH1 0x1 PUSH1 0xE0 SHL SUB NOT DUP2 AND DUP2 EQ PUSH2 0x5DF JUMPI PUSH1 0x0 DUP1 REVERT JUMPDEST PUSH1 0x0 PUSH1 0x20 DUP3 DUP5 SUB SLT ISZERO PUSH2 0x1102 JUMPI PUSH1 0x0 DUP1 REVERT JUMPDEST POP CALLDATALOAD SWAP2 SWAP1 POP JUMP JUMPDEST DUP1 CALLDATALOAD PUSH1 0x1 PUSH1 0x1 PUSH1 0xA0 SHL SUB DUP2 AND DUP2 EQ PUSH2 0x1120 JUMPI PUSH1 0x0 DUP1 REVERT JUMPDEST SWAP2 SWAP1 POP JUMP JUMPDEST PUSH1 0x0 DUP1 PUSH1 0x40 DUP4 DUP6 SUB SLT ISZERO PUSH2 0x1138 JUMPI PUSH1 0x0 DUP1 REVERT JUMPDEST PUSH2 0x1141 DUP4 PUSH2 0x1109 JUMP JUMPDEST SWAP5 PUSH1 0x20 SWAP4 SWAP1 SWAP4 ADD CALLDATALOAD SWAP4 POP POP POP JUMP JUMPDEST PUSH1 0x0 DUP1 PUSH1 0x40 DUP4 DUP6 SUB SLT ISZERO PUSH2 0x1162 JUMPI PUSH1 0x0 DUP1 REVERT JUMPDEST DUP3 CALLDATALOAD SWAP2 POP PUSH2 0x1172 PUSH1 0x20 DUP5 ADD PUSH2 0x1109 JUMP JUMPDEST SWAP1 POP SWAP3 POP SWAP3 SWAP1 POP JUMP JUMPDEST PUSH1 0x0 DUP1 PUSH1 0x0 PUSH1 0x60 DUP5 DUP7 SUB SLT ISZERO PUSH2 0x1190 JUMPI PUSH1 0x0 DUP1 REVERT JUMPDEST PUSH2 0x1199 DUP5 PUSH2 0x1109 JUMP JUMPDEST SWAP6 PUSH1 0x20 DUP6 ADD CALLDATALOAD SWAP6 POP PUSH1 0x40 SWAP1 SWAP5 ADD CALLDATALOAD SWAP4 SWAP3 POP POP POP JUMP JUMPDEST PUSH1 0x0 PUSH1 0x20 DUP3 DUP5 SUB SLT ISZERO PUSH2 0x11C0 JUMPI PUSH1 0x0 DUP1 REVERT JUMPDEST PUSH2 0x5DF DUP3 PUSH2 0x1109 JUMP JUMPDEST PUSH1 0x0 DUP1 PUSH1 0x40 DUP4 DUP6 SUB SLT ISZERO PUSH2 0x11DC JUMPI PUSH1 0x0 DUP1 REVERT JUMPDEST POP POP DUP1 CALLDATALOAD SWAP3 PUSH1 0x20 SWAP1 SWAP2 ADD CALLDATALOAD SWAP2 POP JUMP JUMPDEST PUSH1 0x0 DUP1 PUSH1 0x0 PUSH1 0x60 DUP5 DUP7 SUB SLT ISZERO PUSH2 0x1200 JUMPI PUSH1 0x0 DUP1 REVERT JUMPDEST DUP4 CALLDATALOAD SWAP3 POP PUSH2 0x1210 PUSH1 0x20 DUP6 ADD PUSH2 0x1109 JUMP JUMPDEST SWAP2 POP PUSH1 0x40 DUP5 ADD CALLDATALOAD SWAP1 POP SWAP3 POP SWAP3 POP SWAP3 JUMP JUMPDEST PUSH1 0x0 DUP1 PUSH1 0x0 PUSH1 0x60 DUP5 DUP7 SUB SLT ISZERO PUSH2 0x1235 JUMPI PUSH1 0x0 DUP1 REVERT JUMPDEST PUSH2 0x123E DUP5 PUSH2 0x1109 JUMP JUMPDEST SWAP3 POP PUSH2 0x1210 PUSH1 0x20 DUP6 ADD PUSH2 0x1109 JUMP JUMPDEST PUSH1 0x20 DUP1 DUP3 MSTORE DUP3 MLOAD DUP3 DUP3 ADD DUP2 SWAP1 MSTORE PUSH1 0x0 SWAP2 SWAP1 DUP5 DUP3 ADD SWAP1 PUSH1 0x40 DUP6 ADD SWAP1 DUP5 JUMPDEST DUP2 DUP2 LT ISZERO PUSH2 0x1284 JUMPI DUP4 MLOAD DUP4 MSTORE SWAP3 DUP5 ADD SWAP3 SWAP2 DUP5 ADD SWAP2 PUSH1 0x1 ADD PUSH2 0x1268 JUMP JUMPDEST POP SWAP1 SWAP7 SWAP6 POP POP POP POP POP POP JUMP JUMPDEST PUSH4 0x4E487B71 PUSH1 0xE0 SHL PUSH1 0x0 MSTORE PUSH1 0x32 PUSH1 0x4 MSTORE PUSH1 0x24 PUSH1 0x0 REVERT JUMPDEST PUSH4 0x4E487B71 PUSH1 0xE0 SHL PUSH1 0x0 MSTORE PUSH1 0x11 PUSH1 0x4 MSTORE PUSH1 0x24 PUSH1 0x0 REVERT JUMPDEST PUSH1 0x0 PUSH1 0x1 DUP3 ADD PUSH2 0x12CE JUMPI PUSH2 0x12CE PUSH2 0x12A6 JUMP JUMPDEST POP PUSH1 0x1 ADD SWAP1 JUMP JUMPDEST PUSH1 0x0 DUP3 DUP3 LT ISZERO PUSH2 0x12E7 JUMPI PUSH2 0x12E7 PUSH2 0x12A6 JUMP JUMPDEST POP SUB SWAP1 JUMP JUMPDEST PUSH1 0x0 DUP3 NOT DUP3 GT ISZERO PUSH2 0x12FF JUMPI PUSH2 0x12FF PUSH2 0x12A6 JUMP JUMPDEST POP ADD SWAP1 JUMP JUMPDEST PUSH1 0x0 DUP3 PUSH2 0x1321 JUMPI PUSH4 0x4E487B71 PUSH1 0xE0 SHL PUSH1 0x0 MSTORE PUSH1 0x12 PUSH1 0x4 MSTORE PUSH1 0x24 PUSH1 0x0 REVERT JUMPDEST POP DIV SWAP1 JUMP JUMPDEST PUSH1 0x0 DUP2 PUSH1 0x0 NOT DIV DUP4 GT DUP3 ISZERO ISZERO AND ISZERO PUSH2 0x1340 JUMPI PUSH2 0x1340 PUSH2 0x12A6 JUMP JUMPDEST POP MUL SWAP1 JUMP JUMPDEST PUSH4 0x4E487B71 PUSH1 0xE0 SHL PUSH1 0x0 MSTORE PUSH1 0x31 PUSH1 0x4 MSTORE PUSH1 0x24 PUSH1 0x0 REVERT JUMPDEST PUSH1 0x0 JUMPDEST DUP4 DUP2 LT ISZERO PUSH2 0x1376 JUMPI DUP2 DUP2 ADD MLOAD DUP4 DUP3 ADD MSTORE PUSH1 0x20 ADD PUSH2 0x135E JUMP JUMPDEST DUP4 DUP2 GT ISZERO PUSH2 0x1385 JUMPI PUSH1 0x0 DUP5 DUP5 ADD MSTORE JUMPDEST POP POP POP POP JUMP JUMPDEST PUSH32 0x416363657373436F6E74726F6C3A206163636F756E7420000000000000000000 DUP2 MSTORE PUSH1 0x0 DUP4 MLOAD PUSH2 0x13C3 DUP2 PUSH1 0x17 DUP6 ADD PUSH1 0x20 DUP9 ADD PUSH2 0x135B JUMP JUMPDEST PUSH17 0x1034B99036B4B9B9B4B733903937B6329 PUSH1 0x7D SHL PUSH1 0x17 SWAP2 DUP5 ADD SWAP2 DUP3 ADD MSTORE DUP4 MLOAD PUSH2 0x13F4 DUP2 PUSH1 0x28 DUP5 ADD PUSH1 0x20 DUP9 ADD PUSH2 0x135B JUMP JUMPDEST ADD PUSH1 0x28 ADD SWAP5 SWAP4 POP POP POP POP JUMP JUMPDEST PUSH1 0x20 DUP2 MSTORE PUSH1 0x0 DUP3 MLOAD DUP1 PUSH1 0x20 DUP5 ADD MSTORE PUSH2 0x141F DUP2 PUSH1 0x40 DUP6 ADD PUSH1 0x20 DUP8 ADD PUSH2 0x135B JUMP JUMPDEST PUSH1 0x1F ADD PUSH1 0x1F NOT AND SWAP2 SWAP1 SWAP2 ADD PUSH1 0x40 ADD SWAP3 SWAP2 POP POP JUMP JUMPDEST PUSH1 0x0 DUP2 PUSH2 0x1442 JUMPI PUSH2 0x1442 PUSH2 0x12A6 JUMP JUMPDEST POP PUSH1 0x0 NOT ADD SWAP1 JUMP INVALID LOG2 PUSH5 0x6970667358 0x22 SLT KECCAK256 PUSH21 0xF79CA7A638DD2822A0A151E5BFE5E601FAD76D2AFF EXTCODEHASH 0xB1 0xF7 JUMP 0xB7 SMOD 0x2E 0xD4 NOT PUSH5 0x64736F6C63 NUMBER STOP ADDMOD 0xD STOP CALLER "
		},
		"gasEstimates": {
			"creation": {
				"codeDepositCost": "1049600",
				"executionCost": "infinite",
				"totalCost": "infinite"
			},
			"external": {
				"ADMIN_ROLE()": "2340",
				"DEFAULT_ADMIN_ROLE()": "261",
				"batchStake(uint256,uint256[])": "infinite",
				"batchUnstake(uint256,uint256[])": "infinite",
				"claimableReward(address,uint256,uint256)": "infinite",
				"collectionInfo(uint256)": "8968",
				"getRoleAdmin(bytes32)": "2559",
				"getTotalStakedItemsCount(uint256)": "4716",
				"getUserStakedTokens(address,uint256)": "infinite",
				"grantRole(bytes32,address)": "infinite",
				"hasRole(bytes32,address)": "2673",
				"onERC721Received(address,address,uint256)": "infinite",
				"renounceRole(bytes32,address)": "29084",
				"revokeRole(bytes32,address)": "infinite",
				"setAdminRole(address)": "infinite",
				"setCollection(address,uint256)": "infinite",
				"stake(uint256,uint256)": "infinite",
				"supportsInterface(bytes4)": "472",
				"totalClaimableReward(address,uint256)": "infinite",
				"unstake(uint256,uint256)": "infinite",
				"updateCollection(uint256,address,uint256)": "infinite"
			},
			"internal": {
				"_claimReward(address,uint256,uint256)": "infinite",
				"_removeElement(uint256[] storage pointer,uint256)": "infinite",
				"_stake(uint256,uint256)": "infinite",
				"_unstake(uint256,uint256)": "infinite"
			}
		},
		"methodIdentifiers": {
			"ADMIN_ROLE()": "75b238fc",
			"DEFAULT_ADMIN_ROLE()": "a217fddf",
			"batchStake(uint256,uint256[])": "1bbda52b",
			"batchUnstake(uint256,uint256[])": "008afd4e",
			"claimableReward(address,uint256,uint256)": "302f7fea",
			"collectionInfo(uint256)": "0fb4d2e5",
			"getRoleAdmin(bytes32)": "248a9ca3",
			"getTotalStakedItemsCount(uint256)": "842dd90a",
			"getUserStakedTokens(address,uint256)": "f93b03bc",
			"grantRole(bytes32,address)": "2f2ff15d",
			"hasRole(bytes32,address)": "91d14854",
			"onERC721Received(address,address,uint256)": "eeafbddc",
			"renounceRole(bytes32,address)": "36568abe",
			"revokeRole(bytes32,address)": "d547741f",
			"setAdminRole(address)": "4adc7cfd",
			"setCollection(address,uint256)": "2edb531c",
			"stake(uint256,uint256)": "7b0472f0",
			"supportsInterface(bytes4)": "01ffc9a7",
			"totalClaimableReward(address,uint256)": "3b552dbd",
			"unstake(uint256,uint256)": "9e2c8a5b",
			"updateCollection(uint256,address,uint256)": "7b71e5db"
		}
	},
	"abi": [
		{
			"inputs": [
				{
					"internalType": "address",
					"name": "_rewardsToken",
					"type": "address"
				}
			],
			"stateMutability": "nonpayable",
			"type": "constructor"
		},
		{
			"anonymous": false,
			"inputs": [
				{
					"indexed": true,
					"internalType": "bytes32",
					"name": "role",
					"type": "bytes32"
				},
				{
					"indexed": true,
					"internalType": "bytes32",
					"name": "previousAdminRole",
					"type": "bytes32"
				},
				{
					"indexed": true,
					"internalType": "bytes32",
					"name": "newAdminRole",
					"type": "bytes32"
				}
			],
			"name": "RoleAdminChanged",
			"type": "event"
		},
		{
			"anonymous": false,
			"inputs": [
				{
					"indexed": true,
					"internalType": "bytes32",
					"name": "role",
					"type": "bytes32"
				},
				{
					"indexed": true,
					"internalType": "address",
					"name": "account",
					"type": "address"
				},
				{
					"indexed": true,
					"internalType": "address",
					"name": "sender",
					"type": "address"
				}
			],
			"name": "RoleGranted",
			"type": "event"
		},
		{
			"anonymous": false,
			"inputs": [
				{
					"indexed": true,
					"internalType": "bytes32",
					"name": "role",
					"type": "bytes32"
				},
				{
					"indexed": true,
					"internalType": "address",
					"name": "account",
					"type": "address"
				},
				{
					"indexed": true,
					"internalType": "address",
					"name": "sender",
					"type": "address"
				}
			],
			"name": "RoleRevoked",
			"type": "event"
		},
		{
			"inputs": [],
			"name": "ADMIN_ROLE",
			"outputs": [
				{
					"internalType": "bytes32",
					"name": "",
					"type": "bytes32"
				}
			],
			"stateMutability": "view",
			"type": "function"
		},
		{
			"inputs": [],
			"name": "DEFAULT_ADMIN_ROLE",
			"outputs": [
				{
					"internalType": "bytes32",
					"name": "",
					"type": "bytes32"
				}
			],
			"stateMutability": "view",
			"type": "function"
		},
		{
			"inputs": [
				{
					"internalType": "uint256",
					"name": "_collectionID",
					"type": "uint256"
				},
				{
					"internalType": "uint256[]",
					"name": "_tokenIDs",
					"type": "uint256[]"
				}
			],
			"name": "batchStake",
			"outputs": [],
			"stateMutability": "nonpayable",
			"type": "function"
		},
		{
			"inputs": [
				{
					"internalType": "uint256",
					"name": "_collectionID",
					"type": "uint256"
				},
				{
					"internalType": "uint256[]",
					"name": "_tokenIDs",
					"type": "uint256[]"
				}
			],
			"name": "batchUnstake",
			"outputs": [],
			"stateMutability": "nonpayable",
			"type": "function"
		},
		{
			"inputs": [
				{
					"internalType": "address",
					"name": "_userAddress",
					"type": "address"
				},
				{
					"internalType": "uint256",
					"name": "_collectionID",
					"type": "uint256"
				},
				{
					"internalType": "uint256",
					"name": "_tokenID",
					"type": "uint256"
				}
			],
			"name": "claimableReward",
			"outputs": [
				{
					"internalType": "uint256",
					"name": "",
					"type": "uint256"
				}
			],
			"stateMutability": "view",
			"type": "function"
		},
		{
			"inputs": [
				{
					"internalType": "uint256",
					"name": "",
					"type": "uint256"
				}
			],
			"name": "collectionInfo",
			"outputs": [
				{
					"internalType": "address",
					"name": "collectionAddress",
					"type": "address"
				},
				{
					"internalType": "uint256",
					"name": "rewardPerDay",
					"type": "uint256"
				},
				{
					"internalType": "uint256",
					"name": "totalAmountStaked",
					"type": "uint256"
				}
			],
			"stateMutability": "view",
			"type": "function"
		},
		{
			"inputs": [
				{
					"internalType": "bytes32",
					"name": "role",
					"type": "bytes32"
				}
			],
			"name": "getRoleAdmin",
			"outputs": [
				{
					"internalType": "bytes32",
					"name": "",
					"type": "bytes32"
				}
			],
			"stateMutability": "view",
			"type": "function"
		},
		{
			"inputs": [
				{
					"internalType": "uint256",
					"name": "_collectionID",
					"type": "uint256"
				}
			],
			"name": "getTotalStakedItemsCount",
			"outputs": [
				{
					"internalType": "uint256",
					"name": "",
					"type": "uint256"
				}
			],
			"stateMutability": "view",
			"type": "function"
		},
		{
			"inputs": [
				{
					"internalType": "address",
					"name": "_userAddress",
					"type": "address"
				},
				{
					"internalType": "uint256",
					"name": "_collectionID",
					"type": "uint256"
				}
			],
			"name": "getUserStakedTokens",
			"outputs": [
				{
					"internalType": "uint256[]",
					"name": "",
					"type": "uint256[]"
				}
			],
			"stateMutability": "view",
			"type": "function"
		},
		{
			"inputs": [
				{
					"internalType": "bytes32",
					"name": "role",
					"type": "bytes32"
				},
				{
					"internalType": "address",
					"name": "account",
					"type": "address"
				}
			],
			"name": "grantRole",
			"outputs": [],
			"stateMutability": "nonpayable",
			"type": "function"
		},
		{
			"inputs": [
				{
					"internalType": "bytes32",
					"name": "role",
					"type": "bytes32"
				},
				{
					"internalType": "address",
					"name": "account",
					"type": "address"
				}
			],
			"name": "hasRole",
			"outputs": [
				{
					"internalType": "bool",
					"name": "",
					"type": "bool"
				}
			],
			"stateMutability": "view",
			"type": "function"
		},
		{
			"inputs": [
				{
					"internalType": "address",
					"name": "",
					"type": "address"
				},
				{
					"internalType": "address",
					"name": "",
					"type": "address"
				},
				{
					"internalType": "uint256",
					"name": "",
					"type": "uint256"
				}
			],
			"name": "onERC721Received",
			"outputs": [
				{
					"internalType": "bytes4",
					"name": "",
					"type": "bytes4"
				}
			],
			"stateMutability": "pure",
			"type": "function"
		},
		{
			"inputs": [
				{
					"internalType": "bytes32",
					"name": "role",
					"type": "bytes32"
				},
				{
					"internalType": "address",
					"name": "account",
					"type": "address"
				}
			],
			"name": "renounceRole",
			"outputs": [],
			"stateMutability": "nonpayable",
			"type": "function"
		},
		{
			"inputs": [
				{
					"internalType": "bytes32",
					"name": "role",
					"type": "bytes32"
				},
				{
					"internalType": "address",
					"name": "account",
					"type": "address"
				}
			],
			"name": "revokeRole",
			"outputs": [],
			"stateMutability": "nonpayable",
			"type": "function"
		},
		{
			"inputs": [
				{
					"internalType": "address",
					"name": "admin",
					"type": "address"
				}
			],
			"name": "setAdminRole",
			"outputs": [],
			"stateMutability": "nonpayable",
			"type": "function"
		},
		{
			"inputs": [
				{
					"internalType": "address",
					"name": "_collectionAddress",
					"type": "address"
				},
				{
					"internalType": "uint256",
					"name": "_rewardPerDay",
					"type": "uint256"
				}
			],
			"name": "setCollection",
			"outputs": [],
			"stateMutability": "nonpayable",
			"type": "function"
		},
		{
			"inputs": [
				{
					"internalType": "uint256",
					"name": "_collectionID",
					"type": "uint256"
				},
				{
					"internalType": "uint256",
					"name": "_tokenID",
					"type": "uint256"
				}
			],
			"name": "stake",
			"outputs": [],
			"stateMutability": "nonpayable",
			"type": "function"
		},
		{
			"inputs": [
				{
					"internalType": "bytes4",
					"name": "interfaceId",
					"type": "bytes4"
				}
			],
			"name": "supportsInterface",
			"outputs": [
				{
					"internalType": "bool",
					"name": "",
					"type": "bool"
				}
			],
			"stateMutability": "view",
			"type": "function"
		},
		{
			"inputs": [
				{
					"internalType": "address",
					"name": "_userAddress",
					"type": "address"
				},
				{
					"internalType": "uint256",
					"name": "_collectionID",
					"type": "uint256"
				}
			],
			"name": "totalClaimableReward",
			"outputs": [
				{
					"internalType": "uint256",
					"name": "",
					"type": "uint256"
				}
			],
			"stateMutability": "view",
			"type": "function"
		},
		{
			"inputs": [
				{
					"internalType": "uint256",
					"name": "_collectionID",
					"type": "uint256"
				},
				{
					"internalType": "uint256",
					"name": "_tokenID",
					"type": "uint256"
				}
			],
			"name": "unstake",
			"outputs": [],
			"stateMutability": "nonpayable",
			"type": "function"
		},
		{
			"inputs": [
				{
					"internalType": "uint256",
					"name": "_collectionID",
					"type": "uint256"
				},
				{
					"internalType": "address",
					"name": "_collectionAddress",
					"type": "address"
				},
				{
					"internalType": "uint256",
					"name": "_rewardPerDay",
					"type": "uint256"
				}
			],
			"name": "updateCollection",
			"outputs": [],
			"stateMutability": "nonpayable",
			"type": "function"
		}
	]
}