{
	"data": {
		"bytecode": {
			"linkReferences": {},
			"object": "60806040527fdf8b4c520ffe197c5343c6f5aec59570151ef9a492f2c624fd45ddde6135ec426002553480156200003557600080fd5b50604051620018a7380380620018a7833981016040819052620000589162000189565b6200006333620000a1565b600380546001600160a01b0319166001600160a01b0383161790556200008b600033620000f1565b6002546200009a9033620000f1565b50620001bb565b600080546001600160a01b038381166001600160a01b0319831681178455604051919092169283917f8be0079c531659141344cd1fd0a4f28419497f9722a3daafe3b4186f6b6457e09190a35050565b620000fd828262000101565b5050565b60008281526001602090815260408083206001600160a01b038516845290915290205460ff16620000fd5760008281526001602081815260408084206001600160a01b0386168086529252808420805460ff19169093179092559051339285917f2f8788117e7eff1d82e926ec794901d17c78024a50270940304540a733656f0d9190a45050565b6000602082840312156200019c57600080fd5b81516001600160a01b0381168114620001b457600080fd5b9392505050565b6116dc80620001cb6000396000f3fe608060405234801561001057600080fd5b50600436106101725760003560e01c8063715018a6116100de57806391d1485411610097578063d547741f11610071578063d547741f1461033e578063eeafbddc14610351578063f2fde38b14610387578063f93b03bc1461039a57600080fd5b806391d14854146103105780639e2c8a5b14610323578063a217fddf1461033657600080fd5b8063715018a6146102ab57806375b238fc146102b35780637b0472f0146102bc5780637b71e5db146102cf578063842dd90a146102e25780638da5cb5b146102f557600080fd5b80632f2ff15d116101305780632f2ff15d14610244578063302f7fea1461025757806336568abe1461026a5780633b552dbd1461027d5780634adc7cfd1461029057806366675aa9146102a357600080fd5b80628afd4e1461017757806301ffc9a71461018c5780630fb4d2e5146101b45780631bbda52b146101ec578063248a9ca3146101ff5780632edb531c14610231575b600080fd5b61018a610185366004611258565b6103ba565b005b61019f61019a366004611322565b6103fe565b60405190151581526020015b60405180910390f35b6101c76101c236600461134c565b610435565b604080516001600160a01b0390941684526020840192909252908201526060016101ab565b61018a6101fa366004611258565b610472565b61022361020d36600461134c565b6000908152600160208190526040909120015490565b6040519081526020016101ab565b61018a61023f366004611381565b6104b1565b61018a6102523660046113ab565b61057e565b6102236102653660046113d7565b6105a4565b61018a6102783660046113ab565b610662565b61022361028b366004611381565b6106e5565b61018a61029e36600461140a565b6107c5565b61018a6107dc565b61018a61084f565b61022360025481565b61018a6102ca366004611425565b6108b5565b61018a6102dd366004611447565b6108bf565b6102236102f036600461134c565b610919565b6000546040516001600160a01b0390911681526020016101ab565b61019f61031e3660046113ab565b61094a565b61018a610331366004611425565b610975565b610223600081565b61018a61034c3660046113ab565b61097f565b61036e61035f36600461147c565b630a85bd0160e11b9392505050565b6040516001600160e01b031990911681526020016101ab565b61018a61039536600461140a565b6109a5565b6103ad6103a8366004611381565b610a70565b6040516101ab91906114a8565b60005b81518110156103f9576103e9838383815181106103dc576103dc6114ec565b6020026020010151610b0f565b6103f281611518565b90506103bd565b505050565b60006001600160e01b03198216637965db0b60e01b148061042f57506301ffc9a760e01b6001600160e01b03198316145b92915050565b6007818154811061044557600080fd5b60009182526020909120600390910201805460018201546002909201546001600160a01b03909116925083565b60005b81518110156103f9576104a183838381518110610494576104946114ec565b6020026020010151610cd0565b6104aa81611518565b9050610475565b6002546104bd81610dc5565b50604080516060810182526001600160a01b03938416815260208101928352600091810182815260078054600181018255935290517fa66cc928b5edb82af9bd49922954155ab7b0942694bea4ce44661d9a8736c688600390930292830180546001600160a01b031916919095161790935590517fa66cc928b5edb82af9bd49922954155ab7b0942694bea4ce44661d9a8736c68982015590517fa66cc928b5edb82af9bd49922954155ab7b0942694bea4ce44661d9a8736c68a90910155565b6000828152600160208190526040909120015461059a81610dc5565b6103f98383610dcf565b600080600784815481106105ba576105ba6114ec565b60009182526020808320600390920290910180546001600160a01b03908116845260058352604080852088865290935291909220549192509081169086161461060757600091505061065b565b80546001600160a01b0316600090815260066020908152604080832086845290915281205460018301549091906106559061064f620151806106498642611531565b90610e3a565b90610e46565b93505050505b9392505050565b6001600160a01b03811633146106d75760405162461bcd60e51b815260206004820152602f60248201527f416363657373436f6e74726f6c3a2063616e206f6e6c792072656e6f756e636560448201526e103937b632b9903337b91039b2b63360891b60648201526084015b60405180910390fd5b6106e18282610e52565b5050565b60008060009050600060078481548110610701576107016114ec565b600091825260208220600390910201546001600160a01b031691505b6001600160a01b038083166000908152600460209081526040808320938a16835292905220548110156107bb576001600160a01b038083166000908152600460209081526040808320938a168352929052908120805483908110610783576107836114ec565b9060005260206000200154905061079b8787836105a4565b6107a59085611548565b93505080806107b390611518565b91505061071d565b5090949350505050565b60006107d081610dc5565b6106e160025483610eb9565b6002546107e881610dc5565b6003546040516340c10f1960e01b8152336004820152600160248201526001600160a01b03909116906340c10f1990604401600060405180830381600087803b15801561083457600080fd5b505af1158015610848573d6000803e3d6000fd5b5050505050565b6000546001600160a01b031633146108a95760405162461bcd60e51b815260206004820181905260248201527f4f776e61626c653a2063616c6c6572206973206e6f7420746865206f776e657260448201526064016106ce565b6108b36000610ec3565b565b6106e18282610cd0565b6002546108cb81610dc5565b6000600785815481106108e0576108e06114ec565b6000918252602090912060039091020180546001600160a01b0319166001600160a01b0395909516949094178455505060019091015550565b6000806007838154811061092f5761092f6114ec565b60009182526020909120600260039092020101549392505050565b60009182526001602090815260408084206001600160a01b0393909316845291905290205460ff1690565b6106e18282610b0f565b6000828152600160208190526040909120015461099b81610dc5565b6103f98383610e52565b6000546001600160a01b031633146109ff5760405162461bcd60e51b815260206004820181905260248201527f4f776e61626c653a2063616c6c6572206973206e6f7420746865206f776e657260448201526064016106ce565b6001600160a01b038116610a645760405162461bcd60e51b815260206004820152602660248201527f4f776e61626c653a206e6577206f776e657220697320746865207a65726f206160448201526564647265737360d01b60648201526084016106ce565b610a6d81610ec3565b50565b6060600060078381548110610a8757610a876114ec565b60009182526020808320600390920290910180546001600160a01b039081168452600483526040808520918916855290835292839020805484518185028101850190955280855291945091830182828015610b0157602002820191906000526020600020905b815481526020019060010190808311610aed575b505050505091505092915050565b600060078381548110610b2457610b246114ec565b60009182526020808320600390920290910180546001600160a01b0390811684526005835260408085208786529093529190922054919250163314610bc15760405162461bcd60e51b815260206004820152602d60248201527f746f6b656e206973206e6f74207374616b6564206f722073656e64657220646f60448201526c195cc81b9bdd081bdddb881a5d609a1b60648201526084016106ce565b610bcc338484610f13565b80546001600160a01b031660009081526004602090815260408083203384529091529020610bfa9083610f8b565b80546001600160a01b039081166000908152600560209081526040808320868452825280832080546001600160a01b03191690558454909316825260068152828220858352905290812081905560028201805460019290610c5c908490611531565b909155505080546040516323b872dd60e01b8152306004820152336024820152604481018490526001600160a01b03909116906323b872dd906064015b600060405180830381600087803b158015610cb357600080fd5b505af1158015610cc7573d6000803e3d6000fd5b50505050505050565b600060078381548110610ce557610ce56114ec565b60009182526020808320600390920290910180546001600160a01b039081168452600583526040808520878652845280852080546001600160a01b0319163390811790915583548316865260068552818620888752855281862042905583549092168552600484528085209185529083528320805460018181018355918552928420909201859055600281018054919450919290610d84908490611548565b909155505080546040516323b872dd60e01b8152336004820152306024820152604481018490526001600160a01b03909116906323b872dd90606401610c99565b610a6d8133611042565b610dd9828261094a565b6106e15760008281526001602081815260408084206001600160a01b0386168086529252808420805460ff19169093179092559051339285917f2f8788117e7eff1d82e926ec794901d17c78024a50270940304540a733656f0d9190a45050565b600061065b8284611560565b600061065b8284611582565b610e5c828261094a565b156106e15760008281526001602090815260408083206001600160a01b0385168085529252808320805460ff1916905551339285917ff6391f5c32d9c69d2a47ea670b442974b53935d1edc7fd64eb21e047a839171b9190a45050565b6106e18282610dcf565b600080546001600160a01b038381166001600160a01b0319831681178455604051919092169283917f8be0079c531659141344cd1fd0a4f28419497f9722a3daafe3b4186f6b6457e09190a35050565b6000610f208484846105a4565b6003546040516340c10f1960e01b8152336004820152602481018390529192506001600160a01b0316906340c10f1990604401600060405180830381600087803b158015610f6d57600080fd5b505af1158015610f81573d6000803e3d6000fd5b5050505050505050565b60005b82548110156103f95781838281548110610faa57610faa6114ec565b9060005260206000200154036110305782548390610fca90600190611531565b81548110610fda57610fda6114ec565b9060005260206000200154838281548110610ff757610ff76114ec565b906000526020600020018190555082805480611015576110156115a1565b60019003818190600052602060002001600090559055505050565b8061103a81611518565b915050610f8e565b61104c828261094a565b6106e157611064816001600160a01b031660146110a6565b61106f8360206110a6565b6040516020016110809291906115e7565b60408051601f198184030181529082905262461bcd60e51b82526106ce9160040161165c565b606060006110b5836002611582565b6110c0906002611548565b67ffffffffffffffff8111156110d8576110d8611242565b6040519080825280601f01601f191660200182016040528015611102576020820181803683370190505b509050600360fc1b8160008151811061111d5761111d6114ec565b60200101906001600160f81b031916908160001a905350600f60fb1b8160018151811061114c5761114c6114ec565b60200101906001600160f81b031916908160001a9053506000611170846002611582565b61117b906001611548565b90505b60018111156111f3576f181899199a1a9b1b9c1cb0b131b232b360811b85600f16601081106111af576111af6114ec565b1a60f81b8282815181106111c5576111c56114ec565b60200101906001600160f81b031916908160001a90535060049490941c936111ec8161168f565b905061117e565b50831561065b5760405162461bcd60e51b815260206004820181905260248201527f537472696e67733a20686578206c656e67746820696e73756666696369656e7460448201526064016106ce565b634e487b7160e01b600052604160045260246000fd5b6000806040838503121561126b57600080fd5b8235915060208084013567ffffffffffffffff8082111561128b57600080fd5b818601915086601f83011261129f57600080fd5b8135818111156112b1576112b1611242565b8060051b604051601f19603f830116810181811085821117156112d6576112d6611242565b6040529182528482019250838101850191898311156112f457600080fd5b938501935b82851015611312578435845293850193928501926112f9565b8096505050505050509250929050565b60006020828403121561133457600080fd5b81356001600160e01b03198116811461065b57600080fd5b60006020828403121561135e57600080fd5b5035919050565b80356001600160a01b038116811461137c57600080fd5b919050565b6000806040838503121561139457600080fd5b61139d83611365565b946020939093013593505050565b600080604083850312156113be57600080fd5b823591506113ce60208401611365565b90509250929050565b6000806000606084860312156113ec57600080fd5b6113f584611365565b95602085013595506040909401359392505050565b60006020828403121561141c57600080fd5b61065b82611365565b6000806040838503121561143857600080fd5b50508035926020909101359150565b60008060006060848603121561145c57600080fd5b8335925061146c60208501611365565b9150604084013590509250925092565b60008060006060848603121561149157600080fd5b61149a84611365565b925061146c60208501611365565b6020808252825182820181905260009190848201906040850190845b818110156114e0578351835292840192918401916001016114c4565b50909695505050505050565b634e487b7160e01b600052603260045260246000fd5b634e487b7160e01b600052601160045260246000fd5b60006001820161152a5761152a611502565b5060010190565b60008282101561154357611543611502565b500390565b6000821982111561155b5761155b611502565b500190565b60008261157d57634e487b7160e01b600052601260045260246000fd5b500490565b600081600019048311821515161561159c5761159c611502565b500290565b634e487b7160e01b600052603160045260246000fd5b60005b838110156115d25781810151838201526020016115ba565b838111156115e1576000848401525b50505050565b7f416363657373436f6e74726f6c3a206163636f756e742000000000000000000081526000835161161f8160178501602088016115b7565b7001034b99036b4b9b9b4b733903937b6329607d1b60179184019182015283516116508160288401602088016115b7565b01602801949350505050565b602081526000825180602084015261167b8160408501602087016115b7565b601f01601f19169190910160400192915050565b60008161169e5761169e611502565b50600019019056fea26469706673582212205cb3e017827c62e7f61a541f68e7321199521a388a5fd7a87af6e79a57038eb264736f6c634300080d0033",
			"opcodes": "PUSH1 0x80 PUSH1 0x40 MSTORE PUSH32 0xDF8B4C520FFE197C5343C6F5AEC59570151EF9A492F2C624FD45DDDE6135EC42 PUSH1 0x2 SSTORE CALLVALUE DUP1 ISZERO PUSH3 0x35 JUMPI PUSH1 0x0 DUP1 REVERT JUMPDEST POP PUSH1 0x40 MLOAD PUSH3 0x18A7 CODESIZE SUB DUP1 PUSH3 0x18A7 DUP4 CODECOPY DUP2 ADD PUSH1 0x40 DUP2 SWAP1 MSTORE PUSH3 0x58 SWAP2 PUSH3 0x189 JUMP JUMPDEST PUSH3 0x63 CALLER PUSH3 0xA1 JUMP JUMPDEST PUSH1 0x3 DUP1 SLOAD PUSH1 0x1 PUSH1 0x1 PUSH1 0xA0 SHL SUB NOT AND PUSH1 0x1 PUSH1 0x1 PUSH1 0xA0 SHL SUB DUP4 AND OR SWAP1 SSTORE PUSH3 0x8B PUSH1 0x0 CALLER PUSH3 0xF1 JUMP JUMPDEST PUSH1 0x2 SLOAD PUSH3 0x9A SWAP1 CALLER PUSH3 0xF1 JUMP JUMPDEST POP PUSH3 0x1BB JUMP JUMPDEST PUSH1 0x0 DUP1 SLOAD PUSH1 0x1 PUSH1 0x1 PUSH1 0xA0 SHL SUB DUP4 DUP2 AND PUSH1 0x1 PUSH1 0x1 PUSH1 0xA0 SHL SUB NOT DUP4 AND DUP2 OR DUP5 SSTORE PUSH1 0x40 MLOAD SWAP2 SWAP1 SWAP3 AND SWAP3 DUP4 SWAP2 PUSH32 0x8BE0079C531659141344CD1FD0A4F28419497F9722A3DAAFE3B4186F6B6457E0 SWAP2 SWAP1 LOG3 POP POP JUMP JUMPDEST PUSH3 0xFD DUP3 DUP3 PUSH3 0x101 JUMP JUMPDEST POP POP JUMP JUMPDEST PUSH1 0x0 DUP3 DUP2 MSTORE PUSH1 0x1 PUSH1 0x20 SWAP1 DUP2 MSTORE PUSH1 0x40 DUP1 DUP4 KECCAK256 PUSH1 0x1 PUSH1 0x1 PUSH1 0xA0 SHL SUB DUP6 AND DUP5 MSTORE SWAP1 SWAP2 MSTORE SWAP1 KECCAK256 SLOAD PUSH1 0xFF AND PUSH3 0xFD JUMPI PUSH1 0x0 DUP3 DUP2 MSTORE PUSH1 0x1 PUSH1 0x20 DUP2 DUP2 MSTORE PUSH1 0x40 DUP1 DUP5 KECCAK256 PUSH1 0x1 PUSH1 0x1 PUSH1 0xA0 SHL SUB DUP7 AND DUP1 DUP7 MSTORE SWAP3 MSTORE DUP1 DUP5 KECCAK256 DUP1 SLOAD PUSH1 0xFF NOT AND SWAP1 SWAP4 OR SWAP1 SWAP3 SSTORE SWAP1 MLOAD CALLER SWAP3 DUP6 SWAP2 PUSH32 0x2F8788117E7EFF1D82E926EC794901D17C78024A50270940304540A733656F0D SWAP2 SWAP1 LOG4 POP POP JUMP JUMPDEST PUSH1 0x0 PUSH1 0x20 DUP3 DUP5 SUB SLT ISZERO PUSH3 0x19C JUMPI PUSH1 0x0 DUP1 REVERT JUMPDEST DUP2 MLOAD PUSH1 0x1 PUSH1 0x1 PUSH1 0xA0 SHL SUB DUP2 AND DUP2 EQ PUSH3 0x1B4 JUMPI PUSH1 0x0 DUP1 REVERT JUMPDEST SWAP4 SWAP3 POP POP POP JUMP JUMPDEST PUSH2 0x16DC DUP1 PUSH3 0x1CB PUSH1 0x0 CODECOPY PUSH1 0x0 RETURN INVALID PUSH1 0x80 PUSH1 0x40 MSTORE CALLVALUE DUP1 ISZERO PUSH2 0x10 JUMPI PUSH1 0x0 DUP1 REVERT JUMPDEST POP PUSH1 0x4 CALLDATASIZE LT PUSH2 0x172 JUMPI PUSH1 0x0 CALLDATALOAD PUSH1 0xE0 SHR DUP1 PUSH4 0x715018A6 GT PUSH2 0xDE JUMPI DUP1 PUSH4 0x91D14854 GT PUSH2 0x97 JUMPI DUP1 PUSH4 0xD547741F GT PUSH2 0x71 JUMPI DUP1 PUSH4 0xD547741F EQ PUSH2 0x33E JUMPI DUP1 PUSH4 0xEEAFBDDC EQ PUSH2 0x351 JUMPI DUP1 PUSH4 0xF2FDE38B EQ PUSH2 0x387 JUMPI DUP1 PUSH4 0xF93B03BC EQ PUSH2 0x39A JUMPI PUSH1 0x0 DUP1 REVERT JUMPDEST DUP1 PUSH4 0x91D14854 EQ PUSH2 0x310 JUMPI DUP1 PUSH4 0x9E2C8A5B EQ PUSH2 0x323 JUMPI DUP1 PUSH4 0xA217FDDF EQ PUSH2 0x336 JUMPI PUSH1 0x0 DUP1 REVERT JUMPDEST DUP1 PUSH4 0x715018A6 EQ PUSH2 0x2AB JUMPI DUP1 PUSH4 0x75B238FC EQ PUSH2 0x2B3 JUMPI DUP1 PUSH4 0x7B0472F0 EQ PUSH2 0x2BC JUMPI DUP1 PUSH4 0x7B71E5DB EQ PUSH2 0x2CF JUMPI DUP1 PUSH4 0x842DD90A EQ PUSH2 0x2E2 JUMPI DUP1 PUSH4 0x8DA5CB5B EQ PUSH2 0x2F5 JUMPI PUSH1 0x0 DUP1 REVERT JUMPDEST DUP1 PUSH4 0x2F2FF15D GT PUSH2 0x130 JUMPI DUP1 PUSH4 0x2F2FF15D EQ PUSH2 0x244 JUMPI DUP1 PUSH4 0x302F7FEA EQ PUSH2 0x257 JUMPI DUP1 PUSH4 0x36568ABE EQ PUSH2 0x26A JUMPI DUP1 PUSH4 0x3B552DBD EQ PUSH2 0x27D JUMPI DUP1 PUSH4 0x4ADC7CFD EQ PUSH2 0x290 JUMPI DUP1 PUSH4 0x66675AA9 EQ PUSH2 0x2A3 JUMPI PUSH1 0x0 DUP1 REVERT JUMPDEST DUP1 PUSH3 0x8AFD4E EQ PUSH2 0x177 JUMPI DUP1 PUSH4 0x1FFC9A7 EQ PUSH2 0x18C JUMPI DUP1 PUSH4 0xFB4D2E5 EQ PUSH2 0x1B4 JUMPI DUP1 PUSH4 0x1BBDA52B EQ PUSH2 0x1EC JUMPI DUP1 PUSH4 0x248A9CA3 EQ PUSH2 0x1FF JUMPI DUP1 PUSH4 0x2EDB531C EQ PUSH2 0x231 JUMPI JUMPDEST PUSH1 0x0 DUP1 REVERT JUMPDEST PUSH2 0x18A PUSH2 0x185 CALLDATASIZE PUSH1 0x4 PUSH2 0x1258 JUMP JUMPDEST PUSH2 0x3BA JUMP JUMPDEST STOP JUMPDEST PUSH2 0x19F PUSH2 0x19A CALLDATASIZE PUSH1 0x4 PUSH2 0x1322 JUMP JUMPDEST PUSH2 0x3FE JUMP JUMPDEST PUSH1 0x40 MLOAD SWAP1 ISZERO ISZERO DUP2 MSTORE PUSH1 0x20 ADD JUMPDEST PUSH1 0x40 MLOAD DUP1 SWAP2 SUB SWAP1 RETURN JUMPDEST PUSH2 0x1C7 PUSH2 0x1C2 CALLDATASIZE PUSH1 0x4 PUSH2 0x134C JUMP JUMPDEST PUSH2 0x435 JUMP JUMPDEST PUSH1 0x40 DUP1 MLOAD PUSH1 0x1 PUSH1 0x1 PUSH1 0xA0 SHL SUB SWAP1 SWAP5 AND DUP5 MSTORE PUSH1 0x20 DUP5 ADD SWAP3 SWAP1 SWAP3 MSTORE SWAP1 DUP3 ADD MSTORE PUSH1 0x60 ADD PUSH2 0x1AB JUMP JUMPDEST PUSH2 0x18A PUSH2 0x1FA CALLDATASIZE PUSH1 0x4 PUSH2 0x1258 JUMP JUMPDEST PUSH2 0x472 JUMP JUMPDEST PUSH2 0x223 PUSH2 0x20D CALLDATASIZE PUSH1 0x4 PUSH2 0x134C JUMP JUMPDEST PUSH1 0x0 SWAP1 DUP2 MSTORE PUSH1 0x1 PUSH1 0x20 DUP2 SWAP1 MSTORE PUSH1 0x40 SWAP1 SWAP2 KECCAK256 ADD SLOAD SWAP1 JUMP JUMPDEST PUSH1 0x40 MLOAD SWAP1 DUP2 MSTORE PUSH1 0x20 ADD PUSH2 0x1AB JUMP JUMPDEST PUSH2 0x18A PUSH2 0x23F CALLDATASIZE PUSH1 0x4 PUSH2 0x1381 JUMP JUMPDEST PUSH2 0x4B1 JUMP JUMPDEST PUSH2 0x18A PUSH2 0x252 CALLDATASIZE PUSH1 0x4 PUSH2 0x13AB JUMP JUMPDEST PUSH2 0x57E JUMP JUMPDEST PUSH2 0x223 PUSH2 0x265 CALLDATASIZE PUSH1 0x4 PUSH2 0x13D7 JUMP JUMPDEST PUSH2 0x5A4 JUMP JUMPDEST PUSH2 0x18A PUSH2 0x278 CALLDATASIZE PUSH1 0x4 PUSH2 0x13AB JUMP JUMPDEST PUSH2 0x662 JUMP JUMPDEST PUSH2 0x223 PUSH2 0x28B CALLDATASIZE PUSH1 0x4 PUSH2 0x1381 JUMP JUMPDEST PUSH2 0x6E5 JUMP JUMPDEST PUSH2 0x18A PUSH2 0x29E CALLDATASIZE PUSH1 0x4 PUSH2 0x140A JUMP JUMPDEST PUSH2 0x7C5 JUMP JUMPDEST PUSH2 0x18A PUSH2 0x7DC JUMP JUMPDEST PUSH2 0x18A PUSH2 0x84F JUMP JUMPDEST PUSH2 0x223 PUSH1 0x2 SLOAD DUP2 JUMP JUMPDEST PUSH2 0x18A PUSH2 0x2CA CALLDATASIZE PUSH1 0x4 PUSH2 0x1425 JUMP JUMPDEST PUSH2 0x8B5 JUMP JUMPDEST PUSH2 0x18A PUSH2 0x2DD CALLDATASIZE PUSH1 0x4 PUSH2 0x1447 JUMP JUMPDEST PUSH2 0x8BF JUMP JUMPDEST PUSH2 0x223 PUSH2 0x2F0 CALLDATASIZE PUSH1 0x4 PUSH2 0x134C JUMP JUMPDEST PUSH2 0x919 JUMP JUMPDEST PUSH1 0x0 SLOAD PUSH1 0x40 MLOAD PUSH1 0x1 PUSH1 0x1 PUSH1 0xA0 SHL SUB SWAP1 SWAP2 AND DUP2 MSTORE PUSH1 0x20 ADD PUSH2 0x1AB JUMP JUMPDEST PUSH2 0x19F PUSH2 0x31E CALLDATASIZE PUSH1 0x4 PUSH2 0x13AB JUMP JUMPDEST PUSH2 0x94A JUMP JUMPDEST PUSH2 0x18A PUSH2 0x331 CALLDATASIZE PUSH1 0x4 PUSH2 0x1425 JUMP JUMPDEST PUSH2 0x975 JUMP JUMPDEST PUSH2 0x223 PUSH1 0x0 DUP2 JUMP JUMPDEST PUSH2 0x18A PUSH2 0x34C CALLDATASIZE PUSH1 0x4 PUSH2 0x13AB JUMP JUMPDEST PUSH2 0x97F JUMP JUMPDEST PUSH2 0x36E PUSH2 0x35F CALLDATASIZE PUSH1 0x4 PUSH2 0x147C JUMP JUMPDEST PUSH4 0xA85BD01 PUSH1 0xE1 SHL SWAP4 SWAP3 POP POP POP JUMP JUMPDEST PUSH1 0x40 MLOAD PUSH1 0x1 PUSH1 0x1 PUSH1 0xE0 SHL SUB NOT SWAP1 SWAP2 AND DUP2 MSTORE PUSH1 0x20 ADD PUSH2 0x1AB JUMP JUMPDEST PUSH2 0x18A PUSH2 0x395 CALLDATASIZE PUSH1 0x4 PUSH2 0x140A JUMP JUMPDEST PUSH2 0x9A5 JUMP JUMPDEST PUSH2 0x3AD PUSH2 0x3A8 CALLDATASIZE PUSH1 0x4 PUSH2 0x1381 JUMP JUMPDEST PUSH2 0xA70 JUMP JUMPDEST PUSH1 0x40 MLOAD PUSH2 0x1AB SWAP2 SWAP1 PUSH2 0x14A8 JUMP JUMPDEST PUSH1 0x0 JUMPDEST DUP2 MLOAD DUP2 LT ISZERO PUSH2 0x3F9 JUMPI PUSH2 0x3E9 DUP4 DUP4 DUP4 DUP2 MLOAD DUP2 LT PUSH2 0x3DC JUMPI PUSH2 0x3DC PUSH2 0x14EC JUMP JUMPDEST PUSH1 0x20 MUL PUSH1 0x20 ADD ADD MLOAD PUSH2 0xB0F JUMP JUMPDEST PUSH2 0x3F2 DUP2 PUSH2 0x1518 JUMP JUMPDEST SWAP1 POP PUSH2 0x3BD JUMP JUMPDEST POP POP POP JUMP JUMPDEST PUSH1 0x0 PUSH1 0x1 PUSH1 0x1 PUSH1 0xE0 SHL SUB NOT DUP3 AND PUSH4 0x7965DB0B PUSH1 0xE0 SHL EQ DUP1 PUSH2 0x42F JUMPI POP PUSH4 0x1FFC9A7 PUSH1 0xE0 SHL PUSH1 0x1 PUSH1 0x1 PUSH1 0xE0 SHL SUB NOT DUP4 AND EQ JUMPDEST SWAP3 SWAP2 POP POP JUMP JUMPDEST PUSH1 0x7 DUP2 DUP2 SLOAD DUP2 LT PUSH2 0x445 JUMPI PUSH1 0x0 DUP1 REVERT JUMPDEST PUSH1 0x0 SWAP2 DUP3 MSTORE PUSH1 0x20 SWAP1 SWAP2 KECCAK256 PUSH1 0x3 SWAP1 SWAP2 MUL ADD DUP1 SLOAD PUSH1 0x1 DUP3 ADD SLOAD PUSH1 0x2 SWAP1 SWAP3 ADD SLOAD PUSH1 0x1 PUSH1 0x1 PUSH1 0xA0 SHL SUB SWAP1 SWAP2 AND SWAP3 POP DUP4 JUMP JUMPDEST PUSH1 0x0 JUMPDEST DUP2 MLOAD DUP2 LT ISZERO PUSH2 0x3F9 JUMPI PUSH2 0x4A1 DUP4 DUP4 DUP4 DUP2 MLOAD DUP2 LT PUSH2 0x494 JUMPI PUSH2 0x494 PUSH2 0x14EC JUMP JUMPDEST PUSH1 0x20 MUL PUSH1 0x20 ADD ADD MLOAD PUSH2 0xCD0 JUMP JUMPDEST PUSH2 0x4AA DUP2 PUSH2 0x1518 JUMP JUMPDEST SWAP1 POP PUSH2 0x475 JUMP JUMPDEST PUSH1 0x2 SLOAD PUSH2 0x4BD DUP2 PUSH2 0xDC5 JUMP JUMPDEST POP PUSH1 0x40 DUP1 MLOAD PUSH1 0x60 DUP2 ADD DUP3 MSTORE PUSH1 0x1 PUSH1 0x1 PUSH1 0xA0 SHL SUB SWAP4 DUP5 AND DUP2 MSTORE PUSH1 0x20 DUP2 ADD SWAP3 DUP4 MSTORE PUSH1 0x0 SWAP2 DUP2 ADD DUP3 DUP2 MSTORE PUSH1 0x7 DUP1 SLOAD PUSH1 0x1 DUP2 ADD DUP3 SSTORE SWAP4 MSTORE SWAP1 MLOAD PUSH32 0xA66CC928B5EDB82AF9BD49922954155AB7B0942694BEA4CE44661D9A8736C688 PUSH1 0x3 SWAP1 SWAP4 MUL SWAP3 DUP4 ADD DUP1 SLOAD PUSH1 0x1 PUSH1 0x1 PUSH1 0xA0 SHL SUB NOT AND SWAP2 SWAP1 SWAP6 AND OR SWAP1 SWAP4 SSTORE SWAP1 MLOAD PUSH32 0xA66CC928B5EDB82AF9BD49922954155AB7B0942694BEA4CE44661D9A8736C689 DUP3 ADD SSTORE SWAP1 MLOAD PUSH32 0xA66CC928B5EDB82AF9BD49922954155AB7B0942694BEA4CE44661D9A8736C68A SWAP1 SWAP2 ADD SSTORE JUMP JUMPDEST PUSH1 0x0 DUP3 DUP2 MSTORE PUSH1 0x1 PUSH1 0x20 DUP2 SWAP1 MSTORE PUSH1 0x40 SWAP1 SWAP2 KECCAK256 ADD SLOAD PUSH2 0x59A DUP2 PUSH2 0xDC5 JUMP JUMPDEST PUSH2 0x3F9 DUP4 DUP4 PUSH2 0xDCF JUMP JUMPDEST PUSH1 0x0 DUP1 PUSH1 0x7 DUP5 DUP2 SLOAD DUP2 LT PUSH2 0x5BA JUMPI PUSH2 0x5BA PUSH2 0x14EC JUMP JUMPDEST PUSH1 0x0 SWAP2 DUP3 MSTORE PUSH1 0x20 DUP1 DUP4 KECCAK256 PUSH1 0x3 SWAP1 SWAP3 MUL SWAP1 SWAP2 ADD DUP1 SLOAD PUSH1 0x1 PUSH1 0x1 PUSH1 0xA0 SHL SUB SWAP1 DUP2 AND DUP5 MSTORE PUSH1 0x5 DUP4 MSTORE PUSH1 0x40 DUP1 DUP6 KECCAK256 DUP9 DUP7 MSTORE SWAP1 SWAP4 MSTORE SWAP2 SWAP1 SWAP3 KECCAK256 SLOAD SWAP2 SWAP3 POP SWAP1 DUP2 AND SWAP1 DUP7 AND EQ PUSH2 0x607 JUMPI PUSH1 0x0 SWAP2 POP POP PUSH2 0x65B JUMP JUMPDEST DUP1 SLOAD PUSH1 0x1 PUSH1 0x1 PUSH1 0xA0 SHL SUB AND PUSH1 0x0 SWAP1 DUP2 MSTORE PUSH1 0x6 PUSH1 0x20 SWAP1 DUP2 MSTORE PUSH1 0x40 DUP1 DUP4 KECCAK256 DUP7 DUP5 MSTORE SWAP1 SWAP2 MSTORE DUP2 KECCAK256 SLOAD PUSH1 0x1 DUP4 ADD SLOAD SWAP1 SWAP2 SWAP1 PUSH2 0x655 SWAP1 PUSH2 0x64F PUSH3 0x15180 PUSH2 0x649 DUP7 TIMESTAMP PUSH2 0x1531 JUMP JUMPDEST SWAP1 PUSH2 0xE3A JUMP JUMPDEST SWAP1 PUSH2 0xE46 JUMP JUMPDEST SWAP4 POP POP POP POP JUMPDEST SWAP4 SWAP3 POP POP POP JUMP JUMPDEST PUSH1 0x1 PUSH1 0x1 PUSH1 0xA0 SHL SUB DUP2 AND CALLER EQ PUSH2 0x6D7 JUMPI PUSH1 0x40 MLOAD PUSH3 0x461BCD PUSH1 0xE5 SHL DUP2 MSTORE PUSH1 0x20 PUSH1 0x4 DUP3 ADD MSTORE PUSH1 0x2F PUSH1 0x24 DUP3 ADD MSTORE PUSH32 0x416363657373436F6E74726F6C3A2063616E206F6E6C792072656E6F756E6365 PUSH1 0x44 DUP3 ADD MSTORE PUSH15 0x103937B632B9903337B91039B2B633 PUSH1 0x89 SHL PUSH1 0x64 DUP3 ADD MSTORE PUSH1 0x84 ADD JUMPDEST PUSH1 0x40 MLOAD DUP1 SWAP2 SUB SWAP1 REVERT JUMPDEST PUSH2 0x6E1 DUP3 DUP3 PUSH2 0xE52 JUMP JUMPDEST POP POP JUMP JUMPDEST PUSH1 0x0 DUP1 PUSH1 0x0 SWAP1 POP PUSH1 0x0 PUSH1 0x7 DUP5 DUP2 SLOAD DUP2 LT PUSH2 0x701 JUMPI PUSH2 0x701 PUSH2 0x14EC JUMP JUMPDEST PUSH1 0x0 SWAP2 DUP3 MSTORE PUSH1 0x20 DUP3 KECCAK256 PUSH1 0x3 SWAP1 SWAP2 MUL ADD SLOAD PUSH1 0x1 PUSH1 0x1 PUSH1 0xA0 SHL SUB AND SWAP2 POP JUMPDEST PUSH1 0x1 PUSH1 0x1 PUSH1 0xA0 SHL SUB DUP1 DUP4 AND PUSH1 0x0 SWAP1 DUP2 MSTORE PUSH1 0x4 PUSH1 0x20 SWAP1 DUP2 MSTORE PUSH1 0x40 DUP1 DUP4 KECCAK256 SWAP4 DUP11 AND DUP4 MSTORE SWAP3 SWAP1 MSTORE KECCAK256 SLOAD DUP2 LT ISZERO PUSH2 0x7BB JUMPI PUSH1 0x1 PUSH1 0x1 PUSH1 0xA0 SHL SUB DUP1 DUP4 AND PUSH1 0x0 SWAP1 DUP2 MSTORE PUSH1 0x4 PUSH1 0x20 SWAP1 DUP2 MSTORE PUSH1 0x40 DUP1 DUP4 KECCAK256 SWAP4 DUP11 AND DUP4 MSTORE SWAP3 SWAP1 MSTORE SWAP1 DUP2 KECCAK256 DUP1 SLOAD DUP4 SWAP1 DUP2 LT PUSH2 0x783 JUMPI PUSH2 0x783 PUSH2 0x14EC JUMP JUMPDEST SWAP1 PUSH1 0x0 MSTORE PUSH1 0x20 PUSH1 0x0 KECCAK256 ADD SLOAD SWAP1 POP PUSH2 0x79B DUP8 DUP8 DUP4 PUSH2 0x5A4 JUMP JUMPDEST PUSH2 0x7A5 SWAP1 DUP6 PUSH2 0x1548 JUMP JUMPDEST SWAP4 POP POP DUP1 DUP1 PUSH2 0x7B3 SWAP1 PUSH2 0x1518 JUMP JUMPDEST SWAP2 POP POP PUSH2 0x71D JUMP JUMPDEST POP SWAP1 SWAP5 SWAP4 POP POP POP POP JUMP JUMPDEST PUSH1 0x0 PUSH2 0x7D0 DUP2 PUSH2 0xDC5 JUMP JUMPDEST PUSH2 0x6E1 PUSH1 0x2 SLOAD DUP4 PUSH2 0xEB9 JUMP JUMPDEST PUSH1 0x2 SLOAD PUSH2 0x7E8 DUP2 PUSH2 0xDC5 JUMP JUMPDEST PUSH1 0x3 SLOAD PUSH1 0x40 MLOAD PUSH4 0x40C10F19 PUSH1 0xE0 SHL DUP2 MSTORE CALLER PUSH1 0x4 DUP3 ADD MSTORE PUSH1 0x1 PUSH1 0x24 DUP3 ADD MSTORE PUSH1 0x1 PUSH1 0x1 PUSH1 0xA0 SHL SUB SWAP1 SWAP2 AND SWAP1 PUSH4 0x40C10F19 SWAP1 PUSH1 0x44 ADD PUSH1 0x0 PUSH1 0x40 MLOAD DUP1 DUP4 SUB DUP2 PUSH1 0x0 DUP8 DUP1 EXTCODESIZE ISZERO DUP1 ISZERO PUSH2 0x834 JUMPI PUSH1 0x0 DUP1 REVERT JUMPDEST POP GAS CALL ISZERO DUP1 ISZERO PUSH2 0x848 JUMPI RETURNDATASIZE PUSH1 0x0 DUP1 RETURNDATACOPY RETURNDATASIZE PUSH1 0x0 REVERT JUMPDEST POP POP POP POP POP JUMP JUMPDEST PUSH1 0x0 SLOAD PUSH1 0x1 PUSH1 0x1 PUSH1 0xA0 SHL SUB AND CALLER EQ PUSH2 0x8A9 JUMPI PUSH1 0x40 MLOAD PUSH3 0x461BCD PUSH1 0xE5 SHL DUP2 MSTORE PUSH1 0x20 PUSH1 0x4 DUP3 ADD DUP2 SWAP1 MSTORE PUSH1 0x24 DUP3 ADD MSTORE PUSH32 0x4F776E61626C653A2063616C6C6572206973206E6F7420746865206F776E6572 PUSH1 0x44 DUP3 ADD MSTORE PUSH1 0x64 ADD PUSH2 0x6CE JUMP JUMPDEST PUSH2 0x8B3 PUSH1 0x0 PUSH2 0xEC3 JUMP JUMPDEST JUMP JUMPDEST PUSH2 0x6E1 DUP3 DUP3 PUSH2 0xCD0 JUMP JUMPDEST PUSH1 0x2 SLOAD PUSH2 0x8CB DUP2 PUSH2 0xDC5 JUMP JUMPDEST PUSH1 0x0 PUSH1 0x7 DUP6 DUP2 SLOAD DUP2 LT PUSH2 0x8E0 JUMPI PUSH2 0x8E0 PUSH2 0x14EC JUMP JUMPDEST PUSH1 0x0 SWAP2 DUP3 MSTORE PUSH1 0x20 SWAP1 SWAP2 KECCAK256 PUSH1 0x3 SWAP1 SWAP2 MUL ADD DUP1 SLOAD PUSH1 0x1 PUSH1 0x1 PUSH1 0xA0 SHL SUB NOT AND PUSH1 0x1 PUSH1 0x1 PUSH1 0xA0 SHL SUB SWAP6 SWAP1 SWAP6 AND SWAP5 SWAP1 SWAP5 OR DUP5 SSTORE POP POP PUSH1 0x1 SWAP1 SWAP2 ADD SSTORE POP JUMP JUMPDEST PUSH1 0x0 DUP1 PUSH1 0x7 DUP4 DUP2 SLOAD DUP2 LT PUSH2 0x92F JUMPI PUSH2 0x92F PUSH2 0x14EC JUMP JUMPDEST PUSH1 0x0 SWAP2 DUP3 MSTORE PUSH1 0x20 SWAP1 SWAP2 KECCAK256 PUSH1 0x2 PUSH1 0x3 SWAP1 SWAP3 MUL ADD ADD SLOAD SWAP4 SWAP3 POP POP POP JUMP JUMPDEST PUSH1 0x0 SWAP2 DUP3 MSTORE PUSH1 0x1 PUSH1 0x20 SWAP1 DUP2 MSTORE PUSH1 0x40 DUP1 DUP5 KECCAK256 PUSH1 0x1 PUSH1 0x1 PUSH1 0xA0 SHL SUB SWAP4 SWAP1 SWAP4 AND DUP5 MSTORE SWAP2 SWAP1 MSTORE SWAP1 KECCAK256 SLOAD PUSH1 0xFF AND SWAP1 JUMP JUMPDEST PUSH2 0x6E1 DUP3 DUP3 PUSH2 0xB0F JUMP JUMPDEST PUSH1 0x0 DUP3 DUP2 MSTORE PUSH1 0x1 PUSH1 0x20 DUP2 SWAP1 MSTORE PUSH1 0x40 SWAP1 SWAP2 KECCAK256 ADD SLOAD PUSH2 0x99B DUP2 PUSH2 0xDC5 JUMP JUMPDEST PUSH2 0x3F9 DUP4 DUP4 PUSH2 0xE52 JUMP JUMPDEST PUSH1 0x0 SLOAD PUSH1 0x1 PUSH1 0x1 PUSH1 0xA0 SHL SUB AND CALLER EQ PUSH2 0x9FF JUMPI PUSH1 0x40 MLOAD PUSH3 0x461BCD PUSH1 0xE5 SHL DUP2 MSTORE PUSH1 0x20 PUSH1 0x4 DUP3 ADD DUP2 SWAP1 MSTORE PUSH1 0x24 DUP3 ADD MSTORE PUSH32 0x4F776E61626C653A2063616C6C6572206973206E6F7420746865206F776E6572 PUSH1 0x44 DUP3 ADD MSTORE PUSH1 0x64 ADD PUSH2 0x6CE JUMP JUMPDEST PUSH1 0x1 PUSH1 0x1 PUSH1 0xA0 SHL SUB DUP2 AND PUSH2 0xA64 JUMPI PUSH1 0x40 MLOAD PUSH3 0x461BCD PUSH1 0xE5 SHL DUP2 MSTORE PUSH1 0x20 PUSH1 0x4 DUP3 ADD MSTORE PUSH1 0x26 PUSH1 0x24 DUP3 ADD MSTORE PUSH32 0x4F776E61626C653A206E6577206F776E657220697320746865207A65726F2061 PUSH1 0x44 DUP3 ADD MSTORE PUSH6 0x646472657373 PUSH1 0xD0 SHL PUSH1 0x64 DUP3 ADD MSTORE PUSH1 0x84 ADD PUSH2 0x6CE JUMP JUMPDEST PUSH2 0xA6D DUP2 PUSH2 0xEC3 JUMP JUMPDEST POP JUMP JUMPDEST PUSH1 0x60 PUSH1 0x0 PUSH1 0x7 DUP4 DUP2 SLOAD DUP2 LT PUSH2 0xA87 JUMPI PUSH2 0xA87 PUSH2 0x14EC JUMP JUMPDEST PUSH1 0x0 SWAP2 DUP3 MSTORE PUSH1 0x20 DUP1 DUP4 KECCAK256 PUSH1 0x3 SWAP1 SWAP3 MUL SWAP1 SWAP2 ADD DUP1 SLOAD PUSH1 0x1 PUSH1 0x1 PUSH1 0xA0 SHL SUB SWAP1 DUP2 AND DUP5 MSTORE PUSH1 0x4 DUP4 MSTORE PUSH1 0x40 DUP1 DUP6 KECCAK256 SWAP2 DUP10 AND DUP6 MSTORE SWAP1 DUP4 MSTORE SWAP3 DUP4 SWAP1 KECCAK256 DUP1 SLOAD DUP5 MLOAD DUP2 DUP6 MUL DUP2 ADD DUP6 ADD SWAP1 SWAP6 MSTORE DUP1 DUP6 MSTORE SWAP2 SWAP5 POP SWAP2 DUP4 ADD DUP3 DUP3 DUP1 ISZERO PUSH2 0xB01 JUMPI PUSH1 0x20 MUL DUP3 ADD SWAP2 SWAP1 PUSH1 0x0 MSTORE PUSH1 0x20 PUSH1 0x0 KECCAK256 SWAP1 JUMPDEST DUP2 SLOAD DUP2 MSTORE PUSH1 0x20 ADD SWAP1 PUSH1 0x1 ADD SWAP1 DUP1 DUP4 GT PUSH2 0xAED JUMPI JUMPDEST POP POP POP POP POP SWAP2 POP POP SWAP3 SWAP2 POP POP JUMP JUMPDEST PUSH1 0x0 PUSH1 0x7 DUP4 DUP2 SLOAD DUP2 LT PUSH2 0xB24 JUMPI PUSH2 0xB24 PUSH2 0x14EC JUMP JUMPDEST PUSH1 0x0 SWAP2 DUP3 MSTORE PUSH1 0x20 DUP1 DUP4 KECCAK256 PUSH1 0x3 SWAP1 SWAP3 MUL SWAP1 SWAP2 ADD DUP1 SLOAD PUSH1 0x1 PUSH1 0x1 PUSH1 0xA0 SHL SUB SWAP1 DUP2 AND DUP5 MSTORE PUSH1 0x5 DUP4 MSTORE PUSH1 0x40 DUP1 DUP6 KECCAK256 DUP8 DUP7 MSTORE SWAP1 SWAP4 MSTORE SWAP2 SWAP1 SWAP3 KECCAK256 SLOAD SWAP2 SWAP3 POP AND CALLER EQ PUSH2 0xBC1 JUMPI PUSH1 0x40 MLOAD PUSH3 0x461BCD PUSH1 0xE5 SHL DUP2 MSTORE PUSH1 0x20 PUSH1 0x4 DUP3 ADD MSTORE PUSH1 0x2D PUSH1 0x24 DUP3 ADD MSTORE PUSH32 0x746F6B656E206973206E6F74207374616B6564206F722073656E64657220646F PUSH1 0x44 DUP3 ADD MSTORE PUSH13 0x195CC81B9BDD081BDDDB881A5D PUSH1 0x9A SHL PUSH1 0x64 DUP3 ADD MSTORE PUSH1 0x84 ADD PUSH2 0x6CE JUMP JUMPDEST PUSH2 0xBCC CALLER DUP5 DUP5 PUSH2 0xF13 JUMP JUMPDEST DUP1 SLOAD PUSH1 0x1 PUSH1 0x1 PUSH1 0xA0 SHL SUB AND PUSH1 0x0 SWAP1 DUP2 MSTORE PUSH1 0x4 PUSH1 0x20 SWAP1 DUP2 MSTORE PUSH1 0x40 DUP1 DUP4 KECCAK256 CALLER DUP5 MSTORE SWAP1 SWAP2 MSTORE SWAP1 KECCAK256 PUSH2 0xBFA SWAP1 DUP4 PUSH2 0xF8B JUMP JUMPDEST DUP1 SLOAD PUSH1 0x1 PUSH1 0x1 PUSH1 0xA0 SHL SUB SWAP1 DUP2 AND PUSH1 0x0 SWAP1 DUP2 MSTORE PUSH1 0x5 PUSH1 0x20 SWAP1 DUP2 MSTORE PUSH1 0x40 DUP1 DUP4 KECCAK256 DUP7 DUP5 MSTORE DUP3 MSTORE DUP1 DUP4 KECCAK256 DUP1 SLOAD PUSH1 0x1 PUSH1 0x1 PUSH1 0xA0 SHL SUB NOT AND SWAP1 SSTORE DUP5 SLOAD SWAP1 SWAP4 AND DUP3 MSTORE PUSH1 0x6 DUP2 MSTORE DUP3 DUP3 KECCAK256 DUP6 DUP4 MSTORE SWAP1 MSTORE SWAP1 DUP2 KECCAK256 DUP2 SWAP1 SSTORE PUSH1 0x2 DUP3 ADD DUP1 SLOAD PUSH1 0x1 SWAP3 SWAP1 PUSH2 0xC5C SWAP1 DUP5 SWAP1 PUSH2 0x1531 JUMP JUMPDEST SWAP1 SWAP2 SSTORE POP POP DUP1 SLOAD PUSH1 0x40 MLOAD PUSH4 0x23B872DD PUSH1 0xE0 SHL DUP2 MSTORE ADDRESS PUSH1 0x4 DUP3 ADD MSTORE CALLER PUSH1 0x24 DUP3 ADD MSTORE PUSH1 0x44 DUP2 ADD DUP5 SWAP1 MSTORE PUSH1 0x1 PUSH1 0x1 PUSH1 0xA0 SHL SUB SWAP1 SWAP2 AND SWAP1 PUSH4 0x23B872DD SWAP1 PUSH1 0x64 ADD JUMPDEST PUSH1 0x0 PUSH1 0x40 MLOAD DUP1 DUP4 SUB DUP2 PUSH1 0x0 DUP8 DUP1 EXTCODESIZE ISZERO DUP1 ISZERO PUSH2 0xCB3 JUMPI PUSH1 0x0 DUP1 REVERT JUMPDEST POP GAS CALL ISZERO DUP1 ISZERO PUSH2 0xCC7 JUMPI RETURNDATASIZE PUSH1 0x0 DUP1 RETURNDATACOPY RETURNDATASIZE PUSH1 0x0 REVERT JUMPDEST POP POP POP POP POP POP POP JUMP JUMPDEST PUSH1 0x0 PUSH1 0x7 DUP4 DUP2 SLOAD DUP2 LT PUSH2 0xCE5 JUMPI PUSH2 0xCE5 PUSH2 0x14EC JUMP JUMPDEST PUSH1 0x0 SWAP2 DUP3 MSTORE PUSH1 0x20 DUP1 DUP4 KECCAK256 PUSH1 0x3 SWAP1 SWAP3 MUL SWAP1 SWAP2 ADD DUP1 SLOAD PUSH1 0x1 PUSH1 0x1 PUSH1 0xA0 SHL SUB SWAP1 DUP2 AND DUP5 MSTORE PUSH1 0x5 DUP4 MSTORE PUSH1 0x40 DUP1 DUP6 KECCAK256 DUP8 DUP7 MSTORE DUP5 MSTORE DUP1 DUP6 KECCAK256 DUP1 SLOAD PUSH1 0x1 PUSH1 0x1 PUSH1 0xA0 SHL SUB NOT AND CALLER SWAP1 DUP2 OR SWAP1 SWAP2 SSTORE DUP4 SLOAD DUP4 AND DUP7 MSTORE PUSH1 0x6 DUP6 MSTORE DUP2 DUP7 KECCAK256 DUP9 DUP8 MSTORE DUP6 MSTORE DUP2 DUP7 KECCAK256 TIMESTAMP SWAP1 SSTORE DUP4 SLOAD SWAP1 SWAP3 AND DUP6 MSTORE PUSH1 0x4 DUP5 MSTORE DUP1 DUP6 KECCAK256 SWAP2 DUP6 MSTORE SWAP1 DUP4 MSTORE DUP4 KECCAK256 DUP1 SLOAD PUSH1 0x1 DUP2 DUP2 ADD DUP4 SSTORE SWAP2 DUP6 MSTORE SWAP3 DUP5 KECCAK256 SWAP1 SWAP3 ADD DUP6 SWAP1 SSTORE PUSH1 0x2 DUP2 ADD DUP1 SLOAD SWAP2 SWAP5 POP SWAP2 SWAP3 SWAP1 PUSH2 0xD84 SWAP1 DUP5 SWAP1 PUSH2 0x1548 JUMP JUMPDEST SWAP1 SWAP2 SSTORE POP POP DUP1 SLOAD PUSH1 0x40 MLOAD PUSH4 0x23B872DD PUSH1 0xE0 SHL DUP2 MSTORE CALLER PUSH1 0x4 DUP3 ADD MSTORE ADDRESS PUSH1 0x24 DUP3 ADD MSTORE PUSH1 0x44 DUP2 ADD DUP5 SWAP1 MSTORE PUSH1 0x1 PUSH1 0x1 PUSH1 0xA0 SHL SUB SWAP1 SWAP2 AND SWAP1 PUSH4 0x23B872DD SWAP1 PUSH1 0x64 ADD PUSH2 0xC99 JUMP JUMPDEST PUSH2 0xA6D DUP2 CALLER PUSH2 0x1042 JUMP JUMPDEST PUSH2 0xDD9 DUP3 DUP3 PUSH2 0x94A JUMP JUMPDEST PUSH2 0x6E1 JUMPI PUSH1 0x0 DUP3 DUP2 MSTORE PUSH1 0x1 PUSH1 0x20 DUP2 DUP2 MSTORE PUSH1 0x40 DUP1 DUP5 KECCAK256 PUSH1 0x1 PUSH1 0x1 PUSH1 0xA0 SHL SUB DUP7 AND DUP1 DUP7 MSTORE SWAP3 MSTORE DUP1 DUP5 KECCAK256 DUP1 SLOAD PUSH1 0xFF NOT AND SWAP1 SWAP4 OR SWAP1 SWAP3 SSTORE SWAP1 MLOAD CALLER SWAP3 DUP6 SWAP2 PUSH32 0x2F8788117E7EFF1D82E926EC794901D17C78024A50270940304540A733656F0D SWAP2 SWAP1 LOG4 POP POP JUMP JUMPDEST PUSH1 0x0 PUSH2 0x65B DUP3 DUP5 PUSH2 0x1560 JUMP JUMPDEST PUSH1 0x0 PUSH2 0x65B DUP3 DUP5 PUSH2 0x1582 JUMP JUMPDEST PUSH2 0xE5C DUP3 DUP3 PUSH2 0x94A JUMP JUMPDEST ISZERO PUSH2 0x6E1 JUMPI PUSH1 0x0 DUP3 DUP2 MSTORE PUSH1 0x1 PUSH1 0x20 SWAP1 DUP2 MSTORE PUSH1 0x40 DUP1 DUP4 KECCAK256 PUSH1 0x1 PUSH1 0x1 PUSH1 0xA0 SHL SUB DUP6 AND DUP1 DUP6 MSTORE SWAP3 MSTORE DUP1 DUP4 KECCAK256 DUP1 SLOAD PUSH1 0xFF NOT AND SWAP1 SSTORE MLOAD CALLER SWAP3 DUP6 SWAP2 PUSH32 0xF6391F5C32D9C69D2A47EA670B442974B53935D1EDC7FD64EB21E047A839171B SWAP2 SWAP1 LOG4 POP POP JUMP JUMPDEST PUSH2 0x6E1 DUP3 DUP3 PUSH2 0xDCF JUMP JUMPDEST PUSH1 0x0 DUP1 SLOAD PUSH1 0x1 PUSH1 0x1 PUSH1 0xA0 SHL SUB DUP4 DUP2 AND PUSH1 0x1 PUSH1 0x1 PUSH1 0xA0 SHL SUB NOT DUP4 AND DUP2 OR DUP5 SSTORE PUSH1 0x40 MLOAD SWAP2 SWAP1 SWAP3 AND SWAP3 DUP4 SWAP2 PUSH32 0x8BE0079C531659141344CD1FD0A4F28419497F9722A3DAAFE3B4186F6B6457E0 SWAP2 SWAP1 LOG3 POP POP JUMP JUMPDEST PUSH1 0x0 PUSH2 0xF20 DUP5 DUP5 DUP5 PUSH2 0x5A4 JUMP JUMPDEST PUSH1 0x3 SLOAD PUSH1 0x40 MLOAD PUSH4 0x40C10F19 PUSH1 0xE0 SHL DUP2 MSTORE CALLER PUSH1 0x4 DUP3 ADD MSTORE PUSH1 0x24 DUP2 ADD DUP4 SWAP1 MSTORE SWAP2 SWAP3 POP PUSH1 0x1 PUSH1 0x1 PUSH1 0xA0 SHL SUB AND SWAP1 PUSH4 0x40C10F19 SWAP1 PUSH1 0x44 ADD PUSH1 0x0 PUSH1 0x40 MLOAD DUP1 DUP4 SUB DUP2 PUSH1 0x0 DUP8 DUP1 EXTCODESIZE ISZERO DUP1 ISZERO PUSH2 0xF6D JUMPI PUSH1 0x0 DUP1 REVERT JUMPDEST POP GAS CALL ISZERO DUP1 ISZERO PUSH2 0xF81 JUMPI RETURNDATASIZE PUSH1 0x0 DUP1 RETURNDATACOPY RETURNDATASIZE PUSH1 0x0 REVERT JUMPDEST POP POP POP POP POP POP POP POP JUMP JUMPDEST PUSH1 0x0 JUMPDEST DUP3 SLOAD DUP2 LT ISZERO PUSH2 0x3F9 JUMPI DUP2 DUP4 DUP3 DUP2 SLOAD DUP2 LT PUSH2 0xFAA JUMPI PUSH2 0xFAA PUSH2 0x14EC JUMP JUMPDEST SWAP1 PUSH1 0x0 MSTORE PUSH1 0x20 PUSH1 0x0 KECCAK256 ADD SLOAD SUB PUSH2 0x1030 JUMPI DUP3 SLOAD DUP4 SWAP1 PUSH2 0xFCA SWAP1 PUSH1 0x1 SWAP1 PUSH2 0x1531 JUMP JUMPDEST DUP2 SLOAD DUP2 LT PUSH2 0xFDA JUMPI PUSH2 0xFDA PUSH2 0x14EC JUMP JUMPDEST SWAP1 PUSH1 0x0 MSTORE PUSH1 0x20 PUSH1 0x0 KECCAK256 ADD SLOAD DUP4 DUP3 DUP2 SLOAD DUP2 LT PUSH2 0xFF7 JUMPI PUSH2 0xFF7 PUSH2 0x14EC JUMP JUMPDEST SWAP1 PUSH1 0x0 MSTORE PUSH1 0x20 PUSH1 0x0 KECCAK256 ADD DUP2 SWAP1 SSTORE POP DUP3 DUP1 SLOAD DUP1 PUSH2 0x1015 JUMPI PUSH2 0x1015 PUSH2 0x15A1 JUMP JUMPDEST PUSH1 0x1 SWAP1 SUB DUP2 DUP2 SWAP1 PUSH1 0x0 MSTORE PUSH1 0x20 PUSH1 0x0 KECCAK256 ADD PUSH1 0x0 SWAP1 SSTORE SWAP1 SSTORE POP POP POP JUMP JUMPDEST DUP1 PUSH2 0x103A DUP2 PUSH2 0x1518 JUMP JUMPDEST SWAP2 POP POP PUSH2 0xF8E JUMP JUMPDEST PUSH2 0x104C DUP3 DUP3 PUSH2 0x94A JUMP JUMPDEST PUSH2 0x6E1 JUMPI PUSH2 0x1064 DUP2 PUSH1 0x1 PUSH1 0x1 PUSH1 0xA0 SHL SUB AND PUSH1 0x14 PUSH2 0x10A6 JUMP JUMPDEST PUSH2 0x106F DUP4 PUSH1 0x20 PUSH2 0x10A6 JUMP JUMPDEST PUSH1 0x40 MLOAD PUSH1 0x20 ADD PUSH2 0x1080 SWAP3 SWAP2 SWAP1 PUSH2 0x15E7 JUMP JUMPDEST PUSH1 0x40 DUP1 MLOAD PUSH1 0x1F NOT DUP2 DUP5 SUB ADD DUP2 MSTORE SWAP1 DUP3 SWAP1 MSTORE PUSH3 0x461BCD PUSH1 0xE5 SHL DUP3 MSTORE PUSH2 0x6CE SWAP2 PUSH1 0x4 ADD PUSH2 0x165C JUMP JUMPDEST PUSH1 0x60 PUSH1 0x0 PUSH2 0x10B5 DUP4 PUSH1 0x2 PUSH2 0x1582 JUMP JUMPDEST PUSH2 0x10C0 SWAP1 PUSH1 0x2 PUSH2 0x1548 JUMP JUMPDEST PUSH8 0xFFFFFFFFFFFFFFFF DUP2 GT ISZERO PUSH2 0x10D8 JUMPI PUSH2 0x10D8 PUSH2 0x1242 JUMP JUMPDEST PUSH1 0x40 MLOAD SWAP1 DUP1 DUP3 MSTORE DUP1 PUSH1 0x1F ADD PUSH1 0x1F NOT AND PUSH1 0x20 ADD DUP3 ADD PUSH1 0x40 MSTORE DUP1 ISZERO PUSH2 0x1102 JUMPI PUSH1 0x20 DUP3 ADD DUP2 DUP1 CALLDATASIZE DUP4 CALLDATACOPY ADD SWAP1 POP JUMPDEST POP SWAP1 POP PUSH1 0x3 PUSH1 0xFC SHL DUP2 PUSH1 0x0 DUP2 MLOAD DUP2 LT PUSH2 0x111D JUMPI PUSH2 0x111D PUSH2 0x14EC JUMP JUMPDEST PUSH1 0x20 ADD ADD SWAP1 PUSH1 0x1 PUSH1 0x1 PUSH1 0xF8 SHL SUB NOT AND SWAP1 DUP2 PUSH1 0x0 BYTE SWAP1 MSTORE8 POP PUSH1 0xF PUSH1 0xFB SHL DUP2 PUSH1 0x1 DUP2 MLOAD DUP2 LT PUSH2 0x114C JUMPI PUSH2 0x114C PUSH2 0x14EC JUMP JUMPDEST PUSH1 0x20 ADD ADD SWAP1 PUSH1 0x1 PUSH1 0x1 PUSH1 0xF8 SHL SUB NOT AND SWAP1 DUP2 PUSH1 0x0 BYTE SWAP1 MSTORE8 POP PUSH1 0x0 PUSH2 0x1170 DUP5 PUSH1 0x2 PUSH2 0x1582 JUMP JUMPDEST PUSH2 0x117B SWAP1 PUSH1 0x1 PUSH2 0x1548 JUMP JUMPDEST SWAP1 POP JUMPDEST PUSH1 0x1 DUP2 GT ISZERO PUSH2 0x11F3 JUMPI PUSH16 0x181899199A1A9B1B9C1CB0B131B232B3 PUSH1 0x81 SHL DUP6 PUSH1 0xF AND PUSH1 0x10 DUP2 LT PUSH2 0x11AF JUMPI PUSH2 0x11AF PUSH2 0x14EC JUMP JUMPDEST BYTE PUSH1 0xF8 SHL DUP3 DUP3 DUP2 MLOAD DUP2 LT PUSH2 0x11C5 JUMPI PUSH2 0x11C5 PUSH2 0x14EC JUMP JUMPDEST PUSH1 0x20 ADD ADD SWAP1 PUSH1 0x1 PUSH1 0x1 PUSH1 0xF8 SHL SUB NOT AND SWAP1 DUP2 PUSH1 0x0 BYTE SWAP1 MSTORE8 POP PUSH1 0x4 SWAP5 SWAP1 SWAP5 SHR SWAP4 PUSH2 0x11EC DUP2 PUSH2 0x168F JUMP JUMPDEST SWAP1 POP PUSH2 0x117E JUMP JUMPDEST POP DUP4 ISZERO PUSH2 0x65B JUMPI PUSH1 0x40 MLOAD PUSH3 0x461BCD PUSH1 0xE5 SHL DUP2 MSTORE PUSH1 0x20 PUSH1 0x4 DUP3 ADD DUP2 SWAP1 MSTORE PUSH1 0x24 DUP3 ADD MSTORE PUSH32 0x537472696E67733A20686578206C656E67746820696E73756666696369656E74 PUSH1 0x44 DUP3 ADD MSTORE PUSH1 0x64 ADD PUSH2 0x6CE JUMP JUMPDEST PUSH4 0x4E487B71 PUSH1 0xE0 SHL PUSH1 0x0 MSTORE PUSH1 0x41 PUSH1 0x4 MSTORE PUSH1 0x24 PUSH1 0x0 REVERT JUMPDEST PUSH1 0x0 DUP1 PUSH1 0x40 DUP4 DUP6 SUB SLT ISZERO PUSH2 0x126B JUMPI PUSH1 0x0 DUP1 REVERT JUMPDEST DUP3 CALLDATALOAD SWAP2 POP PUSH1 0x20 DUP1 DUP5 ADD CALLDATALOAD PUSH8 0xFFFFFFFFFFFFFFFF DUP1 DUP3 GT ISZERO PUSH2 0x128B JUMPI PUSH1 0x0 DUP1 REVERT JUMPDEST DUP2 DUP7 ADD SWAP2 POP DUP7 PUSH1 0x1F DUP4 ADD SLT PUSH2 0x129F JUMPI PUSH1 0x0 DUP1 REVERT JUMPDEST DUP2 CALLDATALOAD DUP2 DUP2 GT ISZERO PUSH2 0x12B1 JUMPI PUSH2 0x12B1 PUSH2 0x1242 JUMP JUMPDEST DUP1 PUSH1 0x5 SHL PUSH1 0x40 MLOAD PUSH1 0x1F NOT PUSH1 0x3F DUP4 ADD AND DUP2 ADD DUP2 DUP2 LT DUP6 DUP3 GT OR ISZERO PUSH2 0x12D6 JUMPI PUSH2 0x12D6 PUSH2 0x1242 JUMP JUMPDEST PUSH1 0x40 MSTORE SWAP2 DUP3 MSTORE DUP5 DUP3 ADD SWAP3 POP DUP4 DUP2 ADD DUP6 ADD SWAP2 DUP10 DUP4 GT ISZERO PUSH2 0x12F4 JUMPI PUSH1 0x0 DUP1 REVERT JUMPDEST SWAP4 DUP6 ADD SWAP4 JUMPDEST DUP3 DUP6 LT ISZERO PUSH2 0x1312 JUMPI DUP5 CALLDATALOAD DUP5 MSTORE SWAP4 DUP6 ADD SWAP4 SWAP3 DUP6 ADD SWAP3 PUSH2 0x12F9 JUMP JUMPDEST DUP1 SWAP7 POP POP POP POP POP POP POP SWAP3 POP SWAP3 SWAP1 POP JUMP JUMPDEST PUSH1 0x0 PUSH1 0x20 DUP3 DUP5 SUB SLT ISZERO PUSH2 0x1334 JUMPI PUSH1 0x0 DUP1 REVERT JUMPDEST DUP2 CALLDATALOAD PUSH1 0x1 PUSH1 0x1 PUSH1 0xE0 SHL SUB NOT DUP2 AND DUP2 EQ PUSH2 0x65B JUMPI PUSH1 0x0 DUP1 REVERT JUMPDEST PUSH1 0x0 PUSH1 0x20 DUP3 DUP5 SUB SLT ISZERO PUSH2 0x135E JUMPI PUSH1 0x0 DUP1 REVERT JUMPDEST POP CALLDATALOAD SWAP2 SWAP1 POP JUMP JUMPDEST DUP1 CALLDATALOAD PUSH1 0x1 PUSH1 0x1 PUSH1 0xA0 SHL SUB DUP2 AND DUP2 EQ PUSH2 0x137C JUMPI PUSH1 0x0 DUP1 REVERT JUMPDEST SWAP2 SWAP1 POP JUMP JUMPDEST PUSH1 0x0 DUP1 PUSH1 0x40 DUP4 DUP6 SUB SLT ISZERO PUSH2 0x1394 JUMPI PUSH1 0x0 DUP1 REVERT JUMPDEST PUSH2 0x139D DUP4 PUSH2 0x1365 JUMP JUMPDEST SWAP5 PUSH1 0x20 SWAP4 SWAP1 SWAP4 ADD CALLDATALOAD SWAP4 POP POP POP JUMP JUMPDEST PUSH1 0x0 DUP1 PUSH1 0x40 DUP4 DUP6 SUB SLT ISZERO PUSH2 0x13BE JUMPI PUSH1 0x0 DUP1 REVERT JUMPDEST DUP3 CALLDATALOAD SWAP2 POP PUSH2 0x13CE PUSH1 0x20 DUP5 ADD PUSH2 0x1365 JUMP JUMPDEST SWAP1 POP SWAP3 POP SWAP3 SWAP1 POP JUMP JUMPDEST PUSH1 0x0 DUP1 PUSH1 0x0 PUSH1 0x60 DUP5 DUP7 SUB SLT ISZERO PUSH2 0x13EC JUMPI PUSH1 0x0 DUP1 REVERT JUMPDEST PUSH2 0x13F5 DUP5 PUSH2 0x1365 JUMP JUMPDEST SWAP6 PUSH1 0x20 DUP6 ADD CALLDATALOAD SWAP6 POP PUSH1 0x40 SWAP1 SWAP5 ADD CALLDATALOAD SWAP4 SWAP3 POP POP POP JUMP JUMPDEST PUSH1 0x0 PUSH1 0x20 DUP3 DUP5 SUB SLT ISZERO PUSH2 0x141C JUMPI PUSH1 0x0 DUP1 REVERT JUMPDEST PUSH2 0x65B DUP3 PUSH2 0x1365 JUMP JUMPDEST PUSH1 0x0 DUP1 PUSH1 0x40 DUP4 DUP6 SUB SLT ISZERO PUSH2 0x1438 JUMPI PUSH1 0x0 DUP1 REVERT JUMPDEST POP POP DUP1 CALLDATALOAD SWAP3 PUSH1 0x20 SWAP1 SWAP2 ADD CALLDATALOAD SWAP2 POP JUMP JUMPDEST PUSH1 0x0 DUP1 PUSH1 0x0 PUSH1 0x60 DUP5 DUP7 SUB SLT ISZERO PUSH2 0x145C JUMPI PUSH1 0x0 DUP1 REVERT JUMPDEST DUP4 CALLDATALOAD SWAP3 POP PUSH2 0x146C PUSH1 0x20 DUP6 ADD PUSH2 0x1365 JUMP JUMPDEST SWAP2 POP PUSH1 0x40 DUP5 ADD CALLDATALOAD SWAP1 POP SWAP3 POP SWAP3 POP SWAP3 JUMP JUMPDEST PUSH1 0x0 DUP1 PUSH1 0x0 PUSH1 0x60 DUP5 DUP7 SUB SLT ISZERO PUSH2 0x1491 JUMPI PUSH1 0x0 DUP1 REVERT JUMPDEST PUSH2 0x149A DUP5 PUSH2 0x1365 JUMP JUMPDEST SWAP3 POP PUSH2 0x146C PUSH1 0x20 DUP6 ADD PUSH2 0x1365 JUMP JUMPDEST PUSH1 0x20 DUP1 DUP3 MSTORE DUP3 MLOAD DUP3 DUP3 ADD DUP2 SWAP1 MSTORE PUSH1 0x0 SWAP2 SWAP1 DUP5 DUP3 ADD SWAP1 PUSH1 0x40 DUP6 ADD SWAP1 DUP5 JUMPDEST DUP2 DUP2 LT ISZERO PUSH2 0x14E0 JUMPI DUP4 MLOAD DUP4 MSTORE SWAP3 DUP5 ADD SWAP3 SWAP2 DUP5 ADD SWAP2 PUSH1 0x1 ADD PUSH2 0x14C4 JUMP JUMPDEST POP SWAP1 SWAP7 SWAP6 POP POP POP POP POP POP JUMP JUMPDEST PUSH4 0x4E487B71 PUSH1 0xE0 SHL PUSH1 0x0 MSTORE PUSH1 0x32 PUSH1 0x4 MSTORE PUSH1 0x24 PUSH1 0x0 REVERT JUMPDEST PUSH4 0x4E487B71 PUSH1 0xE0 SHL PUSH1 0x0 MSTORE PUSH1 0x11 PUSH1 0x4 MSTORE PUSH1 0x24 PUSH1 0x0 REVERT JUMPDEST PUSH1 0x0 PUSH1 0x1 DUP3 ADD PUSH2 0x152A JUMPI PUSH2 0x152A PUSH2 0x1502 JUMP JUMPDEST POP PUSH1 0x1 ADD SWAP1 JUMP JUMPDEST PUSH1 0x0 DUP3 DUP3 LT ISZERO PUSH2 0x1543 JUMPI PUSH2 0x1543 PUSH2 0x1502 JUMP JUMPDEST POP SUB SWAP1 JUMP JUMPDEST PUSH1 0x0 DUP3 NOT DUP3 GT ISZERO PUSH2 0x155B JUMPI PUSH2 0x155B PUSH2 0x1502 JUMP JUMPDEST POP ADD SWAP1 JUMP JUMPDEST PUSH1 0x0 DUP3 PUSH2 0x157D JUMPI PUSH4 0x4E487B71 PUSH1 0xE0 SHL PUSH1 0x0 MSTORE PUSH1 0x12 PUSH1 0x4 MSTORE PUSH1 0x24 PUSH1 0x0 REVERT JUMPDEST POP DIV SWAP1 JUMP JUMPDEST PUSH1 0x0 DUP2 PUSH1 0x0 NOT DIV DUP4 GT DUP3 ISZERO ISZERO AND ISZERO PUSH2 0x159C JUMPI PUSH2 0x159C PUSH2 0x1502 JUMP JUMPDEST POP MUL SWAP1 JUMP JUMPDEST PUSH4 0x4E487B71 PUSH1 0xE0 SHL PUSH1 0x0 MSTORE PUSH1 0x31 PUSH1 0x4 MSTORE PUSH1 0x24 PUSH1 0x0 REVERT JUMPDEST PUSH1 0x0 JUMPDEST DUP4 DUP2 LT ISZERO PUSH2 0x15D2 JUMPI DUP2 DUP2 ADD MLOAD DUP4 DUP3 ADD MSTORE PUSH1 0x20 ADD PUSH2 0x15BA JUMP JUMPDEST DUP4 DUP2 GT ISZERO PUSH2 0x15E1 JUMPI PUSH1 0x0 DUP5 DUP5 ADD MSTORE JUMPDEST POP POP POP POP JUMP JUMPDEST PUSH32 0x416363657373436F6E74726F6C3A206163636F756E7420000000000000000000 DUP2 MSTORE PUSH1 0x0 DUP4 MLOAD PUSH2 0x161F DUP2 PUSH1 0x17 DUP6 ADD PUSH1 0x20 DUP9 ADD PUSH2 0x15B7 JUMP JUMPDEST PUSH17 0x1034B99036B4B9B9B4B733903937B6329 PUSH1 0x7D SHL PUSH1 0x17 SWAP2 DUP5 ADD SWAP2 DUP3 ADD MSTORE DUP4 MLOAD PUSH2 0x1650 DUP2 PUSH1 0x28 DUP5 ADD PUSH1 0x20 DUP9 ADD PUSH2 0x15B7 JUMP JUMPDEST ADD PUSH1 0x28 ADD SWAP5 SWAP4 POP POP POP POP JUMP JUMPDEST PUSH1 0x20 DUP2 MSTORE PUSH1 0x0 DUP3 MLOAD DUP1 PUSH1 0x20 DUP5 ADD MSTORE PUSH2 0x167B DUP2 PUSH1 0x40 DUP6 ADD PUSH1 0x20 DUP8 ADD PUSH2 0x15B7 JUMP JUMPDEST PUSH1 0x1F ADD PUSH1 0x1F NOT AND SWAP2 SWAP1 SWAP2 ADD PUSH1 0x40 ADD SWAP3 SWAP2 POP POP JUMP JUMPDEST PUSH1 0x0 DUP2 PUSH2 0x169E JUMPI PUSH2 0x169E PUSH2 0x1502 JUMP JUMPDEST POP PUSH1 0x0 NOT ADD SWAP1 JUMP INVALID LOG2 PUSH5 0x6970667358 0x22 SLT KECCAK256 0x5C 0xB3 0xE0 OR DUP3 PUSH29 0x62E7F61A541F68E7321199521A388A5FD7A87AF6E79A57038EB264736F PUSH13 0x634300080D0033000000000000 "
		},
		"gasEstimates": {
			"creation": {
				"codeDepositCost": "1170400",
				"executionCost": "infinite",
				"totalCost": "infinite"
			},
			"external": {
				"ADMIN_ROLE()": "2340",
				"DEFAULT_ADMIN_ROLE()": "284",
				"batchStake(uint256,uint256[])": "infinite",
				"batchUnstake(uint256,uint256[])": "infinite",
				"claimableReward(address,uint256,uint256)": "infinite",
				"collectionInfo(uint256)": "8968",
				"getRoleAdmin(bytes32)": "2562",
				"getTotalStakedItemsCount(uint256)": "4716",
				"getUserStakedTokens(address,uint256)": "infinite",
				"grantRole(bytes32,address)": "infinite",
				"hasRole(bytes32,address)": "2699",
				"mintTest()": "infinite",
				"onERC721Received(address,address,uint256)": "infinite",
				"owner()": "2434",
				"renounceOwnership()": "28137",
				"renounceRole(bytes32,address)": "29068",
				"revokeRole(bytes32,address)": "infinite",
				"setAdminRole(address)": "infinite",
				"setCollection(address,uint256)": "infinite",
				"stake(uint256,uint256)": "infinite",
				"supportsInterface(bytes4)": "472",
				"totalClaimableReward(address,uint256)": "infinite",
				"transferOwnership(address)": "28397",
				"unstake(uint256,uint256)": "infinite",
				"updateCollection(uint256,address,uint256)": "infinite"
			},
			"internal": {
				"_claimReward(address,uint256,uint256)": "infinite",
				"_removeElement(uint256[] storage pointer,uint256)": "infinite",
				"_stake(uint256,uint256)": "infinite",
				"_unstake(uint256,uint256)": "infinite"
			}
		},
		"methodIdentifiers": {
			"ADMIN_ROLE()": "75b238fc",
			"DEFAULT_ADMIN_ROLE()": "a217fddf",
			"batchStake(uint256,uint256[])": "1bbda52b",
			"batchUnstake(uint256,uint256[])": "008afd4e",
			"claimableReward(address,uint256,uint256)": "302f7fea",
			"collectionInfo(uint256)": "0fb4d2e5",
			"getRoleAdmin(bytes32)": "248a9ca3",
			"getTotalStakedItemsCount(uint256)": "842dd90a",
			"getUserStakedTokens(address,uint256)": "f93b03bc",
			"grantRole(bytes32,address)": "2f2ff15d",
			"hasRole(bytes32,address)": "91d14854",
			"mintTest()": "66675aa9",
			"onERC721Received(address,address,uint256)": "eeafbddc",
			"owner()": "8da5cb5b",
			"renounceOwnership()": "715018a6",
			"renounceRole(bytes32,address)": "36568abe",
			"revokeRole(bytes32,address)": "d547741f",
			"setAdminRole(address)": "4adc7cfd",
			"setCollection(address,uint256)": "2edb531c",
			"stake(uint256,uint256)": "7b0472f0",
			"supportsInterface(bytes4)": "01ffc9a7",
			"totalClaimableReward(address,uint256)": "3b552dbd",
			"transferOwnership(address)": "f2fde38b",
			"unstake(uint256,uint256)": "9e2c8a5b",
			"updateCollection(uint256,address,uint256)": "7b71e5db"
		}
	},
	"abi": [
		{
			"inputs": [
				{
					"internalType": "address",
					"name": "_rewardsToken",
					"type": "address"
				}
			],
			"stateMutability": "nonpayable",
			"type": "constructor"
		},
		{
			"anonymous": false,
			"inputs": [
				{
					"indexed": true,
					"internalType": "address",
					"name": "previousOwner",
					"type": "address"
				},
				{
					"indexed": true,
					"internalType": "address",
					"name": "newOwner",
					"type": "address"
				}
			],
			"name": "OwnershipTransferred",
			"type": "event"
		},
		{
			"anonymous": false,
			"inputs": [
				{
					"indexed": true,
					"internalType": "bytes32",
					"name": "role",
					"type": "bytes32"
				},
				{
					"indexed": true,
					"internalType": "bytes32",
					"name": "previousAdminRole",
					"type": "bytes32"
				},
				{
					"indexed": true,
					"internalType": "bytes32",
					"name": "newAdminRole",
					"type": "bytes32"
				}
			],
			"name": "RoleAdminChanged",
			"type": "event"
		},
		{
			"anonymous": false,
			"inputs": [
				{
					"indexed": true,
					"internalType": "bytes32",
					"name": "role",
					"type": "bytes32"
				},
				{
					"indexed": true,
					"internalType": "address",
					"name": "account",
					"type": "address"
				},
				{
					"indexed": true,
					"internalType": "address",
					"name": "sender",
					"type": "address"
				}
			],
			"name": "RoleGranted",
			"type": "event"
		},
		{
			"anonymous": false,
			"inputs": [
				{
					"indexed": true,
					"internalType": "bytes32",
					"name": "role",
					"type": "bytes32"
				},
				{
					"indexed": true,
					"internalType": "address",
					"name": "account",
					"type": "address"
				},
				{
					"indexed": true,
					"internalType": "address",
					"name": "sender",
					"type": "address"
				}
			],
			"name": "RoleRevoked",
			"type": "event"
		},
		{
			"inputs": [],
			"name": "ADMIN_ROLE",
			"outputs": [
				{
					"internalType": "bytes32",
					"name": "",
					"type": "bytes32"
				}
			],
			"stateMutability": "view",
			"type": "function"
		},
		{
			"inputs": [],
			"name": "DEFAULT_ADMIN_ROLE",
			"outputs": [
				{
					"internalType": "bytes32",
					"name": "",
					"type": "bytes32"
				}
			],
			"stateMutability": "view",
			"type": "function"
		},
		{
			"inputs": [
				{
					"internalType": "uint256",
					"name": "_collectionID",
					"type": "uint256"
				},
				{
					"internalType": "uint256[]",
					"name": "_tokenIDs",
					"type": "uint256[]"
				}
			],
			"name": "batchStake",
			"outputs": [],
			"stateMutability": "nonpayable",
			"type": "function"
		},
		{
			"inputs": [
				{
					"internalType": "uint256",
					"name": "_collectionID",
					"type": "uint256"
				},
				{
					"internalType": "uint256[]",
					"name": "_tokenIDs",
					"type": "uint256[]"
				}
			],
			"name": "batchUnstake",
			"outputs": [],
			"stateMutability": "nonpayable",
			"type": "function"
		},
		{
			"inputs": [
				{
					"internalType": "address",
					"name": "_userAddress",
					"type": "address"
				},
				{
					"internalType": "uint256",
					"name": "_collectionID",
					"type": "uint256"
				},
				{
					"internalType": "uint256",
					"name": "_tokenID",
					"type": "uint256"
				}
			],
			"name": "claimableReward",
			"outputs": [
				{
					"internalType": "uint256",
					"name": "",
					"type": "uint256"
				}
			],
			"stateMutability": "view",
			"type": "function"
		},
		{
			"inputs": [
				{
					"internalType": "uint256",
					"name": "",
					"type": "uint256"
				}
			],
			"name": "collectionInfo",
			"outputs": [
				{
					"internalType": "address",
					"name": "collectionAddress",
					"type": "address"
				},
				{
					"internalType": "uint256",
					"name": "rewardPerDay",
					"type": "uint256"
				},
				{
					"internalType": "uint256",
					"name": "totalAmountStaked",
					"type": "uint256"
				}
			],
			"stateMutability": "view",
			"type": "function"
		},
		{
			"inputs": [
				{
					"internalType": "bytes32",
					"name": "role",
					"type": "bytes32"
				}
			],
			"name": "getRoleAdmin",
			"outputs": [
				{
					"internalType": "bytes32",
					"name": "",
					"type": "bytes32"
				}
			],
			"stateMutability": "view",
			"type": "function"
		},
		{
			"inputs": [
				{
					"internalType": "uint256",
					"name": "_collectionID",
					"type": "uint256"
				}
			],
			"name": "getTotalStakedItemsCount",
			"outputs": [
				{
					"internalType": "uint256",
					"name": "",
					"type": "uint256"
				}
			],
			"stateMutability": "view",
			"type": "function"
		},
		{
			"inputs": [
				{
					"internalType": "address",
					"name": "_userAddress",
					"type": "address"
				},
				{
					"internalType": "uint256",
					"name": "_collectionID",
					"type": "uint256"
				}
			],
			"name": "getUserStakedTokens",
			"outputs": [
				{
					"internalType": "uint256[]",
					"name": "",
					"type": "uint256[]"
				}
			],
			"stateMutability": "view",
			"type": "function"
		},
		{
			"inputs": [
				{
					"internalType": "bytes32",
					"name": "role",
					"type": "bytes32"
				},
				{
					"internalType": "address",
					"name": "account",
					"type": "address"
				}
			],
			"name": "grantRole",
			"outputs": [],
			"stateMutability": "nonpayable",
			"type": "function"
		},
		{
			"inputs": [
				{
					"internalType": "bytes32",
					"name": "role",
					"type": "bytes32"
				},
				{
					"internalType": "address",
					"name": "account",
					"type": "address"
				}
			],
			"name": "hasRole",
			"outputs": [
				{
					"internalType": "bool",
					"name": "",
					"type": "bool"
				}
			],
			"stateMutability": "view",
			"type": "function"
		},
		{
			"inputs": [],
			"name": "mintTest",
			"outputs": [],
			"stateMutability": "nonpayable",
			"type": "function"
		},
		{
			"inputs": [
				{
					"internalType": "address",
					"name": "",
					"type": "address"
				},
				{
					"internalType": "address",
					"name": "",
					"type": "address"
				},
				{
					"internalType": "uint256",
					"name": "",
					"type": "uint256"
				}
			],
			"name": "onERC721Received",
			"outputs": [
				{
					"internalType": "bytes4",
					"name": "",
					"type": "bytes4"
				}
			],
			"stateMutability": "pure",
			"type": "function"
		},
		{
			"inputs": [],
			"name": "owner",
			"outputs": [
				{
					"internalType": "address",
					"name": "",
					"type": "address"
				}
			],
			"stateMutability": "view",
			"type": "function"
		},
		{
			"inputs": [],
			"name": "renounceOwnership",
			"outputs": [],
			"stateMutability": "nonpayable",
			"type": "function"
		},
		{
			"inputs": [
				{
					"internalType": "bytes32",
					"name": "role",
					"type": "bytes32"
				},
				{
					"internalType": "address",
					"name": "account",
					"type": "address"
				}
			],
			"name": "renounceRole",
			"outputs": [],
			"stateMutability": "nonpayable",
			"type": "function"
		},
		{
			"inputs": [
				{
					"internalType": "bytes32",
					"name": "role",
					"type": "bytes32"
				},
				{
					"internalType": "address",
					"name": "account",
					"type": "address"
				}
			],
			"name": "revokeRole",
			"outputs": [],
			"stateMutability": "nonpayable",
			"type": "function"
		},
		{
			"inputs": [
				{
					"internalType": "address",
					"name": "admin",
					"type": "address"
				}
			],
			"name": "setAdminRole",
			"outputs": [],
			"stateMutability": "nonpayable",
			"type": "function"
		},
		{
			"inputs": [
				{
					"internalType": "address",
					"name": "_collectionAddress",
					"type": "address"
				},
				{
					"internalType": "uint256",
					"name": "_rewardPerDay",
					"type": "uint256"
				}
			],
			"name": "setCollection",
			"outputs": [],
			"stateMutability": "nonpayable",
			"type": "function"
		},
		{
			"inputs": [
				{
					"internalType": "uint256",
					"name": "_collectionID",
					"type": "uint256"
				},
				{
					"internalType": "uint256",
					"name": "_tokenID",
					"type": "uint256"
				}
			],
			"name": "stake",
			"outputs": [],
			"stateMutability": "nonpayable",
			"type": "function"
		},
		{
			"inputs": [
				{
					"internalType": "bytes4",
					"name": "interfaceId",
					"type": "bytes4"
				}
			],
			"name": "supportsInterface",
			"outputs": [
				{
					"internalType": "bool",
					"name": "",
					"type": "bool"
				}
			],
			"stateMutability": "view",
			"type": "function"
		},
		{
			"inputs": [
				{
					"internalType": "address",
					"name": "_userAddress",
					"type": "address"
				},
				{
					"internalType": "uint256",
					"name": "_collectionID",
					"type": "uint256"
				}
			],
			"name": "totalClaimableReward",
			"outputs": [
				{
					"internalType": "uint256",
					"name": "",
					"type": "uint256"
				}
			],
			"stateMutability": "view",
			"type": "function"
		},
		{
			"inputs": [
				{
					"internalType": "address",
					"name": "newOwner",
					"type": "address"
				}
			],
			"name": "transferOwnership",
			"outputs": [],
			"stateMutability": "nonpayable",
			"type": "function"
		},
		{
			"inputs": [
				{
					"internalType": "uint256",
					"name": "_collectionID",
					"type": "uint256"
				},
				{
					"internalType": "uint256",
					"name": "_tokenID",
					"type": "uint256"
				}
			],
			"name": "unstake",
			"outputs": [],
			"stateMutability": "nonpayable",
			"type": "function"
		},
		{
			"inputs": [
				{
					"internalType": "uint256",
					"name": "_collectionID",
					"type": "uint256"
				},
				{
					"internalType": "address",
					"name": "_collectionAddress",
					"type": "address"
				},
				{
					"internalType": "uint256",
					"name": "_rewardPerDay",
					"type": "uint256"
				}
			],
			"name": "updateCollection",
			"outputs": [],
			"stateMutability": "nonpayable",
			"type": "function"
		}
	]
}