{
  "_format": "hh-sol-artifact-1",
  "contractName": "CyberLionzMerger",
  "sourceName": "contracts/CyberLionzMerger.sol",
  "abi": [
    {
      "inputs": [
        {
          "internalType": "address",
          "name": "cyberLionz",
          "type": "address"
        },
        {
          "internalType": "address",
          "name": "heatToken",
          "type": "address"
        },
        {
          "internalType": "address",
          "name": "cyberLionzAdults",
          "type": "address"
        },
        {
          "internalType": "uint256",
          "name": "mergePrice_",
          "type": "uint256"
        }
      ],
      "stateMutability": "nonpayable",
      "type": "constructor"
    },
    {
      "anonymous": false,
      "inputs": [
        {
          "indexed": true,
          "internalType": "address",
          "name": "previousOwner",
          "type": "address"
        },
        {
          "indexed": true,
          "internalType": "address",
          "name": "newOwner",
          "type": "address"
        }
      ],
      "name": "OwnershipTransferred",
      "type": "event"
    },
    {
      "inputs": [],
      "name": "cubMaxTimesAllowedToUse",
      "outputs": [
        {
          "internalType": "uint8",
          "name": "",
          "type": "uint8"
        }
      ],
      "stateMutability": "view",
      "type": "function"
    },
    {
      "inputs": [
        {
          "internalType": "uint256",
          "name": "",
          "type": "uint256"
        }
      ],
      "name": "cubTimesUsed",
      "outputs": [
        {
          "internalType": "uint8",
          "name": "",
          "type": "uint8"
        }
      ],
      "stateMutability": "view",
      "type": "function"
    },
    {
      "inputs": [],
      "name": "getLockedLionz",
      "outputs": [
        {
          "internalType": "uint256[]",
          "name": "",
          "type": "uint256[]"
        }
      ],
      "stateMutability": "view",
      "type": "function"
    },
    {
      "inputs": [
        {
          "internalType": "uint256",
          "name": "cub1",
          "type": "uint256"
        },
        {
          "internalType": "uint256",
          "name": "cub2",
          "type": "uint256"
        }
      ],
      "name": "mergeCubz",
      "outputs": [],
      "stateMutability": "nonpayable",
      "type": "function"
    },
    {
      "inputs": [],
      "name": "mergePrice",
      "outputs": [
        {
          "internalType": "uint256",
          "name": "",
          "type": "uint256"
        }
      ],
      "stateMutability": "view",
      "type": "function"
    },
    {
      "inputs": [],
      "name": "owner",
      "outputs": [
        {
          "internalType": "address",
          "name": "",
          "type": "address"
        }
      ],
      "stateMutability": "view",
      "type": "function"
    },
    {
      "inputs": [],
      "name": "renounceOwnership",
      "outputs": [],
      "stateMutability": "nonpayable",
      "type": "function"
    },
    {
      "inputs": [
        {
          "internalType": "uint8",
          "name": "cubMaxTimesAllowedToUse_",
          "type": "uint8"
        }
      ],
      "name": "setCubMaxTimesAllowedToUse",
      "outputs": [],
      "stateMutability": "nonpayable",
      "type": "function"
    },
    {
      "inputs": [
        {
          "internalType": "uint256",
          "name": "mergePrice_",
          "type": "uint256"
        }
      ],
      "name": "setMergePrice",
      "outputs": [],
      "stateMutability": "nonpayable",
      "type": "function"
    },
    {
      "inputs": [
        {
          "internalType": "address",
          "name": "newOwner",
          "type": "address"
        }
      ],
      "name": "transferOwnership",
      "outputs": [],
      "stateMutability": "nonpayable",
      "type": "function"
    },
    {
      "inputs": [
        {
          "internalType": "address",
          "name": "to",
          "type": "address"
        }
      ],
      "name": "withdrawFunds",
      "outputs": [],
      "stateMutability": "nonpayable",
      "type": "function"
    }
  ],
  "bytecode": "0x60c060405260ff600160146101000a81548160ff021916908360ff1602179055503480156200002d57600080fd5b506040516200154d3803806200154d83398181016040528101906200005391906200029e565b62000073620000676200012d60201b60201c565b6200013560201b60201c565b8373ffffffffffffffffffffffffffffffffffffffff1660808173ffffffffffffffffffffffffffffffffffffffff16815250508273ffffffffffffffffffffffffffffffffffffffff1660a08173ffffffffffffffffffffffffffffffffffffffff168152505081600160006101000a81548173ffffffffffffffffffffffffffffffffffffffff021916908373ffffffffffffffffffffffffffffffffffffffff160217905550806002819055505050505062000310565b600033905090565b60008060009054906101000a900473ffffffffffffffffffffffffffffffffffffffff169050816000806101000a81548173ffffffffffffffffffffffffffffffffffffffff021916908373ffffffffffffffffffffffffffffffffffffffff1602179055508173ffffffffffffffffffffffffffffffffffffffff168173ffffffffffffffffffffffffffffffffffffffff167f8be0079c531659141344cd1fd0a4f28419497f9722a3daafe3b4186f6b6457e060405160405180910390a35050565b600080fd5b600073ffffffffffffffffffffffffffffffffffffffff82169050919050565b60006200022b82620001fe565b9050919050565b6200023d816200021e565b81146200024957600080fd5b50565b6000815190506200025d8162000232565b92915050565b6000819050919050565b620002788162000263565b81146200028457600080fd5b50565b60008151905062000298816200026d565b92915050565b60008060008060808587031215620002bb57620002ba620001f9565b5b6000620002cb878288016200024c565b9450506020620002de878288016200024c565b9350506040620002f1878288016200024c565b9250506060620003048782880162000287565b91505092959194509250565b60805160a0516112106200033d600039600081816103550152610678015260006102c601526112106000f3fe608060405234801561001057600080fd5b50600436106100a95760003560e01c806368742da61161007157806368742da614610152578063715018a61461016e5780638da5cb5b14610178578063e755feda14610196578063f2fde38b146101b4578063fe7fbb36146101d0576100a9565b8063284a2297146100ae5780632ac6249c146100ca57806339cbff12146100e65780634a4221771461010457806364e7d89114610122575b600080fd5b6100c860048036038101906100c39190610b38565b6101ec565b005b6100e460048036038101906100df9190610b78565b6104b1565b005b6100ee61057a565b6040516100fb9190610c63565b60405180910390f35b61010c6105d2565b6040516101199190610c94565b60405180910390f35b61013c60048036038101906101379190610b78565b6105d8565b6040516101499190610ccb565b60405180910390f35b61016c60048036038101906101679190610d44565b6105f8565b005b610176610795565b005b61018061081d565b60405161018d9190610d80565b60405180910390f35b61019e610846565b6040516101ab9190610ccb565b60405180910390f35b6101ce60048036038101906101c99190610d44565b610859565b005b6101ea60048036038101906101e59190610dc7565b610950565b005b600160149054906101000a900460ff1660ff1660016003600084815260200190815260200160002060009054906101000a900460ff1661022c9190610e23565b60ff161115610270576040517f08c379a000000000000000000000000000000000000000000000000000000000815260040161026790610eb7565b60405180910390fd5b60016003600083815260200190815260200160002060008282829054906101000a900460ff166102a09190610e23565b92506101000a81548160ff021916908360ff16021790555060006102c2610a31565b90507f000000000000000000000000000000000000000000000000000000000000000073ffffffffffffffffffffffffffffffffffffffff166323b872dd8230866040518463ffffffff1660e01b815260040161032193929190610ed7565b600060405180830381600087803b15801561033b57600080fd5b505af115801561034f573d6000803e3d6000fd5b505050507f000000000000000000000000000000000000000000000000000000000000000073ffffffffffffffffffffffffffffffffffffffff166323b872dd82306002546040518463ffffffff1660e01b81526004016103b293929190610ed7565b6020604051808303816000875af11580156103d1573d6000803e3d6000fd5b505050506040513d601f19601f820116820180604052508101906103f59190610f46565b506004839080600181540180825580915050600190039060005260206000200160009091909190915055600160009054906101000a900473ffffffffffffffffffffffffffffffffffffffff1673ffffffffffffffffffffffffffffffffffffffff16638afe22c8826040518263ffffffff1660e01b815260040161047a9190610d80565b600060405180830381600087803b15801561049457600080fd5b505af11580156104a8573d6000803e3d6000fd5b50505050505050565b6104b9610a31565b73ffffffffffffffffffffffffffffffffffffffff166104d761081d565b73ffffffffffffffffffffffffffffffffffffffff161461052d576040517f08c379a000000000000000000000000000000000000000000000000000000000815260040161052490610fbf565b60405180910390fd5b60008111610570576040517f08c379a00000000000000000000000000000000000000000000000000000000081526004016105679061102b565b60405180910390fd5b8060028190555050565b606060048054806020026020016040519081016040528092919081815260200182805480156105c857602002820191906000526020600020905b8154815260200190600101908083116105b4575b5050505050905090565b60025481565b60036020528060005260406000206000915054906101000a900460ff1681565b610600610a31565b73ffffffffffffffffffffffffffffffffffffffff1661061e61081d565b73ffffffffffffffffffffffffffffffffffffffff1614610674576040517f08c379a000000000000000000000000000000000000000000000000000000000815260040161066b90610fbf565b60405180910390fd5b60007f000000000000000000000000000000000000000000000000000000000000000090508073ffffffffffffffffffffffffffffffffffffffff1663a9059cbb838373ffffffffffffffffffffffffffffffffffffffff166370a08231306040518263ffffffff1660e01b81526004016106ef9190610d80565b602060405180830381865afa15801561070c573d6000803e3d6000fd5b505050506040513d601f19601f820116820180604052508101906107309190611060565b6040518363ffffffff1660e01b815260040161074d92919061108d565b6020604051808303816000875af115801561076c573d6000803e3d6000fd5b505050506040513d601f19601f820116820180604052508101906107909190610f46565b505050565b61079d610a31565b73ffffffffffffffffffffffffffffffffffffffff166107bb61081d565b73ffffffffffffffffffffffffffffffffffffffff1614610811576040517f08c379a000000000000000000000000000000000000000000000000000000000815260040161080890610fbf565b60405180910390fd5b61081b6000610a39565b565b60008060009054906101000a900473ffffffffffffffffffffffffffffffffffffffff16905090565b600160149054906101000a900460ff1681565b610861610a31565b73ffffffffffffffffffffffffffffffffffffffff1661087f61081d565b73ffffffffffffffffffffffffffffffffffffffff16146108d5576040517f08c379a00000000000000000000000000000000000000000000000000000000081526004016108cc90610fbf565b60405180910390fd5b600073ffffffffffffffffffffffffffffffffffffffff168173ffffffffffffffffffffffffffffffffffffffff1603610944576040517f08c379a000000000000000000000000000000000000000000000000000000000815260040161093b90611128565b60405180910390fd5b61094d81610a39565b50565b610958610a31565b73ffffffffffffffffffffffffffffffffffffffff1661097661081d565b73ffffffffffffffffffffffffffffffffffffffff16146109cc576040517f08c379a00000000000000000000000000000000000000000000000000000000081526004016109c390610fbf565b60405180910390fd5b60018160ff161015610a13576040517f08c379a0000000000000000000000000000000000000000000000000000000008152600401610a0a906111ba565b60405180910390fd5b80600160146101000a81548160ff021916908360ff16021790555050565b600033905090565b60008060009054906101000a900473ffffffffffffffffffffffffffffffffffffffff169050816000806101000a81548173ffffffffffffffffffffffffffffffffffffffff021916908373ffffffffffffffffffffffffffffffffffffffff1602179055508173ffffffffffffffffffffffffffffffffffffffff168173ffffffffffffffffffffffffffffffffffffffff167f8be0079c531659141344cd1fd0a4f28419497f9722a3daafe3b4186f6b6457e060405160405180910390a35050565b600080fd5b6000819050919050565b610b1581610b02565b8114610b2057600080fd5b50565b600081359050610b3281610b0c565b92915050565b60008060408385031215610b4f57610b4e610afd565b5b6000610b5d85828601610b23565b9250506020610b6e85828601610b23565b9150509250929050565b600060208284031215610b8e57610b8d610afd565b5b6000610b9c84828501610b23565b91505092915050565b600081519050919050565b600082825260208201905092915050565b6000819050602082019050919050565b610bda81610b02565b82525050565b6000610bec8383610bd1565b60208301905092915050565b6000602082019050919050565b6000610c1082610ba5565b610c1a8185610bb0565b9350610c2583610bc1565b8060005b83811015610c56578151610c3d8882610be0565b9750610c4883610bf8565b925050600181019050610c29565b5085935050505092915050565b60006020820190508181036000830152610c7d8184610c05565b905092915050565b610c8e81610b02565b82525050565b6000602082019050610ca96000830184610c85565b92915050565b600060ff82169050919050565b610cc581610caf565b82525050565b6000602082019050610ce06000830184610cbc565b92915050565b600073ffffffffffffffffffffffffffffffffffffffff82169050919050565b6000610d1182610ce6565b9050919050565b610d2181610d06565b8114610d2c57600080fd5b50565b600081359050610d3e81610d18565b92915050565b600060208284031215610d5a57610d59610afd565b5b6000610d6884828501610d2f565b91505092915050565b610d7a81610d06565b82525050565b6000602082019050610d956000830184610d71565b92915050565b610da481610caf565b8114610daf57600080fd5b50565b600081359050610dc181610d9b565b92915050565b600060208284031215610ddd57610ddc610afd565b5b6000610deb84828501610db2565b91505092915050565b7f4e487b7100000000000000000000000000000000000000000000000000000000600052601160045260246000fd5b6000610e2e82610caf565b9150610e3983610caf565b92508260ff03821115610e4f57610e4e610df4565b5b828201905092915050565b600082825260208201905092915050565b7f4375622072656163686564206d61780000000000000000000000000000000000600082015250565b6000610ea1600f83610e5a565b9150610eac82610e6b565b602082019050919050565b60006020820190508181036000830152610ed081610e94565b9050919050565b6000606082019050610eec6000830186610d71565b610ef96020830185610d71565b610f066040830184610c85565b949350505050565b60008115159050919050565b610f2381610f0e565b8114610f2e57600080fd5b50565b600081519050610f4081610f1a565b92915050565b600060208284031215610f5c57610f5b610afd565b5b6000610f6a84828501610f31565b91505092915050565b7f4f776e61626c653a2063616c6c6572206973206e6f7420746865206f776e6572600082015250565b6000610fa9602083610e5a565b9150610fb482610f73565b602082019050919050565b60006020820190508181036000830152610fd881610f9c565b9050919050565b7f4d657267652070726963652063616e6e6f206265203000000000000000000000600082015250565b6000611015601683610e5a565b915061102082610fdf565b602082019050919050565b6000602082019050818103600083015261104481611008565b9050919050565b60008151905061105a81610b0c565b92915050565b60006020828403121561107657611075610afd565b5b60006110848482850161104b565b91505092915050565b60006040820190506110a26000830185610d71565b6110af6020830184610c85565b9392505050565b7f4f776e61626c653a206e6577206f776e657220697320746865207a65726f206160008201527f6464726573730000000000000000000000000000000000000000000000000000602082015250565b6000611112602683610e5a565b915061111d826110b6565b604082019050919050565b6000602082019050818103600083015261114181611105565b9050919050565b7f6375624d617854696d6573416c6c6f776564546f5573652076616c7565206d7560008201527f7374206265206d6f7265207468616e2030000000000000000000000000000000602082015250565b60006111a4603183610e5a565b91506111af82611148565b604082019050919050565b600060208201905081810360008301526111d381611197565b905091905056fea26469706673582212200378d53951d5120a53cef57cd588f2e71f2b123d97caeeb91de8c4031b80efd564736f6c634300080d0033",
  "linkReferences": {},
  "deployedLinkReferences": {}
}