{
  "_format": "hh-sol-artifact-1",
  "contractName": "CyberLionzMerger",
  "sourceName": "contracts/CyberLionzMerger.sol",
  "abi": [
    {
      "inputs": [
        {
          "internalType": "address",
          "name": "cyberLionz",
          "type": "address"
        },
        {
          "internalType": "address",
          "name": "heatToken",
          "type": "address"
        },
        {
          "internalType": "uint256",
          "name": "mergePrice_",
          "type": "uint256"
        }
      ],
      "stateMutability": "nonpayable",
      "type": "constructor"
    },
    {
      "anonymous": false,
      "inputs": [
        {
          "indexed": true,
          "internalType": "address",
          "name": "previousOwner",
          "type": "address"
        },
        {
          "indexed": true,
          "internalType": "address",
          "name": "newOwner",
          "type": "address"
        }
      ],
      "name": "OwnershipTransferred",
      "type": "event"
    },
    {
      "inputs": [],
      "name": "cubMaxTimesAllowedToUse",
      "outputs": [
        {
          "internalType": "uint8",
          "name": "",
          "type": "uint8"
        }
      ],
      "stateMutability": "view",
      "type": "function"
    },
    {
      "inputs": [
        {
          "internalType": "uint256",
          "name": "",
          "type": "uint256"
        }
      ],
      "name": "cubTimesUsed",
      "outputs": [
        {
          "internalType": "uint8",
          "name": "",
          "type": "uint8"
        }
      ],
      "stateMutability": "view",
      "type": "function"
    },
    {
      "inputs": [],
      "name": "getLockedLionz",
      "outputs": [
        {
          "internalType": "uint256[]",
          "name": "",
          "type": "uint256[]"
        }
      ],
      "stateMutability": "view",
      "type": "function"
    },
    {
      "inputs": [
        {
          "internalType": "uint256",
          "name": "cub1",
          "type": "uint256"
        },
        {
          "internalType": "uint256",
          "name": "cub2",
          "type": "uint256"
        }
      ],
      "name": "mergeCubz",
      "outputs": [],
      "stateMutability": "nonpayable",
      "type": "function"
    },
    {
      "inputs": [],
      "name": "mergePrice",
      "outputs": [
        {
          "internalType": "uint256",
          "name": "",
          "type": "uint256"
        }
      ],
      "stateMutability": "view",
      "type": "function"
    },
    {
      "inputs": [],
      "name": "owner",
      "outputs": [
        {
          "internalType": "address",
          "name": "",
          "type": "address"
        }
      ],
      "stateMutability": "view",
      "type": "function"
    },
    {
      "inputs": [],
      "name": "renounceOwnership",
      "outputs": [],
      "stateMutability": "nonpayable",
      "type": "function"
    },
    {
      "inputs": [
        {
          "internalType": "uint8",
          "name": "cubMaxTimesAllowedToUse_",
          "type": "uint8"
        }
      ],
      "name": "setCubMaxTimesAllowedToUse",
      "outputs": [],
      "stateMutability": "nonpayable",
      "type": "function"
    },
    {
      "inputs": [
        {
          "internalType": "address",
          "name": "cyberLionzAdult",
          "type": "address"
        }
      ],
      "name": "setCyberLionzAdults",
      "outputs": [],
      "stateMutability": "nonpayable",
      "type": "function"
    },
    {
      "inputs": [
        {
          "internalType": "uint256",
          "name": "mergePrice_",
          "type": "uint256"
        }
      ],
      "name": "setMergePrice",
      "outputs": [],
      "stateMutability": "nonpayable",
      "type": "function"
    },
    {
      "inputs": [
        {
          "internalType": "address",
          "name": "newOwner",
          "type": "address"
        }
      ],
      "name": "transferOwnership",
      "outputs": [],
      "stateMutability": "nonpayable",
      "type": "function"
    },
    {
      "inputs": [
        {
          "internalType": "address",
          "name": "to",
          "type": "address"
        }
      ],
      "name": "withdrawFunds",
      "outputs": [],
      "stateMutability": "nonpayable",
      "type": "function"
    }
  ],
  "bytecode": "0x60c060405260ff600160146101000a81548160ff021916908360ff1602179055503480156200002d57600080fd5b50604051620013873803806200138783398181016040528101906200005391906200029e565b62000073620000676200012d60201b60201c565b6200013560201b60201c565b8373ffffffffffffffffffffffffffffffffffffffff1660808173ffffffffffffffffffffffffffffffffffffffff16815250508273ffffffffffffffffffffffffffffffffffffffff1660a08173ffffffffffffffffffffffffffffffffffffffff168152505081600160006101000a81548173ffffffffffffffffffffffffffffffffffffffff021916908373ffffffffffffffffffffffffffffffffffffffff160217905550806002819055505050505062000310565b600033905090565b60008060009054906101000a900473ffffffffffffffffffffffffffffffffffffffff169050816000806101000a81548173ffffffffffffffffffffffffffffffffffffffff021916908373ffffffffffffffffffffffffffffffffffffffff1602179055508173ffffffffffffffffffffffffffffffffffffffff168173ffffffffffffffffffffffffffffffffffffffff167f8be0079c531659141344cd1fd0a4f28419497f9722a3daafe3b4186f6b6457e060405160405180910390a35050565b600080fd5b600073ffffffffffffffffffffffffffffffffffffffff82169050919050565b60006200022b82620001fe565b9050919050565b6200023d816200021e565b81146200024957600080fd5b50565b6000815190506200025d8162000232565b92915050565b6000819050919050565b620002788162000263565b81146200028457600080fd5b50565b60008151905062000298816200026d565b92915050565b60008060008060808587031215620002bb57620002ba620001f9565b5b6000620002cb878288016200024c565b9450506020620002de878288016200024c565b9350506040620002f1878288016200024c565b9250506060620003048782880162000287565b91505092959194509250565b60805160a05161104a6200033d600039600081816103550152610590015260006102c6015261104a6000f3fe608060405234801561001057600080fd5b50600436106100a95760003560e01c806368742da61161007157806368742da614610152578063715018a61461016e5780638da5cb5b14610178578063e755feda14610196578063f2fde38b146101b4578063fe7fbb36146101d0576100a9565b8063284a2297146100ae5780632ac6249c146100ca57806339cbff12146100e65780634a4221771461010457806364e7d89114610122575b600080fd5b6100c860048036038101906100c39190610972565b6101ec565b005b6100e460048036038101906100df91906109b2565b6104b1565b005b6100ee610506565b6040516100fb9190610a9d565b60405180910390f35b61010c61055e565b6040516101199190610ace565b60405180910390f35b61013c600480360381019061013791906109b2565b610564565b6040516101499190610b05565b60405180910390f35b61016c60048036038101906101679190610b7e565b610584565b005b6101766106ad565b005b6101806106c1565b60405161018d9190610bba565b60405180910390f35b61019e6106ea565b6040516101ab9190610b05565b60405180910390f35b6101ce60048036038101906101c99190610b7e565b6106fd565b005b6101ea60048036038101906101e59190610c01565b610780565b005b600160149054906101000a900460ff1660ff1660016003600084815260200190815260200160002060009054906101000a900460ff1661022c9190610c5d565b60ff161115610270576040517f08c379a000000000000000000000000000000000000000000000000000000000815260040161026790610cf1565b60405180910390fd5b60016003600083815260200190815260200160002060008282829054906101000a900460ff166102a09190610c5d565b92506101000a81548160ff021916908360ff16021790555060006102c26107ed565b90507f000000000000000000000000000000000000000000000000000000000000000073ffffffffffffffffffffffffffffffffffffffff166323b872dd8230866040518463ffffffff1660e01b815260040161032193929190610d11565b600060405180830381600087803b15801561033b57600080fd5b505af115801561034f573d6000803e3d6000fd5b505050507f000000000000000000000000000000000000000000000000000000000000000073ffffffffffffffffffffffffffffffffffffffff166323b872dd82306002546040518463ffffffff1660e01b81526004016103b293929190610d11565b6020604051808303816000875af11580156103d1573d6000803e3d6000fd5b505050506040513d601f19601f820116820180604052508101906103f59190610d80565b506004839080600181540180825580915050600190039060005260206000200160009091909190915055600160009054906101000a900473ffffffffffffffffffffffffffffffffffffffff1673ffffffffffffffffffffffffffffffffffffffff16638afe22c8826040518263ffffffff1660e01b815260040161047a9190610bba565b600060405180830381600087803b15801561049457600080fd5b505af11580156104a8573d6000803e3d6000fd5b50505050505050565b6104b96107f5565b600081116104fc576040517f08c379a00000000000000000000000000000000000000000000000000000000081526004016104f390610df9565b60405180910390fd5b8060028190555050565b6060600480548060200260200160405190810160405280929190818152602001828054801561055457602002820191906000526020600020905b815481526020019060010190808311610540575b5050505050905090565b60025481565b60036020528060005260406000206000915054906101000a900460ff1681565b61058c6107f5565b60007f000000000000000000000000000000000000000000000000000000000000000090508073ffffffffffffffffffffffffffffffffffffffff1663a9059cbb838373ffffffffffffffffffffffffffffffffffffffff166370a08231306040518263ffffffff1660e01b81526004016106079190610bba565b602060405180830381865afa158015610624573d6000803e3d6000fd5b505050506040513d601f19601f820116820180604052508101906106489190610e2e565b6040518363ffffffff1660e01b8152600401610665929190610e5b565b6020604051808303816000875af1158015610684573d6000803e3d6000fd5b505050506040513d601f19601f820116820180604052508101906106a89190610d80565b505050565b6106b56107f5565b6106bf6000610873565b565b60008060009054906101000a900473ffffffffffffffffffffffffffffffffffffffff16905090565b600160149054906101000a900460ff1681565b6107056107f5565b600073ffffffffffffffffffffffffffffffffffffffff168173ffffffffffffffffffffffffffffffffffffffff1603610774576040517f08c379a000000000000000000000000000000000000000000000000000000000815260040161076b90610ef6565b60405180910390fd5b61077d81610873565b50565b6107886107f5565b60018160ff1610156107cf576040517f08c379a00000000000000000000000000000000000000000000000000000000081526004016107c690610f88565b60405180910390fd5b80600160146101000a81548160ff021916908360ff16021790555050565b600033905090565b6107fd6107ed565b73ffffffffffffffffffffffffffffffffffffffff1661081b6106c1565b73ffffffffffffffffffffffffffffffffffffffff1614610871576040517f08c379a000000000000000000000000000000000000000000000000000000000815260040161086890610ff4565b60405180910390fd5b565b60008060009054906101000a900473ffffffffffffffffffffffffffffffffffffffff169050816000806101000a81548173ffffffffffffffffffffffffffffffffffffffff021916908373ffffffffffffffffffffffffffffffffffffffff1602179055508173ffffffffffffffffffffffffffffffffffffffff168173ffffffffffffffffffffffffffffffffffffffff167f8be0079c531659141344cd1fd0a4f28419497f9722a3daafe3b4186f6b6457e060405160405180910390a35050565b600080fd5b6000819050919050565b61094f8161093c565b811461095a57600080fd5b50565b60008135905061096c81610946565b92915050565b6000806040838503121561098957610988610937565b5b60006109978582860161095d565b92505060206109a88582860161095d565b9150509250929050565b6000602082840312156109c8576109c7610937565b5b60006109d68482850161095d565b91505092915050565b600081519050919050565b600082825260208201905092915050565b6000819050602082019050919050565b610a148161093c565b82525050565b6000610a268383610a0b565b60208301905092915050565b6000602082019050919050565b6000610a4a826109df565b610a5481856109ea565b9350610a5f836109fb565b8060005b83811015610a90578151610a778882610a1a565b9750610a8283610a32565b925050600181019050610a63565b5085935050505092915050565b60006020820190508181036000830152610ab78184610a3f565b905092915050565b610ac88161093c565b82525050565b6000602082019050610ae36000830184610abf565b92915050565b600060ff82169050919050565b610aff81610ae9565b82525050565b6000602082019050610b1a6000830184610af6565b92915050565b600073ffffffffffffffffffffffffffffffffffffffff82169050919050565b6000610b4b82610b20565b9050919050565b610b5b81610b40565b8114610b6657600080fd5b50565b600081359050610b7881610b52565b92915050565b600060208284031215610b9457610b93610937565b5b6000610ba284828501610b69565b91505092915050565b610bb481610b40565b82525050565b6000602082019050610bcf6000830184610bab565b92915050565b610bde81610ae9565b8114610be957600080fd5b50565b600081359050610bfb81610bd5565b92915050565b600060208284031215610c1757610c16610937565b5b6000610c2584828501610bec565b91505092915050565b7f4e487b7100000000000000000000000000000000000000000000000000000000600052601160045260246000fd5b6000610c6882610ae9565b9150610c7383610ae9565b92508260ff03821115610c8957610c88610c2e565b5b828201905092915050565b600082825260208201905092915050565b7f4375622072656163686564206d61780000000000000000000000000000000000600082015250565b6000610cdb600f83610c94565b9150610ce682610ca5565b602082019050919050565b60006020820190508181036000830152610d0a81610cce565b9050919050565b6000606082019050610d266000830186610bab565b610d336020830185610bab565b610d406040830184610abf565b949350505050565b60008115159050919050565b610d5d81610d48565b8114610d6857600080fd5b50565b600081519050610d7a81610d54565b92915050565b600060208284031215610d9657610d95610937565b5b6000610da484828501610d6b565b91505092915050565b7f4d657267652070726963652063616e6e6f206265203000000000000000000000600082015250565b6000610de3601683610c94565b9150610dee82610dad565b602082019050919050565b60006020820190508181036000830152610e1281610dd6565b9050919050565b600081519050610e2881610946565b92915050565b600060208284031215610e4457610e43610937565b5b6000610e5284828501610e19565b91505092915050565b6000604082019050610e706000830185610bab565b610e7d6020830184610abf565b9392505050565b7f4f776e61626c653a206e6577206f776e657220697320746865207a65726f206160008201527f6464726573730000000000000000000000000000000000000000000000000000602082015250565b6000610ee0602683610c94565b9150610eeb82610e84565b604082019050919050565b60006020820190508181036000830152610f0f81610ed3565b9050919050565b7f6375624d617854696d6573416c6c6f776564546f5573652076616c7565206d7560008201527f7374206265206d6f7265207468616e2030000000000000000000000000000000602082015250565b6000610f72603183610c94565b9150610f7d82610f16565b604082019050919050565b60006020820190508181036000830152610fa181610f65565b9050919050565b7f4f776e61626c653a2063616c6c6572206973206e6f7420746865206f776e6572600082015250565b6000610fde602083610c94565b9150610fe982610fa8565b602082019050919050565b6000602082019050818103600083015261100d81610fd1565b905091905056fea26469706673582212207f0ed24d24755be8efbc4836f40982e073a3729f4393563c693f49a80c5cebfb64736f6c634300080d0033",
  "linkReferences": {},
  "deployedLinkReferences": {}
}