{
  "_format": "hh-sol-artifact-1",
  "contractName": "CyberLionzMerger",
  "sourceName": "contracts/CyberLionzMerger.sol",
  "abi": [
    {
      "inputs": [
        {
          "internalType": "address",
          "name": "cyberLionz",
          "type": "address"
        },
        {
          "internalType": "address",
          "name": "cyberLionzAdult",
          "type": "address"
        },
        {
          "internalType": "address",
          "name": "heatToken",
          "type": "address"
        },
        {
          "internalType": "uint256",
          "name": "mergePrice_",
          "type": "uint256"
        },
        {
          "internalType": "uint256",
          "name": "cub2StakingPeriod_",
          "type": "uint256"
        }
      ],
      "stateMutability": "nonpayable",
      "type": "constructor"
    },
    {
      "anonymous": false,
      "inputs": [
        {
          "indexed": true,
          "internalType": "address",
          "name": "previousOwner",
          "type": "address"
        },
        {
          "indexed": true,
          "internalType": "address",
          "name": "newOwner",
          "type": "address"
        }
      ],
      "name": "OwnershipTransferred",
      "type": "event"
    },
    {
      "anonymous": false,
      "inputs": [
        {
          "indexed": false,
          "internalType": "address",
          "name": "owner",
          "type": "address"
        },
        {
          "indexed": false,
          "internalType": "uint256",
          "name": "tokenId",
          "type": "uint256"
        }
      ],
      "name": "UnstakeCub",
      "type": "event"
    },
    {
      "inputs": [],
      "name": "cub2StakingPeriod",
      "outputs": [
        {
          "internalType": "uint256",
          "name": "",
          "type": "uint256"
        }
      ],
      "stateMutability": "view",
      "type": "function"
    },
    {
      "inputs": [
        {
          "internalType": "uint256",
          "name": "",
          "type": "uint256"
        }
      ],
      "name": "cubStakeOwnerMap",
      "outputs": [
        {
          "internalType": "address",
          "name": "",
          "type": "address"
        }
      ],
      "stateMutability": "view",
      "type": "function"
    },
    {
      "inputs": [
        {
          "internalType": "uint256",
          "name": "",
          "type": "uint256"
        }
      ],
      "name": "cubStakeTimestampMap",
      "outputs": [
        {
          "internalType": "uint256",
          "name": "",
          "type": "uint256"
        }
      ],
      "stateMutability": "view",
      "type": "function"
    },
    {
      "inputs": [],
      "name": "getLockedLionz",
      "outputs": [
        {
          "internalType": "uint256[]",
          "name": "",
          "type": "uint256[]"
        }
      ],
      "stateMutability": "view",
      "type": "function"
    },
    {
      "inputs": [],
      "name": "getStakedLionz",
      "outputs": [
        {
          "internalType": "uint256[]",
          "name": "",
          "type": "uint256[]"
        }
      ],
      "stateMutability": "view",
      "type": "function"
    },
    {
      "inputs": [
        {
          "internalType": "uint256",
          "name": "cub1",
          "type": "uint256"
        },
        {
          "internalType": "uint256",
          "name": "cub2",
          "type": "uint256"
        }
      ],
      "name": "mergeCubz",
      "outputs": [],
      "stateMutability": "nonpayable",
      "type": "function"
    },
    {
      "inputs": [],
      "name": "mergePrice",
      "outputs": [
        {
          "internalType": "uint256",
          "name": "",
          "type": "uint256"
        }
      ],
      "stateMutability": "view",
      "type": "function"
    },
    {
      "inputs": [],
      "name": "owner",
      "outputs": [
        {
          "internalType": "address",
          "name": "",
          "type": "address"
        }
      ],
      "stateMutability": "view",
      "type": "function"
    },
    {
      "inputs": [],
      "name": "renounceOwnership",
      "outputs": [],
      "stateMutability": "nonpayable",
      "type": "function"
    },
    {
      "inputs": [
        {
          "internalType": "address",
          "name": "newOwner",
          "type": "address"
        }
      ],
      "name": "transferOwnership",
      "outputs": [],
      "stateMutability": "nonpayable",
      "type": "function"
    },
    {
      "inputs": [
        {
          "internalType": "uint256",
          "name": "cub",
          "type": "uint256"
        }
      ],
      "name": "unstakeCub",
      "outputs": [],
      "stateMutability": "nonpayable",
      "type": "function"
    },
    {
      "inputs": [
        {
          "internalType": "address",
          "name": "to",
          "type": "address"
        }
      ],
      "name": "withdrawFunds",
      "outputs": [],
      "stateMutability": "nonpayable",
      "type": "function"
    }
  ],
  "bytecode": "0x60e06040523480156200001157600080fd5b506040516200179d3803806200179d83398181016040528101906200003791906200027d565b620000576200004b6200010c60201b60201c565b6200011460201b60201c565b8473ffffffffffffffffffffffffffffffffffffffff1660808173ffffffffffffffffffffffffffffffffffffffff16815250508373ffffffffffffffffffffffffffffffffffffffff1660a08173ffffffffffffffffffffffffffffffffffffffff16815250508273ffffffffffffffffffffffffffffffffffffffff1660c08173ffffffffffffffffffffffffffffffffffffffff16815250508160018190555080600281905550505050505062000305565b600033905090565b60008060009054906101000a900473ffffffffffffffffffffffffffffffffffffffff169050816000806101000a81548173ffffffffffffffffffffffffffffffffffffffff021916908373ffffffffffffffffffffffffffffffffffffffff1602179055508173ffffffffffffffffffffffffffffffffffffffff168173ffffffffffffffffffffffffffffffffffffffff167f8be0079c531659141344cd1fd0a4f28419497f9722a3daafe3b4186f6b6457e060405160405180910390a35050565b600080fd5b600073ffffffffffffffffffffffffffffffffffffffff82169050919050565b60006200020a82620001dd565b9050919050565b6200021c81620001fd565b81146200022857600080fd5b50565b6000815190506200023c8162000211565b92915050565b6000819050919050565b620002578162000242565b81146200026357600080fd5b50565b60008151905062000277816200024c565b92915050565b600080600080600060a086880312156200029c576200029b620001d8565b5b6000620002ac888289016200022b565b9550506020620002bf888289016200022b565b9450506040620002d2888289016200022b565b9350506060620002e58882890162000266565b9250506080620002f88882890162000266565b9150509295509295909350565b60805160a05160c05161145a62000343600039600081816102cc01526105830152600061041701526000818161023d0152610888015261145a6000f3fe608060405234801561001057600080fd5b50600436106100b45760003560e01c8063715018a611610071578063715018a6146101695780638da5cb5b1461017357806395a6baee146101915780639dd2218c146101ad578063ebb55d2d146101dd578063f2fde38b1461020d576100b4565b80630dd2eafc146100b9578063284a2297146100d757806339cbff12146100f35780634a4221771461011157806368742da61461012f5780636c31e6251461014b575b600080fd5b6100c1610229565b6040516100ce9190610dd1565b60405180910390f35b6100f160048036038101906100ec9190610e1d565b61022f565b005b6100fb6104a5565b6040516101089190610f1b565b60405180910390f35b6101196104fd565b6040516101269190610dd1565b60405180910390f35b61014960048036038101906101449190610f9b565b610503565b005b6101536106a0565b6040516101609190610f1b565b60405180910390f35b6101716106b1565b005b61017b610739565b6040516101889190610fd7565b60405180910390f35b6101ab60048036038101906101a69190610ff2565b610762565b005b6101c760048036038101906101c29190610ff2565b610952565b6040516101d49190610dd1565b60405180910390f35b6101f760048036038101906101f29190610ff2565b61096a565b6040516102049190610fd7565b60405180910390f35b61022760048036038101906102229190610f9b565b61099d565b005b60025481565b6000610239610a94565b90507f000000000000000000000000000000000000000000000000000000000000000073ffffffffffffffffffffffffffffffffffffffff166323b872dd8230866040518463ffffffff1660e01b81526004016102989392919061101f565b600060405180830381600087803b1580156102b257600080fd5b505af11580156102c6573d6000803e3d6000fd5b505050507f000000000000000000000000000000000000000000000000000000000000000073ffffffffffffffffffffffffffffffffffffffff166323b872dd82306001546040518463ffffffff1660e01b81526004016103299392919061101f565b6020604051808303816000875af1158015610348573d6000803e3d6000fd5b505050506040513d601f19601f8201168201806040525081019061036c919061108e565b50426003600084815260200190815260200160002081905550806004600084815260200190815260200160002060006101000a81548173ffffffffffffffffffffffffffffffffffffffff021916908373ffffffffffffffffffffffffffffffffffffffff1602179055506005839080600181540180825580915050600190039060005260206000200160009091909190915055610414826006610a9c90919063ffffffff16565b507f000000000000000000000000000000000000000000000000000000000000000073ffffffffffffffffffffffffffffffffffffffff16638afe22c8826040518263ffffffff1660e01b815260040161046e9190610fd7565b600060405180830381600087803b15801561048857600080fd5b505af115801561049c573d6000803e3d6000fd5b50505050505050565b606060058054806020026020016040519081016040528092919081815260200182805480156104f357602002820191906000526020600020905b8154815260200190600101908083116104df575b5050505050905090565b60015481565b61050b610a94565b73ffffffffffffffffffffffffffffffffffffffff16610529610739565b73ffffffffffffffffffffffffffffffffffffffff161461057f576040517f08c379a000000000000000000000000000000000000000000000000000000000815260040161057690611118565b60405180910390fd5b60007f000000000000000000000000000000000000000000000000000000000000000090508073ffffffffffffffffffffffffffffffffffffffff1663a9059cbb838373ffffffffffffffffffffffffffffffffffffffff166370a08231306040518263ffffffff1660e01b81526004016105fa9190610fd7565b602060405180830381865afa158015610617573d6000803e3d6000fd5b505050506040513d601f19601f8201168201806040525081019061063b919061114d565b6040518363ffffffff1660e01b815260040161065892919061117a565b6020604051808303816000875af1158015610677573d6000803e3d6000fd5b505050506040513d601f19601f8201168201806040525081019061069b919061108e565b505050565b60606106ac6006610ab6565b905090565b6106b9610a94565b73ffffffffffffffffffffffffffffffffffffffff166106d7610739565b73ffffffffffffffffffffffffffffffffffffffff161461072d576040517f08c379a000000000000000000000000000000000000000000000000000000000815260040161072490611118565b60405180910390fd5b6107376000610ad7565b565b60008060009054906101000a900473ffffffffffffffffffffffffffffffffffffffff16905090565b600061076c610a94565b90508073ffffffffffffffffffffffffffffffffffffffff166004600084815260200190815260200160002060009054906101000a900473ffffffffffffffffffffffffffffffffffffffff1673ffffffffffffffffffffffffffffffffffffffff161461080f576040517f08c379a0000000000000000000000000000000000000000000000000000000008152600401610806906111ef565b60405180910390fd5b426002546003600085815260200190815260200160002054610831919061123e565b10610871576040517f08c379a0000000000000000000000000000000000000000000000000000000008152600401610868906112e0565b60405180910390fd5b610885826006610b9b90919063ffffffff16565b507f000000000000000000000000000000000000000000000000000000000000000073ffffffffffffffffffffffffffffffffffffffff166323b872dd3083856040518463ffffffff1660e01b81526004016108e39392919061101f565b600060405180830381600087803b1580156108fd57600080fd5b505af1158015610911573d6000803e3d6000fd5b505050507fb02ea9feff30cb7fe4dd0d8c6a6c055232b25c34ba3b8756a51519a717915866818360405161094692919061117a565b60405180910390a15050565b60036020528060005260406000206000915090505481565b60046020528060005260406000206000915054906101000a900473ffffffffffffffffffffffffffffffffffffffff1681565b6109a5610a94565b73ffffffffffffffffffffffffffffffffffffffff166109c3610739565b73ffffffffffffffffffffffffffffffffffffffff1614610a19576040517f08c379a0000000000000000000000000000000000000000000000000000000008152600401610a1090611118565b60405180910390fd5b600073ffffffffffffffffffffffffffffffffffffffff168173ffffffffffffffffffffffffffffffffffffffff1603610a88576040517f08c379a0000000000000000000000000000000000000000000000000000000008152600401610a7f90611372565b60405180910390fd5b610a9181610ad7565b50565b600033905090565b6000610aae836000018360001b610bb5565b905092915050565b60606000610ac683600001610c25565b905060608190508092505050919050565b60008060009054906101000a900473ffffffffffffffffffffffffffffffffffffffff169050816000806101000a81548173ffffffffffffffffffffffffffffffffffffffff021916908373ffffffffffffffffffffffffffffffffffffffff1602179055508173ffffffffffffffffffffffffffffffffffffffff168173ffffffffffffffffffffffffffffffffffffffff167f8be0079c531659141344cd1fd0a4f28419497f9722a3daafe3b4186f6b6457e060405160405180910390a35050565b6000610bad836000018360001b610c81565b905092915050565b6000610bc18383610d95565b610c1a578260000182908060018154018082558091505060019003906000526020600020016000909190919091505582600001805490508360010160008481526020019081526020016000208190555060019050610c1f565b600090505b92915050565b606081600001805480602002602001604051908101604052809291908181526020018280548015610c7557602002820191906000526020600020905b815481526020019060010190808311610c61575b50505050509050919050565b60008083600101600084815260200190815260200160002054905060008114610d89576000600182610cb39190611392565b9050600060018660000180549050610ccb9190611392565b9050818114610d3a576000866000018281548110610cec57610ceb6113c6565b5b9060005260206000200154905080876000018481548110610d1057610d0f6113c6565b5b90600052602060002001819055508387600101600083815260200190815260200160002081905550505b85600001805480610d4e57610d4d6113f5565b5b600190038181906000526020600020016000905590558560010160008681526020019081526020016000206000905560019350505050610d8f565b60009150505b92915050565b600080836001016000848152602001908152602001600020541415905092915050565b6000819050919050565b610dcb81610db8565b82525050565b6000602082019050610de66000830184610dc2565b92915050565b600080fd5b610dfa81610db8565b8114610e0557600080fd5b50565b600081359050610e1781610df1565b92915050565b60008060408385031215610e3457610e33610dec565b5b6000610e4285828601610e08565b9250506020610e5385828601610e08565b9150509250929050565b600081519050919050565b600082825260208201905092915050565b6000819050602082019050919050565b610e9281610db8565b82525050565b6000610ea48383610e89565b60208301905092915050565b6000602082019050919050565b6000610ec882610e5d565b610ed28185610e68565b9350610edd83610e79565b8060005b83811015610f0e578151610ef58882610e98565b9750610f0083610eb0565b925050600181019050610ee1565b5085935050505092915050565b60006020820190508181036000830152610f358184610ebd565b905092915050565b600073ffffffffffffffffffffffffffffffffffffffff82169050919050565b6000610f6882610f3d565b9050919050565b610f7881610f5d565b8114610f8357600080fd5b50565b600081359050610f9581610f6f565b92915050565b600060208284031215610fb157610fb0610dec565b5b6000610fbf84828501610f86565b91505092915050565b610fd181610f5d565b82525050565b6000602082019050610fec6000830184610fc8565b92915050565b60006020828403121561100857611007610dec565b5b600061101684828501610e08565b91505092915050565b60006060820190506110346000830186610fc8565b6110416020830185610fc8565b61104e6040830184610dc2565b949350505050565b60008115159050919050565b61106b81611056565b811461107657600080fd5b50565b60008151905061108881611062565b92915050565b6000602082840312156110a4576110a3610dec565b5b60006110b284828501611079565b91505092915050565b600082825260208201905092915050565b7f4f776e61626c653a2063616c6c6572206973206e6f7420746865206f776e6572600082015250565b60006111026020836110bb565b915061110d826110cc565b602082019050919050565b60006020820190508181036000830152611131816110f5565b9050919050565b60008151905061114781610df1565b92915050565b60006020828403121561116357611162610dec565b5b600061117184828501611138565b91505092915050565b600060408201905061118f6000830185610fc8565b61119c6020830184610dc2565b9392505050565b7f4e6f7420637562206f776e657200000000000000000000000000000000000000600082015250565b60006111d9600d836110bb565b91506111e4826111a3565b602082019050919050565b60006020820190508181036000830152611208816111cc565b9050919050565b7f4e487b7100000000000000000000000000000000000000000000000000000000600052601160045260246000fd5b600061124982610db8565b915061125483610db8565b9250827fffffffffffffffffffffffffffffffffffffffffffffffffffffffffffffffff038211156112895761128861120f565b5b828201905092915050565b7f556e7374616b6520646561646c696e65206e6f74206f76657200000000000000600082015250565b60006112ca6019836110bb565b91506112d582611294565b602082019050919050565b600060208201905081810360008301526112f9816112bd565b9050919050565b7f4f776e61626c653a206e6577206f776e657220697320746865207a65726f206160008201527f6464726573730000000000000000000000000000000000000000000000000000602082015250565b600061135c6026836110bb565b915061136782611300565b604082019050919050565b6000602082019050818103600083015261138b8161134f565b9050919050565b600061139d82610db8565b91506113a883610db8565b9250828210156113bb576113ba61120f565b5b828203905092915050565b7f4e487b7100000000000000000000000000000000000000000000000000000000600052603260045260246000fd5b7f4e487b7100000000000000000000000000000000000000000000000000000000600052603160045260246000fdfea2646970667358221220b08058985431436ef899ad76f2b4f436873e38f0c693c51b6f89049442eaa16c64736f6c634300080d0033",
  "linkReferences": {},
  "deployedLinkReferences": {}
}