{
  "_format": "hh-sol-artifact-1",
  "contractName": "CyberLionzMerger",
  "sourceName": "contracts/CyberLionzMerger.sol",
  "abi": [
    {
      "inputs": [
        {
          "internalType": "address",
          "name": "cyberLionz",
          "type": "address"
        },
        {
          "internalType": "address",
          "name": "heatToken",
          "type": "address"
        },
        {
          "internalType": "uint256",
          "name": "mergePrice_",
          "type": "uint256"
        }
      ],
      "stateMutability": "nonpayable",
      "type": "constructor"
    },
    {
      "anonymous": false,
      "inputs": [
        {
          "indexed": true,
          "internalType": "address",
          "name": "previousOwner",
          "type": "address"
        },
        {
          "indexed": true,
          "internalType": "address",
          "name": "newOwner",
          "type": "address"
        }
      ],
      "name": "OwnershipTransferred",
      "type": "event"
    },
    {
      "inputs": [],
      "name": "cubMaxTimesAllowedToUse",
      "outputs": [
        {
          "internalType": "uint8",
          "name": "",
          "type": "uint8"
        }
      ],
      "stateMutability": "view",
      "type": "function"
    },
    {
      "inputs": [
        {
          "internalType": "uint256",
          "name": "",
          "type": "uint256"
        }
      ],
      "name": "cubTimesUsed",
      "outputs": [
        {
          "internalType": "uint8",
          "name": "",
          "type": "uint8"
        }
      ],
      "stateMutability": "view",
      "type": "function"
    },
    {
      "inputs": [],
      "name": "getLockedLionz",
      "outputs": [
        {
          "internalType": "uint256[]",
          "name": "",
          "type": "uint256[]"
        }
      ],
      "stateMutability": "view",
      "type": "function"
    },
    {
      "inputs": [
        {
          "internalType": "uint256",
          "name": "cub1",
          "type": "uint256"
        },
        {
          "internalType": "uint256",
          "name": "cub2",
          "type": "uint256"
        }
      ],
      "name": "mergeCubz",
      "outputs": [],
      "stateMutability": "nonpayable",
      "type": "function"
    },
    {
      "inputs": [],
      "name": "mergePrice",
      "outputs": [
        {
          "internalType": "uint256",
          "name": "",
          "type": "uint256"
        }
      ],
      "stateMutability": "view",
      "type": "function"
    },
    {
      "inputs": [],
      "name": "owner",
      "outputs": [
        {
          "internalType": "address",
          "name": "",
          "type": "address"
        }
      ],
      "stateMutability": "view",
      "type": "function"
    },
    {
      "inputs": [],
      "name": "renounceOwnership",
      "outputs": [],
      "stateMutability": "nonpayable",
      "type": "function"
    },
    {
      "inputs": [
        {
          "internalType": "uint8",
          "name": "cubMaxTimesAllowedToUse_",
          "type": "uint8"
        }
      ],
      "name": "setCubMaxTimesAllowedToUse",
      "outputs": [],
      "stateMutability": "nonpayable",
      "type": "function"
    },
    {
      "inputs": [
        {
          "internalType": "address",
          "name": "cyberLionzAdult",
          "type": "address"
        }
      ],
      "name": "setCyberLionzAdults",
      "outputs": [],
      "stateMutability": "nonpayable",
      "type": "function"
    },
    {
      "inputs": [
        {
          "internalType": "uint256",
          "name": "mergePrice_",
          "type": "uint256"
        }
      ],
      "name": "setMergePrice",
      "outputs": [],
      "stateMutability": "nonpayable",
      "type": "function"
    },
    {
      "inputs": [
        {
          "internalType": "address",
          "name": "newOwner",
          "type": "address"
        }
      ],
      "name": "transferOwnership",
      "outputs": [],
      "stateMutability": "nonpayable",
      "type": "function"
    },
    {
      "inputs": [
        {
          "internalType": "address",
          "name": "to",
          "type": "address"
        }
      ],
      "name": "withdrawFunds",
      "outputs": [],
      "stateMutability": "nonpayable",
      "type": "function"
    }
  ],
  "bytecode": "0x60c060405260ff600160146101000a81548160ff021916908360ff1602179055503480156200002d57600080fd5b506040516200157a3803806200157a83398181016040528101906200005391906200025c565b6200007362000067620000eb60201b60201c565b620000f360201b60201c565b8273ffffffffffffffffffffffffffffffffffffffff1660808173ffffffffffffffffffffffffffffffffffffffff16815250508173ffffffffffffffffffffffffffffffffffffffff1660a08173ffffffffffffffffffffffffffffffffffffffff168152505080600281905550505050620002b8565b600033905090565b60008060009054906101000a900473ffffffffffffffffffffffffffffffffffffffff169050816000806101000a81548173ffffffffffffffffffffffffffffffffffffffff021916908373ffffffffffffffffffffffffffffffffffffffff1602179055508173ffffffffffffffffffffffffffffffffffffffff168173ffffffffffffffffffffffffffffffffffffffff167f8be0079c531659141344cd1fd0a4f28419497f9722a3daafe3b4186f6b6457e060405160405180910390a35050565b600080fd5b600073ffffffffffffffffffffffffffffffffffffffff82169050919050565b6000620001e982620001bc565b9050919050565b620001fb81620001dc565b81146200020757600080fd5b50565b6000815190506200021b81620001f0565b92915050565b6000819050919050565b620002368162000221565b81146200024257600080fd5b50565b60008151905062000256816200022b565b92915050565b600080600060608486031215620002785762000277620001b7565b5b600062000288868287016200020a565b93505060206200029b868287016200020a565b9250506040620002ae8682870162000245565b9150509250925092565b60805160a051611295620002e5600039600081816104c801526107030152600061043901526112956000f3fe608060405234801561001057600080fd5b50600436106100b45760003560e01c806368742da61161007157806368742da614610179578063715018a6146101955780638da5cb5b1461019f578063e755feda146101bd578063f2fde38b146101db578063fe7fbb36146101f7576100b4565b80631328c5b4146100b9578063284a2297146100d55780632ac6249c146100f157806339cbff121461010d5780634a4221771461012b57806364e7d89114610149575b600080fd5b6100d360048036038101906100ce9190610b0d565b610213565b005b6100ef60048036038101906100ea9190610b70565b61035f565b005b61010b60048036038101906101069190610bb0565b610624565b005b610115610679565b6040516101229190610c9b565b60405180910390f35b6101336106d1565b6040516101409190610ccc565b60405180910390f35b610163600480360381019061015e9190610bb0565b6106d7565b6040516101709190610d03565b60405180910390f35b610193600480360381019061018e9190610b0d565b6106f7565b005b61019d610820565b005b6101a7610834565b6040516101b49190610d2d565b60405180910390f35b6101c561085d565b6040516101d29190610d03565b60405180910390f35b6101f560048036038101906101f09190610b0d565b610870565b005b610211600480360381019061020c9190610d74565b6108f3565b005b61021b610960565b600073ffffffffffffffffffffffffffffffffffffffff16600160009054906101000a900473ffffffffffffffffffffffffffffffffffffffff1673ffffffffffffffffffffffffffffffffffffffff16146102ac576040517f08c379a00000000000000000000000000000000000000000000000000000000081526004016102a390610dfe565b60405180910390fd5b600073ffffffffffffffffffffffffffffffffffffffff168173ffffffffffffffffffffffffffffffffffffffff160361031b576040517f08c379a000000000000000000000000000000000000000000000000000000000815260040161031290610e6a565b60405180910390fd5b80600160006101000a81548173ffffffffffffffffffffffffffffffffffffffff021916908373ffffffffffffffffffffffffffffffffffffffff16021790555050565b600160149054906101000a900460ff1660ff1660016003600084815260200190815260200160002060009054906101000a900460ff1661039f9190610eb9565b60ff1611156103e3576040517f08c379a00000000000000000000000000000000000000000000000000000000081526004016103da90610f3c565b60405180910390fd5b60016003600083815260200190815260200160002060008282829054906101000a900460ff166104139190610eb9565b92506101000a81548160ff021916908360ff16021790555060006104356109de565b90507f000000000000000000000000000000000000000000000000000000000000000073ffffffffffffffffffffffffffffffffffffffff166323b872dd8230866040518463ffffffff1660e01b815260040161049493929190610f5c565b600060405180830381600087803b1580156104ae57600080fd5b505af11580156104c2573d6000803e3d6000fd5b505050507f000000000000000000000000000000000000000000000000000000000000000073ffffffffffffffffffffffffffffffffffffffff166323b872dd82306002546040518463ffffffff1660e01b815260040161052593929190610f5c565b6020604051808303816000875af1158015610544573d6000803e3d6000fd5b505050506040513d601f19601f820116820180604052508101906105689190610fcb565b506004839080600181540180825580915050600190039060005260206000200160009091909190915055600160009054906101000a900473ffffffffffffffffffffffffffffffffffffffff1673ffffffffffffffffffffffffffffffffffffffff16638afe22c8826040518263ffffffff1660e01b81526004016105ed9190610d2d565b600060405180830381600087803b15801561060757600080fd5b505af115801561061b573d6000803e3d6000fd5b50505050505050565b61062c610960565b6000811161066f576040517f08c379a000000000000000000000000000000000000000000000000000000000815260040161066690611044565b60405180910390fd5b8060028190555050565b606060048054806020026020016040519081016040528092919081815260200182805480156106c757602002820191906000526020600020905b8154815260200190600101908083116106b3575b5050505050905090565b60025481565b60036020528060005260406000206000915054906101000a900460ff1681565b6106ff610960565b60007f000000000000000000000000000000000000000000000000000000000000000090508073ffffffffffffffffffffffffffffffffffffffff1663a9059cbb838373ffffffffffffffffffffffffffffffffffffffff166370a08231306040518263ffffffff1660e01b815260040161077a9190610d2d565b602060405180830381865afa158015610797573d6000803e3d6000fd5b505050506040513d601f19601f820116820180604052508101906107bb9190611079565b6040518363ffffffff1660e01b81526004016107d89291906110a6565b6020604051808303816000875af11580156107f7573d6000803e3d6000fd5b505050506040513d601f19601f8201168201806040525081019061081b9190610fcb565b505050565b610828610960565b61083260006109e6565b565b60008060009054906101000a900473ffffffffffffffffffffffffffffffffffffffff16905090565b600160149054906101000a900460ff1681565b610878610960565b600073ffffffffffffffffffffffffffffffffffffffff168173ffffffffffffffffffffffffffffffffffffffff16036108e7576040517f08c379a00000000000000000000000000000000000000000000000000000000081526004016108de90611141565b60405180910390fd5b6108f0816109e6565b50565b6108fb610960565b60018160ff161015610942576040517f08c379a0000000000000000000000000000000000000000000000000000000008152600401610939906111d3565b60405180910390fd5b80600160146101000a81548160ff021916908360ff16021790555050565b6109686109de565b73ffffffffffffffffffffffffffffffffffffffff16610986610834565b73ffffffffffffffffffffffffffffffffffffffff16146109dc576040517f08c379a00000000000000000000000000000000000000000000000000000000081526004016109d39061123f565b60405180910390fd5b565b600033905090565b60008060009054906101000a900473ffffffffffffffffffffffffffffffffffffffff169050816000806101000a81548173ffffffffffffffffffffffffffffffffffffffff021916908373ffffffffffffffffffffffffffffffffffffffff1602179055508173ffffffffffffffffffffffffffffffffffffffff168173ffffffffffffffffffffffffffffffffffffffff167f8be0079c531659141344cd1fd0a4f28419497f9722a3daafe3b4186f6b6457e060405160405180910390a35050565b600080fd5b600073ffffffffffffffffffffffffffffffffffffffff82169050919050565b6000610ada82610aaf565b9050919050565b610aea81610acf565b8114610af557600080fd5b50565b600081359050610b0781610ae1565b92915050565b600060208284031215610b2357610b22610aaa565b5b6000610b3184828501610af8565b91505092915050565b6000819050919050565b610b4d81610b3a565b8114610b5857600080fd5b50565b600081359050610b6a81610b44565b92915050565b60008060408385031215610b8757610b86610aaa565b5b6000610b9585828601610b5b565b9250506020610ba685828601610b5b565b9150509250929050565b600060208284031215610bc657610bc5610aaa565b5b6000610bd484828501610b5b565b91505092915050565b600081519050919050565b600082825260208201905092915050565b6000819050602082019050919050565b610c1281610b3a565b82525050565b6000610c248383610c09565b60208301905092915050565b6000602082019050919050565b6000610c4882610bdd565b610c528185610be8565b9350610c5d83610bf9565b8060005b83811015610c8e578151610c758882610c18565b9750610c8083610c30565b925050600181019050610c61565b5085935050505092915050565b60006020820190508181036000830152610cb58184610c3d565b905092915050565b610cc681610b3a565b82525050565b6000602082019050610ce16000830184610cbd565b92915050565b600060ff82169050919050565b610cfd81610ce7565b82525050565b6000602082019050610d186000830184610cf4565b92915050565b610d2781610acf565b82525050565b6000602082019050610d426000830184610d1e565b92915050565b610d5181610ce7565b8114610d5c57600080fd5b50565b600081359050610d6e81610d48565b92915050565b600060208284031215610d8a57610d89610aaa565b5b6000610d9884828501610d5f565b91505092915050565b600082825260208201905092915050565b7f436f6e747261637420616c726561647920736574000000000000000000000000600082015250565b6000610de8601483610da1565b9150610df382610db2565b602082019050919050565b60006020820190508181036000830152610e1781610ddb565b9050919050565b7f436f6e7472616374206164647265737320697320300000000000000000000000600082015250565b6000610e54601583610da1565b9150610e5f82610e1e565b602082019050919050565b60006020820190508181036000830152610e8381610e47565b9050919050565b7f4e487b7100000000000000000000000000000000000000000000000000000000600052601160045260246000fd5b6000610ec482610ce7565b9150610ecf83610ce7565b92508260ff03821115610ee557610ee4610e8a565b5b828201905092915050565b7f4375622072656163686564206d61780000000000000000000000000000000000600082015250565b6000610f26600f83610da1565b9150610f3182610ef0565b602082019050919050565b60006020820190508181036000830152610f5581610f19565b9050919050565b6000606082019050610f716000830186610d1e565b610f7e6020830185610d1e565b610f8b6040830184610cbd565b949350505050565b60008115159050919050565b610fa881610f93565b8114610fb357600080fd5b50565b600081519050610fc581610f9f565b92915050565b600060208284031215610fe157610fe0610aaa565b5b6000610fef84828501610fb6565b91505092915050565b7f4d657267652070726963652063616e6e6f206265203000000000000000000000600082015250565b600061102e601683610da1565b915061103982610ff8565b602082019050919050565b6000602082019050818103600083015261105d81611021565b9050919050565b60008151905061107381610b44565b92915050565b60006020828403121561108f5761108e610aaa565b5b600061109d84828501611064565b91505092915050565b60006040820190506110bb6000830185610d1e565b6110c86020830184610cbd565b9392505050565b7f4f776e61626c653a206e6577206f776e657220697320746865207a65726f206160008201527f6464726573730000000000000000000000000000000000000000000000000000602082015250565b600061112b602683610da1565b9150611136826110cf565b604082019050919050565b6000602082019050818103600083015261115a8161111e565b9050919050565b7f6375624d617854696d6573416c6c6f776564546f5573652076616c7565206d7560008201527f7374206265206d6f7265207468616e2030000000000000000000000000000000602082015250565b60006111bd603183610da1565b91506111c882611161565b604082019050919050565b600060208201905081810360008301526111ec816111b0565b9050919050565b7f4f776e61626c653a2063616c6c6572206973206e6f7420746865206f776e6572600082015250565b6000611229602083610da1565b9150611234826111f3565b602082019050919050565b600060208201905081810360008301526112588161121c565b905091905056fea264697066735822122097337aaf17184d230c331862dc34d9aee138c67d0aef226068fd44daf79a740c64736f6c634300080d0033",
  "linkReferences": {},
  "deployedLinkReferences": {}
}