{
  "_format": "hh-sol-artifact-1",
  "contractName": "CyberLionzAdults",
  "sourceName": "contracts/CyberLionzAdults.sol",
  "abi": [
    {
      "inputs": [
        {
          "internalType": "string",
          "name": "baseUri",
          "type": "string"
        },
        {
          "internalType": "bytes32",
          "name": "merkleRoot",
          "type": "bytes32"
        },
        {
          "internalType": "address",
          "name": "revenueRecipient",
          "type": "address"
        },
        {
          "internalType": "address",
          "name": "cyberlionzMerger",
          "type": "address"
        }
      ],
      "stateMutability": "nonpayable",
      "type": "constructor"
    },
    {
      "anonymous": false,
      "inputs": [
        {
          "indexed": true,
          "internalType": "address",
          "name": "owner",
          "type": "address"
        },
        {
          "indexed": true,
          "internalType": "address",
          "name": "approved",
          "type": "address"
        },
        {
          "indexed": true,
          "internalType": "uint256",
          "name": "tokenId",
          "type": "uint256"
        }
      ],
      "name": "Approval",
      "type": "event"
    },
    {
      "anonymous": false,
      "inputs": [
        {
          "indexed": true,
          "internalType": "address",
          "name": "owner",
          "type": "address"
        },
        {
          "indexed": true,
          "internalType": "address",
          "name": "operator",
          "type": "address"
        },
        {
          "indexed": false,
          "internalType": "bool",
          "name": "approved",
          "type": "bool"
        }
      ],
      "name": "ApprovalForAll",
      "type": "event"
    },
    {
      "anonymous": false,
      "inputs": [
        {
          "indexed": true,
          "internalType": "address",
          "name": "previousOwner",
          "type": "address"
        },
        {
          "indexed": true,
          "internalType": "address",
          "name": "newOwner",
          "type": "address"
        }
      ],
      "name": "OwnershipTransferred",
      "type": "event"
    },
    {
      "anonymous": false,
      "inputs": [
        {
          "indexed": true,
          "internalType": "address",
          "name": "from",
          "type": "address"
        },
        {
          "indexed": true,
          "internalType": "address",
          "name": "to",
          "type": "address"
        },
        {
          "indexed": true,
          "internalType": "uint256",
          "name": "tokenId",
          "type": "uint256"
        }
      ],
      "name": "Transfer",
      "type": "event"
    },
    {
      "inputs": [],
      "name": "COLLECTION_SIZE",
      "outputs": [
        {
          "internalType": "uint256",
          "name": "",
          "type": "uint256"
        }
      ],
      "stateMutability": "view",
      "type": "function"
    },
    {
      "inputs": [],
      "name": "MINT_PRICE",
      "outputs": [
        {
          "internalType": "uint256",
          "name": "",
          "type": "uint256"
        }
      ],
      "stateMutability": "view",
      "type": "function"
    },
    {
      "inputs": [],
      "name": "PUBLIC_MINT_LIMIT",
      "outputs": [
        {
          "internalType": "uint256",
          "name": "",
          "type": "uint256"
        }
      ],
      "stateMutability": "view",
      "type": "function"
    },
    {
      "inputs": [
        {
          "internalType": "address",
          "name": "to",
          "type": "address"
        },
        {
          "internalType": "uint256",
          "name": "count",
          "type": "uint256"
        }
      ],
      "name": "airdrop",
      "outputs": [],
      "stateMutability": "nonpayable",
      "type": "function"
    },
    {
      "inputs": [],
      "name": "airdropped",
      "outputs": [
        {
          "internalType": "uint256",
          "name": "",
          "type": "uint256"
        }
      ],
      "stateMutability": "view",
      "type": "function"
    },
    {
      "inputs": [
        {
          "internalType": "address",
          "name": "to",
          "type": "address"
        },
        {
          "internalType": "uint256",
          "name": "tokenId",
          "type": "uint256"
        }
      ],
      "name": "approve",
      "outputs": [],
      "stateMutability": "nonpayable",
      "type": "function"
    },
    {
      "inputs": [
        {
          "internalType": "address",
          "name": "owner",
          "type": "address"
        }
      ],
      "name": "balanceOf",
      "outputs": [
        {
          "internalType": "uint256",
          "name": "",
          "type": "uint256"
        }
      ],
      "stateMutability": "view",
      "type": "function"
    },
    {
      "inputs": [],
      "name": "finalizeMetadata",
      "outputs": [],
      "stateMutability": "nonpayable",
      "type": "function"
    },
    {
      "inputs": [],
      "name": "finalized",
      "outputs": [
        {
          "internalType": "bool",
          "name": "",
          "type": "bool"
        }
      ],
      "stateMutability": "view",
      "type": "function"
    },
    {
      "inputs": [
        {
          "internalType": "uint256",
          "name": "tokenId",
          "type": "uint256"
        }
      ],
      "name": "getApproved",
      "outputs": [
        {
          "internalType": "address",
          "name": "",
          "type": "address"
        }
      ],
      "stateMutability": "view",
      "type": "function"
    },
    {
      "inputs": [
        {
          "internalType": "address",
          "name": "owner",
          "type": "address"
        },
        {
          "internalType": "address",
          "name": "operator",
          "type": "address"
        }
      ],
      "name": "isApprovedForAll",
      "outputs": [
        {
          "internalType": "bool",
          "name": "",
          "type": "bool"
        }
      ],
      "stateMutability": "view",
      "type": "function"
    },
    {
      "inputs": [
        {
          "internalType": "uint256",
          "name": "count",
          "type": "uint256"
        }
      ],
      "name": "mint",
      "outputs": [],
      "stateMutability": "payable",
      "type": "function"
    },
    {
      "inputs": [
        {
          "internalType": "address",
          "name": "to",
          "type": "address"
        }
      ],
      "name": "mintFromMerger",
      "outputs": [],
      "stateMutability": "nonpayable",
      "type": "function"
    },
    {
      "inputs": [],
      "name": "name",
      "outputs": [
        {
          "internalType": "string",
          "name": "",
          "type": "string"
        }
      ],
      "stateMutability": "view",
      "type": "function"
    },
    {
      "inputs": [
        {
          "internalType": "address",
          "name": "addr",
          "type": "address"
        },
        {
          "internalType": "bytes32[]",
          "name": "_merkleProof",
          "type": "bytes32[]"
        }
      ],
      "name": "onWhitelist",
      "outputs": [
        {
          "internalType": "bool",
          "name": "",
          "type": "bool"
        }
      ],
      "stateMutability": "view",
      "type": "function"
    },
    {
      "inputs": [],
      "name": "owner",
      "outputs": [
        {
          "internalType": "address",
          "name": "",
          "type": "address"
        }
      ],
      "stateMutability": "view",
      "type": "function"
    },
    {
      "inputs": [
        {
          "internalType": "uint256",
          "name": "tokenId",
          "type": "uint256"
        }
      ],
      "name": "ownerOf",
      "outputs": [
        {
          "internalType": "address",
          "name": "",
          "type": "address"
        }
      ],
      "stateMutability": "view",
      "type": "function"
    },
    {
      "inputs": [],
      "name": "presaleMerkleRoot",
      "outputs": [
        {
          "internalType": "bytes32",
          "name": "",
          "type": "bytes32"
        }
      ],
      "stateMutability": "view",
      "type": "function"
    },
    {
      "inputs": [
        {
          "internalType": "bytes32[]",
          "name": "_merkleProof",
          "type": "bytes32[]"
        }
      ],
      "name": "presaleMint",
      "outputs": [],
      "stateMutability": "payable",
      "type": "function"
    },
    {
      "inputs": [],
      "name": "renounceOwnership",
      "outputs": [],
      "stateMutability": "nonpayable",
      "type": "function"
    },
    {
      "inputs": [
        {
          "internalType": "address",
          "name": "from",
          "type": "address"
        },
        {
          "internalType": "address",
          "name": "to",
          "type": "address"
        },
        {
          "internalType": "uint256",
          "name": "tokenId",
          "type": "uint256"
        }
      ],
      "name": "safeTransferFrom",
      "outputs": [],
      "stateMutability": "nonpayable",
      "type": "function"
    },
    {
      "inputs": [
        {
          "internalType": "address",
          "name": "from",
          "type": "address"
        },
        {
          "internalType": "address",
          "name": "to",
          "type": "address"
        },
        {
          "internalType": "uint256",
          "name": "tokenId",
          "type": "uint256"
        },
        {
          "internalType": "bytes",
          "name": "_data",
          "type": "bytes"
        }
      ],
      "name": "safeTransferFrom",
      "outputs": [],
      "stateMutability": "nonpayable",
      "type": "function"
    },
    {
      "inputs": [],
      "name": "saleStatus",
      "outputs": [
        {
          "internalType": "enum CyberLionzAdults.SaleStatus",
          "name": "",
          "type": "uint8"
        }
      ],
      "stateMutability": "view",
      "type": "function"
    },
    {
      "inputs": [
        {
          "internalType": "address",
          "name": "operator",
          "type": "address"
        },
        {
          "internalType": "bool",
          "name": "approved",
          "type": "bool"
        }
      ],
      "name": "setApprovalForAll",
      "outputs": [],
      "stateMutability": "nonpayable",
      "type": "function"
    },
    {
      "inputs": [
        {
          "internalType": "string",
          "name": "baseUri",
          "type": "string"
        }
      ],
      "name": "setBaseURI",
      "outputs": [],
      "stateMutability": "nonpayable",
      "type": "function"
    },
    {
      "inputs": [
        {
          "internalType": "uint256",
          "name": "newSize",
          "type": "uint256"
        }
      ],
      "name": "setCollectionSize",
      "outputs": [],
      "stateMutability": "nonpayable",
      "type": "function"
    },
    {
      "inputs": [
        {
          "internalType": "bytes32",
          "name": "merkleRoot",
          "type": "bytes32"
        }
      ],
      "name": "setPresaleMerkleRoot",
      "outputs": [],
      "stateMutability": "nonpayable",
      "type": "function"
    },
    {
      "inputs": [
        {
          "internalType": "enum CyberLionzAdults.SaleStatus",
          "name": "status",
          "type": "uint8"
        }
      ],
      "name": "setSaleStatus",
      "outputs": [],
      "stateMutability": "nonpayable",
      "type": "function"
    },
    {
      "inputs": [
        {
          "internalType": "bytes4",
          "name": "interfaceId",
          "type": "bytes4"
        }
      ],
      "name": "supportsInterface",
      "outputs": [
        {
          "internalType": "bool",
          "name": "",
          "type": "bool"
        }
      ],
      "stateMutability": "view",
      "type": "function"
    },
    {
      "inputs": [],
      "name": "symbol",
      "outputs": [
        {
          "internalType": "string",
          "name": "",
          "type": "string"
        }
      ],
      "stateMutability": "view",
      "type": "function"
    },
    {
      "inputs": [
        {
          "internalType": "uint256",
          "name": "tokenId",
          "type": "uint256"
        }
      ],
      "name": "tokenURI",
      "outputs": [
        {
          "internalType": "string",
          "name": "",
          "type": "string"
        }
      ],
      "stateMutability": "view",
      "type": "function"
    },
    {
      "inputs": [],
      "name": "totalSupply",
      "outputs": [
        {
          "internalType": "uint256",
          "name": "",
          "type": "uint256"
        }
      ],
      "stateMutability": "view",
      "type": "function"
    },
    {
      "inputs": [
        {
          "internalType": "address",
          "name": "from",
          "type": "address"
        },
        {
          "internalType": "address",
          "name": "to",
          "type": "address"
        },
        {
          "internalType": "uint256",
          "name": "tokenId",
          "type": "uint256"
        }
      ],
      "name": "transferFrom",
      "outputs": [],
      "stateMutability": "nonpayable",
      "type": "function"
    },
    {
      "inputs": [
        {
          "internalType": "address",
          "name": "newOwner",
          "type": "address"
        }
      ],
      "name": "transferOwnership",
      "outputs": [],
      "stateMutability": "nonpayable",
      "type": "function"
    },
    {
      "inputs": [],
      "name": "withdraw",
      "outputs": [],
      "stateMutability": "nonpayable",
      "type": "function"
    }
  ],
  "bytecode": "0x60c06040526101f46009556000600a60006101000a81548160ff021916908360028111156200003357620000326200035b565b5b02179055506000600a60016101000a81548160ff0219169083151502179055506000600b553480156200006557600080fd5b50604051620051dd380380620051dd83398181016040528101906200008b9190620005c7565b6040518060400160405280601081526020017f43796265724c696f6e7a4164756c7473000000000000000000000000000000008152506040518060400160405280600381526020017f434c41000000000000000000000000000000000000000000000000000000000081525081600090805190602001906200010f929190620002ab565b50806001908051906020019062000128929190620002ab565b5050506200014b6200013f620001dd60201b60201c565b620001e560201b60201c565b83600c908051906020019062000163929190620002ab565b50826008819055508173ffffffffffffffffffffffffffffffffffffffff1660808173ffffffffffffffffffffffffffffffffffffffff16815250508073ffffffffffffffffffffffffffffffffffffffff1660a08173ffffffffffffffffffffffffffffffffffffffff168152505050505050620006bc565b600033905090565b6000600660009054906101000a900473ffffffffffffffffffffffffffffffffffffffff16905081600660006101000a81548173ffffffffffffffffffffffffffffffffffffffff021916908373ffffffffffffffffffffffffffffffffffffffff1602179055508173ffffffffffffffffffffffffffffffffffffffff168173ffffffffffffffffffffffffffffffffffffffff167f8be0079c531659141344cd1fd0a4f28419497f9722a3daafe3b4186f6b6457e060405160405180910390a35050565b828054620002b99062000687565b90600052602060002090601f016020900481019282620002dd576000855562000329565b82601f10620002f857805160ff191683800117855562000329565b8280016001018555821562000329579182015b82811115620003285782518255916020019190600101906200030b565b5b5090506200033891906200033c565b5090565b5b80821115620003575760008160009055506001016200033d565b5090565b7f4e487b7100000000000000000000000000000000000000000000000000000000600052602160045260246000fd5b6000604051905090565b600080fd5b600080fd5b600080fd5b600080fd5b6000601f19601f8301169050919050565b7f4e487b7100000000000000000000000000000000000000000000000000000000600052604160045260246000fd5b620003f382620003a8565b810181811067ffffffffffffffff82111715620004155762000414620003b9565b5b80604052505050565b60006200042a6200038a565b9050620004388282620003e8565b919050565b600067ffffffffffffffff8211156200045b576200045a620003b9565b5b6200046682620003a8565b9050602081019050919050565b60005b838110156200049357808201518184015260208101905062000476565b83811115620004a3576000848401525b50505050565b6000620004c0620004ba846200043d565b6200041e565b905082815260208101848484011115620004df57620004de620003a3565b5b620004ec84828562000473565b509392505050565b600082601f8301126200050c576200050b6200039e565b5b81516200051e848260208601620004a9565b91505092915050565b6000819050919050565b6200053c8162000527565b81146200054857600080fd5b50565b6000815190506200055c8162000531565b92915050565b600073ffffffffffffffffffffffffffffffffffffffff82169050919050565b60006200058f8262000562565b9050919050565b620005a18162000582565b8114620005ad57600080fd5b50565b600081519050620005c18162000596565b92915050565b60008060008060808587031215620005e457620005e362000394565b5b600085015167ffffffffffffffff81111562000605576200060462000399565b5b6200061387828801620004f4565b945050602062000626878288016200054b565b93505060406200063987828801620005b0565b92505060606200064c87828801620005b0565b91505092959194509250565b7f4e487b7100000000000000000000000000000000000000000000000000000000600052602260045260246000fd5b60006002820490506001821680620006a057607f821691505b602082108103620006b657620006b562000658565b5b50919050565b60805160a051614afb620006e2600039600061111201526000610ca50152614afb6000f3fe6080604052600436106102045760003560e01c80638ba4cc3c11610118578063c002d23d116100a0578063e985e9c51161006f578063e985e9c514610732578063edc0c72c1461076f578063f2fde38b1461078b578063f4a560a5146107b4578063f9020e33146107cb57610204565b8063c002d23d14610662578063c87b56dd1461068d578063c9d40e18146106ca578063d8258d951461070757610204565b8063a22cb465116100e7578063a22cb46514610591578063aca8ffe7146105ba578063b3f05b97146105e3578063b88d4fde1461060e578063bceae77b1461063757610204565b80638ba4cc3c146104f65780638da5cb5b1461051f57806395d89b411461054a578063a0712d681461057557610204565b806328d7b2761161019b57806355f804b31161016a57806355f804b3146104135780636352211e1461043c57806370a0823114610479578063715018a6146104b65780638afe22c8146104cd57610204565b806328d7b276146103815780633ccfd60b146103aa57806342842e0e146103c15780634891ad88146103ea57610204565b806318160ddd116101d757806318160ddd146102d757806319cc02aa1461030257806322212e2b1461032d57806323b872dd1461035857610204565b806301ffc9a71461020957806306fdde0314610246578063081812fc14610271578063095ea7b3146102ae575b600080fd5b34801561021557600080fd5b50610230600480360381019061022b9190612c5e565b6107f6565b60405161023d9190612ca6565b60405180910390f35b34801561025257600080fd5b5061025b6108d8565b6040516102689190612d5a565b60405180910390f35b34801561027d57600080fd5b5061029860048036038101906102939190612db2565b61096a565b6040516102a59190612e20565b60405180910390f35b3480156102ba57600080fd5b506102d560048036038101906102d09190612e67565b6109ef565b005b3480156102e357600080fd5b506102ec610b06565b6040516102f99190612eb6565b60405180910390f35b34801561030e57600080fd5b50610317610b17565b6040516103249190612eb6565b60405180910390f35b34801561033957600080fd5b50610342610b1d565b60405161034f9190612eea565b60405180910390f35b34801561036457600080fd5b5061037f600480360381019061037a9190612f05565b610b23565b005b34801561038d57600080fd5b506103a860048036038101906103a39190612f84565b610b83565b005b3480156103b657600080fd5b506103bf610c59565b005b3480156103cd57600080fd5b506103e860048036038101906103e39190612f05565b610d71565b005b3480156103f657600080fd5b50610411600480360381019061040c9190612fd6565b610d91565b005b34801561041f57600080fd5b5061043a60048036038101906104359190613138565b610e3a565b005b34801561044857600080fd5b50610463600480360381019061045e9190612db2565b610f20565b6040516104709190612e20565b60405180910390f35b34801561048557600080fd5b506104a0600480360381019061049b9190613181565b610fd1565b6040516104ad9190612eb6565b60405180910390f35b3480156104c257600080fd5b506104cb611088565b005b3480156104d957600080fd5b506104f460048036038101906104ef9190613181565b611110565b005b34801561050257600080fd5b5061051d60048036038101906105189190612e67565b6111b3565b005b34801561052b57600080fd5b50610534611300565b6040516105419190612e20565b60405180910390f35b34801561055657600080fd5b5061055f61132a565b60405161056c9190612d5a565b60405180910390f35b61058f600480360381019061058a9190612db2565b6113bc565b005b34801561059d57600080fd5b506105b860048036038101906105b391906131da565b6115d1565b005b3480156105c657600080fd5b506105e160048036038101906105dc9190612db2565b6115e7565b005b3480156105ef57600080fd5b506105f861166d565b6040516106059190612ca6565b60405180910390f35b34801561061a57600080fd5b50610635600480360381019061063091906132bb565b611680565b005b34801561064357600080fd5b5061064c6116e2565b6040516106599190612eb6565b60405180910390f35b34801561066e57600080fd5b506106776116e7565b6040516106849190612eb6565b60405180910390f35b34801561069957600080fd5b506106b460048036038101906106af9190612db2565b6116f3565b6040516106c19190612d5a565b60405180910390f35b3480156106d657600080fd5b506106f160048036038101906106ec919061339e565b611775565b6040516106fe9190612ca6565b60405180910390f35b34801561071357600080fd5b5061071c6117fb565b6040516107299190612eb6565b60405180910390f35b34801561073e57600080fd5b50610759600480360381019061075491906133fe565b611801565b6040516107669190612ca6565b60405180910390f35b6107896004803603810190610784919061343e565b611895565b005b34801561079757600080fd5b506107b260048036038101906107ad9190613181565b611aee565b005b3480156107c057600080fd5b506107c9611be5565b005b3480156107d757600080fd5b506107e0611cce565b6040516107ed9190613502565b60405180910390f35b60007f80ac58cd000000000000000000000000000000000000000000000000000000007bffffffffffffffffffffffffffffffffffffffffffffffffffffffff1916827bffffffffffffffffffffffffffffffffffffffffffffffffffffffff191614806108c157507f5b5e139f000000000000000000000000000000000000000000000000000000007bffffffffffffffffffffffffffffffffffffffffffffffffffffffff1916827bffffffffffffffffffffffffffffffffffffffffffffffffffffffff1916145b806108d157506108d082611ce1565b5b9050919050565b6060600080546108e79061354c565b80601f01602080910402602001604051908101604052809291908181526020018280546109139061354c565b80156109605780601f1061093557610100808354040283529160200191610960565b820191906000526020600020905b81548152906001019060200180831161094357829003601f168201915b5050505050905090565b600061097582611d4b565b6109b4576040517f08c379a00000000000000000000000000000000000000000000000000000000081526004016109ab906135ef565b60405180910390fd5b6004600083815260200190815260200160002060009054906101000a900473ffffffffffffffffffffffffffffffffffffffff169050919050565b60006109fa82610f20565b90508073ffffffffffffffffffffffffffffffffffffffff168373ffffffffffffffffffffffffffffffffffffffff1603610a6a576040517f08c379a0000000000000000000000000000000000000000000000000000000008152600401610a6190613681565b60405180910390fd5b8073ffffffffffffffffffffffffffffffffffffffff16610a89611db7565b73ffffffffffffffffffffffffffffffffffffffff161480610ab85750610ab781610ab2611db7565b611801565b5b610af7576040517f08c379a0000000000000000000000000000000000000000000000000000000008152600401610aee90613713565b60405180910390fd5b610b018383611dbf565b505050565b6000610b126007611e78565b905090565b600b5481565b60085481565b610b34610b2e611db7565b82611e86565b610b73576040517f08c379a0000000000000000000000000000000000000000000000000000000008152600401610b6a906137a5565b60405180910390fd5b610b7e838383611f64565b505050565b610b8b611db7565b73ffffffffffffffffffffffffffffffffffffffff16610ba9611300565b73ffffffffffffffffffffffffffffffffffffffff1614610bff576040517f08c379a0000000000000000000000000000000000000000000000000000000008152600401610bf690613811565b60405180910390fd5b600a60019054906101000a900460ff1615610c4f576040517f08c379a0000000000000000000000000000000000000000000000000000000008152600401610c46906138a3565b60405180910390fd5b8060088190555050565b600047905060008111610ca1576040517f08c379a0000000000000000000000000000000000000000000000000000000008152600401610c989061390f565b60405180910390fd5b60007f000000000000000000000000000000000000000000000000000000000000000073ffffffffffffffffffffffffffffffffffffffff1682604051610ce790613960565b60006040518083038185875af1925050503d8060008114610d24576040519150601f19603f3d011682016040523d82523d6000602084013e610d29565b606091505b5050905080610d6d576040517f08c379a0000000000000000000000000000000000000000000000000000000008152600401610d64906139c1565b60405180910390fd5b5050565b610d8c83838360405180602001604052806000815250611680565b505050565b610d99611db7565b73ffffffffffffffffffffffffffffffffffffffff16610db7611300565b73ffffffffffffffffffffffffffffffffffffffff1614610e0d576040517f08c379a0000000000000000000000000000000000000000000000000000000008152600401610e0490613811565b60405180910390fd5b80600a60006101000a81548160ff02191690836002811115610e3257610e3161348b565b5b021790555050565b610e42611db7565b73ffffffffffffffffffffffffffffffffffffffff16610e60611300565b73ffffffffffffffffffffffffffffffffffffffff1614610eb6576040517f08c379a0000000000000000000000000000000000000000000000000000000008152600401610ead90613811565b60405180910390fd5b600a60019054906101000a900460ff1615610f06576040517f08c379a0000000000000000000000000000000000000000000000000000000008152600401610efd90613a53565b60405180910390fd5b80600c9080519060200190610f1c929190612b4f565b5050565b6000806002600084815260200190815260200160002060009054906101000a900473ffffffffffffffffffffffffffffffffffffffff169050600073ffffffffffffffffffffffffffffffffffffffff168173ffffffffffffffffffffffffffffffffffffffff1603610fc8576040517f08c379a0000000000000000000000000000000000000000000000000000000008152600401610fbf90613ae5565b60405180910390fd5b80915050919050565b60008073ffffffffffffffffffffffffffffffffffffffff168273ffffffffffffffffffffffffffffffffffffffff1603611041576040517f08c379a000000000000000000000000000000000000000000000000000000000815260040161103890613b77565b60405180910390fd5b600360008373ffffffffffffffffffffffffffffffffffffffff1673ffffffffffffffffffffffffffffffffffffffff168152602001908152602001600020549050919050565b611090611db7565b73ffffffffffffffffffffffffffffffffffffffff166110ae611300565b73ffffffffffffffffffffffffffffffffffffffff1614611104576040517f08c379a00000000000000000000000000000000000000000000000000000000081526004016110fb90613811565b60405180910390fd5b61110e60006121ca565b565b7f000000000000000000000000000000000000000000000000000000000000000073ffffffffffffffffffffffffffffffffffffffff1661114f611db7565b73ffffffffffffffffffffffffffffffffffffffff16146111a5576040517f08c379a000000000000000000000000000000000000000000000000000000000815260040161119c90613be3565b60405180910390fd5b6111b0816001612290565b50565b6111bb611db7565b73ffffffffffffffffffffffffffffffffffffffff166111d9611300565b73ffffffffffffffffffffffffffffffffffffffff161461122f576040517f08c379a000000000000000000000000000000000000000000000000000000000815260040161122690613811565b60405180910390fd5b600f81600b5461123f9190613c32565b1115611280576040517f08c379a000000000000000000000000000000000000000000000000000000000815260040161127790613cfa565b60405180910390fd5b6009548161128e6007611e78565b6112989190613c32565b11156112d9576040517f08c379a00000000000000000000000000000000000000000000000000000000081526004016112d090613d8c565b60405180910390fd5b80600b60008282546112eb9190613c32565b925050819055506112fc8282612290565b5050565b6000600660009054906101000a900473ffffffffffffffffffffffffffffffffffffffff16905090565b6060600180546113399061354c565b80601f01602080910402602001604051908101604052809291908181526020018280546113659061354c565b80156113b25780601f10611387576101008083540402835291602001916113b2565b820191906000526020600020905b81548152906001019060200180831161139557829003601f168201915b5050505050905090565b6002808111156113cf576113ce61348b565b5b600a60009054906101000a900460ff1660028111156113f1576113f061348b565b5b14611431576040517f08c379a000000000000000000000000000000000000000000000000000000000815260040161142890613df8565b60405180910390fd5b6701118f178fb48000816114459190613e18565b341015611487576040517f08c379a000000000000000000000000000000000000000000000000000000000815260040161147e90613ee4565b60405180910390fd5b600954816114956007611e78565b61149f9190613c32565b11156114e0576040517f08c379a00000000000000000000000000000000000000000000000000000000081526004016114d790613f76565b60405180910390fd5b600681600d60003373ffffffffffffffffffffffffffffffffffffffff1673ffffffffffffffffffffffffffffffffffffffff1681526020019081526020016000205461152d9190613c32565b111561156e576040517f08c379a000000000000000000000000000000000000000000000000000000000815260040161156590614008565b60405180910390fd5b80600d60003373ffffffffffffffffffffffffffffffffffffffff1673ffffffffffffffffffffffffffffffffffffffff16815260200190815260200160002060008282546115bd9190613c32565b925050819055506115ce3382612290565b50565b6115e36115dc611db7565b83836122d6565b5050565b6115ef611db7565b73ffffffffffffffffffffffffffffffffffffffff1661160d611300565b73ffffffffffffffffffffffffffffffffffffffff1614611663576040517f08c379a000000000000000000000000000000000000000000000000000000000815260040161165a90613811565b60405180910390fd5b8060098190555050565b600a60019054906101000a900460ff1681565b61169161168b611db7565b83611e86565b6116d0576040517f08c379a00000000000000000000000000000000000000000000000000000000081526004016116c7906137a5565b60405180910390fd5b6116dc84848484612442565b50505050565b600681565b6701118f178fb4800081565b60606116fe82611d4b565b61173d576040517f08c379a00000000000000000000000000000000000000000000000000000000081526004016117349061409a565b60405180910390fd5b61174561249e565b61174e83612530565b60405160200161175f929190614142565b6040516020818303038152906040529050919050565b6000600115156117ef848480806020026020016040519081016040528093929190818152602001838360200280828437600081840152601f19601f82011690508083019250505050505050600854876040516020016117d491906141b9565b60405160208183030381529060405280519060200120612690565b15151490509392505050565b60095481565b6000600560008473ffffffffffffffffffffffffffffffffffffffff1673ffffffffffffffffffffffffffffffffffffffff16815260200190815260200160002060008373ffffffffffffffffffffffffffffffffffffffff1673ffffffffffffffffffffffffffffffffffffffff16815260200190815260200160002060009054906101000a900460ff16905092915050565b600160028111156118a9576118a861348b565b5b600a60009054906101000a900460ff1660028111156118cb576118ca61348b565b5b1461190b576040517f08c379a000000000000000000000000000000000000000000000000000000000815260040161190290614220565b60405180910390fd5b611916338383611775565b611955576040517f08c379a000000000000000000000000000000000000000000000000000000000815260040161194c906142b2565b60405180910390fd5b6701118f178fb480003410156119a0576040517f08c379a000000000000000000000000000000000000000000000000000000000815260040161199790614344565b60405180910390fd5b60095460016119af6007611e78565b6119b99190613c32565b11156119fa576040517f08c379a00000000000000000000000000000000000000000000000000000000081526004016119f1906143d6565b60405180910390fd5b600e60003373ffffffffffffffffffffffffffffffffffffffff1673ffffffffffffffffffffffffffffffffffffffff16815260200190815260200160002060009054906101000a900460ff1615611a87576040517f08c379a0000000000000000000000000000000000000000000000000000000008152600401611a7e90614468565b60405180910390fd5b6001600e60003373ffffffffffffffffffffffffffffffffffffffff1673ffffffffffffffffffffffffffffffffffffffff16815260200190815260200160002060006101000a81548160ff021916908315150217905550611aea336001612290565b5050565b611af6611db7565b73ffffffffffffffffffffffffffffffffffffffff16611b14611300565b73ffffffffffffffffffffffffffffffffffffffff1614611b6a576040517f08c379a0000000000000000000000000000000000000000000000000000000008152600401611b6190613811565b60405180910390fd5b600073ffffffffffffffffffffffffffffffffffffffff168173ffffffffffffffffffffffffffffffffffffffff1603611bd9576040517f08c379a0000000000000000000000000000000000000000000000000000000008152600401611bd0906144fa565b60405180910390fd5b611be2816121ca565b50565b611bed611db7565b73ffffffffffffffffffffffffffffffffffffffff16611c0b611300565b73ffffffffffffffffffffffffffffffffffffffff1614611c61576040517f08c379a0000000000000000000000000000000000000000000000000000000008152600401611c5890613811565b60405180910390fd5b600a60019054906101000a900460ff1615611cb1576040517f08c379a0000000000000000000000000000000000000000000000000000000008152600401611ca890613a53565b60405180910390fd5b6001600a60016101000a81548160ff021916908315150217905550565b600a60009054906101000a900460ff1681565b60007f01ffc9a7000000000000000000000000000000000000000000000000000000007bffffffffffffffffffffffffffffffffffffffffffffffffffffffff1916827bffffffffffffffffffffffffffffffffffffffffffffffffffffffff1916149050919050565b60008073ffffffffffffffffffffffffffffffffffffffff166002600084815260200190815260200160002060009054906101000a900473ffffffffffffffffffffffffffffffffffffffff1673ffffffffffffffffffffffffffffffffffffffff1614159050919050565b600033905090565b816004600083815260200190815260200160002060006101000a81548173ffffffffffffffffffffffffffffffffffffffff021916908373ffffffffffffffffffffffffffffffffffffffff160217905550808273ffffffffffffffffffffffffffffffffffffffff16611e3283610f20565b73ffffffffffffffffffffffffffffffffffffffff167f8c5be1e5ebec7d5bd14f71427d1e84f3dd0314c0f7b2291e5b200ac8c7c3b92560405160405180910390a45050565b600081600001549050919050565b6000611e9182611d4b565b611ed0576040517f08c379a0000000000000000000000000000000000000000000000000000000008152600401611ec79061458c565b60405180910390fd5b6000611edb83610f20565b90508073ffffffffffffffffffffffffffffffffffffffff168473ffffffffffffffffffffffffffffffffffffffff161480611f1d5750611f1c8185611801565b5b80611f5b57508373ffffffffffffffffffffffffffffffffffffffff16611f438461096a565b73ffffffffffffffffffffffffffffffffffffffff16145b91505092915050565b8273ffffffffffffffffffffffffffffffffffffffff16611f8482610f20565b73ffffffffffffffffffffffffffffffffffffffff1614611fda576040517f08c379a0000000000000000000000000000000000000000000000000000000008152600401611fd19061461e565b60405180910390fd5b600073ffffffffffffffffffffffffffffffffffffffff168273ffffffffffffffffffffffffffffffffffffffff1603612049576040517f08c379a0000000000000000000000000000000000000000000000000000000008152600401612040906146b0565b60405180910390fd5b6120548383836126a7565b61205f600082611dbf565b6001600360008573ffffffffffffffffffffffffffffffffffffffff1673ffffffffffffffffffffffffffffffffffffffff16815260200190815260200160002060008282546120af91906146d0565b925050819055506001600360008473ffffffffffffffffffffffffffffffffffffffff1673ffffffffffffffffffffffffffffffffffffffff16815260200190815260200160002060008282546121069190613c32565b92505081905550816002600083815260200190815260200160002060006101000a81548173ffffffffffffffffffffffffffffffffffffffff021916908373ffffffffffffffffffffffffffffffffffffffff160217905550808273ffffffffffffffffffffffffffffffffffffffff168473ffffffffffffffffffffffffffffffffffffffff167fddf252ad1be2c89b69c2b068fc378daa952ba7f163c4a11628f55a4df523b3ef60405160405180910390a46121c58383836126ac565b505050565b6000600660009054906101000a900473ffffffffffffffffffffffffffffffffffffffff16905081600660006101000a81548173ffffffffffffffffffffffffffffffffffffffff021916908373ffffffffffffffffffffffffffffffffffffffff1602179055508173ffffffffffffffffffffffffffffffffffffffff168173ffffffffffffffffffffffffffffffffffffffff167f8be0079c531659141344cd1fd0a4f28419497f9722a3daafe3b4186f6b6457e060405160405180910390a35050565b60005b818110156122d1576122a560076126b1565b60006122b16007611e78565b90506122bd84826126c7565b5080806122c990614704565b915050612293565b505050565b8173ffffffffffffffffffffffffffffffffffffffff168373ffffffffffffffffffffffffffffffffffffffff1603612344576040517f08c379a000000000000000000000000000000000000000000000000000000000815260040161233b90614798565b60405180910390fd5b80600560008573ffffffffffffffffffffffffffffffffffffffff1673ffffffffffffffffffffffffffffffffffffffff16815260200190815260200160002060008473ffffffffffffffffffffffffffffffffffffffff1673ffffffffffffffffffffffffffffffffffffffff16815260200190815260200160002060006101000a81548160ff0219169083151502179055508173ffffffffffffffffffffffffffffffffffffffff168373ffffffffffffffffffffffffffffffffffffffff167f17307eab39ab6107e8899845ad3d59bd9653f200f220920489ca2b5937696c31836040516124359190612ca6565b60405180910390a3505050565b61244d848484611f64565b612459848484846126e5565b612498576040517f08c379a000000000000000000000000000000000000000000000000000000000815260040161248f9061482a565b60405180910390fd5b50505050565b6060600c80546124ad9061354c565b80601f01602080910402602001604051908101604052809291908181526020018280546124d99061354c565b80156125265780601f106124fb57610100808354040283529160200191612526565b820191906000526020600020905b81548152906001019060200180831161250957829003601f168201915b5050505050905090565b606060008203612577576040518060400160405280600181526020017f3000000000000000000000000000000000000000000000000000000000000000815250905061268b565b600082905060005b600082146125a957808061259290614704565b915050600a826125a29190614879565b915061257f565b60008167ffffffffffffffff8111156125c5576125c461300d565b5b6040519080825280601f01601f1916602001820160405280156125f75781602001600182028036833780820191505090505b5090505b600085146126845760018261261091906146d0565b9150600a8561261f91906148aa565b603061262b9190613c32565b60f81b818381518110612641576126406148db565b5b60200101907effffffffffffffffffffffffffffffffffffffffffffffffffffffffffffff1916908160001a905350600a8561267d9190614879565b94506125fb565b8093505050505b919050565b60008261269d858461286c565b1490509392505050565b505050565b505050565b6001816000016000828254019250508190555050565b6126e18282604051806020016040528060008152506128e1565b5050565b60006127068473ffffffffffffffffffffffffffffffffffffffff1661293c565b1561285f578373ffffffffffffffffffffffffffffffffffffffff1663150b7a0261272f611db7565b8786866040518563ffffffff1660e01b8152600401612751949392919061495f565b6020604051808303816000875af192505050801561278d57506040513d601f19601f8201168201806040525081019061278a91906149c0565b60015b61280f573d80600081146127bd576040519150601f19603f3d011682016040523d82523d6000602084013e6127c2565b606091505b506000815103612807576040517f08c379a00000000000000000000000000000000000000000000000000000000081526004016127fe9061482a565b60405180910390fd5b805181602001fd5b63150b7a0260e01b7bffffffffffffffffffffffffffffffffffffffffffffffffffffffff1916817bffffffffffffffffffffffffffffffffffffffffffffffffffffffff191614915050612864565b600190505b949350505050565b60008082905060005b84518110156128d6576000858281518110612893576128926148db565b5b602002602001015190508083116128b5576128ae838261295f565b92506128c2565b6128bf818461295f565b92505b5080806128ce90614704565b915050612875565b508091505092915050565b6128eb8383612976565b6128f860008484846126e5565b612937576040517f08c379a000000000000000000000000000000000000000000000000000000000815260040161292e9061482a565b60405180910390fd5b505050565b6000808273ffffffffffffffffffffffffffffffffffffffff163b119050919050565b600082600052816020526040600020905092915050565b600073ffffffffffffffffffffffffffffffffffffffff168273ffffffffffffffffffffffffffffffffffffffff16036129e5576040517f08c379a00000000000000000000000000000000000000000000000000000000081526004016129dc90614a39565b60405180910390fd5b6129ee81611d4b565b15612a2e576040517f08c379a0000000000000000000000000000000000000000000000000000000008152600401612a2590614aa5565b60405180910390fd5b612a3a600083836126a7565b6001600360008473ffffffffffffffffffffffffffffffffffffffff1673ffffffffffffffffffffffffffffffffffffffff1681526020019081526020016000206000828254612a8a9190613c32565b92505081905550816002600083815260200190815260200160002060006101000a81548173ffffffffffffffffffffffffffffffffffffffff021916908373ffffffffffffffffffffffffffffffffffffffff160217905550808273ffffffffffffffffffffffffffffffffffffffff16600073ffffffffffffffffffffffffffffffffffffffff167fddf252ad1be2c89b69c2b068fc378daa952ba7f163c4a11628f55a4df523b3ef60405160405180910390a4612b4b600083836126ac565b5050565b828054612b5b9061354c565b90600052602060002090601f016020900481019282612b7d5760008555612bc4565b82601f10612b9657805160ff1916838001178555612bc4565b82800160010185558215612bc4579182015b82811115612bc3578251825591602001919060010190612ba8565b5b509050612bd19190612bd5565b5090565b5b80821115612bee576000816000905550600101612bd6565b5090565b6000604051905090565b600080fd5b600080fd5b60007fffffffff0000000000000000000000000000000000000000000000000000000082169050919050565b612c3b81612c06565b8114612c4657600080fd5b50565b600081359050612c5881612c32565b92915050565b600060208284031215612c7457612c73612bfc565b5b6000612c8284828501612c49565b91505092915050565b60008115159050919050565b612ca081612c8b565b82525050565b6000602082019050612cbb6000830184612c97565b92915050565b600081519050919050565b600082825260208201905092915050565b60005b83811015612cfb578082015181840152602081019050612ce0565b83811115612d0a576000848401525b50505050565b6000601f19601f8301169050919050565b6000612d2c82612cc1565b612d368185612ccc565b9350612d46818560208601612cdd565b612d4f81612d10565b840191505092915050565b60006020820190508181036000830152612d748184612d21565b905092915050565b6000819050919050565b612d8f81612d7c565b8114612d9a57600080fd5b50565b600081359050612dac81612d86565b92915050565b600060208284031215612dc857612dc7612bfc565b5b6000612dd684828501612d9d565b91505092915050565b600073ffffffffffffffffffffffffffffffffffffffff82169050919050565b6000612e0a82612ddf565b9050919050565b612e1a81612dff565b82525050565b6000602082019050612e356000830184612e11565b92915050565b612e4481612dff565b8114612e4f57600080fd5b50565b600081359050612e6181612e3b565b92915050565b60008060408385031215612e7e57612e7d612bfc565b5b6000612e8c85828601612e52565b9250506020612e9d85828601612d9d565b9150509250929050565b612eb081612d7c565b82525050565b6000602082019050612ecb6000830184612ea7565b92915050565b6000819050919050565b612ee481612ed1565b82525050565b6000602082019050612eff6000830184612edb565b92915050565b600080600060608486031215612f1e57612f1d612bfc565b5b6000612f2c86828701612e52565b9350506020612f3d86828701612e52565b9250506040612f4e86828701612d9d565b9150509250925092565b612f6181612ed1565b8114612f6c57600080fd5b50565b600081359050612f7e81612f58565b92915050565b600060208284031215612f9a57612f99612bfc565b5b6000612fa884828501612f6f565b91505092915050565b60038110612fbe57600080fd5b50565b600081359050612fd081612fb1565b92915050565b600060208284031215612fec57612feb612bfc565b5b6000612ffa84828501612fc1565b91505092915050565b600080fd5b600080fd5b7f4e487b7100000000000000000000000000000000000000000000000000000000600052604160045260246000fd5b61304582612d10565b810181811067ffffffffffffffff821117156130645761306361300d565b5b80604052505050565b6000613077612bf2565b9050613083828261303c565b919050565b600067ffffffffffffffff8211156130a3576130a261300d565b5b6130ac82612d10565b9050602081019050919050565b82818337600083830152505050565b60006130db6130d684613088565b61306d565b9050828152602081018484840111156130f7576130f6613008565b5b6131028482856130b9565b509392505050565b600082601f83011261311f5761311e613003565b5b813561312f8482602086016130c8565b91505092915050565b60006020828403121561314e5761314d612bfc565b5b600082013567ffffffffffffffff81111561316c5761316b612c01565b5b6131788482850161310a565b91505092915050565b60006020828403121561319757613196612bfc565b5b60006131a584828501612e52565b91505092915050565b6131b781612c8b565b81146131c257600080fd5b50565b6000813590506131d4816131ae565b92915050565b600080604083850312156131f1576131f0612bfc565b5b60006131ff85828601612e52565b9250506020613210858286016131c5565b9150509250929050565b600067ffffffffffffffff8211156132355761323461300d565b5b61323e82612d10565b9050602081019050919050565b600061325e6132598461321a565b61306d565b90508281526020810184848401111561327a57613279613008565b5b6132858482856130b9565b509392505050565b600082601f8301126132a2576132a1613003565b5b81356132b284826020860161324b565b91505092915050565b600080600080608085870312156132d5576132d4612bfc565b5b60006132e387828801612e52565b94505060206132f487828801612e52565b935050604061330587828801612d9d565b925050606085013567ffffffffffffffff81111561332657613325612c01565b5b6133328782880161328d565b91505092959194509250565b600080fd5b600080fd5b60008083601f84011261335e5761335d613003565b5b8235905067ffffffffffffffff81111561337b5761337a61333e565b5b60208301915083602082028301111561339757613396613343565b5b9250929050565b6000806000604084860312156133b7576133b6612bfc565b5b60006133c586828701612e52565b935050602084013567ffffffffffffffff8111156133e6576133e5612c01565b5b6133f286828701613348565b92509250509250925092565b6000806040838503121561341557613414612bfc565b5b600061342385828601612e52565b925050602061343485828601612e52565b9150509250929050565b6000806020838503121561345557613454612bfc565b5b600083013567ffffffffffffffff81111561347357613472612c01565b5b61347f85828601613348565b92509250509250929050565b7f4e487b7100000000000000000000000000000000000000000000000000000000600052602160045260246000fd5b600381106134cb576134ca61348b565b5b50565b60008190506134dc826134ba565b919050565b60006134ec826134ce565b9050919050565b6134fc816134e1565b82525050565b600060208201905061351760008301846134f3565b92915050565b7f4e487b7100000000000000000000000000000000000000000000000000000000600052602260045260246000fd5b6000600282049050600182168061356457607f821691505b6020821081036135775761357661351d565b5b50919050565b7f4552433732313a20617070726f76656420717565727920666f72206e6f6e657860008201527f697374656e7420746f6b656e0000000000000000000000000000000000000000602082015250565b60006135d9602c83612ccc565b91506135e48261357d565b604082019050919050565b60006020820190508181036000830152613608816135cc565b9050919050565b7f4552433732313a20617070726f76616c20746f2063757272656e74206f776e6560008201527f7200000000000000000000000000000000000000000000000000000000000000602082015250565b600061366b602183612ccc565b91506136768261360f565b604082019050919050565b6000602082019050818103600083015261369a8161365e565b9050919050565b7f4552433732313a20617070726f76652063616c6c6572206973206e6f74206f7760008201527f6e6572206e6f7220617070726f76656420666f7220616c6c0000000000000000602082015250565b60006136fd603883612ccc565b9150613708826136a1565b604082019050919050565b6000602082019050818103600083015261372c816136f0565b9050919050565b7f4552433732313a207472616e736665722063616c6c6572206973206e6f74206f60008201527f776e6572206e6f7220617070726f766564000000000000000000000000000000602082015250565b600061378f603183612ccc565b915061379a82613733565b604082019050919050565b600060208201905081810360008301526137be81613782565b9050919050565b7f4f776e61626c653a2063616c6c6572206973206e6f7420746865206f776e6572600082015250565b60006137fb602083612ccc565b9150613806826137c5565b602082019050919050565b6000602082019050818103600083015261382a816137ee565b9050919050565b7f5468652070726573616c65206c69737420686173206265656e2066696e616c6960008201527f7a65642e00000000000000000000000000000000000000000000000000000000602082015250565b600061388d602483612ccc565b915061389882613831565b604082019050919050565b600060208201905081810360008301526138bc81613880565b9050919050565b7f77697468647261773a206e6f2062616c616e6365000000000000000000000000600082015250565b60006138f9601483612ccc565b9150613904826138c3565b602082019050919050565b60006020820190508181036000830152613928816138ec565b9050919050565b600081905092915050565b50565b600061394a60008361392f565b91506139558261393a565b600082019050919050565b600061396b8261393d565b9150819050919050565b7f77697468647261773a207769746864726177206661696c656400000000000000600082015250565b60006139ab601983612ccc565b91506139b682613975565b602082019050919050565b600060208201905081810360008301526139da8161399e565b9050919050565b7f4d657461646174612068617320616c7265616479206265656e2066696e616c6960008201527f7a65642e00000000000000000000000000000000000000000000000000000000602082015250565b6000613a3d602483612ccc565b9150613a48826139e1565b604082019050919050565b60006020820190508181036000830152613a6c81613a30565b9050919050565b7f4552433732313a206f776e657220717565727920666f72206e6f6e657869737460008201527f656e7420746f6b656e0000000000000000000000000000000000000000000000602082015250565b6000613acf602983612ccc565b9150613ada82613a73565b604082019050919050565b60006020820190508181036000830152613afe81613ac2565b9050919050565b7f4552433732313a2062616c616e636520717565727920666f7220746865207a6560008201527f726f206164647265737300000000000000000000000000000000000000000000602082015250565b6000613b61602a83612ccc565b9150613b6c82613b05565b604082019050919050565b60006020820190508181036000830152613b9081613b54565b9050919050565b7f53656e646572206973206e6f74206d6572676572000000000000000000000000600082015250565b6000613bcd601483612ccc565b9150613bd882613b97565b602082019050919050565b60006020820190508181036000830152613bfc81613bc0565b9050919050565b7f4e487b7100000000000000000000000000000000000000000000000000000000600052601160045260246000fd5b6000613c3d82612d7c565b9150613c4883612d7c565b9250827fffffffffffffffffffffffffffffffffffffffffffffffffffffffffffffffff03821115613c7d57613c7c613c03565b5b828201905092915050565b7f43616e206e6f742061697264726f70206d6f7265207468616e207075626c696360008201527f6c7920646973636c6f73656420746f207465616d000000000000000000000000602082015250565b6000613ce4603483612ccc565b9150613cef82613c88565b604082019050919050565b60006020820190508181036000830152613d1381613cd7565b9050919050565b7f4e756d626572206f6620746f6b656e732072657175657374656420657863656560008201527f647320636f6c6c656374696f6e2073697a650000000000000000000000000000602082015250565b6000613d76603283612ccc565b9150613d8182613d1a565b604082019050919050565b60006020820190508181036000830152613da581613d69565b9050919050565b7f5075626c6963206d696e74206973206e6f742061637469766500000000000000600082015250565b6000613de2601983612ccc565b9150613ded82613dac565b602082019050919050565b60006020820190508181036000830152613e1181613dd5565b9050919050565b6000613e2382612d7c565b9150613e2e83612d7c565b9250817fffffffffffffffffffffffffffffffffffffffffffffffffffffffffffffffff0483118215151615613e6757613e66613c03565b5b828202905092915050565b7f45746865722076616c75652073656e74206973206e6f7420737566666963696560008201527f6e74000000000000000000000000000000000000000000000000000000000000602082015250565b6000613ece602283612ccc565b9150613ed982613e72565b604082019050919050565b60006020820190508181036000830152613efd81613ec1565b9050919050565b7f4d696e74696e672074686973206d616e7920746f6b656e7320776f756c64206560008201527f78636565642074686520746f74616c20636f6c6c656374696f6e2073697a6500602082015250565b6000613f60603f83612ccc565b9150613f6b82613f04565b604082019050919050565b60006020820190508181036000830152613f8f81613f53565b9050919050565b7f456163682061646472657373206d6179206f6e6c79206d696e74203620746f6b60008201527f656e730000000000000000000000000000000000000000000000000000000000602082015250565b6000613ff2602383612ccc565b9150613ffd82613f96565b604082019050919050565b6000602082019050818103600083015261402181613fe5565b9050919050565b7f546f6b656e20494420646f6573206e6f7420657869737420696e20746869732060008201527f636f6c6c656374696f6e00000000000000000000000000000000000000000000602082015250565b6000614084602a83612ccc565b915061408f82614028565b604082019050919050565b600060208201905081810360008301526140b381614077565b9050919050565b600081905092915050565b60006140d082612cc1565b6140da81856140ba565b93506140ea818560208601612cdd565b80840191505092915050565b7f2e6a736f6e000000000000000000000000000000000000000000000000000000600082015250565b600061412c6005836140ba565b9150614137826140f6565b600582019050919050565b600061414e82856140c5565b915061415a82846140c5565b91506141658261411f565b91508190509392505050565b60008160601b9050919050565b600061418982614171565b9050919050565b600061419b8261417e565b9050919050565b6141b36141ae82612dff565b614190565b82525050565b60006141c582846141a2565b60148201915081905092915050565b7f50726573616c65206973206e6f74206163746976650000000000000000000000600082015250565b600061420a601583612ccc565b9150614215826141d4565b602082019050919050565b60006020820190508181036000830152614239816141fd565b9050919050565b7f53656e646572206973206e6f74206f6e207468652070726573616c65206c697360008201527f7400000000000000000000000000000000000000000000000000000000000000602082015250565b600061429c602183612ccc565b91506142a782614240565b604082019050919050565b600060208201905081810360008301526142cb8161428f565b9050919050565b7f45746865722076616c75652073656e74206973206c657373207468616e202e3060008201527f3737000000000000000000000000000000000000000000000000000000000000602082015250565b600061432e602283612ccc565b9150614339826142d2565b604082019050919050565b6000602082019050818103600083015261435d81614321565b9050919050565b7f436f6c6c656374696f6e2073697a65206c696d69742068617320616c7265616460008201527f79206265656e2072656163686564000000000000000000000000000000000000602082015250565b60006143c0602e83612ccc565b91506143cb82614364565b604082019050919050565b600060208201905081810360008301526143ef816143b3565b9050919050565b7f5468697320616464726573732068617320616c7265616479206d696e7465642060008201527f647572696e672070726573616c65000000000000000000000000000000000000602082015250565b6000614452602e83612ccc565b915061445d826143f6565b604082019050919050565b6000602082019050818103600083015261448181614445565b9050919050565b7f4f776e61626c653a206e6577206f776e657220697320746865207a65726f206160008201527f6464726573730000000000000000000000000000000000000000000000000000602082015250565b60006144e4602683612ccc565b91506144ef82614488565b604082019050919050565b60006020820190508181036000830152614513816144d7565b9050919050565b7f4552433732313a206f70657261746f7220717565727920666f72206e6f6e657860008201527f697374656e7420746f6b656e0000000000000000000000000000000000000000602082015250565b6000614576602c83612ccc565b91506145818261451a565b604082019050919050565b600060208201905081810360008301526145a581614569565b9050919050565b7f4552433732313a207472616e736665722066726f6d20696e636f72726563742060008201527f6f776e6572000000000000000000000000000000000000000000000000000000602082015250565b6000614608602583612ccc565b9150614613826145ac565b604082019050919050565b60006020820190508181036000830152614637816145fb565b9050919050565b7f4552433732313a207472616e7366657220746f20746865207a65726f2061646460008201527f7265737300000000000000000000000000000000000000000000000000000000602082015250565b600061469a602483612ccc565b91506146a58261463e565b604082019050919050565b600060208201905081810360008301526146c98161468d565b9050919050565b60006146db82612d7c565b91506146e683612d7c565b9250828210156146f9576146f8613c03565b5b828203905092915050565b600061470f82612d7c565b91507fffffffffffffffffffffffffffffffffffffffffffffffffffffffffffffffff820361474157614740613c03565b5b600182019050919050565b7f4552433732313a20617070726f766520746f2063616c6c657200000000000000600082015250565b6000614782601983612ccc565b915061478d8261474c565b602082019050919050565b600060208201905081810360008301526147b181614775565b9050919050565b7f4552433732313a207472616e7366657220746f206e6f6e20455243373231526560008201527f63656976657220696d706c656d656e7465720000000000000000000000000000602082015250565b6000614814603283612ccc565b915061481f826147b8565b604082019050919050565b6000602082019050818103600083015261484381614807565b9050919050565b7f4e487b7100000000000000000000000000000000000000000000000000000000600052601260045260246000fd5b600061488482612d7c565b915061488f83612d7c565b92508261489f5761489e61484a565b5b828204905092915050565b60006148b582612d7c565b91506148c083612d7c565b9250826148d0576148cf61484a565b5b828206905092915050565b7f4e487b7100000000000000000000000000000000000000000000000000000000600052603260045260246000fd5b600081519050919050565b600082825260208201905092915050565b60006149318261490a565b61493b8185614915565b935061494b818560208601612cdd565b61495481612d10565b840191505092915050565b60006080820190506149746000830187612e11565b6149816020830186612e11565b61498e6040830185612ea7565b81810360608301526149a08184614926565b905095945050505050565b6000815190506149ba81612c32565b92915050565b6000602082840312156149d6576149d5612bfc565b5b60006149e4848285016149ab565b91505092915050565b7f4552433732313a206d696e7420746f20746865207a65726f2061646472657373600082015250565b6000614a23602083612ccc565b9150614a2e826149ed565b602082019050919050565b60006020820190508181036000830152614a5281614a16565b9050919050565b7f4552433732313a20746f6b656e20616c7265616479206d696e74656400000000600082015250565b6000614a8f601c83612ccc565b9150614a9a82614a59565b602082019050919050565b60006020820190508181036000830152614abe81614a82565b905091905056fea2646970667358221220c1b879692cc57ed31c7e706cea2f28bccd8a633857e626490805d029a677a11d64736f6c634300080d0033",
  "linkReferences": {},
  "deployedLinkReferences": {}
}