{
  "_format": "hh-sol-artifact-1",
  "contractName": "CyberLionzAdults",
  "sourceName": "contracts/CyberLionzAdults.sol",
  "abi": [
    {
      "inputs": [
        {
          "internalType": "string",
          "name": "baseUri",
          "type": "string"
        }
      ],
      "stateMutability": "nonpayable",
      "type": "constructor"
    },
    {
      "anonymous": false,
      "inputs": [
        {
          "indexed": true,
          "internalType": "address",
          "name": "owner",
          "type": "address"
        },
        {
          "indexed": true,
          "internalType": "address",
          "name": "approved",
          "type": "address"
        },
        {
          "indexed": true,
          "internalType": "uint256",
          "name": "tokenId",
          "type": "uint256"
        }
      ],
      "name": "Approval",
      "type": "event"
    },
    {
      "anonymous": false,
      "inputs": [
        {
          "indexed": true,
          "internalType": "address",
          "name": "owner",
          "type": "address"
        },
        {
          "indexed": true,
          "internalType": "address",
          "name": "operator",
          "type": "address"
        },
        {
          "indexed": false,
          "internalType": "bool",
          "name": "approved",
          "type": "bool"
        }
      ],
      "name": "ApprovalForAll",
      "type": "event"
    },
    {
      "anonymous": false,
      "inputs": [
        {
          "indexed": false,
          "internalType": "address",
          "name": "to",
          "type": "address"
        },
        {
          "indexed": false,
          "internalType": "uint256",
          "name": "tokenId",
          "type": "uint256"
        }
      ],
      "name": "Mint",
      "type": "event"
    },
    {
      "anonymous": false,
      "inputs": [
        {
          "indexed": true,
          "internalType": "address",
          "name": "previousOwner",
          "type": "address"
        },
        {
          "indexed": true,
          "internalType": "address",
          "name": "newOwner",
          "type": "address"
        }
      ],
      "name": "OwnershipTransferred",
      "type": "event"
    },
    {
      "anonymous": false,
      "inputs": [
        {
          "indexed": true,
          "internalType": "bytes32",
          "name": "role",
          "type": "bytes32"
        },
        {
          "indexed": true,
          "internalType": "bytes32",
          "name": "previousAdminRole",
          "type": "bytes32"
        },
        {
          "indexed": true,
          "internalType": "bytes32",
          "name": "newAdminRole",
          "type": "bytes32"
        }
      ],
      "name": "RoleAdminChanged",
      "type": "event"
    },
    {
      "anonymous": false,
      "inputs": [
        {
          "indexed": true,
          "internalType": "bytes32",
          "name": "role",
          "type": "bytes32"
        },
        {
          "indexed": true,
          "internalType": "address",
          "name": "account",
          "type": "address"
        },
        {
          "indexed": true,
          "internalType": "address",
          "name": "sender",
          "type": "address"
        }
      ],
      "name": "RoleGranted",
      "type": "event"
    },
    {
      "anonymous": false,
      "inputs": [
        {
          "indexed": true,
          "internalType": "bytes32",
          "name": "role",
          "type": "bytes32"
        },
        {
          "indexed": true,
          "internalType": "address",
          "name": "account",
          "type": "address"
        },
        {
          "indexed": true,
          "internalType": "address",
          "name": "sender",
          "type": "address"
        }
      ],
      "name": "RoleRevoked",
      "type": "event"
    },
    {
      "anonymous": false,
      "inputs": [
        {
          "indexed": true,
          "internalType": "address",
          "name": "from",
          "type": "address"
        },
        {
          "indexed": true,
          "internalType": "address",
          "name": "to",
          "type": "address"
        },
        {
          "indexed": true,
          "internalType": "uint256",
          "name": "tokenId",
          "type": "uint256"
        }
      ],
      "name": "Transfer",
      "type": "event"
    },
    {
      "inputs": [],
      "name": "DEFAULT_ADMIN_ROLE",
      "outputs": [
        {
          "internalType": "bytes32",
          "name": "",
          "type": "bytes32"
        }
      ],
      "stateMutability": "view",
      "type": "function"
    },
    {
      "inputs": [],
      "name": "MINTER_ROLE",
      "outputs": [
        {
          "internalType": "bytes32",
          "name": "",
          "type": "bytes32"
        }
      ],
      "stateMutability": "view",
      "type": "function"
    },
    {
      "inputs": [
        {
          "internalType": "address",
          "name": "to",
          "type": "address"
        },
        {
          "internalType": "uint256",
          "name": "tokenId",
          "type": "uint256"
        }
      ],
      "name": "approve",
      "outputs": [],
      "stateMutability": "nonpayable",
      "type": "function"
    },
    {
      "inputs": [
        {
          "internalType": "address",
          "name": "owner",
          "type": "address"
        }
      ],
      "name": "balanceOf",
      "outputs": [
        {
          "internalType": "uint256",
          "name": "",
          "type": "uint256"
        }
      ],
      "stateMutability": "view",
      "type": "function"
    },
    {
      "inputs": [],
      "name": "finalizeMetadata",
      "outputs": [],
      "stateMutability": "nonpayable",
      "type": "function"
    },
    {
      "inputs": [],
      "name": "finalized",
      "outputs": [
        {
          "internalType": "bool",
          "name": "",
          "type": "bool"
        }
      ],
      "stateMutability": "view",
      "type": "function"
    },
    {
      "inputs": [
        {
          "internalType": "uint256",
          "name": "tokenId",
          "type": "uint256"
        }
      ],
      "name": "getApproved",
      "outputs": [
        {
          "internalType": "address",
          "name": "",
          "type": "address"
        }
      ],
      "stateMutability": "view",
      "type": "function"
    },
    {
      "inputs": [
        {
          "internalType": "bytes32",
          "name": "role",
          "type": "bytes32"
        }
      ],
      "name": "getRoleAdmin",
      "outputs": [
        {
          "internalType": "bytes32",
          "name": "",
          "type": "bytes32"
        }
      ],
      "stateMutability": "view",
      "type": "function"
    },
    {
      "inputs": [
        {
          "internalType": "bytes32",
          "name": "role",
          "type": "bytes32"
        },
        {
          "internalType": "address",
          "name": "account",
          "type": "address"
        }
      ],
      "name": "grantRole",
      "outputs": [],
      "stateMutability": "nonpayable",
      "type": "function"
    },
    {
      "inputs": [
        {
          "internalType": "bytes32",
          "name": "role",
          "type": "bytes32"
        },
        {
          "internalType": "address",
          "name": "account",
          "type": "address"
        }
      ],
      "name": "hasRole",
      "outputs": [
        {
          "internalType": "bool",
          "name": "",
          "type": "bool"
        }
      ],
      "stateMutability": "view",
      "type": "function"
    },
    {
      "inputs": [
        {
          "internalType": "address",
          "name": "owner",
          "type": "address"
        },
        {
          "internalType": "address",
          "name": "operator",
          "type": "address"
        }
      ],
      "name": "isApprovedForAll",
      "outputs": [
        {
          "internalType": "bool",
          "name": "",
          "type": "bool"
        }
      ],
      "stateMutability": "view",
      "type": "function"
    },
    {
      "inputs": [
        {
          "internalType": "address",
          "name": "to",
          "type": "address"
        }
      ],
      "name": "mintFromMerger",
      "outputs": [],
      "stateMutability": "nonpayable",
      "type": "function"
    },
    {
      "inputs": [],
      "name": "name",
      "outputs": [
        {
          "internalType": "string",
          "name": "",
          "type": "string"
        }
      ],
      "stateMutability": "view",
      "type": "function"
    },
    {
      "inputs": [],
      "name": "owner",
      "outputs": [
        {
          "internalType": "address",
          "name": "",
          "type": "address"
        }
      ],
      "stateMutability": "view",
      "type": "function"
    },
    {
      "inputs": [
        {
          "internalType": "uint256",
          "name": "tokenId",
          "type": "uint256"
        }
      ],
      "name": "ownerOf",
      "outputs": [
        {
          "internalType": "address",
          "name": "",
          "type": "address"
        }
      ],
      "stateMutability": "view",
      "type": "function"
    },
    {
      "inputs": [],
      "name": "renounceOwnership",
      "outputs": [],
      "stateMutability": "nonpayable",
      "type": "function"
    },
    {
      "inputs": [
        {
          "internalType": "bytes32",
          "name": "role",
          "type": "bytes32"
        },
        {
          "internalType": "address",
          "name": "account",
          "type": "address"
        }
      ],
      "name": "renounceRole",
      "outputs": [],
      "stateMutability": "nonpayable",
      "type": "function"
    },
    {
      "inputs": [
        {
          "internalType": "bytes32",
          "name": "role",
          "type": "bytes32"
        },
        {
          "internalType": "address",
          "name": "account",
          "type": "address"
        }
      ],
      "name": "revokeRole",
      "outputs": [],
      "stateMutability": "nonpayable",
      "type": "function"
    },
    {
      "inputs": [
        {
          "internalType": "address",
          "name": "from",
          "type": "address"
        },
        {
          "internalType": "address",
          "name": "to",
          "type": "address"
        },
        {
          "internalType": "uint256",
          "name": "tokenId",
          "type": "uint256"
        }
      ],
      "name": "safeTransferFrom",
      "outputs": [],
      "stateMutability": "nonpayable",
      "type": "function"
    },
    {
      "inputs": [
        {
          "internalType": "address",
          "name": "from",
          "type": "address"
        },
        {
          "internalType": "address",
          "name": "to",
          "type": "address"
        },
        {
          "internalType": "uint256",
          "name": "tokenId",
          "type": "uint256"
        },
        {
          "internalType": "bytes",
          "name": "_data",
          "type": "bytes"
        }
      ],
      "name": "safeTransferFrom",
      "outputs": [],
      "stateMutability": "nonpayable",
      "type": "function"
    },
    {
      "inputs": [
        {
          "internalType": "address",
          "name": "operator",
          "type": "address"
        },
        {
          "internalType": "bool",
          "name": "approved",
          "type": "bool"
        }
      ],
      "name": "setApprovalForAll",
      "outputs": [],
      "stateMutability": "nonpayable",
      "type": "function"
    },
    {
      "inputs": [
        {
          "internalType": "string",
          "name": "baseUri",
          "type": "string"
        }
      ],
      "name": "setBaseURI",
      "outputs": [],
      "stateMutability": "nonpayable",
      "type": "function"
    },
    {
      "inputs": [
        {
          "internalType": "bytes4",
          "name": "interfaceId",
          "type": "bytes4"
        }
      ],
      "name": "supportsInterface",
      "outputs": [
        {
          "internalType": "bool",
          "name": "",
          "type": "bool"
        }
      ],
      "stateMutability": "view",
      "type": "function"
    },
    {
      "inputs": [],
      "name": "symbol",
      "outputs": [
        {
          "internalType": "string",
          "name": "",
          "type": "string"
        }
      ],
      "stateMutability": "view",
      "type": "function"
    },
    {
      "inputs": [
        {
          "internalType": "uint256",
          "name": "tokenId",
          "type": "uint256"
        }
      ],
      "name": "tokenURI",
      "outputs": [
        {
          "internalType": "string",
          "name": "",
          "type": "string"
        }
      ],
      "stateMutability": "view",
      "type": "function"
    },
    {
      "inputs": [],
      "name": "totalSupply",
      "outputs": [
        {
          "internalType": "uint256",
          "name": "",
          "type": "uint256"
        }
      ],
      "stateMutability": "view",
      "type": "function"
    },
    {
      "inputs": [
        {
          "internalType": "address",
          "name": "from",
          "type": "address"
        },
        {
          "internalType": "address",
          "name": "to",
          "type": "address"
        },
        {
          "internalType": "uint256",
          "name": "tokenId",
          "type": "uint256"
        }
      ],
      "name": "transferFrom",
      "outputs": [],
      "stateMutability": "nonpayable",
      "type": "function"
    },
    {
      "inputs": [
        {
          "internalType": "address",
          "name": "newOwner",
          "type": "address"
        }
      ],
      "name": "transferOwnership",
      "outputs": [],
      "stateMutability": "nonpayable",
      "type": "function"
    }
  ],
  "bytecode": "0x60806040526000600960006101000a81548160ff0219169083151502179055503480156200002c57600080fd5b5060405162004407380380620044078339818101604052810190620000529190620005d5565b6040518060400160405280601081526020017f43796265724c696f6e7a4164756c7473000000000000000000000000000000008152506040518060400160405280600381526020017f434c4100000000000000000000000000000000000000000000000000000000008152508160009080519060200190620000d692919062000388565b508060019080519060200190620000ef92919062000388565b50505062000112620001066200014760201b60201c565b6200014f60201b60201c565b80600a90805190602001906200012a92919062000388565b50620001406000801b336200021560201b60201c565b506200068a565b600033905090565b6000600660009054906101000a900473ffffffffffffffffffffffffffffffffffffffff16905081600660006101000a81548173ffffffffffffffffffffffffffffffffffffffff021916908373ffffffffffffffffffffffffffffffffffffffff1602179055508173ffffffffffffffffffffffffffffffffffffffff168173ffffffffffffffffffffffffffffffffffffffff167f8be0079c531659141344cd1fd0a4f28419497f9722a3daafe3b4186f6b6457e060405160405180910390a35050565b6200022782826200022b60201b60201c565b5050565b6200023d82826200031d60201b60201c565b620003195760016007600084815260200190815260200160002060000160008373ffffffffffffffffffffffffffffffffffffffff1673ffffffffffffffffffffffffffffffffffffffff16815260200190815260200160002060006101000a81548160ff021916908315150217905550620002be6200014760201b60201c565b73ffffffffffffffffffffffffffffffffffffffff168173ffffffffffffffffffffffffffffffffffffffff16837f2f8788117e7eff1d82e926ec794901d17c78024a50270940304540a733656f0d60405160405180910390a45b5050565b60006007600084815260200190815260200160002060000160008373ffffffffffffffffffffffffffffffffffffffff1673ffffffffffffffffffffffffffffffffffffffff16815260200190815260200160002060009054906101000a900460ff16905092915050565b828054620003969062000655565b90600052602060002090601f016020900481019282620003ba576000855562000406565b82601f10620003d557805160ff191683800117855562000406565b8280016001018555821562000406579182015b8281111562000405578251825591602001919060010190620003e8565b5b50905062000415919062000419565b5090565b5b80821115620004345760008160009055506001016200041a565b5090565b6000604051905090565b600080fd5b600080fd5b600080fd5b600080fd5b6000601f19601f8301169050919050565b7f4e487b7100000000000000000000000000000000000000000000000000000000600052604160045260246000fd5b620004a18262000456565b810181811067ffffffffffffffff82111715620004c357620004c262000467565b5b80604052505050565b6000620004d862000438565b9050620004e6828262000496565b919050565b600067ffffffffffffffff82111562000509576200050862000467565b5b620005148262000456565b9050602081019050919050565b60005b838110156200054157808201518184015260208101905062000524565b8381111562000551576000848401525b50505050565b60006200056e6200056884620004eb565b620004cc565b9050828152602081018484840111156200058d576200058c62000451565b5b6200059a84828562000521565b509392505050565b600082601f830112620005ba57620005b96200044c565b5b8151620005cc84826020860162000557565b91505092915050565b600060208284031215620005ee57620005ed62000442565b5b600082015167ffffffffffffffff8111156200060f576200060e62000447565b5b6200061d84828501620005a2565b91505092915050565b7f4e487b7100000000000000000000000000000000000000000000000000000000600052602260045260246000fd5b600060028204905060018216806200066e57607f821691505b60208210810362000684576200068362000626565b5b50919050565b613d6d806200069a6000396000f3fe608060405234801561001057600080fd5b50600436106101c45760003560e01c80638afe22c8116100f9578063b88d4fde11610097578063d547741f11610071578063d547741f146104f1578063e985e9c51461050d578063f2fde38b1461053d578063f4a560a514610559576101c4565b8063b88d4fde14610487578063c87b56dd146104a3578063d5391393146104d3576101c4565b806395d89b41116100d357806395d89b4114610411578063a217fddf1461042f578063a22cb4651461044d578063b3f05b9714610469576101c4565b80638afe22c8146103a75780638da5cb5b146103c357806391d14854146103e1576101c4565b80632f2ff15d1161016657806355f804b31161014057806355f804b3146103215780636352211e1461033d57806370a082311461036d578063715018a61461039d576101c4565b80632f2ff15d146102cd57806336568abe146102e957806342842e0e14610305576101c4565b8063095ea7b3116101a2578063095ea7b31461024757806318160ddd1461026357806323b872dd14610281578063248a9ca31461029d576101c4565b806301ffc9a7146101c957806306fdde03146101f9578063081812fc14610217575b600080fd5b6101e360048036038101906101de919061266c565b610563565b6040516101f091906126b4565b60405180910390f35b610201610575565b60405161020e9190612768565b60405180910390f35b610231600480360381019061022c91906127c0565b610607565b60405161023e919061282e565b60405180910390f35b610261600480360381019061025c9190612875565b61068c565b005b61026b6107a3565b60405161027891906128c4565b60405180910390f35b61029b600480360381019061029691906128df565b6107b4565b005b6102b760048036038101906102b29190612968565b610814565b6040516102c491906129a4565b60405180910390f35b6102e760048036038101906102e291906129bf565b610834565b005b61030360048036038101906102fe91906129bf565b610855565b005b61031f600480360381019061031a91906128df565b6108d8565b005b61033b60048036038101906103369190612b34565b6108f8565b005b610357600480360381019061035291906127c0565b6109de565b604051610364919061282e565b60405180910390f35b61038760048036038101906103829190612b7d565b610a8f565b60405161039491906128c4565b60405180910390f35b6103a5610b46565b005b6103c160048036038101906103bc9190612b7d565b610bce565b005b6103cb610c59565b6040516103d8919061282e565b60405180910390f35b6103fb60048036038101906103f691906129bf565b610c83565b60405161040891906126b4565b60405180910390f35b610419610cee565b6040516104269190612768565b60405180910390f35b610437610d80565b60405161044491906129a4565b60405180910390f35b61046760048036038101906104629190612bd6565b610d87565b005b610471610d9d565b60405161047e91906126b4565b60405180910390f35b6104a1600480360381019061049c9190612cb7565b610db0565b005b6104bd60048036038101906104b891906127c0565b610e12565b6040516104ca9190612768565b60405180910390f35b6104db610e94565b6040516104e891906129a4565b60405180910390f35b61050b600480360381019061050691906129bf565b610eb8565b005b61052760048036038101906105229190612d3a565b610ed9565b60405161053491906126b4565b60405180910390f35b61055760048036038101906105529190612b7d565b610f6d565b005b610561611064565b005b600061056e8261114d565b9050919050565b60606000805461058490612da9565b80601f01602080910402602001604051908101604052809291908181526020018280546105b090612da9565b80156105fd5780601f106105d2576101008083540402835291602001916105fd565b820191906000526020600020905b8154815290600101906020018083116105e057829003601f168201915b5050505050905090565b6000610612826111c7565b610651576040517f08c379a000000000000000000000000000000000000000000000000000000000815260040161064890612e4c565b60405180910390fd5b6004600083815260200190815260200160002060009054906101000a900473ffffffffffffffffffffffffffffffffffffffff169050919050565b6000610697826109de565b90508073ffffffffffffffffffffffffffffffffffffffff168373ffffffffffffffffffffffffffffffffffffffff1603610707576040517f08c379a00000000000000000000000000000000000000000000000000000000081526004016106fe90612ede565b60405180910390fd5b8073ffffffffffffffffffffffffffffffffffffffff16610726611233565b73ffffffffffffffffffffffffffffffffffffffff16148061075557506107548161074f611233565b610ed9565b5b610794576040517f08c379a000000000000000000000000000000000000000000000000000000000815260040161078b90612f70565b60405180910390fd5b61079e838361123b565b505050565b60006107af60086112f4565b905090565b6107c56107bf611233565b82611302565b610804576040517f08c379a00000000000000000000000000000000000000000000000000000000081526004016107fb90613002565b60405180910390fd5b61080f8383836113e0565b505050565b600060076000838152602001908152602001600020600101549050919050565b61083d82610814565b61084681611646565b610850838361165a565b505050565b61085d611233565b73ffffffffffffffffffffffffffffffffffffffff168173ffffffffffffffffffffffffffffffffffffffff16146108ca576040517f08c379a00000000000000000000000000000000000000000000000000000000081526004016108c190613094565b60405180910390fd5b6108d4828261173b565b5050565b6108f383838360405180602001604052806000815250610db0565b505050565b610900611233565b73ffffffffffffffffffffffffffffffffffffffff1661091e610c59565b73ffffffffffffffffffffffffffffffffffffffff1614610974576040517f08c379a000000000000000000000000000000000000000000000000000000000815260040161096b90613100565b60405180910390fd5b600960009054906101000a900460ff16156109c4576040517f08c379a00000000000000000000000000000000000000000000000000000000081526004016109bb90613192565b60405180910390fd5b80600a90805190602001906109da92919061255d565b5050565b6000806002600084815260200190815260200160002060009054906101000a900473ffffffffffffffffffffffffffffffffffffffff169050600073ffffffffffffffffffffffffffffffffffffffff168173ffffffffffffffffffffffffffffffffffffffff1603610a86576040517f08c379a0000000000000000000000000000000000000000000000000000000008152600401610a7d90613224565b60405180910390fd5b80915050919050565b60008073ffffffffffffffffffffffffffffffffffffffff168273ffffffffffffffffffffffffffffffffffffffff1603610aff576040517f08c379a0000000000000000000000000000000000000000000000000000000008152600401610af6906132b6565b60405180910390fd5b600360008373ffffffffffffffffffffffffffffffffffffffff1673ffffffffffffffffffffffffffffffffffffffff168152602001908152602001600020549050919050565b610b4e611233565b73ffffffffffffffffffffffffffffffffffffffff16610b6c610c59565b73ffffffffffffffffffffffffffffffffffffffff1614610bc2576040517f08c379a0000000000000000000000000000000000000000000000000000000008152600401610bb990613100565b60405180910390fd5b610bcc600061181d565b565b610bdb6000801b33610c83565b80610c0c5750610c0b7f9f2df0fed2c77648de5860a4cc508cd0818c85b8b8a1ab4ceeef8d981c8956a633610c83565b5b610c4b576040517f08c379a0000000000000000000000000000000000000000000000000000000008152600401610c4290613322565b60405180910390fd5b610c568160016118e3565b50565b6000600660009054906101000a900473ffffffffffffffffffffffffffffffffffffffff16905090565b60006007600084815260200190815260200160002060000160008373ffffffffffffffffffffffffffffffffffffffff1673ffffffffffffffffffffffffffffffffffffffff16815260200190815260200160002060009054906101000a900460ff16905092915050565b606060018054610cfd90612da9565b80601f0160208091040260200160405190810160405280929190818152602001828054610d2990612da9565b8015610d765780601f10610d4b57610100808354040283529160200191610d76565b820191906000526020600020905b815481529060010190602001808311610d5957829003601f168201915b5050505050905090565b6000801b81565b610d99610d92611233565b8383611962565b5050565b600960009054906101000a900460ff1681565b610dc1610dbb611233565b83611302565b610e00576040517f08c379a0000000000000000000000000000000000000000000000000000000008152600401610df790613002565b60405180910390fd5b610e0c84848484611ace565b50505050565b6060610e1d826111c7565b610e5c576040517f08c379a0000000000000000000000000000000000000000000000000000000008152600401610e53906133b4565b60405180910390fd5b610e64611b2a565b610e6d83611bbc565b604051602001610e7e92919061345c565b6040516020818303038152906040529050919050565b7f9f2df0fed2c77648de5860a4cc508cd0818c85b8b8a1ab4ceeef8d981c8956a681565b610ec182610814565b610eca81611646565b610ed4838361173b565b505050565b6000600560008473ffffffffffffffffffffffffffffffffffffffff1673ffffffffffffffffffffffffffffffffffffffff16815260200190815260200160002060008373ffffffffffffffffffffffffffffffffffffffff1673ffffffffffffffffffffffffffffffffffffffff16815260200190815260200160002060009054906101000a900460ff16905092915050565b610f75611233565b73ffffffffffffffffffffffffffffffffffffffff16610f93610c59565b73ffffffffffffffffffffffffffffffffffffffff1614610fe9576040517f08c379a0000000000000000000000000000000000000000000000000000000008152600401610fe090613100565b60405180910390fd5b600073ffffffffffffffffffffffffffffffffffffffff168173ffffffffffffffffffffffffffffffffffffffff1603611058576040517f08c379a000000000000000000000000000000000000000000000000000000000815260040161104f906134fd565b60405180910390fd5b6110618161181d565b50565b61106c611233565b73ffffffffffffffffffffffffffffffffffffffff1661108a610c59565b73ffffffffffffffffffffffffffffffffffffffff16146110e0576040517f08c379a00000000000000000000000000000000000000000000000000000000081526004016110d790613100565b60405180910390fd5b600960009054906101000a900460ff1615611130576040517f08c379a000000000000000000000000000000000000000000000000000000000815260040161112790613192565b60405180910390fd5b6001600960006101000a81548160ff021916908315150217905550565b60007f7965db0b000000000000000000000000000000000000000000000000000000007bffffffffffffffffffffffffffffffffffffffffffffffffffffffff1916827bffffffffffffffffffffffffffffffffffffffffffffffffffffffff191614806111c057506111bf82611d1c565b5b9050919050565b60008073ffffffffffffffffffffffffffffffffffffffff166002600084815260200190815260200160002060009054906101000a900473ffffffffffffffffffffffffffffffffffffffff1673ffffffffffffffffffffffffffffffffffffffff1614159050919050565b600033905090565b816004600083815260200190815260200160002060006101000a81548173ffffffffffffffffffffffffffffffffffffffff021916908373ffffffffffffffffffffffffffffffffffffffff160217905550808273ffffffffffffffffffffffffffffffffffffffff166112ae836109de565b73ffffffffffffffffffffffffffffffffffffffff167f8c5be1e5ebec7d5bd14f71427d1e84f3dd0314c0f7b2291e5b200ac8c7c3b92560405160405180910390a45050565b600081600001549050919050565b600061130d826111c7565b61134c576040517f08c379a00000000000000000000000000000000000000000000000000000000081526004016113439061358f565b60405180910390fd5b6000611357836109de565b90508073ffffffffffffffffffffffffffffffffffffffff168473ffffffffffffffffffffffffffffffffffffffff16148061139957506113988185610ed9565b5b806113d757508373ffffffffffffffffffffffffffffffffffffffff166113bf84610607565b73ffffffffffffffffffffffffffffffffffffffff16145b91505092915050565b8273ffffffffffffffffffffffffffffffffffffffff16611400826109de565b73ffffffffffffffffffffffffffffffffffffffff1614611456576040517f08c379a000000000000000000000000000000000000000000000000000000000815260040161144d90613621565b60405180910390fd5b600073ffffffffffffffffffffffffffffffffffffffff168273ffffffffffffffffffffffffffffffffffffffff16036114c5576040517f08c379a00000000000000000000000000000000000000000000000000000000081526004016114bc906136b3565b60405180910390fd5b6114d0838383611dfe565b6114db60008261123b565b6001600360008573ffffffffffffffffffffffffffffffffffffffff1673ffffffffffffffffffffffffffffffffffffffff168152602001908152602001600020600082825461152b9190613702565b925050819055506001600360008473ffffffffffffffffffffffffffffffffffffffff1673ffffffffffffffffffffffffffffffffffffffff16815260200190815260200160002060008282546115829190613736565b92505081905550816002600083815260200190815260200160002060006101000a81548173ffffffffffffffffffffffffffffffffffffffff021916908373ffffffffffffffffffffffffffffffffffffffff160217905550808273ffffffffffffffffffffffffffffffffffffffff168473ffffffffffffffffffffffffffffffffffffffff167fddf252ad1be2c89b69c2b068fc378daa952ba7f163c4a11628f55a4df523b3ef60405160405180910390a4611641838383611e03565b505050565b61165781611652611233565b611e08565b50565b6116648282610c83565b6117375760016007600084815260200190815260200160002060000160008373ffffffffffffffffffffffffffffffffffffffff1673ffffffffffffffffffffffffffffffffffffffff16815260200190815260200160002060006101000a81548160ff0219169083151502179055506116dc611233565b73ffffffffffffffffffffffffffffffffffffffff168173ffffffffffffffffffffffffffffffffffffffff16837f2f8788117e7eff1d82e926ec794901d17c78024a50270940304540a733656f0d60405160405180910390a45b5050565b6117458282610c83565b156118195760006007600084815260200190815260200160002060000160008373ffffffffffffffffffffffffffffffffffffffff1673ffffffffffffffffffffffffffffffffffffffff16815260200190815260200160002060006101000a81548160ff0219169083151502179055506117be611233565b73ffffffffffffffffffffffffffffffffffffffff168173ffffffffffffffffffffffffffffffffffffffff16837ff6391f5c32d9c69d2a47ea670b442974b53935d1edc7fd64eb21e047a839171b60405160405180910390a45b5050565b6000600660009054906101000a900473ffffffffffffffffffffffffffffffffffffffff16905081600660006101000a81548173ffffffffffffffffffffffffffffffffffffffff021916908373ffffffffffffffffffffffffffffffffffffffff1602179055508173ffffffffffffffffffffffffffffffffffffffff168173ffffffffffffffffffffffffffffffffffffffff167f8be0079c531659141344cd1fd0a4f28419497f9722a3daafe3b4186f6b6457e060405160405180910390a35050565b60005b8181101561195d576118f86008611ea5565b600061190460086112f4565b90506119108482611ebb565b7f0f6798a560793a54c3bcfe86a93cde1e73087d944c0ea20544137d4121396885848260405161194192919061378c565b60405180910390a1508080611955906137b5565b9150506118e6565b505050565b8173ffffffffffffffffffffffffffffffffffffffff168373ffffffffffffffffffffffffffffffffffffffff16036119d0576040517f08c379a00000000000000000000000000000000000000000000000000000000081526004016119c790613849565b60405180910390fd5b80600560008573ffffffffffffffffffffffffffffffffffffffff1673ffffffffffffffffffffffffffffffffffffffff16815260200190815260200160002060008473ffffffffffffffffffffffffffffffffffffffff1673ffffffffffffffffffffffffffffffffffffffff16815260200190815260200160002060006101000a81548160ff0219169083151502179055508173ffffffffffffffffffffffffffffffffffffffff168373ffffffffffffffffffffffffffffffffffffffff167f17307eab39ab6107e8899845ad3d59bd9653f200f220920489ca2b5937696c3183604051611ac191906126b4565b60405180910390a3505050565b611ad98484846113e0565b611ae584848484611ed9565b611b24576040517f08c379a0000000000000000000000000000000000000000000000000000000008152600401611b1b906138db565b60405180910390fd5b50505050565b6060600a8054611b3990612da9565b80601f0160208091040260200160405190810160405280929190818152602001828054611b6590612da9565b8015611bb25780601f10611b8757610100808354040283529160200191611bb2565b820191906000526020600020905b815481529060010190602001808311611b9557829003601f168201915b5050505050905090565b606060008203611c03576040518060400160405280600181526020017f30000000000000000000000000000000000000000000000000000000000000008152509050611d17565b600082905060005b60008214611c35578080611c1e906137b5565b915050600a82611c2e919061392a565b9150611c0b565b60008167ffffffffffffffff811115611c5157611c50612a09565b5b6040519080825280601f01601f191660200182016040528015611c835781602001600182028036833780820191505090505b5090505b60008514611d1057600182611c9c9190613702565b9150600a85611cab919061395b565b6030611cb79190613736565b60f81b818381518110611ccd57611ccc61398c565b5b60200101907effffffffffffffffffffffffffffffffffffffffffffffffffffffffffffff1916908160001a905350600a85611d09919061392a565b9450611c87565b8093505050505b919050565b60007f80ac58cd000000000000000000000000000000000000000000000000000000007bffffffffffffffffffffffffffffffffffffffffffffffffffffffff1916827bffffffffffffffffffffffffffffffffffffffffffffffffffffffff19161480611de757507f5b5e139f000000000000000000000000000000000000000000000000000000007bffffffffffffffffffffffffffffffffffffffffffffffffffffffff1916827bffffffffffffffffffffffffffffffffffffffffffffffffffffffff1916145b80611df75750611df682612060565b5b9050919050565b505050565b505050565b611e128282610c83565b611ea157611e378173ffffffffffffffffffffffffffffffffffffffff1660146120ca565b611e458360001c60206120ca565b604051602001611e56929190613a53565b6040516020818303038152906040526040517f08c379a0000000000000000000000000000000000000000000000000000000008152600401611e989190612768565b60405180910390fd5b5050565b6001816000016000828254019250508190555050565b611ed5828260405180602001604052806000815250612306565b5050565b6000611efa8473ffffffffffffffffffffffffffffffffffffffff16612361565b15612053578373ffffffffffffffffffffffffffffffffffffffff1663150b7a02611f23611233565b8786866040518563ffffffff1660e01b8152600401611f459493929190613ae2565b6020604051808303816000875af1925050508015611f8157506040513d601f19601f82011682018060405250810190611f7e9190613b43565b60015b612003573d8060008114611fb1576040519150601f19603f3d011682016040523d82523d6000602084013e611fb6565b606091505b506000815103611ffb576040517f08c379a0000000000000000000000000000000000000000000000000000000008152600401611ff2906138db565b60405180910390fd5b805181602001fd5b63150b7a0260e01b7bffffffffffffffffffffffffffffffffffffffffffffffffffffffff1916817bffffffffffffffffffffffffffffffffffffffffffffffffffffffff191614915050612058565b600190505b949350505050565b60007f01ffc9a7000000000000000000000000000000000000000000000000000000007bffffffffffffffffffffffffffffffffffffffffffffffffffffffff1916827bffffffffffffffffffffffffffffffffffffffffffffffffffffffff1916149050919050565b6060600060028360026120dd9190613b70565b6120e79190613736565b67ffffffffffffffff811115612100576120ff612a09565b5b6040519080825280601f01601f1916602001820160405280156121325781602001600182028036833780820191505090505b5090507f30000000000000000000000000000000000000000000000000000000000000008160008151811061216a5761216961398c565b5b60200101907effffffffffffffffffffffffffffffffffffffffffffffffffffffffffffff1916908160001a9053507f7800000000000000000000000000000000000000000000000000000000000000816001815181106121ce576121cd61398c565b5b60200101907effffffffffffffffffffffffffffffffffffffffffffffffffffffffffffff1916908160001a9053506000600184600261220e9190613b70565b6122189190613736565b90505b60018111156122b8577f3031323334353637383961626364656600000000000000000000000000000000600f86166010811061225a5761225961398c565b5b1a60f81b8282815181106122715761227061398c565b5b60200101907effffffffffffffffffffffffffffffffffffffffffffffffffffffffffffff1916908160001a905350600485901c9450806122b190613bca565b905061221b565b50600084146122fc576040517f08c379a00000000000000000000000000000000000000000000000000000000081526004016122f390613c3f565b60405180910390fd5b8091505092915050565b6123108383612384565b61231d6000848484611ed9565b61235c576040517f08c379a0000000000000000000000000000000000000000000000000000000008152600401612353906138db565b60405180910390fd5b505050565b6000808273ffffffffffffffffffffffffffffffffffffffff163b119050919050565b600073ffffffffffffffffffffffffffffffffffffffff168273ffffffffffffffffffffffffffffffffffffffff16036123f3576040517f08c379a00000000000000000000000000000000000000000000000000000000081526004016123ea90613cab565b60405180910390fd5b6123fc816111c7565b1561243c576040517f08c379a000000000000000000000000000000000000000000000000000000000815260040161243390613d17565b60405180910390fd5b61244860008383611dfe565b6001600360008473ffffffffffffffffffffffffffffffffffffffff1673ffffffffffffffffffffffffffffffffffffffff16815260200190815260200160002060008282546124989190613736565b92505081905550816002600083815260200190815260200160002060006101000a81548173ffffffffffffffffffffffffffffffffffffffff021916908373ffffffffffffffffffffffffffffffffffffffff160217905550808273ffffffffffffffffffffffffffffffffffffffff16600073ffffffffffffffffffffffffffffffffffffffff167fddf252ad1be2c89b69c2b068fc378daa952ba7f163c4a11628f55a4df523b3ef60405160405180910390a461255960008383611e03565b5050565b82805461256990612da9565b90600052602060002090601f01602090048101928261258b57600085556125d2565b82601f106125a457805160ff19168380011785556125d2565b828001600101855582156125d2579182015b828111156125d15782518255916020019190600101906125b6565b5b5090506125df91906125e3565b5090565b5b808211156125fc5760008160009055506001016125e4565b5090565b6000604051905090565b600080fd5b600080fd5b60007fffffffff0000000000000000000000000000000000000000000000000000000082169050919050565b61264981612614565b811461265457600080fd5b50565b60008135905061266681612640565b92915050565b6000602082840312156126825761268161260a565b5b600061269084828501612657565b91505092915050565b60008115159050919050565b6126ae81612699565b82525050565b60006020820190506126c960008301846126a5565b92915050565b600081519050919050565b600082825260208201905092915050565b60005b838110156127095780820151818401526020810190506126ee565b83811115612718576000848401525b50505050565b6000601f19601f8301169050919050565b600061273a826126cf565b61274481856126da565b93506127548185602086016126eb565b61275d8161271e565b840191505092915050565b60006020820190508181036000830152612782818461272f565b905092915050565b6000819050919050565b61279d8161278a565b81146127a857600080fd5b50565b6000813590506127ba81612794565b92915050565b6000602082840312156127d6576127d561260a565b5b60006127e4848285016127ab565b91505092915050565b600073ffffffffffffffffffffffffffffffffffffffff82169050919050565b6000612818826127ed565b9050919050565b6128288161280d565b82525050565b6000602082019050612843600083018461281f565b92915050565b6128528161280d565b811461285d57600080fd5b50565b60008135905061286f81612849565b92915050565b6000806040838503121561288c5761288b61260a565b5b600061289a85828601612860565b92505060206128ab858286016127ab565b9150509250929050565b6128be8161278a565b82525050565b60006020820190506128d960008301846128b5565b92915050565b6000806000606084860312156128f8576128f761260a565b5b600061290686828701612860565b935050602061291786828701612860565b9250506040612928868287016127ab565b9150509250925092565b6000819050919050565b61294581612932565b811461295057600080fd5b50565b6000813590506129628161293c565b92915050565b60006020828403121561297e5761297d61260a565b5b600061298c84828501612953565b91505092915050565b61299e81612932565b82525050565b60006020820190506129b96000830184612995565b92915050565b600080604083850312156129d6576129d561260a565b5b60006129e485828601612953565b92505060206129f585828601612860565b9150509250929050565b600080fd5b600080fd5b7f4e487b7100000000000000000000000000000000000000000000000000000000600052604160045260246000fd5b612a418261271e565b810181811067ffffffffffffffff82111715612a6057612a5f612a09565b5b80604052505050565b6000612a73612600565b9050612a7f8282612a38565b919050565b600067ffffffffffffffff821115612a9f57612a9e612a09565b5b612aa88261271e565b9050602081019050919050565b82818337600083830152505050565b6000612ad7612ad284612a84565b612a69565b905082815260208101848484011115612af357612af2612a04565b5b612afe848285612ab5565b509392505050565b600082601f830112612b1b57612b1a6129ff565b5b8135612b2b848260208601612ac4565b91505092915050565b600060208284031215612b4a57612b4961260a565b5b600082013567ffffffffffffffff811115612b6857612b6761260f565b5b612b7484828501612b06565b91505092915050565b600060208284031215612b9357612b9261260a565b5b6000612ba184828501612860565b91505092915050565b612bb381612699565b8114612bbe57600080fd5b50565b600081359050612bd081612baa565b92915050565b60008060408385031215612bed57612bec61260a565b5b6000612bfb85828601612860565b9250506020612c0c85828601612bc1565b9150509250929050565b600067ffffffffffffffff821115612c3157612c30612a09565b5b612c3a8261271e565b9050602081019050919050565b6000612c5a612c5584612c16565b612a69565b905082815260208101848484011115612c7657612c75612a04565b5b612c81848285612ab5565b509392505050565b600082601f830112612c9e57612c9d6129ff565b5b8135612cae848260208601612c47565b91505092915050565b60008060008060808587031215612cd157612cd061260a565b5b6000612cdf87828801612860565b9450506020612cf087828801612860565b9350506040612d01878288016127ab565b925050606085013567ffffffffffffffff811115612d2257612d2161260f565b5b612d2e87828801612c89565b91505092959194509250565b60008060408385031215612d5157612d5061260a565b5b6000612d5f85828601612860565b9250506020612d7085828601612860565b9150509250929050565b7f4e487b7100000000000000000000000000000000000000000000000000000000600052602260045260246000fd5b60006002820490506001821680612dc157607f821691505b602082108103612dd457612dd3612d7a565b5b50919050565b7f4552433732313a20617070726f76656420717565727920666f72206e6f6e657860008201527f697374656e7420746f6b656e0000000000000000000000000000000000000000602082015250565b6000612e36602c836126da565b9150612e4182612dda565b604082019050919050565b60006020820190508181036000830152612e6581612e29565b9050919050565b7f4552433732313a20617070726f76616c20746f2063757272656e74206f776e6560008201527f7200000000000000000000000000000000000000000000000000000000000000602082015250565b6000612ec86021836126da565b9150612ed382612e6c565b604082019050919050565b60006020820190508181036000830152612ef781612ebb565b9050919050565b7f4552433732313a20617070726f76652063616c6c6572206973206e6f74206f7760008201527f6e6572206e6f7220617070726f76656420666f7220616c6c0000000000000000602082015250565b6000612f5a6038836126da565b9150612f6582612efe565b604082019050919050565b60006020820190508181036000830152612f8981612f4d565b9050919050565b7f4552433732313a207472616e736665722063616c6c6572206973206e6f74206f60008201527f776e6572206e6f7220617070726f766564000000000000000000000000000000602082015250565b6000612fec6031836126da565b9150612ff782612f90565b604082019050919050565b6000602082019050818103600083015261301b81612fdf565b9050919050565b7f416363657373436f6e74726f6c3a2063616e206f6e6c792072656e6f756e636560008201527f20726f6c657320666f722073656c660000000000000000000000000000000000602082015250565b600061307e602f836126da565b915061308982613022565b604082019050919050565b600060208201905081810360008301526130ad81613071565b9050919050565b7f4f776e61626c653a2063616c6c6572206973206e6f7420746865206f776e6572600082015250565b60006130ea6020836126da565b91506130f5826130b4565b602082019050919050565b60006020820190508181036000830152613119816130dd565b9050919050565b7f4d657461646174612068617320616c7265616479206265656e2066696e616c6960008201527f7a65642e00000000000000000000000000000000000000000000000000000000602082015250565b600061317c6024836126da565b915061318782613120565b604082019050919050565b600060208201905081810360008301526131ab8161316f565b9050919050565b7f4552433732313a206f776e657220717565727920666f72206e6f6e657869737460008201527f656e7420746f6b656e0000000000000000000000000000000000000000000000602082015250565b600061320e6029836126da565b9150613219826131b2565b604082019050919050565b6000602082019050818103600083015261323d81613201565b9050919050565b7f4552433732313a2062616c616e636520717565727920666f7220746865207a6560008201527f726f206164647265737300000000000000000000000000000000000000000000602082015250565b60006132a0602a836126da565b91506132ab82613244565b604082019050919050565b600060208201905081810360008301526132cf81613293565b9050919050565b7f4d7573742062652061204d696e746572206f722041646d696e00000000000000600082015250565b600061330c6019836126da565b9150613317826132d6565b602082019050919050565b6000602082019050818103600083015261333b816132ff565b9050919050565b7f546f6b656e20494420646f6573206e6f7420657869737420696e20746869732060008201527f636f6c6c656374696f6e00000000000000000000000000000000000000000000602082015250565b600061339e602a836126da565b91506133a982613342565b604082019050919050565b600060208201905081810360008301526133cd81613391565b9050919050565b600081905092915050565b60006133ea826126cf565b6133f481856133d4565b93506134048185602086016126eb565b80840191505092915050565b7f2e6a736f6e000000000000000000000000000000000000000000000000000000600082015250565b60006134466005836133d4565b915061345182613410565b600582019050919050565b600061346882856133df565b915061347482846133df565b915061347f82613439565b91508190509392505050565b7f4f776e61626c653a206e6577206f776e657220697320746865207a65726f206160008201527f6464726573730000000000000000000000000000000000000000000000000000602082015250565b60006134e76026836126da565b91506134f28261348b565b604082019050919050565b60006020820190508181036000830152613516816134da565b9050919050565b7f4552433732313a206f70657261746f7220717565727920666f72206e6f6e657860008201527f697374656e7420746f6b656e0000000000000000000000000000000000000000602082015250565b6000613579602c836126da565b91506135848261351d565b604082019050919050565b600060208201905081810360008301526135a88161356c565b9050919050565b7f4552433732313a207472616e736665722066726f6d20696e636f72726563742060008201527f6f776e6572000000000000000000000000000000000000000000000000000000602082015250565b600061360b6025836126da565b9150613616826135af565b604082019050919050565b6000602082019050818103600083015261363a816135fe565b9050919050565b7f4552433732313a207472616e7366657220746f20746865207a65726f2061646460008201527f7265737300000000000000000000000000000000000000000000000000000000602082015250565b600061369d6024836126da565b91506136a882613641565b604082019050919050565b600060208201905081810360008301526136cc81613690565b9050919050565b7f4e487b7100000000000000000000000000000000000000000000000000000000600052601160045260246000fd5b600061370d8261278a565b91506137188361278a565b92508282101561372b5761372a6136d3565b5b828203905092915050565b60006137418261278a565b915061374c8361278a565b9250827fffffffffffffffffffffffffffffffffffffffffffffffffffffffffffffffff03821115613781576137806136d3565b5b828201905092915050565b60006040820190506137a1600083018561281f565b6137ae60208301846128b5565b9392505050565b60006137c08261278a565b91507fffffffffffffffffffffffffffffffffffffffffffffffffffffffffffffffff82036137f2576137f16136d3565b5b600182019050919050565b7f4552433732313a20617070726f766520746f2063616c6c657200000000000000600082015250565b60006138336019836126da565b915061383e826137fd565b602082019050919050565b6000602082019050818103600083015261386281613826565b9050919050565b7f4552433732313a207472616e7366657220746f206e6f6e20455243373231526560008201527f63656976657220696d706c656d656e7465720000000000000000000000000000602082015250565b60006138c56032836126da565b91506138d082613869565b604082019050919050565b600060208201905081810360008301526138f4816138b8565b9050919050565b7f4e487b7100000000000000000000000000000000000000000000000000000000600052601260045260246000fd5b60006139358261278a565b91506139408361278a565b9250826139505761394f6138fb565b5b828204905092915050565b60006139668261278a565b91506139718361278a565b925082613981576139806138fb565b5b828206905092915050565b7f4e487b7100000000000000000000000000000000000000000000000000000000600052603260045260246000fd5b7f416363657373436f6e74726f6c3a206163636f756e7420000000000000000000600082015250565b60006139f16017836133d4565b91506139fc826139bb565b601782019050919050565b7f206973206d697373696e6720726f6c6520000000000000000000000000000000600082015250565b6000613a3d6011836133d4565b9150613a4882613a07565b601182019050919050565b6000613a5e826139e4565b9150613a6a82856133df565b9150613a7582613a30565b9150613a8182846133df565b91508190509392505050565b600081519050919050565b600082825260208201905092915050565b6000613ab482613a8d565b613abe8185613a98565b9350613ace8185602086016126eb565b613ad78161271e565b840191505092915050565b6000608082019050613af7600083018761281f565b613b04602083018661281f565b613b1160408301856128b5565b8181036060830152613b238184613aa9565b905095945050505050565b600081519050613b3d81612640565b92915050565b600060208284031215613b5957613b5861260a565b5b6000613b6784828501613b2e565b91505092915050565b6000613b7b8261278a565b9150613b868361278a565b9250817fffffffffffffffffffffffffffffffffffffffffffffffffffffffffffffffff0483118215151615613bbf57613bbe6136d3565b5b828202905092915050565b6000613bd58261278a565b915060008203613be857613be76136d3565b5b600182039050919050565b7f537472696e67733a20686578206c656e67746820696e73756666696369656e74600082015250565b6000613c296020836126da565b9150613c3482613bf3565b602082019050919050565b60006020820190508181036000830152613c5881613c1c565b9050919050565b7f4552433732313a206d696e7420746f20746865207a65726f2061646472657373600082015250565b6000613c956020836126da565b9150613ca082613c5f565b602082019050919050565b60006020820190508181036000830152613cc481613c88565b9050919050565b7f4552433732313a20746f6b656e20616c7265616479206d696e74656400000000600082015250565b6000613d01601c836126da565b9150613d0c82613ccb565b602082019050919050565b60006020820190508181036000830152613d3081613cf4565b905091905056fea264697066735822122043e491c0cbac26096f246182003819a2227ae7d1e1392d03e7b29e1fb1fc0fb764736f6c634300080d0033",
  "linkReferences": {},
  "deployedLinkReferences": {}
}