{
  "_format": "hh-sol-artifact-1",
  "contractName": "CyberLionzAdults",
  "sourceName": "contracts/CyberLionzAdults.sol",
  "abi": [
    {
      "inputs": [
        {
          "internalType": "string",
          "name": "baseUri",
          "type": "string"
        },
        {
          "internalType": "address",
          "name": "cyberlionzMerger",
          "type": "address"
        }
      ],
      "stateMutability": "nonpayable",
      "type": "constructor"
    },
    {
      "anonymous": false,
      "inputs": [
        {
          "indexed": true,
          "internalType": "address",
          "name": "owner",
          "type": "address"
        },
        {
          "indexed": true,
          "internalType": "address",
          "name": "approved",
          "type": "address"
        },
        {
          "indexed": true,
          "internalType": "uint256",
          "name": "tokenId",
          "type": "uint256"
        }
      ],
      "name": "Approval",
      "type": "event"
    },
    {
      "anonymous": false,
      "inputs": [
        {
          "indexed": true,
          "internalType": "address",
          "name": "owner",
          "type": "address"
        },
        {
          "indexed": true,
          "internalType": "address",
          "name": "operator",
          "type": "address"
        },
        {
          "indexed": false,
          "internalType": "bool",
          "name": "approved",
          "type": "bool"
        }
      ],
      "name": "ApprovalForAll",
      "type": "event"
    },
    {
      "anonymous": false,
      "inputs": [
        {
          "indexed": false,
          "internalType": "address",
          "name": "to",
          "type": "address"
        },
        {
          "indexed": false,
          "internalType": "uint256",
          "name": "tokenId",
          "type": "uint256"
        }
      ],
      "name": "Mint",
      "type": "event"
    },
    {
      "anonymous": false,
      "inputs": [
        {
          "indexed": true,
          "internalType": "address",
          "name": "previousOwner",
          "type": "address"
        },
        {
          "indexed": true,
          "internalType": "address",
          "name": "newOwner",
          "type": "address"
        }
      ],
      "name": "OwnershipTransferred",
      "type": "event"
    },
    {
      "anonymous": false,
      "inputs": [
        {
          "indexed": true,
          "internalType": "address",
          "name": "from",
          "type": "address"
        },
        {
          "indexed": true,
          "internalType": "address",
          "name": "to",
          "type": "address"
        },
        {
          "indexed": true,
          "internalType": "uint256",
          "name": "tokenId",
          "type": "uint256"
        }
      ],
      "name": "Transfer",
      "type": "event"
    },
    {
      "inputs": [
        {
          "internalType": "address",
          "name": "to",
          "type": "address"
        },
        {
          "internalType": "uint256",
          "name": "tokenId",
          "type": "uint256"
        }
      ],
      "name": "approve",
      "outputs": [],
      "stateMutability": "nonpayable",
      "type": "function"
    },
    {
      "inputs": [
        {
          "internalType": "address",
          "name": "owner",
          "type": "address"
        }
      ],
      "name": "balanceOf",
      "outputs": [
        {
          "internalType": "uint256",
          "name": "",
          "type": "uint256"
        }
      ],
      "stateMutability": "view",
      "type": "function"
    },
    {
      "inputs": [],
      "name": "finalizeMetadata",
      "outputs": [],
      "stateMutability": "nonpayable",
      "type": "function"
    },
    {
      "inputs": [],
      "name": "finalized",
      "outputs": [
        {
          "internalType": "bool",
          "name": "",
          "type": "bool"
        }
      ],
      "stateMutability": "view",
      "type": "function"
    },
    {
      "inputs": [
        {
          "internalType": "uint256",
          "name": "tokenId",
          "type": "uint256"
        }
      ],
      "name": "getApproved",
      "outputs": [
        {
          "internalType": "address",
          "name": "",
          "type": "address"
        }
      ],
      "stateMutability": "view",
      "type": "function"
    },
    {
      "inputs": [
        {
          "internalType": "address",
          "name": "owner",
          "type": "address"
        },
        {
          "internalType": "address",
          "name": "operator",
          "type": "address"
        }
      ],
      "name": "isApprovedForAll",
      "outputs": [
        {
          "internalType": "bool",
          "name": "",
          "type": "bool"
        }
      ],
      "stateMutability": "view",
      "type": "function"
    },
    {
      "inputs": [
        {
          "internalType": "address",
          "name": "to",
          "type": "address"
        }
      ],
      "name": "mintFromMerger",
      "outputs": [],
      "stateMutability": "nonpayable",
      "type": "function"
    },
    {
      "inputs": [],
      "name": "name",
      "outputs": [
        {
          "internalType": "string",
          "name": "",
          "type": "string"
        }
      ],
      "stateMutability": "view",
      "type": "function"
    },
    {
      "inputs": [],
      "name": "owner",
      "outputs": [
        {
          "internalType": "address",
          "name": "",
          "type": "address"
        }
      ],
      "stateMutability": "view",
      "type": "function"
    },
    {
      "inputs": [
        {
          "internalType": "uint256",
          "name": "tokenId",
          "type": "uint256"
        }
      ],
      "name": "ownerOf",
      "outputs": [
        {
          "internalType": "address",
          "name": "",
          "type": "address"
        }
      ],
      "stateMutability": "view",
      "type": "function"
    },
    {
      "inputs": [],
      "name": "renounceOwnership",
      "outputs": [],
      "stateMutability": "nonpayable",
      "type": "function"
    },
    {
      "inputs": [
        {
          "internalType": "address",
          "name": "from",
          "type": "address"
        },
        {
          "internalType": "address",
          "name": "to",
          "type": "address"
        },
        {
          "internalType": "uint256",
          "name": "tokenId",
          "type": "uint256"
        }
      ],
      "name": "safeTransferFrom",
      "outputs": [],
      "stateMutability": "nonpayable",
      "type": "function"
    },
    {
      "inputs": [
        {
          "internalType": "address",
          "name": "from",
          "type": "address"
        },
        {
          "internalType": "address",
          "name": "to",
          "type": "address"
        },
        {
          "internalType": "uint256",
          "name": "tokenId",
          "type": "uint256"
        },
        {
          "internalType": "bytes",
          "name": "_data",
          "type": "bytes"
        }
      ],
      "name": "safeTransferFrom",
      "outputs": [],
      "stateMutability": "nonpayable",
      "type": "function"
    },
    {
      "inputs": [
        {
          "internalType": "address",
          "name": "operator",
          "type": "address"
        },
        {
          "internalType": "bool",
          "name": "approved",
          "type": "bool"
        }
      ],
      "name": "setApprovalForAll",
      "outputs": [],
      "stateMutability": "nonpayable",
      "type": "function"
    },
    {
      "inputs": [
        {
          "internalType": "string",
          "name": "baseUri",
          "type": "string"
        }
      ],
      "name": "setBaseURI",
      "outputs": [],
      "stateMutability": "nonpayable",
      "type": "function"
    },
    {
      "inputs": [
        {
          "internalType": "bytes4",
          "name": "interfaceId",
          "type": "bytes4"
        }
      ],
      "name": "supportsInterface",
      "outputs": [
        {
          "internalType": "bool",
          "name": "",
          "type": "bool"
        }
      ],
      "stateMutability": "view",
      "type": "function"
    },
    {
      "inputs": [],
      "name": "symbol",
      "outputs": [
        {
          "internalType": "string",
          "name": "",
          "type": "string"
        }
      ],
      "stateMutability": "view",
      "type": "function"
    },
    {
      "inputs": [
        {
          "internalType": "uint256",
          "name": "tokenId",
          "type": "uint256"
        }
      ],
      "name": "tokenURI",
      "outputs": [
        {
          "internalType": "string",
          "name": "",
          "type": "string"
        }
      ],
      "stateMutability": "view",
      "type": "function"
    },
    {
      "inputs": [],
      "name": "totalSupply",
      "outputs": [
        {
          "internalType": "uint256",
          "name": "",
          "type": "uint256"
        }
      ],
      "stateMutability": "view",
      "type": "function"
    },
    {
      "inputs": [
        {
          "internalType": "address",
          "name": "from",
          "type": "address"
        },
        {
          "internalType": "address",
          "name": "to",
          "type": "address"
        },
        {
          "internalType": "uint256",
          "name": "tokenId",
          "type": "uint256"
        }
      ],
      "name": "transferFrom",
      "outputs": [],
      "stateMutability": "nonpayable",
      "type": "function"
    },
    {
      "inputs": [
        {
          "internalType": "address",
          "name": "newOwner",
          "type": "address"
        }
      ],
      "name": "transferOwnership",
      "outputs": [],
      "stateMutability": "nonpayable",
      "type": "function"
    }
  ],
  "bytecode": "0x60a06040526000600860006101000a81548160ff0219169083151502179055503480156200002c57600080fd5b50604051620037fe380380620037fe8339818101604052810190620000529190620004e7565b6040518060400160405280601081526020017f43796265724c696f6e7a4164756c7473000000000000000000000000000000008152506040518060400160405280600381526020017f434c4100000000000000000000000000000000000000000000000000000000008152508160009080519060200190620000d692919062000235565b508060019080519060200190620000ef92919062000235565b50505062000112620001066200016760201b60201c565b6200016f60201b60201c565b81600990805190602001906200012a92919062000235565b508073ffffffffffffffffffffffffffffffffffffffff1660808173ffffffffffffffffffffffffffffffffffffffff16815250505050620005b1565b600033905090565b6000600660009054906101000a900473ffffffffffffffffffffffffffffffffffffffff16905081600660006101000a81548173ffffffffffffffffffffffffffffffffffffffff021916908373ffffffffffffffffffffffffffffffffffffffff1602179055508173ffffffffffffffffffffffffffffffffffffffff168173ffffffffffffffffffffffffffffffffffffffff167f8be0079c531659141344cd1fd0a4f28419497f9722a3daafe3b4186f6b6457e060405160405180910390a35050565b82805462000243906200057c565b90600052602060002090601f016020900481019282620002675760008555620002b3565b82601f106200028257805160ff1916838001178555620002b3565b82800160010185558215620002b3579182015b82811115620002b257825182559160200191906001019062000295565b5b509050620002c29190620002c6565b5090565b5b80821115620002e1576000816000905550600101620002c7565b5090565b6000604051905090565b600080fd5b600080fd5b600080fd5b600080fd5b6000601f19601f8301169050919050565b7f4e487b7100000000000000000000000000000000000000000000000000000000600052604160045260246000fd5b6200034e8262000303565b810181811067ffffffffffffffff8211171562000370576200036f62000314565b5b80604052505050565b600062000385620002e5565b905062000393828262000343565b919050565b600067ffffffffffffffff821115620003b657620003b562000314565b5b620003c18262000303565b9050602081019050919050565b60005b83811015620003ee578082015181840152602081019050620003d1565b83811115620003fe576000848401525b50505050565b60006200041b620004158462000398565b62000379565b9050828152602081018484840111156200043a5762000439620002fe565b5b62000447848285620003ce565b509392505050565b600082601f830112620004675762000466620002f9565b5b81516200047984826020860162000404565b91505092915050565b600073ffffffffffffffffffffffffffffffffffffffff82169050919050565b6000620004af8262000482565b9050919050565b620004c181620004a2565b8114620004cd57600080fd5b50565b600081519050620004e181620004b6565b92915050565b60008060408385031215620005015762000500620002ef565b5b600083015167ffffffffffffffff811115620005225762000521620002f4565b5b62000530858286016200044f565b92505060206200054385828601620004d0565b9150509250929050565b7f4e487b7100000000000000000000000000000000000000000000000000000000600052602260045260246000fd5b600060028204905060018216806200059557607f821691505b602082108103620005ab57620005aa6200054d565b5b50919050565b608051613231620005cd6000396000610a5f01526132316000f3fe608060405234801561001057600080fd5b50600436106101375760003560e01c8063715018a6116100b8578063b3f05b971161007c578063b3f05b9714610326578063b88d4fde14610344578063c87b56dd14610360578063e985e9c514610390578063f2fde38b146103c0578063f4a560a5146103dc57610137565b8063715018a6146102a85780638afe22c8146102b25780638da5cb5b146102ce57806395d89b41146102ec578063a22cb4651461030a57610137565b806323b872dd116100ff57806323b872dd146101f457806342842e0e1461021057806355f804b31461022c5780636352211e1461024857806370a082311461027857610137565b806301ffc9a71461013c57806306fdde031461016c578063081812fc1461018a578063095ea7b3146101ba57806318160ddd146101d6575b600080fd5b61015660048036038101906101519190611e50565b6103e6565b6040516101639190611e98565b60405180910390f35b6101746104c8565b6040516101819190611f4c565b60405180910390f35b6101a4600480360381019061019f9190611fa4565b61055a565b6040516101b19190612012565b60405180910390f35b6101d460048036038101906101cf9190612059565b6105df565b005b6101de6106f6565b6040516101eb91906120a8565b60405180910390f35b61020e600480360381019061020991906120c3565b610707565b005b61022a600480360381019061022591906120c3565b610767565b005b6102466004803603810190610241919061224b565b610787565b005b610262600480360381019061025d9190611fa4565b61086d565b60405161026f9190612012565b60405180910390f35b610292600480360381019061028d9190612294565b61091e565b60405161029f91906120a8565b60405180910390f35b6102b06109d5565b005b6102cc60048036038101906102c79190612294565b610a5d565b005b6102d6610b00565b6040516102e39190612012565b60405180910390f35b6102f4610b2a565b6040516103019190611f4c565b60405180910390f35b610324600480360381019061031f91906122ed565b610bbc565b005b61032e610bd2565b60405161033b9190611e98565b60405180910390f35b61035e600480360381019061035991906123ce565b610be5565b005b61037a60048036038101906103759190611fa4565b610c47565b6040516103879190611f4c565b60405180910390f35b6103aa60048036038101906103a59190612451565b610cc9565b6040516103b79190611e98565b60405180910390f35b6103da60048036038101906103d59190612294565b610d5d565b005b6103e4610e54565b005b60007f80ac58cd000000000000000000000000000000000000000000000000000000007bffffffffffffffffffffffffffffffffffffffffffffffffffffffff1916827bffffffffffffffffffffffffffffffffffffffffffffffffffffffff191614806104b157507f5b5e139f000000000000000000000000000000000000000000000000000000007bffffffffffffffffffffffffffffffffffffffffffffffffffffffff1916827bffffffffffffffffffffffffffffffffffffffffffffffffffffffff1916145b806104c157506104c082610f3d565b5b9050919050565b6060600080546104d7906124c0565b80601f0160208091040260200160405190810160405280929190818152602001828054610503906124c0565b80156105505780601f1061052557610100808354040283529160200191610550565b820191906000526020600020905b81548152906001019060200180831161053357829003601f168201915b5050505050905090565b600061056582610fa7565b6105a4576040517f08c379a000000000000000000000000000000000000000000000000000000000815260040161059b90612563565b60405180910390fd5b6004600083815260200190815260200160002060009054906101000a900473ffffffffffffffffffffffffffffffffffffffff169050919050565b60006105ea8261086d565b90508073ffffffffffffffffffffffffffffffffffffffff168373ffffffffffffffffffffffffffffffffffffffff160361065a576040517f08c379a0000000000000000000000000000000000000000000000000000000008152600401610651906125f5565b60405180910390fd5b8073ffffffffffffffffffffffffffffffffffffffff16610679611013565b73ffffffffffffffffffffffffffffffffffffffff1614806106a857506106a7816106a2611013565b610cc9565b5b6106e7576040517f08c379a00000000000000000000000000000000000000000000000000000000081526004016106de90612687565b60405180910390fd5b6106f1838361101b565b505050565b600061070260076110d4565b905090565b610718610712611013565b826110e2565b610757576040517f08c379a000000000000000000000000000000000000000000000000000000000815260040161074e90612719565b60405180910390fd5b6107628383836111c0565b505050565b61078283838360405180602001604052806000815250610be5565b505050565b61078f611013565b73ffffffffffffffffffffffffffffffffffffffff166107ad610b00565b73ffffffffffffffffffffffffffffffffffffffff1614610803576040517f08c379a00000000000000000000000000000000000000000000000000000000081526004016107fa90612785565b60405180910390fd5b600860009054906101000a900460ff1615610853576040517f08c379a000000000000000000000000000000000000000000000000000000000815260040161084a90612817565b60405180910390fd5b8060099080519060200190610869929190611d41565b5050565b6000806002600084815260200190815260200160002060009054906101000a900473ffffffffffffffffffffffffffffffffffffffff169050600073ffffffffffffffffffffffffffffffffffffffff168173ffffffffffffffffffffffffffffffffffffffff1603610915576040517f08c379a000000000000000000000000000000000000000000000000000000000815260040161090c906128a9565b60405180910390fd5b80915050919050565b60008073ffffffffffffffffffffffffffffffffffffffff168273ffffffffffffffffffffffffffffffffffffffff160361098e576040517f08c379a00000000000000000000000000000000000000000000000000000000081526004016109859061293b565b60405180910390fd5b600360008373ffffffffffffffffffffffffffffffffffffffff1673ffffffffffffffffffffffffffffffffffffffff168152602001908152602001600020549050919050565b6109dd611013565b73ffffffffffffffffffffffffffffffffffffffff166109fb610b00565b73ffffffffffffffffffffffffffffffffffffffff1614610a51576040517f08c379a0000000000000000000000000000000000000000000000000000000008152600401610a4890612785565b60405180910390fd5b610a5b6000611426565b565b7f000000000000000000000000000000000000000000000000000000000000000073ffffffffffffffffffffffffffffffffffffffff16610a9c611013565b73ffffffffffffffffffffffffffffffffffffffff1614610af2576040517f08c379a0000000000000000000000000000000000000000000000000000000008152600401610ae9906129a7565b60405180910390fd5b610afd8160016114ec565b50565b6000600660009054906101000a900473ffffffffffffffffffffffffffffffffffffffff16905090565b606060018054610b39906124c0565b80601f0160208091040260200160405190810160405280929190818152602001828054610b65906124c0565b8015610bb25780601f10610b8757610100808354040283529160200191610bb2565b820191906000526020600020905b815481529060010190602001808311610b9557829003601f168201915b5050505050905090565b610bce610bc7611013565b838361156b565b5050565b600860009054906101000a900460ff1681565b610bf6610bf0611013565b836110e2565b610c35576040517f08c379a0000000000000000000000000000000000000000000000000000000008152600401610c2c90612719565b60405180910390fd5b610c41848484846116d7565b50505050565b6060610c5282610fa7565b610c91576040517f08c379a0000000000000000000000000000000000000000000000000000000008152600401610c8890612a39565b60405180910390fd5b610c99611733565b610ca2836117c5565b604051602001610cb3929190612ae1565b6040516020818303038152906040529050919050565b6000600560008473ffffffffffffffffffffffffffffffffffffffff1673ffffffffffffffffffffffffffffffffffffffff16815260200190815260200160002060008373ffffffffffffffffffffffffffffffffffffffff1673ffffffffffffffffffffffffffffffffffffffff16815260200190815260200160002060009054906101000a900460ff16905092915050565b610d65611013565b73ffffffffffffffffffffffffffffffffffffffff16610d83610b00565b73ffffffffffffffffffffffffffffffffffffffff1614610dd9576040517f08c379a0000000000000000000000000000000000000000000000000000000008152600401610dd090612785565b60405180910390fd5b600073ffffffffffffffffffffffffffffffffffffffff168173ffffffffffffffffffffffffffffffffffffffff1603610e48576040517f08c379a0000000000000000000000000000000000000000000000000000000008152600401610e3f90612b82565b60405180910390fd5b610e5181611426565b50565b610e5c611013565b73ffffffffffffffffffffffffffffffffffffffff16610e7a610b00565b73ffffffffffffffffffffffffffffffffffffffff1614610ed0576040517f08c379a0000000000000000000000000000000000000000000000000000000008152600401610ec790612785565b60405180910390fd5b600860009054906101000a900460ff1615610f20576040517f08c379a0000000000000000000000000000000000000000000000000000000008152600401610f1790612817565b60405180910390fd5b6001600860006101000a81548160ff021916908315150217905550565b60007f01ffc9a7000000000000000000000000000000000000000000000000000000007bffffffffffffffffffffffffffffffffffffffffffffffffffffffff1916827bffffffffffffffffffffffffffffffffffffffffffffffffffffffff1916149050919050565b60008073ffffffffffffffffffffffffffffffffffffffff166002600084815260200190815260200160002060009054906101000a900473ffffffffffffffffffffffffffffffffffffffff1673ffffffffffffffffffffffffffffffffffffffff1614159050919050565b600033905090565b816004600083815260200190815260200160002060006101000a81548173ffffffffffffffffffffffffffffffffffffffff021916908373ffffffffffffffffffffffffffffffffffffffff160217905550808273ffffffffffffffffffffffffffffffffffffffff1661108e8361086d565b73ffffffffffffffffffffffffffffffffffffffff167f8c5be1e5ebec7d5bd14f71427d1e84f3dd0314c0f7b2291e5b200ac8c7c3b92560405160405180910390a45050565b600081600001549050919050565b60006110ed82610fa7565b61112c576040517f08c379a000000000000000000000000000000000000000000000000000000000815260040161112390612c14565b60405180910390fd5b60006111378361086d565b90508073ffffffffffffffffffffffffffffffffffffffff168473ffffffffffffffffffffffffffffffffffffffff16148061117957506111788185610cc9565b5b806111b757508373ffffffffffffffffffffffffffffffffffffffff1661119f8461055a565b73ffffffffffffffffffffffffffffffffffffffff16145b91505092915050565b8273ffffffffffffffffffffffffffffffffffffffff166111e08261086d565b73ffffffffffffffffffffffffffffffffffffffff1614611236576040517f08c379a000000000000000000000000000000000000000000000000000000000815260040161122d90612ca6565b60405180910390fd5b600073ffffffffffffffffffffffffffffffffffffffff168273ffffffffffffffffffffffffffffffffffffffff16036112a5576040517f08c379a000000000000000000000000000000000000000000000000000000000815260040161129c90612d38565b60405180910390fd5b6112b0838383611925565b6112bb60008261101b565b6001600360008573ffffffffffffffffffffffffffffffffffffffff1673ffffffffffffffffffffffffffffffffffffffff168152602001908152602001600020600082825461130b9190612d87565b925050819055506001600360008473ffffffffffffffffffffffffffffffffffffffff1673ffffffffffffffffffffffffffffffffffffffff16815260200190815260200160002060008282546113629190612dbb565b92505081905550816002600083815260200190815260200160002060006101000a81548173ffffffffffffffffffffffffffffffffffffffff021916908373ffffffffffffffffffffffffffffffffffffffff160217905550808273ffffffffffffffffffffffffffffffffffffffff168473ffffffffffffffffffffffffffffffffffffffff167fddf252ad1be2c89b69c2b068fc378daa952ba7f163c4a11628f55a4df523b3ef60405160405180910390a461142183838361192a565b505050565b6000600660009054906101000a900473ffffffffffffffffffffffffffffffffffffffff16905081600660006101000a81548173ffffffffffffffffffffffffffffffffffffffff021916908373ffffffffffffffffffffffffffffffffffffffff1602179055508173ffffffffffffffffffffffffffffffffffffffff168173ffffffffffffffffffffffffffffffffffffffff167f8be0079c531659141344cd1fd0a4f28419497f9722a3daafe3b4186f6b6457e060405160405180910390a35050565b60005b8181101561156657611501600761192f565b600061150d60076110d4565b90506115198482611945565b7f0f6798a560793a54c3bcfe86a93cde1e73087d944c0ea20544137d4121396885848260405161154a929190612e11565b60405180910390a150808061155e90612e3a565b9150506114ef565b505050565b8173ffffffffffffffffffffffffffffffffffffffff168373ffffffffffffffffffffffffffffffffffffffff16036115d9576040517f08c379a00000000000000000000000000000000000000000000000000000000081526004016115d090612ece565b60405180910390fd5b80600560008573ffffffffffffffffffffffffffffffffffffffff1673ffffffffffffffffffffffffffffffffffffffff16815260200190815260200160002060008473ffffffffffffffffffffffffffffffffffffffff1673ffffffffffffffffffffffffffffffffffffffff16815260200190815260200160002060006101000a81548160ff0219169083151502179055508173ffffffffffffffffffffffffffffffffffffffff168373ffffffffffffffffffffffffffffffffffffffff167f17307eab39ab6107e8899845ad3d59bd9653f200f220920489ca2b5937696c31836040516116ca9190611e98565b60405180910390a3505050565b6116e28484846111c0565b6116ee84848484611963565b61172d576040517f08c379a000000000000000000000000000000000000000000000000000000000815260040161172490612f60565b60405180910390fd5b50505050565b606060098054611742906124c0565b80601f016020809104026020016040519081016040528092919081815260200182805461176e906124c0565b80156117bb5780601f10611790576101008083540402835291602001916117bb565b820191906000526020600020905b81548152906001019060200180831161179e57829003601f168201915b5050505050905090565b60606000820361180c576040518060400160405280600181526020017f30000000000000000000000000000000000000000000000000000000000000008152509050611920565b600082905060005b6000821461183e57808061182790612e3a565b915050600a826118379190612faf565b9150611814565b60008167ffffffffffffffff81111561185a57611859612120565b5b6040519080825280601f01601f19166020018201604052801561188c5781602001600182028036833780820191505090505b5090505b60008514611919576001826118a59190612d87565b9150600a856118b49190612fe0565b60306118c09190612dbb565b60f81b8183815181106118d6576118d5613011565b5b60200101907effffffffffffffffffffffffffffffffffffffffffffffffffffffffffffff1916908160001a905350600a856119129190612faf565b9450611890565b8093505050505b919050565b505050565b505050565b6001816000016000828254019250508190555050565b61195f828260405180602001604052806000815250611aea565b5050565b60006119848473ffffffffffffffffffffffffffffffffffffffff16611b45565b15611add578373ffffffffffffffffffffffffffffffffffffffff1663150b7a026119ad611013565b8786866040518563ffffffff1660e01b81526004016119cf9493929190613095565b6020604051808303816000875af1925050508015611a0b57506040513d601f19601f82011682018060405250810190611a0891906130f6565b60015b611a8d573d8060008114611a3b576040519150601f19603f3d011682016040523d82523d6000602084013e611a40565b606091505b506000815103611a85576040517f08c379a0000000000000000000000000000000000000000000000000000000008152600401611a7c90612f60565b60405180910390fd5b805181602001fd5b63150b7a0260e01b7bffffffffffffffffffffffffffffffffffffffffffffffffffffffff1916817bffffffffffffffffffffffffffffffffffffffffffffffffffffffff191614915050611ae2565b600190505b949350505050565b611af48383611b68565b611b016000848484611963565b611b40576040517f08c379a0000000000000000000000000000000000000000000000000000000008152600401611b3790612f60565b60405180910390fd5b505050565b6000808273ffffffffffffffffffffffffffffffffffffffff163b119050919050565b600073ffffffffffffffffffffffffffffffffffffffff168273ffffffffffffffffffffffffffffffffffffffff1603611bd7576040517f08c379a0000000000000000000000000000000000000000000000000000000008152600401611bce9061316f565b60405180910390fd5b611be081610fa7565b15611c20576040517f08c379a0000000000000000000000000000000000000000000000000000000008152600401611c17906131db565b60405180910390fd5b611c2c60008383611925565b6001600360008473ffffffffffffffffffffffffffffffffffffffff1673ffffffffffffffffffffffffffffffffffffffff1681526020019081526020016000206000828254611c7c9190612dbb565b92505081905550816002600083815260200190815260200160002060006101000a81548173ffffffffffffffffffffffffffffffffffffffff021916908373ffffffffffffffffffffffffffffffffffffffff160217905550808273ffffffffffffffffffffffffffffffffffffffff16600073ffffffffffffffffffffffffffffffffffffffff167fddf252ad1be2c89b69c2b068fc378daa952ba7f163c4a11628f55a4df523b3ef60405160405180910390a4611d3d6000838361192a565b5050565b828054611d4d906124c0565b90600052602060002090601f016020900481019282611d6f5760008555611db6565b82601f10611d8857805160ff1916838001178555611db6565b82800160010185558215611db6579182015b82811115611db5578251825591602001919060010190611d9a565b5b509050611dc39190611dc7565b5090565b5b80821115611de0576000816000905550600101611dc8565b5090565b6000604051905090565b600080fd5b600080fd5b60007fffffffff0000000000000000000000000000000000000000000000000000000082169050919050565b611e2d81611df8565b8114611e3857600080fd5b50565b600081359050611e4a81611e24565b92915050565b600060208284031215611e6657611e65611dee565b5b6000611e7484828501611e3b565b91505092915050565b60008115159050919050565b611e9281611e7d565b82525050565b6000602082019050611ead6000830184611e89565b92915050565b600081519050919050565b600082825260208201905092915050565b60005b83811015611eed578082015181840152602081019050611ed2565b83811115611efc576000848401525b50505050565b6000601f19601f8301169050919050565b6000611f1e82611eb3565b611f288185611ebe565b9350611f38818560208601611ecf565b611f4181611f02565b840191505092915050565b60006020820190508181036000830152611f668184611f13565b905092915050565b6000819050919050565b611f8181611f6e565b8114611f8c57600080fd5b50565b600081359050611f9e81611f78565b92915050565b600060208284031215611fba57611fb9611dee565b5b6000611fc884828501611f8f565b91505092915050565b600073ffffffffffffffffffffffffffffffffffffffff82169050919050565b6000611ffc82611fd1565b9050919050565b61200c81611ff1565b82525050565b60006020820190506120276000830184612003565b92915050565b61203681611ff1565b811461204157600080fd5b50565b6000813590506120538161202d565b92915050565b600080604083850312156120705761206f611dee565b5b600061207e85828601612044565b925050602061208f85828601611f8f565b9150509250929050565b6120a281611f6e565b82525050565b60006020820190506120bd6000830184612099565b92915050565b6000806000606084860312156120dc576120db611dee565b5b60006120ea86828701612044565b93505060206120fb86828701612044565b925050604061210c86828701611f8f565b9150509250925092565b600080fd5b600080fd5b7f4e487b7100000000000000000000000000000000000000000000000000000000600052604160045260246000fd5b61215882611f02565b810181811067ffffffffffffffff8211171561217757612176612120565b5b80604052505050565b600061218a611de4565b9050612196828261214f565b919050565b600067ffffffffffffffff8211156121b6576121b5612120565b5b6121bf82611f02565b9050602081019050919050565b82818337600083830152505050565b60006121ee6121e98461219b565b612180565b90508281526020810184848401111561220a5761220961211b565b5b6122158482856121cc565b509392505050565b600082601f83011261223257612231612116565b5b81356122428482602086016121db565b91505092915050565b60006020828403121561226157612260611dee565b5b600082013567ffffffffffffffff81111561227f5761227e611df3565b5b61228b8482850161221d565b91505092915050565b6000602082840312156122aa576122a9611dee565b5b60006122b884828501612044565b91505092915050565b6122ca81611e7d565b81146122d557600080fd5b50565b6000813590506122e7816122c1565b92915050565b6000806040838503121561230457612303611dee565b5b600061231285828601612044565b9250506020612323858286016122d8565b9150509250929050565b600067ffffffffffffffff82111561234857612347612120565b5b61235182611f02565b9050602081019050919050565b600061237161236c8461232d565b612180565b90508281526020810184848401111561238d5761238c61211b565b5b6123988482856121cc565b509392505050565b600082601f8301126123b5576123b4612116565b5b81356123c584826020860161235e565b91505092915050565b600080600080608085870312156123e8576123e7611dee565b5b60006123f687828801612044565b945050602061240787828801612044565b935050604061241887828801611f8f565b925050606085013567ffffffffffffffff81111561243957612438611df3565b5b612445878288016123a0565b91505092959194509250565b6000806040838503121561246857612467611dee565b5b600061247685828601612044565b925050602061248785828601612044565b9150509250929050565b7f4e487b7100000000000000000000000000000000000000000000000000000000600052602260045260246000fd5b600060028204905060018216806124d857607f821691505b6020821081036124eb576124ea612491565b5b50919050565b7f4552433732313a20617070726f76656420717565727920666f72206e6f6e657860008201527f697374656e7420746f6b656e0000000000000000000000000000000000000000602082015250565b600061254d602c83611ebe565b9150612558826124f1565b604082019050919050565b6000602082019050818103600083015261257c81612540565b9050919050565b7f4552433732313a20617070726f76616c20746f2063757272656e74206f776e6560008201527f7200000000000000000000000000000000000000000000000000000000000000602082015250565b60006125df602183611ebe565b91506125ea82612583565b604082019050919050565b6000602082019050818103600083015261260e816125d2565b9050919050565b7f4552433732313a20617070726f76652063616c6c6572206973206e6f74206f7760008201527f6e6572206e6f7220617070726f76656420666f7220616c6c0000000000000000602082015250565b6000612671603883611ebe565b915061267c82612615565b604082019050919050565b600060208201905081810360008301526126a081612664565b9050919050565b7f4552433732313a207472616e736665722063616c6c6572206973206e6f74206f60008201527f776e6572206e6f7220617070726f766564000000000000000000000000000000602082015250565b6000612703603183611ebe565b915061270e826126a7565b604082019050919050565b60006020820190508181036000830152612732816126f6565b9050919050565b7f4f776e61626c653a2063616c6c6572206973206e6f7420746865206f776e6572600082015250565b600061276f602083611ebe565b915061277a82612739565b602082019050919050565b6000602082019050818103600083015261279e81612762565b9050919050565b7f4d657461646174612068617320616c7265616479206265656e2066696e616c6960008201527f7a65642e00000000000000000000000000000000000000000000000000000000602082015250565b6000612801602483611ebe565b915061280c826127a5565b604082019050919050565b60006020820190508181036000830152612830816127f4565b9050919050565b7f4552433732313a206f776e657220717565727920666f72206e6f6e657869737460008201527f656e7420746f6b656e0000000000000000000000000000000000000000000000602082015250565b6000612893602983611ebe565b915061289e82612837565b604082019050919050565b600060208201905081810360008301526128c281612886565b9050919050565b7f4552433732313a2062616c616e636520717565727920666f7220746865207a6560008201527f726f206164647265737300000000000000000000000000000000000000000000602082015250565b6000612925602a83611ebe565b9150612930826128c9565b604082019050919050565b6000602082019050818103600083015261295481612918565b9050919050565b7f53656e646572206973206e6f74206d6572676572000000000000000000000000600082015250565b6000612991601483611ebe565b915061299c8261295b565b602082019050919050565b600060208201905081810360008301526129c081612984565b9050919050565b7f546f6b656e20494420646f6573206e6f7420657869737420696e20746869732060008201527f636f6c6c656374696f6e00000000000000000000000000000000000000000000602082015250565b6000612a23602a83611ebe565b9150612a2e826129c7565b604082019050919050565b60006020820190508181036000830152612a5281612a16565b9050919050565b600081905092915050565b6000612a6f82611eb3565b612a798185612a59565b9350612a89818560208601611ecf565b80840191505092915050565b7f2e6a736f6e000000000000000000000000000000000000000000000000000000600082015250565b6000612acb600583612a59565b9150612ad682612a95565b600582019050919050565b6000612aed8285612a64565b9150612af98284612a64565b9150612b0482612abe565b91508190509392505050565b7f4f776e61626c653a206e6577206f776e657220697320746865207a65726f206160008201527f6464726573730000000000000000000000000000000000000000000000000000602082015250565b6000612b6c602683611ebe565b9150612b7782612b10565b604082019050919050565b60006020820190508181036000830152612b9b81612b5f565b9050919050565b7f4552433732313a206f70657261746f7220717565727920666f72206e6f6e657860008201527f697374656e7420746f6b656e0000000000000000000000000000000000000000602082015250565b6000612bfe602c83611ebe565b9150612c0982612ba2565b604082019050919050565b60006020820190508181036000830152612c2d81612bf1565b9050919050565b7f4552433732313a207472616e736665722066726f6d20696e636f72726563742060008201527f6f776e6572000000000000000000000000000000000000000000000000000000602082015250565b6000612c90602583611ebe565b9150612c9b82612c34565b604082019050919050565b60006020820190508181036000830152612cbf81612c83565b9050919050565b7f4552433732313a207472616e7366657220746f20746865207a65726f2061646460008201527f7265737300000000000000000000000000000000000000000000000000000000602082015250565b6000612d22602483611ebe565b9150612d2d82612cc6565b604082019050919050565b60006020820190508181036000830152612d5181612d15565b9050919050565b7f4e487b7100000000000000000000000000000000000000000000000000000000600052601160045260246000fd5b6000612d9282611f6e565b9150612d9d83611f6e565b925082821015612db057612daf612d58565b5b828203905092915050565b6000612dc682611f6e565b9150612dd183611f6e565b9250827fffffffffffffffffffffffffffffffffffffffffffffffffffffffffffffffff03821115612e0657612e05612d58565b5b828201905092915050565b6000604082019050612e266000830185612003565b612e336020830184612099565b9392505050565b6000612e4582611f6e565b91507fffffffffffffffffffffffffffffffffffffffffffffffffffffffffffffffff8203612e7757612e76612d58565b5b600182019050919050565b7f4552433732313a20617070726f766520746f2063616c6c657200000000000000600082015250565b6000612eb8601983611ebe565b9150612ec382612e82565b602082019050919050565b60006020820190508181036000830152612ee781612eab565b9050919050565b7f4552433732313a207472616e7366657220746f206e6f6e20455243373231526560008201527f63656976657220696d706c656d656e7465720000000000000000000000000000602082015250565b6000612f4a603283611ebe565b9150612f5582612eee565b604082019050919050565b60006020820190508181036000830152612f7981612f3d565b9050919050565b7f4e487b7100000000000000000000000000000000000000000000000000000000600052601260045260246000fd5b6000612fba82611f6e565b9150612fc583611f6e565b925082612fd557612fd4612f80565b5b828204905092915050565b6000612feb82611f6e565b9150612ff683611f6e565b92508261300657613005612f80565b5b828206905092915050565b7f4e487b7100000000000000000000000000000000000000000000000000000000600052603260045260246000fd5b600081519050919050565b600082825260208201905092915050565b600061306782613040565b613071818561304b565b9350613081818560208601611ecf565b61308a81611f02565b840191505092915050565b60006080820190506130aa6000830187612003565b6130b76020830186612003565b6130c46040830185612099565b81810360608301526130d6818461305c565b905095945050505050565b6000815190506130f081611e24565b92915050565b60006020828403121561310c5761310b611dee565b5b600061311a848285016130e1565b91505092915050565b7f4552433732313a206d696e7420746f20746865207a65726f2061646472657373600082015250565b6000613159602083611ebe565b915061316482613123565b602082019050919050565b600060208201905081810360008301526131888161314c565b9050919050565b7f4552433732313a20746f6b656e20616c7265616479206d696e74656400000000600082015250565b60006131c5601c83611ebe565b91506131d08261318f565b602082019050919050565b600060208201905081810360008301526131f4816131b8565b905091905056fea26469706673582212203415d7772c90c632806a76cdfc7a27fea91cfd0adbeea6c3ed1faeb455c4be0464736f6c634300080d0033",
  "linkReferences": {},
  "deployedLinkReferences": {}
}