{
  "_format": "hh-sol-artifact-1",
  "contractName": "CyberLionzAdults",
  "sourceName": "contracts/CyberLionzAdults.sol",
  "abi": [
    {
      "inputs": [
        {
          "internalType": "string",
          "name": "baseUri",
          "type": "string"
        },
        {
          "internalType": "bytes32",
          "name": "merkleRoot",
          "type": "bytes32"
        },
        {
          "internalType": "address",
          "name": "revenueRecipient",
          "type": "address"
        }
      ],
      "stateMutability": "nonpayable",
      "type": "constructor"
    },
    {
      "anonymous": false,
      "inputs": [
        {
          "indexed": true,
          "internalType": "address",
          "name": "owner",
          "type": "address"
        },
        {
          "indexed": true,
          "internalType": "address",
          "name": "approved",
          "type": "address"
        },
        {
          "indexed": true,
          "internalType": "uint256",
          "name": "tokenId",
          "type": "uint256"
        }
      ],
      "name": "Approval",
      "type": "event"
    },
    {
      "anonymous": false,
      "inputs": [
        {
          "indexed": true,
          "internalType": "address",
          "name": "owner",
          "type": "address"
        },
        {
          "indexed": true,
          "internalType": "address",
          "name": "operator",
          "type": "address"
        },
        {
          "indexed": false,
          "internalType": "bool",
          "name": "approved",
          "type": "bool"
        }
      ],
      "name": "ApprovalForAll",
      "type": "event"
    },
    {
      "anonymous": false,
      "inputs": [
        {
          "indexed": true,
          "internalType": "address",
          "name": "previousOwner",
          "type": "address"
        },
        {
          "indexed": true,
          "internalType": "address",
          "name": "newOwner",
          "type": "address"
        }
      ],
      "name": "OwnershipTransferred",
      "type": "event"
    },
    {
      "anonymous": false,
      "inputs": [
        {
          "indexed": true,
          "internalType": "address",
          "name": "from",
          "type": "address"
        },
        {
          "indexed": true,
          "internalType": "address",
          "name": "to",
          "type": "address"
        },
        {
          "indexed": true,
          "internalType": "uint256",
          "name": "tokenId",
          "type": "uint256"
        }
      ],
      "name": "Transfer",
      "type": "event"
    },
    {
      "inputs": [],
      "name": "COLLECTION_SIZE",
      "outputs": [
        {
          "internalType": "uint256",
          "name": "",
          "type": "uint256"
        }
      ],
      "stateMutability": "view",
      "type": "function"
    },
    {
      "inputs": [],
      "name": "MINT_PRICE",
      "outputs": [
        {
          "internalType": "uint256",
          "name": "",
          "type": "uint256"
        }
      ],
      "stateMutability": "view",
      "type": "function"
    },
    {
      "inputs": [],
      "name": "PUBLIC_MINT_LIMIT",
      "outputs": [
        {
          "internalType": "uint256",
          "name": "",
          "type": "uint256"
        }
      ],
      "stateMutability": "view",
      "type": "function"
    },
    {
      "inputs": [
        {
          "internalType": "address",
          "name": "to",
          "type": "address"
        },
        {
          "internalType": "uint256",
          "name": "count",
          "type": "uint256"
        }
      ],
      "name": "airdrop",
      "outputs": [],
      "stateMutability": "nonpayable",
      "type": "function"
    },
    {
      "inputs": [],
      "name": "airdropped",
      "outputs": [
        {
          "internalType": "uint256",
          "name": "",
          "type": "uint256"
        }
      ],
      "stateMutability": "view",
      "type": "function"
    },
    {
      "inputs": [
        {
          "internalType": "address",
          "name": "to",
          "type": "address"
        },
        {
          "internalType": "uint256",
          "name": "tokenId",
          "type": "uint256"
        }
      ],
      "name": "approve",
      "outputs": [],
      "stateMutability": "nonpayable",
      "type": "function"
    },
    {
      "inputs": [
        {
          "internalType": "address",
          "name": "owner",
          "type": "address"
        }
      ],
      "name": "balanceOf",
      "outputs": [
        {
          "internalType": "uint256",
          "name": "",
          "type": "uint256"
        }
      ],
      "stateMutability": "view",
      "type": "function"
    },
    {
      "inputs": [],
      "name": "finalizeMetadata",
      "outputs": [],
      "stateMutability": "nonpayable",
      "type": "function"
    },
    {
      "inputs": [],
      "name": "finalized",
      "outputs": [
        {
          "internalType": "bool",
          "name": "",
          "type": "bool"
        }
      ],
      "stateMutability": "view",
      "type": "function"
    },
    {
      "inputs": [
        {
          "internalType": "uint256",
          "name": "tokenId",
          "type": "uint256"
        }
      ],
      "name": "getApproved",
      "outputs": [
        {
          "internalType": "address",
          "name": "",
          "type": "address"
        }
      ],
      "stateMutability": "view",
      "type": "function"
    },
    {
      "inputs": [
        {
          "internalType": "address",
          "name": "owner",
          "type": "address"
        },
        {
          "internalType": "address",
          "name": "operator",
          "type": "address"
        }
      ],
      "name": "isApprovedForAll",
      "outputs": [
        {
          "internalType": "bool",
          "name": "",
          "type": "bool"
        }
      ],
      "stateMutability": "view",
      "type": "function"
    },
    {
      "inputs": [
        {
          "internalType": "uint256",
          "name": "count",
          "type": "uint256"
        }
      ],
      "name": "mint",
      "outputs": [],
      "stateMutability": "payable",
      "type": "function"
    },
    {
      "inputs": [],
      "name": "name",
      "outputs": [
        {
          "internalType": "string",
          "name": "",
          "type": "string"
        }
      ],
      "stateMutability": "view",
      "type": "function"
    },
    {
      "inputs": [
        {
          "internalType": "address",
          "name": "addr",
          "type": "address"
        },
        {
          "internalType": "bytes32[]",
          "name": "_merkleProof",
          "type": "bytes32[]"
        }
      ],
      "name": "onWhitelist",
      "outputs": [
        {
          "internalType": "bool",
          "name": "",
          "type": "bool"
        }
      ],
      "stateMutability": "view",
      "type": "function"
    },
    {
      "inputs": [],
      "name": "owner",
      "outputs": [
        {
          "internalType": "address",
          "name": "",
          "type": "address"
        }
      ],
      "stateMutability": "view",
      "type": "function"
    },
    {
      "inputs": [
        {
          "internalType": "uint256",
          "name": "tokenId",
          "type": "uint256"
        }
      ],
      "name": "ownerOf",
      "outputs": [
        {
          "internalType": "address",
          "name": "",
          "type": "address"
        }
      ],
      "stateMutability": "view",
      "type": "function"
    },
    {
      "inputs": [],
      "name": "presaleMerkleRoot",
      "outputs": [
        {
          "internalType": "bytes32",
          "name": "",
          "type": "bytes32"
        }
      ],
      "stateMutability": "view",
      "type": "function"
    },
    {
      "inputs": [
        {
          "internalType": "bytes32[]",
          "name": "_merkleProof",
          "type": "bytes32[]"
        }
      ],
      "name": "presaleMint",
      "outputs": [],
      "stateMutability": "payable",
      "type": "function"
    },
    {
      "inputs": [],
      "name": "renounceOwnership",
      "outputs": [],
      "stateMutability": "nonpayable",
      "type": "function"
    },
    {
      "inputs": [
        {
          "internalType": "address",
          "name": "from",
          "type": "address"
        },
        {
          "internalType": "address",
          "name": "to",
          "type": "address"
        },
        {
          "internalType": "uint256",
          "name": "tokenId",
          "type": "uint256"
        }
      ],
      "name": "safeTransferFrom",
      "outputs": [],
      "stateMutability": "nonpayable",
      "type": "function"
    },
    {
      "inputs": [
        {
          "internalType": "address",
          "name": "from",
          "type": "address"
        },
        {
          "internalType": "address",
          "name": "to",
          "type": "address"
        },
        {
          "internalType": "uint256",
          "name": "tokenId",
          "type": "uint256"
        },
        {
          "internalType": "bytes",
          "name": "_data",
          "type": "bytes"
        }
      ],
      "name": "safeTransferFrom",
      "outputs": [],
      "stateMutability": "nonpayable",
      "type": "function"
    },
    {
      "inputs": [],
      "name": "saleStatus",
      "outputs": [
        {
          "internalType": "enum CyberLionzAdults.SaleStatus",
          "name": "",
          "type": "uint8"
        }
      ],
      "stateMutability": "view",
      "type": "function"
    },
    {
      "inputs": [
        {
          "internalType": "address",
          "name": "operator",
          "type": "address"
        },
        {
          "internalType": "bool",
          "name": "approved",
          "type": "bool"
        }
      ],
      "name": "setApprovalForAll",
      "outputs": [],
      "stateMutability": "nonpayable",
      "type": "function"
    },
    {
      "inputs": [
        {
          "internalType": "string",
          "name": "baseUri",
          "type": "string"
        }
      ],
      "name": "setBaseURI",
      "outputs": [],
      "stateMutability": "nonpayable",
      "type": "function"
    },
    {
      "inputs": [
        {
          "internalType": "uint256",
          "name": "newSize",
          "type": "uint256"
        }
      ],
      "name": "setCollectionSize",
      "outputs": [],
      "stateMutability": "nonpayable",
      "type": "function"
    },
    {
      "inputs": [
        {
          "internalType": "bytes32",
          "name": "merkleRoot",
          "type": "bytes32"
        }
      ],
      "name": "setPresaleMerkleRoot",
      "outputs": [],
      "stateMutability": "nonpayable",
      "type": "function"
    },
    {
      "inputs": [
        {
          "internalType": "enum CyberLionzAdults.SaleStatus",
          "name": "status",
          "type": "uint8"
        }
      ],
      "name": "setSaleStatus",
      "outputs": [],
      "stateMutability": "nonpayable",
      "type": "function"
    },
    {
      "inputs": [
        {
          "internalType": "bytes4",
          "name": "interfaceId",
          "type": "bytes4"
        }
      ],
      "name": "supportsInterface",
      "outputs": [
        {
          "internalType": "bool",
          "name": "",
          "type": "bool"
        }
      ],
      "stateMutability": "view",
      "type": "function"
    },
    {
      "inputs": [],
      "name": "symbol",
      "outputs": [
        {
          "internalType": "string",
          "name": "",
          "type": "string"
        }
      ],
      "stateMutability": "view",
      "type": "function"
    },
    {
      "inputs": [
        {
          "internalType": "uint256",
          "name": "tokenId",
          "type": "uint256"
        }
      ],
      "name": "tokenURI",
      "outputs": [
        {
          "internalType": "string",
          "name": "",
          "type": "string"
        }
      ],
      "stateMutability": "view",
      "type": "function"
    },
    {
      "inputs": [],
      "name": "totalSupply",
      "outputs": [
        {
          "internalType": "uint256",
          "name": "",
          "type": "uint256"
        }
      ],
      "stateMutability": "view",
      "type": "function"
    },
    {
      "inputs": [
        {
          "internalType": "address",
          "name": "from",
          "type": "address"
        },
        {
          "internalType": "address",
          "name": "to",
          "type": "address"
        },
        {
          "internalType": "uint256",
          "name": "tokenId",
          "type": "uint256"
        }
      ],
      "name": "transferFrom",
      "outputs": [],
      "stateMutability": "nonpayable",
      "type": "function"
    },
    {
      "inputs": [
        {
          "internalType": "address",
          "name": "newOwner",
          "type": "address"
        }
      ],
      "name": "transferOwnership",
      "outputs": [],
      "stateMutability": "nonpayable",
      "type": "function"
    },
    {
      "inputs": [],
      "name": "withdraw",
      "outputs": [],
      "stateMutability": "nonpayable",
      "type": "function"
    }
  ],
  "bytecode": "0x60a06040526101f46009556000600a60006101000a81548160ff0219169083600281111562000033576200003262000326565b5b02179055506000600a60016101000a81548160ff0219169083151502179055506000600b553480156200006557600080fd5b50604051620050453803806200504583398181016040528101906200008b919062000592565b6040518060400160405280601081526020017f43796265724c696f6e7a4164756c7473000000000000000000000000000000008152506040518060400160405280600381526020017f434c41000000000000000000000000000000000000000000000000000000000081525081600090805190602001906200010f92919062000276565b5080600190805190602001906200012892919062000276565b5050506200014b6200013f620001a860201b60201c565b620001b060201b60201c565b82600c90805190602001906200016392919062000276565b50816008819055508073ffffffffffffffffffffffffffffffffffffffff1660808173ffffffffffffffffffffffffffffffffffffffff168152505050505062000671565b600033905090565b6000600660009054906101000a900473ffffffffffffffffffffffffffffffffffffffff16905081600660006101000a81548173ffffffffffffffffffffffffffffffffffffffff021916908373ffffffffffffffffffffffffffffffffffffffff1602179055508173ffffffffffffffffffffffffffffffffffffffff168173ffffffffffffffffffffffffffffffffffffffff167f8be0079c531659141344cd1fd0a4f28419497f9722a3daafe3b4186f6b6457e060405160405180910390a35050565b82805462000284906200063c565b90600052602060002090601f016020900481019282620002a85760008555620002f4565b82601f10620002c357805160ff1916838001178555620002f4565b82800160010185558215620002f4579182015b82811115620002f3578251825591602001919060010190620002d6565b5b50905062000303919062000307565b5090565b5b808211156200032257600081600090555060010162000308565b5090565b7f4e487b7100000000000000000000000000000000000000000000000000000000600052602160045260246000fd5b6000604051905090565b600080fd5b600080fd5b600080fd5b600080fd5b6000601f19601f8301169050919050565b7f4e487b7100000000000000000000000000000000000000000000000000000000600052604160045260246000fd5b620003be8262000373565b810181811067ffffffffffffffff82111715620003e057620003df62000384565b5b80604052505050565b6000620003f562000355565b9050620004038282620003b3565b919050565b600067ffffffffffffffff82111562000426576200042562000384565b5b620004318262000373565b9050602081019050919050565b60005b838110156200045e57808201518184015260208101905062000441565b838111156200046e576000848401525b50505050565b60006200048b620004858462000408565b620003e9565b905082815260208101848484011115620004aa57620004a96200036e565b5b620004b78482856200043e565b509392505050565b600082601f830112620004d757620004d662000369565b5b8151620004e984826020860162000474565b91505092915050565b6000819050919050565b6200050781620004f2565b81146200051357600080fd5b50565b6000815190506200052781620004fc565b92915050565b600073ffffffffffffffffffffffffffffffffffffffff82169050919050565b60006200055a826200052d565b9050919050565b6200056c816200054d565b81146200057857600080fd5b50565b6000815190506200058c8162000561565b92915050565b600080600060608486031215620005ae57620005ad6200035f565b5b600084015167ffffffffffffffff811115620005cf57620005ce62000364565b5b620005dd86828701620004bf565b9350506020620005f08682870162000516565b925050604062000603868287016200057b565b9150509250925092565b7f4e487b7100000000000000000000000000000000000000000000000000000000600052602260045260246000fd5b600060028204905060018216806200065557607f821691505b6020821081036200066b576200066a6200060d565b5b50919050565b6080516149b86200068d6000396000610c7101526149b86000f3fe6080604052600436106101f95760003560e01c80638da5cb5b1161010d578063c002d23d116100a0578063e985e9c51161006f578063e985e9c5146106fe578063edc0c72c1461073b578063f2fde38b14610757578063f4a560a514610780578063f9020e3314610797576101f9565b8063c002d23d1461062e578063c87b56dd14610659578063c9d40e1814610696578063d8258d95146106d3576101f9565b8063aca8ffe7116100dc578063aca8ffe714610586578063b3f05b97146105af578063b88d4fde146105da578063bceae77b14610603576101f9565b80638da5cb5b146104eb57806395d89b4114610516578063a0712d6814610541578063a22cb4651461055d576101f9565b806328d7b2761161019057806355f804b31161015f57806355f804b3146104085780636352211e1461043157806370a082311461046e578063715018a6146104ab5780638ba4cc3c146104c2576101f9565b806328d7b276146103765780633ccfd60b1461039f57806342842e0e146103b65780634891ad88146103df576101f9565b806318160ddd116101cc57806318160ddd146102cc57806319cc02aa146102f757806322212e2b1461032257806323b872dd1461034d576101f9565b806301ffc9a7146101fe57806306fdde031461023b578063081812fc14610266578063095ea7b3146102a3575b600080fd5b34801561020a57600080fd5b5061022560048036038101906102209190612b87565b6107c2565b6040516102329190612bcf565b60405180910390f35b34801561024757600080fd5b506102506108a4565b60405161025d9190612c83565b60405180910390f35b34801561027257600080fd5b5061028d60048036038101906102889190612cdb565b610936565b60405161029a9190612d49565b60405180910390f35b3480156102af57600080fd5b506102ca60048036038101906102c59190612d90565b6109bb565b005b3480156102d857600080fd5b506102e1610ad2565b6040516102ee9190612ddf565b60405180910390f35b34801561030357600080fd5b5061030c610ae3565b6040516103199190612ddf565b60405180910390f35b34801561032e57600080fd5b50610337610ae9565b6040516103449190612e13565b60405180910390f35b34801561035957600080fd5b50610374600480360381019061036f9190612e2e565b610aef565b005b34801561038257600080fd5b5061039d60048036038101906103989190612ead565b610b4f565b005b3480156103ab57600080fd5b506103b4610c25565b005b3480156103c257600080fd5b506103dd60048036038101906103d89190612e2e565b610d3d565b005b3480156103eb57600080fd5b5061040660048036038101906104019190612eff565b610d5d565b005b34801561041457600080fd5b5061042f600480360381019061042a9190613061565b610e06565b005b34801561043d57600080fd5b5061045860048036038101906104539190612cdb565b610eec565b6040516104659190612d49565b60405180910390f35b34801561047a57600080fd5b50610495600480360381019061049091906130aa565b610f9d565b6040516104a29190612ddf565b60405180910390f35b3480156104b757600080fd5b506104c0611054565b005b3480156104ce57600080fd5b506104e960048036038101906104e49190612d90565b6110dc565b005b3480156104f757600080fd5b50610500611229565b60405161050d9190612d49565b60405180910390f35b34801561052257600080fd5b5061052b611253565b6040516105389190612c83565b60405180910390f35b61055b60048036038101906105569190612cdb565b6112e5565b005b34801561056957600080fd5b50610584600480360381019061057f9190613103565b6114fa565b005b34801561059257600080fd5b506105ad60048036038101906105a89190612cdb565b611510565b005b3480156105bb57600080fd5b506105c4611596565b6040516105d19190612bcf565b60405180910390f35b3480156105e657600080fd5b5061060160048036038101906105fc91906131e4565b6115a9565b005b34801561060f57600080fd5b5061061861160b565b6040516106259190612ddf565b60405180910390f35b34801561063a57600080fd5b50610643611610565b6040516106509190612ddf565b60405180910390f35b34801561066557600080fd5b50610680600480360381019061067b9190612cdb565b61161c565b60405161068d9190612c83565b60405180910390f35b3480156106a257600080fd5b506106bd60048036038101906106b891906132c7565b61169e565b6040516106ca9190612bcf565b60405180910390f35b3480156106df57600080fd5b506106e8611724565b6040516106f59190612ddf565b60405180910390f35b34801561070a57600080fd5b5061072560048036038101906107209190613327565b61172a565b6040516107329190612bcf565b60405180910390f35b61075560048036038101906107509190613367565b6117be565b005b34801561076357600080fd5b5061077e600480360381019061077991906130aa565b611a17565b005b34801561078c57600080fd5b50610795611b0e565b005b3480156107a357600080fd5b506107ac611bf7565b6040516107b9919061342b565b60405180910390f35b60007f80ac58cd000000000000000000000000000000000000000000000000000000007bffffffffffffffffffffffffffffffffffffffffffffffffffffffff1916827bffffffffffffffffffffffffffffffffffffffffffffffffffffffff1916148061088d57507f5b5e139f000000000000000000000000000000000000000000000000000000007bffffffffffffffffffffffffffffffffffffffffffffffffffffffff1916827bffffffffffffffffffffffffffffffffffffffffffffffffffffffff1916145b8061089d575061089c82611c0a565b5b9050919050565b6060600080546108b390613475565b80601f01602080910402602001604051908101604052809291908181526020018280546108df90613475565b801561092c5780601f106109015761010080835404028352916020019161092c565b820191906000526020600020905b81548152906001019060200180831161090f57829003601f168201915b5050505050905090565b600061094182611c74565b610980576040517f08c379a000000000000000000000000000000000000000000000000000000000815260040161097790613518565b60405180910390fd5b6004600083815260200190815260200160002060009054906101000a900473ffffffffffffffffffffffffffffffffffffffff169050919050565b60006109c682610eec565b90508073ffffffffffffffffffffffffffffffffffffffff168373ffffffffffffffffffffffffffffffffffffffff1603610a36576040517f08c379a0000000000000000000000000000000000000000000000000000000008152600401610a2d906135aa565b60405180910390fd5b8073ffffffffffffffffffffffffffffffffffffffff16610a55611ce0565b73ffffffffffffffffffffffffffffffffffffffff161480610a845750610a8381610a7e611ce0565b61172a565b5b610ac3576040517f08c379a0000000000000000000000000000000000000000000000000000000008152600401610aba9061363c565b60405180910390fd5b610acd8383611ce8565b505050565b6000610ade6007611da1565b905090565b600b5481565b60085481565b610b00610afa611ce0565b82611daf565b610b3f576040517f08c379a0000000000000000000000000000000000000000000000000000000008152600401610b36906136ce565b60405180910390fd5b610b4a838383611e8d565b505050565b610b57611ce0565b73ffffffffffffffffffffffffffffffffffffffff16610b75611229565b73ffffffffffffffffffffffffffffffffffffffff1614610bcb576040517f08c379a0000000000000000000000000000000000000000000000000000000008152600401610bc29061373a565b60405180910390fd5b600a60019054906101000a900460ff1615610c1b576040517f08c379a0000000000000000000000000000000000000000000000000000000008152600401610c12906137cc565b60405180910390fd5b8060088190555050565b600047905060008111610c6d576040517f08c379a0000000000000000000000000000000000000000000000000000000008152600401610c6490613838565b60405180910390fd5b60007f000000000000000000000000000000000000000000000000000000000000000073ffffffffffffffffffffffffffffffffffffffff1682604051610cb390613889565b60006040518083038185875af1925050503d8060008114610cf0576040519150601f19603f3d011682016040523d82523d6000602084013e610cf5565b606091505b5050905080610d39576040517f08c379a0000000000000000000000000000000000000000000000000000000008152600401610d30906138ea565b60405180910390fd5b5050565b610d58838383604051806020016040528060008152506115a9565b505050565b610d65611ce0565b73ffffffffffffffffffffffffffffffffffffffff16610d83611229565b73ffffffffffffffffffffffffffffffffffffffff1614610dd9576040517f08c379a0000000000000000000000000000000000000000000000000000000008152600401610dd09061373a565b60405180910390fd5b80600a60006101000a81548160ff02191690836002811115610dfe57610dfd6133b4565b5b021790555050565b610e0e611ce0565b73ffffffffffffffffffffffffffffffffffffffff16610e2c611229565b73ffffffffffffffffffffffffffffffffffffffff1614610e82576040517f08c379a0000000000000000000000000000000000000000000000000000000008152600401610e799061373a565b60405180910390fd5b600a60019054906101000a900460ff1615610ed2576040517f08c379a0000000000000000000000000000000000000000000000000000000008152600401610ec99061397c565b60405180910390fd5b80600c9080519060200190610ee8929190612a78565b5050565b6000806002600084815260200190815260200160002060009054906101000a900473ffffffffffffffffffffffffffffffffffffffff169050600073ffffffffffffffffffffffffffffffffffffffff168173ffffffffffffffffffffffffffffffffffffffff1603610f94576040517f08c379a0000000000000000000000000000000000000000000000000000000008152600401610f8b90613a0e565b60405180910390fd5b80915050919050565b60008073ffffffffffffffffffffffffffffffffffffffff168273ffffffffffffffffffffffffffffffffffffffff160361100d576040517f08c379a000000000000000000000000000000000000000000000000000000000815260040161100490613aa0565b60405180910390fd5b600360008373ffffffffffffffffffffffffffffffffffffffff1673ffffffffffffffffffffffffffffffffffffffff168152602001908152602001600020549050919050565b61105c611ce0565b73ffffffffffffffffffffffffffffffffffffffff1661107a611229565b73ffffffffffffffffffffffffffffffffffffffff16146110d0576040517f08c379a00000000000000000000000000000000000000000000000000000000081526004016110c79061373a565b60405180910390fd5b6110da60006120f3565b565b6110e4611ce0565b73ffffffffffffffffffffffffffffffffffffffff16611102611229565b73ffffffffffffffffffffffffffffffffffffffff1614611158576040517f08c379a000000000000000000000000000000000000000000000000000000000815260040161114f9061373a565b60405180910390fd5b600f81600b546111689190613aef565b11156111a9576040517f08c379a00000000000000000000000000000000000000000000000000000000081526004016111a090613bb7565b60405180910390fd5b600954816111b76007611da1565b6111c19190613aef565b1115611202576040517f08c379a00000000000000000000000000000000000000000000000000000000081526004016111f990613c49565b60405180910390fd5b80600b60008282546112149190613aef565b9250508190555061122582826121b9565b5050565b6000600660009054906101000a900473ffffffffffffffffffffffffffffffffffffffff16905090565b60606001805461126290613475565b80601f016020809104026020016040519081016040528092919081815260200182805461128e90613475565b80156112db5780601f106112b0576101008083540402835291602001916112db565b820191906000526020600020905b8154815290600101906020018083116112be57829003601f168201915b5050505050905090565b6002808111156112f8576112f76133b4565b5b600a60009054906101000a900460ff16600281111561131a576113196133b4565b5b1461135a576040517f08c379a000000000000000000000000000000000000000000000000000000000815260040161135190613cb5565b60405180910390fd5b6701118f178fb480008161136e9190613cd5565b3410156113b0576040517f08c379a00000000000000000000000000000000000000000000000000000000081526004016113a790613da1565b60405180910390fd5b600954816113be6007611da1565b6113c89190613aef565b1115611409576040517f08c379a000000000000000000000000000000000000000000000000000000000815260040161140090613e33565b60405180910390fd5b600681600d60003373ffffffffffffffffffffffffffffffffffffffff1673ffffffffffffffffffffffffffffffffffffffff168152602001908152602001600020546114569190613aef565b1115611497576040517f08c379a000000000000000000000000000000000000000000000000000000000815260040161148e90613ec5565b60405180910390fd5b80600d60003373ffffffffffffffffffffffffffffffffffffffff1673ffffffffffffffffffffffffffffffffffffffff16815260200190815260200160002060008282546114e69190613aef565b925050819055506114f733826121b9565b50565b61150c611505611ce0565b83836121ff565b5050565b611518611ce0565b73ffffffffffffffffffffffffffffffffffffffff16611536611229565b73ffffffffffffffffffffffffffffffffffffffff161461158c576040517f08c379a00000000000000000000000000000000000000000000000000000000081526004016115839061373a565b60405180910390fd5b8060098190555050565b600a60019054906101000a900460ff1681565b6115ba6115b4611ce0565b83611daf565b6115f9576040517f08c379a00000000000000000000000000000000000000000000000000000000081526004016115f0906136ce565b60405180910390fd5b6116058484848461236b565b50505050565b600681565b6701118f178fb4800081565b606061162782611c74565b611666576040517f08c379a000000000000000000000000000000000000000000000000000000000815260040161165d90613f57565b60405180910390fd5b61166e6123c7565b61167783612459565b604051602001611688929190613fff565b6040516020818303038152906040529050919050565b600060011515611718848480806020026020016040519081016040528093929190818152602001838360200280828437600081840152601f19601f82011690508083019250505050505050600854876040516020016116fd9190614076565b604051602081830303815290604052805190602001206125b9565b15151490509392505050565b60095481565b6000600560008473ffffffffffffffffffffffffffffffffffffffff1673ffffffffffffffffffffffffffffffffffffffff16815260200190815260200160002060008373ffffffffffffffffffffffffffffffffffffffff1673ffffffffffffffffffffffffffffffffffffffff16815260200190815260200160002060009054906101000a900460ff16905092915050565b600160028111156117d2576117d16133b4565b5b600a60009054906101000a900460ff1660028111156117f4576117f36133b4565b5b14611834576040517f08c379a000000000000000000000000000000000000000000000000000000000815260040161182b906140dd565b60405180910390fd5b61183f33838361169e565b61187e576040517f08c379a00000000000000000000000000000000000000000000000000000000081526004016118759061416f565b60405180910390fd5b6701118f178fb480003410156118c9576040517f08c379a00000000000000000000000000000000000000000000000000000000081526004016118c090614201565b60405180910390fd5b60095460016118d86007611da1565b6118e29190613aef565b1115611923576040517f08c379a000000000000000000000000000000000000000000000000000000000815260040161191a90614293565b60405180910390fd5b600e60003373ffffffffffffffffffffffffffffffffffffffff1673ffffffffffffffffffffffffffffffffffffffff16815260200190815260200160002060009054906101000a900460ff16156119b0576040517f08c379a00000000000000000000000000000000000000000000000000000000081526004016119a790614325565b60405180910390fd5b6001600e60003373ffffffffffffffffffffffffffffffffffffffff1673ffffffffffffffffffffffffffffffffffffffff16815260200190815260200160002060006101000a81548160ff021916908315150217905550611a133360016121b9565b5050565b611a1f611ce0565b73ffffffffffffffffffffffffffffffffffffffff16611a3d611229565b73ffffffffffffffffffffffffffffffffffffffff1614611a93576040517f08c379a0000000000000000000000000000000000000000000000000000000008152600401611a8a9061373a565b60405180910390fd5b600073ffffffffffffffffffffffffffffffffffffffff168173ffffffffffffffffffffffffffffffffffffffff1603611b02576040517f08c379a0000000000000000000000000000000000000000000000000000000008152600401611af9906143b7565b60405180910390fd5b611b0b816120f3565b50565b611b16611ce0565b73ffffffffffffffffffffffffffffffffffffffff16611b34611229565b73ffffffffffffffffffffffffffffffffffffffff1614611b8a576040517f08c379a0000000000000000000000000000000000000000000000000000000008152600401611b819061373a565b60405180910390fd5b600a60019054906101000a900460ff1615611bda576040517f08c379a0000000000000000000000000000000000000000000000000000000008152600401611bd19061397c565b60405180910390fd5b6001600a60016101000a81548160ff021916908315150217905550565b600a60009054906101000a900460ff1681565b60007f01ffc9a7000000000000000000000000000000000000000000000000000000007bffffffffffffffffffffffffffffffffffffffffffffffffffffffff1916827bffffffffffffffffffffffffffffffffffffffffffffffffffffffff1916149050919050565b60008073ffffffffffffffffffffffffffffffffffffffff166002600084815260200190815260200160002060009054906101000a900473ffffffffffffffffffffffffffffffffffffffff1673ffffffffffffffffffffffffffffffffffffffff1614159050919050565b600033905090565b816004600083815260200190815260200160002060006101000a81548173ffffffffffffffffffffffffffffffffffffffff021916908373ffffffffffffffffffffffffffffffffffffffff160217905550808273ffffffffffffffffffffffffffffffffffffffff16611d5b83610eec565b73ffffffffffffffffffffffffffffffffffffffff167f8c5be1e5ebec7d5bd14f71427d1e84f3dd0314c0f7b2291e5b200ac8c7c3b92560405160405180910390a45050565b600081600001549050919050565b6000611dba82611c74565b611df9576040517f08c379a0000000000000000000000000000000000000000000000000000000008152600401611df090614449565b60405180910390fd5b6000611e0483610eec565b90508073ffffffffffffffffffffffffffffffffffffffff168473ffffffffffffffffffffffffffffffffffffffff161480611e465750611e45818561172a565b5b80611e8457508373ffffffffffffffffffffffffffffffffffffffff16611e6c84610936565b73ffffffffffffffffffffffffffffffffffffffff16145b91505092915050565b8273ffffffffffffffffffffffffffffffffffffffff16611ead82610eec565b73ffffffffffffffffffffffffffffffffffffffff1614611f03576040517f08c379a0000000000000000000000000000000000000000000000000000000008152600401611efa906144db565b60405180910390fd5b600073ffffffffffffffffffffffffffffffffffffffff168273ffffffffffffffffffffffffffffffffffffffff1603611f72576040517f08c379a0000000000000000000000000000000000000000000000000000000008152600401611f699061456d565b60405180910390fd5b611f7d8383836125d0565b611f88600082611ce8565b6001600360008573ffffffffffffffffffffffffffffffffffffffff1673ffffffffffffffffffffffffffffffffffffffff1681526020019081526020016000206000828254611fd8919061458d565b925050819055506001600360008473ffffffffffffffffffffffffffffffffffffffff1673ffffffffffffffffffffffffffffffffffffffff168152602001908152602001600020600082825461202f9190613aef565b92505081905550816002600083815260200190815260200160002060006101000a81548173ffffffffffffffffffffffffffffffffffffffff021916908373ffffffffffffffffffffffffffffffffffffffff160217905550808273ffffffffffffffffffffffffffffffffffffffff168473ffffffffffffffffffffffffffffffffffffffff167fddf252ad1be2c89b69c2b068fc378daa952ba7f163c4a11628f55a4df523b3ef60405160405180910390a46120ee8383836125d5565b505050565b6000600660009054906101000a900473ffffffffffffffffffffffffffffffffffffffff16905081600660006101000a81548173ffffffffffffffffffffffffffffffffffffffff021916908373ffffffffffffffffffffffffffffffffffffffff1602179055508173ffffffffffffffffffffffffffffffffffffffff168173ffffffffffffffffffffffffffffffffffffffff167f8be0079c531659141344cd1fd0a4f28419497f9722a3daafe3b4186f6b6457e060405160405180910390a35050565b60005b818110156121fa576121ce60076125da565b60006121da6007611da1565b90506121e684826125f0565b5080806121f2906145c1565b9150506121bc565b505050565b8173ffffffffffffffffffffffffffffffffffffffff168373ffffffffffffffffffffffffffffffffffffffff160361226d576040517f08c379a000000000000000000000000000000000000000000000000000000000815260040161226490614655565b60405180910390fd5b80600560008573ffffffffffffffffffffffffffffffffffffffff1673ffffffffffffffffffffffffffffffffffffffff16815260200190815260200160002060008473ffffffffffffffffffffffffffffffffffffffff1673ffffffffffffffffffffffffffffffffffffffff16815260200190815260200160002060006101000a81548160ff0219169083151502179055508173ffffffffffffffffffffffffffffffffffffffff168373ffffffffffffffffffffffffffffffffffffffff167f17307eab39ab6107e8899845ad3d59bd9653f200f220920489ca2b5937696c318360405161235e9190612bcf565b60405180910390a3505050565b612376848484611e8d565b6123828484848461260e565b6123c1576040517f08c379a00000000000000000000000000000000000000000000000000000000081526004016123b8906146e7565b60405180910390fd5b50505050565b6060600c80546123d690613475565b80601f016020809104026020016040519081016040528092919081815260200182805461240290613475565b801561244f5780601f106124245761010080835404028352916020019161244f565b820191906000526020600020905b81548152906001019060200180831161243257829003601f168201915b5050505050905090565b6060600082036124a0576040518060400160405280600181526020017f300000000000000000000000000000000000000000000000000000000000000081525090506125b4565b600082905060005b600082146124d25780806124bb906145c1565b915050600a826124cb9190614736565b91506124a8565b60008167ffffffffffffffff8111156124ee576124ed612f36565b5b6040519080825280601f01601f1916602001820160405280156125205781602001600182028036833780820191505090505b5090505b600085146125ad57600182612539919061458d565b9150600a856125489190614767565b60306125549190613aef565b60f81b81838151811061256a57612569614798565b5b60200101907effffffffffffffffffffffffffffffffffffffffffffffffffffffffffffff1916908160001a905350600a856125a69190614736565b9450612524565b8093505050505b919050565b6000826125c68584612795565b1490509392505050565b505050565b505050565b6001816000016000828254019250508190555050565b61260a82826040518060200160405280600081525061280a565b5050565b600061262f8473ffffffffffffffffffffffffffffffffffffffff16612865565b15612788578373ffffffffffffffffffffffffffffffffffffffff1663150b7a02612658611ce0565b8786866040518563ffffffff1660e01b815260040161267a949392919061481c565b6020604051808303816000875af19250505080156126b657506040513d601f19601f820116820180604052508101906126b3919061487d565b60015b612738573d80600081146126e6576040519150601f19603f3d011682016040523d82523d6000602084013e6126eb565b606091505b506000815103612730576040517f08c379a0000000000000000000000000000000000000000000000000000000008152600401612727906146e7565b60405180910390fd5b805181602001fd5b63150b7a0260e01b7bffffffffffffffffffffffffffffffffffffffffffffffffffffffff1916817bffffffffffffffffffffffffffffffffffffffffffffffffffffffff19161491505061278d565b600190505b949350505050565b60008082905060005b84518110156127ff5760008582815181106127bc576127bb614798565b5b602002602001015190508083116127de576127d78382612888565b92506127eb565b6127e88184612888565b92505b5080806127f7906145c1565b91505061279e565b508091505092915050565b612814838361289f565b612821600084848461260e565b612860576040517f08c379a0000000000000000000000000000000000000000000000000000000008152600401612857906146e7565b60405180910390fd5b505050565b6000808273ffffffffffffffffffffffffffffffffffffffff163b119050919050565b600082600052816020526040600020905092915050565b600073ffffffffffffffffffffffffffffffffffffffff168273ffffffffffffffffffffffffffffffffffffffff160361290e576040517f08c379a0000000000000000000000000000000000000000000000000000000008152600401612905906148f6565b60405180910390fd5b61291781611c74565b15612957576040517f08c379a000000000000000000000000000000000000000000000000000000000815260040161294e90614962565b60405180910390fd5b612963600083836125d0565b6001600360008473ffffffffffffffffffffffffffffffffffffffff1673ffffffffffffffffffffffffffffffffffffffff16815260200190815260200160002060008282546129b39190613aef565b92505081905550816002600083815260200190815260200160002060006101000a81548173ffffffffffffffffffffffffffffffffffffffff021916908373ffffffffffffffffffffffffffffffffffffffff160217905550808273ffffffffffffffffffffffffffffffffffffffff16600073ffffffffffffffffffffffffffffffffffffffff167fddf252ad1be2c89b69c2b068fc378daa952ba7f163c4a11628f55a4df523b3ef60405160405180910390a4612a74600083836125d5565b5050565b828054612a8490613475565b90600052602060002090601f016020900481019282612aa65760008555612aed565b82601f10612abf57805160ff1916838001178555612aed565b82800160010185558215612aed579182015b82811115612aec578251825591602001919060010190612ad1565b5b509050612afa9190612afe565b5090565b5b80821115612b17576000816000905550600101612aff565b5090565b6000604051905090565b600080fd5b600080fd5b60007fffffffff0000000000000000000000000000000000000000000000000000000082169050919050565b612b6481612b2f565b8114612b6f57600080fd5b50565b600081359050612b8181612b5b565b92915050565b600060208284031215612b9d57612b9c612b25565b5b6000612bab84828501612b72565b91505092915050565b60008115159050919050565b612bc981612bb4565b82525050565b6000602082019050612be46000830184612bc0565b92915050565b600081519050919050565b600082825260208201905092915050565b60005b83811015612c24578082015181840152602081019050612c09565b83811115612c33576000848401525b50505050565b6000601f19601f8301169050919050565b6000612c5582612bea565b612c5f8185612bf5565b9350612c6f818560208601612c06565b612c7881612c39565b840191505092915050565b60006020820190508181036000830152612c9d8184612c4a565b905092915050565b6000819050919050565b612cb881612ca5565b8114612cc357600080fd5b50565b600081359050612cd581612caf565b92915050565b600060208284031215612cf157612cf0612b25565b5b6000612cff84828501612cc6565b91505092915050565b600073ffffffffffffffffffffffffffffffffffffffff82169050919050565b6000612d3382612d08565b9050919050565b612d4381612d28565b82525050565b6000602082019050612d5e6000830184612d3a565b92915050565b612d6d81612d28565b8114612d7857600080fd5b50565b600081359050612d8a81612d64565b92915050565b60008060408385031215612da757612da6612b25565b5b6000612db585828601612d7b565b9250506020612dc685828601612cc6565b9150509250929050565b612dd981612ca5565b82525050565b6000602082019050612df46000830184612dd0565b92915050565b6000819050919050565b612e0d81612dfa565b82525050565b6000602082019050612e286000830184612e04565b92915050565b600080600060608486031215612e4757612e46612b25565b5b6000612e5586828701612d7b565b9350506020612e6686828701612d7b565b9250506040612e7786828701612cc6565b9150509250925092565b612e8a81612dfa565b8114612e9557600080fd5b50565b600081359050612ea781612e81565b92915050565b600060208284031215612ec357612ec2612b25565b5b6000612ed184828501612e98565b91505092915050565b60038110612ee757600080fd5b50565b600081359050612ef981612eda565b92915050565b600060208284031215612f1557612f14612b25565b5b6000612f2384828501612eea565b91505092915050565b600080fd5b600080fd5b7f4e487b7100000000000000000000000000000000000000000000000000000000600052604160045260246000fd5b612f6e82612c39565b810181811067ffffffffffffffff82111715612f8d57612f8c612f36565b5b80604052505050565b6000612fa0612b1b565b9050612fac8282612f65565b919050565b600067ffffffffffffffff821115612fcc57612fcb612f36565b5b612fd582612c39565b9050602081019050919050565b82818337600083830152505050565b6000613004612fff84612fb1565b612f96565b9050828152602081018484840111156130205761301f612f31565b5b61302b848285612fe2565b509392505050565b600082601f83011261304857613047612f2c565b5b8135613058848260208601612ff1565b91505092915050565b60006020828403121561307757613076612b25565b5b600082013567ffffffffffffffff81111561309557613094612b2a565b5b6130a184828501613033565b91505092915050565b6000602082840312156130c0576130bf612b25565b5b60006130ce84828501612d7b565b91505092915050565b6130e081612bb4565b81146130eb57600080fd5b50565b6000813590506130fd816130d7565b92915050565b6000806040838503121561311a57613119612b25565b5b600061312885828601612d7b565b9250506020613139858286016130ee565b9150509250929050565b600067ffffffffffffffff82111561315e5761315d612f36565b5b61316782612c39565b9050602081019050919050565b600061318761318284613143565b612f96565b9050828152602081018484840111156131a3576131a2612f31565b5b6131ae848285612fe2565b509392505050565b600082601f8301126131cb576131ca612f2c565b5b81356131db848260208601613174565b91505092915050565b600080600080608085870312156131fe576131fd612b25565b5b600061320c87828801612d7b565b945050602061321d87828801612d7b565b935050604061322e87828801612cc6565b925050606085013567ffffffffffffffff81111561324f5761324e612b2a565b5b61325b878288016131b6565b91505092959194509250565b600080fd5b600080fd5b60008083601f84011261328757613286612f2c565b5b8235905067ffffffffffffffff8111156132a4576132a3613267565b5b6020830191508360208202830111156132c0576132bf61326c565b5b9250929050565b6000806000604084860312156132e0576132df612b25565b5b60006132ee86828701612d7b565b935050602084013567ffffffffffffffff81111561330f5761330e612b2a565b5b61331b86828701613271565b92509250509250925092565b6000806040838503121561333e5761333d612b25565b5b600061334c85828601612d7b565b925050602061335d85828601612d7b565b9150509250929050565b6000806020838503121561337e5761337d612b25565b5b600083013567ffffffffffffffff81111561339c5761339b612b2a565b5b6133a885828601613271565b92509250509250929050565b7f4e487b7100000000000000000000000000000000000000000000000000000000600052602160045260246000fd5b600381106133f4576133f36133b4565b5b50565b6000819050613405826133e3565b919050565b6000613415826133f7565b9050919050565b6134258161340a565b82525050565b6000602082019050613440600083018461341c565b92915050565b7f4e487b7100000000000000000000000000000000000000000000000000000000600052602260045260246000fd5b6000600282049050600182168061348d57607f821691505b6020821081036134a05761349f613446565b5b50919050565b7f4552433732313a20617070726f76656420717565727920666f72206e6f6e657860008201527f697374656e7420746f6b656e0000000000000000000000000000000000000000602082015250565b6000613502602c83612bf5565b915061350d826134a6565b604082019050919050565b60006020820190508181036000830152613531816134f5565b9050919050565b7f4552433732313a20617070726f76616c20746f2063757272656e74206f776e6560008201527f7200000000000000000000000000000000000000000000000000000000000000602082015250565b6000613594602183612bf5565b915061359f82613538565b604082019050919050565b600060208201905081810360008301526135c381613587565b9050919050565b7f4552433732313a20617070726f76652063616c6c6572206973206e6f74206f7760008201527f6e6572206e6f7220617070726f76656420666f7220616c6c0000000000000000602082015250565b6000613626603883612bf5565b9150613631826135ca565b604082019050919050565b6000602082019050818103600083015261365581613619565b9050919050565b7f4552433732313a207472616e736665722063616c6c6572206973206e6f74206f60008201527f776e6572206e6f7220617070726f766564000000000000000000000000000000602082015250565b60006136b8603183612bf5565b91506136c38261365c565b604082019050919050565b600060208201905081810360008301526136e7816136ab565b9050919050565b7f4f776e61626c653a2063616c6c6572206973206e6f7420746865206f776e6572600082015250565b6000613724602083612bf5565b915061372f826136ee565b602082019050919050565b6000602082019050818103600083015261375381613717565b9050919050565b7f5468652070726573616c65206c69737420686173206265656e2066696e616c6960008201527f7a65642e00000000000000000000000000000000000000000000000000000000602082015250565b60006137b6602483612bf5565b91506137c18261375a565b604082019050919050565b600060208201905081810360008301526137e5816137a9565b9050919050565b7f77697468647261773a206e6f2062616c616e6365000000000000000000000000600082015250565b6000613822601483612bf5565b915061382d826137ec565b602082019050919050565b6000602082019050818103600083015261385181613815565b9050919050565b600081905092915050565b50565b6000613873600083613858565b915061387e82613863565b600082019050919050565b600061389482613866565b9150819050919050565b7f77697468647261773a207769746864726177206661696c656400000000000000600082015250565b60006138d4601983612bf5565b91506138df8261389e565b602082019050919050565b60006020820190508181036000830152613903816138c7565b9050919050565b7f4d657461646174612068617320616c7265616479206265656e2066696e616c6960008201527f7a65642e00000000000000000000000000000000000000000000000000000000602082015250565b6000613966602483612bf5565b91506139718261390a565b604082019050919050565b6000602082019050818103600083015261399581613959565b9050919050565b7f4552433732313a206f776e657220717565727920666f72206e6f6e657869737460008201527f656e7420746f6b656e0000000000000000000000000000000000000000000000602082015250565b60006139f8602983612bf5565b9150613a038261399c565b604082019050919050565b60006020820190508181036000830152613a27816139eb565b9050919050565b7f4552433732313a2062616c616e636520717565727920666f7220746865207a6560008201527f726f206164647265737300000000000000000000000000000000000000000000602082015250565b6000613a8a602a83612bf5565b9150613a9582613a2e565b604082019050919050565b60006020820190508181036000830152613ab981613a7d565b9050919050565b7f4e487b7100000000000000000000000000000000000000000000000000000000600052601160045260246000fd5b6000613afa82612ca5565b9150613b0583612ca5565b9250827fffffffffffffffffffffffffffffffffffffffffffffffffffffffffffffffff03821115613b3a57613b39613ac0565b5b828201905092915050565b7f43616e206e6f742061697264726f70206d6f7265207468616e207075626c696360008201527f6c7920646973636c6f73656420746f207465616d000000000000000000000000602082015250565b6000613ba1603483612bf5565b9150613bac82613b45565b604082019050919050565b60006020820190508181036000830152613bd081613b94565b9050919050565b7f4e756d626572206f6620746f6b656e732072657175657374656420657863656560008201527f647320636f6c6c656374696f6e2073697a650000000000000000000000000000602082015250565b6000613c33603283612bf5565b9150613c3e82613bd7565b604082019050919050565b60006020820190508181036000830152613c6281613c26565b9050919050565b7f5075626c6963206d696e74206973206e6f742061637469766500000000000000600082015250565b6000613c9f601983612bf5565b9150613caa82613c69565b602082019050919050565b60006020820190508181036000830152613cce81613c92565b9050919050565b6000613ce082612ca5565b9150613ceb83612ca5565b9250817fffffffffffffffffffffffffffffffffffffffffffffffffffffffffffffffff0483118215151615613d2457613d23613ac0565b5b828202905092915050565b7f45746865722076616c75652073656e74206973206e6f7420737566666963696560008201527f6e74000000000000000000000000000000000000000000000000000000000000602082015250565b6000613d8b602283612bf5565b9150613d9682613d2f565b604082019050919050565b60006020820190508181036000830152613dba81613d7e565b9050919050565b7f4d696e74696e672074686973206d616e7920746f6b656e7320776f756c64206560008201527f78636565642074686520746f74616c20636f6c6c656374696f6e2073697a6500602082015250565b6000613e1d603f83612bf5565b9150613e2882613dc1565b604082019050919050565b60006020820190508181036000830152613e4c81613e10565b9050919050565b7f456163682061646472657373206d6179206f6e6c79206d696e74203620746f6b60008201527f656e730000000000000000000000000000000000000000000000000000000000602082015250565b6000613eaf602383612bf5565b9150613eba82613e53565b604082019050919050565b60006020820190508181036000830152613ede81613ea2565b9050919050565b7f546f6b656e20494420646f6573206e6f7420657869737420696e20746869732060008201527f636f6c6c656374696f6e00000000000000000000000000000000000000000000602082015250565b6000613f41602a83612bf5565b9150613f4c82613ee5565b604082019050919050565b60006020820190508181036000830152613f7081613f34565b9050919050565b600081905092915050565b6000613f8d82612bea565b613f978185613f77565b9350613fa7818560208601612c06565b80840191505092915050565b7f2e6a736f6e000000000000000000000000000000000000000000000000000000600082015250565b6000613fe9600583613f77565b9150613ff482613fb3565b600582019050919050565b600061400b8285613f82565b91506140178284613f82565b915061402282613fdc565b91508190509392505050565b60008160601b9050919050565b60006140468261402e565b9050919050565b60006140588261403b565b9050919050565b61407061406b82612d28565b61404d565b82525050565b6000614082828461405f565b60148201915081905092915050565b7f50726573616c65206973206e6f74206163746976650000000000000000000000600082015250565b60006140c7601583612bf5565b91506140d282614091565b602082019050919050565b600060208201905081810360008301526140f6816140ba565b9050919050565b7f53656e646572206973206e6f74206f6e207468652070726573616c65206c697360008201527f7400000000000000000000000000000000000000000000000000000000000000602082015250565b6000614159602183612bf5565b9150614164826140fd565b604082019050919050565b600060208201905081810360008301526141888161414c565b9050919050565b7f45746865722076616c75652073656e74206973206c657373207468616e202e3060008201527f3737000000000000000000000000000000000000000000000000000000000000602082015250565b60006141eb602283612bf5565b91506141f68261418f565b604082019050919050565b6000602082019050818103600083015261421a816141de565b9050919050565b7f436f6c6c656374696f6e2073697a65206c696d69742068617320616c7265616460008201527f79206265656e2072656163686564000000000000000000000000000000000000602082015250565b600061427d602e83612bf5565b915061428882614221565b604082019050919050565b600060208201905081810360008301526142ac81614270565b9050919050565b7f5468697320616464726573732068617320616c7265616479206d696e7465642060008201527f647572696e672070726573616c65000000000000000000000000000000000000602082015250565b600061430f602e83612bf5565b915061431a826142b3565b604082019050919050565b6000602082019050818103600083015261433e81614302565b9050919050565b7f4f776e61626c653a206e6577206f776e657220697320746865207a65726f206160008201527f6464726573730000000000000000000000000000000000000000000000000000602082015250565b60006143a1602683612bf5565b91506143ac82614345565b604082019050919050565b600060208201905081810360008301526143d081614394565b9050919050565b7f4552433732313a206f70657261746f7220717565727920666f72206e6f6e657860008201527f697374656e7420746f6b656e0000000000000000000000000000000000000000602082015250565b6000614433602c83612bf5565b915061443e826143d7565b604082019050919050565b6000602082019050818103600083015261446281614426565b9050919050565b7f4552433732313a207472616e736665722066726f6d20696e636f72726563742060008201527f6f776e6572000000000000000000000000000000000000000000000000000000602082015250565b60006144c5602583612bf5565b91506144d082614469565b604082019050919050565b600060208201905081810360008301526144f4816144b8565b9050919050565b7f4552433732313a207472616e7366657220746f20746865207a65726f2061646460008201527f7265737300000000000000000000000000000000000000000000000000000000602082015250565b6000614557602483612bf5565b9150614562826144fb565b604082019050919050565b600060208201905081810360008301526145868161454a565b9050919050565b600061459882612ca5565b91506145a383612ca5565b9250828210156145b6576145b5613ac0565b5b828203905092915050565b60006145cc82612ca5565b91507fffffffffffffffffffffffffffffffffffffffffffffffffffffffffffffffff82036145fe576145fd613ac0565b5b600182019050919050565b7f4552433732313a20617070726f766520746f2063616c6c657200000000000000600082015250565b600061463f601983612bf5565b915061464a82614609565b602082019050919050565b6000602082019050818103600083015261466e81614632565b9050919050565b7f4552433732313a207472616e7366657220746f206e6f6e20455243373231526560008201527f63656976657220696d706c656d656e7465720000000000000000000000000000602082015250565b60006146d1603283612bf5565b91506146dc82614675565b604082019050919050565b60006020820190508181036000830152614700816146c4565b9050919050565b7f4e487b7100000000000000000000000000000000000000000000000000000000600052601260045260246000fd5b600061474182612ca5565b915061474c83612ca5565b92508261475c5761475b614707565b5b828204905092915050565b600061477282612ca5565b915061477d83612ca5565b92508261478d5761478c614707565b5b828206905092915050565b7f4e487b7100000000000000000000000000000000000000000000000000000000600052603260045260246000fd5b600081519050919050565b600082825260208201905092915050565b60006147ee826147c7565b6147f881856147d2565b9350614808818560208601612c06565b61481181612c39565b840191505092915050565b60006080820190506148316000830187612d3a565b61483e6020830186612d3a565b61484b6040830185612dd0565b818103606083015261485d81846147e3565b905095945050505050565b60008151905061487781612b5b565b92915050565b60006020828403121561489357614892612b25565b5b60006148a184828501614868565b91505092915050565b7f4552433732313a206d696e7420746f20746865207a65726f2061646472657373600082015250565b60006148e0602083612bf5565b91506148eb826148aa565b602082019050919050565b6000602082019050818103600083015261490f816148d3565b9050919050565b7f4552433732313a20746f6b656e20616c7265616479206d696e74656400000000600082015250565b600061494c601c83612bf5565b915061495782614916565b602082019050919050565b6000602082019050818103600083015261497b8161493f565b905091905056fea264697066735822122009584a2eed5802041b2454310fce5619c6f1eedc6d4cef4a33a16d7ac27663ef64736f6c634300080d0033",
  "linkReferences": {},
  "deployedLinkReferences": {}
}