{
  "_format": "hh-sol-artifact-1",
  "contractName": "CyberLionzAdults",
  "sourceName": "contracts/CyberLionzAdults.sol",
  "abi": [
    {
      "inputs": [
        {
          "internalType": "string",
          "name": "baseUri",
          "type": "string"
        },
        {
          "internalType": "bytes32",
          "name": "merkleRoot",
          "type": "bytes32"
        },
        {
          "internalType": "address",
          "name": "revenueRecipient",
          "type": "address"
        },
        {
          "internalType": "address",
          "name": "cyberlionzMerger",
          "type": "address"
        }
      ],
      "stateMutability": "nonpayable",
      "type": "constructor"
    },
    {
      "anonymous": false,
      "inputs": [
        {
          "indexed": true,
          "internalType": "address",
          "name": "owner",
          "type": "address"
        },
        {
          "indexed": true,
          "internalType": "address",
          "name": "approved",
          "type": "address"
        },
        {
          "indexed": true,
          "internalType": "uint256",
          "name": "tokenId",
          "type": "uint256"
        }
      ],
      "name": "Approval",
      "type": "event"
    },
    {
      "anonymous": false,
      "inputs": [
        {
          "indexed": true,
          "internalType": "address",
          "name": "owner",
          "type": "address"
        },
        {
          "indexed": true,
          "internalType": "address",
          "name": "operator",
          "type": "address"
        },
        {
          "indexed": false,
          "internalType": "bool",
          "name": "approved",
          "type": "bool"
        }
      ],
      "name": "ApprovalForAll",
      "type": "event"
    },
    {
      "anonymous": false,
      "inputs": [
        {
          "indexed": false,
          "internalType": "address",
          "name": "to",
          "type": "address"
        },
        {
          "indexed": false,
          "internalType": "uint256",
          "name": "tokenId",
          "type": "uint256"
        }
      ],
      "name": "Mint",
      "type": "event"
    },
    {
      "anonymous": false,
      "inputs": [
        {
          "indexed": true,
          "internalType": "address",
          "name": "previousOwner",
          "type": "address"
        },
        {
          "indexed": true,
          "internalType": "address",
          "name": "newOwner",
          "type": "address"
        }
      ],
      "name": "OwnershipTransferred",
      "type": "event"
    },
    {
      "anonymous": false,
      "inputs": [
        {
          "indexed": true,
          "internalType": "address",
          "name": "from",
          "type": "address"
        },
        {
          "indexed": true,
          "internalType": "address",
          "name": "to",
          "type": "address"
        },
        {
          "indexed": true,
          "internalType": "uint256",
          "name": "tokenId",
          "type": "uint256"
        }
      ],
      "name": "Transfer",
      "type": "event"
    },
    {
      "inputs": [],
      "name": "COLLECTION_SIZE",
      "outputs": [
        {
          "internalType": "uint256",
          "name": "",
          "type": "uint256"
        }
      ],
      "stateMutability": "view",
      "type": "function"
    },
    {
      "inputs": [],
      "name": "MINT_PRICE",
      "outputs": [
        {
          "internalType": "uint256",
          "name": "",
          "type": "uint256"
        }
      ],
      "stateMutability": "view",
      "type": "function"
    },
    {
      "inputs": [],
      "name": "PUBLIC_MINT_LIMIT",
      "outputs": [
        {
          "internalType": "uint256",
          "name": "",
          "type": "uint256"
        }
      ],
      "stateMutability": "view",
      "type": "function"
    },
    {
      "inputs": [
        {
          "internalType": "address",
          "name": "to",
          "type": "address"
        },
        {
          "internalType": "uint256",
          "name": "count",
          "type": "uint256"
        }
      ],
      "name": "airdrop",
      "outputs": [],
      "stateMutability": "nonpayable",
      "type": "function"
    },
    {
      "inputs": [],
      "name": "airdropped",
      "outputs": [
        {
          "internalType": "uint256",
          "name": "",
          "type": "uint256"
        }
      ],
      "stateMutability": "view",
      "type": "function"
    },
    {
      "inputs": [
        {
          "internalType": "address",
          "name": "to",
          "type": "address"
        },
        {
          "internalType": "uint256",
          "name": "tokenId",
          "type": "uint256"
        }
      ],
      "name": "approve",
      "outputs": [],
      "stateMutability": "nonpayable",
      "type": "function"
    },
    {
      "inputs": [
        {
          "internalType": "address",
          "name": "owner",
          "type": "address"
        }
      ],
      "name": "balanceOf",
      "outputs": [
        {
          "internalType": "uint256",
          "name": "",
          "type": "uint256"
        }
      ],
      "stateMutability": "view",
      "type": "function"
    },
    {
      "inputs": [],
      "name": "finalizeMetadata",
      "outputs": [],
      "stateMutability": "nonpayable",
      "type": "function"
    },
    {
      "inputs": [],
      "name": "finalized",
      "outputs": [
        {
          "internalType": "bool",
          "name": "",
          "type": "bool"
        }
      ],
      "stateMutability": "view",
      "type": "function"
    },
    {
      "inputs": [
        {
          "internalType": "uint256",
          "name": "tokenId",
          "type": "uint256"
        }
      ],
      "name": "getApproved",
      "outputs": [
        {
          "internalType": "address",
          "name": "",
          "type": "address"
        }
      ],
      "stateMutability": "view",
      "type": "function"
    },
    {
      "inputs": [
        {
          "internalType": "address",
          "name": "owner",
          "type": "address"
        },
        {
          "internalType": "address",
          "name": "operator",
          "type": "address"
        }
      ],
      "name": "isApprovedForAll",
      "outputs": [
        {
          "internalType": "bool",
          "name": "",
          "type": "bool"
        }
      ],
      "stateMutability": "view",
      "type": "function"
    },
    {
      "inputs": [
        {
          "internalType": "uint256",
          "name": "count",
          "type": "uint256"
        }
      ],
      "name": "mint",
      "outputs": [],
      "stateMutability": "payable",
      "type": "function"
    },
    {
      "inputs": [
        {
          "internalType": "address",
          "name": "to",
          "type": "address"
        }
      ],
      "name": "mintFromMerger",
      "outputs": [],
      "stateMutability": "nonpayable",
      "type": "function"
    },
    {
      "inputs": [],
      "name": "name",
      "outputs": [
        {
          "internalType": "string",
          "name": "",
          "type": "string"
        }
      ],
      "stateMutability": "view",
      "type": "function"
    },
    {
      "inputs": [
        {
          "internalType": "address",
          "name": "addr",
          "type": "address"
        },
        {
          "internalType": "bytes32[]",
          "name": "_merkleProof",
          "type": "bytes32[]"
        }
      ],
      "name": "onWhitelist",
      "outputs": [
        {
          "internalType": "bool",
          "name": "",
          "type": "bool"
        }
      ],
      "stateMutability": "view",
      "type": "function"
    },
    {
      "inputs": [],
      "name": "owner",
      "outputs": [
        {
          "internalType": "address",
          "name": "",
          "type": "address"
        }
      ],
      "stateMutability": "view",
      "type": "function"
    },
    {
      "inputs": [
        {
          "internalType": "uint256",
          "name": "tokenId",
          "type": "uint256"
        }
      ],
      "name": "ownerOf",
      "outputs": [
        {
          "internalType": "address",
          "name": "",
          "type": "address"
        }
      ],
      "stateMutability": "view",
      "type": "function"
    },
    {
      "inputs": [],
      "name": "presaleMerkleRoot",
      "outputs": [
        {
          "internalType": "bytes32",
          "name": "",
          "type": "bytes32"
        }
      ],
      "stateMutability": "view",
      "type": "function"
    },
    {
      "inputs": [
        {
          "internalType": "bytes32[]",
          "name": "_merkleProof",
          "type": "bytes32[]"
        }
      ],
      "name": "presaleMint",
      "outputs": [],
      "stateMutability": "payable",
      "type": "function"
    },
    {
      "inputs": [],
      "name": "renounceOwnership",
      "outputs": [],
      "stateMutability": "nonpayable",
      "type": "function"
    },
    {
      "inputs": [
        {
          "internalType": "address",
          "name": "from",
          "type": "address"
        },
        {
          "internalType": "address",
          "name": "to",
          "type": "address"
        },
        {
          "internalType": "uint256",
          "name": "tokenId",
          "type": "uint256"
        }
      ],
      "name": "safeTransferFrom",
      "outputs": [],
      "stateMutability": "nonpayable",
      "type": "function"
    },
    {
      "inputs": [
        {
          "internalType": "address",
          "name": "from",
          "type": "address"
        },
        {
          "internalType": "address",
          "name": "to",
          "type": "address"
        },
        {
          "internalType": "uint256",
          "name": "tokenId",
          "type": "uint256"
        },
        {
          "internalType": "bytes",
          "name": "_data",
          "type": "bytes"
        }
      ],
      "name": "safeTransferFrom",
      "outputs": [],
      "stateMutability": "nonpayable",
      "type": "function"
    },
    {
      "inputs": [],
      "name": "saleStatus",
      "outputs": [
        {
          "internalType": "enum CyberLionzAdults.SaleStatus",
          "name": "",
          "type": "uint8"
        }
      ],
      "stateMutability": "view",
      "type": "function"
    },
    {
      "inputs": [
        {
          "internalType": "address",
          "name": "operator",
          "type": "address"
        },
        {
          "internalType": "bool",
          "name": "approved",
          "type": "bool"
        }
      ],
      "name": "setApprovalForAll",
      "outputs": [],
      "stateMutability": "nonpayable",
      "type": "function"
    },
    {
      "inputs": [
        {
          "internalType": "string",
          "name": "baseUri",
          "type": "string"
        }
      ],
      "name": "setBaseURI",
      "outputs": [],
      "stateMutability": "nonpayable",
      "type": "function"
    },
    {
      "inputs": [
        {
          "internalType": "uint256",
          "name": "newSize",
          "type": "uint256"
        }
      ],
      "name": "setCollectionSize",
      "outputs": [],
      "stateMutability": "nonpayable",
      "type": "function"
    },
    {
      "inputs": [
        {
          "internalType": "bytes32",
          "name": "merkleRoot",
          "type": "bytes32"
        }
      ],
      "name": "setPresaleMerkleRoot",
      "outputs": [],
      "stateMutability": "nonpayable",
      "type": "function"
    },
    {
      "inputs": [
        {
          "internalType": "enum CyberLionzAdults.SaleStatus",
          "name": "status",
          "type": "uint8"
        }
      ],
      "name": "setSaleStatus",
      "outputs": [],
      "stateMutability": "nonpayable",
      "type": "function"
    },
    {
      "inputs": [
        {
          "internalType": "bytes4",
          "name": "interfaceId",
          "type": "bytes4"
        }
      ],
      "name": "supportsInterface",
      "outputs": [
        {
          "internalType": "bool",
          "name": "",
          "type": "bool"
        }
      ],
      "stateMutability": "view",
      "type": "function"
    },
    {
      "inputs": [],
      "name": "symbol",
      "outputs": [
        {
          "internalType": "string",
          "name": "",
          "type": "string"
        }
      ],
      "stateMutability": "view",
      "type": "function"
    },
    {
      "inputs": [
        {
          "internalType": "uint256",
          "name": "tokenId",
          "type": "uint256"
        }
      ],
      "name": "tokenURI",
      "outputs": [
        {
          "internalType": "string",
          "name": "",
          "type": "string"
        }
      ],
      "stateMutability": "view",
      "type": "function"
    },
    {
      "inputs": [],
      "name": "totalSupply",
      "outputs": [
        {
          "internalType": "uint256",
          "name": "",
          "type": "uint256"
        }
      ],
      "stateMutability": "view",
      "type": "function"
    },
    {
      "inputs": [
        {
          "internalType": "address",
          "name": "from",
          "type": "address"
        },
        {
          "internalType": "address",
          "name": "to",
          "type": "address"
        },
        {
          "internalType": "uint256",
          "name": "tokenId",
          "type": "uint256"
        }
      ],
      "name": "transferFrom",
      "outputs": [],
      "stateMutability": "nonpayable",
      "type": "function"
    },
    {
      "inputs": [
        {
          "internalType": "address",
          "name": "newOwner",
          "type": "address"
        }
      ],
      "name": "transferOwnership",
      "outputs": [],
      "stateMutability": "nonpayable",
      "type": "function"
    },
    {
      "inputs": [],
      "name": "withdraw",
      "outputs": [],
      "stateMutability": "nonpayable",
      "type": "function"
    }
  ],
  "bytecode": "0x60c06040526101f46009556000600a60006101000a81548160ff021916908360028111156200003357620000326200035b565b5b02179055506000600a60016101000a81548160ff0219169083151502179055506000600b553480156200006557600080fd5b506040516200523f3803806200523f83398181016040528101906200008b9190620005c7565b6040518060400160405280601081526020017f43796265724c696f6e7a4164756c7473000000000000000000000000000000008152506040518060400160405280600381526020017f434c41000000000000000000000000000000000000000000000000000000000081525081600090805190602001906200010f929190620002ab565b50806001908051906020019062000128929190620002ab565b5050506200014b6200013f620001dd60201b60201c565b620001e560201b60201c565b83600c908051906020019062000163929190620002ab565b50826008819055508173ffffffffffffffffffffffffffffffffffffffff1660808173ffffffffffffffffffffffffffffffffffffffff16815250508073ffffffffffffffffffffffffffffffffffffffff1660a08173ffffffffffffffffffffffffffffffffffffffff168152505050505050620006bc565b600033905090565b6000600660009054906101000a900473ffffffffffffffffffffffffffffffffffffffff16905081600660006101000a81548173ffffffffffffffffffffffffffffffffffffffff021916908373ffffffffffffffffffffffffffffffffffffffff1602179055508173ffffffffffffffffffffffffffffffffffffffff168173ffffffffffffffffffffffffffffffffffffffff167f8be0079c531659141344cd1fd0a4f28419497f9722a3daafe3b4186f6b6457e060405160405180910390a35050565b828054620002b99062000687565b90600052602060002090601f016020900481019282620002dd576000855562000329565b82601f10620002f857805160ff191683800117855562000329565b8280016001018555821562000329579182015b82811115620003285782518255916020019190600101906200030b565b5b5090506200033891906200033c565b5090565b5b80821115620003575760008160009055506001016200033d565b5090565b7f4e487b7100000000000000000000000000000000000000000000000000000000600052602160045260246000fd5b6000604051905090565b600080fd5b600080fd5b600080fd5b600080fd5b6000601f19601f8301169050919050565b7f4e487b7100000000000000000000000000000000000000000000000000000000600052604160045260246000fd5b620003f382620003a8565b810181811067ffffffffffffffff82111715620004155762000414620003b9565b5b80604052505050565b60006200042a6200038a565b9050620004388282620003e8565b919050565b600067ffffffffffffffff8211156200045b576200045a620003b9565b5b6200046682620003a8565b9050602081019050919050565b60005b838110156200049357808201518184015260208101905062000476565b83811115620004a3576000848401525b50505050565b6000620004c0620004ba846200043d565b6200041e565b905082815260208101848484011115620004df57620004de620003a3565b5b620004ec84828562000473565b509392505050565b600082601f8301126200050c576200050b6200039e565b5b81516200051e848260208601620004a9565b91505092915050565b6000819050919050565b6200053c8162000527565b81146200054857600080fd5b50565b6000815190506200055c8162000531565b92915050565b600073ffffffffffffffffffffffffffffffffffffffff82169050919050565b60006200058f8262000562565b9050919050565b620005a18162000582565b8114620005ad57600080fd5b50565b600081519050620005c18162000596565b92915050565b60008060008060808587031215620005e457620005e362000394565b5b600085015167ffffffffffffffff81111562000605576200060462000399565b5b6200061387828801620004f4565b945050602062000626878288016200054b565b93505060406200063987828801620005b0565b92505060606200064c87828801620005b0565b91505092959194509250565b7f4e487b7100000000000000000000000000000000000000000000000000000000600052602260045260246000fd5b60006002820490506001821680620006a057607f821691505b602082108103620006b657620006b562000658565b5b50919050565b60805160a051614b5d620006e2600039600061111201526000610ca50152614b5d6000f3fe6080604052600436106102045760003560e01c80638ba4cc3c11610118578063c002d23d116100a0578063e985e9c51161006f578063e985e9c514610732578063edc0c72c1461076f578063f2fde38b1461078b578063f4a560a5146107b4578063f9020e33146107cb57610204565b8063c002d23d14610662578063c87b56dd1461068d578063c9d40e18146106ca578063d8258d951461070757610204565b8063a22cb465116100e7578063a22cb46514610591578063aca8ffe7146105ba578063b3f05b97146105e3578063b88d4fde1461060e578063bceae77b1461063757610204565b80638ba4cc3c146104f65780638da5cb5b1461051f57806395d89b411461054a578063a0712d681461057557610204565b806328d7b2761161019b57806355f804b31161016a57806355f804b3146104135780636352211e1461043c57806370a0823114610479578063715018a6146104b65780638afe22c8146104cd57610204565b806328d7b276146103815780633ccfd60b146103aa57806342842e0e146103c15780634891ad88146103ea57610204565b806318160ddd116101d757806318160ddd146102d757806319cc02aa1461030257806322212e2b1461032d57806323b872dd1461035857610204565b806301ffc9a71461020957806306fdde0314610246578063081812fc14610271578063095ea7b3146102ae575b600080fd5b34801561021557600080fd5b50610230600480360381019061022b9190612c97565b6107f6565b60405161023d9190612cdf565b60405180910390f35b34801561025257600080fd5b5061025b6108d8565b6040516102689190612d93565b60405180910390f35b34801561027d57600080fd5b5061029860048036038101906102939190612deb565b61096a565b6040516102a59190612e59565b60405180910390f35b3480156102ba57600080fd5b506102d560048036038101906102d09190612ea0565b6109ef565b005b3480156102e357600080fd5b506102ec610b06565b6040516102f99190612eef565b60405180910390f35b34801561030e57600080fd5b50610317610b17565b6040516103249190612eef565b60405180910390f35b34801561033957600080fd5b50610342610b1d565b60405161034f9190612f23565b60405180910390f35b34801561036457600080fd5b5061037f600480360381019061037a9190612f3e565b610b23565b005b34801561038d57600080fd5b506103a860048036038101906103a39190612fbd565b610b83565b005b3480156103b657600080fd5b506103bf610c59565b005b3480156103cd57600080fd5b506103e860048036038101906103e39190612f3e565b610d71565b005b3480156103f657600080fd5b50610411600480360381019061040c919061300f565b610d91565b005b34801561041f57600080fd5b5061043a60048036038101906104359190613171565b610e3a565b005b34801561044857600080fd5b50610463600480360381019061045e9190612deb565b610f20565b6040516104709190612e59565b60405180910390f35b34801561048557600080fd5b506104a0600480360381019061049b91906131ba565b610fd1565b6040516104ad9190612eef565b60405180910390f35b3480156104c257600080fd5b506104cb611088565b005b3480156104d957600080fd5b506104f460048036038101906104ef91906131ba565b611110565b005b34801561050257600080fd5b5061051d60048036038101906105189190612ea0565b6111b3565b005b34801561052b57600080fd5b50610534611300565b6040516105419190612e59565b60405180910390f35b34801561055657600080fd5b5061055f61132a565b60405161056c9190612d93565b60405180910390f35b61058f600480360381019061058a9190612deb565b6113bc565b005b34801561059d57600080fd5b506105b860048036038101906105b39190613213565b6115d1565b005b3480156105c657600080fd5b506105e160048036038101906105dc9190612deb565b6115e7565b005b3480156105ef57600080fd5b506105f861166d565b6040516106059190612cdf565b60405180910390f35b34801561061a57600080fd5b50610635600480360381019061063091906132f4565b611680565b005b34801561064357600080fd5b5061064c6116e2565b6040516106599190612eef565b60405180910390f35b34801561066e57600080fd5b506106776116e7565b6040516106849190612eef565b60405180910390f35b34801561069957600080fd5b506106b460048036038101906106af9190612deb565b6116f3565b6040516106c19190612d93565b60405180910390f35b3480156106d657600080fd5b506106f160048036038101906106ec91906133d7565b611775565b6040516106fe9190612cdf565b60405180910390f35b34801561071357600080fd5b5061071c6117fb565b6040516107299190612eef565b60405180910390f35b34801561073e57600080fd5b5061075960048036038101906107549190613437565b611801565b6040516107669190612cdf565b60405180910390f35b61078960048036038101906107849190613477565b611895565b005b34801561079757600080fd5b506107b260048036038101906107ad91906131ba565b611aee565b005b3480156107c057600080fd5b506107c9611be5565b005b3480156107d757600080fd5b506107e0611cce565b6040516107ed919061353b565b60405180910390f35b60007f80ac58cd000000000000000000000000000000000000000000000000000000007bffffffffffffffffffffffffffffffffffffffffffffffffffffffff1916827bffffffffffffffffffffffffffffffffffffffffffffffffffffffff191614806108c157507f5b5e139f000000000000000000000000000000000000000000000000000000007bffffffffffffffffffffffffffffffffffffffffffffffffffffffff1916827bffffffffffffffffffffffffffffffffffffffffffffffffffffffff1916145b806108d157506108d082611ce1565b5b9050919050565b6060600080546108e790613585565b80601f016020809104026020016040519081016040528092919081815260200182805461091390613585565b80156109605780601f1061093557610100808354040283529160200191610960565b820191906000526020600020905b81548152906001019060200180831161094357829003601f168201915b5050505050905090565b600061097582611d4b565b6109b4576040517f08c379a00000000000000000000000000000000000000000000000000000000081526004016109ab90613628565b60405180910390fd5b6004600083815260200190815260200160002060009054906101000a900473ffffffffffffffffffffffffffffffffffffffff169050919050565b60006109fa82610f20565b90508073ffffffffffffffffffffffffffffffffffffffff168373ffffffffffffffffffffffffffffffffffffffff1603610a6a576040517f08c379a0000000000000000000000000000000000000000000000000000000008152600401610a61906136ba565b60405180910390fd5b8073ffffffffffffffffffffffffffffffffffffffff16610a89611db7565b73ffffffffffffffffffffffffffffffffffffffff161480610ab85750610ab781610ab2611db7565b611801565b5b610af7576040517f08c379a0000000000000000000000000000000000000000000000000000000008152600401610aee9061374c565b60405180910390fd5b610b018383611dbf565b505050565b6000610b126007611e78565b905090565b600b5481565b60085481565b610b34610b2e611db7565b82611e86565b610b73576040517f08c379a0000000000000000000000000000000000000000000000000000000008152600401610b6a906137de565b60405180910390fd5b610b7e838383611f64565b505050565b610b8b611db7565b73ffffffffffffffffffffffffffffffffffffffff16610ba9611300565b73ffffffffffffffffffffffffffffffffffffffff1614610bff576040517f08c379a0000000000000000000000000000000000000000000000000000000008152600401610bf69061384a565b60405180910390fd5b600a60019054906101000a900460ff1615610c4f576040517f08c379a0000000000000000000000000000000000000000000000000000000008152600401610c46906138dc565b60405180910390fd5b8060088190555050565b600047905060008111610ca1576040517f08c379a0000000000000000000000000000000000000000000000000000000008152600401610c9890613948565b60405180910390fd5b60007f000000000000000000000000000000000000000000000000000000000000000073ffffffffffffffffffffffffffffffffffffffff1682604051610ce790613999565b60006040518083038185875af1925050503d8060008114610d24576040519150601f19603f3d011682016040523d82523d6000602084013e610d29565b606091505b5050905080610d6d576040517f08c379a0000000000000000000000000000000000000000000000000000000008152600401610d64906139fa565b60405180910390fd5b5050565b610d8c83838360405180602001604052806000815250611680565b505050565b610d99611db7565b73ffffffffffffffffffffffffffffffffffffffff16610db7611300565b73ffffffffffffffffffffffffffffffffffffffff1614610e0d576040517f08c379a0000000000000000000000000000000000000000000000000000000008152600401610e049061384a565b60405180910390fd5b80600a60006101000a81548160ff02191690836002811115610e3257610e316134c4565b5b021790555050565b610e42611db7565b73ffffffffffffffffffffffffffffffffffffffff16610e60611300565b73ffffffffffffffffffffffffffffffffffffffff1614610eb6576040517f08c379a0000000000000000000000000000000000000000000000000000000008152600401610ead9061384a565b60405180910390fd5b600a60019054906101000a900460ff1615610f06576040517f08c379a0000000000000000000000000000000000000000000000000000000008152600401610efd90613a8c565b60405180910390fd5b80600c9080519060200190610f1c929190612b88565b5050565b6000806002600084815260200190815260200160002060009054906101000a900473ffffffffffffffffffffffffffffffffffffffff169050600073ffffffffffffffffffffffffffffffffffffffff168173ffffffffffffffffffffffffffffffffffffffff1603610fc8576040517f08c379a0000000000000000000000000000000000000000000000000000000008152600401610fbf90613b1e565b60405180910390fd5b80915050919050565b60008073ffffffffffffffffffffffffffffffffffffffff168273ffffffffffffffffffffffffffffffffffffffff1603611041576040517f08c379a000000000000000000000000000000000000000000000000000000000815260040161103890613bb0565b60405180910390fd5b600360008373ffffffffffffffffffffffffffffffffffffffff1673ffffffffffffffffffffffffffffffffffffffff168152602001908152602001600020549050919050565b611090611db7565b73ffffffffffffffffffffffffffffffffffffffff166110ae611300565b73ffffffffffffffffffffffffffffffffffffffff1614611104576040517f08c379a00000000000000000000000000000000000000000000000000000000081526004016110fb9061384a565b60405180910390fd5b61110e60006121ca565b565b7f000000000000000000000000000000000000000000000000000000000000000073ffffffffffffffffffffffffffffffffffffffff1661114f611db7565b73ffffffffffffffffffffffffffffffffffffffff16146111a5576040517f08c379a000000000000000000000000000000000000000000000000000000000815260040161119c90613c1c565b60405180910390fd5b6111b0816001612290565b50565b6111bb611db7565b73ffffffffffffffffffffffffffffffffffffffff166111d9611300565b73ffffffffffffffffffffffffffffffffffffffff161461122f576040517f08c379a00000000000000000000000000000000000000000000000000000000081526004016112269061384a565b60405180910390fd5b600f81600b5461123f9190613c6b565b1115611280576040517f08c379a000000000000000000000000000000000000000000000000000000000815260040161127790613d33565b60405180910390fd5b6009548161128e6007611e78565b6112989190613c6b565b11156112d9576040517f08c379a00000000000000000000000000000000000000000000000000000000081526004016112d090613dc5565b60405180910390fd5b80600b60008282546112eb9190613c6b565b925050819055506112fc8282612290565b5050565b6000600660009054906101000a900473ffffffffffffffffffffffffffffffffffffffff16905090565b60606001805461133990613585565b80601f016020809104026020016040519081016040528092919081815260200182805461136590613585565b80156113b25780601f10611387576101008083540402835291602001916113b2565b820191906000526020600020905b81548152906001019060200180831161139557829003601f168201915b5050505050905090565b6002808111156113cf576113ce6134c4565b5b600a60009054906101000a900460ff1660028111156113f1576113f06134c4565b5b14611431576040517f08c379a000000000000000000000000000000000000000000000000000000000815260040161142890613e31565b60405180910390fd5b6701118f178fb48000816114459190613e51565b341015611487576040517f08c379a000000000000000000000000000000000000000000000000000000000815260040161147e90613f1d565b60405180910390fd5b600954816114956007611e78565b61149f9190613c6b565b11156114e0576040517f08c379a00000000000000000000000000000000000000000000000000000000081526004016114d790613faf565b60405180910390fd5b600681600d60003373ffffffffffffffffffffffffffffffffffffffff1673ffffffffffffffffffffffffffffffffffffffff1681526020019081526020016000205461152d9190613c6b565b111561156e576040517f08c379a000000000000000000000000000000000000000000000000000000000815260040161156590614041565b60405180910390fd5b80600d60003373ffffffffffffffffffffffffffffffffffffffff1673ffffffffffffffffffffffffffffffffffffffff16815260200190815260200160002060008282546115bd9190613c6b565b925050819055506115ce3382612290565b50565b6115e36115dc611db7565b838361230f565b5050565b6115ef611db7565b73ffffffffffffffffffffffffffffffffffffffff1661160d611300565b73ffffffffffffffffffffffffffffffffffffffff1614611663576040517f08c379a000000000000000000000000000000000000000000000000000000000815260040161165a9061384a565b60405180910390fd5b8060098190555050565b600a60019054906101000a900460ff1681565b61169161168b611db7565b83611e86565b6116d0576040517f08c379a00000000000000000000000000000000000000000000000000000000081526004016116c7906137de565b60405180910390fd5b6116dc8484848461247b565b50505050565b600681565b6701118f178fb4800081565b60606116fe82611d4b565b61173d576040517f08c379a0000000000000000000000000000000000000000000000000000000008152600401611734906140d3565b60405180910390fd5b6117456124d7565b61174e83612569565b60405160200161175f92919061417b565b6040516020818303038152906040529050919050565b6000600115156117ef848480806020026020016040519081016040528093929190818152602001838360200280828437600081840152601f19601f82011690508083019250505050505050600854876040516020016117d491906141f2565b604051602081830303815290604052805190602001206126c9565b15151490509392505050565b60095481565b6000600560008473ffffffffffffffffffffffffffffffffffffffff1673ffffffffffffffffffffffffffffffffffffffff16815260200190815260200160002060008373ffffffffffffffffffffffffffffffffffffffff1673ffffffffffffffffffffffffffffffffffffffff16815260200190815260200160002060009054906101000a900460ff16905092915050565b600160028111156118a9576118a86134c4565b5b600a60009054906101000a900460ff1660028111156118cb576118ca6134c4565b5b1461190b576040517f08c379a000000000000000000000000000000000000000000000000000000000815260040161190290614259565b60405180910390fd5b611916338383611775565b611955576040517f08c379a000000000000000000000000000000000000000000000000000000000815260040161194c906142eb565b60405180910390fd5b6701118f178fb480003410156119a0576040517f08c379a00000000000000000000000000000000000000000000000000000000081526004016119979061437d565b60405180910390fd5b60095460016119af6007611e78565b6119b99190613c6b565b11156119fa576040517f08c379a00000000000000000000000000000000000000000000000000000000081526004016119f19061440f565b60405180910390fd5b600e60003373ffffffffffffffffffffffffffffffffffffffff1673ffffffffffffffffffffffffffffffffffffffff16815260200190815260200160002060009054906101000a900460ff1615611a87576040517f08c379a0000000000000000000000000000000000000000000000000000000008152600401611a7e906144a1565b60405180910390fd5b6001600e60003373ffffffffffffffffffffffffffffffffffffffff1673ffffffffffffffffffffffffffffffffffffffff16815260200190815260200160002060006101000a81548160ff021916908315150217905550611aea336001612290565b5050565b611af6611db7565b73ffffffffffffffffffffffffffffffffffffffff16611b14611300565b73ffffffffffffffffffffffffffffffffffffffff1614611b6a576040517f08c379a0000000000000000000000000000000000000000000000000000000008152600401611b619061384a565b60405180910390fd5b600073ffffffffffffffffffffffffffffffffffffffff168173ffffffffffffffffffffffffffffffffffffffff1603611bd9576040517f08c379a0000000000000000000000000000000000000000000000000000000008152600401611bd090614533565b60405180910390fd5b611be2816121ca565b50565b611bed611db7565b73ffffffffffffffffffffffffffffffffffffffff16611c0b611300565b73ffffffffffffffffffffffffffffffffffffffff1614611c61576040517f08c379a0000000000000000000000000000000000000000000000000000000008152600401611c589061384a565b60405180910390fd5b600a60019054906101000a900460ff1615611cb1576040517f08c379a0000000000000000000000000000000000000000000000000000000008152600401611ca890613a8c565b60405180910390fd5b6001600a60016101000a81548160ff021916908315150217905550565b600a60009054906101000a900460ff1681565b60007f01ffc9a7000000000000000000000000000000000000000000000000000000007bffffffffffffffffffffffffffffffffffffffffffffffffffffffff1916827bffffffffffffffffffffffffffffffffffffffffffffffffffffffff1916149050919050565b60008073ffffffffffffffffffffffffffffffffffffffff166002600084815260200190815260200160002060009054906101000a900473ffffffffffffffffffffffffffffffffffffffff1673ffffffffffffffffffffffffffffffffffffffff1614159050919050565b600033905090565b816004600083815260200190815260200160002060006101000a81548173ffffffffffffffffffffffffffffffffffffffff021916908373ffffffffffffffffffffffffffffffffffffffff160217905550808273ffffffffffffffffffffffffffffffffffffffff16611e3283610f20565b73ffffffffffffffffffffffffffffffffffffffff167f8c5be1e5ebec7d5bd14f71427d1e84f3dd0314c0f7b2291e5b200ac8c7c3b92560405160405180910390a45050565b600081600001549050919050565b6000611e9182611d4b565b611ed0576040517f08c379a0000000000000000000000000000000000000000000000000000000008152600401611ec7906145c5565b60405180910390fd5b6000611edb83610f20565b90508073ffffffffffffffffffffffffffffffffffffffff168473ffffffffffffffffffffffffffffffffffffffff161480611f1d5750611f1c8185611801565b5b80611f5b57508373ffffffffffffffffffffffffffffffffffffffff16611f438461096a565b73ffffffffffffffffffffffffffffffffffffffff16145b91505092915050565b8273ffffffffffffffffffffffffffffffffffffffff16611f8482610f20565b73ffffffffffffffffffffffffffffffffffffffff1614611fda576040517f08c379a0000000000000000000000000000000000000000000000000000000008152600401611fd190614657565b60405180910390fd5b600073ffffffffffffffffffffffffffffffffffffffff168273ffffffffffffffffffffffffffffffffffffffff1603612049576040517f08c379a0000000000000000000000000000000000000000000000000000000008152600401612040906146e9565b60405180910390fd5b6120548383836126e0565b61205f600082611dbf565b6001600360008573ffffffffffffffffffffffffffffffffffffffff1673ffffffffffffffffffffffffffffffffffffffff16815260200190815260200160002060008282546120af9190614709565b925050819055506001600360008473ffffffffffffffffffffffffffffffffffffffff1673ffffffffffffffffffffffffffffffffffffffff16815260200190815260200160002060008282546121069190613c6b565b92505081905550816002600083815260200190815260200160002060006101000a81548173ffffffffffffffffffffffffffffffffffffffff021916908373ffffffffffffffffffffffffffffffffffffffff160217905550808273ffffffffffffffffffffffffffffffffffffffff168473ffffffffffffffffffffffffffffffffffffffff167fddf252ad1be2c89b69c2b068fc378daa952ba7f163c4a11628f55a4df523b3ef60405160405180910390a46121c58383836126e5565b505050565b6000600660009054906101000a900473ffffffffffffffffffffffffffffffffffffffff16905081600660006101000a81548173ffffffffffffffffffffffffffffffffffffffff021916908373ffffffffffffffffffffffffffffffffffffffff1602179055508173ffffffffffffffffffffffffffffffffffffffff168173ffffffffffffffffffffffffffffffffffffffff167f8be0079c531659141344cd1fd0a4f28419497f9722a3daafe3b4186f6b6457e060405160405180910390a35050565b60005b8181101561230a576122a560076126ea565b60006122b16007611e78565b90506122bd8482612700565b7f0f6798a560793a54c3bcfe86a93cde1e73087d944c0ea20544137d412139688584826040516122ee92919061473d565b60405180910390a150808061230290614766565b915050612293565b505050565b8173ffffffffffffffffffffffffffffffffffffffff168373ffffffffffffffffffffffffffffffffffffffff160361237d576040517f08c379a0000000000000000000000000000000000000000000000000000000008152600401612374906147fa565b60405180910390fd5b80600560008573ffffffffffffffffffffffffffffffffffffffff1673ffffffffffffffffffffffffffffffffffffffff16815260200190815260200160002060008473ffffffffffffffffffffffffffffffffffffffff1673ffffffffffffffffffffffffffffffffffffffff16815260200190815260200160002060006101000a81548160ff0219169083151502179055508173ffffffffffffffffffffffffffffffffffffffff168373ffffffffffffffffffffffffffffffffffffffff167f17307eab39ab6107e8899845ad3d59bd9653f200f220920489ca2b5937696c318360405161246e9190612cdf565b60405180910390a3505050565b612486848484611f64565b6124928484848461271e565b6124d1576040517f08c379a00000000000000000000000000000000000000000000000000000000081526004016124c89061488c565b60405180910390fd5b50505050565b6060600c80546124e690613585565b80601f016020809104026020016040519081016040528092919081815260200182805461251290613585565b801561255f5780601f106125345761010080835404028352916020019161255f565b820191906000526020600020905b81548152906001019060200180831161254257829003601f168201915b5050505050905090565b6060600082036125b0576040518060400160405280600181526020017f300000000000000000000000000000000000000000000000000000000000000081525090506126c4565b600082905060005b600082146125e25780806125cb90614766565b915050600a826125db91906148db565b91506125b8565b60008167ffffffffffffffff8111156125fe576125fd613046565b5b6040519080825280601f01601f1916602001820160405280156126305781602001600182028036833780820191505090505b5090505b600085146126bd576001826126499190614709565b9150600a85612658919061490c565b60306126649190613c6b565b60f81b81838151811061267a5761267961493d565b5b60200101907effffffffffffffffffffffffffffffffffffffffffffffffffffffffffffff1916908160001a905350600a856126b691906148db565b9450612634565b8093505050505b919050565b6000826126d685846128a5565b1490509392505050565b505050565b505050565b6001816000016000828254019250508190555050565b61271a82826040518060200160405280600081525061291a565b5050565b600061273f8473ffffffffffffffffffffffffffffffffffffffff16612975565b15612898578373ffffffffffffffffffffffffffffffffffffffff1663150b7a02612768611db7565b8786866040518563ffffffff1660e01b815260040161278a94939291906149c1565b6020604051808303816000875af19250505080156127c657506040513d601f19601f820116820180604052508101906127c39190614a22565b60015b612848573d80600081146127f6576040519150601f19603f3d011682016040523d82523d6000602084013e6127fb565b606091505b506000815103612840576040517f08c379a00000000000000000000000000000000000000000000000000000000081526004016128379061488c565b60405180910390fd5b805181602001fd5b63150b7a0260e01b7bffffffffffffffffffffffffffffffffffffffffffffffffffffffff1916817bffffffffffffffffffffffffffffffffffffffffffffffffffffffff19161491505061289d565b600190505b949350505050565b60008082905060005b845181101561290f5760008582815181106128cc576128cb61493d565b5b602002602001015190508083116128ee576128e78382612998565b92506128fb565b6128f88184612998565b92505b50808061290790614766565b9150506128ae565b508091505092915050565b61292483836129af565b612931600084848461271e565b612970576040517f08c379a00000000000000000000000000000000000000000000000000000000081526004016129679061488c565b60405180910390fd5b505050565b6000808273ffffffffffffffffffffffffffffffffffffffff163b119050919050565b600082600052816020526040600020905092915050565b600073ffffffffffffffffffffffffffffffffffffffff168273ffffffffffffffffffffffffffffffffffffffff1603612a1e576040517f08c379a0000000000000000000000000000000000000000000000000000000008152600401612a1590614a9b565b60405180910390fd5b612a2781611d4b565b15612a67576040517f08c379a0000000000000000000000000000000000000000000000000000000008152600401612a5e90614b07565b60405180910390fd5b612a73600083836126e0565b6001600360008473ffffffffffffffffffffffffffffffffffffffff1673ffffffffffffffffffffffffffffffffffffffff1681526020019081526020016000206000828254612ac39190613c6b565b92505081905550816002600083815260200190815260200160002060006101000a81548173ffffffffffffffffffffffffffffffffffffffff021916908373ffffffffffffffffffffffffffffffffffffffff160217905550808273ffffffffffffffffffffffffffffffffffffffff16600073ffffffffffffffffffffffffffffffffffffffff167fddf252ad1be2c89b69c2b068fc378daa952ba7f163c4a11628f55a4df523b3ef60405160405180910390a4612b84600083836126e5565b5050565b828054612b9490613585565b90600052602060002090601f016020900481019282612bb65760008555612bfd565b82601f10612bcf57805160ff1916838001178555612bfd565b82800160010185558215612bfd579182015b82811115612bfc578251825591602001919060010190612be1565b5b509050612c0a9190612c0e565b5090565b5b80821115612c27576000816000905550600101612c0f565b5090565b6000604051905090565b600080fd5b600080fd5b60007fffffffff0000000000000000000000000000000000000000000000000000000082169050919050565b612c7481612c3f565b8114612c7f57600080fd5b50565b600081359050612c9181612c6b565b92915050565b600060208284031215612cad57612cac612c35565b5b6000612cbb84828501612c82565b91505092915050565b60008115159050919050565b612cd981612cc4565b82525050565b6000602082019050612cf46000830184612cd0565b92915050565b600081519050919050565b600082825260208201905092915050565b60005b83811015612d34578082015181840152602081019050612d19565b83811115612d43576000848401525b50505050565b6000601f19601f8301169050919050565b6000612d6582612cfa565b612d6f8185612d05565b9350612d7f818560208601612d16565b612d8881612d49565b840191505092915050565b60006020820190508181036000830152612dad8184612d5a565b905092915050565b6000819050919050565b612dc881612db5565b8114612dd357600080fd5b50565b600081359050612de581612dbf565b92915050565b600060208284031215612e0157612e00612c35565b5b6000612e0f84828501612dd6565b91505092915050565b600073ffffffffffffffffffffffffffffffffffffffff82169050919050565b6000612e4382612e18565b9050919050565b612e5381612e38565b82525050565b6000602082019050612e6e6000830184612e4a565b92915050565b612e7d81612e38565b8114612e8857600080fd5b50565b600081359050612e9a81612e74565b92915050565b60008060408385031215612eb757612eb6612c35565b5b6000612ec585828601612e8b565b9250506020612ed685828601612dd6565b9150509250929050565b612ee981612db5565b82525050565b6000602082019050612f046000830184612ee0565b92915050565b6000819050919050565b612f1d81612f0a565b82525050565b6000602082019050612f386000830184612f14565b92915050565b600080600060608486031215612f5757612f56612c35565b5b6000612f6586828701612e8b565b9350506020612f7686828701612e8b565b9250506040612f8786828701612dd6565b9150509250925092565b612f9a81612f0a565b8114612fa557600080fd5b50565b600081359050612fb781612f91565b92915050565b600060208284031215612fd357612fd2612c35565b5b6000612fe184828501612fa8565b91505092915050565b60038110612ff757600080fd5b50565b60008135905061300981612fea565b92915050565b60006020828403121561302557613024612c35565b5b600061303384828501612ffa565b91505092915050565b600080fd5b600080fd5b7f4e487b7100000000000000000000000000000000000000000000000000000000600052604160045260246000fd5b61307e82612d49565b810181811067ffffffffffffffff8211171561309d5761309c613046565b5b80604052505050565b60006130b0612c2b565b90506130bc8282613075565b919050565b600067ffffffffffffffff8211156130dc576130db613046565b5b6130e582612d49565b9050602081019050919050565b82818337600083830152505050565b600061311461310f846130c1565b6130a6565b9050828152602081018484840111156131305761312f613041565b5b61313b8482856130f2565b509392505050565b600082601f8301126131585761315761303c565b5b8135613168848260208601613101565b91505092915050565b60006020828403121561318757613186612c35565b5b600082013567ffffffffffffffff8111156131a5576131a4612c3a565b5b6131b184828501613143565b91505092915050565b6000602082840312156131d0576131cf612c35565b5b60006131de84828501612e8b565b91505092915050565b6131f081612cc4565b81146131fb57600080fd5b50565b60008135905061320d816131e7565b92915050565b6000806040838503121561322a57613229612c35565b5b600061323885828601612e8b565b9250506020613249858286016131fe565b9150509250929050565b600067ffffffffffffffff82111561326e5761326d613046565b5b61327782612d49565b9050602081019050919050565b600061329761329284613253565b6130a6565b9050828152602081018484840111156132b3576132b2613041565b5b6132be8482856130f2565b509392505050565b600082601f8301126132db576132da61303c565b5b81356132eb848260208601613284565b91505092915050565b6000806000806080858703121561330e5761330d612c35565b5b600061331c87828801612e8b565b945050602061332d87828801612e8b565b935050604061333e87828801612dd6565b925050606085013567ffffffffffffffff81111561335f5761335e612c3a565b5b61336b878288016132c6565b91505092959194509250565b600080fd5b600080fd5b60008083601f8401126133975761339661303c565b5b8235905067ffffffffffffffff8111156133b4576133b3613377565b5b6020830191508360208202830111156133d0576133cf61337c565b5b9250929050565b6000806000604084860312156133f0576133ef612c35565b5b60006133fe86828701612e8b565b935050602084013567ffffffffffffffff81111561341f5761341e612c3a565b5b61342b86828701613381565b92509250509250925092565b6000806040838503121561344e5761344d612c35565b5b600061345c85828601612e8b565b925050602061346d85828601612e8b565b9150509250929050565b6000806020838503121561348e5761348d612c35565b5b600083013567ffffffffffffffff8111156134ac576134ab612c3a565b5b6134b885828601613381565b92509250509250929050565b7f4e487b7100000000000000000000000000000000000000000000000000000000600052602160045260246000fd5b60038110613504576135036134c4565b5b50565b6000819050613515826134f3565b919050565b600061352582613507565b9050919050565b6135358161351a565b82525050565b6000602082019050613550600083018461352c565b92915050565b7f4e487b7100000000000000000000000000000000000000000000000000000000600052602260045260246000fd5b6000600282049050600182168061359d57607f821691505b6020821081036135b0576135af613556565b5b50919050565b7f4552433732313a20617070726f76656420717565727920666f72206e6f6e657860008201527f697374656e7420746f6b656e0000000000000000000000000000000000000000602082015250565b6000613612602c83612d05565b915061361d826135b6565b604082019050919050565b6000602082019050818103600083015261364181613605565b9050919050565b7f4552433732313a20617070726f76616c20746f2063757272656e74206f776e6560008201527f7200000000000000000000000000000000000000000000000000000000000000602082015250565b60006136a4602183612d05565b91506136af82613648565b604082019050919050565b600060208201905081810360008301526136d381613697565b9050919050565b7f4552433732313a20617070726f76652063616c6c6572206973206e6f74206f7760008201527f6e6572206e6f7220617070726f76656420666f7220616c6c0000000000000000602082015250565b6000613736603883612d05565b9150613741826136da565b604082019050919050565b6000602082019050818103600083015261376581613729565b9050919050565b7f4552433732313a207472616e736665722063616c6c6572206973206e6f74206f60008201527f776e6572206e6f7220617070726f766564000000000000000000000000000000602082015250565b60006137c8603183612d05565b91506137d38261376c565b604082019050919050565b600060208201905081810360008301526137f7816137bb565b9050919050565b7f4f776e61626c653a2063616c6c6572206973206e6f7420746865206f776e6572600082015250565b6000613834602083612d05565b915061383f826137fe565b602082019050919050565b6000602082019050818103600083015261386381613827565b9050919050565b7f5468652070726573616c65206c69737420686173206265656e2066696e616c6960008201527f7a65642e00000000000000000000000000000000000000000000000000000000602082015250565b60006138c6602483612d05565b91506138d18261386a565b604082019050919050565b600060208201905081810360008301526138f5816138b9565b9050919050565b7f77697468647261773a206e6f2062616c616e6365000000000000000000000000600082015250565b6000613932601483612d05565b915061393d826138fc565b602082019050919050565b6000602082019050818103600083015261396181613925565b9050919050565b600081905092915050565b50565b6000613983600083613968565b915061398e82613973565b600082019050919050565b60006139a482613976565b9150819050919050565b7f77697468647261773a207769746864726177206661696c656400000000000000600082015250565b60006139e4601983612d05565b91506139ef826139ae565b602082019050919050565b60006020820190508181036000830152613a13816139d7565b9050919050565b7f4d657461646174612068617320616c7265616479206265656e2066696e616c6960008201527f7a65642e00000000000000000000000000000000000000000000000000000000602082015250565b6000613a76602483612d05565b9150613a8182613a1a565b604082019050919050565b60006020820190508181036000830152613aa581613a69565b9050919050565b7f4552433732313a206f776e657220717565727920666f72206e6f6e657869737460008201527f656e7420746f6b656e0000000000000000000000000000000000000000000000602082015250565b6000613b08602983612d05565b9150613b1382613aac565b604082019050919050565b60006020820190508181036000830152613b3781613afb565b9050919050565b7f4552433732313a2062616c616e636520717565727920666f7220746865207a6560008201527f726f206164647265737300000000000000000000000000000000000000000000602082015250565b6000613b9a602a83612d05565b9150613ba582613b3e565b604082019050919050565b60006020820190508181036000830152613bc981613b8d565b9050919050565b7f53656e646572206973206e6f74206d6572676572000000000000000000000000600082015250565b6000613c06601483612d05565b9150613c1182613bd0565b602082019050919050565b60006020820190508181036000830152613c3581613bf9565b9050919050565b7f4e487b7100000000000000000000000000000000000000000000000000000000600052601160045260246000fd5b6000613c7682612db5565b9150613c8183612db5565b9250827fffffffffffffffffffffffffffffffffffffffffffffffffffffffffffffffff03821115613cb657613cb5613c3c565b5b828201905092915050565b7f43616e206e6f742061697264726f70206d6f7265207468616e207075626c696360008201527f6c7920646973636c6f73656420746f207465616d000000000000000000000000602082015250565b6000613d1d603483612d05565b9150613d2882613cc1565b604082019050919050565b60006020820190508181036000830152613d4c81613d10565b9050919050565b7f4e756d626572206f6620746f6b656e732072657175657374656420657863656560008201527f647320636f6c6c656374696f6e2073697a650000000000000000000000000000602082015250565b6000613daf603283612d05565b9150613dba82613d53565b604082019050919050565b60006020820190508181036000830152613dde81613da2565b9050919050565b7f5075626c6963206d696e74206973206e6f742061637469766500000000000000600082015250565b6000613e1b601983612d05565b9150613e2682613de5565b602082019050919050565b60006020820190508181036000830152613e4a81613e0e565b9050919050565b6000613e5c82612db5565b9150613e6783612db5565b9250817fffffffffffffffffffffffffffffffffffffffffffffffffffffffffffffffff0483118215151615613ea057613e9f613c3c565b5b828202905092915050565b7f45746865722076616c75652073656e74206973206e6f7420737566666963696560008201527f6e74000000000000000000000000000000000000000000000000000000000000602082015250565b6000613f07602283612d05565b9150613f1282613eab565b604082019050919050565b60006020820190508181036000830152613f3681613efa565b9050919050565b7f4d696e74696e672074686973206d616e7920746f6b656e7320776f756c64206560008201527f78636565642074686520746f74616c20636f6c6c656374696f6e2073697a6500602082015250565b6000613f99603f83612d05565b9150613fa482613f3d565b604082019050919050565b60006020820190508181036000830152613fc881613f8c565b9050919050565b7f456163682061646472657373206d6179206f6e6c79206d696e74203620746f6b60008201527f656e730000000000000000000000000000000000000000000000000000000000602082015250565b600061402b602383612d05565b915061403682613fcf565b604082019050919050565b6000602082019050818103600083015261405a8161401e565b9050919050565b7f546f6b656e20494420646f6573206e6f7420657869737420696e20746869732060008201527f636f6c6c656374696f6e00000000000000000000000000000000000000000000602082015250565b60006140bd602a83612d05565b91506140c882614061565b604082019050919050565b600060208201905081810360008301526140ec816140b0565b9050919050565b600081905092915050565b600061410982612cfa565b61411381856140f3565b9350614123818560208601612d16565b80840191505092915050565b7f2e6a736f6e000000000000000000000000000000000000000000000000000000600082015250565b60006141656005836140f3565b91506141708261412f565b600582019050919050565b600061418782856140fe565b915061419382846140fe565b915061419e82614158565b91508190509392505050565b60008160601b9050919050565b60006141c2826141aa565b9050919050565b60006141d4826141b7565b9050919050565b6141ec6141e782612e38565b6141c9565b82525050565b60006141fe82846141db565b60148201915081905092915050565b7f50726573616c65206973206e6f74206163746976650000000000000000000000600082015250565b6000614243601583612d05565b915061424e8261420d565b602082019050919050565b6000602082019050818103600083015261427281614236565b9050919050565b7f53656e646572206973206e6f74206f6e207468652070726573616c65206c697360008201527f7400000000000000000000000000000000000000000000000000000000000000602082015250565b60006142d5602183612d05565b91506142e082614279565b604082019050919050565b60006020820190508181036000830152614304816142c8565b9050919050565b7f45746865722076616c75652073656e74206973206c657373207468616e202e3060008201527f3737000000000000000000000000000000000000000000000000000000000000602082015250565b6000614367602283612d05565b91506143728261430b565b604082019050919050565b600060208201905081810360008301526143968161435a565b9050919050565b7f436f6c6c656374696f6e2073697a65206c696d69742068617320616c7265616460008201527f79206265656e2072656163686564000000000000000000000000000000000000602082015250565b60006143f9602e83612d05565b91506144048261439d565b604082019050919050565b60006020820190508181036000830152614428816143ec565b9050919050565b7f5468697320616464726573732068617320616c7265616479206d696e7465642060008201527f647572696e672070726573616c65000000000000000000000000000000000000602082015250565b600061448b602e83612d05565b91506144968261442f565b604082019050919050565b600060208201905081810360008301526144ba8161447e565b9050919050565b7f4f776e61626c653a206e6577206f776e657220697320746865207a65726f206160008201527f6464726573730000000000000000000000000000000000000000000000000000602082015250565b600061451d602683612d05565b9150614528826144c1565b604082019050919050565b6000602082019050818103600083015261454c81614510565b9050919050565b7f4552433732313a206f70657261746f7220717565727920666f72206e6f6e657860008201527f697374656e7420746f6b656e0000000000000000000000000000000000000000602082015250565b60006145af602c83612d05565b91506145ba82614553565b604082019050919050565b600060208201905081810360008301526145de816145a2565b9050919050565b7f4552433732313a207472616e736665722066726f6d20696e636f72726563742060008201527f6f776e6572000000000000000000000000000000000000000000000000000000602082015250565b6000614641602583612d05565b915061464c826145e5565b604082019050919050565b6000602082019050818103600083015261467081614634565b9050919050565b7f4552433732313a207472616e7366657220746f20746865207a65726f2061646460008201527f7265737300000000000000000000000000000000000000000000000000000000602082015250565b60006146d3602483612d05565b91506146de82614677565b604082019050919050565b60006020820190508181036000830152614702816146c6565b9050919050565b600061471482612db5565b915061471f83612db5565b92508282101561473257614731613c3c565b5b828203905092915050565b60006040820190506147526000830185612e4a565b61475f6020830184612ee0565b9392505050565b600061477182612db5565b91507fffffffffffffffffffffffffffffffffffffffffffffffffffffffffffffffff82036147a3576147a2613c3c565b5b600182019050919050565b7f4552433732313a20617070726f766520746f2063616c6c657200000000000000600082015250565b60006147e4601983612d05565b91506147ef826147ae565b602082019050919050565b60006020820190508181036000830152614813816147d7565b9050919050565b7f4552433732313a207472616e7366657220746f206e6f6e20455243373231526560008201527f63656976657220696d706c656d656e7465720000000000000000000000000000602082015250565b6000614876603283612d05565b91506148818261481a565b604082019050919050565b600060208201905081810360008301526148a581614869565b9050919050565b7f4e487b7100000000000000000000000000000000000000000000000000000000600052601260045260246000fd5b60006148e682612db5565b91506148f183612db5565b925082614901576149006148ac565b5b828204905092915050565b600061491782612db5565b915061492283612db5565b925082614932576149316148ac565b5b828206905092915050565b7f4e487b7100000000000000000000000000000000000000000000000000000000600052603260045260246000fd5b600081519050919050565b600082825260208201905092915050565b60006149938261496c565b61499d8185614977565b93506149ad818560208601612d16565b6149b681612d49565b840191505092915050565b60006080820190506149d66000830187612e4a565b6149e36020830186612e4a565b6149f06040830185612ee0565b8181036060830152614a028184614988565b905095945050505050565b600081519050614a1c81612c6b565b92915050565b600060208284031215614a3857614a37612c35565b5b6000614a4684828501614a0d565b91505092915050565b7f4552433732313a206d696e7420746f20746865207a65726f2061646472657373600082015250565b6000614a85602083612d05565b9150614a9082614a4f565b602082019050919050565b60006020820190508181036000830152614ab481614a78565b9050919050565b7f4552433732313a20746f6b656e20616c7265616479206d696e74656400000000600082015250565b6000614af1601c83612d05565b9150614afc82614abb565b602082019050919050565b60006020820190508181036000830152614b2081614ae4565b905091905056fea26469706673582212209d82f38ff9ecfebfa3d1a5a0b22aa132b28d996372323913a834f7ea909ffcd664736f6c634300080d0033",
  "linkReferences": {},
  "deployedLinkReferences": {}
}