{
  "_format": "hh-sol-artifact-1",
  "contractName": "CyberLionzAdults",
  "sourceName": "contracts/CyberLionzAdults.sol",
  "abi": [
    {
      "inputs": [
        {
          "internalType": "string",
          "name": "baseUri",
          "type": "string"
        }
      ],
      "stateMutability": "nonpayable",
      "type": "constructor"
    },
    {
      "anonymous": false,
      "inputs": [
        {
          "indexed": true,
          "internalType": "address",
          "name": "owner",
          "type": "address"
        },
        {
          "indexed": true,
          "internalType": "address",
          "name": "approved",
          "type": "address"
        },
        {
          "indexed": true,
          "internalType": "uint256",
          "name": "tokenId",
          "type": "uint256"
        }
      ],
      "name": "Approval",
      "type": "event"
    },
    {
      "anonymous": false,
      "inputs": [
        {
          "indexed": true,
          "internalType": "address",
          "name": "owner",
          "type": "address"
        },
        {
          "indexed": true,
          "internalType": "address",
          "name": "operator",
          "type": "address"
        },
        {
          "indexed": false,
          "internalType": "bool",
          "name": "approved",
          "type": "bool"
        }
      ],
      "name": "ApprovalForAll",
      "type": "event"
    },
    {
      "anonymous": false,
      "inputs": [
        {
          "indexed": false,
          "internalType": "address",
          "name": "to",
          "type": "address"
        },
        {
          "indexed": false,
          "internalType": "uint256",
          "name": "tokenId",
          "type": "uint256"
        }
      ],
      "name": "Mint",
      "type": "event"
    },
    {
      "anonymous": false,
      "inputs": [
        {
          "indexed": true,
          "internalType": "address",
          "name": "previousOwner",
          "type": "address"
        },
        {
          "indexed": true,
          "internalType": "address",
          "name": "newOwner",
          "type": "address"
        }
      ],
      "name": "OwnershipTransferred",
      "type": "event"
    },
    {
      "anonymous": false,
      "inputs": [
        {
          "indexed": true,
          "internalType": "bytes32",
          "name": "role",
          "type": "bytes32"
        },
        {
          "indexed": true,
          "internalType": "bytes32",
          "name": "previousAdminRole",
          "type": "bytes32"
        },
        {
          "indexed": true,
          "internalType": "bytes32",
          "name": "newAdminRole",
          "type": "bytes32"
        }
      ],
      "name": "RoleAdminChanged",
      "type": "event"
    },
    {
      "anonymous": false,
      "inputs": [
        {
          "indexed": true,
          "internalType": "bytes32",
          "name": "role",
          "type": "bytes32"
        },
        {
          "indexed": true,
          "internalType": "address",
          "name": "account",
          "type": "address"
        },
        {
          "indexed": true,
          "internalType": "address",
          "name": "sender",
          "type": "address"
        }
      ],
      "name": "RoleGranted",
      "type": "event"
    },
    {
      "anonymous": false,
      "inputs": [
        {
          "indexed": true,
          "internalType": "bytes32",
          "name": "role",
          "type": "bytes32"
        },
        {
          "indexed": true,
          "internalType": "address",
          "name": "account",
          "type": "address"
        },
        {
          "indexed": true,
          "internalType": "address",
          "name": "sender",
          "type": "address"
        }
      ],
      "name": "RoleRevoked",
      "type": "event"
    },
    {
      "anonymous": false,
      "inputs": [
        {
          "indexed": true,
          "internalType": "address",
          "name": "from",
          "type": "address"
        },
        {
          "indexed": true,
          "internalType": "address",
          "name": "to",
          "type": "address"
        },
        {
          "indexed": true,
          "internalType": "uint256",
          "name": "tokenId",
          "type": "uint256"
        }
      ],
      "name": "Transfer",
      "type": "event"
    },
    {
      "inputs": [],
      "name": "DEFAULT_ADMIN_ROLE",
      "outputs": [
        {
          "internalType": "bytes32",
          "name": "",
          "type": "bytes32"
        }
      ],
      "stateMutability": "view",
      "type": "function"
    },
    {
      "inputs": [],
      "name": "MINTER_ROLE",
      "outputs": [
        {
          "internalType": "bytes32",
          "name": "",
          "type": "bytes32"
        }
      ],
      "stateMutability": "view",
      "type": "function"
    },
    {
      "inputs": [
        {
          "internalType": "address",
          "name": "to",
          "type": "address"
        },
        {
          "internalType": "uint256",
          "name": "tokenId",
          "type": "uint256"
        }
      ],
      "name": "approve",
      "outputs": [],
      "stateMutability": "nonpayable",
      "type": "function"
    },
    {
      "inputs": [
        {
          "internalType": "address",
          "name": "owner",
          "type": "address"
        }
      ],
      "name": "balanceOf",
      "outputs": [
        {
          "internalType": "uint256",
          "name": "",
          "type": "uint256"
        }
      ],
      "stateMutability": "view",
      "type": "function"
    },
    {
      "inputs": [],
      "name": "finalizeMetadata",
      "outputs": [],
      "stateMutability": "nonpayable",
      "type": "function"
    },
    {
      "inputs": [],
      "name": "finalized",
      "outputs": [
        {
          "internalType": "bool",
          "name": "",
          "type": "bool"
        }
      ],
      "stateMutability": "view",
      "type": "function"
    },
    {
      "inputs": [
        {
          "internalType": "uint256",
          "name": "tokenId",
          "type": "uint256"
        }
      ],
      "name": "getApproved",
      "outputs": [
        {
          "internalType": "address",
          "name": "",
          "type": "address"
        }
      ],
      "stateMutability": "view",
      "type": "function"
    },
    {
      "inputs": [
        {
          "internalType": "bytes32",
          "name": "role",
          "type": "bytes32"
        }
      ],
      "name": "getRoleAdmin",
      "outputs": [
        {
          "internalType": "bytes32",
          "name": "",
          "type": "bytes32"
        }
      ],
      "stateMutability": "view",
      "type": "function"
    },
    {
      "inputs": [
        {
          "internalType": "bytes32",
          "name": "role",
          "type": "bytes32"
        },
        {
          "internalType": "address",
          "name": "account",
          "type": "address"
        }
      ],
      "name": "grantRole",
      "outputs": [],
      "stateMutability": "nonpayable",
      "type": "function"
    },
    {
      "inputs": [
        {
          "internalType": "bytes32",
          "name": "role",
          "type": "bytes32"
        },
        {
          "internalType": "address",
          "name": "account",
          "type": "address"
        }
      ],
      "name": "hasRole",
      "outputs": [
        {
          "internalType": "bool",
          "name": "",
          "type": "bool"
        }
      ],
      "stateMutability": "view",
      "type": "function"
    },
    {
      "inputs": [
        {
          "internalType": "address",
          "name": "owner",
          "type": "address"
        },
        {
          "internalType": "address",
          "name": "operator",
          "type": "address"
        }
      ],
      "name": "isApprovedForAll",
      "outputs": [
        {
          "internalType": "bool",
          "name": "",
          "type": "bool"
        }
      ],
      "stateMutability": "view",
      "type": "function"
    },
    {
      "inputs": [
        {
          "internalType": "address",
          "name": "to",
          "type": "address"
        }
      ],
      "name": "mintFromMerger",
      "outputs": [],
      "stateMutability": "nonpayable",
      "type": "function"
    },
    {
      "inputs": [],
      "name": "name",
      "outputs": [
        {
          "internalType": "string",
          "name": "",
          "type": "string"
        }
      ],
      "stateMutability": "view",
      "type": "function"
    },
    {
      "inputs": [],
      "name": "owner",
      "outputs": [
        {
          "internalType": "address",
          "name": "",
          "type": "address"
        }
      ],
      "stateMutability": "view",
      "type": "function"
    },
    {
      "inputs": [
        {
          "internalType": "uint256",
          "name": "tokenId",
          "type": "uint256"
        }
      ],
      "name": "ownerOf",
      "outputs": [
        {
          "internalType": "address",
          "name": "",
          "type": "address"
        }
      ],
      "stateMutability": "view",
      "type": "function"
    },
    {
      "inputs": [],
      "name": "renounceOwnership",
      "outputs": [],
      "stateMutability": "nonpayable",
      "type": "function"
    },
    {
      "inputs": [
        {
          "internalType": "bytes32",
          "name": "role",
          "type": "bytes32"
        },
        {
          "internalType": "address",
          "name": "account",
          "type": "address"
        }
      ],
      "name": "renounceRole",
      "outputs": [],
      "stateMutability": "nonpayable",
      "type": "function"
    },
    {
      "inputs": [
        {
          "internalType": "bytes32",
          "name": "role",
          "type": "bytes32"
        },
        {
          "internalType": "address",
          "name": "account",
          "type": "address"
        }
      ],
      "name": "revokeRole",
      "outputs": [],
      "stateMutability": "nonpayable",
      "type": "function"
    },
    {
      "inputs": [
        {
          "internalType": "address",
          "name": "from",
          "type": "address"
        },
        {
          "internalType": "address",
          "name": "to",
          "type": "address"
        },
        {
          "internalType": "uint256",
          "name": "tokenId",
          "type": "uint256"
        }
      ],
      "name": "safeTransferFrom",
      "outputs": [],
      "stateMutability": "nonpayable",
      "type": "function"
    },
    {
      "inputs": [
        {
          "internalType": "address",
          "name": "from",
          "type": "address"
        },
        {
          "internalType": "address",
          "name": "to",
          "type": "address"
        },
        {
          "internalType": "uint256",
          "name": "tokenId",
          "type": "uint256"
        },
        {
          "internalType": "bytes",
          "name": "data",
          "type": "bytes"
        }
      ],
      "name": "safeTransferFrom",
      "outputs": [],
      "stateMutability": "nonpayable",
      "type": "function"
    },
    {
      "inputs": [
        {
          "internalType": "address",
          "name": "operator",
          "type": "address"
        },
        {
          "internalType": "bool",
          "name": "approved",
          "type": "bool"
        }
      ],
      "name": "setApprovalForAll",
      "outputs": [],
      "stateMutability": "nonpayable",
      "type": "function"
    },
    {
      "inputs": [
        {
          "internalType": "string",
          "name": "baseUri",
          "type": "string"
        }
      ],
      "name": "setBaseURI",
      "outputs": [],
      "stateMutability": "nonpayable",
      "type": "function"
    },
    {
      "inputs": [
        {
          "internalType": "bytes4",
          "name": "interfaceId",
          "type": "bytes4"
        }
      ],
      "name": "supportsInterface",
      "outputs": [
        {
          "internalType": "bool",
          "name": "",
          "type": "bool"
        }
      ],
      "stateMutability": "view",
      "type": "function"
    },
    {
      "inputs": [],
      "name": "symbol",
      "outputs": [
        {
          "internalType": "string",
          "name": "",
          "type": "string"
        }
      ],
      "stateMutability": "view",
      "type": "function"
    },
    {
      "inputs": [
        {
          "internalType": "uint256",
          "name": "tokenId",
          "type": "uint256"
        }
      ],
      "name": "tokenURI",
      "outputs": [
        {
          "internalType": "string",
          "name": "",
          "type": "string"
        }
      ],
      "stateMutability": "view",
      "type": "function"
    },
    {
      "inputs": [],
      "name": "totalSupply",
      "outputs": [
        {
          "internalType": "uint256",
          "name": "",
          "type": "uint256"
        }
      ],
      "stateMutability": "view",
      "type": "function"
    },
    {
      "inputs": [
        {
          "internalType": "address",
          "name": "from",
          "type": "address"
        },
        {
          "internalType": "address",
          "name": "to",
          "type": "address"
        },
        {
          "internalType": "uint256",
          "name": "tokenId",
          "type": "uint256"
        }
      ],
      "name": "transferFrom",
      "outputs": [],
      "stateMutability": "nonpayable",
      "type": "function"
    },
    {
      "inputs": [
        {
          "internalType": "address",
          "name": "newOwner",
          "type": "address"
        }
      ],
      "name": "transferOwnership",
      "outputs": [],
      "stateMutability": "nonpayable",
      "type": "function"
    }
  ],
  "bytecode": "0x60806040526000600960006101000a81548160ff0219169083151502179055503480156200002c57600080fd5b506040516200412e3803806200412e8339818101604052810190620000529190620005d5565b6040518060400160405280601081526020017f43796265724c696f6e7a4164756c7473000000000000000000000000000000008152506040518060400160405280600381526020017f434c4100000000000000000000000000000000000000000000000000000000008152508160009080519060200190620000d692919062000388565b508060019080519060200190620000ef92919062000388565b50505062000112620001066200014760201b60201c565b6200014f60201b60201c565b80600a90805190602001906200012a92919062000388565b50620001406000801b336200021560201b60201c565b506200068a565b600033905090565b6000600660009054906101000a900473ffffffffffffffffffffffffffffffffffffffff16905081600660006101000a81548173ffffffffffffffffffffffffffffffffffffffff021916908373ffffffffffffffffffffffffffffffffffffffff1602179055508173ffffffffffffffffffffffffffffffffffffffff168173ffffffffffffffffffffffffffffffffffffffff167f8be0079c531659141344cd1fd0a4f28419497f9722a3daafe3b4186f6b6457e060405160405180910390a35050565b6200022782826200022b60201b60201c565b5050565b6200023d82826200031d60201b60201c565b620003195760016007600084815260200190815260200160002060000160008373ffffffffffffffffffffffffffffffffffffffff1673ffffffffffffffffffffffffffffffffffffffff16815260200190815260200160002060006101000a81548160ff021916908315150217905550620002be6200014760201b60201c565b73ffffffffffffffffffffffffffffffffffffffff168173ffffffffffffffffffffffffffffffffffffffff16837f2f8788117e7eff1d82e926ec794901d17c78024a50270940304540a733656f0d60405160405180910390a45b5050565b60006007600084815260200190815260200160002060000160008373ffffffffffffffffffffffffffffffffffffffff1673ffffffffffffffffffffffffffffffffffffffff16815260200190815260200160002060009054906101000a900460ff16905092915050565b828054620003969062000655565b90600052602060002090601f016020900481019282620003ba576000855562000406565b82601f10620003d557805160ff191683800117855562000406565b8280016001018555821562000406579182015b8281111562000405578251825591602001919060010190620003e8565b5b50905062000415919062000419565b5090565b5b80821115620004345760008160009055506001016200041a565b5090565b6000604051905090565b600080fd5b600080fd5b600080fd5b600080fd5b6000601f19601f8301169050919050565b7f4e487b7100000000000000000000000000000000000000000000000000000000600052604160045260246000fd5b620004a18262000456565b810181811067ffffffffffffffff82111715620004c357620004c262000467565b5b80604052505050565b6000620004d862000438565b9050620004e6828262000496565b919050565b600067ffffffffffffffff82111562000509576200050862000467565b5b620005148262000456565b9050602081019050919050565b60005b838110156200054157808201518184015260208101905062000524565b8381111562000551576000848401525b50505050565b60006200056e6200056884620004eb565b620004cc565b9050828152602081018484840111156200058d576200058c62000451565b5b6200059a84828562000521565b509392505050565b600082601f830112620005ba57620005b96200044c565b5b8151620005cc84826020860162000557565b91505092915050565b600060208284031215620005ee57620005ed62000442565b5b600082015167ffffffffffffffff8111156200060f576200060e62000447565b5b6200061d84828501620005a2565b91505092915050565b7f4e487b7100000000000000000000000000000000000000000000000000000000600052602260045260246000fd5b600060028204905060018216806200066e57607f821691505b60208210810362000684576200068362000626565b5b50919050565b613a94806200069a6000396000f3fe608060405234801561001057600080fd5b50600436106101c45760003560e01c80638afe22c8116100f9578063b88d4fde11610097578063d547741f11610071578063d547741f146104f1578063e985e9c51461050d578063f2fde38b1461053d578063f4a560a514610559576101c4565b8063b88d4fde14610487578063c87b56dd146104a3578063d5391393146104d3576101c4565b806395d89b41116100d357806395d89b4114610411578063a217fddf1461042f578063a22cb4651461044d578063b3f05b9714610469576101c4565b80638afe22c8146103a75780638da5cb5b146103c357806391d14854146103e1576101c4565b80632f2ff15d1161016657806355f804b31161014057806355f804b3146103215780636352211e1461033d57806370a082311461036d578063715018a61461039d576101c4565b80632f2ff15d146102cd57806336568abe146102e957806342842e0e14610305576101c4565b8063095ea7b3116101a2578063095ea7b31461024757806318160ddd1461026357806323b872dd14610281578063248a9ca31461029d576101c4565b806301ffc9a7146101c957806306fdde03146101f9578063081812fc14610217575b600080fd5b6101e360048036038101906101de91906124dd565b610563565b6040516101f09190612525565b60405180910390f35b610201610575565b60405161020e91906125d9565b60405180910390f35b610231600480360381019061022c9190612631565b610607565b60405161023e919061269f565b60405180910390f35b610261600480360381019061025c91906126e6565b61064d565b005b61026b610764565b6040516102789190612735565b60405180910390f35b61029b60048036038101906102969190612750565b610775565b005b6102b760048036038101906102b291906127d9565b6107d5565b6040516102c49190612815565b60405180910390f35b6102e760048036038101906102e29190612830565b6107f5565b005b61030360048036038101906102fe9190612830565b610816565b005b61031f600480360381019061031a9190612750565b610899565b005b61033b600480360381019061033691906129a5565b6108b9565b005b61035760048036038101906103529190612631565b61092b565b604051610364919061269f565b60405180910390f35b610387600480360381019061038291906129ee565b6109dc565b6040516103949190612735565b60405180910390f35b6103a5610a93565b005b6103c160048036038101906103bc91906129ee565b610aa7565b005b6103cb610b32565b6040516103d8919061269f565b60405180910390f35b6103fb60048036038101906103f69190612830565b610b5c565b6040516104089190612525565b60405180910390f35b610419610bc7565b60405161042691906125d9565b60405180910390f35b610437610c59565b6040516104449190612815565b60405180910390f35b61046760048036038101906104629190612a47565b610c60565b005b610471610c76565b60405161047e9190612525565b60405180910390f35b6104a1600480360381019061049c9190612b28565b610c89565b005b6104bd60048036038101906104b89190612631565b610ceb565b6040516104ca91906125d9565b60405180910390f35b6104db610d6d565b6040516104e89190612815565b60405180910390f35b61050b60048036038101906105069190612830565b610d91565b005b61052760048036038101906105229190612bab565b610db2565b6040516105349190612525565b60405180910390f35b610557600480360381019061055291906129ee565b610e46565b005b610561610ec9565b005b600061056e82610f3e565b9050919050565b60606000805461058490612c1a565b80601f01602080910402602001604051908101604052809291908181526020018280546105b090612c1a565b80156105fd5780601f106105d2576101008083540402835291602001916105fd565b820191906000526020600020905b8154815290600101906020018083116105e057829003601f168201915b5050505050905090565b600061061282610fb8565b6004600083815260200190815260200160002060009054906101000a900473ffffffffffffffffffffffffffffffffffffffff169050919050565b60006106588261092b565b90508073ffffffffffffffffffffffffffffffffffffffff168373ffffffffffffffffffffffffffffffffffffffff16036106c8576040517f08c379a00000000000000000000000000000000000000000000000000000000081526004016106bf90612cbd565b60405180910390fd5b8073ffffffffffffffffffffffffffffffffffffffff166106e7611003565b73ffffffffffffffffffffffffffffffffffffffff161480610716575061071581610710611003565b610db2565b5b610755576040517f08c379a000000000000000000000000000000000000000000000000000000000815260040161074c90612d4f565b60405180910390fd5b61075f838361100b565b505050565b600061077060086110c4565b905090565b610786610780611003565b826110d2565b6107c5576040517f08c379a00000000000000000000000000000000000000000000000000000000081526004016107bc90612de1565b60405180910390fd5b6107d0838383611167565b505050565b600060076000838152602001908152602001600020600101549050919050565b6107fe826107d5565b610807816113cd565b61081183836113e1565b505050565b61081e611003565b73ffffffffffffffffffffffffffffffffffffffff168173ffffffffffffffffffffffffffffffffffffffff161461088b576040517f08c379a000000000000000000000000000000000000000000000000000000000815260040161088290612e73565b60405180910390fd5b61089582826114c2565b5050565b6108b483838360405180602001604052806000815250610c89565b505050565b6108c16115a4565b600960009054906101000a900460ff1615610911576040517f08c379a000000000000000000000000000000000000000000000000000000000815260040161090890612f05565b60405180910390fd5b80600a90805190602001906109279291906123ce565b5050565b6000806002600084815260200190815260200160002060009054906101000a900473ffffffffffffffffffffffffffffffffffffffff169050600073ffffffffffffffffffffffffffffffffffffffff168173ffffffffffffffffffffffffffffffffffffffff16036109d3576040517f08c379a00000000000000000000000000000000000000000000000000000000081526004016109ca90612f71565b60405180910390fd5b80915050919050565b60008073ffffffffffffffffffffffffffffffffffffffff168273ffffffffffffffffffffffffffffffffffffffff1603610a4c576040517f08c379a0000000000000000000000000000000000000000000000000000000008152600401610a4390613003565b60405180910390fd5b600360008373ffffffffffffffffffffffffffffffffffffffff1673ffffffffffffffffffffffffffffffffffffffff168152602001908152602001600020549050919050565b610a9b6115a4565b610aa56000611622565b565b610ab46000801b33610b5c565b80610ae55750610ae47f9f2df0fed2c77648de5860a4cc508cd0818c85b8b8a1ab4ceeef8d981c8956a633610b5c565b5b610b24576040517f08c379a0000000000000000000000000000000000000000000000000000000008152600401610b1b9061306f565b60405180910390fd5b610b2f8160016116e8565b50565b6000600660009054906101000a900473ffffffffffffffffffffffffffffffffffffffff16905090565b60006007600084815260200190815260200160002060000160008373ffffffffffffffffffffffffffffffffffffffff1673ffffffffffffffffffffffffffffffffffffffff16815260200190815260200160002060009054906101000a900460ff16905092915050565b606060018054610bd690612c1a565b80601f0160208091040260200160405190810160405280929190818152602001828054610c0290612c1a565b8015610c4f5780601f10610c2457610100808354040283529160200191610c4f565b820191906000526020600020905b815481529060010190602001808311610c3257829003601f168201915b5050505050905090565b6000801b81565b610c72610c6b611003565b8383611767565b5050565b600960009054906101000a900460ff1681565b610c9a610c94611003565b836110d2565b610cd9576040517f08c379a0000000000000000000000000000000000000000000000000000000008152600401610cd090612de1565b60405180910390fd5b610ce5848484846118d3565b50505050565b6060610cf68261192f565b610d35576040517f08c379a0000000000000000000000000000000000000000000000000000000008152600401610d2c90613101565b60405180910390fd5b610d3d61199b565b610d4683611a2d565b604051602001610d579291906131a9565b6040516020818303038152906040529050919050565b7f9f2df0fed2c77648de5860a4cc508cd0818c85b8b8a1ab4ceeef8d981c8956a681565b610d9a826107d5565b610da3816113cd565b610dad83836114c2565b505050565b6000600560008473ffffffffffffffffffffffffffffffffffffffff1673ffffffffffffffffffffffffffffffffffffffff16815260200190815260200160002060008373ffffffffffffffffffffffffffffffffffffffff1673ffffffffffffffffffffffffffffffffffffffff16815260200190815260200160002060009054906101000a900460ff16905092915050565b610e4e6115a4565b600073ffffffffffffffffffffffffffffffffffffffff168173ffffffffffffffffffffffffffffffffffffffff1603610ebd576040517f08c379a0000000000000000000000000000000000000000000000000000000008152600401610eb49061324a565b60405180910390fd5b610ec681611622565b50565b610ed16115a4565b600960009054906101000a900460ff1615610f21576040517f08c379a0000000000000000000000000000000000000000000000000000000008152600401610f1890612f05565b60405180910390fd5b6001600960006101000a81548160ff021916908315150217905550565b60007f7965db0b000000000000000000000000000000000000000000000000000000007bffffffffffffffffffffffffffffffffffffffffffffffffffffffff1916827bffffffffffffffffffffffffffffffffffffffffffffffffffffffff19161480610fb15750610fb082611b8d565b5b9050919050565b610fc18161192f565b611000576040517f08c379a0000000000000000000000000000000000000000000000000000000008152600401610ff790612f71565b60405180910390fd5b50565b600033905090565b816004600083815260200190815260200160002060006101000a81548173ffffffffffffffffffffffffffffffffffffffff021916908373ffffffffffffffffffffffffffffffffffffffff160217905550808273ffffffffffffffffffffffffffffffffffffffff1661107e8361092b565b73ffffffffffffffffffffffffffffffffffffffff167f8c5be1e5ebec7d5bd14f71427d1e84f3dd0314c0f7b2291e5b200ac8c7c3b92560405160405180910390a45050565b600081600001549050919050565b6000806110de8361092b565b90508073ffffffffffffffffffffffffffffffffffffffff168473ffffffffffffffffffffffffffffffffffffffff161480611120575061111f8185610db2565b5b8061115e57508373ffffffffffffffffffffffffffffffffffffffff1661114684610607565b73ffffffffffffffffffffffffffffffffffffffff16145b91505092915050565b8273ffffffffffffffffffffffffffffffffffffffff166111878261092b565b73ffffffffffffffffffffffffffffffffffffffff16146111dd576040517f08c379a00000000000000000000000000000000000000000000000000000000081526004016111d4906132dc565b60405180910390fd5b600073ffffffffffffffffffffffffffffffffffffffff168273ffffffffffffffffffffffffffffffffffffffff160361124c576040517f08c379a00000000000000000000000000000000000000000000000000000000081526004016112439061336e565b60405180910390fd5b611257838383611c6f565b61126260008261100b565b6001600360008573ffffffffffffffffffffffffffffffffffffffff1673ffffffffffffffffffffffffffffffffffffffff16815260200190815260200160002060008282546112b291906133bd565b925050819055506001600360008473ffffffffffffffffffffffffffffffffffffffff1673ffffffffffffffffffffffffffffffffffffffff168152602001908152602001600020600082825461130991906133f1565b92505081905550816002600083815260200190815260200160002060006101000a81548173ffffffffffffffffffffffffffffffffffffffff021916908373ffffffffffffffffffffffffffffffffffffffff160217905550808273ffffffffffffffffffffffffffffffffffffffff168473ffffffffffffffffffffffffffffffffffffffff167fddf252ad1be2c89b69c2b068fc378daa952ba7f163c4a11628f55a4df523b3ef60405160405180910390a46113c8838383611c74565b505050565b6113de816113d9611003565b611c79565b50565b6113eb8282610b5c565b6114be5760016007600084815260200190815260200160002060000160008373ffffffffffffffffffffffffffffffffffffffff1673ffffffffffffffffffffffffffffffffffffffff16815260200190815260200160002060006101000a81548160ff021916908315150217905550611463611003565b73ffffffffffffffffffffffffffffffffffffffff168173ffffffffffffffffffffffffffffffffffffffff16837f2f8788117e7eff1d82e926ec794901d17c78024a50270940304540a733656f0d60405160405180910390a45b5050565b6114cc8282610b5c565b156115a05760006007600084815260200190815260200160002060000160008373ffffffffffffffffffffffffffffffffffffffff1673ffffffffffffffffffffffffffffffffffffffff16815260200190815260200160002060006101000a81548160ff021916908315150217905550611545611003565b73ffffffffffffffffffffffffffffffffffffffff168173ffffffffffffffffffffffffffffffffffffffff16837ff6391f5c32d9c69d2a47ea670b442974b53935d1edc7fd64eb21e047a839171b60405160405180910390a45b5050565b6115ac611003565b73ffffffffffffffffffffffffffffffffffffffff166115ca610b32565b73ffffffffffffffffffffffffffffffffffffffff1614611620576040517f08c379a000000000000000000000000000000000000000000000000000000000815260040161161790613493565b60405180910390fd5b565b6000600660009054906101000a900473ffffffffffffffffffffffffffffffffffffffff16905081600660006101000a81548173ffffffffffffffffffffffffffffffffffffffff021916908373ffffffffffffffffffffffffffffffffffffffff1602179055508173ffffffffffffffffffffffffffffffffffffffff168173ffffffffffffffffffffffffffffffffffffffff167f8be0079c531659141344cd1fd0a4f28419497f9722a3daafe3b4186f6b6457e060405160405180910390a35050565b60005b81811015611762576116fd6008611d16565b600061170960086110c4565b90506117158482611d2c565b7f0f6798a560793a54c3bcfe86a93cde1e73087d944c0ea20544137d412139688584826040516117469291906134b3565b60405180910390a150808061175a906134dc565b9150506116eb565b505050565b8173ffffffffffffffffffffffffffffffffffffffff168373ffffffffffffffffffffffffffffffffffffffff16036117d5576040517f08c379a00000000000000000000000000000000000000000000000000000000081526004016117cc90613570565b60405180910390fd5b80600560008573ffffffffffffffffffffffffffffffffffffffff1673ffffffffffffffffffffffffffffffffffffffff16815260200190815260200160002060008473ffffffffffffffffffffffffffffffffffffffff1673ffffffffffffffffffffffffffffffffffffffff16815260200190815260200160002060006101000a81548160ff0219169083151502179055508173ffffffffffffffffffffffffffffffffffffffff168373ffffffffffffffffffffffffffffffffffffffff167f17307eab39ab6107e8899845ad3d59bd9653f200f220920489ca2b5937696c31836040516118c69190612525565b60405180910390a3505050565b6118de848484611167565b6118ea84848484611d4a565b611929576040517f08c379a000000000000000000000000000000000000000000000000000000000815260040161192090613602565b60405180910390fd5b50505050565b60008073ffffffffffffffffffffffffffffffffffffffff166002600084815260200190815260200160002060009054906101000a900473ffffffffffffffffffffffffffffffffffffffff1673ffffffffffffffffffffffffffffffffffffffff1614159050919050565b6060600a80546119aa90612c1a565b80601f01602080910402602001604051908101604052809291908181526020018280546119d690612c1a565b8015611a235780601f106119f857610100808354040283529160200191611a23565b820191906000526020600020905b815481529060010190602001808311611a0657829003601f168201915b5050505050905090565b606060008203611a74576040518060400160405280600181526020017f30000000000000000000000000000000000000000000000000000000000000008152509050611b88565b600082905060005b60008214611aa6578080611a8f906134dc565b915050600a82611a9f9190613651565b9150611a7c565b60008167ffffffffffffffff811115611ac257611ac161287a565b5b6040519080825280601f01601f191660200182016040528015611af45781602001600182028036833780820191505090505b5090505b60008514611b8157600182611b0d91906133bd565b9150600a85611b1c9190613682565b6030611b2891906133f1565b60f81b818381518110611b3e57611b3d6136b3565b5b60200101907effffffffffffffffffffffffffffffffffffffffffffffffffffffffffffff1916908160001a905350600a85611b7a9190613651565b9450611af8565b8093505050505b919050565b60007f80ac58cd000000000000000000000000000000000000000000000000000000007bffffffffffffffffffffffffffffffffffffffffffffffffffffffff1916827bffffffffffffffffffffffffffffffffffffffffffffffffffffffff19161480611c5857507f5b5e139f000000000000000000000000000000000000000000000000000000007bffffffffffffffffffffffffffffffffffffffffffffffffffffffff1916827bffffffffffffffffffffffffffffffffffffffffffffffffffffffff1916145b80611c685750611c6782611ed1565b5b9050919050565b505050565b505050565b611c838282610b5c565b611d1257611ca88173ffffffffffffffffffffffffffffffffffffffff166014611f3b565b611cb68360001c6020611f3b565b604051602001611cc792919061377a565b6040516020818303038152906040526040517f08c379a0000000000000000000000000000000000000000000000000000000008152600401611d0991906125d9565b60405180910390fd5b5050565b6001816000016000828254019250508190555050565b611d46828260405180602001604052806000815250612177565b5050565b6000611d6b8473ffffffffffffffffffffffffffffffffffffffff166121d2565b15611ec4578373ffffffffffffffffffffffffffffffffffffffff1663150b7a02611d94611003565b8786866040518563ffffffff1660e01b8152600401611db69493929190613809565b6020604051808303816000875af1925050508015611df257506040513d601f19601f82011682018060405250810190611def919061386a565b60015b611e74573d8060008114611e22576040519150601f19603f3d011682016040523d82523d6000602084013e611e27565b606091505b506000815103611e6c576040517f08c379a0000000000000000000000000000000000000000000000000000000008152600401611e6390613602565b60405180910390fd5b805181602001fd5b63150b7a0260e01b7bffffffffffffffffffffffffffffffffffffffffffffffffffffffff1916817bffffffffffffffffffffffffffffffffffffffffffffffffffffffff191614915050611ec9565b600190505b949350505050565b60007f01ffc9a7000000000000000000000000000000000000000000000000000000007bffffffffffffffffffffffffffffffffffffffffffffffffffffffff1916827bffffffffffffffffffffffffffffffffffffffffffffffffffffffff1916149050919050565b606060006002836002611f4e9190613897565b611f5891906133f1565b67ffffffffffffffff811115611f7157611f7061287a565b5b6040519080825280601f01601f191660200182016040528015611fa35781602001600182028036833780820191505090505b5090507f300000000000000000000000000000000000000000000000000000000000000081600081518110611fdb57611fda6136b3565b5b60200101907effffffffffffffffffffffffffffffffffffffffffffffffffffffffffffff1916908160001a9053507f78000000000000000000000000000000000000000000000000000000000000008160018151811061203f5761203e6136b3565b5b60200101907effffffffffffffffffffffffffffffffffffffffffffffffffffffffffffff1916908160001a9053506000600184600261207f9190613897565b61208991906133f1565b90505b6001811115612129577f3031323334353637383961626364656600000000000000000000000000000000600f8616601081106120cb576120ca6136b3565b5b1a60f81b8282815181106120e2576120e16136b3565b5b60200101907effffffffffffffffffffffffffffffffffffffffffffffffffffffffffffff1916908160001a905350600485901c945080612122906138f1565b905061208c565b506000841461216d576040517f08c379a000000000000000000000000000000000000000000000000000000000815260040161216490613966565b60405180910390fd5b8091505092915050565b61218183836121f5565b61218e6000848484611d4a565b6121cd576040517f08c379a00000000000000000000000000000000000000000000000000000000081526004016121c490613602565b60405180910390fd5b505050565b6000808273ffffffffffffffffffffffffffffffffffffffff163b119050919050565b600073ffffffffffffffffffffffffffffffffffffffff168273ffffffffffffffffffffffffffffffffffffffff1603612264576040517f08c379a000000000000000000000000000000000000000000000000000000000815260040161225b906139d2565b60405180910390fd5b61226d8161192f565b156122ad576040517f08c379a00000000000000000000000000000000000000000000000000000000081526004016122a490613a3e565b60405180910390fd5b6122b960008383611c6f565b6001600360008473ffffffffffffffffffffffffffffffffffffffff1673ffffffffffffffffffffffffffffffffffffffff168152602001908152602001600020600082825461230991906133f1565b92505081905550816002600083815260200190815260200160002060006101000a81548173ffffffffffffffffffffffffffffffffffffffff021916908373ffffffffffffffffffffffffffffffffffffffff160217905550808273ffffffffffffffffffffffffffffffffffffffff16600073ffffffffffffffffffffffffffffffffffffffff167fddf252ad1be2c89b69c2b068fc378daa952ba7f163c4a11628f55a4df523b3ef60405160405180910390a46123ca60008383611c74565b5050565b8280546123da90612c1a565b90600052602060002090601f0160209004810192826123fc5760008555612443565b82601f1061241557805160ff1916838001178555612443565b82800160010185558215612443579182015b82811115612442578251825591602001919060010190612427565b5b5090506124509190612454565b5090565b5b8082111561246d576000816000905550600101612455565b5090565b6000604051905090565b600080fd5b600080fd5b60007fffffffff0000000000000000000000000000000000000000000000000000000082169050919050565b6124ba81612485565b81146124c557600080fd5b50565b6000813590506124d7816124b1565b92915050565b6000602082840312156124f3576124f261247b565b5b6000612501848285016124c8565b91505092915050565b60008115159050919050565b61251f8161250a565b82525050565b600060208201905061253a6000830184612516565b92915050565b600081519050919050565b600082825260208201905092915050565b60005b8381101561257a57808201518184015260208101905061255f565b83811115612589576000848401525b50505050565b6000601f19601f8301169050919050565b60006125ab82612540565b6125b5818561254b565b93506125c581856020860161255c565b6125ce8161258f565b840191505092915050565b600060208201905081810360008301526125f381846125a0565b905092915050565b6000819050919050565b61260e816125fb565b811461261957600080fd5b50565b60008135905061262b81612605565b92915050565b6000602082840312156126475761264661247b565b5b60006126558482850161261c565b91505092915050565b600073ffffffffffffffffffffffffffffffffffffffff82169050919050565b60006126898261265e565b9050919050565b6126998161267e565b82525050565b60006020820190506126b46000830184612690565b92915050565b6126c38161267e565b81146126ce57600080fd5b50565b6000813590506126e0816126ba565b92915050565b600080604083850312156126fd576126fc61247b565b5b600061270b858286016126d1565b925050602061271c8582860161261c565b9150509250929050565b61272f816125fb565b82525050565b600060208201905061274a6000830184612726565b92915050565b6000806000606084860312156127695761276861247b565b5b6000612777868287016126d1565b9350506020612788868287016126d1565b92505060406127998682870161261c565b9150509250925092565b6000819050919050565b6127b6816127a3565b81146127c157600080fd5b50565b6000813590506127d3816127ad565b92915050565b6000602082840312156127ef576127ee61247b565b5b60006127fd848285016127c4565b91505092915050565b61280f816127a3565b82525050565b600060208201905061282a6000830184612806565b92915050565b600080604083850312156128475761284661247b565b5b6000612855858286016127c4565b9250506020612866858286016126d1565b9150509250929050565b600080fd5b600080fd5b7f4e487b7100000000000000000000000000000000000000000000000000000000600052604160045260246000fd5b6128b28261258f565b810181811067ffffffffffffffff821117156128d1576128d061287a565b5b80604052505050565b60006128e4612471565b90506128f082826128a9565b919050565b600067ffffffffffffffff8211156129105761290f61287a565b5b6129198261258f565b9050602081019050919050565b82818337600083830152505050565b6000612948612943846128f5565b6128da565b90508281526020810184848401111561296457612963612875565b5b61296f848285612926565b509392505050565b600082601f83011261298c5761298b612870565b5b813561299c848260208601612935565b91505092915050565b6000602082840312156129bb576129ba61247b565b5b600082013567ffffffffffffffff8111156129d9576129d8612480565b5b6129e584828501612977565b91505092915050565b600060208284031215612a0457612a0361247b565b5b6000612a12848285016126d1565b91505092915050565b612a248161250a565b8114612a2f57600080fd5b50565b600081359050612a4181612a1b565b92915050565b60008060408385031215612a5e57612a5d61247b565b5b6000612a6c858286016126d1565b9250506020612a7d85828601612a32565b9150509250929050565b600067ffffffffffffffff821115612aa257612aa161287a565b5b612aab8261258f565b9050602081019050919050565b6000612acb612ac684612a87565b6128da565b905082815260208101848484011115612ae757612ae6612875565b5b612af2848285612926565b509392505050565b600082601f830112612b0f57612b0e612870565b5b8135612b1f848260208601612ab8565b91505092915050565b60008060008060808587031215612b4257612b4161247b565b5b6000612b50878288016126d1565b9450506020612b61878288016126d1565b9350506040612b728782880161261c565b925050606085013567ffffffffffffffff811115612b9357612b92612480565b5b612b9f87828801612afa565b91505092959194509250565b60008060408385031215612bc257612bc161247b565b5b6000612bd0858286016126d1565b9250506020612be1858286016126d1565b9150509250929050565b7f4e487b7100000000000000000000000000000000000000000000000000000000600052602260045260246000fd5b60006002820490506001821680612c3257607f821691505b602082108103612c4557612c44612beb565b5b50919050565b7f4552433732313a20617070726f76616c20746f2063757272656e74206f776e6560008201527f7200000000000000000000000000000000000000000000000000000000000000602082015250565b6000612ca760218361254b565b9150612cb282612c4b565b604082019050919050565b60006020820190508181036000830152612cd681612c9a565b9050919050565b7f4552433732313a20617070726f76652063616c6c6572206973206e6f7420746f60008201527f6b656e206f776e6572206e6f7220617070726f76656420666f7220616c6c0000602082015250565b6000612d39603e8361254b565b9150612d4482612cdd565b604082019050919050565b60006020820190508181036000830152612d6881612d2c565b9050919050565b7f4552433732313a2063616c6c6572206973206e6f7420746f6b656e206f776e6560008201527f72206e6f7220617070726f766564000000000000000000000000000000000000602082015250565b6000612dcb602e8361254b565b9150612dd682612d6f565b604082019050919050565b60006020820190508181036000830152612dfa81612dbe565b9050919050565b7f416363657373436f6e74726f6c3a2063616e206f6e6c792072656e6f756e636560008201527f20726f6c657320666f722073656c660000000000000000000000000000000000602082015250565b6000612e5d602f8361254b565b9150612e6882612e01565b604082019050919050565b60006020820190508181036000830152612e8c81612e50565b9050919050565b7f4d657461646174612068617320616c7265616479206265656e2066696e616c6960008201527f7a65642e00000000000000000000000000000000000000000000000000000000602082015250565b6000612eef60248361254b565b9150612efa82612e93565b604082019050919050565b60006020820190508181036000830152612f1e81612ee2565b9050919050565b7f4552433732313a20696e76616c696420746f6b656e2049440000000000000000600082015250565b6000612f5b60188361254b565b9150612f6682612f25565b602082019050919050565b60006020820190508181036000830152612f8a81612f4e565b9050919050565b7f4552433732313a2061646472657373207a65726f206973206e6f74206120766160008201527f6c6964206f776e65720000000000000000000000000000000000000000000000602082015250565b6000612fed60298361254b565b9150612ff882612f91565b604082019050919050565b6000602082019050818103600083015261301c81612fe0565b9050919050565b7f4d7573742062652061204d696e746572206f722041646d696e00000000000000600082015250565b600061305960198361254b565b915061306482613023565b602082019050919050565b600060208201905081810360008301526130888161304c565b9050919050565b7f546f6b656e20494420646f6573206e6f7420657869737420696e20746869732060008201527f636f6c6c656374696f6e00000000000000000000000000000000000000000000602082015250565b60006130eb602a8361254b565b91506130f68261308f565b604082019050919050565b6000602082019050818103600083015261311a816130de565b9050919050565b600081905092915050565b600061313782612540565b6131418185613121565b935061315181856020860161255c565b80840191505092915050565b7f2e6a736f6e000000000000000000000000000000000000000000000000000000600082015250565b6000613193600583613121565b915061319e8261315d565b600582019050919050565b60006131b5828561312c565b91506131c1828461312c565b91506131cc82613186565b91508190509392505050565b7f4f776e61626c653a206e6577206f776e657220697320746865207a65726f206160008201527f6464726573730000000000000000000000000000000000000000000000000000602082015250565b600061323460268361254b565b915061323f826131d8565b604082019050919050565b6000602082019050818103600083015261326381613227565b9050919050565b7f4552433732313a207472616e736665722066726f6d20696e636f72726563742060008201527f6f776e6572000000000000000000000000000000000000000000000000000000602082015250565b60006132c660258361254b565b91506132d18261326a565b604082019050919050565b600060208201905081810360008301526132f5816132b9565b9050919050565b7f4552433732313a207472616e7366657220746f20746865207a65726f2061646460008201527f7265737300000000000000000000000000000000000000000000000000000000602082015250565b600061335860248361254b565b9150613363826132fc565b604082019050919050565b600060208201905081810360008301526133878161334b565b9050919050565b7f4e487b7100000000000000000000000000000000000000000000000000000000600052601160045260246000fd5b60006133c8826125fb565b91506133d3836125fb565b9250828210156133e6576133e561338e565b5b828203905092915050565b60006133fc826125fb565b9150613407836125fb565b9250827fffffffffffffffffffffffffffffffffffffffffffffffffffffffffffffffff0382111561343c5761343b61338e565b5b828201905092915050565b7f4f776e61626c653a2063616c6c6572206973206e6f7420746865206f776e6572600082015250565b600061347d60208361254b565b915061348882613447565b602082019050919050565b600060208201905081810360008301526134ac81613470565b9050919050565b60006040820190506134c86000830185612690565b6134d56020830184612726565b9392505050565b60006134e7826125fb565b91507fffffffffffffffffffffffffffffffffffffffffffffffffffffffffffffffff82036135195761351861338e565b5b600182019050919050565b7f4552433732313a20617070726f766520746f2063616c6c657200000000000000600082015250565b600061355a60198361254b565b915061356582613524565b602082019050919050565b600060208201905081810360008301526135898161354d565b9050919050565b7f4552433732313a207472616e7366657220746f206e6f6e20455243373231526560008201527f63656976657220696d706c656d656e7465720000000000000000000000000000602082015250565b60006135ec60328361254b565b91506135f782613590565b604082019050919050565b6000602082019050818103600083015261361b816135df565b9050919050565b7f4e487b7100000000000000000000000000000000000000000000000000000000600052601260045260246000fd5b600061365c826125fb565b9150613667836125fb565b92508261367757613676613622565b5b828204905092915050565b600061368d826125fb565b9150613698836125fb565b9250826136a8576136a7613622565b5b828206905092915050565b7f4e487b7100000000000000000000000000000000000000000000000000000000600052603260045260246000fd5b7f416363657373436f6e74726f6c3a206163636f756e7420000000000000000000600082015250565b6000613718601783613121565b9150613723826136e2565b601782019050919050565b7f206973206d697373696e6720726f6c6520000000000000000000000000000000600082015250565b6000613764601183613121565b915061376f8261372e565b601182019050919050565b60006137858261370b565b9150613791828561312c565b915061379c82613757565b91506137a8828461312c565b91508190509392505050565b600081519050919050565b600082825260208201905092915050565b60006137db826137b4565b6137e581856137bf565b93506137f581856020860161255c565b6137fe8161258f565b840191505092915050565b600060808201905061381e6000830187612690565b61382b6020830186612690565b6138386040830185612726565b818103606083015261384a81846137d0565b905095945050505050565b600081519050613864816124b1565b92915050565b6000602082840312156138805761387f61247b565b5b600061388e84828501613855565b91505092915050565b60006138a2826125fb565b91506138ad836125fb565b9250817fffffffffffffffffffffffffffffffffffffffffffffffffffffffffffffffff04831182151516156138e6576138e561338e565b5b828202905092915050565b60006138fc826125fb565b91506000820361390f5761390e61338e565b5b600182039050919050565b7f537472696e67733a20686578206c656e67746820696e73756666696369656e74600082015250565b600061395060208361254b565b915061395b8261391a565b602082019050919050565b6000602082019050818103600083015261397f81613943565b9050919050565b7f4552433732313a206d696e7420746f20746865207a65726f2061646472657373600082015250565b60006139bc60208361254b565b91506139c782613986565b602082019050919050565b600060208201905081810360008301526139eb816139af565b9050919050565b7f4552433732313a20746f6b656e20616c7265616479206d696e74656400000000600082015250565b6000613a28601c8361254b565b9150613a33826139f2565b602082019050919050565b60006020820190508181036000830152613a5781613a1b565b905091905056fea264697066735822122027a75ac8a1ea866ac927f37d766f4846e9deaf0230340a290463006aeae77c0f64736f6c634300080d0033",
  "linkReferences": {},
  "deployedLinkReferences": {}
}